{"project/contracts/test/OpenFLModelHarness.sol":{"OpenFLModelHarness":{"abi":[{"inputs":[{"internalType":"bytes32","name":"_modelHash","type":"bytes32"},{"internalType":"uint256","name":"_min_collateral","type":"uint256"},{"internalType":"uint256","name":"_max_collateral","type":"uint256"},{"internalType":"uint256","name":"_reward","type":"uint256"},{"internalType":"uint8","name":"_min_rounds","type":"uint8"},{"internalType":"uint8","name":"_punishfactor","type":"uint8"},{"internalType":"uint8","name":"_punishfactorContrib","type":"uint8"},{"internalType":"uint8","name":"_freeriderPenalty","type":"uint8"}],"stateMutability":"nonpayable","type":"constructor"},{"anonymous":false,"inputs":[{"indexed":true,"internalType":"address","name":"user","type":"address"},{"indexed":false,"internalType":"int256","name":"contributionScore","type":"int256"}],"name":"ContributionScoreSubmitted","type":"event"},{"anonymous":false,"inputs":[{"indexed":false,"internalType":"address","name":"addr","type":"address"},{"indexed":false,"internalType":"int256","name":"weightedContribScore","type":"int256"},{"indexed":false,"internalType":"uint256","name":"globalReputationScore","type":"uint256"},{"indexed":false,"internalType":"int256","name":"roundReputation","type":"int256"},{"indexed":false,"internalType":"uint8","name":"nrOfRoundsParticipated","type":"uint8"},{"indexed":false,"internalType":"uint8","name":"nrOfVotesFromUser","type":"uint8"},{"indexed":false,"internalType":"bool","name":"isPunished","type":"bool"},{"indexed":false,"internalType":"bool","name":"isRegistered","type":"bool"},{"indexed":false,"internalType":"bool","name":"whitelistedForRewards","type":"bool"},{"indexed":false,"internalType":"bool","name":"isDisqualified","type":"bool"}],"name":"DebugUser","type":"event"},{"anonymous":false,"inputs":[{"indexed":false,"internalType":"address","name":"victim","type":"address"},{"indexed":false,"internalType":"int256","name":"roundScore","type":"int256"},{"indexed":false,"internalType":"uint256","name":"loss","type":"uint256"},{"indexed":false,"internalType":"uint256","name":"newReputation","type":"uint256"}],"name":"Disqualification","type":"event"},{"anonymous":false,"inputs":[{"indexed":false,"internalType":"uint8","name":"round","type":"uint8"},{"indexed":false,"internalType":"uint8","name":"validVotes","type":"uint8"},{"indexed":false,"internalType":"uint256","name":"sumOfWeightedContribScore","type":"uint256"},{"indexed":false,"internalType":"uint256","name":"totalPunishment","type":"uint256"}],"name":"EndRound","type":"event"},{"anonymous":false,"inputs":[{"indexed":false,"internalType":"uint256","name":"initTS","type":"uint256"},{"indexed":false,"internalType":"uint256","name":"max_collateral","type":"uint256"},{"indexed":false,"internalType":"uint256","name":"min_collateral","type":"uint256"},{"indexed":false,"internalType":"uint256","name":"total_reward","type":"uint256"},{"indexed":false,"internalType":"uint8","name":"min_rounds","type":"uint8"},{"indexed":false,"internalType":"uint256","name":"freerider_fee","type":"uint256"}],"name":"FederatedLerningModelDeployed","type":"event"},{"anonymous":false,"inputs":[{"indexed":false,"internalType":"address","name":"target","type":"address"},{"indexed":false,"internalType":"address","name":"user","type":"address"},{"indexed":false,"internalType":"uint256","name":"globalReputation","type":"uint256"},{"indexed":false,"internalType":"int256","name":"newroundReputation","type":"int256"}],"name":"Feedback","type":"event"},{"anonymous":false,"inputs":[{"indexed":false,"internalType":"address","name":"victim","type":"address"},{"indexed":false,"internalType":"int256","name":"roundScore","type":"int256"},{"indexed":false,"internalType":"uint256","name":"loss","type":"uint256"},{"indexed":false,"internalType":"uint256","name":"newReputation","type":"uint256"}],"name":"PassivPunishment","type":"event"},{"anonymous":false,"inputs":[{"indexed":false,"internalType":"address","name":"victim","type":"address"},{"indexed":false,"internalType":"int256","name":"roundScore","type":"int256"},{"indexed":false,"internalType":"uint256","name":"loss","type":"uint256"},{"indexed":false,"internalType":"uint256","name":"newReputation","type":"uint256"}],"name":"Punishment","type":"event"},{"anonymous":false,"inputs":[{"indexed":false,"internalType":"address","name":"user","type":"address"},{"indexed":false,"internalType":"uint256","name":"reputationValue","type":"uint256"},{"indexed":false,"internalType":"uint256","name":"totalCollateral","type":"uint256"},{"indexed":false,"internalType":"uint256","name":"numberOfContributers","type":"uint256"}],"name":"Registered","type":"event"},{"anonymous":false,"inputs":[{"indexed":false,"internalType":"address","name":"user","type":"address"},{"indexed":false,"internalType":"int256","name":"roundScore","type":"int256"},{"indexed":false,"internalType":"uint256","name":"win","type":"uint256"},{"indexed":false,"internalType":"uint256","name":"newReputation","type":"uint256"}],"name":"Reward","type":"event"},{"inputs":[{"internalType":"address","name":"userAddr","type":"address"}],"name":"__isPunished","outputs":[{"internalType":"bool","name":"","type":"bool"}],"stateMutability":"view","type":"function"},{"inputs":[{"components":[{"internalType":"address[]","name":"participants","type":"address[]"},{"internalType":"uint256[]","name":"reputations","type":"uint256[]"},{"internalType":"int256[]","name":"roundReps","type":"int256[]"},{"internalType":"uint8[]","name":"nrOfVotesOfUser","type":"uint8[]"},{"internalType":"uint8","name":"round","type":"uint8"}],"internalType":"struct OpenFLModelHarness.InitParams","name":"p","type":"tuple"}],"name":"__testInitSettleState","outputs":[],"stateMutability":"nonpayable","type":"function"},{"inputs":[{"internalType":"address","name":"userAddr","type":"address"}],"name":"_getUserGRSAtAddress","outputs":[{"internalType":"uint256","name":"","type":"uint256"}],"stateMutability":"nonpayable","type":"function"},{"inputs":[{"internalType":"address","name":"userAddr","type":"address"},{"internalType":"uint256","name":"value","type":"uint256"}],"name":"_setUserGRSAtAddress","outputs":[],"stateMutability":"nonpayable","type":"function"},{"inputs":[{"internalType":"uint8","name":"","type":"uint8"},{"internalType":"address","name":"","type":"address"}],"name":"contributionScore","outputs":[{"internalType":"int256","name":"","type":"int256"}],"stateMutability":"view","type":"function"},{"inputs":[],"name":"contributionStart","outputs":[{"internalType":"uint256","name":"","type":"uint256"}],"stateMutability":"view","type":"function"},{"inputs":[],"name":"exitModel","outputs":[],"stateMutability":"nonpayable","type":"function"},{"inputs":[{"internalType":"address","name":"target","type":"address"},{"internalType":"int256","name":"score","type":"int256"}],"name":"feedback","outputs":[],"stateMutability":"nonpayable","type":"function"},{"inputs":[],"name":"freeriderPenalty","outputs":[{"internalType":"uint256","name":"","type":"uint256"}],"stateMutability":"view","type":"function"},{"inputs":[{"internalType":"address","name":"target","type":"address"}],"name":"getAllAccuraciesAbout","outputs":[{"internalType":"address[]","name":"voters","type":"address[]"},{"internalType":"uint8[]","name":"accuracies","type":"uint8[]"},{"internalType":"uint256[]","name":"losses","type":"uint256[]"}],"stateMutability":"view","type":"function"},{"inputs":[],"name":"getAllPreviousAccuraciesAndLosses","outputs":[{"internalType":"uint8[]","name":"previous_accuracies","type":"uint8[]"},{"internalType":"uint256[]","name":"previous_losses","type":"uint256[]"}],"stateMutability":"view","type":"function"},{"inputs":[{"internalType":"address","name":"u","type":"address"}],"name":"getUser","outputs":[{"internalType":"address","name":"","type":"address"},{"internalType":"int256","name":"","type":"int256"},{"internalType":"uint256","name":"","type":"uint256"},{"internalType":"int256","name":"","type":"int256"},{"internalType":"uint8","name":"","type":"uint8"},{"internalType":"uint8","name":"","type":"uint8"},{"internalType":"bool","name":"","type":"bool"},{"internalType":"bool","name":"","type":"bool"},{"internalType":"bool","name":"","type":"bool"},{"internalType":"bool","name":"","type":"bool"}],"stateMutability":"view","type":"function"},{"inputs":[{"internalType":"address","name":"","type":"address"},{"internalType":"address","name":"","type":"address"}],"name":"hasVoted","outputs":[{"internalType":"bool","name":"","type":"bool"}],"stateMutability":"view","type":"function"},{"inputs":[],"name":"initTS","outputs":[{"internalType":"uint256","name":"","type":"uint256"}],"stateMutability":"view","type":"function"},{"inputs":[],"name":"isContributionRoundDone","outputs":[{"internalType":"bool","name":"roundClosed","type":"bool"}],"stateMutability":"view","type":"function"},{"inputs":[],"name":"isFeedBackRoundDone","outputs":[{"internalType":"bool","name":"roundClosed","type":"bool"}],"stateMutability":"view","type":"function"},{"inputs":[],"name":"max_collateral","outputs":[{"internalType":"uint256","name":"","type":"uint256"}],"stateMutability":"view","type":"function"},{"inputs":[],"name":"min_collateral","outputs":[{"internalType":"uint256","name":"","type":"uint256"}],"stateMutability":"view","type":"function"},{"inputs":[],"name":"min_rounds","outputs":[{"internalType":"uint8","name":"","type":"uint8"}],"stateMutability":"view","type":"function"},{"inputs":[],"name":"modelHash","outputs":[{"internalType":"bytes32","name":"","type":"bytes32"}],"stateMutability":"view","type":"function"},{"inputs":[{"internalType":"uint8","name":"","type":"uint8"}],"name":"nrOfContributionScores","outputs":[{"internalType":"uint256","name":"","type":"uint256"}],"stateMutability":"view","type":"function"},{"inputs":[],"name":"nrOfParticipants","outputs":[{"internalType":"uint256","name":"","type":"uint256"}],"stateMutability":"view","type":"function"},{"inputs":[],"name":"nrOfProvidedHashedWeights","outputs":[{"internalType":"uint256","name":"","type":"uint256"}],"stateMutability":"view","type":"function"},{"inputs":[{"internalType":"uint256","name":"","type":"uint256"}],"name":"participants","outputs":[{"internalType":"address","name":"","type":"address"}],"stateMutability":"view","type":"function"},{"inputs":[{"internalType":"uint8","name":"","type":"uint8"},{"internalType":"address","name":"","type":"address"}],"name":"prev_accs","outputs":[{"internalType":"uint8","name":"","type":"uint8"}],"stateMutability":"view","type":"function"},{"inputs":[{"internalType":"uint8","name":"","type":"uint8"},{"internalType":"address","name":"","type":"address"}],"name":"prev_losses","outputs":[{"internalType":"uint256","name":"","type":"uint256"}],"stateMutability":"view","type":"function"},{"inputs":[{"internalType":"bytes32","name":"hashedWeights","type":"bytes32"},{"internalType":"uint256","name":"salt","type":"uint256"}],"name":"provideHashedWeights","outputs":[],"stateMutability":"nonpayable","type":"function"},{"inputs":[],"name":"punishfactor","outputs":[{"internalType":"uint8","name":"","type":"uint8"}],"stateMutability":"view","type":"function"},{"inputs":[],"name":"punishfactorContrib","outputs":[{"internalType":"uint8","name":"","type":"uint8"}],"stateMutability":"view","type":"function"},{"inputs":[],"name":"register","outputs":[],"stateMutability":"payable","type":"function"},{"inputs":[{"internalType":"address","name":"initiator","type":"address"}],"name":"register","outputs":[],"stateMutability":"payable","type":"function"},{"inputs":[{"internalType":"bytes32","name":"_secret","type":"bytes32"}],"name":"registerSlot","outputs":[],"stateMutability":"nonpayable","type":"function"},{"inputs":[],"name":"rewardLeft","outputs":[{"internalType":"uint256","name":"","type":"uint256"}],"stateMutability":"view","type":"function"},{"inputs":[],"name":"rewardPerRound","outputs":[{"internalType":"uint256","name":"","type":"uint256"}],"stateMutability":"view","type":"function"},{"inputs":[],"name":"round","outputs":[{"internalType":"uint8","name":"","type":"uint8"}],"stateMutability":"view","type":"function"},{"inputs":[],"name":"roundStart","outputs":[{"internalType":"uint256","name":"","type":"uint256"}],"stateMutability":"view","type":"function"},{"inputs":[{"internalType":"address","name":"","type":"address"},{"internalType":"uint8","name":"","type":"uint8"}],"name":"secretOf","outputs":[{"internalType":"bytes32","name":"","type":"bytes32"}],"stateMutability":"view","type":"function"},{"inputs":[],"name":"settle","outputs":[],"stateMutability":"nonpayable","type":"function"},{"inputs":[{"internalType":"int256","name":"score","type":"int256"}],"name":"submitContributionScore","outputs":[],"stateMutability":"nonpayable","type":"function"},{"inputs":[{"internalType":"bytes","name":"raw","type":"bytes"}],"name":"submitFeedbackBytes","outputs":[],"stateMutability":"nonpayable","type":"function"},{"inputs":[{"internalType":"bytes","name":"raw","type":"bytes"},{"internalType":"uint8[]","name":"accuracies","type":"uint8[]"},{"internalType":"uint256[]","name":"losses","type":"uint256[]"},{"internalType":"uint8","name":"prev_acc","type":"uint8"},{"internalType":"uint256","name":"prev_loss","type":"uint256"}],"name":"submitFeedbackBytesAndAccuracies","outputs":[],"stateMutability":"nonpayable","type":"function"},{"inputs":[],"name":"testing","outputs":[{"internalType":"bool","name":"","type":"bool"}],"stateMutability":"view","type":"function"},{"inputs":[],"name":"totalReward","outputs":[{"internalType":"uint256","name":"","type":"uint256"}],"stateMutability":"view","type":"function"},{"inputs":[{"internalType":"address","name":"","type":"address"}],"name":"users","outputs":[{"internalType":"int256","name":"weightedContribScore","type":"int256"},{"internalType":"uint256","name":"globalReputationScore","type":"uint256"},{"internalType":"int256","name":"roundReputation","type":"int256"},{"internalType":"address","name":"addr","type":"address"},{"internalType":"uint8","name":"nrOfRoundsParticipated","type":"uint8"},{"internalType":"uint8","name":"nrOfVotesFromUser","type":"uint8"},{"internalType":"bool","name":"isPunished","type":"bool"},{"internalType":"bool","name":"isRegistered","type":"bool"},{"internalType":"bool","name":"whitelistedForRewards","type":"bool"},{"internalType":"bool","name":"isDisqualified","type":"bool"}],"stateMutability":"view","type":"function"},{"inputs":[{"internalType":"address","name":"","type":"address"},{"internalType":"address","name":"","type":"address"}],"name":"votedPositiveFor","outputs":[{"internalType":"bool","name":"","type":"bool"}],"stateMutability":"view","type":"function"},{"inputs":[],"name":"votesPerRound","outputs":[{"internalType":"uint8","name":"","type":"uint8"}],"stateMutability":"view","type":"function"},{"inputs":[{"internalType":"address","name":"","type":"address"},{"internalType":"uint8","name":"","type":"uint8"}],"name":"weightsOf","outputs":[{"internalType":"bytes32","name":"","type":"bytes32"}],"stateMutability":"view","type":"function"}],"evm":{"bytecode":{"linkReferences":{},"object":"60806040526001805460ff19908116909155600f805490911690553480156200002757600080fd5b5060405162004157380380620041578339810160408190526200004a91620001ac565b426004819055600a5560008890556005879055600686905560078590556001805463ffff00001916630100000060ff8781169190910262ff000019169190911762010000868316021760ff60201b1916640100000000858316021790915588908890889088908890889088908890606490620000c99083168962000230565b620000d591906200025e565b600c55600154600754620000f4916301000000900460ff16906200025e565b6008556007546009819055600454600554600654600154600c54604080519586526020860194909452928401919091526060830193909352630100000090920460ff16608082015260a08101919091527fd910741da174a91f8b84705afeaf69767bd61d4ac64620028ade113e576932519060c00160405180910390a15050600f805460ff1916600117905550620002819c50505050505050505050505050565b805160ff81168114620001a757600080fd5b919050565b600080600080600080600080610100898b031215620001ca57600080fd5b88519750602089015196506040890151955060608901519450620001f160808a0162000195565b93506200020160a08a0162000195565b92506200021160c08a0162000195565b91506200022160e08a0162000195565b90509295985092959890939650565b60008160001904831182151516156200025957634e487b7160e01b600052601160045260246000fd5b500290565b6000826200027c57634e487b7160e01b600052601260045260246000fd5b500490565b613ec680620002916000396000f3fe6080604052600436106102875760003560e01c80636f77926b1161015a578063ca6e0385116100c1578063f283865f1161007a578063f283865f146109a3578063f5b27228146109c3578063f6020f01146109e3578063fa569fa214610a12578063fcbace5d14610a4a578063fd5201be14610a6a57600080fd5b8063ca6e0385146108df578063cc500ec91461091a578063d6aad1b914610939578063dcc1484a1461094e578063e98b25f914610963578063f0c369551461098357600080fd5b80638fe557a1116101135780638fe557a114610776578063904a9d17146107965780639699fee6146107ac578063a41dacd6146107cc578063a87430ba146107e2578063b986695b146108c957600080fd5b80636f77926b146105c1578063701341ed146106af578063750142e6146106d25780638b2f56fb146106e85780638c8e9d64146107235780638d03b1021461075c57600080fd5b80633aa8f2ed116101fe5780634d4d2b1c116101b75780634d4d2b1c146104c55780634e49ad7814610510578063508be15e1461052657806359ac0c461461053c57806364a3e22114610569578063667ba0f61461058957600080fd5b80633aa8f2ed1461040d5780633eee04261461042d5780633f4f2d621461044357806340365852146104645780634420e4861461047a57806345e4c3791461048d57600080fd5b8063146ca53111610250578063146ca53114610353578063186beae31461037f5780631aa3a008146103a15780631b2ccc09146103a957806333f93bcd146103bf57806335c1d349146103d557600080fd5b80625c43a51461028c5780630899604c146102b557806308fba75c146102cc578063095083af1461030657806311da60b41461033e575b600080fd5b34801561029857600080fd5b506102a2600c5481565b6040519081526020015b60405180910390f35b3480156102c157600080fd5b506102ca610a80565b005b3480156102d857600080fd5b506102ca6102e73660046137b0565b6001600160a01b03909116600090815260106020526040902060010155565b34801561031257600080fd5b506102a26103213660046137eb565b601360209081526000928352604080842090915290825290205481565b34801561034a57600080fd5b506102ca610c94565b34801561035f57600080fd5b5060015461036d9060ff1681565b60405160ff90911681526020016102ac565b34801561038b57600080fd5b5060015461036d90640100000000900460ff1681565b6102ca611d93565b3480156103b557600080fd5b506102a260005481565b3480156103cb57600080fd5b506102a260085481565b3480156103e157600080fd5b506103f56103f036600461381e565b611e34565b6040516001600160a01b0390911681526020016102ac565b34801561041957600080fd5b506102ca6104283660046137b0565b611e5e565b34801561043957600080fd5b506102a260095481565b34801561044f57600080fd5b5060015461036d906301000000900460ff1681565b34801561047057600080fd5b506102a2600a5481565b6102ca610488366004613837565b6121cd565b34801561049957600080fd5b506102a26104a83660046137eb565b601460209081526000928352604080842090915290825290205481565b3480156104d157600080fd5b506105006104e0366004613859565b601160209081526000928352604080842090915290825290205460ff1681565b60405190151581526020016102ac565b34801561051c57600080fd5b506102a260025481565b34801561053257600080fd5b506102a260055481565b34801561054857600080fd5b506102a2610557366004613883565b60166020526000908152604090205481565b34801561057557600080fd5b506102ca61058436600461389e565b61226f565b34801561059557600080fd5b506102a26105a43660046138c0565b601860209081526000928352604080842090915290825290205481565b3480156105cd57600080fd5b5061064f6105dc366004613837565b6001600160a01b0390811660009081526010602052604090206003810154815460018301546002909301549382169490939160ff600160a01b8204811692600160a81b8304821692600160b01b8104831692600160b81b8204811692600160c01b8304821692600160c81b900490911690565b604080516001600160a01b03909b168b5260208b019990995297890196909652606088019490945260ff9283166080880152911660a0860152151560c0850152151560e084015215156101008301521515610120820152610140016102ac565b3480156106bb57600080fd5b506106c46123cc565b6040516102ac92919061394a565b3480156106de57600080fd5b506102a260075481565b3480156106f457600080fd5b5061036d6107033660046138c0565b601760209081526000928352604080842090915290825290205460ff1681565b34801561072f57600080fd5b506102a261073e366004613837565b6001600160a01b031660009081526010602052604090206001015490565b34801561076857600080fd5b50600f546105009060ff1681565b34801561078257600080fd5b506102ca610791366004613a06565b612641565b3480156107a257600080fd5b506102a260065481565b3480156107b857600080fd5b506102ca6107c7366004613aba565b612990565b3480156107d857600080fd5b506102a2600b5481565b3480156107ee57600080fd5b5061086b6107fd366004613837565b6010602052600090815260409020805460018201546002830154600390930154919290916001600160a01b0381169060ff600160a01b8204811691600160a81b8104821691600160b01b8204811691600160b81b8104821691600160c01b8204811691600160c81b9004168a565b604080519a8b5260208b0199909952978901969096526001600160a01b03909416606088015260ff9283166080880152911660a0860152151560c0850152151560e084015215156101008301521515610120820152610140016102ac565b3480156108d557600080fd5b506102a260035481565b3480156108eb57600080fd5b506105006108fa366004613859565b601260209081526000928352604080842090915290825290205460ff1681565b34801561092657600080fd5b5060015461036d90610100900460ff1681565b34801561094557600080fd5b50610500612a64565b34801561095a57600080fd5b50610500612b07565b34801561096f57600080fd5b506102ca61097e366004613afc565b612c06565b34801561098f57600080fd5b5061050061099e366004613837565b612de0565b3480156109af57600080fd5b506102ca6109be36600461381e565b612e5c565b3480156109cf57600080fd5b506102ca6109de36600461381e565b612fa8565b3480156109ef57600080fd5b50610a036109fe366004613837565b613056565b6040516102ac93929190613b37565b348015610a1e57600080fd5b506102a2610a2d3660046138c0565b601560209081526000928352604080842090915290825290205481565b348015610a5657600080fd5b5060015461036d9062010000900460ff1681565b348015610a7657600080fd5b506102a260045481565b33600090815260106020526040902060030154600160b81b900460ff16610ac25760405162461bcd60e51b8152600401610ab990613bac565b60405180910390fd5b60025460035414158015610ae557504262015180600a54610ae39190613bdf565b115b610b165760405162461bcd60e51b81526020600482015260026024820152614e4160f01b6044820152606401610ab9565b33600090815260146020908152604080832060015460ff16845290915290205415610b695760405162461bcd60e51b815260206004820152600360248201526257464560e81b6044820152606401610ab9565b33600090815260106020526040902060010154610bae5760405162461bcd60e51b81526020600482015260036024820152622722a360e91b6044820152606401610ab9565b336000908152601060205260408120600101805490829055905b600d54811015610c4957336001600160a01b0316600d8281548110610bef57610bef613bf7565b6000918252602090912001546001600160a01b03161415610c3757600d8181548110610c1d57610c1d613bf7565b600091825260209091200180546001600160a01b03191690555b80610c4181613c0d565b915050610bc8565b5033600081815260106020526040808220600301805460ff60b81b191690555183156108fc0291849190818181858888f19350505050158015610c90573d6000803e3d6000fd5b5050565b600080610ca2600e82613624565b60005b600d54811015610d4157600060106000600d8481548110610cc857610cc8613bf7565b60009182526020808320909101546001600160a01b031683528201929092526040019020600381015490915060ff600160a01b9091041660011415610d2e57600c548160010154610d199190613c28565b6001820155600c54610d2b9084613bdf565b92505b5080610d3981613c0d565b915050610ca5565b5060005b600d5481101561107c57600060106000600d8481548110610d6857610d68613bf7565b60009182526020808320909101546001600160a01b031683528201929092526040019020600381015490915060ff600160b81b9091041615611069576000816002015412156110535760038101546001805460ff600160a81b9093048316928291610dda918591610100900416613c3f565b92506101000a81548160ff021916908360ff1602179055506000600160029054906101000a900460ff1660ff168260010154610e169190613c62565b600154600554919250610e33916201000090910460ff1690613c62565b82600101541115610f3d5760038201805460ff60b01b198116600160b01b178255600e8054600181810183556000929092527fbb7b4a454dc3493923482f07822329ed19e8244eff582cc204f8554c3620c3fd0180546001600160a01b0319166001600160a01b0390931692909217909155815460ff60c01b1916909155820154610ebf908290613c28565b60018301556002820154610ed4908290613c84565b6002830155610ee38186613bdf565b6003830154600284015460018501546040519398507f641368b934d33e657fe49c6af1c0e5b618d4dc123f53fc3f8d5f15fee5f4fb8693610f30936001600160a01b031692918691613cc3565b60405180910390a161104d565b60038201805461ffff60b01b198116600160b01b178255600e8054600181810183556000929092527fbb7b4a454dc3493923482f07822329ed19e8244eff582cc204f8554c3620c3fd0180546001600160a01b0319166001600160a01b0390931692909217909155815460ff60c01b1916909155820154610fbe9086613bdf565b6003830154600284015460018501546040519398507f6a461179a109ac5a4f65774b04343a475dd7d089ffa5a31552a4d71e0a1e7b4f9361100d936001600160a01b0316929190600090613cc3565b60405180910390a1600082600101819055506001600260008282546110329190613c28565b909155505060038201805460ff60c81b1916600160c81b1790555b50611069565b60038101805460ff60c01b1916600160c01b1790555b508061107481613c0d565b915050610d45565b5060005b600d5481101561128457600060106000600d84815481106110a3576110a3613bf7565b60009182526020808320909101546001600160a01b031683528201929092526040019020600381015490915060ff600160b81b90910416156112715760005b600e5481101561126f5760038201546001600160a01b03166000908152601260205260408120600e80549192918490811061111f5761111f613bf7565b60009182526020808320909101546001600160a01b0316835282019290925260400190205460ff161561125d5760038201546001600160a01b03166000908152601260205260408120600e80548391908590811061117f5761117f613bf7565b6000918252602080832091909101546001600160a01b031683528201929092526040019020805460ff191691151591909117905560038201546001805460ff600160a81b90930483169282916111dc918591610100900416613c3f565b825460ff9182166101009390930a92830291909202199091161790555060038201805460ff60c01b198116909155600283015460018401546040517f1774dd77faaf323cd25b2f963ff975744949b339a6d103b4e3959263f6c2f97793611254936001600160a01b0390911692909160009190613cc3565b60405180910390a15b8061126781613c0d565b9150506110e2565b505b508061127c81613c0d565b915050611080565b5060005b600d5481101561137057600060106000600d84815481106112ab576112ab613bf7565b60009182526020808320909101546001600160a01b031683528201929092526040019020600381015490915060ff600160b81b909104161561135d576003810154600160a01b900460ff166001141561135d576003810154600160c01b900460ff161561133d57600c5481600101546113249190613bdf565b6001820155600c546113369084613c28565b925061135d565b600c5461134a9085613bdf565b9350600c548361135a9190613c28565b92505b508061136881613c0d565b915050611288565b506001546000908190610100900460ff1615801590611393575060085460095410155b15611b9f57600854600960008282546113ac9190613c28565b909155505060085484156113c7576113c48582613bdf565b90505b60005b600d5481101561152757600060106000600d84815481106113ed576113ed613bf7565b60009182526020808320909101546001600160a01b031683528201929092526040019020600381015490915060ff600160b81b90910416801561143b57506003810154600160c01b900460ff165b801561145357506003810154600160b01b900460ff16155b156115145760015460ff16600090815260156020908152604080832060038501546001600160a01b0316845290915281205461148e906134da565b60038301546114a79190600160a81b900460ff16613ce9565b60015460ff16600090815260156020908152604080832060038701546001600160a01b03168452909152812054919250136114ea576114e581613d08565b6114ec565b805b8260000160008282546114ff9190613d25565b909155505081546115109087613d25565b9550505b508061151f81613c0d565b9150506113ca565b5060005b600d5481101561175c57600060106000600d848154811061154e5761154e613bf7565b60009182526020808320909101546001600160a01b031683528201929092526040019020600381015490915060ff600160b81b90910416801561159c57506003810154600160c01b900460ff165b80156115b457506003810154600160b01b900460ff16155b156117495760008513156115c857846115cb565b60015b93506000846115dd8360000154613514565b6115e79086613ce9565b6115f19190613c62565b60015460ff16600090815260156020908152604080832060038701546001600160a01b03168452909152812054919250138015611649575060015461164190640100000000900460ff1682613ce9565b826001015411155b1561174757600182015461165d9085613bdf565b6003830154600284015460018501546040519397507f6a461179a109ac5a4f65774b04343a475dd7d089ffa5a31552a4d71e0a1e7b4f936116ac936001600160a01b0316929190600090613cc3565b60405180910390a160015460ff16600090815260156020908152604080832060038601546001600160a01b031684529091529020546116ea906134da565b60038301546117039190600160a81b900460ff16613ce9565b61170d9087613d25565b95506000826001018190555060016002600082825461172c9190613c28565b909155505060038201805460ff60c81b1916600160c81b1790555b505b508061175481613c0d565b91505061152b565b50600083131561176c578261176f565b60015b915060008060005b600d5481101561190f57600060106000600d848154811061179a5761179a613bf7565b60009182526020808320909101546001600160a01b031683528201929092526040019020600381015490915060ff600160b81b9091041680156117e857506003810154600160c01b900460ff165b801561180057506003810154600160b01b900460ff16155b8015611836575060015460ff16600090815260156020908152604080832060038501546001600160a01b03168452909152812054125b156118fc5760008661184b8360000154613514565b6118559088613ce9565b61185f9190613c62565b60015490915060009061187d90640100000000900460ff1683613ce9565b9050808360010160008282546118939190613c28565b909155506118a390508187613bdf565b6003840154600285015460018601546040519399507ff002da1cc235dd7b3cd93cb91c128fe6e777fb632383da5ff2603123883748b1936118f1936001600160a01b03169291600091613cc3565b60405180910390a150505b508061190781613c0d565b915050611777565b5061191a8284613bdf565b925060005b600d54811015611a0557600060106000600d848154811061194257611942613bf7565b60009182526020808320909101546001600160a01b031683528201929092526040019020600381015490915060ff600160b81b90910416801561199057506003810154600160c01b900460ff165b80156119a857506003810154600160b01b900460ff16155b80156119de575060015460ff16600090815260156020908152604080832060038501546001600160a01b03168452909152812054135b156119f25780546119ef9084613bdf565b92505b50806119fd81613c0d565b91505061191f565b508015611a125780611a15565b60015b905060005b600d54811015611b9a57600060106000600d8481548110611a3d57611a3d613bf7565b60009182526020808320909101546001600160a01b031683528201929092526040019020600381015490915060ff600160b81b909104168015611a8b57506003810154600160c01b900460ff165b8015611aa357506003810154600160b01b900460ff16155b8015611ad9575060015460ff16600090815260156020908152604080832060038501546001600160a01b03168452909152812054135b15611b7557600083611aee8360000154613514565b611af89088613ce9565b611b029190613c62565b905080826001016000828254611b189190613bdf565b90915550506003820154600283015460018401546040517ff002da1cc235dd7b3cd93cb91c128fe6e777fb632383da5ff2603123883748b193611b6b936001600160a01b03909116929091869190613cc3565b60405180910390a1505b60038101805460ff60c01b191690556000905580611b9281613c0d565b915050611a1a565b505050505b6001546040805160ff808416825261010090930490921660208301528101829052606081018590527f0fb9071657a7d7c77d4413e1c8487bb219c39de920f3297977dd60bf0e00d33d9060800160405180910390a160005b600d54811015611d4857600060106000600d8481548110611c1a57611c1a613bf7565b60009182526020808320909101546001600160a01b031683528201929092526040019020600381015490915060ff600160b81b9091041615611d355760038101805460ff60a81b19168082556000600284015560019190601490611c89908490600160a01b900460ff16613d66565b825460ff9182166101009390930a92830291909202199091161790555060038101805460ff60b01b1916905560005b600d54811015611d335760038201546001600160a01b03166000908152601160205260408120600d805491929184908110611cf557611cf5613bf7565b60009182526020808320909101546001600160a01b031683528201929092526040019020805460ff1916905580611d2b81613c0d565b915050611cb8565b505b5080611d4081613c0d565b915050611bf7565b50600180548190600090611d6090839060ff16613d66565b825460ff9182166101009390930a928302919092021990911617905550506001805461ff00191690555050600060035550565b33600090815260106020526040902060030154600160b81b900460ff1615611de35760405162461bcd60e51b815260206004820152600360248201526229a0a960e91b6044820152606401610ab9565b6005543410158015611df757506006543411155b611e295760405162461bcd60e51b8152602060048201526003602482015262272ba960e91b6044820152606401610ab9565b611e3233613528565b565b600d8181548110611e4457600080fd5b6000918252602090912001546001600160a01b0316905081565b33600090815260106020526040902060030154600160b81b900460ff16611e975760405162461bcd60e51b8152600401610ab990613bac565b816001600160a01b038116331415611ed75760405162461bcd60e51b815260206004820152600360248201526214d15560ea1b6044820152606401610ab9565b3360009081526011602090815260408083206001600160a01b038516845290915290205460ff1615611f315760405162461bcd60e51b815260206004820152600360248201526256414360e81b6044820152606401610ab9565b6002546003541480611f5257504262015180600a54611f509190613bdf565b105b611f845760405162461bcd60e51b815260206004820152600360248201526246524360e81b6044820152606401610ab9565b3360008181526011602090815260408083206001600160a01b03881684528252808320805460ff19166001908117909155938352601090915290206003018054601590611fdc908490600160a81b900460ff16613d66565b92506101000a81548160ff021916908360ff16021790555060018060018282829054906101000a900460ff166120129190613d66565b92506101000a81548160ff021916908360ff16021790555081600114156120ab573360008181526012602090815260408083206001600160a01b03881684528252808320805460ff191660019081179091559383526010909152902081015461207a91613d8b565b6001600160a01b038416600090815260106020526040812060020180549091906120a5908490613d25565b90915550505b816000191415612128573360008181526012602090815260408083206001600160a01b03881684528252808320805460ff1916905592825260109052206001908101546120f791613d8b565b6001600160a01b03841660009081526010602052604081206002018054909190612122908490613c84565b90915550505b81612159573360009081526012602090815260408083206001600160a01b03871684529091529020805460ff191690555b336000818152601060209081526040808320600101546001600160a01b038816808552938290206002015482519485529284019490945282810193909352606082015290517fd69fe95841f16237d39b30bbb2ed7633b307fb0addc4bb890b6a3a77e04f5f7f9181900360800190a1505050565b33600090815260106020526040902060030154600160b81b900460ff161561221d5760405162461bcd60e51b815260206004820152600360248201526229a0a960e91b6044820152606401610ab9565b600554341015801561223157506006543411155b6122635760405162461bcd60e51b8152602060048201526003602482015262272ba960e91b6044820152606401610ab9565b61226c81613528565b50565b33600090815260106020526040902060030154600160b81b900460ff166122a85760405162461bcd60e51b8152600401610ab990613bac565b33600090815260146020908152604080832060015460ff168452909152902054156122fb5760405162461bcd60e51b815260206004820152600360248201526205341560ec1b6044820152606401610ab9565b604080516020810184905290810182905233606090811b6bffffffffffffffffffffffff19169082015260740160408051601f1981840301815291815281516020928301203360009081526013845282812060015460ff1682529093529120541461238e5760405162461bcd60e51b81526020600482015260036024820152624e4b5360e81b6044820152606401610ab9565b3360009081526014602090815260408083206001805460ff1685529252822084905560038054919290916123c3908490613bdf565b90915550505050565b6060806000805b600d5481101561244357600060106000600d84815481106123f6576123f6613bf7565b60009182526020808320909101546001600160a01b03168352820192909252604001902060020154126124315761242e600183613d66565b91505b8061243b81613c0d565b9150506123d3565b508060ff1667ffffffffffffffff81111561246057612460613e10565b604051908082528060200260200182016040528015612489578160200160208202803683370190505b5092508060ff1667ffffffffffffffff8111156124a8576124a8613e10565b6040519080825280602002602001820160405280156124d1578160200160208202803683370190505b5091506000805b600d5481101561263a57600060106000600d84815481106124fb576124fb613bf7565b60009182526020808320909101546001600160a01b03168352820192909252604001902060020154126126285760015460ff166000908152601760205260408120600d80549192918490811061255357612553613bf7565b60009182526020808320909101546001600160a01b03168352820192909252604001902054855160ff91821691879190851690811061259457612594613bf7565b60ff9283166020918202929092018101919091526001549091166000908152601890915260408120600d8054919291849081106125d3576125d3613bf7565b60009182526020808320909101546001600160a01b031683528201929092526040019020548451859060ff851690811061260f5761260f613bf7565b60209081029190910101528161262481613e26565b9250505b8061263281613c0d565b9150506124d8565b5050509091565b6060806000808b60348c04604051955060208102602001860160405280865260005b8181101561268b57823560601c60208281028901018190529450601490920191600101612663565b506040519450602081026020018501604052808552600093505b808410156126cd578135925082602085026020870101526020820191506001840193506126a5565b505083518914915061272390505760405162461bcd60e51b815260206004820181905260248201527f494e56414c49445f4c454e475448204f462041434355524143592041525241596044820152606401610ab9565b815185146127735760405162461bcd60e51b815260206004820152601c60248201527f494e56414c49445f4c454e475448204f46204c4f5353204152524159000000006044820152606401610ab9565b60015460ff166000908152601960209081526040808320338452825291829020825160608101845285815283518b840281810185019095528b81529193909283810192918d918d9182918501908490808284376000920191909152505050908252506040805160208a810282810182019093528a82529283019290918b918b918291850190849080828437600092018290525093909452505083546001810185559381526020908190208351805194956003029091019361283b935084929190910190613642565b50602082810151805161285492600185019201906136a3565b5060408201518051612870916002840191602090910190613744565b505050606460ff851611156128d75760405162461bcd60e51b815260206004820152602760248201527f50524556494f5553204143435552414359204e4f54204245545745454e2030206044820152660414e44203130360cc1b6064820152608401610ab9565b6001805460ff908116600090815260176020908152604080832033808552908352818420805460ff19168b871617905594549093168252601881528282209382529290925281208490555b825181101561298357600f5460ff166129715761297183828151811061294a5761294a613bf7565b602002602001015183838151811061296457612964613bf7565b6020026020010151611e5e565b8061297b81613c0d565b915050612922565b5050505050505050505050565b6060806000808560348604604051955060208102602001860160405280865260005b818110156129da57823560601c602082810289010181905294506014909201916001016129b2565b506040519450602081026020018501604052808552600093505b80841015612a1c578135925082602085026020870101526020820191506001840193506129f4565b5050505060005b8251811015612a5d57600f5460ff16612a4b57612a4b83828151811061294a5761294a613bf7565b80612a5581613c0d565b915050612a23565b5050505050565b600080805b600d54811015612ada57600060106000600d8481548110612a8c57612a8c613bf7565b60009182526020808320909101546001600160a01b031683528201929092526040019020600201541215612ac85781612ac481613c0d565b9250505b80612ad281613c0d565b915050612a69565b5060015460ff16600090815260166020526040902054811115612aff57600091505090565b600191505090565b600060025460001415612b1a5750600090565b600d54600190612b2a9080613ce9565b612b349190613c28565b600154610100900460ff1611919050565b600d54811015612bfd57600060106000600d8481548110612b6857612b68613bf7565b60009182526020808320909101546001600160a01b031683528201929092526040019020600381015490915060ff600160b81b909104168015612bb757506003810154600160c81b900460ff16155b15612bea576001600254612bcb9190613c28565b6003820154600160a81b900460ff161015612bea576000935050505090565b5080612bf581613c0d565b915050612b45565b50600191505090565b612c12600d6000613624565b612c2260a0820160808301613883565b6001805460ff191660ff929092169190911790556000612c428280613e46565b9050905060005b81811015612dc5576000612c5d8480613e46565b83818110612c6d57612c6d613bf7565b9050602002016020810190612c829190613837565b9050612db281612c956020870187613e46565b85818110612ca557612ca5613bf7565b90506020020135868060400190612cbc9190613e46565b86818110612ccc57612ccc613bf7565b90506020020135878060600190612ce39190613e46565b87818110612cf357612cf3613bf7565b9050602002016020810190612d089190613883565b600d805460018181019092557fd7b6990105719101dabeb77144f2a3385c8033acd3af97e9423a695e81ad1eb50180546001600160a01b039096166001600160a01b03199096168617905560008581526010602052604081206003810180549382019690965560028101949094559092556001600160a81b031960ff91909116600160a81b0263ffffffff60a81b1990921691909117600160b81b1716909117600160a01b179055565b5080612dbd81613c0d565b915050612c49565b506001805461ff00191661010060ff84160217905560025550565b600e5460009015612df357506001919050565b60005b600e54811015612e5357826001600160a01b0316600e8281548110612e1d57612e1d613bf7565b6000918252602090912001546001600160a01b03161415612e415750600192915050565b80612e4b81613c0d565b915050612df6565b50600092915050565b33600090815260106020526040902060030154600160b81b900460ff16612ebb5760405162461bcd60e51b8152602060048201526013602482015272155cd95c881b9bdd081c9959da5cdd195c9959606a1b6044820152606401610ab9565b60015460ff16600090815260156020908152604080832033845290915290205415612f285760405162461bcd60e51b815260206004820152601760248201527f53636f726520616c7265616479207375626d69747465640000000000000000006044820152606401610ab9565b6001805460ff9081166000908152601560209081526040808320338452825280832086905584549093168252601690529081208054909190612f6b908490613bdf565b909155505060405181815233907f20e6c7c82a3c0a8203efca055fc9a664ca649345957ddc3ba34b2912e9ed83739060200160405180910390a250565b33600090815260106020526040902060030154600160b81b900460ff16612fe15760405162461bcd60e51b8152600401610ab990613bac565b33600090815260146020908152604080832060015460ff168452909152902054156130345760405162461bcd60e51b815260206004820152600360248201526205341560ec1b6044820152606401610ab9565b33600090815260136020908152604080832060015460ff168452909152902055565b60608060606000805b600d548110156131bc576000600d828154811061307e5761307e613bf7565b600091825260208083209091015460015460ff1683526019825260408084206001600160a01b039092168085529190925290822054909250905b818110156131a65760015460ff1660009081526019602090815260408083206001600160a01b038716845290915281208054839081106130fa576130fa613bf7565b9060005260206000209060030201905060005b8154811015613191578a6001600160a01b031682600001828154811061313557613135613bf7565b6000918252602090912001546001600160a01b0316141561317f576001600160a01b0385166000908152601060205260408120600201541261317f578661317b81613c0d565b9750505b8061318981613c0d565b91505061310d565b5050808061319e90613c0d565b9150506130b8565b50505080806131b490613c0d565b91505061305f565b508067ffffffffffffffff8111156131d6576131d6613e10565b6040519080825280602002602001820160405280156131ff578160200160208202803683370190505b5093508067ffffffffffffffff81111561321b5761321b613e10565b604051908082528060200260200182016040528015613244578160200160208202803683370190505b5092508067ffffffffffffffff81111561326057613260613e10565b604051908082528060200260200182016040528015613289578160200160208202803683370190505b5091506000805b600d548110156134d057600060106000600d84815481106132b3576132b3613bf7565b60009182526020808320909101546001600160a01b039081168452838201949094526040928301822060015460ff1683526019825283832060038201549095168352939052908120549192505b818110156134ba5760015460ff16600090815260196020908152604080832060038701546001600160a01b03168452909152812080548390811061334657613346613bf7565b9060005260206000209060030201905060005b81548110156134a5578b6001600160a01b031682600001828154811061338157613381613bf7565b6000918252602090912001546001600160a01b031614156134935760008560020154126134935760038501548b516001600160a01b03909116908c90899081106133cd576133cd613bf7565b60200260200101906001600160a01b031690816001600160a01b03168152505081600101818154811061340257613402613bf7565b90600052602060002090602091828204019190069054906101000a900460ff168a888151811061343457613434613bf7565b602002602001019060ff16908160ff168152505081600201818154811061345d5761345d613bf7565b906000526020600020015489888151811061347a5761347a613bf7565b60209081029190910101528661348f81613c0d565b9750505b8061349d81613c0d565b915050613359565b505080806134b290613c0d565b915050613300565b50505080806134c890613c0d565b915050613290565b5050509193909250565b60008082126134e7575090565b600160ff1b82141561350b576135056001600160ff1b036001613bdf565b92915050565b61350582613d08565b6000808213613524576000613505565b5090565b6001600160a01b03811660008181526010602052604081206003810180543460018085019190915565ff00000000ff60a01b19600163ff00000160a01b0319909216909517600160b81b1716600160a01b179055600280549193929091613590908490613bdf565b9091555050600d80546001810182556000919091527fd7b6990105719101dabeb77144f2a3385c8033acd3af97e9423a695e81ad1eb50180546001600160a01b0319166001600160a01b0384161790556002546040517fabe5b1202d1f4ed2c1baccf335320ceae3abd90670864b741e80a2ef5671d882916136189185913491479190613cc3565b60405180910390a15050565b508054600082559060005260206000209081019061226c919061377f565b828054828255906000526020600020908101928215613697579160200282015b8281111561369757825182546001600160a01b0319166001600160a01b03909116178255602090920191600190910190613662565b5061352492915061377f565b82805482825590600052602060002090601f016020900481019282156136975791602002820160005b8382111561370a57835183826101000a81548160ff021916908360ff16021790555092602001926001016020816000010492830192600103026136cc565b80156137375782816101000a81549060ff021916905560010160208160000104928301926001030261370a565b505061352492915061377f565b828054828255906000526020600020908101928215613697579160200282015b82811115613697578251825591602001919060010190613764565b5b808211156135245760008155600101613780565b80356001600160a01b03811681146137ab57600080fd5b919050565b600080604083850312156137c357600080fd5b6137cc83613794565b946020939093013593505050565b803560ff811681146137ab57600080fd5b600080604083850312156137fe57600080fd5b61380783613794565b9150613815602084016137da565b90509250929050565b60006020828403121561383057600080fd5b5035919050565b60006020828403121561384957600080fd5b61385282613794565b9392505050565b6000806040838503121561386c57600080fd5b61387583613794565b915061381560208401613794565b60006020828403121561389557600080fd5b613852826137da565b600080604083850312156138b157600080fd5b50508035926020909101359150565b600080604083850312156138d357600080fd5b613875836137da565b600081518084526020808501945080840160005b8381101561390f57815160ff16875295820195908201906001016138f0565b509495945050505050565b600081518084526020808501945080840160005b8381101561390f5781518752958201959082019060010161392e565b60408152600061395d60408301856138dc565b828103602084015261396f818561391a565b95945050505050565b60008083601f84011261398a57600080fd5b50813567ffffffffffffffff8111156139a257600080fd5b6020830191508360208285010111156139ba57600080fd5b9250929050565b60008083601f8401126139d357600080fd5b50813567ffffffffffffffff8111156139eb57600080fd5b6020830191508360208260051b85010111156139ba57600080fd5b60008060008060008060008060a0898b031215613a2257600080fd5b883567ffffffffffffffff80821115613a3a57600080fd5b613a468c838d01613978565b909a50985060208b0135915080821115613a5f57600080fd5b613a6b8c838d016139c1565b909850965060408b0135915080821115613a8457600080fd5b50613a918b828c016139c1565b9095509350613aa4905060608a016137da565b9150608089013590509295985092959890939650565b60008060208385031215613acd57600080fd5b823567ffffffffffffffff811115613ae457600080fd5b613af085828601613978565b90969095509350505050565b600060208284031215613b0e57600080fd5b813567ffffffffffffffff811115613b2557600080fd5b820160a0818503121561385257600080fd5b606080825284519082018190526000906020906080840190828801845b82811015613b795781516001600160a01b031684529284019290840190600101613b54565b50505083810382850152613b8d81876138dc565b9150508281036040840152613ba2818561391a565b9695505050505050565b60208082526003908201526229a72960e91b604082015260600190565b634e487b7160e01b600052601160045260246000fd5b60008219821115613bf257613bf2613bc9565b500190565b634e487b7160e01b600052603260045260246000fd5b6000600019821415613c2157613c21613bc9565b5060010190565b600082821015613c3a57613c3a613bc9565b500390565b600060ff821660ff841680821015613c5957613c59613bc9565b90039392505050565b600082613c7f57634e487b7160e01b600052601260045260246000fd5b500490565b60008083128015600160ff1b850184121615613ca257613ca2613bc9565b6001600160ff1b0384018313811615613cbd57613cbd613bc9565b50500390565b6001600160a01b0394909416845260208401929092526040830152606082015260800190565b6000816000190483118215151615613d0357613d03613bc9565b500290565b6000600160ff1b821415613d1e57613d1e613bc9565b5060000390565b600080821280156001600160ff1b0384900385131615613d4757613d47613bc9565b600160ff1b8390038412811615613d6057613d60613bc9565b50500190565b600060ff821660ff84168060ff03821115613d8357613d83613bc9565b019392505050565b60006001600160ff1b0381841382841380821686840486111615613db157613db1613bc9565b600160ff1b6000871282811687830589121615613dd057613dd0613bc9565b60008712925087820587128484161615613dec57613dec613bc9565b87850587128184161615613e0257613e02613bc9565b505050929093029392505050565b634e487b7160e01b600052604160045260246000fd5b600060ff821660ff811415613e3d57613e3d613bc9565b60010192915050565b6000808335601e19843603018112613e5d57600080fd5b83018035915067ffffffffffffffff821115613e7857600080fd5b6020019150600581901b36038213156139ba57600080fdfea2646970667358221220b02bf00bfb597520d53e9a090f86908487228cebcca3617ab85211697913bd3b64736f6c63430008090033","opcodes":"PUSH1 0x80 PUSH1 0x40 MSTORE PUSH1 0x1 DUP1 SLOAD PUSH1 0xFF NOT SWAP1 DUP2 AND SWAP1 SWAP2 SSTORE PUSH1 0xF DUP1 SLOAD SWAP1 SWAP2 AND SWAP1 SSTORE CALLVALUE DUP1 ISZERO PUSH3 0x27 JUMPI PUSH1 0x0 DUP1 REVERT JUMPDEST POP PUSH1 0x40 MLOAD PUSH3 0x4157 CODESIZE SUB DUP1 PUSH3 0x4157 DUP4 CODECOPY DUP2 ADD PUSH1 0x40 DUP2 SWAP1 MSTORE PUSH3 0x4A SWAP2 PUSH3 0x1AC JUMP JUMPDEST TIMESTAMP PUSH1 0x4 DUP2 SWAP1 SSTORE PUSH1 0xA SSTORE PUSH1 0x0 DUP9 SWAP1 SSTORE PUSH1 0x5 DUP8 SWAP1 SSTORE PUSH1 0x6 DUP7 SWAP1 SSTORE PUSH1 0x7 DUP6 SWAP1 SSTORE PUSH1 0x1 DUP1 SLOAD PUSH4 0xFFFF0000 NOT AND PUSH4 0x1000000 PUSH1 0xFF DUP8 DUP2 AND SWAP2 SWAP1 SWAP2 MUL PUSH3 0xFF0000 NOT AND SWAP2 SWAP1 SWAP2 OR PUSH3 0x10000 DUP7 DUP4 AND MUL OR PUSH1 0xFF PUSH1 0x20 SHL NOT AND PUSH5 0x100000000 DUP6 DUP4 AND MUL OR SWAP1 SWAP2 SSTORE DUP9 SWAP1 DUP9 SWAP1 DUP9 SWAP1 DUP9 SWAP1 DUP9 SWAP1 DUP9 SWAP1 DUP9 SWAP1 DUP9 SWAP1 PUSH1 0x64 SWAP1 PUSH3 0xC9 SWAP1 DUP4 AND DUP10 PUSH3 0x230 JUMP JUMPDEST PUSH3 0xD5 SWAP2 SWAP1 PUSH3 0x25E JUMP JUMPDEST PUSH1 0xC SSTORE PUSH1 0x1 SLOAD PUSH1 0x7 SLOAD PUSH3 0xF4 SWAP2 PUSH4 0x1000000 SWAP1 DIV PUSH1 0xFF AND SWAP1 PUSH3 0x25E JUMP JUMPDEST PUSH1 0x8 SSTORE PUSH1 0x7 SLOAD PUSH1 0x9 DUP2 SWAP1 SSTORE PUSH1 0x4 SLOAD PUSH1 0x5 SLOAD PUSH1 0x6 SLOAD PUSH1 0x1 SLOAD PUSH1 0xC SLOAD PUSH1 0x40 DUP1 MLOAD SWAP6 DUP7 MSTORE PUSH1 0x20 DUP7 ADD SWAP5 SWAP1 SWAP5 MSTORE SWAP3 DUP5 ADD SWAP2 SWAP1 SWAP2 MSTORE PUSH1 0x60 DUP4 ADD SWAP4 SWAP1 SWAP4 MSTORE PUSH4 0x1000000 SWAP1 SWAP3 DIV PUSH1 0xFF AND PUSH1 0x80 DUP3 ADD MSTORE PUSH1 0xA0 DUP2 ADD SWAP2 SWAP1 SWAP2 MSTORE PUSH32 0xD910741DA174A91F8B84705AFEAF69767BD61D4AC64620028ADE113E57693251 SWAP1 PUSH1 0xC0 ADD PUSH1 0x40 MLOAD DUP1 SWAP2 SUB SWAP1 LOG1 POP POP PUSH1 0xF DUP1 SLOAD PUSH1 0xFF NOT AND PUSH1 0x1 OR SWAP1 SSTORE POP PUSH3 0x281 SWAP13 POP POP POP POP POP POP POP POP POP POP POP POP POP JUMP JUMPDEST DUP1 MLOAD PUSH1 0xFF DUP2 AND DUP2 EQ PUSH3 0x1A7 JUMPI PUSH1 0x0 DUP1 REVERT JUMPDEST SWAP2 SWAP1 POP JUMP JUMPDEST PUSH1 0x0 DUP1 PUSH1 0x0 DUP1 PUSH1 0x0 DUP1 PUSH1 0x0 DUP1 PUSH2 0x100 DUP10 DUP12 SUB SLT ISZERO PUSH3 0x1CA JUMPI PUSH1 0x0 DUP1 REVERT JUMPDEST DUP9 MLOAD SWAP8 POP PUSH1 0x20 DUP10 ADD MLOAD SWAP7 POP PUSH1 0x40 DUP10 ADD MLOAD SWAP6 POP PUSH1 0x60 DUP10 ADD MLOAD SWAP5 POP PUSH3 0x1F1 PUSH1 0x80 DUP11 ADD PUSH3 0x195 JUMP JUMPDEST SWAP4 POP PUSH3 0x201 PUSH1 0xA0 DUP11 ADD PUSH3 0x195 JUMP JUMPDEST SWAP3 POP PUSH3 0x211 PUSH1 0xC0 DUP11 ADD PUSH3 0x195 JUMP JUMPDEST SWAP2 POP PUSH3 0x221 PUSH1 0xE0 DUP11 ADD PUSH3 0x195 JUMP JUMPDEST SWAP1 POP SWAP3 SWAP6 SWAP9 POP SWAP3 SWAP6 SWAP9 SWAP1 SWAP4 SWAP7 POP JUMP JUMPDEST PUSH1 0x0 DUP2 PUSH1 0x0 NOT DIV DUP4 GT DUP3 ISZERO ISZERO AND ISZERO PUSH3 0x259 JUMPI PUSH4 0x4E487B71 PUSH1 0xE0 SHL PUSH1 0x0 MSTORE PUSH1 0x11 PUSH1 0x4 MSTORE PUSH1 0x24 PUSH1 0x0 REVERT JUMPDEST POP MUL SWAP1 JUMP JUMPDEST PUSH1 0x0 DUP3 PUSH3 0x27C JUMPI PUSH4 0x4E487B71 PUSH1 0xE0 SHL PUSH1 0x0 MSTORE PUSH1 0x12 PUSH1 0x4 MSTORE PUSH1 0x24 PUSH1 0x0 REVERT JUMPDEST POP DIV SWAP1 JUMP JUMPDEST PUSH2 0x3EC6 DUP1 PUSH3 0x291 PUSH1 0x0 CODECOPY PUSH1 0x0 RETURN INVALID PUSH1 0x80 PUSH1 0x40 MSTORE PUSH1 0x4 CALLDATASIZE LT PUSH2 0x287 JUMPI PUSH1 0x0 CALLDATALOAD PUSH1 0xE0 SHR DUP1 PUSH4 0x6F77926B GT PUSH2 0x15A JUMPI DUP1 PUSH4 0xCA6E0385 GT PUSH2 0xC1 JUMPI DUP1 PUSH4 0xF283865F GT PUSH2 0x7A JUMPI DUP1 PUSH4 0xF283865F EQ PUSH2 0x9A3 JUMPI DUP1 PUSH4 0xF5B27228 EQ PUSH2 0x9C3 JUMPI DUP1 PUSH4 0xF6020F01 EQ PUSH2 0x9E3 JUMPI DUP1 PUSH4 0xFA569FA2 EQ PUSH2 0xA12 JUMPI DUP1 PUSH4 0xFCBACE5D EQ PUSH2 0xA4A JUMPI DUP1 PUSH4 0xFD5201BE EQ PUSH2 0xA6A JUMPI PUSH1 0x0 DUP1 REVERT JUMPDEST DUP1 PUSH4 0xCA6E0385 EQ PUSH2 0x8DF JUMPI DUP1 PUSH4 0xCC500EC9 EQ PUSH2 0x91A JUMPI DUP1 PUSH4 0xD6AAD1B9 EQ PUSH2 0x939 JUMPI DUP1 PUSH4 0xDCC1484A EQ PUSH2 0x94E JUMPI DUP1 PUSH4 0xE98B25F9 EQ PUSH2 0x963 JUMPI DUP1 PUSH4 0xF0C36955 EQ PUSH2 0x983 JUMPI PUSH1 0x0 DUP1 REVERT JUMPDEST DUP1 PUSH4 0x8FE557A1 GT PUSH2 0x113 JUMPI DUP1 PUSH4 0x8FE557A1 EQ PUSH2 0x776 JUMPI DUP1 PUSH4 0x904A9D17 EQ PUSH2 0x796 JUMPI DUP1 PUSH4 0x9699FEE6 EQ PUSH2 0x7AC JUMPI DUP1 PUSH4 0xA41DACD6 EQ PUSH2 0x7CC JUMPI DUP1 PUSH4 0xA87430BA EQ PUSH2 0x7E2 JUMPI DUP1 PUSH4 0xB986695B EQ PUSH2 0x8C9 JUMPI PUSH1 0x0 DUP1 REVERT JUMPDEST DUP1 PUSH4 0x6F77926B EQ PUSH2 0x5C1 JUMPI DUP1 PUSH4 0x701341ED EQ PUSH2 0x6AF JUMPI DUP1 PUSH4 0x750142E6 EQ PUSH2 0x6D2 JUMPI DUP1 PUSH4 0x8B2F56FB EQ PUSH2 0x6E8 JUMPI DUP1 PUSH4 0x8C8E9D64 EQ PUSH2 0x723 JUMPI DUP1 PUSH4 0x8D03B102 EQ PUSH2 0x75C JUMPI PUSH1 0x0 DUP1 REVERT JUMPDEST DUP1 PUSH4 0x3AA8F2ED GT PUSH2 0x1FE JUMPI DUP1 PUSH4 0x4D4D2B1C GT PUSH2 0x1B7 JUMPI DUP1 PUSH4 0x4D4D2B1C EQ PUSH2 0x4C5 JUMPI DUP1 PUSH4 0x4E49AD78 EQ PUSH2 0x510 JUMPI DUP1 PUSH4 0x508BE15E EQ PUSH2 0x526 JUMPI DUP1 PUSH4 0x59AC0C46 EQ PUSH2 0x53C JUMPI DUP1 PUSH4 0x64A3E221 EQ PUSH2 0x569 JUMPI DUP1 PUSH4 0x667BA0F6 EQ PUSH2 0x589 JUMPI PUSH1 0x0 DUP1 REVERT JUMPDEST DUP1 PUSH4 0x3AA8F2ED EQ PUSH2 0x40D JUMPI DUP1 PUSH4 0x3EEE0426 EQ PUSH2 0x42D JUMPI DUP1 PUSH4 0x3F4F2D62 EQ PUSH2 0x443 JUMPI DUP1 PUSH4 0x40365852 EQ PUSH2 0x464 JUMPI DUP1 PUSH4 0x4420E486 EQ PUSH2 0x47A JUMPI DUP1 PUSH4 0x45E4C379 EQ PUSH2 0x48D JUMPI PUSH1 0x0 DUP1 REVERT JUMPDEST DUP1 PUSH4 0x146CA531 GT PUSH2 0x250 JUMPI DUP1 PUSH4 0x146CA531 EQ PUSH2 0x353 JUMPI DUP1 PUSH4 0x186BEAE3 EQ PUSH2 0x37F JUMPI DUP1 PUSH4 0x1AA3A008 EQ PUSH2 0x3A1 JUMPI DUP1 PUSH4 0x1B2CCC09 EQ PUSH2 0x3A9 JUMPI DUP1 PUSH4 0x33F93BCD EQ PUSH2 0x3BF JUMPI DUP1 PUSH4 0x35C1D349 EQ PUSH2 0x3D5 JUMPI PUSH1 0x0 DUP1 REVERT JUMPDEST DUP1 PUSH3 0x5C43A5 EQ PUSH2 0x28C JUMPI DUP1 PUSH4 0x899604C EQ PUSH2 0x2B5 JUMPI DUP1 PUSH4 0x8FBA75C EQ PUSH2 0x2CC JUMPI DUP1 PUSH4 0x95083AF EQ PUSH2 0x306 JUMPI DUP1 PUSH4 0x11DA60B4 EQ PUSH2 0x33E JUMPI JUMPDEST PUSH1 0x0 DUP1 REVERT JUMPDEST CALLVALUE DUP1 ISZERO PUSH2 0x298 JUMPI PUSH1 0x0 DUP1 REVERT JUMPDEST POP PUSH2 0x2A2 PUSH1 0xC SLOAD DUP2 JUMP JUMPDEST PUSH1 0x40 MLOAD SWAP1 DUP2 MSTORE PUSH1 0x20 ADD JUMPDEST PUSH1 0x40 MLOAD DUP1 SWAP2 SUB SWAP1 RETURN JUMPDEST CALLVALUE DUP1 ISZERO PUSH2 0x2C1 JUMPI PUSH1 0x0 DUP1 REVERT JUMPDEST POP PUSH2 0x2CA PUSH2 0xA80 JUMP JUMPDEST STOP JUMPDEST CALLVALUE DUP1 ISZERO PUSH2 0x2D8 JUMPI PUSH1 0x0 DUP1 REVERT JUMPDEST POP PUSH2 0x2CA PUSH2 0x2E7 CALLDATASIZE PUSH1 0x4 PUSH2 0x37B0 JUMP JUMPDEST PUSH1 0x1 PUSH1 0x1 PUSH1 0xA0 SHL SUB SWAP1 SWAP2 AND PUSH1 0x0 SWAP1 DUP2 MSTORE PUSH1 0x10 PUSH1 0x20 MSTORE PUSH1 0x40 SWAP1 KECCAK256 PUSH1 0x1 ADD SSTORE JUMP JUMPDEST CALLVALUE DUP1 ISZERO PUSH2 0x312 JUMPI PUSH1 0x0 DUP1 REVERT JUMPDEST POP PUSH2 0x2A2 PUSH2 0x321 CALLDATASIZE PUSH1 0x4 PUSH2 0x37EB JUMP JUMPDEST PUSH1 0x13 PUSH1 0x20 SWAP1 DUP2 MSTORE PUSH1 0x0 SWAP3 DUP4 MSTORE PUSH1 0x40 DUP1 DUP5 KECCAK256 SWAP1 SWAP2 MSTORE SWAP1 DUP3 MSTORE SWAP1 KECCAK256 SLOAD DUP2 JUMP JUMPDEST CALLVALUE DUP1 ISZERO PUSH2 0x34A JUMPI PUSH1 0x0 DUP1 REVERT JUMPDEST POP PUSH2 0x2CA PUSH2 0xC94 JUMP JUMPDEST CALLVALUE DUP1 ISZERO PUSH2 0x35F JUMPI PUSH1 0x0 DUP1 REVERT JUMPDEST POP PUSH1 0x1 SLOAD PUSH2 0x36D SWAP1 PUSH1 0xFF AND DUP2 JUMP JUMPDEST PUSH1 0x40 MLOAD PUSH1 0xFF SWAP1 SWAP2 AND DUP2 MSTORE PUSH1 0x20 ADD PUSH2 0x2AC JUMP JUMPDEST CALLVALUE DUP1 ISZERO PUSH2 0x38B JUMPI PUSH1 0x0 DUP1 REVERT JUMPDEST POP PUSH1 0x1 SLOAD PUSH2 0x36D SWAP1 PUSH5 0x100000000 SWAP1 DIV PUSH1 0xFF AND DUP2 JUMP JUMPDEST PUSH2 0x2CA PUSH2 0x1D93 JUMP JUMPDEST CALLVALUE DUP1 ISZERO PUSH2 0x3B5 JUMPI PUSH1 0x0 DUP1 REVERT JUMPDEST POP PUSH2 0x2A2 PUSH1 0x0 SLOAD DUP2 JUMP JUMPDEST CALLVALUE DUP1 ISZERO PUSH2 0x3CB JUMPI PUSH1 0x0 DUP1 REVERT JUMPDEST POP PUSH2 0x2A2 PUSH1 0x8 SLOAD DUP2 JUMP JUMPDEST CALLVALUE DUP1 ISZERO PUSH2 0x3E1 JUMPI PUSH1 0x0 DUP1 REVERT JUMPDEST POP PUSH2 0x3F5 PUSH2 0x3F0 CALLDATASIZE PUSH1 0x4 PUSH2 0x381E JUMP JUMPDEST PUSH2 0x1E34 JUMP JUMPDEST PUSH1 0x40 MLOAD PUSH1 0x1 PUSH1 0x1 PUSH1 0xA0 SHL SUB SWAP1 SWAP2 AND DUP2 MSTORE PUSH1 0x20 ADD PUSH2 0x2AC JUMP JUMPDEST CALLVALUE DUP1 ISZERO PUSH2 0x419 JUMPI PUSH1 0x0 DUP1 REVERT JUMPDEST POP PUSH2 0x2CA PUSH2 0x428 CALLDATASIZE PUSH1 0x4 PUSH2 0x37B0 JUMP JUMPDEST PUSH2 0x1E5E JUMP JUMPDEST CALLVALUE DUP1 ISZERO PUSH2 0x439 JUMPI PUSH1 0x0 DUP1 REVERT JUMPDEST POP PUSH2 0x2A2 PUSH1 0x9 SLOAD DUP2 JUMP JUMPDEST CALLVALUE DUP1 ISZERO PUSH2 0x44F JUMPI PUSH1 0x0 DUP1 REVERT JUMPDEST POP PUSH1 0x1 SLOAD PUSH2 0x36D SWAP1 PUSH4 0x1000000 SWAP1 DIV PUSH1 0xFF AND DUP2 JUMP JUMPDEST CALLVALUE DUP1 ISZERO PUSH2 0x470 JUMPI PUSH1 0x0 DUP1 REVERT JUMPDEST POP PUSH2 0x2A2 PUSH1 0xA SLOAD DUP2 JUMP JUMPDEST PUSH2 0x2CA PUSH2 0x488 CALLDATASIZE PUSH1 0x4 PUSH2 0x3837 JUMP JUMPDEST PUSH2 0x21CD JUMP JUMPDEST CALLVALUE DUP1 ISZERO PUSH2 0x499 JUMPI PUSH1 0x0 DUP1 REVERT JUMPDEST POP PUSH2 0x2A2 PUSH2 0x4A8 CALLDATASIZE PUSH1 0x4 PUSH2 0x37EB JUMP JUMPDEST PUSH1 0x14 PUSH1 0x20 SWAP1 DUP2 MSTORE PUSH1 0x0 SWAP3 DUP4 MSTORE PUSH1 0x40 DUP1 DUP5 KECCAK256 SWAP1 SWAP2 MSTORE SWAP1 DUP3 MSTORE SWAP1 KECCAK256 SLOAD DUP2 JUMP JUMPDEST CALLVALUE DUP1 ISZERO PUSH2 0x4D1 JUMPI PUSH1 0x0 DUP1 REVERT JUMPDEST POP PUSH2 0x500 PUSH2 0x4E0 CALLDATASIZE PUSH1 0x4 PUSH2 0x3859 JUMP JUMPDEST PUSH1 0x11 PUSH1 0x20 SWAP1 DUP2 MSTORE PUSH1 0x0 SWAP3 DUP4 MSTORE PUSH1 0x40 DUP1 DUP5 KECCAK256 SWAP1 SWAP2 MSTORE SWAP1 DUP3 MSTORE SWAP1 KECCAK256 SLOAD PUSH1 0xFF AND DUP2 JUMP JUMPDEST PUSH1 0x40 MLOAD SWAP1 ISZERO ISZERO DUP2 MSTORE PUSH1 0x20 ADD PUSH2 0x2AC JUMP JUMPDEST CALLVALUE DUP1 ISZERO PUSH2 0x51C JUMPI PUSH1 0x0 DUP1 REVERT JUMPDEST POP PUSH2 0x2A2 PUSH1 0x2 SLOAD DUP2 JUMP JUMPDEST CALLVALUE DUP1 ISZERO PUSH2 0x532 JUMPI PUSH1 0x0 DUP1 REVERT JUMPDEST POP PUSH2 0x2A2 PUSH1 0x5 SLOAD DUP2 JUMP JUMPDEST CALLVALUE DUP1 ISZERO PUSH2 0x548 JUMPI PUSH1 0x0 DUP1 REVERT JUMPDEST POP PUSH2 0x2A2 PUSH2 0x557 CALLDATASIZE PUSH1 0x4 PUSH2 0x3883 JUMP JUMPDEST PUSH1 0x16 PUSH1 0x20 MSTORE PUSH1 0x0 SWAP1 DUP2 MSTORE PUSH1 0x40 SWAP1 KECCAK256 SLOAD DUP2 JUMP JUMPDEST CALLVALUE DUP1 ISZERO PUSH2 0x575 JUMPI PUSH1 0x0 DUP1 REVERT JUMPDEST POP PUSH2 0x2CA PUSH2 0x584 CALLDATASIZE PUSH1 0x4 PUSH2 0x389E JUMP JUMPDEST PUSH2 0x226F JUMP JUMPDEST CALLVALUE DUP1 ISZERO PUSH2 0x595 JUMPI PUSH1 0x0 DUP1 REVERT JUMPDEST POP PUSH2 0x2A2 PUSH2 0x5A4 CALLDATASIZE PUSH1 0x4 PUSH2 0x38C0 JUMP JUMPDEST PUSH1 0x18 PUSH1 0x20 SWAP1 DUP2 MSTORE PUSH1 0x0 SWAP3 DUP4 MSTORE PUSH1 0x40 DUP1 DUP5 KECCAK256 SWAP1 SWAP2 MSTORE SWAP1 DUP3 MSTORE SWAP1 KECCAK256 SLOAD DUP2 JUMP JUMPDEST CALLVALUE DUP1 ISZERO PUSH2 0x5CD JUMPI PUSH1 0x0 DUP1 REVERT JUMPDEST POP PUSH2 0x64F PUSH2 0x5DC CALLDATASIZE PUSH1 0x4 PUSH2 0x3837 JUMP JUMPDEST PUSH1 0x1 PUSH1 0x1 PUSH1 0xA0 SHL SUB SWAP1 DUP2 AND PUSH1 0x0 SWAP1 DUP2 MSTORE PUSH1 0x10 PUSH1 0x20 MSTORE PUSH1 0x40 SWAP1 KECCAK256 PUSH1 0x3 DUP2 ADD SLOAD DUP2 SLOAD PUSH1 0x1 DUP4 ADD SLOAD PUSH1 0x2 SWAP1 SWAP4 ADD SLOAD SWAP4 DUP3 AND SWAP5 SWAP1 SWAP4 SWAP2 PUSH1 0xFF PUSH1 0x1 PUSH1 0xA0 SHL DUP3 DIV DUP2 AND SWAP3 PUSH1 0x1 PUSH1 0xA8 SHL DUP4 DIV DUP3 AND SWAP3 PUSH1 0x1 PUSH1 0xB0 SHL DUP2 DIV DUP4 AND SWAP3 PUSH1 0x1 PUSH1 0xB8 SHL DUP3 DIV DUP2 AND SWAP3 PUSH1 0x1 PUSH1 0xC0 SHL DUP4 DIV DUP3 AND SWAP3 PUSH1 0x1 PUSH1 0xC8 SHL SWAP1 DIV SWAP1 SWAP2 AND SWAP1 JUMP JUMPDEST PUSH1 0x40 DUP1 MLOAD PUSH1 0x1 PUSH1 0x1 PUSH1 0xA0 SHL SUB SWAP1 SWAP12 AND DUP12 MSTORE PUSH1 0x20 DUP12 ADD SWAP10 SWAP1 SWAP10 MSTORE SWAP8 DUP10 ADD SWAP7 SWAP1 SWAP7 MSTORE PUSH1 0x60 DUP9 ADD SWAP5 SWAP1 SWAP5 MSTORE PUSH1 0xFF SWAP3 DUP4 AND PUSH1 0x80 DUP9 ADD MSTORE SWAP2 AND PUSH1 0xA0 DUP7 ADD MSTORE ISZERO ISZERO PUSH1 0xC0 DUP6 ADD MSTORE ISZERO ISZERO PUSH1 0xE0 DUP5 ADD MSTORE ISZERO ISZERO PUSH2 0x100 DUP4 ADD MSTORE ISZERO ISZERO PUSH2 0x120 DUP3 ADD MSTORE PUSH2 0x140 ADD PUSH2 0x2AC JUMP JUMPDEST CALLVALUE DUP1 ISZERO PUSH2 0x6BB JUMPI PUSH1 0x0 DUP1 REVERT JUMPDEST POP PUSH2 0x6C4 PUSH2 0x23CC JUMP JUMPDEST PUSH1 0x40 MLOAD PUSH2 0x2AC SWAP3 SWAP2 SWAP1 PUSH2 0x394A JUMP JUMPDEST CALLVALUE DUP1 ISZERO PUSH2 0x6DE JUMPI PUSH1 0x0 DUP1 REVERT JUMPDEST POP PUSH2 0x2A2 PUSH1 0x7 SLOAD DUP2 JUMP JUMPDEST CALLVALUE DUP1 ISZERO PUSH2 0x6F4 JUMPI PUSH1 0x0 DUP1 REVERT JUMPDEST POP PUSH2 0x36D PUSH2 0x703 CALLDATASIZE PUSH1 0x4 PUSH2 0x38C0 JUMP JUMPDEST PUSH1 0x17 PUSH1 0x20 SWAP1 DUP2 MSTORE PUSH1 0x0 SWAP3 DUP4 MSTORE PUSH1 0x40 DUP1 DUP5 KECCAK256 SWAP1 SWAP2 MSTORE SWAP1 DUP3 MSTORE SWAP1 KECCAK256 SLOAD PUSH1 0xFF AND DUP2 JUMP JUMPDEST CALLVALUE DUP1 ISZERO PUSH2 0x72F JUMPI PUSH1 0x0 DUP1 REVERT JUMPDEST POP PUSH2 0x2A2 PUSH2 0x73E CALLDATASIZE PUSH1 0x4 PUSH2 0x3837 JUMP JUMPDEST PUSH1 0x1 PUSH1 0x1 PUSH1 0xA0 SHL SUB AND PUSH1 0x0 SWAP1 DUP2 MSTORE PUSH1 0x10 PUSH1 0x20 MSTORE PUSH1 0x40 SWAP1 KECCAK256 PUSH1 0x1 ADD SLOAD SWAP1 JUMP JUMPDEST CALLVALUE DUP1 ISZERO PUSH2 0x768 JUMPI PUSH1 0x0 DUP1 REVERT JUMPDEST POP PUSH1 0xF SLOAD PUSH2 0x500 SWAP1 PUSH1 0xFF AND DUP2 JUMP JUMPDEST CALLVALUE DUP1 ISZERO PUSH2 0x782 JUMPI PUSH1 0x0 DUP1 REVERT JUMPDEST POP PUSH2 0x2CA PUSH2 0x791 CALLDATASIZE PUSH1 0x4 PUSH2 0x3A06 JUMP JUMPDEST PUSH2 0x2641 JUMP JUMPDEST CALLVALUE DUP1 ISZERO PUSH2 0x7A2 JUMPI PUSH1 0x0 DUP1 REVERT JUMPDEST POP PUSH2 0x2A2 PUSH1 0x6 SLOAD DUP2 JUMP JUMPDEST CALLVALUE DUP1 ISZERO PUSH2 0x7B8 JUMPI PUSH1 0x0 DUP1 REVERT JUMPDEST POP PUSH2 0x2CA PUSH2 0x7C7 CALLDATASIZE PUSH1 0x4 PUSH2 0x3ABA JUMP JUMPDEST PUSH2 0x2990 JUMP JUMPDEST CALLVALUE DUP1 ISZERO PUSH2 0x7D8 JUMPI PUSH1 0x0 DUP1 REVERT JUMPDEST POP PUSH2 0x2A2 PUSH1 0xB SLOAD DUP2 JUMP JUMPDEST CALLVALUE DUP1 ISZERO PUSH2 0x7EE JUMPI PUSH1 0x0 DUP1 REVERT JUMPDEST POP PUSH2 0x86B PUSH2 0x7FD CALLDATASIZE PUSH1 0x4 PUSH2 0x3837 JUMP JUMPDEST PUSH1 0x10 PUSH1 0x20 MSTORE PUSH1 0x0 SWAP1 DUP2 MSTORE PUSH1 0x40 SWAP1 KECCAK256 DUP1 SLOAD PUSH1 0x1 DUP3 ADD SLOAD PUSH1 0x2 DUP4 ADD SLOAD PUSH1 0x3 SWAP1 SWAP4 ADD SLOAD SWAP2 SWAP3 SWAP1 SWAP2 PUSH1 0x1 PUSH1 0x1 PUSH1 0xA0 SHL SUB DUP2 AND SWAP1 PUSH1 0xFF PUSH1 0x1 PUSH1 0xA0 SHL DUP3 DIV DUP2 AND SWAP2 PUSH1 0x1 PUSH1 0xA8 SHL DUP2 DIV DUP3 AND SWAP2 PUSH1 0x1 PUSH1 0xB0 SHL DUP3 DIV DUP2 AND SWAP2 PUSH1 0x1 PUSH1 0xB8 SHL DUP2 DIV DUP3 AND SWAP2 PUSH1 0x1 PUSH1 0xC0 SHL DUP3 DIV DUP2 AND SWAP2 PUSH1 0x1 PUSH1 0xC8 SHL SWAP1 DIV AND DUP11 JUMP JUMPDEST PUSH1 0x40 DUP1 MLOAD SWAP11 DUP12 MSTORE PUSH1 0x20 DUP12 ADD SWAP10 SWAP1 SWAP10 MSTORE SWAP8 DUP10 ADD SWAP7 SWAP1 SWAP7 MSTORE PUSH1 0x1 PUSH1 0x1 PUSH1 0xA0 SHL SUB SWAP1 SWAP5 AND PUSH1 0x60 DUP9 ADD MSTORE PUSH1 0xFF SWAP3 DUP4 AND PUSH1 0x80 DUP9 ADD MSTORE SWAP2 AND PUSH1 0xA0 DUP7 ADD MSTORE ISZERO ISZERO PUSH1 0xC0 DUP6 ADD MSTORE ISZERO ISZERO PUSH1 0xE0 DUP5 ADD MSTORE ISZERO ISZERO PUSH2 0x100 DUP4 ADD MSTORE ISZERO ISZERO PUSH2 0x120 DUP3 ADD MSTORE PUSH2 0x140 ADD PUSH2 0x2AC JUMP JUMPDEST CALLVALUE DUP1 ISZERO PUSH2 0x8D5 JUMPI PUSH1 0x0 DUP1 REVERT JUMPDEST POP PUSH2 0x2A2 PUSH1 0x3 SLOAD DUP2 JUMP JUMPDEST CALLVALUE DUP1 ISZERO PUSH2 0x8EB JUMPI PUSH1 0x0 DUP1 REVERT JUMPDEST POP PUSH2 0x500 PUSH2 0x8FA CALLDATASIZE PUSH1 0x4 PUSH2 0x3859 JUMP JUMPDEST PUSH1 0x12 PUSH1 0x20 SWAP1 DUP2 MSTORE PUSH1 0x0 SWAP3 DUP4 MSTORE PUSH1 0x40 DUP1 DUP5 KECCAK256 SWAP1 SWAP2 MSTORE SWAP1 DUP3 MSTORE SWAP1 KECCAK256 SLOAD PUSH1 0xFF AND DUP2 JUMP JUMPDEST CALLVALUE DUP1 ISZERO PUSH2 0x926 JUMPI PUSH1 0x0 DUP1 REVERT JUMPDEST POP PUSH1 0x1 SLOAD PUSH2 0x36D SWAP1 PUSH2 0x100 SWAP1 DIV PUSH1 0xFF AND DUP2 JUMP JUMPDEST CALLVALUE DUP1 ISZERO PUSH2 0x945 JUMPI PUSH1 0x0 DUP1 REVERT JUMPDEST POP PUSH2 0x500 PUSH2 0x2A64 JUMP JUMPDEST CALLVALUE DUP1 ISZERO PUSH2 0x95A JUMPI PUSH1 0x0 DUP1 REVERT JUMPDEST POP PUSH2 0x500 PUSH2 0x2B07 JUMP JUMPDEST CALLVALUE DUP1 ISZERO PUSH2 0x96F JUMPI PUSH1 0x0 DUP1 REVERT JUMPDEST POP PUSH2 0x2CA PUSH2 0x97E CALLDATASIZE PUSH1 0x4 PUSH2 0x3AFC JUMP JUMPDEST PUSH2 0x2C06 JUMP JUMPDEST CALLVALUE DUP1 ISZERO PUSH2 0x98F JUMPI PUSH1 0x0 DUP1 REVERT JUMPDEST POP PUSH2 0x500 PUSH2 0x99E CALLDATASIZE PUSH1 0x4 PUSH2 0x3837 JUMP JUMPDEST PUSH2 0x2DE0 JUMP JUMPDEST CALLVALUE DUP1 ISZERO PUSH2 0x9AF JUMPI PUSH1 0x0 DUP1 REVERT JUMPDEST POP PUSH2 0x2CA PUSH2 0x9BE CALLDATASIZE PUSH1 0x4 PUSH2 0x381E JUMP JUMPDEST PUSH2 0x2E5C JUMP JUMPDEST CALLVALUE DUP1 ISZERO PUSH2 0x9CF JUMPI PUSH1 0x0 DUP1 REVERT JUMPDEST POP PUSH2 0x2CA PUSH2 0x9DE CALLDATASIZE PUSH1 0x4 PUSH2 0x381E JUMP JUMPDEST PUSH2 0x2FA8 JUMP JUMPDEST CALLVALUE DUP1 ISZERO PUSH2 0x9EF JUMPI PUSH1 0x0 DUP1 REVERT JUMPDEST POP PUSH2 0xA03 PUSH2 0x9FE CALLDATASIZE PUSH1 0x4 PUSH2 0x3837 JUMP JUMPDEST PUSH2 0x3056 JUMP JUMPDEST PUSH1 0x40 MLOAD PUSH2 0x2AC SWAP4 SWAP3 SWAP2 SWAP1 PUSH2 0x3B37 JUMP JUMPDEST CALLVALUE DUP1 ISZERO PUSH2 0xA1E JUMPI PUSH1 0x0 DUP1 REVERT JUMPDEST POP PUSH2 0x2A2 PUSH2 0xA2D CALLDATASIZE PUSH1 0x4 PUSH2 0x38C0 JUMP JUMPDEST PUSH1 0x15 PUSH1 0x20 SWAP1 DUP2 MSTORE PUSH1 0x0 SWAP3 DUP4 MSTORE PUSH1 0x40 DUP1 DUP5 KECCAK256 SWAP1 SWAP2 MSTORE SWAP1 DUP3 MSTORE SWAP1 KECCAK256 SLOAD DUP2 JUMP JUMPDEST CALLVALUE DUP1 ISZERO PUSH2 0xA56 JUMPI PUSH1 0x0 DUP1 REVERT JUMPDEST POP PUSH1 0x1 SLOAD PUSH2 0x36D SWAP1 PUSH3 0x10000 SWAP1 DIV PUSH1 0xFF AND DUP2 JUMP JUMPDEST CALLVALUE DUP1 ISZERO PUSH2 0xA76 JUMPI PUSH1 0x0 DUP1 REVERT JUMPDEST POP PUSH2 0x2A2 PUSH1 0x4 SLOAD DUP2 JUMP JUMPDEST CALLER PUSH1 0x0 SWAP1 DUP2 MSTORE PUSH1 0x10 PUSH1 0x20 MSTORE PUSH1 0x40 SWAP1 KECCAK256 PUSH1 0x3 ADD SLOAD PUSH1 0x1 PUSH1 0xB8 SHL SWAP1 DIV PUSH1 0xFF AND PUSH2 0xAC2 JUMPI PUSH1 0x40 MLOAD PUSH3 0x461BCD PUSH1 0xE5 SHL DUP2 MSTORE PUSH1 0x4 ADD PUSH2 0xAB9 SWAP1 PUSH2 0x3BAC JUMP JUMPDEST PUSH1 0x40 MLOAD DUP1 SWAP2 SUB SWAP1 REVERT JUMPDEST PUSH1 0x2 SLOAD PUSH1 0x3 SLOAD EQ ISZERO DUP1 ISZERO PUSH2 0xAE5 JUMPI POP TIMESTAMP PUSH3 0x15180 PUSH1 0xA SLOAD PUSH2 0xAE3 SWAP2 SWAP1 PUSH2 0x3BDF JUMP JUMPDEST GT JUMPDEST PUSH2 0xB16 JUMPI PUSH1 0x40 MLOAD PUSH3 0x461BCD PUSH1 0xE5 SHL DUP2 MSTORE PUSH1 0x20 PUSH1 0x4 DUP3 ADD MSTORE PUSH1 0x2 PUSH1 0x24 DUP3 ADD MSTORE PUSH2 0x4E41 PUSH1 0xF0 SHL PUSH1 0x44 DUP3 ADD MSTORE PUSH1 0x64 ADD PUSH2 0xAB9 JUMP JUMPDEST CALLER PUSH1 0x0 SWAP1 DUP2 MSTORE PUSH1 0x14 PUSH1 0x20 SWAP1 DUP2 MSTORE PUSH1 0x40 DUP1 DUP4 KECCAK256 PUSH1 0x1 SLOAD PUSH1 0xFF AND DUP5 MSTORE SWAP1 SWAP2 MSTORE SWAP1 KECCAK256 SLOAD ISZERO PUSH2 0xB69 JUMPI PUSH1 0x40 MLOAD PUSH3 0x461BCD PUSH1 0xE5 SHL DUP2 MSTORE PUSH1 0x20 PUSH1 0x4 DUP3 ADD MSTORE PUSH1 0x3 PUSH1 0x24 DUP3 ADD MSTORE PUSH3 0x574645 PUSH1 0xE8 SHL PUSH1 0x44 DUP3 ADD MSTORE PUSH1 0x64 ADD PUSH2 0xAB9 JUMP JUMPDEST CALLER PUSH1 0x0 SWAP1 DUP2 MSTORE PUSH1 0x10 PUSH1 0x20 MSTORE PUSH1 0x40 SWAP1 KECCAK256 PUSH1 0x1 ADD SLOAD PUSH2 0xBAE JUMPI PUSH1 0x40 MLOAD PUSH3 0x461BCD PUSH1 0xE5 SHL DUP2 MSTORE PUSH1 0x20 PUSH1 0x4 DUP3 ADD MSTORE PUSH1 0x3 PUSH1 0x24 DUP3 ADD MSTORE PUSH3 0x2722A3 PUSH1 0xE9 SHL PUSH1 0x44 DUP3 ADD MSTORE PUSH1 0x64 ADD PUSH2 0xAB9 JUMP JUMPDEST CALLER PUSH1 0x0 SWAP1 DUP2 MSTORE PUSH1 0x10 PUSH1 0x20 MSTORE PUSH1 0x40 DUP2 KECCAK256 PUSH1 0x1 ADD DUP1 SLOAD SWAP1 DUP3 SWAP1 SSTORE SWAP1 JUMPDEST PUSH1 0xD SLOAD DUP2 LT ISZERO PUSH2 0xC49 JUMPI CALLER PUSH1 0x1 PUSH1 0x1 PUSH1 0xA0 SHL SUB AND PUSH1 0xD DUP3 DUP2 SLOAD DUP2 LT PUSH2 0xBEF JUMPI PUSH2 0xBEF PUSH2 0x3BF7 JUMP JUMPDEST PUSH1 0x0 SWAP2 DUP3 MSTORE PUSH1 0x20 SWAP1 SWAP2 KECCAK256 ADD SLOAD PUSH1 0x1 PUSH1 0x1 PUSH1 0xA0 SHL SUB AND EQ ISZERO PUSH2 0xC37 JUMPI PUSH1 0xD DUP2 DUP2 SLOAD DUP2 LT PUSH2 0xC1D JUMPI PUSH2 0xC1D PUSH2 0x3BF7 JUMP JUMPDEST PUSH1 0x0 SWAP2 DUP3 MSTORE PUSH1 0x20 SWAP1 SWAP2 KECCAK256 ADD DUP1 SLOAD PUSH1 0x1 PUSH1 0x1 PUSH1 0xA0 SHL SUB NOT AND SWAP1 SSTORE JUMPDEST DUP1 PUSH2 0xC41 DUP2 PUSH2 0x3C0D JUMP JUMPDEST SWAP2 POP POP PUSH2 0xBC8 JUMP JUMPDEST POP CALLER PUSH1 0x0 DUP2 DUP2 MSTORE PUSH1 0x10 PUSH1 0x20 MSTORE PUSH1 0x40 DUP1 DUP3 KECCAK256 PUSH1 0x3 ADD DUP1 SLOAD PUSH1 0xFF PUSH1 0xB8 SHL NOT AND SWAP1 SSTORE MLOAD DUP4 ISZERO PUSH2 0x8FC MUL SWAP2 DUP5 SWAP2 SWAP1 DUP2 DUP2 DUP2 DUP6 DUP9 DUP9 CALL SWAP4 POP POP POP POP ISZERO DUP1 ISZERO PUSH2 0xC90 JUMPI RETURNDATASIZE PUSH1 0x0 DUP1 RETURNDATACOPY RETURNDATASIZE PUSH1 0x0 REVERT JUMPDEST POP POP JUMP JUMPDEST PUSH1 0x0 DUP1 PUSH2 0xCA2 PUSH1 0xE DUP3 PUSH2 0x3624 JUMP JUMPDEST PUSH1 0x0 JUMPDEST PUSH1 0xD SLOAD DUP2 LT ISZERO PUSH2 0xD41 JUMPI PUSH1 0x0 PUSH1 0x10 PUSH1 0x0 PUSH1 0xD DUP5 DUP2 SLOAD DUP2 LT PUSH2 0xCC8 JUMPI PUSH2 0xCC8 PUSH2 0x3BF7 JUMP JUMPDEST PUSH1 0x0 SWAP2 DUP3 MSTORE PUSH1 0x20 DUP1 DUP4 KECCAK256 SWAP1 SWAP2 ADD SLOAD PUSH1 0x1 PUSH1 0x1 PUSH1 0xA0 SHL SUB AND DUP4 MSTORE DUP3 ADD SWAP3 SWAP1 SWAP3 MSTORE PUSH1 0x40 ADD SWAP1 KECCAK256 PUSH1 0x3 DUP2 ADD SLOAD SWAP1 SWAP2 POP PUSH1 0xFF PUSH1 0x1 PUSH1 0xA0 SHL SWAP1 SWAP2 DIV AND PUSH1 0x1 EQ ISZERO PUSH2 0xD2E JUMPI PUSH1 0xC SLOAD DUP2 PUSH1 0x1 ADD SLOAD PUSH2 0xD19 SWAP2 SWAP1 PUSH2 0x3C28 JUMP JUMPDEST PUSH1 0x1 DUP3 ADD SSTORE PUSH1 0xC SLOAD PUSH2 0xD2B SWAP1 DUP5 PUSH2 0x3BDF JUMP JUMPDEST SWAP3 POP JUMPDEST POP DUP1 PUSH2 0xD39 DUP2 PUSH2 0x3C0D JUMP JUMPDEST SWAP2 POP POP PUSH2 0xCA5 JUMP JUMPDEST POP PUSH1 0x0 JUMPDEST PUSH1 0xD SLOAD DUP2 LT ISZERO PUSH2 0x107C JUMPI PUSH1 0x0 PUSH1 0x10 PUSH1 0x0 PUSH1 0xD DUP5 DUP2 SLOAD DUP2 LT PUSH2 0xD68 JUMPI PUSH2 0xD68 PUSH2 0x3BF7 JUMP JUMPDEST PUSH1 0x0 SWAP2 DUP3 MSTORE PUSH1 0x20 DUP1 DUP4 KECCAK256 SWAP1 SWAP2 ADD SLOAD PUSH1 0x1 PUSH1 0x1 PUSH1 0xA0 SHL SUB AND DUP4 MSTORE DUP3 ADD SWAP3 SWAP1 SWAP3 MSTORE PUSH1 0x40 ADD SWAP1 KECCAK256 PUSH1 0x3 DUP2 ADD SLOAD SWAP1 SWAP2 POP PUSH1 0xFF PUSH1 0x1 PUSH1 0xB8 SHL SWAP1 SWAP2 DIV AND ISZERO PUSH2 0x1069 JUMPI PUSH1 0x0 DUP2 PUSH1 0x2 ADD SLOAD SLT ISZERO PUSH2 0x1053 JUMPI PUSH1 0x3 DUP2 ADD SLOAD PUSH1 0x1 DUP1 SLOAD PUSH1 0xFF PUSH1 0x1 PUSH1 0xA8 SHL SWAP1 SWAP4 DIV DUP4 AND SWAP3 DUP3 SWAP2 PUSH2 0xDDA SWAP2 DUP6 SWAP2 PUSH2 0x100 SWAP1 DIV AND PUSH2 0x3C3F JUMP JUMPDEST SWAP3 POP PUSH2 0x100 EXP DUP2 SLOAD DUP2 PUSH1 0xFF MUL NOT AND SWAP1 DUP4 PUSH1 0xFF AND MUL OR SWAP1 SSTORE POP PUSH1 0x0 PUSH1 0x1 PUSH1 0x2 SWAP1 SLOAD SWAP1 PUSH2 0x100 EXP SWAP1 DIV PUSH1 0xFF AND PUSH1 0xFF AND DUP3 PUSH1 0x1 ADD SLOAD PUSH2 0xE16 SWAP2 SWAP1 PUSH2 0x3C62 JUMP JUMPDEST PUSH1 0x1 SLOAD PUSH1 0x5 SLOAD SWAP2 SWAP3 POP PUSH2 0xE33 SWAP2 PUSH3 0x10000 SWAP1 SWAP2 DIV PUSH1 0xFF AND SWAP1 PUSH2 0x3C62 JUMP JUMPDEST DUP3 PUSH1 0x1 ADD SLOAD GT ISZERO PUSH2 0xF3D JUMPI PUSH1 0x3 DUP3 ADD DUP1 SLOAD PUSH1 0xFF PUSH1 0xB0 SHL NOT DUP2 AND PUSH1 0x1 PUSH1 0xB0 SHL OR DUP3 SSTORE PUSH1 0xE DUP1 SLOAD PUSH1 0x1 DUP2 DUP2 ADD DUP4 SSTORE PUSH1 0x0 SWAP3 SWAP1 SWAP3 MSTORE PUSH32 0xBB7B4A454DC3493923482F07822329ED19E8244EFF582CC204F8554C3620C3FD ADD DUP1 SLOAD PUSH1 0x1 PUSH1 0x1 PUSH1 0xA0 SHL SUB NOT AND PUSH1 0x1 PUSH1 0x1 PUSH1 0xA0 SHL SUB SWAP1 SWAP4 AND SWAP3 SWAP1 SWAP3 OR SWAP1 SWAP2 SSTORE DUP2 SLOAD PUSH1 0xFF PUSH1 0xC0 SHL NOT AND SWAP1 SWAP2 SSTORE DUP3 ADD SLOAD PUSH2 0xEBF SWAP1 DUP3 SWAP1 PUSH2 0x3C28 JUMP JUMPDEST PUSH1 0x1 DUP4 ADD SSTORE PUSH1 0x2 DUP3 ADD SLOAD PUSH2 0xED4 SWAP1 DUP3 SWAP1 PUSH2 0x3C84 JUMP JUMPDEST PUSH1 0x2 DUP4 ADD SSTORE PUSH2 0xEE3 DUP2 DUP7 PUSH2 0x3BDF JUMP JUMPDEST PUSH1 0x3 DUP4 ADD SLOAD PUSH1 0x2 DUP5 ADD SLOAD PUSH1 0x1 DUP6 ADD SLOAD PUSH1 0x40 MLOAD SWAP4 SWAP9 POP PUSH32 0x641368B934D33E657FE49C6AF1C0E5B618D4DC123F53FC3F8D5F15FEE5F4FB86 SWAP4 PUSH2 0xF30 SWAP4 PUSH1 0x1 PUSH1 0x1 PUSH1 0xA0 SHL SUB AND SWAP3 SWAP2 DUP7 SWAP2 PUSH2 0x3CC3 JUMP JUMPDEST PUSH1 0x40 MLOAD DUP1 SWAP2 SUB SWAP1 LOG1 PUSH2 0x104D JUMP JUMPDEST PUSH1 0x3 DUP3 ADD DUP1 SLOAD PUSH2 0xFFFF PUSH1 0xB0 SHL NOT DUP2 AND PUSH1 0x1 PUSH1 0xB0 SHL OR DUP3 SSTORE PUSH1 0xE DUP1 SLOAD PUSH1 0x1 DUP2 DUP2 ADD DUP4 SSTORE PUSH1 0x0 SWAP3 SWAP1 SWAP3 MSTORE PUSH32 0xBB7B4A454DC3493923482F07822329ED19E8244EFF582CC204F8554C3620C3FD ADD DUP1 SLOAD PUSH1 0x1 PUSH1 0x1 PUSH1 0xA0 SHL SUB NOT AND PUSH1 0x1 PUSH1 0x1 PUSH1 0xA0 SHL SUB SWAP1 SWAP4 AND SWAP3 SWAP1 SWAP3 OR SWAP1 SWAP2 SSTORE DUP2 SLOAD PUSH1 0xFF PUSH1 0xC0 SHL NOT AND SWAP1 SWAP2 SSTORE DUP3 ADD SLOAD PUSH2 0xFBE SWAP1 DUP7 PUSH2 0x3BDF JUMP JUMPDEST PUSH1 0x3 DUP4 ADD SLOAD PUSH1 0x2 DUP5 ADD SLOAD PUSH1 0x1 DUP6 ADD SLOAD PUSH1 0x40 MLOAD SWAP4 SWAP9 POP PUSH32 0x6A461179A109AC5A4F65774B04343A475DD7D089FFA5A31552A4D71E0A1E7B4F SWAP4 PUSH2 0x100D SWAP4 PUSH1 0x1 PUSH1 0x1 PUSH1 0xA0 SHL SUB AND SWAP3 SWAP2 SWAP1 PUSH1 0x0 SWAP1 PUSH2 0x3CC3 JUMP JUMPDEST PUSH1 0x40 MLOAD DUP1 SWAP2 SUB SWAP1 LOG1 PUSH1 0x0 DUP3 PUSH1 0x1 ADD DUP2 SWAP1 SSTORE POP PUSH1 0x1 PUSH1 0x2 PUSH1 0x0 DUP3 DUP3 SLOAD PUSH2 0x1032 SWAP2 SWAP1 PUSH2 0x3C28 JUMP JUMPDEST SWAP1 SWAP2 SSTORE POP POP PUSH1 0x3 DUP3 ADD DUP1 SLOAD PUSH1 0xFF PUSH1 0xC8 SHL NOT AND PUSH1 0x1 PUSH1 0xC8 SHL OR SWAP1 SSTORE JUMPDEST POP PUSH2 0x1069 JUMP JUMPDEST PUSH1 0x3 DUP2 ADD DUP1 SLOAD PUSH1 0xFF PUSH1 0xC0 SHL NOT AND PUSH1 0x1 PUSH1 0xC0 SHL OR SWAP1 SSTORE JUMPDEST POP DUP1 PUSH2 0x1074 DUP2 PUSH2 0x3C0D JUMP JUMPDEST SWAP2 POP POP PUSH2 0xD45 JUMP JUMPDEST POP PUSH1 0x0 JUMPDEST PUSH1 0xD SLOAD DUP2 LT ISZERO PUSH2 0x1284 JUMPI PUSH1 0x0 PUSH1 0x10 PUSH1 0x0 PUSH1 0xD DUP5 DUP2 SLOAD DUP2 LT PUSH2 0x10A3 JUMPI PUSH2 0x10A3 PUSH2 0x3BF7 JUMP JUMPDEST PUSH1 0x0 SWAP2 DUP3 MSTORE PUSH1 0x20 DUP1 DUP4 KECCAK256 SWAP1 SWAP2 ADD SLOAD PUSH1 0x1 PUSH1 0x1 PUSH1 0xA0 SHL SUB AND DUP4 MSTORE DUP3 ADD SWAP3 SWAP1 SWAP3 MSTORE PUSH1 0x40 ADD SWAP1 KECCAK256 PUSH1 0x3 DUP2 ADD SLOAD SWAP1 SWAP2 POP PUSH1 0xFF PUSH1 0x1 PUSH1 0xB8 SHL SWAP1 SWAP2 DIV AND ISZERO PUSH2 0x1271 JUMPI PUSH1 0x0 JUMPDEST PUSH1 0xE SLOAD DUP2 LT ISZERO PUSH2 0x126F JUMPI PUSH1 0x3 DUP3 ADD SLOAD PUSH1 0x1 PUSH1 0x1 PUSH1 0xA0 SHL SUB AND PUSH1 0x0 SWAP1 DUP2 MSTORE PUSH1 0x12 PUSH1 0x20 MSTORE PUSH1 0x40 DUP2 KECCAK256 PUSH1 0xE DUP1 SLOAD SWAP2 SWAP3 SWAP2 DUP5 SWAP1 DUP2 LT PUSH2 0x111F JUMPI PUSH2 0x111F PUSH2 0x3BF7 JUMP JUMPDEST PUSH1 0x0 SWAP2 DUP3 MSTORE PUSH1 0x20 DUP1 DUP4 KECCAK256 SWAP1 SWAP2 ADD SLOAD PUSH1 0x1 PUSH1 0x1 PUSH1 0xA0 SHL SUB AND DUP4 MSTORE DUP3 ADD SWAP3 SWAP1 SWAP3 MSTORE PUSH1 0x40 ADD SWAP1 KECCAK256 SLOAD PUSH1 0xFF AND ISZERO PUSH2 0x125D JUMPI PUSH1 0x3 DUP3 ADD SLOAD PUSH1 0x1 PUSH1 0x1 PUSH1 0xA0 SHL SUB AND PUSH1 0x0 SWAP1 DUP2 MSTORE PUSH1 0x12 PUSH1 0x20 MSTORE PUSH1 0x40 DUP2 KECCAK256 PUSH1 0xE DUP1 SLOAD DUP4 SWAP2 SWAP1 DUP6 SWAP1 DUP2 LT PUSH2 0x117F JUMPI PUSH2 0x117F PUSH2 0x3BF7 JUMP JUMPDEST PUSH1 0x0 SWAP2 DUP3 MSTORE PUSH1 0x20 DUP1 DUP4 KECCAK256 SWAP2 SWAP1 SWAP2 ADD SLOAD PUSH1 0x1 PUSH1 0x1 PUSH1 0xA0 SHL SUB AND DUP4 MSTORE DUP3 ADD SWAP3 SWAP1 SWAP3 MSTORE PUSH1 0x40 ADD SWAP1 KECCAK256 DUP1 SLOAD PUSH1 0xFF NOT AND SWAP2 ISZERO ISZERO SWAP2 SWAP1 SWAP2 OR SWAP1 SSTORE PUSH1 0x3 DUP3 ADD SLOAD PUSH1 0x1 DUP1 SLOAD PUSH1 0xFF PUSH1 0x1 PUSH1 0xA8 SHL SWAP1 SWAP4 DIV DUP4 AND SWAP3 DUP3 SWAP2 PUSH2 0x11DC SWAP2 DUP6 SWAP2 PUSH2 0x100 SWAP1 DIV AND PUSH2 0x3C3F JUMP JUMPDEST DUP3 SLOAD PUSH1 0xFF SWAP2 DUP3 AND PUSH2 0x100 SWAP4 SWAP1 SWAP4 EXP SWAP3 DUP4 MUL SWAP2 SWAP1 SWAP3 MUL NOT SWAP1 SWAP2 AND OR SWAP1 SSTORE POP PUSH1 0x3 DUP3 ADD DUP1 SLOAD PUSH1 0xFF PUSH1 0xC0 SHL NOT DUP2 AND SWAP1 SWAP2 SSTORE PUSH1 0x2 DUP4 ADD SLOAD PUSH1 0x1 DUP5 ADD SLOAD PUSH1 0x40 MLOAD PUSH32 0x1774DD77FAAF323CD25B2F963FF975744949B339A6D103B4E3959263F6C2F977 SWAP4 PUSH2 0x1254 SWAP4 PUSH1 0x1 PUSH1 0x1 PUSH1 0xA0 SHL SUB SWAP1 SWAP2 AND SWAP3 SWAP1 SWAP2 PUSH1 0x0 SWAP2 SWAP1 PUSH2 0x3CC3 JUMP JUMPDEST PUSH1 0x40 MLOAD DUP1 SWAP2 SUB SWAP1 LOG1 JUMPDEST DUP1 PUSH2 0x1267 DUP2 PUSH2 0x3C0D JUMP JUMPDEST SWAP2 POP POP PUSH2 0x10E2 JUMP JUMPDEST POP JUMPDEST POP DUP1 PUSH2 0x127C DUP2 PUSH2 0x3C0D JUMP JUMPDEST SWAP2 POP POP PUSH2 0x1080 JUMP JUMPDEST POP PUSH1 0x0 JUMPDEST PUSH1 0xD SLOAD DUP2 LT ISZERO PUSH2 0x1370 JUMPI PUSH1 0x0 PUSH1 0x10 PUSH1 0x0 PUSH1 0xD DUP5 DUP2 SLOAD DUP2 LT PUSH2 0x12AB JUMPI PUSH2 0x12AB PUSH2 0x3BF7 JUMP JUMPDEST PUSH1 0x0 SWAP2 DUP3 MSTORE PUSH1 0x20 DUP1 DUP4 KECCAK256 SWAP1 SWAP2 ADD SLOAD PUSH1 0x1 PUSH1 0x1 PUSH1 0xA0 SHL SUB AND DUP4 MSTORE DUP3 ADD SWAP3 SWAP1 SWAP3 MSTORE PUSH1 0x40 ADD SWAP1 KECCAK256 PUSH1 0x3 DUP2 ADD SLOAD SWAP1 SWAP2 POP PUSH1 0xFF PUSH1 0x1 PUSH1 0xB8 SHL SWAP1 SWAP2 DIV AND ISZERO PUSH2 0x135D JUMPI PUSH1 0x3 DUP2 ADD SLOAD PUSH1 0x1 PUSH1 0xA0 SHL SWAP1 DIV PUSH1 0xFF AND PUSH1 0x1 EQ ISZERO PUSH2 0x135D JUMPI PUSH1 0x3 DUP2 ADD SLOAD PUSH1 0x1 PUSH1 0xC0 SHL SWAP1 DIV PUSH1 0xFF AND ISZERO PUSH2 0x133D JUMPI PUSH1 0xC SLOAD DUP2 PUSH1 0x1 ADD SLOAD PUSH2 0x1324 SWAP2 SWAP1 PUSH2 0x3BDF JUMP JUMPDEST PUSH1 0x1 DUP3 ADD SSTORE PUSH1 0xC SLOAD PUSH2 0x1336 SWAP1 DUP5 PUSH2 0x3C28 JUMP JUMPDEST SWAP3 POP PUSH2 0x135D JUMP JUMPDEST PUSH1 0xC SLOAD PUSH2 0x134A SWAP1 DUP6 PUSH2 0x3BDF JUMP JUMPDEST SWAP4 POP PUSH1 0xC SLOAD DUP4 PUSH2 0x135A SWAP2 SWAP1 PUSH2 0x3C28 JUMP JUMPDEST SWAP3 POP JUMPDEST POP DUP1 PUSH2 0x1368 DUP2 PUSH2 0x3C0D JUMP JUMPDEST SWAP2 POP POP PUSH2 0x1288 JUMP JUMPDEST POP PUSH1 0x1 SLOAD PUSH1 0x0 SWAP1 DUP2 SWAP1 PUSH2 0x100 SWAP1 DIV PUSH1 0xFF AND ISZERO DUP1 ISZERO SWAP1 PUSH2 0x1393 JUMPI POP PUSH1 0x8 SLOAD PUSH1 0x9 SLOAD LT ISZERO JUMPDEST ISZERO PUSH2 0x1B9F JUMPI PUSH1 0x8 SLOAD PUSH1 0x9 PUSH1 0x0 DUP3 DUP3 SLOAD PUSH2 0x13AC SWAP2 SWAP1 PUSH2 0x3C28 JUMP JUMPDEST SWAP1 SWAP2 SSTORE POP POP PUSH1 0x8 SLOAD DUP5 ISZERO PUSH2 0x13C7 JUMPI PUSH2 0x13C4 DUP6 DUP3 PUSH2 0x3BDF JUMP JUMPDEST SWAP1 POP JUMPDEST PUSH1 0x0 JUMPDEST PUSH1 0xD SLOAD DUP2 LT ISZERO PUSH2 0x1527 JUMPI PUSH1 0x0 PUSH1 0x10 PUSH1 0x0 PUSH1 0xD DUP5 DUP2 SLOAD DUP2 LT PUSH2 0x13ED JUMPI PUSH2 0x13ED PUSH2 0x3BF7 JUMP JUMPDEST PUSH1 0x0 SWAP2 DUP3 MSTORE PUSH1 0x20 DUP1 DUP4 KECCAK256 SWAP1 SWAP2 ADD SLOAD PUSH1 0x1 PUSH1 0x1 PUSH1 0xA0 SHL SUB AND DUP4 MSTORE DUP3 ADD SWAP3 SWAP1 SWAP3 MSTORE PUSH1 0x40 ADD SWAP1 KECCAK256 PUSH1 0x3 DUP2 ADD SLOAD SWAP1 SWAP2 POP PUSH1 0xFF PUSH1 0x1 PUSH1 0xB8 SHL SWAP1 SWAP2 DIV AND DUP1 ISZERO PUSH2 0x143B JUMPI POP PUSH1 0x3 DUP2 ADD SLOAD PUSH1 0x1 PUSH1 0xC0 SHL SWAP1 DIV PUSH1 0xFF AND JUMPDEST DUP1 ISZERO PUSH2 0x1453 JUMPI POP PUSH1 0x3 DUP2 ADD SLOAD PUSH1 0x1 PUSH1 0xB0 SHL SWAP1 DIV PUSH1 0xFF AND ISZERO JUMPDEST ISZERO PUSH2 0x1514 JUMPI PUSH1 0x1 SLOAD PUSH1 0xFF AND PUSH1 0x0 SWAP1 DUP2 MSTORE PUSH1 0x15 PUSH1 0x20 SWAP1 DUP2 MSTORE PUSH1 0x40 DUP1 DUP4 KECCAK256 PUSH1 0x3 DUP6 ADD SLOAD PUSH1 0x1 PUSH1 0x1 PUSH1 0xA0 SHL SUB AND DUP5 MSTORE SWAP1 SWAP2 MSTORE DUP2 KECCAK256 SLOAD PUSH2 0x148E SWAP1 PUSH2 0x34DA JUMP JUMPDEST PUSH1 0x3 DUP4 ADD SLOAD PUSH2 0x14A7 SWAP2 SWAP1 PUSH1 0x1 PUSH1 0xA8 SHL SWAP1 DIV PUSH1 0xFF AND PUSH2 0x3CE9 JUMP JUMPDEST PUSH1 0x1 SLOAD PUSH1 0xFF AND PUSH1 0x0 SWAP1 DUP2 MSTORE PUSH1 0x15 PUSH1 0x20 SWAP1 DUP2 MSTORE PUSH1 0x40 DUP1 DUP4 KECCAK256 PUSH1 0x3 DUP8 ADD SLOAD PUSH1 0x1 PUSH1 0x1 PUSH1 0xA0 SHL SUB AND DUP5 MSTORE SWAP1 SWAP2 MSTORE DUP2 KECCAK256 SLOAD SWAP2 SWAP3 POP SGT PUSH2 0x14EA JUMPI PUSH2 0x14E5 DUP2 PUSH2 0x3D08 JUMP JUMPDEST PUSH2 0x14EC JUMP JUMPDEST DUP1 JUMPDEST DUP3 PUSH1 0x0 ADD PUSH1 0x0 DUP3 DUP3 SLOAD PUSH2 0x14FF SWAP2 SWAP1 PUSH2 0x3D25 JUMP JUMPDEST SWAP1 SWAP2 SSTORE POP POP DUP2 SLOAD PUSH2 0x1510 SWAP1 DUP8 PUSH2 0x3D25 JUMP JUMPDEST SWAP6 POP POP JUMPDEST POP DUP1 PUSH2 0x151F DUP2 PUSH2 0x3C0D JUMP JUMPDEST SWAP2 POP POP PUSH2 0x13CA JUMP JUMPDEST POP PUSH1 0x0 JUMPDEST PUSH1 0xD SLOAD DUP2 LT ISZERO PUSH2 0x175C JUMPI PUSH1 0x0 PUSH1 0x10 PUSH1 0x0 PUSH1 0xD DUP5 DUP2 SLOAD DUP2 LT PUSH2 0x154E JUMPI PUSH2 0x154E PUSH2 0x3BF7 JUMP JUMPDEST PUSH1 0x0 SWAP2 DUP3 MSTORE PUSH1 0x20 DUP1 DUP4 KECCAK256 SWAP1 SWAP2 ADD SLOAD PUSH1 0x1 PUSH1 0x1 PUSH1 0xA0 SHL SUB AND DUP4 MSTORE DUP3 ADD SWAP3 SWAP1 SWAP3 MSTORE PUSH1 0x40 ADD SWAP1 KECCAK256 PUSH1 0x3 DUP2 ADD SLOAD SWAP1 SWAP2 POP PUSH1 0xFF PUSH1 0x1 PUSH1 0xB8 SHL SWAP1 SWAP2 DIV AND DUP1 ISZERO PUSH2 0x159C JUMPI POP PUSH1 0x3 DUP2 ADD SLOAD PUSH1 0x1 PUSH1 0xC0 SHL SWAP1 DIV PUSH1 0xFF AND JUMPDEST DUP1 ISZERO PUSH2 0x15B4 JUMPI POP PUSH1 0x3 DUP2 ADD SLOAD PUSH1 0x1 PUSH1 0xB0 SHL SWAP1 DIV PUSH1 0xFF AND ISZERO JUMPDEST ISZERO PUSH2 0x1749 JUMPI PUSH1 0x0 DUP6 SGT ISZERO PUSH2 0x15C8 JUMPI DUP5 PUSH2 0x15CB JUMP JUMPDEST PUSH1 0x1 JUMPDEST SWAP4 POP PUSH1 0x0 DUP5 PUSH2 0x15DD DUP4 PUSH1 0x0 ADD SLOAD PUSH2 0x3514 JUMP JUMPDEST PUSH2 0x15E7 SWAP1 DUP7 PUSH2 0x3CE9 JUMP JUMPDEST PUSH2 0x15F1 SWAP2 SWAP1 PUSH2 0x3C62 JUMP JUMPDEST PUSH1 0x1 SLOAD PUSH1 0xFF AND PUSH1 0x0 SWAP1 DUP2 MSTORE PUSH1 0x15 PUSH1 0x20 SWAP1 DUP2 MSTORE PUSH1 0x40 DUP1 DUP4 KECCAK256 PUSH1 0x3 DUP8 ADD SLOAD PUSH1 0x1 PUSH1 0x1 PUSH1 0xA0 SHL SUB AND DUP5 MSTORE SWAP1 SWAP2 MSTORE DUP2 KECCAK256 SLOAD SWAP2 SWAP3 POP SGT DUP1 ISZERO PUSH2 0x1649 JUMPI POP PUSH1 0x1 SLOAD PUSH2 0x1641 SWAP1 PUSH5 0x100000000 SWAP1 DIV PUSH1 0xFF AND DUP3 PUSH2 0x3CE9 JUMP JUMPDEST DUP3 PUSH1 0x1 ADD SLOAD GT ISZERO JUMPDEST ISZERO PUSH2 0x1747 JUMPI PUSH1 0x1 DUP3 ADD SLOAD PUSH2 0x165D SWAP1 DUP6 PUSH2 0x3BDF JUMP JUMPDEST PUSH1 0x3 DUP4 ADD SLOAD PUSH1 0x2 DUP5 ADD SLOAD PUSH1 0x1 DUP6 ADD SLOAD PUSH1 0x40 MLOAD SWAP4 SWAP8 POP PUSH32 0x6A461179A109AC5A4F65774B04343A475DD7D089FFA5A31552A4D71E0A1E7B4F SWAP4 PUSH2 0x16AC SWAP4 PUSH1 0x1 PUSH1 0x1 PUSH1 0xA0 SHL SUB AND SWAP3 SWAP2 SWAP1 PUSH1 0x0 SWAP1 PUSH2 0x3CC3 JUMP JUMPDEST PUSH1 0x40 MLOAD DUP1 SWAP2 SUB SWAP1 LOG1 PUSH1 0x1 SLOAD PUSH1 0xFF AND PUSH1 0x0 SWAP1 DUP2 MSTORE PUSH1 0x15 PUSH1 0x20 SWAP1 DUP2 MSTORE PUSH1 0x40 DUP1 DUP4 KECCAK256 PUSH1 0x3 DUP7 ADD SLOAD PUSH1 0x1 PUSH1 0x1 PUSH1 0xA0 SHL SUB AND DUP5 MSTORE SWAP1 SWAP2 MSTORE SWAP1 KECCAK256 SLOAD PUSH2 0x16EA SWAP1 PUSH2 0x34DA JUMP JUMPDEST PUSH1 0x3 DUP4 ADD SLOAD PUSH2 0x1703 SWAP2 SWAP1 PUSH1 0x1 PUSH1 0xA8 SHL SWAP1 DIV PUSH1 0xFF AND PUSH2 0x3CE9 JUMP JUMPDEST PUSH2 0x170D SWAP1 DUP8 PUSH2 0x3D25 JUMP JUMPDEST SWAP6 POP PUSH1 0x0 DUP3 PUSH1 0x1 ADD DUP2 SWAP1 SSTORE POP PUSH1 0x1 PUSH1 0x2 PUSH1 0x0 DUP3 DUP3 SLOAD PUSH2 0x172C SWAP2 SWAP1 PUSH2 0x3C28 JUMP JUMPDEST SWAP1 SWAP2 SSTORE POP POP PUSH1 0x3 DUP3 ADD DUP1 SLOAD PUSH1 0xFF PUSH1 0xC8 SHL NOT AND PUSH1 0x1 PUSH1 0xC8 SHL OR SWAP1 SSTORE JUMPDEST POP JUMPDEST POP DUP1 PUSH2 0x1754 DUP2 PUSH2 0x3C0D JUMP JUMPDEST SWAP2 POP POP PUSH2 0x152B JUMP JUMPDEST POP PUSH1 0x0 DUP4 SGT ISZERO PUSH2 0x176C JUMPI DUP3 PUSH2 0x176F JUMP JUMPDEST PUSH1 0x1 JUMPDEST SWAP2 POP PUSH1 0x0 DUP1 PUSH1 0x0 JUMPDEST PUSH1 0xD SLOAD DUP2 LT ISZERO PUSH2 0x190F JUMPI PUSH1 0x0 PUSH1 0x10 PUSH1 0x0 PUSH1 0xD DUP5 DUP2 SLOAD DUP2 LT PUSH2 0x179A JUMPI PUSH2 0x179A PUSH2 0x3BF7 JUMP JUMPDEST PUSH1 0x0 SWAP2 DUP3 MSTORE PUSH1 0x20 DUP1 DUP4 KECCAK256 SWAP1 SWAP2 ADD SLOAD PUSH1 0x1 PUSH1 0x1 PUSH1 0xA0 SHL SUB AND DUP4 MSTORE DUP3 ADD SWAP3 SWAP1 SWAP3 MSTORE PUSH1 0x40 ADD SWAP1 KECCAK256 PUSH1 0x3 DUP2 ADD SLOAD SWAP1 SWAP2 POP PUSH1 0xFF PUSH1 0x1 PUSH1 0xB8 SHL SWAP1 SWAP2 DIV AND DUP1 ISZERO PUSH2 0x17E8 JUMPI POP PUSH1 0x3 DUP2 ADD SLOAD PUSH1 0x1 PUSH1 0xC0 SHL SWAP1 DIV PUSH1 0xFF AND JUMPDEST DUP1 ISZERO PUSH2 0x1800 JUMPI POP PUSH1 0x3 DUP2 ADD SLOAD PUSH1 0x1 PUSH1 0xB0 SHL SWAP1 DIV PUSH1 0xFF AND ISZERO JUMPDEST DUP1 ISZERO PUSH2 0x1836 JUMPI POP PUSH1 0x1 SLOAD PUSH1 0xFF AND PUSH1 0x0 SWAP1 DUP2 MSTORE PUSH1 0x15 PUSH1 0x20 SWAP1 DUP2 MSTORE PUSH1 0x40 DUP1 DUP4 KECCAK256 PUSH1 0x3 DUP6 ADD SLOAD PUSH1 0x1 PUSH1 0x1 PUSH1 0xA0 SHL SUB AND DUP5 MSTORE SWAP1 SWAP2 MSTORE DUP2 KECCAK256 SLOAD SLT JUMPDEST ISZERO PUSH2 0x18FC JUMPI PUSH1 0x0 DUP7 PUSH2 0x184B DUP4 PUSH1 0x0 ADD SLOAD PUSH2 0x3514 JUMP JUMPDEST PUSH2 0x1855 SWAP1 DUP9 PUSH2 0x3CE9 JUMP JUMPDEST PUSH2 0x185F SWAP2 SWAP1 PUSH2 0x3C62 JUMP JUMPDEST PUSH1 0x1 SLOAD SWAP1 SWAP2 POP PUSH1 0x0 SWAP1 PUSH2 0x187D SWAP1 PUSH5 0x100000000 SWAP1 DIV PUSH1 0xFF AND DUP4 PUSH2 0x3CE9 JUMP JUMPDEST SWAP1 POP DUP1 DUP4 PUSH1 0x1 ADD PUSH1 0x0 DUP3 DUP3 SLOAD PUSH2 0x1893 SWAP2 SWAP1 PUSH2 0x3C28 JUMP JUMPDEST SWAP1 SWAP2 SSTORE POP PUSH2 0x18A3 SWAP1 POP DUP2 DUP8 PUSH2 0x3BDF JUMP JUMPDEST PUSH1 0x3 DUP5 ADD SLOAD PUSH1 0x2 DUP6 ADD SLOAD PUSH1 0x1 DUP7 ADD SLOAD PUSH1 0x40 MLOAD SWAP4 SWAP10 POP PUSH32 0xF002DA1CC235DD7B3CD93CB91C128FE6E777FB632383DA5FF2603123883748B1 SWAP4 PUSH2 0x18F1 SWAP4 PUSH1 0x1 PUSH1 0x1 PUSH1 0xA0 SHL SUB AND SWAP3 SWAP2 PUSH1 0x0 SWAP2 PUSH2 0x3CC3 JUMP JUMPDEST PUSH1 0x40 MLOAD DUP1 SWAP2 SUB SWAP1 LOG1 POP POP JUMPDEST POP DUP1 PUSH2 0x1907 DUP2 PUSH2 0x3C0D JUMP JUMPDEST SWAP2 POP POP PUSH2 0x1777 JUMP JUMPDEST POP PUSH2 0x191A DUP3 DUP5 PUSH2 0x3BDF JUMP JUMPDEST SWAP3 POP PUSH1 0x0 JUMPDEST PUSH1 0xD SLOAD DUP2 LT ISZERO PUSH2 0x1A05 JUMPI PUSH1 0x0 PUSH1 0x10 PUSH1 0x0 PUSH1 0xD DUP5 DUP2 SLOAD DUP2 LT PUSH2 0x1942 JUMPI PUSH2 0x1942 PUSH2 0x3BF7 JUMP JUMPDEST PUSH1 0x0 SWAP2 DUP3 MSTORE PUSH1 0x20 DUP1 DUP4 KECCAK256 SWAP1 SWAP2 ADD SLOAD PUSH1 0x1 PUSH1 0x1 PUSH1 0xA0 SHL SUB AND DUP4 MSTORE DUP3 ADD SWAP3 SWAP1 SWAP3 MSTORE PUSH1 0x40 ADD SWAP1 KECCAK256 PUSH1 0x3 DUP2 ADD SLOAD SWAP1 SWAP2 POP PUSH1 0xFF PUSH1 0x1 PUSH1 0xB8 SHL SWAP1 SWAP2 DIV AND DUP1 ISZERO PUSH2 0x1990 JUMPI POP PUSH1 0x3 DUP2 ADD SLOAD PUSH1 0x1 PUSH1 0xC0 SHL SWAP1 DIV PUSH1 0xFF AND JUMPDEST DUP1 ISZERO PUSH2 0x19A8 JUMPI POP PUSH1 0x3 DUP2 ADD SLOAD PUSH1 0x1 PUSH1 0xB0 SHL SWAP1 DIV PUSH1 0xFF AND ISZERO JUMPDEST DUP1 ISZERO PUSH2 0x19DE JUMPI POP PUSH1 0x1 SLOAD PUSH1 0xFF AND PUSH1 0x0 SWAP1 DUP2 MSTORE PUSH1 0x15 PUSH1 0x20 SWAP1 DUP2 MSTORE PUSH1 0x40 DUP1 DUP4 KECCAK256 PUSH1 0x3 DUP6 ADD SLOAD PUSH1 0x1 PUSH1 0x1 PUSH1 0xA0 SHL SUB AND DUP5 MSTORE SWAP1 SWAP2 MSTORE DUP2 KECCAK256 SLOAD SGT JUMPDEST ISZERO PUSH2 0x19F2 JUMPI DUP1 SLOAD PUSH2 0x19EF SWAP1 DUP5 PUSH2 0x3BDF JUMP JUMPDEST SWAP3 POP JUMPDEST POP DUP1 PUSH2 0x19FD DUP2 PUSH2 0x3C0D JUMP JUMPDEST SWAP2 POP POP PUSH2 0x191F JUMP JUMPDEST POP DUP1 ISZERO PUSH2 0x1A12 JUMPI DUP1 PUSH2 0x1A15 JUMP JUMPDEST PUSH1 0x1 JUMPDEST SWAP1 POP PUSH1 0x0 JUMPDEST PUSH1 0xD SLOAD DUP2 LT ISZERO PUSH2 0x1B9A JUMPI PUSH1 0x0 PUSH1 0x10 PUSH1 0x0 PUSH1 0xD DUP5 DUP2 SLOAD DUP2 LT PUSH2 0x1A3D JUMPI PUSH2 0x1A3D PUSH2 0x3BF7 JUMP JUMPDEST PUSH1 0x0 SWAP2 DUP3 MSTORE PUSH1 0x20 DUP1 DUP4 KECCAK256 SWAP1 SWAP2 ADD SLOAD PUSH1 0x1 PUSH1 0x1 PUSH1 0xA0 SHL SUB AND DUP4 MSTORE DUP3 ADD SWAP3 SWAP1 SWAP3 MSTORE PUSH1 0x40 ADD SWAP1 KECCAK256 PUSH1 0x3 DUP2 ADD SLOAD SWAP1 SWAP2 POP PUSH1 0xFF PUSH1 0x1 PUSH1 0xB8 SHL SWAP1 SWAP2 DIV AND DUP1 ISZERO PUSH2 0x1A8B JUMPI POP PUSH1 0x3 DUP2 ADD SLOAD PUSH1 0x1 PUSH1 0xC0 SHL SWAP1 DIV PUSH1 0xFF AND JUMPDEST DUP1 ISZERO PUSH2 0x1AA3 JUMPI POP PUSH1 0x3 DUP2 ADD SLOAD PUSH1 0x1 PUSH1 0xB0 SHL SWAP1 DIV PUSH1 0xFF AND ISZERO JUMPDEST DUP1 ISZERO PUSH2 0x1AD9 JUMPI POP PUSH1 0x1 SLOAD PUSH1 0xFF AND PUSH1 0x0 SWAP1 DUP2 MSTORE PUSH1 0x15 PUSH1 0x20 SWAP1 DUP2 MSTORE PUSH1 0x40 DUP1 DUP4 KECCAK256 PUSH1 0x3 DUP6 ADD SLOAD PUSH1 0x1 PUSH1 0x1 PUSH1 0xA0 SHL SUB AND DUP5 MSTORE SWAP1 SWAP2 MSTORE DUP2 KECCAK256 SLOAD SGT JUMPDEST ISZERO PUSH2 0x1B75 JUMPI PUSH1 0x0 DUP4 PUSH2 0x1AEE DUP4 PUSH1 0x0 ADD SLOAD PUSH2 0x3514 JUMP JUMPDEST PUSH2 0x1AF8 SWAP1 DUP9 PUSH2 0x3CE9 JUMP JUMPDEST PUSH2 0x1B02 SWAP2 SWAP1 PUSH2 0x3C62 JUMP JUMPDEST SWAP1 POP DUP1 DUP3 PUSH1 0x1 ADD PUSH1 0x0 DUP3 DUP3 SLOAD PUSH2 0x1B18 SWAP2 SWAP1 PUSH2 0x3BDF JUMP JUMPDEST SWAP1 SWAP2 SSTORE POP POP PUSH1 0x3 DUP3 ADD SLOAD PUSH1 0x2 DUP4 ADD SLOAD PUSH1 0x1 DUP5 ADD SLOAD PUSH1 0x40 MLOAD PUSH32 0xF002DA1CC235DD7B3CD93CB91C128FE6E777FB632383DA5FF2603123883748B1 SWAP4 PUSH2 0x1B6B SWAP4 PUSH1 0x1 PUSH1 0x1 PUSH1 0xA0 SHL SUB SWAP1 SWAP2 AND SWAP3 SWAP1 SWAP2 DUP7 SWAP2 SWAP1 PUSH2 0x3CC3 JUMP JUMPDEST PUSH1 0x40 MLOAD DUP1 SWAP2 SUB SWAP1 LOG1 POP JUMPDEST PUSH1 0x3 DUP2 ADD DUP1 SLOAD PUSH1 0xFF PUSH1 0xC0 SHL NOT AND SWAP1 SSTORE PUSH1 0x0 SWAP1 SSTORE DUP1 PUSH2 0x1B92 DUP2 PUSH2 0x3C0D JUMP JUMPDEST SWAP2 POP POP PUSH2 0x1A1A JUMP JUMPDEST POP POP POP POP JUMPDEST PUSH1 0x1 SLOAD PUSH1 0x40 DUP1 MLOAD PUSH1 0xFF DUP1 DUP5 AND DUP3 MSTORE PUSH2 0x100 SWAP1 SWAP4 DIV SWAP1 SWAP3 AND PUSH1 0x20 DUP4 ADD MSTORE DUP2 ADD DUP3 SWAP1 MSTORE PUSH1 0x60 DUP2 ADD DUP6 SWAP1 MSTORE PUSH32 0xFB9071657A7D7C77D4413E1C8487BB219C39DE920F3297977DD60BF0E00D33D SWAP1 PUSH1 0x80 ADD PUSH1 0x40 MLOAD DUP1 SWAP2 SUB SWAP1 LOG1 PUSH1 0x0 JUMPDEST PUSH1 0xD SLOAD DUP2 LT ISZERO PUSH2 0x1D48 JUMPI PUSH1 0x0 PUSH1 0x10 PUSH1 0x0 PUSH1 0xD DUP5 DUP2 SLOAD DUP2 LT PUSH2 0x1C1A JUMPI PUSH2 0x1C1A PUSH2 0x3BF7 JUMP JUMPDEST PUSH1 0x0 SWAP2 DUP3 MSTORE PUSH1 0x20 DUP1 DUP4 KECCAK256 SWAP1 SWAP2 ADD SLOAD PUSH1 0x1 PUSH1 0x1 PUSH1 0xA0 SHL SUB AND DUP4 MSTORE DUP3 ADD SWAP3 SWAP1 SWAP3 MSTORE PUSH1 0x40 ADD SWAP1 KECCAK256 PUSH1 0x3 DUP2 ADD SLOAD SWAP1 SWAP2 POP PUSH1 0xFF PUSH1 0x1 PUSH1 0xB8 SHL SWAP1 SWAP2 DIV AND ISZERO PUSH2 0x1D35 JUMPI PUSH1 0x3 DUP2 ADD DUP1 SLOAD PUSH1 0xFF PUSH1 0xA8 SHL NOT AND DUP1 DUP3 SSTORE PUSH1 0x0 PUSH1 0x2 DUP5 ADD SSTORE PUSH1 0x1 SWAP2 SWAP1 PUSH1 0x14 SWAP1 PUSH2 0x1C89 SWAP1 DUP5 SWAP1 PUSH1 0x1 PUSH1 0xA0 SHL SWAP1 DIV PUSH1 0xFF AND PUSH2 0x3D66 JUMP JUMPDEST DUP3 SLOAD PUSH1 0xFF SWAP2 DUP3 AND PUSH2 0x100 SWAP4 SWAP1 SWAP4 EXP SWAP3 DUP4 MUL SWAP2 SWAP1 SWAP3 MUL NOT SWAP1 SWAP2 AND OR SWAP1 SSTORE POP PUSH1 0x3 DUP2 ADD DUP1 SLOAD PUSH1 0xFF PUSH1 0xB0 SHL NOT AND SWAP1 SSTORE PUSH1 0x0 JUMPDEST PUSH1 0xD SLOAD DUP2 LT ISZERO PUSH2 0x1D33 JUMPI PUSH1 0x3 DUP3 ADD SLOAD PUSH1 0x1 PUSH1 0x1 PUSH1 0xA0 SHL SUB AND PUSH1 0x0 SWAP1 DUP2 MSTORE PUSH1 0x11 PUSH1 0x20 MSTORE PUSH1 0x40 DUP2 KECCAK256 PUSH1 0xD DUP1 SLOAD SWAP2 SWAP3 SWAP2 DUP5 SWAP1 DUP2 LT PUSH2 0x1CF5 JUMPI PUSH2 0x1CF5 PUSH2 0x3BF7 JUMP JUMPDEST PUSH1 0x0 SWAP2 DUP3 MSTORE PUSH1 0x20 DUP1 DUP4 KECCAK256 SWAP1 SWAP2 ADD SLOAD PUSH1 0x1 PUSH1 0x1 PUSH1 0xA0 SHL SUB AND DUP4 MSTORE DUP3 ADD SWAP3 SWAP1 SWAP3 MSTORE PUSH1 0x40 ADD SWAP1 KECCAK256 DUP1 SLOAD PUSH1 0xFF NOT AND SWAP1 SSTORE DUP1 PUSH2 0x1D2B DUP2 PUSH2 0x3C0D JUMP JUMPDEST SWAP2 POP POP PUSH2 0x1CB8 JUMP JUMPDEST POP JUMPDEST POP DUP1 PUSH2 0x1D40 DUP2 PUSH2 0x3C0D JUMP JUMPDEST SWAP2 POP POP PUSH2 0x1BF7 JUMP JUMPDEST POP PUSH1 0x1 DUP1 SLOAD DUP2 SWAP1 PUSH1 0x0 SWAP1 PUSH2 0x1D60 SWAP1 DUP4 SWAP1 PUSH1 0xFF AND PUSH2 0x3D66 JUMP JUMPDEST DUP3 SLOAD PUSH1 0xFF SWAP2 DUP3 AND PUSH2 0x100 SWAP4 SWAP1 SWAP4 EXP SWAP3 DUP4 MUL SWAP2 SWAP1 SWAP3 MUL NOT SWAP1 SWAP2 AND OR SWAP1 SSTORE POP POP PUSH1 0x1 DUP1 SLOAD PUSH2 0xFF00 NOT AND SWAP1 SSTORE POP POP PUSH1 0x0 PUSH1 0x3 SSTORE POP JUMP JUMPDEST CALLER PUSH1 0x0 SWAP1 DUP2 MSTORE PUSH1 0x10 PUSH1 0x20 MSTORE PUSH1 0x40 SWAP1 KECCAK256 PUSH1 0x3 ADD SLOAD PUSH1 0x1 PUSH1 0xB8 SHL SWAP1 DIV PUSH1 0xFF AND ISZERO PUSH2 0x1DE3 JUMPI PUSH1 0x40 MLOAD PUSH3 0x461BCD PUSH1 0xE5 SHL DUP2 MSTORE PUSH1 0x20 PUSH1 0x4 DUP3 ADD MSTORE PUSH1 0x3 PUSH1 0x24 DUP3 ADD MSTORE PUSH3 0x29A0A9 PUSH1 0xE9 SHL PUSH1 0x44 DUP3 ADD MSTORE PUSH1 0x64 ADD PUSH2 0xAB9 JUMP JUMPDEST PUSH1 0x5 SLOAD CALLVALUE LT ISZERO DUP1 ISZERO PUSH2 0x1DF7 JUMPI POP PUSH1 0x6 SLOAD CALLVALUE GT ISZERO JUMPDEST PUSH2 0x1E29 JUMPI PUSH1 0x40 MLOAD PUSH3 0x461BCD PUSH1 0xE5 SHL DUP2 MSTORE PUSH1 0x20 PUSH1 0x4 DUP3 ADD MSTORE PUSH1 0x3 PUSH1 0x24 DUP3 ADD MSTORE PUSH3 0x272BA9 PUSH1 0xE9 SHL PUSH1 0x44 DUP3 ADD MSTORE PUSH1 0x64 ADD PUSH2 0xAB9 JUMP JUMPDEST PUSH2 0x1E32 CALLER PUSH2 0x3528 JUMP JUMPDEST JUMP JUMPDEST PUSH1 0xD DUP2 DUP2 SLOAD DUP2 LT PUSH2 0x1E44 JUMPI PUSH1 0x0 DUP1 REVERT JUMPDEST PUSH1 0x0 SWAP2 DUP3 MSTORE PUSH1 0x20 SWAP1 SWAP2 KECCAK256 ADD SLOAD PUSH1 0x1 PUSH1 0x1 PUSH1 0xA0 SHL SUB AND SWAP1 POP DUP2 JUMP JUMPDEST CALLER PUSH1 0x0 SWAP1 DUP2 MSTORE PUSH1 0x10 PUSH1 0x20 MSTORE PUSH1 0x40 SWAP1 KECCAK256 PUSH1 0x3 ADD SLOAD PUSH1 0x1 PUSH1 0xB8 SHL SWAP1 DIV PUSH1 0xFF AND PUSH2 0x1E97 JUMPI PUSH1 0x40 MLOAD PUSH3 0x461BCD PUSH1 0xE5 SHL DUP2 MSTORE PUSH1 0x4 ADD PUSH2 0xAB9 SWAP1 PUSH2 0x3BAC JUMP JUMPDEST DUP2 PUSH1 0x1 PUSH1 0x1 PUSH1 0xA0 SHL SUB DUP2 AND CALLER EQ ISZERO PUSH2 0x1ED7 JUMPI PUSH1 0x40 MLOAD PUSH3 0x461BCD PUSH1 0xE5 SHL DUP2 MSTORE PUSH1 0x20 PUSH1 0x4 DUP3 ADD MSTORE PUSH1 0x3 PUSH1 0x24 DUP3 ADD MSTORE PUSH3 0x14D155 PUSH1 0xEA SHL PUSH1 0x44 DUP3 ADD MSTORE PUSH1 0x64 ADD PUSH2 0xAB9 JUMP JUMPDEST CALLER PUSH1 0x0 SWAP1 DUP2 MSTORE PUSH1 0x11 PUSH1 0x20 SWAP1 DUP2 MSTORE PUSH1 0x40 DUP1 DUP4 KECCAK256 PUSH1 0x1 PUSH1 0x1 PUSH1 0xA0 SHL SUB DUP6 AND DUP5 MSTORE SWAP1 SWAP2 MSTORE SWAP1 KECCAK256 SLOAD PUSH1 0xFF AND ISZERO PUSH2 0x1F31 JUMPI PUSH1 0x40 MLOAD PUSH3 0x461BCD PUSH1 0xE5 SHL DUP2 MSTORE PUSH1 0x20 PUSH1 0x4 DUP3 ADD MSTORE PUSH1 0x3 PUSH1 0x24 DUP3 ADD MSTORE PUSH3 0x564143 PUSH1 0xE8 SHL PUSH1 0x44 DUP3 ADD MSTORE PUSH1 0x64 ADD PUSH2 0xAB9 JUMP JUMPDEST PUSH1 0x2 SLOAD PUSH1 0x3 SLOAD EQ DUP1 PUSH2 0x1F52 JUMPI POP TIMESTAMP PUSH3 0x15180 PUSH1 0xA SLOAD PUSH2 0x1F50 SWAP2 SWAP1 PUSH2 0x3BDF JUMP JUMPDEST LT JUMPDEST PUSH2 0x1F84 JUMPI PUSH1 0x40 MLOAD PUSH3 0x461BCD PUSH1 0xE5 SHL DUP2 MSTORE PUSH1 0x20 PUSH1 0x4 DUP3 ADD MSTORE PUSH1 0x3 PUSH1 0x24 DUP3 ADD MSTORE PUSH3 0x465243 PUSH1 0xE8 SHL PUSH1 0x44 DUP3 ADD MSTORE PUSH1 0x64 ADD PUSH2 0xAB9 JUMP JUMPDEST CALLER PUSH1 0x0 DUP2 DUP2 MSTORE PUSH1 0x11 PUSH1 0x20 SWAP1 DUP2 MSTORE PUSH1 0x40 DUP1 DUP4 KECCAK256 PUSH1 0x1 PUSH1 0x1 PUSH1 0xA0 SHL SUB DUP9 AND DUP5 MSTORE DUP3 MSTORE DUP1 DUP4 KECCAK256 DUP1 SLOAD PUSH1 0xFF NOT AND PUSH1 0x1 SWAP1 DUP2 OR SWAP1 SWAP2 SSTORE SWAP4 DUP4 MSTORE PUSH1 0x10 SWAP1 SWAP2 MSTORE SWAP1 KECCAK256 PUSH1 0x3 ADD DUP1 SLOAD PUSH1 0x15 SWAP1 PUSH2 0x1FDC SWAP1 DUP5 SWAP1 PUSH1 0x1 PUSH1 0xA8 SHL SWAP1 DIV PUSH1 0xFF AND PUSH2 0x3D66 JUMP JUMPDEST SWAP3 POP PUSH2 0x100 EXP DUP2 SLOAD DUP2 PUSH1 0xFF MUL NOT AND SWAP1 DUP4 PUSH1 0xFF AND MUL OR SWAP1 SSTORE POP PUSH1 0x1 DUP1 PUSH1 0x1 DUP3 DUP3 DUP3 SWAP1 SLOAD SWAP1 PUSH2 0x100 EXP SWAP1 DIV PUSH1 0xFF AND PUSH2 0x2012 SWAP2 SWAP1 PUSH2 0x3D66 JUMP JUMPDEST SWAP3 POP PUSH2 0x100 EXP DUP2 SLOAD DUP2 PUSH1 0xFF MUL NOT AND SWAP1 DUP4 PUSH1 0xFF AND MUL OR SWAP1 SSTORE POP DUP2 PUSH1 0x1 EQ ISZERO PUSH2 0x20AB JUMPI CALLER PUSH1 0x0 DUP2 DUP2 MSTORE PUSH1 0x12 PUSH1 0x20 SWAP1 DUP2 MSTORE PUSH1 0x40 DUP1 DUP4 KECCAK256 PUSH1 0x1 PUSH1 0x1 PUSH1 0xA0 SHL SUB DUP9 AND DUP5 MSTORE DUP3 MSTORE DUP1 DUP4 KECCAK256 DUP1 SLOAD PUSH1 0xFF NOT AND PUSH1 0x1 SWAP1 DUP2 OR SWAP1 SWAP2 SSTORE SWAP4 DUP4 MSTORE PUSH1 0x10 SWAP1 SWAP2 MSTORE SWAP1 KECCAK256 DUP2 ADD SLOAD PUSH2 0x207A SWAP2 PUSH2 0x3D8B JUMP JUMPDEST PUSH1 0x1 PUSH1 0x1 PUSH1 0xA0 SHL SUB DUP5 AND PUSH1 0x0 SWAP1 DUP2 MSTORE PUSH1 0x10 PUSH1 0x20 MSTORE PUSH1 0x40 DUP2 KECCAK256 PUSH1 0x2 ADD DUP1 SLOAD SWAP1 SWAP2 SWAP1 PUSH2 0x20A5 SWAP1 DUP5 SWAP1 PUSH2 0x3D25 JUMP JUMPDEST SWAP1 SWAP2 SSTORE POP POP JUMPDEST DUP2 PUSH1 0x0 NOT EQ ISZERO PUSH2 0x2128 JUMPI CALLER PUSH1 0x0 DUP2 DUP2 MSTORE PUSH1 0x12 PUSH1 0x20 SWAP1 DUP2 MSTORE PUSH1 0x40 DUP1 DUP4 KECCAK256 PUSH1 0x1 PUSH1 0x1 PUSH1 0xA0 SHL SUB DUP9 AND DUP5 MSTORE DUP3 MSTORE DUP1 DUP4 KECCAK256 DUP1 SLOAD PUSH1 0xFF NOT AND SWAP1 SSTORE SWAP3 DUP3 MSTORE PUSH1 0x10 SWAP1 MSTORE KECCAK256 PUSH1 0x1 SWAP1 DUP2 ADD SLOAD PUSH2 0x20F7 SWAP2 PUSH2 0x3D8B JUMP JUMPDEST PUSH1 0x1 PUSH1 0x1 PUSH1 0xA0 SHL SUB DUP5 AND PUSH1 0x0 SWAP1 DUP2 MSTORE PUSH1 0x10 PUSH1 0x20 MSTORE PUSH1 0x40 DUP2 KECCAK256 PUSH1 0x2 ADD DUP1 SLOAD SWAP1 SWAP2 SWAP1 PUSH2 0x2122 SWAP1 DUP5 SWAP1 PUSH2 0x3C84 JUMP JUMPDEST SWAP1 SWAP2 SSTORE POP POP JUMPDEST DUP2 PUSH2 0x2159 JUMPI CALLER PUSH1 0x0 SWAP1 DUP2 MSTORE PUSH1 0x12 PUSH1 0x20 SWAP1 DUP2 MSTORE PUSH1 0x40 DUP1 DUP4 KECCAK256 PUSH1 0x1 PUSH1 0x1 PUSH1 0xA0 SHL SUB DUP8 AND DUP5 MSTORE SWAP1 SWAP2 MSTORE SWAP1 KECCAK256 DUP1 SLOAD PUSH1 0xFF NOT AND SWAP1 SSTORE JUMPDEST CALLER PUSH1 0x0 DUP2 DUP2 MSTORE PUSH1 0x10 PUSH1 0x20 SWAP1 DUP2 MSTORE PUSH1 0x40 DUP1 DUP4 KECCAK256 PUSH1 0x1 ADD SLOAD PUSH1 0x1 PUSH1 0x1 PUSH1 0xA0 SHL SUB DUP9 AND DUP1 DUP6 MSTORE SWAP4 DUP3 SWAP1 KECCAK256 PUSH1 0x2 ADD SLOAD DUP3 MLOAD SWAP5 DUP6 MSTORE SWAP3 DUP5 ADD SWAP5 SWAP1 SWAP5 MSTORE DUP3 DUP2 ADD SWAP4 SWAP1 SWAP4 MSTORE PUSH1 0x60 DUP3 ADD MSTORE SWAP1 MLOAD PUSH32 0xD69FE95841F16237D39B30BBB2ED7633B307FB0ADDC4BB890B6A3A77E04F5F7F SWAP2 DUP2 SWAP1 SUB PUSH1 0x80 ADD SWAP1 LOG1 POP POP POP JUMP JUMPDEST CALLER PUSH1 0x0 SWAP1 DUP2 MSTORE PUSH1 0x10 PUSH1 0x20 MSTORE PUSH1 0x40 SWAP1 KECCAK256 PUSH1 0x3 ADD SLOAD PUSH1 0x1 PUSH1 0xB8 SHL SWAP1 DIV PUSH1 0xFF AND ISZERO PUSH2 0x221D JUMPI PUSH1 0x40 MLOAD PUSH3 0x461BCD PUSH1 0xE5 SHL DUP2 MSTORE PUSH1 0x20 PUSH1 0x4 DUP3 ADD MSTORE PUSH1 0x3 PUSH1 0x24 DUP3 ADD MSTORE PUSH3 0x29A0A9 PUSH1 0xE9 SHL PUSH1 0x44 DUP3 ADD MSTORE PUSH1 0x64 ADD PUSH2 0xAB9 JUMP JUMPDEST PUSH1 0x5 SLOAD CALLVALUE LT ISZERO DUP1 ISZERO PUSH2 0x2231 JUMPI POP PUSH1 0x6 SLOAD CALLVALUE GT ISZERO JUMPDEST PUSH2 0x2263 JUMPI PUSH1 0x40 MLOAD PUSH3 0x461BCD PUSH1 0xE5 SHL DUP2 MSTORE PUSH1 0x20 PUSH1 0x4 DUP3 ADD MSTORE PUSH1 0x3 PUSH1 0x24 DUP3 ADD MSTORE PUSH3 0x272BA9 PUSH1 0xE9 SHL PUSH1 0x44 DUP3 ADD MSTORE PUSH1 0x64 ADD PUSH2 0xAB9 JUMP JUMPDEST PUSH2 0x226C DUP2 PUSH2 0x3528 JUMP JUMPDEST POP JUMP JUMPDEST CALLER PUSH1 0x0 SWAP1 DUP2 MSTORE PUSH1 0x10 PUSH1 0x20 MSTORE PUSH1 0x40 SWAP1 KECCAK256 PUSH1 0x3 ADD SLOAD PUSH1 0x1 PUSH1 0xB8 SHL SWAP1 DIV PUSH1 0xFF AND PUSH2 0x22A8 JUMPI PUSH1 0x40 MLOAD PUSH3 0x461BCD PUSH1 0xE5 SHL DUP2 MSTORE PUSH1 0x4 ADD PUSH2 0xAB9 SWAP1 PUSH2 0x3BAC JUMP JUMPDEST CALLER PUSH1 0x0 SWAP1 DUP2 MSTORE PUSH1 0x14 PUSH1 0x20 SWAP1 DUP2 MSTORE PUSH1 0x40 DUP1 DUP4 KECCAK256 PUSH1 0x1 SLOAD PUSH1 0xFF AND DUP5 MSTORE SWAP1 SWAP2 MSTORE SWAP1 KECCAK256 SLOAD ISZERO PUSH2 0x22FB JUMPI PUSH1 0x40 MLOAD PUSH3 0x461BCD PUSH1 0xE5 SHL DUP2 MSTORE PUSH1 0x20 PUSH1 0x4 DUP3 ADD MSTORE PUSH1 0x3 PUSH1 0x24 DUP3 ADD MSTORE PUSH3 0x53415 PUSH1 0xEC SHL PUSH1 0x44 DUP3 ADD MSTORE PUSH1 0x64 ADD PUSH2 0xAB9 JUMP JUMPDEST PUSH1 0x40 DUP1 MLOAD PUSH1 0x20 DUP2 ADD DUP5 SWAP1 MSTORE SWAP1 DUP2 ADD DUP3 SWAP1 MSTORE CALLER PUSH1 0x60 SWAP1 DUP2 SHL PUSH12 0xFFFFFFFFFFFFFFFFFFFFFFFF NOT AND SWAP1 DUP3 ADD MSTORE PUSH1 0x74 ADD PUSH1 0x40 DUP1 MLOAD PUSH1 0x1F NOT DUP2 DUP5 SUB ADD DUP2 MSTORE SWAP2 DUP2 MSTORE DUP2 MLOAD PUSH1 0x20 SWAP3 DUP4 ADD KECCAK256 CALLER PUSH1 0x0 SWAP1 DUP2 MSTORE PUSH1 0x13 DUP5 MSTORE DUP3 DUP2 KECCAK256 PUSH1 0x1 SLOAD PUSH1 0xFF AND DUP3 MSTORE SWAP1 SWAP4 MSTORE SWAP2 KECCAK256 SLOAD EQ PUSH2 0x238E JUMPI PUSH1 0x40 MLOAD PUSH3 0x461BCD PUSH1 0xE5 SHL DUP2 MSTORE PUSH1 0x20 PUSH1 0x4 DUP3 ADD MSTORE PUSH1 0x3 PUSH1 0x24 DUP3 ADD MSTORE PUSH3 0x4E4B53 PUSH1 0xE8 SHL PUSH1 0x44 DUP3 ADD MSTORE PUSH1 0x64 ADD PUSH2 0xAB9 JUMP JUMPDEST CALLER PUSH1 0x0 SWAP1 DUP2 MSTORE PUSH1 0x14 PUSH1 0x20 SWAP1 DUP2 MSTORE PUSH1 0x40 DUP1 DUP4 KECCAK256 PUSH1 0x1 DUP1 SLOAD PUSH1 0xFF AND DUP6 MSTORE SWAP3 MSTORE DUP3 KECCAK256 DUP5 SWAP1 SSTORE PUSH1 0x3 DUP1 SLOAD SWAP2 SWAP3 SWAP1 SWAP2 PUSH2 0x23C3 SWAP1 DUP5 SWAP1 PUSH2 0x3BDF JUMP JUMPDEST SWAP1 SWAP2 SSTORE POP POP POP POP JUMP JUMPDEST PUSH1 0x60 DUP1 PUSH1 0x0 DUP1 JUMPDEST PUSH1 0xD SLOAD DUP2 LT ISZERO PUSH2 0x2443 JUMPI PUSH1 0x0 PUSH1 0x10 PUSH1 0x0 PUSH1 0xD DUP5 DUP2 SLOAD DUP2 LT PUSH2 0x23F6 JUMPI PUSH2 0x23F6 PUSH2 0x3BF7 JUMP JUMPDEST PUSH1 0x0 SWAP2 DUP3 MSTORE PUSH1 0x20 DUP1 DUP4 KECCAK256 SWAP1 SWAP2 ADD SLOAD PUSH1 0x1 PUSH1 0x1 PUSH1 0xA0 SHL SUB AND DUP4 MSTORE DUP3 ADD SWAP3 SWAP1 SWAP3 MSTORE PUSH1 0x40 ADD SWAP1 KECCAK256 PUSH1 0x2 ADD SLOAD SLT PUSH2 0x2431 JUMPI PUSH2 0x242E PUSH1 0x1 DUP4 PUSH2 0x3D66 JUMP JUMPDEST SWAP2 POP JUMPDEST DUP1 PUSH2 0x243B DUP2 PUSH2 0x3C0D JUMP JUMPDEST SWAP2 POP POP PUSH2 0x23D3 JUMP JUMPDEST POP DUP1 PUSH1 0xFF AND PUSH8 0xFFFFFFFFFFFFFFFF DUP2 GT ISZERO PUSH2 0x2460 JUMPI PUSH2 0x2460 PUSH2 0x3E10 JUMP JUMPDEST PUSH1 0x40 MLOAD SWAP1 DUP1 DUP3 MSTORE DUP1 PUSH1 0x20 MUL PUSH1 0x20 ADD DUP3 ADD PUSH1 0x40 MSTORE DUP1 ISZERO PUSH2 0x2489 JUMPI DUP2 PUSH1 0x20 ADD PUSH1 0x20 DUP3 MUL DUP1 CALLDATASIZE DUP4 CALLDATACOPY ADD SWAP1 POP JUMPDEST POP SWAP3 POP DUP1 PUSH1 0xFF AND PUSH8 0xFFFFFFFFFFFFFFFF DUP2 GT ISZERO PUSH2 0x24A8 JUMPI PUSH2 0x24A8 PUSH2 0x3E10 JUMP JUMPDEST PUSH1 0x40 MLOAD SWAP1 DUP1 DUP3 MSTORE DUP1 PUSH1 0x20 MUL PUSH1 0x20 ADD DUP3 ADD PUSH1 0x40 MSTORE DUP1 ISZERO PUSH2 0x24D1 JUMPI DUP2 PUSH1 0x20 ADD PUSH1 0x20 DUP3 MUL DUP1 CALLDATASIZE DUP4 CALLDATACOPY ADD SWAP1 POP JUMPDEST POP SWAP2 POP PUSH1 0x0 DUP1 JUMPDEST PUSH1 0xD SLOAD DUP2 LT ISZERO PUSH2 0x263A JUMPI PUSH1 0x0 PUSH1 0x10 PUSH1 0x0 PUSH1 0xD DUP5 DUP2 SLOAD DUP2 LT PUSH2 0x24FB JUMPI PUSH2 0x24FB PUSH2 0x3BF7 JUMP JUMPDEST PUSH1 0x0 SWAP2 DUP3 MSTORE PUSH1 0x20 DUP1 DUP4 KECCAK256 SWAP1 SWAP2 ADD SLOAD PUSH1 0x1 PUSH1 0x1 PUSH1 0xA0 SHL SUB AND DUP4 MSTORE DUP3 ADD SWAP3 SWAP1 SWAP3 MSTORE PUSH1 0x40 ADD SWAP1 KECCAK256 PUSH1 0x2 ADD SLOAD SLT PUSH2 0x2628 JUMPI PUSH1 0x1 SLOAD PUSH1 0xFF AND PUSH1 0x0 SWAP1 DUP2 MSTORE PUSH1 0x17 PUSH1 0x20 MSTORE PUSH1 0x40 DUP2 KECCAK256 PUSH1 0xD DUP1 SLOAD SWAP2 SWAP3 SWAP2 DUP5 SWAP1 DUP2 LT PUSH2 0x2553 JUMPI PUSH2 0x2553 PUSH2 0x3BF7 JUMP JUMPDEST PUSH1 0x0 SWAP2 DUP3 MSTORE PUSH1 0x20 DUP1 DUP4 KECCAK256 SWAP1 SWAP2 ADD SLOAD PUSH1 0x1 PUSH1 0x1 PUSH1 0xA0 SHL SUB AND DUP4 MSTORE DUP3 ADD SWAP3 SWAP1 SWAP3 MSTORE PUSH1 0x40 ADD SWAP1 KECCAK256 SLOAD DUP6 MLOAD PUSH1 0xFF SWAP2 DUP3 AND SWAP2 DUP8 SWAP2 SWAP1 DUP6 AND SWAP1 DUP2 LT PUSH2 0x2594 JUMPI PUSH2 0x2594 PUSH2 0x3BF7 JUMP JUMPDEST PUSH1 0xFF SWAP3 DUP4 AND PUSH1 0x20 SWAP2 DUP3 MUL SWAP3 SWAP1 SWAP3 ADD DUP2 ADD SWAP2 SWAP1 SWAP2 MSTORE PUSH1 0x1 SLOAD SWAP1 SWAP2 AND PUSH1 0x0 SWAP1 DUP2 MSTORE PUSH1 0x18 SWAP1 SWAP2 MSTORE PUSH1 0x40 DUP2 KECCAK256 PUSH1 0xD DUP1 SLOAD SWAP2 SWAP3 SWAP2 DUP5 SWAP1 DUP2 LT PUSH2 0x25D3 JUMPI PUSH2 0x25D3 PUSH2 0x3BF7 JUMP JUMPDEST PUSH1 0x0 SWAP2 DUP3 MSTORE PUSH1 0x20 DUP1 DUP4 KECCAK256 SWAP1 SWAP2 ADD SLOAD PUSH1 0x1 PUSH1 0x1 PUSH1 0xA0 SHL SUB AND DUP4 MSTORE DUP3 ADD SWAP3 SWAP1 SWAP3 MSTORE PUSH1 0x40 ADD SWAP1 KECCAK256 SLOAD DUP5 MLOAD DUP6 SWAP1 PUSH1 0xFF DUP6 AND SWAP1 DUP2 LT PUSH2 0x260F JUMPI PUSH2 0x260F PUSH2 0x3BF7 JUMP JUMPDEST PUSH1 0x20 SWAP1 DUP2 MUL SWAP2 SWAP1 SWAP2 ADD ADD MSTORE DUP2 PUSH2 0x2624 DUP2 PUSH2 0x3E26 JUMP JUMPDEST SWAP3 POP POP JUMPDEST DUP1 PUSH2 0x2632 DUP2 PUSH2 0x3C0D JUMP JUMPDEST SWAP2 POP POP PUSH2 0x24D8 JUMP JUMPDEST POP POP POP SWAP1 SWAP2 JUMP JUMPDEST PUSH1 0x60 DUP1 PUSH1 0x0 DUP1 DUP12 PUSH1 0x34 DUP13 DIV PUSH1 0x40 MLOAD SWAP6 POP PUSH1 0x20 DUP2 MUL PUSH1 0x20 ADD DUP7 ADD PUSH1 0x40 MSTORE DUP1 DUP7 MSTORE PUSH1 0x0 JUMPDEST DUP2 DUP2 LT ISZERO PUSH2 0x268B JUMPI DUP3 CALLDATALOAD PUSH1 0x60 SHR PUSH1 0x20 DUP3 DUP2 MUL DUP10 ADD ADD DUP2 SWAP1 MSTORE SWAP5 POP PUSH1 0x14 SWAP1 SWAP3 ADD SWAP2 PUSH1 0x1 ADD PUSH2 0x2663 JUMP JUMPDEST POP PUSH1 0x40 MLOAD SWAP5 POP PUSH1 0x20 DUP2 MUL PUSH1 0x20 ADD DUP6 ADD PUSH1 0x40 MSTORE DUP1 DUP6 MSTORE PUSH1 0x0 SWAP4 POP JUMPDEST DUP1 DUP5 LT ISZERO PUSH2 0x26CD JUMPI DUP2 CALLDATALOAD SWAP3 POP DUP3 PUSH1 0x20 DUP6 MUL PUSH1 0x20 DUP8 ADD ADD MSTORE PUSH1 0x20 DUP3 ADD SWAP2 POP PUSH1 0x1 DUP5 ADD SWAP4 POP PUSH2 0x26A5 JUMP JUMPDEST POP POP DUP4 MLOAD DUP10 EQ SWAP2 POP PUSH2 0x2723 SWAP1 POP JUMPI PUSH1 0x40 MLOAD PUSH3 0x461BCD PUSH1 0xE5 SHL DUP2 MSTORE PUSH1 0x20 PUSH1 0x4 DUP3 ADD DUP2 SWAP1 MSTORE PUSH1 0x24 DUP3 ADD MSTORE PUSH32 0x494E56414C49445F4C454E475448204F46204143435552414359204152524159 PUSH1 0x44 DUP3 ADD MSTORE PUSH1 0x64 ADD PUSH2 0xAB9 JUMP JUMPDEST DUP2 MLOAD DUP6 EQ PUSH2 0x2773 JUMPI PUSH1 0x40 MLOAD PUSH3 0x461BCD PUSH1 0xE5 SHL DUP2 MSTORE PUSH1 0x20 PUSH1 0x4 DUP3 ADD MSTORE PUSH1 0x1C PUSH1 0x24 DUP3 ADD MSTORE PUSH32 0x494E56414C49445F4C454E475448204F46204C4F535320415252415900000000 PUSH1 0x44 DUP3 ADD MSTORE PUSH1 0x64 ADD PUSH2 0xAB9 JUMP JUMPDEST PUSH1 0x1 SLOAD PUSH1 0xFF AND PUSH1 0x0 SWAP1 DUP2 MSTORE PUSH1 0x19 PUSH1 0x20 SWAP1 DUP2 MSTORE PUSH1 0x40 DUP1 DUP4 KECCAK256 CALLER DUP5 MSTORE DUP3 MSTORE SWAP2 DUP3 SWAP1 KECCAK256 DUP3 MLOAD PUSH1 0x60 DUP2 ADD DUP5 MSTORE DUP6 DUP2 MSTORE DUP4 MLOAD DUP12 DUP5 MUL DUP2 DUP2 ADD DUP6 ADD SWAP1 SWAP6 MSTORE DUP12 DUP2 MSTORE SWAP2 SWAP4 SWAP1 SWAP3 DUP4 DUP2 ADD SWAP3 SWAP2 DUP14 SWAP2 DUP14 SWAP2 DUP3 SWAP2 DUP6 ADD SWAP1 DUP5 SWAP1 DUP1 DUP3 DUP5 CALLDATACOPY PUSH1 0x0 SWAP3 ADD SWAP2 SWAP1 SWAP2 MSTORE POP POP POP SWAP1 DUP3 MSTORE POP PUSH1 0x40 DUP1 MLOAD PUSH1 0x20 DUP11 DUP2 MUL DUP3 DUP2 ADD DUP3 ADD SWAP1 SWAP4 MSTORE DUP11 DUP3 MSTORE SWAP3 DUP4 ADD SWAP3 SWAP1 SWAP2 DUP12 SWAP2 DUP12 SWAP2 DUP3 SWAP2 DUP6 ADD SWAP1 DUP5 SWAP1 DUP1 DUP3 DUP5 CALLDATACOPY PUSH1 0x0 SWAP3 ADD DUP3 SWAP1 MSTORE POP SWAP4 SWAP1 SWAP5 MSTORE POP POP DUP4 SLOAD PUSH1 0x1 DUP2 ADD DUP6 SSTORE SWAP4 DUP2 MSTORE PUSH1 0x20 SWAP1 DUP2 SWAP1 KECCAK256 DUP4 MLOAD DUP1 MLOAD SWAP5 SWAP6 PUSH1 0x3 MUL SWAP1 SWAP2 ADD SWAP4 PUSH2 0x283B SWAP4 POP DUP5 SWAP3 SWAP2 SWAP1 SWAP2 ADD SWAP1 PUSH2 0x3642 JUMP JUMPDEST POP PUSH1 0x20 DUP3 DUP2 ADD MLOAD DUP1 MLOAD PUSH2 0x2854 SWAP3 PUSH1 0x1 DUP6 ADD SWAP3 ADD SWAP1 PUSH2 0x36A3 JUMP JUMPDEST POP PUSH1 0x40 DUP3 ADD MLOAD DUP1 MLOAD PUSH2 0x2870 SWAP2 PUSH1 0x2 DUP5 ADD SWAP2 PUSH1 0x20 SWAP1 SWAP2 ADD SWAP1 PUSH2 0x3744 JUMP JUMPDEST POP POP POP PUSH1 0x64 PUSH1 0xFF DUP6 AND GT ISZERO PUSH2 0x28D7 JUMPI PUSH1 0x40 MLOAD PUSH3 0x461BCD PUSH1 0xE5 SHL DUP2 MSTORE PUSH1 0x20 PUSH1 0x4 DUP3 ADD MSTORE PUSH1 0x27 PUSH1 0x24 DUP3 ADD MSTORE PUSH32 0x50524556494F5553204143435552414359204E4F54204245545745454E203020 PUSH1 0x44 DUP3 ADD MSTORE PUSH7 0x414E442031303 PUSH1 0xCC SHL PUSH1 0x64 DUP3 ADD MSTORE PUSH1 0x84 ADD PUSH2 0xAB9 JUMP JUMPDEST PUSH1 0x1 DUP1 SLOAD PUSH1 0xFF SWAP1 DUP2 AND PUSH1 0x0 SWAP1 DUP2 MSTORE PUSH1 0x17 PUSH1 0x20 SWAP1 DUP2 MSTORE PUSH1 0x40 DUP1 DUP4 KECCAK256 CALLER DUP1 DUP6 MSTORE SWAP1 DUP4 MSTORE DUP2 DUP5 KECCAK256 DUP1 SLOAD PUSH1 0xFF NOT AND DUP12 DUP8 AND OR SWAP1 SSTORE SWAP5 SLOAD SWAP1 SWAP4 AND DUP3 MSTORE PUSH1 0x18 DUP2 MSTORE DUP3 DUP3 KECCAK256 SWAP4 DUP3 MSTORE SWAP3 SWAP1 SWAP3 MSTORE DUP2 KECCAK256 DUP5 SWAP1 SSTORE JUMPDEST DUP3 MLOAD DUP2 LT ISZERO PUSH2 0x2983 JUMPI PUSH1 0xF SLOAD PUSH1 0xFF AND PUSH2 0x2971 JUMPI PUSH2 0x2971 DUP4 DUP3 DUP2 MLOAD DUP2 LT PUSH2 0x294A JUMPI PUSH2 0x294A PUSH2 0x3BF7 JUMP JUMPDEST PUSH1 0x20 MUL PUSH1 0x20 ADD ADD MLOAD DUP4 DUP4 DUP2 MLOAD DUP2 LT PUSH2 0x2964 JUMPI PUSH2 0x2964 PUSH2 0x3BF7 JUMP JUMPDEST PUSH1 0x20 MUL PUSH1 0x20 ADD ADD MLOAD PUSH2 0x1E5E JUMP JUMPDEST DUP1 PUSH2 0x297B DUP2 PUSH2 0x3C0D JUMP JUMPDEST SWAP2 POP POP PUSH2 0x2922 JUMP JUMPDEST POP POP POP POP POP POP POP POP POP POP POP JUMP JUMPDEST PUSH1 0x60 DUP1 PUSH1 0x0 DUP1 DUP6 PUSH1 0x34 DUP7 DIV PUSH1 0x40 MLOAD SWAP6 POP PUSH1 0x20 DUP2 MUL PUSH1 0x20 ADD DUP7 ADD PUSH1 0x40 MSTORE DUP1 DUP7 MSTORE PUSH1 0x0 JUMPDEST DUP2 DUP2 LT ISZERO PUSH2 0x29DA JUMPI DUP3 CALLDATALOAD PUSH1 0x60 SHR PUSH1 0x20 DUP3 DUP2 MUL DUP10 ADD ADD DUP2 SWAP1 MSTORE SWAP5 POP PUSH1 0x14 SWAP1 SWAP3 ADD SWAP2 PUSH1 0x1 ADD PUSH2 0x29B2 JUMP JUMPDEST POP PUSH1 0x40 MLOAD SWAP5 POP PUSH1 0x20 DUP2 MUL PUSH1 0x20 ADD DUP6 ADD PUSH1 0x40 MSTORE DUP1 DUP6 MSTORE PUSH1 0x0 SWAP4 POP JUMPDEST DUP1 DUP5 LT ISZERO PUSH2 0x2A1C JUMPI DUP2 CALLDATALOAD SWAP3 POP DUP3 PUSH1 0x20 DUP6 MUL PUSH1 0x20 DUP8 ADD ADD MSTORE PUSH1 0x20 DUP3 ADD SWAP2 POP PUSH1 0x1 DUP5 ADD SWAP4 POP PUSH2 0x29F4 JUMP JUMPDEST POP POP POP POP PUSH1 0x0 JUMPDEST DUP3 MLOAD DUP2 LT ISZERO PUSH2 0x2A5D JUMPI PUSH1 0xF SLOAD PUSH1 0xFF AND PUSH2 0x2A4B JUMPI PUSH2 0x2A4B DUP4 DUP3 DUP2 MLOAD DUP2 LT PUSH2 0x294A JUMPI PUSH2 0x294A PUSH2 0x3BF7 JUMP JUMPDEST DUP1 PUSH2 0x2A55 DUP2 PUSH2 0x3C0D JUMP JUMPDEST SWAP2 POP POP PUSH2 0x2A23 JUMP JUMPDEST POP POP POP POP POP JUMP JUMPDEST PUSH1 0x0 DUP1 DUP1 JUMPDEST PUSH1 0xD SLOAD DUP2 LT ISZERO PUSH2 0x2ADA JUMPI PUSH1 0x0 PUSH1 0x10 PUSH1 0x0 PUSH1 0xD DUP5 DUP2 SLOAD DUP2 LT PUSH2 0x2A8C JUMPI PUSH2 0x2A8C PUSH2 0x3BF7 JUMP JUMPDEST PUSH1 0x0 SWAP2 DUP3 MSTORE PUSH1 0x20 DUP1 DUP4 KECCAK256 SWAP1 SWAP2 ADD SLOAD PUSH1 0x1 PUSH1 0x1 PUSH1 0xA0 SHL SUB AND DUP4 MSTORE DUP3 ADD SWAP3 SWAP1 SWAP3 MSTORE PUSH1 0x40 ADD SWAP1 KECCAK256 PUSH1 0x2 ADD SLOAD SLT ISZERO PUSH2 0x2AC8 JUMPI DUP2 PUSH2 0x2AC4 DUP2 PUSH2 0x3C0D JUMP JUMPDEST SWAP3 POP POP JUMPDEST DUP1 PUSH2 0x2AD2 DUP2 PUSH2 0x3C0D JUMP JUMPDEST SWAP2 POP POP PUSH2 0x2A69 JUMP JUMPDEST POP PUSH1 0x1 SLOAD PUSH1 0xFF AND PUSH1 0x0 SWAP1 DUP2 MSTORE PUSH1 0x16 PUSH1 0x20 MSTORE PUSH1 0x40 SWAP1 KECCAK256 SLOAD DUP2 GT ISZERO PUSH2 0x2AFF JUMPI PUSH1 0x0 SWAP2 POP POP SWAP1 JUMP JUMPDEST PUSH1 0x1 SWAP2 POP POP SWAP1 JUMP JUMPDEST PUSH1 0x0 PUSH1 0x2 SLOAD PUSH1 0x0 EQ ISZERO PUSH2 0x2B1A JUMPI POP PUSH1 0x0 SWAP1 JUMP JUMPDEST PUSH1 0xD SLOAD PUSH1 0x1 SWAP1 PUSH2 0x2B2A SWAP1 DUP1 PUSH2 0x3CE9 JUMP JUMPDEST PUSH2 0x2B34 SWAP2 SWAP1 PUSH2 0x3C28 JUMP JUMPDEST PUSH1 0x1 SLOAD PUSH2 0x100 SWAP1 DIV PUSH1 0xFF AND GT SWAP2 SWAP1 POP JUMP JUMPDEST PUSH1 0xD SLOAD DUP2 LT ISZERO PUSH2 0x2BFD JUMPI PUSH1 0x0 PUSH1 0x10 PUSH1 0x0 PUSH1 0xD DUP5 DUP2 SLOAD DUP2 LT PUSH2 0x2B68 JUMPI PUSH2 0x2B68 PUSH2 0x3BF7 JUMP JUMPDEST PUSH1 0x0 SWAP2 DUP3 MSTORE PUSH1 0x20 DUP1 DUP4 KECCAK256 SWAP1 SWAP2 ADD SLOAD PUSH1 0x1 PUSH1 0x1 PUSH1 0xA0 SHL SUB AND DUP4 MSTORE DUP3 ADD SWAP3 SWAP1 SWAP3 MSTORE PUSH1 0x40 ADD SWAP1 KECCAK256 PUSH1 0x3 DUP2 ADD SLOAD SWAP1 SWAP2 POP PUSH1 0xFF PUSH1 0x1 PUSH1 0xB8 SHL SWAP1 SWAP2 DIV AND DUP1 ISZERO PUSH2 0x2BB7 JUMPI POP PUSH1 0x3 DUP2 ADD SLOAD PUSH1 0x1 PUSH1 0xC8 SHL SWAP1 DIV PUSH1 0xFF AND ISZERO JUMPDEST ISZERO PUSH2 0x2BEA JUMPI PUSH1 0x1 PUSH1 0x2 SLOAD PUSH2 0x2BCB SWAP2 SWAP1 PUSH2 0x3C28 JUMP JUMPDEST PUSH1 0x3 DUP3 ADD SLOAD PUSH1 0x1 PUSH1 0xA8 SHL SWAP1 DIV PUSH1 0xFF AND LT ISZERO PUSH2 0x2BEA JUMPI PUSH1 0x0 SWAP4 POP POP POP POP SWAP1 JUMP JUMPDEST POP DUP1 PUSH2 0x2BF5 DUP2 PUSH2 0x3C0D JUMP JUMPDEST SWAP2 POP POP PUSH2 0x2B45 JUMP JUMPDEST POP PUSH1 0x1 SWAP2 POP POP SWAP1 JUMP JUMPDEST PUSH2 0x2C12 PUSH1 0xD PUSH1 0x0 PUSH2 0x3624 JUMP JUMPDEST PUSH2 0x2C22 PUSH1 0xA0 DUP3 ADD PUSH1 0x80 DUP4 ADD PUSH2 0x3883 JUMP JUMPDEST PUSH1 0x1 DUP1 SLOAD PUSH1 0xFF NOT AND PUSH1 0xFF SWAP3 SWAP1 SWAP3 AND SWAP2 SWAP1 SWAP2 OR SWAP1 SSTORE PUSH1 0x0 PUSH2 0x2C42 DUP3 DUP1 PUSH2 0x3E46 JUMP JUMPDEST SWAP1 POP SWAP1 POP PUSH1 0x0 JUMPDEST DUP2 DUP2 LT ISZERO PUSH2 0x2DC5 JUMPI PUSH1 0x0 PUSH2 0x2C5D DUP5 DUP1 PUSH2 0x3E46 JUMP JUMPDEST DUP4 DUP2 DUP2 LT PUSH2 0x2C6D JUMPI PUSH2 0x2C6D PUSH2 0x3BF7 JUMP JUMPDEST SWAP1 POP PUSH1 0x20 MUL ADD PUSH1 0x20 DUP2 ADD SWAP1 PUSH2 0x2C82 SWAP2 SWAP1 PUSH2 0x3837 JUMP JUMPDEST SWAP1 POP PUSH2 0x2DB2 DUP2 PUSH2 0x2C95 PUSH1 0x20 DUP8 ADD DUP8 PUSH2 0x3E46 JUMP JUMPDEST DUP6 DUP2 DUP2 LT PUSH2 0x2CA5 JUMPI PUSH2 0x2CA5 PUSH2 0x3BF7 JUMP JUMPDEST SWAP1 POP PUSH1 0x20 MUL ADD CALLDATALOAD DUP7 DUP1 PUSH1 0x40 ADD SWAP1 PUSH2 0x2CBC SWAP2 SWAP1 PUSH2 0x3E46 JUMP JUMPDEST DUP7 DUP2 DUP2 LT PUSH2 0x2CCC JUMPI PUSH2 0x2CCC PUSH2 0x3BF7 JUMP JUMPDEST SWAP1 POP PUSH1 0x20 MUL ADD CALLDATALOAD DUP8 DUP1 PUSH1 0x60 ADD SWAP1 PUSH2 0x2CE3 SWAP2 SWAP1 PUSH2 0x3E46 JUMP JUMPDEST DUP8 DUP2 DUP2 LT PUSH2 0x2CF3 JUMPI PUSH2 0x2CF3 PUSH2 0x3BF7 JUMP JUMPDEST SWAP1 POP PUSH1 0x20 MUL ADD PUSH1 0x20 DUP2 ADD SWAP1 PUSH2 0x2D08 SWAP2 SWAP1 PUSH2 0x3883 JUMP JUMPDEST PUSH1 0xD DUP1 SLOAD PUSH1 0x1 DUP2 DUP2 ADD SWAP1 SWAP3 SSTORE PUSH32 0xD7B6990105719101DABEB77144F2A3385C8033ACD3AF97E9423A695E81AD1EB5 ADD DUP1 SLOAD PUSH1 0x1 PUSH1 0x1 PUSH1 0xA0 SHL SUB SWAP1 SWAP7 AND PUSH1 0x1 PUSH1 0x1 PUSH1 0xA0 SHL SUB NOT SWAP1 SWAP7 AND DUP7 OR SWAP1 SSTORE PUSH1 0x0 DUP6 DUP2 MSTORE PUSH1 0x10 PUSH1 0x20 MSTORE PUSH1 0x40 DUP2 KECCAK256 PUSH1 0x3 DUP2 ADD DUP1 SLOAD SWAP4 DUP3 ADD SWAP7 SWAP1 SWAP7 SSTORE PUSH1 0x2 DUP2 ADD SWAP5 SWAP1 SWAP5 SSTORE SWAP1 SWAP3 SSTORE PUSH1 0x1 PUSH1 0x1 PUSH1 0xA8 SHL SUB NOT PUSH1 0xFF SWAP2 SWAP1 SWAP2 AND PUSH1 0x1 PUSH1 0xA8 SHL MUL PUSH4 0xFFFFFFFF PUSH1 0xA8 SHL NOT SWAP1 SWAP3 AND SWAP2 SWAP1 SWAP2 OR PUSH1 0x1 PUSH1 0xB8 SHL OR AND SWAP1 SWAP2 OR PUSH1 0x1 PUSH1 0xA0 SHL OR SWAP1 SSTORE JUMP JUMPDEST POP DUP1 PUSH2 0x2DBD DUP2 PUSH2 0x3C0D JUMP JUMPDEST SWAP2 POP POP PUSH2 0x2C49 JUMP JUMPDEST POP PUSH1 0x1 DUP1 SLOAD PUSH2 0xFF00 NOT AND PUSH2 0x100 PUSH1 0xFF DUP5 AND MUL OR SWAP1 SSTORE PUSH1 0x2 SSTORE POP JUMP JUMPDEST PUSH1 0xE SLOAD PUSH1 0x0 SWAP1 ISZERO PUSH2 0x2DF3 JUMPI POP PUSH1 0x1 SWAP2 SWAP1 POP JUMP JUMPDEST PUSH1 0x0 JUMPDEST PUSH1 0xE SLOAD DUP2 LT ISZERO PUSH2 0x2E53 JUMPI DUP3 PUSH1 0x1 PUSH1 0x1 PUSH1 0xA0 SHL SUB AND PUSH1 0xE DUP3 DUP2 SLOAD DUP2 LT PUSH2 0x2E1D JUMPI PUSH2 0x2E1D PUSH2 0x3BF7 JUMP JUMPDEST PUSH1 0x0 SWAP2 DUP3 MSTORE PUSH1 0x20 SWAP1 SWAP2 KECCAK256 ADD SLOAD PUSH1 0x1 PUSH1 0x1 PUSH1 0xA0 SHL SUB AND EQ ISZERO PUSH2 0x2E41 JUMPI POP PUSH1 0x1 SWAP3 SWAP2 POP POP JUMP JUMPDEST DUP1 PUSH2 0x2E4B DUP2 PUSH2 0x3C0D JUMP JUMPDEST SWAP2 POP POP PUSH2 0x2DF6 JUMP JUMPDEST POP PUSH1 0x0 SWAP3 SWAP2 POP POP JUMP JUMPDEST CALLER PUSH1 0x0 SWAP1 DUP2 MSTORE PUSH1 0x10 PUSH1 0x20 MSTORE PUSH1 0x40 SWAP1 KECCAK256 PUSH1 0x3 ADD SLOAD PUSH1 0x1 PUSH1 0xB8 SHL SWAP1 DIV PUSH1 0xFF AND PUSH2 0x2EBB JUMPI PUSH1 0x40 MLOAD PUSH3 0x461BCD PUSH1 0xE5 SHL DUP2 MSTORE PUSH1 0x20 PUSH1 0x4 DUP3 ADD MSTORE PUSH1 0x13 PUSH1 0x24 DUP3 ADD MSTORE PUSH19 0x155CD95C881B9BDD081C9959DA5CDD195C9959 PUSH1 0x6A SHL PUSH1 0x44 DUP3 ADD MSTORE PUSH1 0x64 ADD PUSH2 0xAB9 JUMP JUMPDEST PUSH1 0x1 SLOAD PUSH1 0xFF AND PUSH1 0x0 SWAP1 DUP2 MSTORE PUSH1 0x15 PUSH1 0x20 SWAP1 DUP2 MSTORE PUSH1 0x40 DUP1 DUP4 KECCAK256 CALLER DUP5 MSTORE SWAP1 SWAP2 MSTORE SWAP1 KECCAK256 SLOAD ISZERO PUSH2 0x2F28 JUMPI PUSH1 0x40 MLOAD PUSH3 0x461BCD PUSH1 0xE5 SHL DUP2 MSTORE PUSH1 0x20 PUSH1 0x4 DUP3 ADD MSTORE PUSH1 0x17 PUSH1 0x24 DUP3 ADD MSTORE PUSH32 0x53636F726520616C7265616479207375626D6974746564000000000000000000 PUSH1 0x44 DUP3 ADD MSTORE PUSH1 0x64 ADD PUSH2 0xAB9 JUMP JUMPDEST PUSH1 0x1 DUP1 SLOAD PUSH1 0xFF SWAP1 DUP2 AND PUSH1 0x0 SWAP1 DUP2 MSTORE PUSH1 0x15 PUSH1 0x20 SWAP1 DUP2 MSTORE PUSH1 0x40 DUP1 DUP4 KECCAK256 CALLER DUP5 MSTORE DUP3 MSTORE DUP1 DUP4 KECCAK256 DUP7 SWAP1 SSTORE DUP5 SLOAD SWAP1 SWAP4 AND DUP3 MSTORE PUSH1 0x16 SWAP1 MSTORE SWAP1 DUP2 KECCAK256 DUP1 SLOAD SWAP1 SWAP2 SWAP1 PUSH2 0x2F6B SWAP1 DUP5 SWAP1 PUSH2 0x3BDF JUMP JUMPDEST SWAP1 SWAP2 SSTORE POP POP PUSH1 0x40 MLOAD DUP2 DUP2 MSTORE CALLER SWAP1 PUSH32 0x20E6C7C82A3C0A8203EFCA055FC9A664CA649345957DDC3BA34B2912E9ED8373 SWAP1 PUSH1 0x20 ADD PUSH1 0x40 MLOAD DUP1 SWAP2 SUB SWAP1 LOG2 POP JUMP JUMPDEST CALLER PUSH1 0x0 SWAP1 DUP2 MSTORE PUSH1 0x10 PUSH1 0x20 MSTORE PUSH1 0x40 SWAP1 KECCAK256 PUSH1 0x3 ADD SLOAD PUSH1 0x1 PUSH1 0xB8 SHL SWAP1 DIV PUSH1 0xFF AND PUSH2 0x2FE1 JUMPI PUSH1 0x40 MLOAD PUSH3 0x461BCD PUSH1 0xE5 SHL DUP2 MSTORE PUSH1 0x4 ADD PUSH2 0xAB9 SWAP1 PUSH2 0x3BAC JUMP JUMPDEST CALLER PUSH1 0x0 SWAP1 DUP2 MSTORE PUSH1 0x14 PUSH1 0x20 SWAP1 DUP2 MSTORE PUSH1 0x40 DUP1 DUP4 KECCAK256 PUSH1 0x1 SLOAD PUSH1 0xFF AND DUP5 MSTORE SWAP1 SWAP2 MSTORE SWAP1 KECCAK256 SLOAD ISZERO PUSH2 0x3034 JUMPI PUSH1 0x40 MLOAD PUSH3 0x461BCD PUSH1 0xE5 SHL DUP2 MSTORE PUSH1 0x20 PUSH1 0x4 DUP3 ADD MSTORE PUSH1 0x3 PUSH1 0x24 DUP3 ADD MSTORE PUSH3 0x53415 PUSH1 0xEC SHL PUSH1 0x44 DUP3 ADD MSTORE PUSH1 0x64 ADD PUSH2 0xAB9 JUMP JUMPDEST CALLER PUSH1 0x0 SWAP1 DUP2 MSTORE PUSH1 0x13 PUSH1 0x20 SWAP1 DUP2 MSTORE PUSH1 0x40 DUP1 DUP4 KECCAK256 PUSH1 0x1 SLOAD PUSH1 0xFF AND DUP5 MSTORE SWAP1 SWAP2 MSTORE SWAP1 KECCAK256 SSTORE JUMP JUMPDEST PUSH1 0x60 DUP1 PUSH1 0x60 PUSH1 0x0 DUP1 JUMPDEST PUSH1 0xD SLOAD DUP2 LT ISZERO PUSH2 0x31BC JUMPI PUSH1 0x0 PUSH1 0xD DUP3 DUP2 SLOAD DUP2 LT PUSH2 0x307E JUMPI PUSH2 0x307E PUSH2 0x3BF7 JUMP JUMPDEST PUSH1 0x0 SWAP2 DUP3 MSTORE PUSH1 0x20 DUP1 DUP4 KECCAK256 SWAP1 SWAP2 ADD SLOAD PUSH1 0x1 SLOAD PUSH1 0xFF AND DUP4 MSTORE PUSH1 0x19 DUP3 MSTORE PUSH1 0x40 DUP1 DUP5 KECCAK256 PUSH1 0x1 PUSH1 0x1 PUSH1 0xA0 SHL SUB SWAP1 SWAP3 AND DUP1 DUP6 MSTORE SWAP2 SWAP1 SWAP3 MSTORE SWAP1 DUP3 KECCAK256 SLOAD SWAP1 SWAP3 POP SWAP1 JUMPDEST DUP2 DUP2 LT ISZERO PUSH2 0x31A6 JUMPI PUSH1 0x1 SLOAD PUSH1 0xFF AND PUSH1 0x0 SWAP1 DUP2 MSTORE PUSH1 0x19 PUSH1 0x20 SWAP1 DUP2 MSTORE PUSH1 0x40 DUP1 DUP4 KECCAK256 PUSH1 0x1 PUSH1 0x1 PUSH1 0xA0 SHL SUB DUP8 AND DUP5 MSTORE SWAP1 SWAP2 MSTORE DUP2 KECCAK256 DUP1 SLOAD DUP4 SWAP1 DUP2 LT PUSH2 0x30FA JUMPI PUSH2 0x30FA PUSH2 0x3BF7 JUMP JUMPDEST SWAP1 PUSH1 0x0 MSTORE PUSH1 0x20 PUSH1 0x0 KECCAK256 SWAP1 PUSH1 0x3 MUL ADD SWAP1 POP PUSH1 0x0 JUMPDEST DUP2 SLOAD DUP2 LT ISZERO PUSH2 0x3191 JUMPI DUP11 PUSH1 0x1 PUSH1 0x1 PUSH1 0xA0 SHL SUB AND DUP3 PUSH1 0x0 ADD DUP3 DUP2 SLOAD DUP2 LT PUSH2 0x3135 JUMPI PUSH2 0x3135 PUSH2 0x3BF7 JUMP JUMPDEST PUSH1 0x0 SWAP2 DUP3 MSTORE PUSH1 0x20 SWAP1 SWAP2 KECCAK256 ADD SLOAD PUSH1 0x1 PUSH1 0x1 PUSH1 0xA0 SHL SUB AND EQ ISZERO PUSH2 0x317F JUMPI PUSH1 0x1 PUSH1 0x1 PUSH1 0xA0 SHL SUB DUP6 AND PUSH1 0x0 SWAP1 DUP2 MSTORE PUSH1 0x10 PUSH1 0x20 MSTORE PUSH1 0x40 DUP2 KECCAK256 PUSH1 0x2 ADD SLOAD SLT PUSH2 0x317F JUMPI DUP7 PUSH2 0x317B DUP2 PUSH2 0x3C0D JUMP JUMPDEST SWAP8 POP POP JUMPDEST DUP1 PUSH2 0x3189 DUP2 PUSH2 0x3C0D JUMP JUMPDEST SWAP2 POP POP PUSH2 0x310D JUMP JUMPDEST POP POP DUP1 DUP1 PUSH2 0x319E SWAP1 PUSH2 0x3C0D JUMP JUMPDEST SWAP2 POP POP PUSH2 0x30B8 JUMP JUMPDEST POP POP POP DUP1 DUP1 PUSH2 0x31B4 SWAP1 PUSH2 0x3C0D JUMP JUMPDEST SWAP2 POP POP PUSH2 0x305F JUMP JUMPDEST POP DUP1 PUSH8 0xFFFFFFFFFFFFFFFF DUP2 GT ISZERO PUSH2 0x31D6 JUMPI PUSH2 0x31D6 PUSH2 0x3E10 JUMP JUMPDEST PUSH1 0x40 MLOAD SWAP1 DUP1 DUP3 MSTORE DUP1 PUSH1 0x20 MUL PUSH1 0x20 ADD DUP3 ADD PUSH1 0x40 MSTORE DUP1 ISZERO PUSH2 0x31FF JUMPI DUP2 PUSH1 0x20 ADD PUSH1 0x20 DUP3 MUL DUP1 CALLDATASIZE DUP4 CALLDATACOPY ADD SWAP1 POP JUMPDEST POP SWAP4 POP DUP1 PUSH8 0xFFFFFFFFFFFFFFFF DUP2 GT ISZERO PUSH2 0x321B JUMPI PUSH2 0x321B PUSH2 0x3E10 JUMP JUMPDEST PUSH1 0x40 MLOAD SWAP1 DUP1 DUP3 MSTORE DUP1 PUSH1 0x20 MUL PUSH1 0x20 ADD DUP3 ADD PUSH1 0x40 MSTORE DUP1 ISZERO PUSH2 0x3244 JUMPI DUP2 PUSH1 0x20 ADD PUSH1 0x20 DUP3 MUL DUP1 CALLDATASIZE DUP4 CALLDATACOPY ADD SWAP1 POP JUMPDEST POP SWAP3 POP DUP1 PUSH8 0xFFFFFFFFFFFFFFFF DUP2 GT ISZERO PUSH2 0x3260 JUMPI PUSH2 0x3260 PUSH2 0x3E10 JUMP JUMPDEST PUSH1 0x40 MLOAD SWAP1 DUP1 DUP3 MSTORE DUP1 PUSH1 0x20 MUL PUSH1 0x20 ADD DUP3 ADD PUSH1 0x40 MSTORE DUP1 ISZERO PUSH2 0x3289 JUMPI DUP2 PUSH1 0x20 ADD PUSH1 0x20 DUP3 MUL DUP1 CALLDATASIZE DUP4 CALLDATACOPY ADD SWAP1 POP JUMPDEST POP SWAP2 POP PUSH1 0x0 DUP1 JUMPDEST PUSH1 0xD SLOAD DUP2 LT ISZERO PUSH2 0x34D0 JUMPI PUSH1 0x0 PUSH1 0x10 PUSH1 0x0 PUSH1 0xD DUP5 DUP2 SLOAD DUP2 LT PUSH2 0x32B3 JUMPI PUSH2 0x32B3 PUSH2 0x3BF7 JUMP JUMPDEST PUSH1 0x0 SWAP2 DUP3 MSTORE PUSH1 0x20 DUP1 DUP4 KECCAK256 SWAP1 SWAP2 ADD SLOAD PUSH1 0x1 PUSH1 0x1 PUSH1 0xA0 SHL SUB SWAP1 DUP2 AND DUP5 MSTORE DUP4 DUP3 ADD SWAP5 SWAP1 SWAP5 MSTORE PUSH1 0x40 SWAP3 DUP4 ADD DUP3 KECCAK256 PUSH1 0x1 SLOAD PUSH1 0xFF AND DUP4 MSTORE PUSH1 0x19 DUP3 MSTORE DUP4 DUP4 KECCAK256 PUSH1 0x3 DUP3 ADD SLOAD SWAP1 SWAP6 AND DUP4 MSTORE SWAP4 SWAP1 MSTORE SWAP1 DUP2 KECCAK256 SLOAD SWAP2 SWAP3 POP JUMPDEST DUP2 DUP2 LT ISZERO PUSH2 0x34BA JUMPI PUSH1 0x1 SLOAD PUSH1 0xFF AND PUSH1 0x0 SWAP1 DUP2 MSTORE PUSH1 0x19 PUSH1 0x20 SWAP1 DUP2 MSTORE PUSH1 0x40 DUP1 DUP4 KECCAK256 PUSH1 0x3 DUP8 ADD SLOAD PUSH1 0x1 PUSH1 0x1 PUSH1 0xA0 SHL SUB AND DUP5 MSTORE SWAP1 SWAP2 MSTORE DUP2 KECCAK256 DUP1 SLOAD DUP4 SWAP1 DUP2 LT PUSH2 0x3346 JUMPI PUSH2 0x3346 PUSH2 0x3BF7 JUMP JUMPDEST SWAP1 PUSH1 0x0 MSTORE PUSH1 0x20 PUSH1 0x0 KECCAK256 SWAP1 PUSH1 0x3 MUL ADD SWAP1 POP PUSH1 0x0 JUMPDEST DUP2 SLOAD DUP2 LT ISZERO PUSH2 0x34A5 JUMPI DUP12 PUSH1 0x1 PUSH1 0x1 PUSH1 0xA0 SHL SUB AND DUP3 PUSH1 0x0 ADD DUP3 DUP2 SLOAD DUP2 LT PUSH2 0x3381 JUMPI PUSH2 0x3381 PUSH2 0x3BF7 JUMP JUMPDEST PUSH1 0x0 SWAP2 DUP3 MSTORE PUSH1 0x20 SWAP1 SWAP2 KECCAK256 ADD SLOAD PUSH1 0x1 PUSH1 0x1 PUSH1 0xA0 SHL SUB AND EQ ISZERO PUSH2 0x3493 JUMPI PUSH1 0x0 DUP6 PUSH1 0x2 ADD SLOAD SLT PUSH2 0x3493 JUMPI PUSH1 0x3 DUP6 ADD SLOAD DUP12 MLOAD PUSH1 0x1 PUSH1 0x1 PUSH1 0xA0 SHL SUB SWAP1 SWAP2 AND SWAP1 DUP13 SWAP1 DUP10 SWAP1 DUP2 LT PUSH2 0x33CD JUMPI PUSH2 0x33CD PUSH2 0x3BF7 JUMP JUMPDEST PUSH1 0x20 MUL PUSH1 0x20 ADD ADD SWAP1 PUSH1 0x1 PUSH1 0x1 PUSH1 0xA0 SHL SUB AND SWAP1 DUP2 PUSH1 0x1 PUSH1 0x1 PUSH1 0xA0 SHL SUB AND DUP2 MSTORE POP POP DUP2 PUSH1 0x1 ADD DUP2 DUP2 SLOAD DUP2 LT PUSH2 0x3402 JUMPI PUSH2 0x3402 PUSH2 0x3BF7 JUMP JUMPDEST SWAP1 PUSH1 0x0 MSTORE PUSH1 0x20 PUSH1 0x0 KECCAK256 SWAP1 PUSH1 0x20 SWAP2 DUP3 DUP3 DIV ADD SWAP2 SWAP1 MOD SWAP1 SLOAD SWAP1 PUSH2 0x100 EXP SWAP1 DIV PUSH1 0xFF AND DUP11 DUP9 DUP2 MLOAD DUP2 LT PUSH2 0x3434 JUMPI PUSH2 0x3434 PUSH2 0x3BF7 JUMP JUMPDEST PUSH1 0x20 MUL PUSH1 0x20 ADD ADD SWAP1 PUSH1 0xFF AND SWAP1 DUP2 PUSH1 0xFF AND DUP2 MSTORE POP POP DUP2 PUSH1 0x2 ADD DUP2 DUP2 SLOAD DUP2 LT PUSH2 0x345D JUMPI PUSH2 0x345D PUSH2 0x3BF7 JUMP JUMPDEST SWAP1 PUSH1 0x0 MSTORE PUSH1 0x20 PUSH1 0x0 KECCAK256 ADD SLOAD DUP10 DUP9 DUP2 MLOAD DUP2 LT PUSH2 0x347A JUMPI PUSH2 0x347A PUSH2 0x3BF7 JUMP JUMPDEST PUSH1 0x20 SWAP1 DUP2 MUL SWAP2 SWAP1 SWAP2 ADD ADD MSTORE DUP7 PUSH2 0x348F DUP2 PUSH2 0x3C0D JUMP JUMPDEST SWAP8 POP POP JUMPDEST DUP1 PUSH2 0x349D DUP2 PUSH2 0x3C0D JUMP JUMPDEST SWAP2 POP POP PUSH2 0x3359 JUMP JUMPDEST POP POP DUP1 DUP1 PUSH2 0x34B2 SWAP1 PUSH2 0x3C0D JUMP JUMPDEST SWAP2 POP POP PUSH2 0x3300 JUMP JUMPDEST POP POP POP DUP1 DUP1 PUSH2 0x34C8 SWAP1 PUSH2 0x3C0D JUMP JUMPDEST SWAP2 POP POP PUSH2 0x3290 JUMP JUMPDEST POP POP POP SWAP2 SWAP4 SWAP1 SWAP3 POP JUMP JUMPDEST PUSH1 0x0 DUP1 DUP3 SLT PUSH2 0x34E7 JUMPI POP SWAP1 JUMP JUMPDEST PUSH1 0x1 PUSH1 0xFF SHL DUP3 EQ ISZERO PUSH2 0x350B JUMPI PUSH2 0x3505 PUSH1 0x1 PUSH1 0x1 PUSH1 0xFF SHL SUB PUSH1 0x1 PUSH2 0x3BDF JUMP JUMPDEST SWAP3 SWAP2 POP POP JUMP JUMPDEST PUSH2 0x3505 DUP3 PUSH2 0x3D08 JUMP JUMPDEST PUSH1 0x0 DUP1 DUP3 SGT PUSH2 0x3524 JUMPI PUSH1 0x0 PUSH2 0x3505 JUMP JUMPDEST POP SWAP1 JUMP JUMPDEST PUSH1 0x1 PUSH1 0x1 PUSH1 0xA0 SHL SUB DUP2 AND PUSH1 0x0 DUP2 DUP2 MSTORE PUSH1 0x10 PUSH1 0x20 MSTORE PUSH1 0x40 DUP2 KECCAK256 PUSH1 0x3 DUP2 ADD DUP1 SLOAD CALLVALUE PUSH1 0x1 DUP1 DUP6 ADD SWAP2 SWAP1 SWAP2 SSTORE PUSH6 0xFF00000000FF PUSH1 0xA0 SHL NOT PUSH1 0x1 PUSH4 0xFF000001 PUSH1 0xA0 SHL SUB NOT SWAP1 SWAP3 AND SWAP1 SWAP6 OR PUSH1 0x1 PUSH1 0xB8 SHL OR AND PUSH1 0x1 PUSH1 0xA0 SHL OR SWAP1 SSTORE PUSH1 0x2 DUP1 SLOAD SWAP2 SWAP4 SWAP3 SWAP1 SWAP2 PUSH2 0x3590 SWAP1 DUP5 SWAP1 PUSH2 0x3BDF JUMP JUMPDEST SWAP1 SWAP2 SSTORE POP POP PUSH1 0xD DUP1 SLOAD PUSH1 0x1 DUP2 ADD DUP3 SSTORE PUSH1 0x0 SWAP2 SWAP1 SWAP2 MSTORE PUSH32 0xD7B6990105719101DABEB77144F2A3385C8033ACD3AF97E9423A695E81AD1EB5 ADD DUP1 SLOAD PUSH1 0x1 PUSH1 0x1 PUSH1 0xA0 SHL SUB NOT AND PUSH1 0x1 PUSH1 0x1 PUSH1 0xA0 SHL SUB DUP5 AND OR SWAP1 SSTORE PUSH1 0x2 SLOAD PUSH1 0x40 MLOAD PUSH32 0xABE5B1202D1F4ED2C1BACCF335320CEAE3ABD90670864B741E80A2EF5671D882 SWAP2 PUSH2 0x3618 SWAP2 DUP6 SWAP2 CALLVALUE SWAP2 SELFBALANCE SWAP2 SWAP1 PUSH2 0x3CC3 JUMP JUMPDEST PUSH1 0x40 MLOAD DUP1 SWAP2 SUB SWAP1 LOG1 POP POP JUMP JUMPDEST POP DUP1 SLOAD PUSH1 0x0 DUP3 SSTORE SWAP1 PUSH1 0x0 MSTORE PUSH1 0x20 PUSH1 0x0 KECCAK256 SWAP1 DUP2 ADD SWAP1 PUSH2 0x226C SWAP2 SWAP1 PUSH2 0x377F JUMP JUMPDEST DUP3 DUP1 SLOAD DUP3 DUP3 SSTORE SWAP1 PUSH1 0x0 MSTORE PUSH1 0x20 PUSH1 0x0 KECCAK256 SWAP1 DUP2 ADD SWAP3 DUP3 ISZERO PUSH2 0x3697 JUMPI SWAP2 PUSH1 0x20 MUL DUP3 ADD JUMPDEST DUP3 DUP2 GT ISZERO PUSH2 0x3697 JUMPI DUP3 MLOAD DUP3 SLOAD PUSH1 0x1 PUSH1 0x1 PUSH1 0xA0 SHL SUB NOT AND PUSH1 0x1 PUSH1 0x1 PUSH1 0xA0 SHL SUB SWAP1 SWAP2 AND OR DUP3 SSTORE PUSH1 0x20 SWAP1 SWAP3 ADD SWAP2 PUSH1 0x1 SWAP1 SWAP2 ADD SWAP1 PUSH2 0x3662 JUMP JUMPDEST POP PUSH2 0x3524 SWAP3 SWAP2 POP PUSH2 0x377F JUMP JUMPDEST DUP3 DUP1 SLOAD DUP3 DUP3 SSTORE SWAP1 PUSH1 0x0 MSTORE PUSH1 0x20 PUSH1 0x0 KECCAK256 SWAP1 PUSH1 0x1F ADD PUSH1 0x20 SWAP1 DIV DUP2 ADD SWAP3 DUP3 ISZERO PUSH2 0x3697 JUMPI SWAP2 PUSH1 0x20 MUL DUP3 ADD PUSH1 0x0 JUMPDEST DUP4 DUP3 GT ISZERO PUSH2 0x370A JUMPI DUP4 MLOAD DUP4 DUP3 PUSH2 0x100 EXP DUP2 SLOAD DUP2 PUSH1 0xFF MUL NOT AND SWAP1 DUP4 PUSH1 0xFF AND MUL OR SWAP1 SSTORE POP SWAP3 PUSH1 0x20 ADD SWAP3 PUSH1 0x1 ADD PUSH1 0x20 DUP2 PUSH1 0x0 ADD DIV SWAP3 DUP4 ADD SWAP3 PUSH1 0x1 SUB MUL PUSH2 0x36CC JUMP JUMPDEST DUP1 ISZERO PUSH2 0x3737 JUMPI DUP3 DUP2 PUSH2 0x100 EXP DUP2 SLOAD SWAP1 PUSH1 0xFF MUL NOT AND SWAP1 SSTORE PUSH1 0x1 ADD PUSH1 0x20 DUP2 PUSH1 0x0 ADD DIV SWAP3 DUP4 ADD SWAP3 PUSH1 0x1 SUB MUL PUSH2 0x370A JUMP JUMPDEST POP POP PUSH2 0x3524 SWAP3 SWAP2 POP PUSH2 0x377F JUMP JUMPDEST DUP3 DUP1 SLOAD DUP3 DUP3 SSTORE SWAP1 PUSH1 0x0 MSTORE PUSH1 0x20 PUSH1 0x0 KECCAK256 SWAP1 DUP2 ADD SWAP3 DUP3 ISZERO PUSH2 0x3697 JUMPI SWAP2 PUSH1 0x20 MUL DUP3 ADD JUMPDEST DUP3 DUP2 GT ISZERO PUSH2 0x3697 JUMPI DUP3 MLOAD DUP3 SSTORE SWAP2 PUSH1 0x20 ADD SWAP2 SWAP1 PUSH1 0x1 ADD SWAP1 PUSH2 0x3764 JUMP JUMPDEST JUMPDEST DUP1 DUP3 GT ISZERO PUSH2 0x3524 JUMPI PUSH1 0x0 DUP2 SSTORE PUSH1 0x1 ADD PUSH2 0x3780 JUMP JUMPDEST DUP1 CALLDATALOAD PUSH1 0x1 PUSH1 0x1 PUSH1 0xA0 SHL SUB DUP2 AND DUP2 EQ PUSH2 0x37AB JUMPI PUSH1 0x0 DUP1 REVERT JUMPDEST SWAP2 SWAP1 POP JUMP JUMPDEST PUSH1 0x0 DUP1 PUSH1 0x40 DUP4 DUP6 SUB SLT ISZERO PUSH2 0x37C3 JUMPI PUSH1 0x0 DUP1 REVERT JUMPDEST PUSH2 0x37CC DUP4 PUSH2 0x3794 JUMP JUMPDEST SWAP5 PUSH1 0x20 SWAP4 SWAP1 SWAP4 ADD CALLDATALOAD SWAP4 POP POP POP JUMP JUMPDEST DUP1 CALLDATALOAD PUSH1 0xFF DUP2 AND DUP2 EQ PUSH2 0x37AB JUMPI PUSH1 0x0 DUP1 REVERT JUMPDEST PUSH1 0x0 DUP1 PUSH1 0x40 DUP4 DUP6 SUB SLT ISZERO PUSH2 0x37FE JUMPI PUSH1 0x0 DUP1 REVERT JUMPDEST PUSH2 0x3807 DUP4 PUSH2 0x3794 JUMP JUMPDEST SWAP2 POP PUSH2 0x3815 PUSH1 0x20 DUP5 ADD PUSH2 0x37DA JUMP JUMPDEST SWAP1 POP SWAP3 POP SWAP3 SWAP1 POP JUMP JUMPDEST PUSH1 0x0 PUSH1 0x20 DUP3 DUP5 SUB SLT ISZERO PUSH2 0x3830 JUMPI PUSH1 0x0 DUP1 REVERT JUMPDEST POP CALLDATALOAD SWAP2 SWAP1 POP JUMP JUMPDEST PUSH1 0x0 PUSH1 0x20 DUP3 DUP5 SUB SLT ISZERO PUSH2 0x3849 JUMPI PUSH1 0x0 DUP1 REVERT JUMPDEST PUSH2 0x3852 DUP3 PUSH2 0x3794 JUMP JUMPDEST SWAP4 SWAP3 POP POP POP JUMP JUMPDEST PUSH1 0x0 DUP1 PUSH1 0x40 DUP4 DUP6 SUB SLT ISZERO PUSH2 0x386C JUMPI PUSH1 0x0 DUP1 REVERT JUMPDEST PUSH2 0x3875 DUP4 PUSH2 0x3794 JUMP JUMPDEST SWAP2 POP PUSH2 0x3815 PUSH1 0x20 DUP5 ADD PUSH2 0x3794 JUMP JUMPDEST PUSH1 0x0 PUSH1 0x20 DUP3 DUP5 SUB SLT ISZERO PUSH2 0x3895 JUMPI PUSH1 0x0 DUP1 REVERT JUMPDEST PUSH2 0x3852 DUP3 PUSH2 0x37DA JUMP JUMPDEST PUSH1 0x0 DUP1 PUSH1 0x40 DUP4 DUP6 SUB SLT ISZERO PUSH2 0x38B1 JUMPI PUSH1 0x0 DUP1 REVERT JUMPDEST POP POP DUP1 CALLDATALOAD SWAP3 PUSH1 0x20 SWAP1 SWAP2 ADD CALLDATALOAD SWAP2 POP JUMP JUMPDEST PUSH1 0x0 DUP1 PUSH1 0x40 DUP4 DUP6 SUB SLT ISZERO PUSH2 0x38D3 JUMPI PUSH1 0x0 DUP1 REVERT JUMPDEST PUSH2 0x3875 DUP4 PUSH2 0x37DA JUMP JUMPDEST PUSH1 0x0 DUP2 MLOAD DUP1 DUP5 MSTORE PUSH1 0x20 DUP1 DUP6 ADD SWAP5 POP DUP1 DUP5 ADD PUSH1 0x0 JUMPDEST DUP4 DUP2 LT ISZERO PUSH2 0x390F JUMPI DUP2 MLOAD PUSH1 0xFF AND DUP8 MSTORE SWAP6 DUP3 ADD SWAP6 SWAP1 DUP3 ADD SWAP1 PUSH1 0x1 ADD PUSH2 0x38F0 JUMP JUMPDEST POP SWAP5 SWAP6 SWAP5 POP POP POP POP POP JUMP JUMPDEST PUSH1 0x0 DUP2 MLOAD DUP1 DUP5 MSTORE PUSH1 0x20 DUP1 DUP6 ADD SWAP5 POP DUP1 DUP5 ADD PUSH1 0x0 JUMPDEST DUP4 DUP2 LT ISZERO PUSH2 0x390F JUMPI DUP2 MLOAD DUP8 MSTORE SWAP6 DUP3 ADD SWAP6 SWAP1 DUP3 ADD SWAP1 PUSH1 0x1 ADD PUSH2 0x392E JUMP JUMPDEST PUSH1 0x40 DUP2 MSTORE PUSH1 0x0 PUSH2 0x395D PUSH1 0x40 DUP4 ADD DUP6 PUSH2 0x38DC JUMP JUMPDEST DUP3 DUP2 SUB PUSH1 0x20 DUP5 ADD MSTORE PUSH2 0x396F DUP2 DUP6 PUSH2 0x391A JUMP JUMPDEST SWAP6 SWAP5 POP POP POP POP POP JUMP JUMPDEST PUSH1 0x0 DUP1 DUP4 PUSH1 0x1F DUP5 ADD SLT PUSH2 0x398A JUMPI PUSH1 0x0 DUP1 REVERT JUMPDEST POP DUP2 CALLDATALOAD PUSH8 0xFFFFFFFFFFFFFFFF DUP2 GT ISZERO PUSH2 0x39A2 JUMPI PUSH1 0x0 DUP1 REVERT JUMPDEST PUSH1 0x20 DUP4 ADD SWAP2 POP DUP4 PUSH1 0x20 DUP3 DUP6 ADD ADD GT ISZERO PUSH2 0x39BA JUMPI PUSH1 0x0 DUP1 REVERT JUMPDEST SWAP3 POP SWAP3 SWAP1 POP JUMP JUMPDEST PUSH1 0x0 DUP1 DUP4 PUSH1 0x1F DUP5 ADD SLT PUSH2 0x39D3 JUMPI PUSH1 0x0 DUP1 REVERT JUMPDEST POP DUP2 CALLDATALOAD PUSH8 0xFFFFFFFFFFFFFFFF DUP2 GT ISZERO PUSH2 0x39EB JUMPI PUSH1 0x0 DUP1 REVERT JUMPDEST PUSH1 0x20 DUP4 ADD SWAP2 POP DUP4 PUSH1 0x20 DUP3 PUSH1 0x5 SHL DUP6 ADD ADD GT ISZERO PUSH2 0x39BA JUMPI PUSH1 0x0 DUP1 REVERT JUMPDEST PUSH1 0x0 DUP1 PUSH1 0x0 DUP1 PUSH1 0x0 DUP1 PUSH1 0x0 DUP1 PUSH1 0xA0 DUP10 DUP12 SUB SLT ISZERO PUSH2 0x3A22 JUMPI PUSH1 0x0 DUP1 REVERT JUMPDEST DUP9 CALLDATALOAD PUSH8 0xFFFFFFFFFFFFFFFF DUP1 DUP3 GT ISZERO PUSH2 0x3A3A JUMPI PUSH1 0x0 DUP1 REVERT JUMPDEST PUSH2 0x3A46 DUP13 DUP4 DUP14 ADD PUSH2 0x3978 JUMP JUMPDEST SWAP1 SWAP11 POP SWAP9 POP PUSH1 0x20 DUP12 ADD CALLDATALOAD SWAP2 POP DUP1 DUP3 GT ISZERO PUSH2 0x3A5F JUMPI PUSH1 0x0 DUP1 REVERT JUMPDEST PUSH2 0x3A6B DUP13 DUP4 DUP14 ADD PUSH2 0x39C1 JUMP JUMPDEST SWAP1 SWAP9 POP SWAP7 POP PUSH1 0x40 DUP12 ADD CALLDATALOAD SWAP2 POP DUP1 DUP3 GT ISZERO PUSH2 0x3A84 JUMPI PUSH1 0x0 DUP1 REVERT JUMPDEST POP PUSH2 0x3A91 DUP12 DUP3 DUP13 ADD PUSH2 0x39C1 JUMP JUMPDEST SWAP1 SWAP6 POP SWAP4 POP PUSH2 0x3AA4 SWAP1 POP PUSH1 0x60 DUP11 ADD PUSH2 0x37DA JUMP JUMPDEST SWAP2 POP PUSH1 0x80 DUP10 ADD CALLDATALOAD SWAP1 POP SWAP3 SWAP6 SWAP9 POP SWAP3 SWAP6 SWAP9 SWAP1 SWAP4 SWAP7 POP JUMP JUMPDEST PUSH1 0x0 DUP1 PUSH1 0x20 DUP4 DUP6 SUB SLT ISZERO PUSH2 0x3ACD JUMPI PUSH1 0x0 DUP1 REVERT JUMPDEST DUP3 CALLDATALOAD PUSH8 0xFFFFFFFFFFFFFFFF DUP2 GT ISZERO PUSH2 0x3AE4 JUMPI PUSH1 0x0 DUP1 REVERT JUMPDEST PUSH2 0x3AF0 DUP6 DUP3 DUP7 ADD PUSH2 0x3978 JUMP JUMPDEST SWAP1 SWAP7 SWAP1 SWAP6 POP SWAP4 POP POP POP POP JUMP JUMPDEST PUSH1 0x0 PUSH1 0x20 DUP3 DUP5 SUB SLT ISZERO PUSH2 0x3B0E JUMPI PUSH1 0x0 DUP1 REVERT JUMPDEST DUP2 CALLDATALOAD PUSH8 0xFFFFFFFFFFFFFFFF DUP2 GT ISZERO PUSH2 0x3B25 JUMPI PUSH1 0x0 DUP1 REVERT JUMPDEST DUP3 ADD PUSH1 0xA0 DUP2 DUP6 SUB SLT ISZERO PUSH2 0x3852 JUMPI PUSH1 0x0 DUP1 REVERT JUMPDEST PUSH1 0x60 DUP1 DUP3 MSTORE DUP5 MLOAD SWAP1 DUP3 ADD DUP2 SWAP1 MSTORE PUSH1 0x0 SWAP1 PUSH1 0x20 SWAP1 PUSH1 0x80 DUP5 ADD SWAP1 DUP3 DUP9 ADD DUP5 JUMPDEST DUP3 DUP2 LT ISZERO PUSH2 0x3B79 JUMPI DUP2 MLOAD PUSH1 0x1 PUSH1 0x1 PUSH1 0xA0 SHL SUB AND DUP5 MSTORE SWAP3 DUP5 ADD SWAP3 SWAP1 DUP5 ADD SWAP1 PUSH1 0x1 ADD PUSH2 0x3B54 JUMP JUMPDEST POP POP POP DUP4 DUP2 SUB DUP3 DUP6 ADD MSTORE PUSH2 0x3B8D DUP2 DUP8 PUSH2 0x38DC JUMP JUMPDEST SWAP2 POP POP DUP3 DUP2 SUB PUSH1 0x40 DUP5 ADD MSTORE PUSH2 0x3BA2 DUP2 DUP6 PUSH2 0x391A JUMP JUMPDEST SWAP7 SWAP6 POP POP POP POP POP POP JUMP JUMPDEST PUSH1 0x20 DUP1 DUP3 MSTORE PUSH1 0x3 SWAP1 DUP3 ADD MSTORE PUSH3 0x29A729 PUSH1 0xE9 SHL PUSH1 0x40 DUP3 ADD MSTORE PUSH1 0x60 ADD SWAP1 JUMP JUMPDEST PUSH4 0x4E487B71 PUSH1 0xE0 SHL PUSH1 0x0 MSTORE PUSH1 0x11 PUSH1 0x4 MSTORE PUSH1 0x24 PUSH1 0x0 REVERT JUMPDEST PUSH1 0x0 DUP3 NOT DUP3 GT ISZERO PUSH2 0x3BF2 JUMPI PUSH2 0x3BF2 PUSH2 0x3BC9 JUMP JUMPDEST POP ADD SWAP1 JUMP JUMPDEST PUSH4 0x4E487B71 PUSH1 0xE0 SHL PUSH1 0x0 MSTORE PUSH1 0x32 PUSH1 0x4 MSTORE PUSH1 0x24 PUSH1 0x0 REVERT JUMPDEST PUSH1 0x0 PUSH1 0x0 NOT DUP3 EQ ISZERO PUSH2 0x3C21 JUMPI PUSH2 0x3C21 PUSH2 0x3BC9 JUMP JUMPDEST POP PUSH1 0x1 ADD SWAP1 JUMP JUMPDEST PUSH1 0x0 DUP3 DUP3 LT ISZERO PUSH2 0x3C3A JUMPI PUSH2 0x3C3A PUSH2 0x3BC9 JUMP JUMPDEST POP SUB SWAP1 JUMP JUMPDEST PUSH1 0x0 PUSH1 0xFF DUP3 AND PUSH1 0xFF DUP5 AND DUP1 DUP3 LT ISZERO PUSH2 0x3C59 JUMPI PUSH2 0x3C59 PUSH2 0x3BC9 JUMP JUMPDEST SWAP1 SUB SWAP4 SWAP3 POP POP POP JUMP JUMPDEST PUSH1 0x0 DUP3 PUSH2 0x3C7F JUMPI PUSH4 0x4E487B71 PUSH1 0xE0 SHL PUSH1 0x0 MSTORE PUSH1 0x12 PUSH1 0x4 MSTORE PUSH1 0x24 PUSH1 0x0 REVERT JUMPDEST POP DIV SWAP1 JUMP JUMPDEST PUSH1 0x0 DUP1 DUP4 SLT DUP1 ISZERO PUSH1 0x1 PUSH1 0xFF SHL DUP6 ADD DUP5 SLT AND ISZERO PUSH2 0x3CA2 JUMPI PUSH2 0x3CA2 PUSH2 0x3BC9 JUMP JUMPDEST PUSH1 0x1 PUSH1 0x1 PUSH1 0xFF SHL SUB DUP5 ADD DUP4 SGT DUP2 AND ISZERO PUSH2 0x3CBD JUMPI PUSH2 0x3CBD PUSH2 0x3BC9 JUMP JUMPDEST POP POP SUB SWAP1 JUMP JUMPDEST PUSH1 0x1 PUSH1 0x1 PUSH1 0xA0 SHL SUB SWAP5 SWAP1 SWAP5 AND DUP5 MSTORE PUSH1 0x20 DUP5 ADD SWAP3 SWAP1 SWAP3 MSTORE PUSH1 0x40 DUP4 ADD MSTORE PUSH1 0x60 DUP3 ADD MSTORE PUSH1 0x80 ADD SWAP1 JUMP JUMPDEST PUSH1 0x0 DUP2 PUSH1 0x0 NOT DIV DUP4 GT DUP3 ISZERO ISZERO AND ISZERO PUSH2 0x3D03 JUMPI PUSH2 0x3D03 PUSH2 0x3BC9 JUMP JUMPDEST POP MUL SWAP1 JUMP JUMPDEST PUSH1 0x0 PUSH1 0x1 PUSH1 0xFF SHL DUP3 EQ ISZERO PUSH2 0x3D1E JUMPI PUSH2 0x3D1E PUSH2 0x3BC9 JUMP JUMPDEST POP PUSH1 0x0 SUB SWAP1 JUMP JUMPDEST PUSH1 0x0 DUP1 DUP3 SLT DUP1 ISZERO PUSH1 0x1 PUSH1 0x1 PUSH1 0xFF SHL SUB DUP5 SWAP1 SUB DUP6 SGT AND ISZERO PUSH2 0x3D47 JUMPI PUSH2 0x3D47 PUSH2 0x3BC9 JUMP JUMPDEST PUSH1 0x1 PUSH1 0xFF SHL DUP4 SWAP1 SUB DUP5 SLT DUP2 AND ISZERO PUSH2 0x3D60 JUMPI PUSH2 0x3D60 PUSH2 0x3BC9 JUMP JUMPDEST POP POP ADD SWAP1 JUMP JUMPDEST PUSH1 0x0 PUSH1 0xFF DUP3 AND PUSH1 0xFF DUP5 AND DUP1 PUSH1 0xFF SUB DUP3 GT ISZERO PUSH2 0x3D83 JUMPI PUSH2 0x3D83 PUSH2 0x3BC9 JUMP JUMPDEST ADD SWAP4 SWAP3 POP POP POP JUMP JUMPDEST PUSH1 0x0 PUSH1 0x1 PUSH1 0x1 PUSH1 0xFF SHL SUB DUP2 DUP5 SGT DUP3 DUP5 SGT DUP1 DUP3 AND DUP7 DUP5 DIV DUP7 GT AND ISZERO PUSH2 0x3DB1 JUMPI PUSH2 0x3DB1 PUSH2 0x3BC9 JUMP JUMPDEST PUSH1 0x1 PUSH1 0xFF SHL PUSH1 0x0 DUP8 SLT DUP3 DUP2 AND DUP8 DUP4 SDIV DUP10 SLT AND ISZERO PUSH2 0x3DD0 JUMPI PUSH2 0x3DD0 PUSH2 0x3BC9 JUMP JUMPDEST PUSH1 0x0 DUP8 SLT SWAP3 POP DUP8 DUP3 SDIV DUP8 SLT DUP5 DUP5 AND AND ISZERO PUSH2 0x3DEC JUMPI PUSH2 0x3DEC PUSH2 0x3BC9 JUMP JUMPDEST DUP8 DUP6 SDIV DUP8 SLT DUP2 DUP5 AND AND ISZERO PUSH2 0x3E02 JUMPI PUSH2 0x3E02 PUSH2 0x3BC9 JUMP JUMPDEST POP POP POP SWAP3 SWAP1 SWAP4 MUL SWAP4 SWAP3 POP POP POP JUMP JUMPDEST PUSH4 0x4E487B71 PUSH1 0xE0 SHL PUSH1 0x0 MSTORE PUSH1 0x41 PUSH1 0x4 MSTORE PUSH1 0x24 PUSH1 0x0 REVERT JUMPDEST PUSH1 0x0 PUSH1 0xFF DUP3 AND PUSH1 0xFF DUP2 EQ ISZERO PUSH2 0x3E3D JUMPI PUSH2 0x3E3D PUSH2 0x3BC9 JUMP JUMPDEST PUSH1 0x1 ADD SWAP3 SWAP2 POP POP JUMP JUMPDEST PUSH1 0x0 DUP1 DUP4 CALLDATALOAD PUSH1 0x1E NOT DUP5 CALLDATASIZE SUB ADD DUP2 SLT PUSH2 0x3E5D JUMPI PUSH1 0x0 DUP1 REVERT JUMPDEST DUP4 ADD DUP1 CALLDATALOAD SWAP2 POP PUSH8 0xFFFFFFFFFFFFFFFF DUP3 GT ISZERO PUSH2 0x3E78 JUMPI PUSH1 0x0 DUP1 REVERT JUMPDEST PUSH1 0x20 ADD SWAP2 POP PUSH1 0x5 DUP2 SWAP1 SHL CALLDATASIZE SUB DUP3 SGT ISZERO PUSH2 0x39BA JUMPI PUSH1 0x0 DUP1 REVERT INVALID LOG2 PUSH5 0x6970667358 0x22 SLT KECCAK256 0xB0 0x2B CREATE SIGNEXTEND 0xFB MSIZE PUSH22 0x20D53E9A090F86908487228CEBCCA3617AB852116979 SGT 0xBD EXTCODESIZE PUSH5 0x736F6C6343 STOP ADDMOD MULMOD STOP CALLER "},"methodIdentifiers":{"__isPunished(address)":"f0c36955","__testInitSettleState((address[],uint256[],int256[],uint8[],uint8))":"e98b25f9","_getUserGRSAtAddress(address)":"8c8e9d64","_setUserGRSAtAddress(address,uint256)":"08fba75c","contributionScore(uint8,address)":"fa569fa2","contributionStart()":"a41dacd6","exitModel()":"0899604c","feedback(address,int256)":"3aa8f2ed","freeriderPenalty()":"005c43a5","getAllAccuraciesAbout(address)":"f6020f01","getAllPreviousAccuraciesAndLosses()":"701341ed","getUser(address)":"6f77926b","hasVoted(address,address)":"4d4d2b1c","initTS()":"fd5201be","isContributionRoundDone()":"d6aad1b9","isFeedBackRoundDone()":"dcc1484a","max_collateral()":"904a9d17","min_collateral()":"508be15e","min_rounds()":"3f4f2d62","modelHash()":"1b2ccc09","nrOfContributionScores(uint8)":"59ac0c46","nrOfParticipants()":"4e49ad78","nrOfProvidedHashedWeights()":"b986695b","participants(uint256)":"35c1d349","prev_accs(uint8,address)":"8b2f56fb","prev_losses(uint8,address)":"667ba0f6","provideHashedWeights(bytes32,uint256)":"64a3e221","punishfactor()":"fcbace5d","punishfactorContrib()":"186beae3","register()":"1aa3a008","register(address)":"4420e486","registerSlot(bytes32)":"f5b27228","rewardLeft()":"3eee0426","rewardPerRound()":"33f93bcd","round()":"146ca531","roundStart()":"40365852","secretOf(address,uint8)":"095083af","settle()":"11da60b4","submitContributionScore(int256)":"f283865f","submitFeedbackBytes(bytes)":"9699fee6","submitFeedbackBytesAndAccuracies(bytes,uint8[],uint256[],uint8,uint256)":"8fe557a1","testing()":"8d03b102","totalReward()":"750142e6","users(address)":"a87430ba","votedPositiveFor(address,address)":"ca6e0385","votesPerRound()":"cc500ec9","weightsOf(address,uint8)":"45e4c379"}}}}}