{"project/contracts/test/OpenFLModelHarness.sol":{"OpenFLModelHarness":{"abi":[{"inputs":[{"internalType":"bytes32","name":"_modelHash","type":"bytes32"},{"internalType":"uint256","name":"_min_collateral","type":"uint256"},{"internalType":"uint256","name":"_max_collateral","type":"uint256"},{"internalType":"uint256","name":"_reward","type":"uint256"},{"internalType":"uint8","name":"_min_rounds","type":"uint8"},{"internalType":"uint8","name":"_punishfactor","type":"uint8"},{"internalType":"uint8","name":"_punishfactorContrib","type":"uint8"},{"internalType":"uint8","name":"_freeriderPenalty","type":"uint8"}],"stateMutability":"nonpayable","type":"constructor"},{"anonymous":false,"inputs":[{"indexed":true,"internalType":"address","name":"user","type":"address"},{"indexed":false,"internalType":"int256","name":"contributionScore","type":"int256"}],"name":"ContributionScoreSubmitted","type":"event"},{"anonymous":false,"inputs":[{"indexed":false,"internalType":"address","name":"victim","type":"address"},{"indexed":false,"internalType":"int256","name":"roundScore","type":"int256"},{"indexed":false,"internalType":"uint256","name":"loss","type":"uint256"},{"indexed":false,"internalType":"uint256","name":"newReputation","type":"uint256"}],"name":"Disqualification","type":"event"},{"anonymous":false,"inputs":[{"indexed":false,"internalType":"uint8","name":"round","type":"uint8"},{"indexed":false,"internalType":"uint8","name":"validVotes","type":"uint8"},{"indexed":false,"internalType":"uint256","name":"sumOfWeights","type":"uint256"},{"indexed":false,"internalType":"uint256","name":"totalPunishment","type":"uint256"}],"name":"EndRound","type":"event"},{"anonymous":false,"inputs":[{"indexed":false,"internalType":"uint256","name":"initTS","type":"uint256"},{"indexed":false,"internalType":"uint256","name":"max_collateral","type":"uint256"},{"indexed":false,"internalType":"uint256","name":"min_collateral","type":"uint256"},{"indexed":false,"internalType":"uint256","name":"total_reward","type":"uint256"},{"indexed":false,"internalType":"uint8","name":"min_rounds","type":"uint8"},{"indexed":false,"internalType":"uint256","name":"freerider_fee","type":"uint256"}],"name":"FederatedLerningModelDeployed","type":"event"},{"anonymous":false,"inputs":[{"indexed":false,"internalType":"address","name":"target","type":"address"},{"indexed":false,"internalType":"address","name":"user","type":"address"},{"indexed":false,"internalType":"uint256","name":"globalReputation","type":"uint256"},{"indexed":false,"internalType":"int256","name":"newRoundReputation","type":"int256"}],"name":"Feedback","type":"event"},{"anonymous":false,"inputs":[{"indexed":false,"internalType":"address","name":"victim","type":"address"},{"indexed":false,"internalType":"int256","name":"roundScore","type":"int256"},{"indexed":false,"internalType":"uint256","name":"loss","type":"uint256"},{"indexed":false,"internalType":"uint256","name":"newReputation","type":"uint256"}],"name":"PassivPunishment","type":"event"},{"anonymous":false,"inputs":[{"indexed":false,"internalType":"address","name":"victim","type":"address"},{"indexed":false,"internalType":"int256","name":"roundScore","type":"int256"},{"indexed":false,"internalType":"uint256","name":"loss","type":"uint256"},{"indexed":false,"internalType":"uint256","name":"newReputation","type":"uint256"}],"name":"Punishment","type":"event"},{"anonymous":false,"inputs":[{"indexed":false,"internalType":"address","name":"user","type":"address"},{"indexed":false,"internalType":"uint256","name":"reputationValue","type":"uint256"},{"indexed":false,"internalType":"uint256","name":"totalCollateral","type":"uint256"},{"indexed":false,"internalType":"uint256","name":"numberOfContributers","type":"uint256"}],"name":"Registered","type":"event"},{"anonymous":false,"inputs":[{"indexed":false,"internalType":"address","name":"user","type":"address"},{"indexed":false,"internalType":"int256","name":"roundScore","type":"int256"},{"indexed":false,"internalType":"uint256","name":"win","type":"uint256"},{"indexed":false,"internalType":"uint256","name":"newReputation","type":"uint256"}],"name":"Reward","type":"event"},{"inputs":[{"internalType":"address","name":"userAddr","type":"address"}],"name":"__isPunished","outputs":[{"internalType":"bool","name":"","type":"bool"}],"stateMutability":"view","type":"function"},{"inputs":[{"components":[{"internalType":"address[]","name":"participants","type":"address[]"},{"internalType":"uint256[]","name":"reputations","type":"uint256[]"},{"internalType":"int256[]","name":"roundReps","type":"int256[]"},{"internalType":"uint8[]","name":"nrOfVotesOfUser","type":"uint8[]"},{"internalType":"uint8","name":"round","type":"uint8"}],"internalType":"struct OpenFLModelHarness.InitParams","name":"p","type":"tuple"}],"name":"__testInitSettleState","outputs":[],"stateMutability":"nonpayable","type":"function"},{"inputs":[{"internalType":"uint8","name":"","type":"uint8"},{"internalType":"address","name":"","type":"address"}],"name":"contributionScore","outputs":[{"internalType":"int256","name":"","type":"int256"}],"stateMutability":"view","type":"function"},{"inputs":[],"name":"contributionStart","outputs":[{"internalType":"uint256","name":"","type":"uint256"}],"stateMutability":"view","type":"function"},{"inputs":[],"name":"exitModel","outputs":[],"stateMutability":"nonpayable","type":"function"},{"inputs":[{"internalType":"address","name":"target","type":"address"},{"internalType":"int256","name":"score","type":"int256"}],"name":"feedback","outputs":[],"stateMutability":"nonpayable","type":"function"},{"inputs":[],"name":"freeriderPenalty","outputs":[{"internalType":"uint256","name":"","type":"uint256"}],"stateMutability":"view","type":"function"},{"inputs":[{"internalType":"address","name":"target","type":"address"}],"name":"getAllAccuraciesAbout","outputs":[{"internalType":"address[]","name":"voters","type":"address[]"},{"internalType":"uint8[]","name":"accuracies","type":"uint8[]"},{"internalType":"uint256[]","name":"losses","type":"uint256[]"}],"stateMutability":"view","type":"function"},{"inputs":[],"name":"getAllPreviousAccuraciesAndLosses","outputs":[{"internalType":"uint8[]","name":"previous_accuracies","type":"uint8[]"},{"internalType":"uint256[]","name":"previous_losses","type":"uint256[]"}],"stateMutability":"view","type":"function"},{"inputs":[{"internalType":"address","name":"","type":"address"},{"internalType":"address","name":"","type":"address"}],"name":"hasVoted","outputs":[{"internalType":"bool","name":"","type":"bool"}],"stateMutability":"view","type":"function"},{"inputs":[],"name":"initTS","outputs":[{"internalType":"uint256","name":"","type":"uint256"}],"stateMutability":"view","type":"function"},{"inputs":[],"name":"isContributionRoundDone","outputs":[{"internalType":"bool","name":"roundClosed","type":"bool"}],"stateMutability":"view","type":"function"},{"inputs":[],"name":"isFeedBackRoundDone","outputs":[{"internalType":"bool","name":"roundClosed","type":"bool"}],"stateMutability":"view","type":"function"},{"inputs":[],"name":"max_collateral","outputs":[{"internalType":"uint256","name":"","type":"uint256"}],"stateMutability":"view","type":"function"},{"inputs":[],"name":"min_collateral","outputs":[{"internalType":"uint256","name":"","type":"uint256"}],"stateMutability":"view","type":"function"},{"inputs":[],"name":"min_rounds","outputs":[{"internalType":"uint8","name":"","type":"uint8"}],"stateMutability":"view","type":"function"},{"inputs":[],"name":"modelHash","outputs":[{"internalType":"bytes32","name":"","type":"bytes32"}],"stateMutability":"view","type":"function"},{"inputs":[{"internalType":"uint8","name":"","type":"uint8"}],"name":"nrOfContributionScores","outputs":[{"internalType":"uint256","name":"","type":"uint256"}],"stateMutability":"view","type":"function"},{"inputs":[],"name":"nrOfParticipants","outputs":[{"internalType":"uint256","name":"","type":"uint256"}],"stateMutability":"view","type":"function"},{"inputs":[],"name":"nrOfProvidedHashedWeights","outputs":[{"internalType":"uint256","name":"","type":"uint256"}],"stateMutability":"view","type":"function"},{"inputs":[{"internalType":"uint256","name":"","type":"uint256"}],"name":"participants","outputs":[{"internalType":"address","name":"","type":"address"}],"stateMutability":"view","type":"function"},{"inputs":[{"internalType":"uint8","name":"","type":"uint8"},{"internalType":"address","name":"","type":"address"}],"name":"prev_accs","outputs":[{"internalType":"uint8","name":"","type":"uint8"}],"stateMutability":"view","type":"function"},{"inputs":[{"internalType":"uint8","name":"","type":"uint8"},{"internalType":"address","name":"","type":"address"}],"name":"prev_losses","outputs":[{"internalType":"uint256","name":"","type":"uint256"}],"stateMutability":"view","type":"function"},{"inputs":[{"internalType":"bytes32","name":"hashedWeights","type":"bytes32"},{"internalType":"uint256","name":"salt","type":"uint256"}],"name":"provideHashedWeights","outputs":[],"stateMutability":"nonpayable","type":"function"},{"inputs":[],"name":"punishfactor","outputs":[{"internalType":"uint8","name":"","type":"uint8"}],"stateMutability":"view","type":"function"},{"inputs":[],"name":"punishfactorContrib","outputs":[{"internalType":"uint8","name":"","type":"uint8"}],"stateMutability":"view","type":"function"},{"inputs":[],"name":"register","outputs":[],"stateMutability":"payable","type":"function"},{"inputs":[{"internalType":"address","name":"initiator","type":"address"}],"name":"register","outputs":[],"stateMutability":"payable","type":"function"},{"inputs":[{"internalType":"bytes32","name":"_secret","type":"bytes32"}],"name":"registerSlot","outputs":[],"stateMutability":"nonpayable","type":"function"},{"inputs":[],"name":"rewardLeft","outputs":[{"internalType":"uint256","name":"","type":"uint256"}],"stateMutability":"view","type":"function"},{"inputs":[],"name":"rewardPerRound","outputs":[{"internalType":"uint256","name":"","type":"uint256"}],"stateMutability":"view","type":"function"},{"inputs":[],"name":"round","outputs":[{"internalType":"uint8","name":"","type":"uint8"}],"stateMutability":"view","type":"function"},{"inputs":[],"name":"roundStart","outputs":[{"internalType":"uint256","name":"","type":"uint256"}],"stateMutability":"view","type":"function"},{"inputs":[{"internalType":"address","name":"","type":"address"},{"internalType":"uint8","name":"","type":"uint8"}],"name":"secretOf","outputs":[{"internalType":"bytes32","name":"","type":"bytes32"}],"stateMutability":"view","type":"function"},{"inputs":[],"name":"settle","outputs":[],"stateMutability":"nonpayable","type":"function"},{"inputs":[{"internalType":"int256","name":"score","type":"int256"}],"name":"submitContributionScore","outputs":[],"stateMutability":"nonpayable","type":"function"},{"inputs":[{"internalType":"bytes","name":"raw","type":"bytes"}],"name":"submitFeedbackBytes","outputs":[],"stateMutability":"nonpayable","type":"function"},{"inputs":[{"internalType":"bytes","name":"raw","type":"bytes"},{"internalType":"uint8[]","name":"accuracies","type":"uint8[]"},{"internalType":"uint256[]","name":"losses","type":"uint256[]"},{"internalType":"uint8","name":"prev_acc","type":"uint8"},{"internalType":"uint256","name":"prev_loss","type":"uint256"}],"name":"submitFeedbackBytesAndAccuracies","outputs":[],"stateMutability":"nonpayable","type":"function"},{"inputs":[],"name":"totalReward","outputs":[{"internalType":"uint256","name":"","type":"uint256"}],"stateMutability":"view","type":"function"},{"inputs":[{"internalType":"address","name":"","type":"address"}],"name":"users","outputs":[{"internalType":"int256","name":"personalWeight","type":"int256"},{"internalType":"uint256","name":"GlobalReputationOf","type":"uint256"},{"internalType":"int256","name":"RoundReputationOf","type":"int256"},{"internalType":"address","name":"addr","type":"address"},{"internalType":"uint8","name":"roundOfUser","type":"uint8"},{"internalType":"uint8","name":"nrOfVotesOfUser","type":"uint8"},{"internalType":"bool","name":"isPunished","type":"bool"},{"internalType":"bool","name":"isRegistered","type":"bool"},{"internalType":"bool","name":"whitelistedForRewards","type":"bool"}],"stateMutability":"view","type":"function"},{"inputs":[{"internalType":"address","name":"","type":"address"},{"internalType":"address","name":"","type":"address"}],"name":"votedPositiveFor","outputs":[{"internalType":"bool","name":"","type":"bool"}],"stateMutability":"view","type":"function"},{"inputs":[],"name":"votesPerRound","outputs":[{"internalType":"uint8","name":"","type":"uint8"}],"stateMutability":"view","type":"function"},{"inputs":[{"internalType":"address","name":"","type":"address"},{"internalType":"uint8","name":"","type":"uint8"}],"name":"weightsOf","outputs":[{"internalType":"bytes32","name":"","type":"bytes32"}],"stateMutability":"view","type":"function"}],"evm":{"bytecode":{"linkReferences":{},"object":"60806040526001805460ff191690553480156200001b57600080fd5b5060405162004024380380620040248339810160408190526200003e9162000192565b426004819055600a5560008890556005879055600686905560078590556001805463ffff00001916630100000060ff8781169190910262ff000019169190911762010000868316021760ff60201b1916640100000000858316021790915588908890889088908890889088908890606490620000bd9083168962000216565b620000c9919062000244565b600c55600154600754620000e8916301000000900460ff169062000244565b6008556007546009819055600454600554600654600154600c54604080519586526020860194909452928401919091526060830193909352630100000090920460ff16608082015260a08101919091527fd910741da174a91f8b84705afeaf69767bd61d4ac64620028ade113e576932519060c00160405180910390a15050505050505050505050505050505062000267565b805160ff811681146200018d57600080fd5b919050565b600080600080600080600080610100898b031215620001b057600080fd5b88519750602089015196506040890151955060608901519450620001d760808a016200017b565b9350620001e760a08a016200017b565b9250620001f760c08a016200017b565b91506200020760e08a016200017b565b90509295985092959890939650565b60008160001904831182151516156200023f57634e487b7160e01b600052601160045260246000fd5b500290565b6000826200026257634e487b7160e01b600052601260045260246000fd5b500490565b613dad80620002776000396000f3fe60806040526004361061025b5760003560e01c8063667ba0f611610144578063cc500ec9116100b6578063f283865f1161007a578063f283865f146107ea578063f5b272281461080a578063f6020f011461082a578063fa569fa214610859578063fcbace5d14610891578063fd5201be146108b157600080fd5b8063cc500ec914610761578063d6aad1b914610780578063dcc1484a14610795578063e98b25f9146107aa578063f0c36955146107ca57600080fd5b8063904a9d1711610108578063904a9d17146105ef5780639699fee614610605578063a41dacd614610625578063a87430ba1461063b578063b986695b14610710578063ca6e03851461072657600080fd5b8063667ba0f614610523578063701341ed1461055b578063750142e61461057e5780638b2f56fb146105945780638fe557a1146105cf57600080fd5b80633aa8f2ed116101dd57806345e4c379116101a157806345e4c379146104275780634d4d2b1c1461045f5780634e49ad78146104aa578063508be15e146104c057806359ac0c46146104d657806364a3e2211461050357600080fd5b80633aa8f2ed146103a75780633eee0426146103c75780633f4f2d62146103dd57806340365852146103fe5780634420e4861461041457600080fd5b8063186beae311610224578063186beae3146103195780631aa3a0081461033b5780631b2ccc091461034357806333f93bcd1461035957806335c1d3491461036f57600080fd5b80625c43a5146102605780630899604c14610289578063095083af146102a057806311da60b4146102d8578063146ca531146102ed575b600080fd5b34801561026c57600080fd5b50610276600c5481565b6040519081526020015b60405180910390f35b34801561029557600080fd5b5061029e6108c7565b005b3480156102ac57600080fd5b506102766102bb3660046136a8565b601260209081526000928352604080842090915290825290205481565b3480156102e457600080fd5b5061029e610adb565b3480156102f957600080fd5b506001546103079060ff1681565b60405160ff9091168152602001610280565b34801561032557600080fd5b5060015461030790640100000000900460ff1681565b61029e611cab565b34801561034f57600080fd5b5061027660005481565b34801561036557600080fd5b5061027660085481565b34801561037b57600080fd5b5061038f61038a3660046136db565b611d4c565b6040516001600160a01b039091168152602001610280565b3480156103b357600080fd5b5061029e6103c23660046136f4565b611d76565b3480156103d357600080fd5b5061027660095481565b3480156103e957600080fd5b50600154610307906301000000900460ff1681565b34801561040a57600080fd5b50610276600a5481565b61029e61042236600461371e565b6120e5565b34801561043357600080fd5b506102766104423660046136a8565b601360209081526000928352604080842090915290825290205481565b34801561046b57600080fd5b5061049a61047a366004613740565b601060209081526000928352604080842090915290825290205460ff1681565b6040519015158152602001610280565b3480156104b657600080fd5b5061027660025481565b3480156104cc57600080fd5b5061027660055481565b3480156104e257600080fd5b506102766104f136600461376a565b60156020526000908152604090205481565b34801561050f57600080fd5b5061029e61051e366004613785565b612187565b34801561052f57600080fd5b5061027661053e3660046137a7565b601760209081526000928352604080842090915290825290205481565b34801561056757600080fd5b506105706122e4565b604051610280929190613831565b34801561058a57600080fd5b5061027660075481565b3480156105a057600080fd5b506103076105af3660046137a7565b601660209081526000928352604080842090915290825290205460ff1681565b3480156105db57600080fd5b5061029e6105ea3660046138ed565b612559565b3480156105fb57600080fd5b5061027660065481565b34801561061157600080fd5b5061029e6106203660046139a1565b61289e565b34801561063157600080fd5b50610276600b5481565b34801561064757600080fd5b506106bb61065636600461371e565b600f602052600090815260409020805460018201546002830154600390930154919290916001600160a01b0381169060ff600160a01b8204811691600160a81b8104821691600160b01b8204811691600160b81b8104821691600160c01b9091041689565b60408051998a5260208a0198909852968801959095526001600160a01b03909316606087015260ff91821660808701521660a0850152151560c0840152151560e0830152151561010082015261012001610280565b34801561071c57600080fd5b5061027660035481565b34801561073257600080fd5b5061049a610741366004613740565b601160209081526000928352604080842090915290825290205460ff1681565b34801561076d57600080fd5b5060015461030790610100900460ff1681565b34801561078c57600080fd5b5061049a612968565b3480156107a157600080fd5b5061049a612a0b565b3480156107b657600080fd5b5061029e6107c53660046139e3565b612ac8565b3480156107d657600080fd5b5061049a6107e536600461371e565b612ca2565b3480156107f657600080fd5b5061029e6108053660046136db565b612d1e565b34801561081657600080fd5b5061029e6108253660046136db565b612e6a565b34801561083657600080fd5b5061084a61084536600461371e565b612f18565b60405161028093929190613a1e565b34801561086557600080fd5b506102766108743660046137a7565b601460209081526000928352604080842090915290825290205481565b34801561089d57600080fd5b506001546103079062010000900460ff1681565b3480156108bd57600080fd5b5061027660045481565b336000908152600f6020526040902060030154600160b81b900460ff166109095760405162461bcd60e51b815260040161090090613a93565b60405180910390fd5b6002546003541415801561092c57504262015180600a5461092a9190613ac6565b115b61095d5760405162461bcd60e51b81526020600482015260026024820152614e4160f01b6044820152606401610900565b33600090815260136020908152604080832060015460ff168452909152902054156109b05760405162461bcd60e51b815260206004820152600360248201526257464560e81b6044820152606401610900565b336000908152600f60205260409020600101546109f55760405162461bcd60e51b81526020600482015260036024820152622722a360e91b6044820152606401610900565b336000908152600f60205260408120600101805490829055905b600d54811015610a9057336001600160a01b0316600d8281548110610a3657610a36613ade565b6000918252602090912001546001600160a01b03161415610a7e57600d8181548110610a6457610a64613ade565b600091825260209091200180546001600160a01b03191690555b80610a8881613af4565b915050610a0f565b50336000818152600f6020526040808220600301805460ff60b81b191690555183156108fc0291849190818181858888f19350505050158015610ad7573d6000803e3d6000fd5b5050565b600080610ae9600e8261350b565b60005b600d54811015610b88576000600f6000600d8481548110610b0f57610b0f613ade565b60009182526020808320909101546001600160a01b031683528201929092526040019020600381015490915060ff600160a01b9091041660011415610b7557600c548160010154610b609190613b0f565b6001820155600c54610b729084613ac6565b92505b5080610b8081613af4565b915050610aec565b5060005b600d54811015610f0d576000600f6000600d8481548110610baf57610baf613ade565b60009182526020808320909101546001600160a01b031683528201929092526040019020600381015490915060ff600160b81b9091041615610efa57600081600201541215610ee45760038101546001805460ff600160a81b9093048316928291610c21918591610100900416613b26565b92506101000a81548160ff021916908360ff1602179055506000600160029054906101000a900460ff1660ff168260010154610c5d9190613b49565b600154600554919250610c7a916201000090910460ff1690613b49565b82600101541115610d9c5760038201805460ff60b01b198116600160b01b178255600e8054600181810183556000929092527fbb7b4a454dc3493923482f07822329ed19e8244eff582cc204f8554c3620c3fd0180546001600160a01b0319166001600160a01b0390931692909217909155815460ff60c01b1916909155820154610d06908290613b0f565b60018301556002820154610d1b908290613b6b565b6002830155610d2a8186613ac6565b94507f641368b934d33e657fe49c6af1c0e5b618d4dc123f53fc3f8d5f15fee5f4fb86600d8481548110610d6057610d60613ade565b60009182526020909120015460028401546001850154604051610d8f936001600160a01b031692918691613baa565b60405180910390a1610ede565b60038201805461ffff60b01b1916600160b01b179055600d8054600e919085908110610dca57610dca613ade565b6000918252602080832090910154835460018181018655948452919092200180546001600160a01b0319166001600160a01b0390921691909117905560038301805460ff60c01b19169055820154610e229086613ac6565b94507f6a461179a109ac5a4f65774b04343a475dd7d089ffa5a31552a4d71e0a1e7b4f600d8481548110610e5857610e58613ade565b600091825260208220015460028501546001860154604051610e86946001600160a01b039094169390613baa565b60405180910390a160008260010181905550600160026000828254610eab9190613b0f565b9091555050600d805484908110610ec457610ec4613ade565b600091825260209091200180546001600160a01b03191690555b50610efa565b60038101805460ff60c01b1916600160c01b1790555b5080610f0581613af4565b915050610b8c565b5060005b600d5481101561116f576000600f6000600d8481548110610f3457610f34613ade565b60009182526020808320909101546001600160a01b031683528201929092526040019020600381015490915060ff600160b81b909104161561115c5760005b600e5481101561115a5760116000600d8581548110610f9457610f94613ade565b60009182526020808320909101546001600160a01b031683528201929092526040018120600e805491929184908110610fcf57610fcf613ade565b60009182526020808320909101546001600160a01b0316835282019290925260400190205460ff161561114857600060116000600d868154811061101557611015613ade565b60009182526020808320909101546001600160a01b031683528201929092526040018120600e80549192918590811061105057611050613ade565b6000918252602080832091909101546001600160a01b031683528201929092526040019020805460ff191691151591909117905560038201546001805460ff600160a81b90930483169282916110ad918591610100900416613b26565b825460ff9182166101009390930a92830291909202199091161790555060038201805460ff60c01b19169055600d80547f1774dd77faaf323cd25b2f963ff975744949b339a6d103b4e3959263f6c2f97791908590811061111057611110613ade565b60009182526020822001546002850154600186015460405161113f946001600160a01b03909416939190613baa565b60405180910390a15b8061115281613af4565b915050610f73565b505b508061116781613af4565b915050610f11565b5060005b600d5481101561125b576000600f6000600d848154811061119657611196613ade565b60009182526020808320909101546001600160a01b031683528201929092526040019020600381015490915060ff600160b81b9091041615611248576003810154600160a01b900460ff1660011415611248576003810154600160c01b900460ff161561122857600c54816001015461120f9190613ac6565b6001820155600c546112219084613b0f565b9250611248565b600c546112359085613ac6565b9350600c54836112459190613b0f565b92505b508061125381613af4565b915050611173565b506001546000908190610100900460ff161580159061127e575060085460095410155b15611ab757600854600960008282546112979190613b0f565b909155505060085484156112b2576112af8582613ac6565b90505b60005b600d54811015611412576000600f6000600d84815481106112d8576112d8613ade565b60009182526020808320909101546001600160a01b031683528201929092526040019020600381015490915060ff600160b81b90910416801561132657506003810154600160c01b900460ff165b801561133e57506003810154600160b01b900460ff16155b156113ff5760015460ff16600090815260146020908152604080832060038501546001600160a01b03168452909152812054611379906133c1565b60038301546113929190600160a81b900460ff16613bd0565b60015460ff16600090815260146020908152604080832060038701546001600160a01b03168452909152812054919250136113d5576113d081613bef565b6113d7565b805b8260000160008282546113ea9190613c0c565b909155505081546113fb9087613c0c565b9550505b508061140a81613af4565b9150506112b5565b5060005b600d54811015611674576000600f6000600d848154811061143957611439613ade565b60009182526020808320909101546001600160a01b031683528201929092526040019020600381015490915060ff600160b81b90910416801561148757506003810154600160c01b900460ff165b801561149f57506003810154600160b01b900460ff16155b156116615760008513156114b357846114b6565b60015b93506000846114c883600001546133fb565b6114d29086613bd0565b6114dc9190613b49565b60015460ff16600090815260146020908152604080832060038701546001600160a01b03168452909152812054919250138015611534575060015461152c90640100000000900460ff1682613bd0565b826001015411155b1561165f5760018201546115489085613ac6565b93507f6a461179a109ac5a4f65774b04343a475dd7d089ffa5a31552a4d71e0a1e7b4f600d848154811061157e5761157e613ade565b6000918252602082200154600285015460018601546040516115ac946001600160a01b039094169390613baa565b60405180910390a160015460ff16600090815260146020908152604080832060038601546001600160a01b031684529091529020546115ea906133c1565b60038301546116039190600160a81b900460ff16613bd0565b61160d9087613c0c565b95506000826001018190555060016002600082825461162c9190613b0f565b9091555050600d80548490811061164557611645613ade565b600091825260209091200180546001600160a01b03191690555b505b508061166c81613af4565b915050611416565b5060008313156116845782611687565b60015b915060008060005b600d54811015611827576000600f6000600d84815481106116b2576116b2613ade565b60009182526020808320909101546001600160a01b031683528201929092526040019020600381015490915060ff600160b81b90910416801561170057506003810154600160c01b900460ff165b801561171857506003810154600160b01b900460ff16155b801561174e575060015460ff16600090815260146020908152604080832060038501546001600160a01b03168452909152812054125b156118145760008661176383600001546133fb565b61176d9088613bd0565b6117779190613b49565b60015490915060009061179590640100000000900460ff1683613bd0565b9050808360010160008282546117ab9190613b0f565b909155506117bb90508187613ac6565b6003840154600285015460018601546040519399507ff002da1cc235dd7b3cd93cb91c128fe6e777fb632383da5ff2603123883748b193611809936001600160a01b03169291600091613baa565b60405180910390a150505b508061181f81613af4565b91505061168f565b506118328284613ac6565b925060005b600d5481101561191d576000600f6000600d848154811061185a5761185a613ade565b60009182526020808320909101546001600160a01b031683528201929092526040019020600381015490915060ff600160b81b9091041680156118a857506003810154600160c01b900460ff165b80156118c057506003810154600160b01b900460ff16155b80156118f6575060015460ff16600090815260146020908152604080832060038501546001600160a01b03168452909152812054135b1561190a5780546119079084613ac6565b92505b508061191581613af4565b915050611837565b50801561192a578061192d565b60015b905060005b600d54811015611ab2576000600f6000600d848154811061195557611955613ade565b60009182526020808320909101546001600160a01b031683528201929092526040019020600381015490915060ff600160b81b9091041680156119a357506003810154600160c01b900460ff165b80156119bb57506003810154600160b01b900460ff16155b80156119f1575060015460ff16600090815260146020908152604080832060038501546001600160a01b03168452909152812054135b15611a8d57600083611a0683600001546133fb565b611a109088613bd0565b611a1a9190613b49565b905080826001016000828254611a309190613ac6565b90915550506003820154600283015460018401546040517ff002da1cc235dd7b3cd93cb91c128fe6e777fb632383da5ff2603123883748b193611a83936001600160a01b03909116929091869190613baa565b60405180910390a1505b60038101805460ff60c01b191690556000905580611aaa81613af4565b915050611932565b505050505b6001546040805160ff808416825261010090930490921660208301528101829052606081018590527f0fb9071657a7d7c77d4413e1c8487bb219c39de920f3297977dd60bf0e00d33d9060800160405180910390a160005b600d54811015611c60576000600f6000600d8481548110611b3257611b32613ade565b60009182526020808320909101546001600160a01b031683528201929092526040019020600381015490915060ff600160b81b9091041615611c4d5760038101805460ff60a81b19168082556000600284015560019190601490611ba1908490600160a01b900460ff16613c4d565b825460ff9182166101009390930a92830291909202199091161790555060038101805460ff60b01b1916905560005b600d54811015611c4b5760038201546001600160a01b03166000908152601060205260408120600d805491929184908110611c0d57611c0d613ade565b60009182526020808320909101546001600160a01b031683528201929092526040019020805460ff1916905580611c4381613af4565b915050611bd0565b505b5080611c5881613af4565b915050611b0f565b50600180548190600090611c7890839060ff16613c4d565b825460ff9182166101009390930a928302919092021990911617905550506001805461ff00191690555050600060035550565b336000908152600f6020526040902060030154600160b81b900460ff1615611cfb5760405162461bcd60e51b815260206004820152600360248201526229a0a960e91b6044820152606401610900565b6005543410158015611d0f57506006543411155b611d415760405162461bcd60e51b8152602060048201526003602482015262272ba960e91b6044820152606401610900565b611d4a3361340f565b565b600d8181548110611d5c57600080fd5b6000918252602090912001546001600160a01b0316905081565b336000908152600f6020526040902060030154600160b81b900460ff16611daf5760405162461bcd60e51b815260040161090090613a93565b816001600160a01b038116331415611def5760405162461bcd60e51b815260206004820152600360248201526214d15560ea1b6044820152606401610900565b3360009081526010602090815260408083206001600160a01b038516845290915290205460ff1615611e495760405162461bcd60e51b815260206004820152600360248201526256414360e81b6044820152606401610900565b6002546003541480611e6a57504262015180600a54611e689190613ac6565b105b611e9c5760405162461bcd60e51b815260206004820152600360248201526246524360e81b6044820152606401610900565b3360008181526010602090815260408083206001600160a01b03881684528252808320805460ff19166001908117909155938352600f90915290206003018054601590611ef4908490600160a81b900460ff16613c4d565b92506101000a81548160ff021916908360ff16021790555060018060018282829054906101000a900460ff16611f2a9190613c4d565b92506101000a81548160ff021916908360ff1602179055508160011415611fc3573360008181526011602090815260408083206001600160a01b03881684528252808320805460ff19166001908117909155938352600f9091529020810154611f9291613c72565b6001600160a01b0384166000908152600f602052604081206002018054909190611fbd908490613c0c565b90915550505b816000191415612040573360008181526011602090815260408083206001600160a01b03881684528252808320805460ff19169055928252600f90522060019081015461200f91613c72565b6001600160a01b0384166000908152600f60205260408120600201805490919061203a908490613b6b565b90915550505b81612071573360009081526011602090815260408083206001600160a01b03871684529091529020805460ff191690555b336000818152600f60209081526040808320600101546001600160a01b038816808552938290206002015482519485529284019490945282810193909352606082015290517fd69fe95841f16237d39b30bbb2ed7633b307fb0addc4bb890b6a3a77e04f5f7f9181900360800190a1505050565b336000908152600f6020526040902060030154600160b81b900460ff16156121355760405162461bcd60e51b815260206004820152600360248201526229a0a960e91b6044820152606401610900565b600554341015801561214957506006543411155b61217b5760405162461bcd60e51b8152602060048201526003602482015262272ba960e91b6044820152606401610900565b6121848161340f565b50565b336000908152600f6020526040902060030154600160b81b900460ff166121c05760405162461bcd60e51b815260040161090090613a93565b33600090815260136020908152604080832060015460ff168452909152902054156122135760405162461bcd60e51b815260206004820152600360248201526205341560ec1b6044820152606401610900565b604080516020810184905290810182905233606090811b6bffffffffffffffffffffffff19169082015260740160408051601f1981840301815291815281516020928301203360009081526012845282812060015460ff168252909352912054146122a65760405162461bcd60e51b81526020600482015260036024820152624e4b5360e81b6044820152606401610900565b3360009081526013602090815260408083206001805460ff1685529252822084905560038054919290916122db908490613ac6565b90915550505050565b6060806000805b600d5481101561235b576000600f6000600d848154811061230e5761230e613ade565b60009182526020808320909101546001600160a01b031683528201929092526040019020600201541261234957612346600183613c4d565b91505b8061235381613af4565b9150506122eb565b508060ff1667ffffffffffffffff81111561237857612378613cf7565b6040519080825280602002602001820160405280156123a1578160200160208202803683370190505b5092508060ff1667ffffffffffffffff8111156123c0576123c0613cf7565b6040519080825280602002602001820160405280156123e9578160200160208202803683370190505b5091506000805b600d54811015612552576000600f6000600d848154811061241357612413613ade565b60009182526020808320909101546001600160a01b03168352820192909252604001902060020154126125405760015460ff166000908152601660205260408120600d80549192918490811061246b5761246b613ade565b60009182526020808320909101546001600160a01b03168352820192909252604001902054855160ff9182169187919085169081106124ac576124ac613ade565b60ff9283166020918202929092018101919091526001549091166000908152601790915260408120600d8054919291849081106124eb576124eb613ade565b60009182526020808320909101546001600160a01b031683528201929092526040019020548451859060ff851690811061252757612527613ade565b60209081029190910101528161253c81613d0d565b9250505b8061254a81613af4565b9150506123f0565b5050509091565b6060806000808b60348c04604051955060208102602001860160405280865260005b818110156125a357823560601c6020828102890101819052945060149092019160010161257b565b506040519450602081026020018501604052808552600093505b808410156125e5578135925082602085026020870101526020820191506001840193506125bd565b505083518914915061263b90505760405162461bcd60e51b815260206004820181905260248201527f494e56414c49445f4c454e475448204f462041434355524143592041525241596044820152606401610900565b8151851461268b5760405162461bcd60e51b815260206004820152601c60248201527f494e56414c49445f4c454e475448204f46204c4f5353204152524159000000006044820152606401610900565b60015460ff166000908152601860209081526040808320338452825291829020825160608101845285815283518b840281810185019095528b81529193909283810192918d918d9182918501908490808284376000920191909152505050908252506040805160208a810282810182019093528a82529283019290918b918b9182918501908490808284376000920182905250939094525050835460018101855593815260209081902083518051949560030290910193612753935084929190910190613529565b50602082810151805161276c926001850192019061358a565b506040820151805161278891600284019160209091019061362b565b505050606460ff851611156127ef5760405162461bcd60e51b815260206004820152602760248201527f50524556494f5553204143435552414359204e4f54204245545745454e2030206044820152660414e44203130360cc1b6064820152608401610900565b6001805460ff908116600090815260166020908152604080832033808552908352818420805460ff19168b871617905594549093168252601781528282209382529290925281208490555b82518110156128915761287f83828151811061285857612858613ade565b602002602001015183838151811061287257612872613ade565b6020026020010151611d76565b8061288981613af4565b91505061283a565b5050505050505050505050565b6060806000808560348604604051955060208102602001860160405280865260005b818110156128e857823560601c602082810289010181905294506014909201916001016128c0565b506040519450602081026020018501604052808552600093505b8084101561292a57813592508260208502602087010152602082019150600184019350612902565b5050505060005b82518110156129615761294f83828151811061285857612858613ade565b8061295981613af4565b915050612931565b5050505050565b600080805b600d548110156129de576000600f6000600d848154811061299057612990613ade565b60009182526020808320909101546001600160a01b0316835282019290925260400190206002015412156129cc57816129c881613af4565b9250505b806129d681613af4565b91505061296d565b5060015460ff16600090815260156020526040902054811115612a0357600091505090565b600191505090565b600060025460001415612a1e5750600090565b60005b600d54811015612ac0576000600f6000600d8481548110612a4457612a44613ade565b60009182526020808320909101546001600160a01b031683528201929092526040019020600381015490915060ff600160b81b9091041615612aad576001600254612a8f9190613b0f565b6003820154600160a81b900460ff161015612aad5760009250505090565b5080612ab881613af4565b915050612a21565b506001905090565b612ad4600d600061350b565b612ae460a082016080830161376a565b6001805460ff191660ff929092169190911790556000612b048280613d2d565b9050905060005b81811015612c87576000612b1f8480613d2d565b83818110612b2f57612b2f613ade565b9050602002016020810190612b44919061371e565b9050612c7481612b576020870187613d2d565b85818110612b6757612b67613ade565b90506020020135868060400190612b7e9190613d2d565b86818110612b8e57612b8e613ade565b90506020020135878060600190612ba59190613d2d565b87818110612bb557612bb5613ade565b9050602002016020810190612bca919061376a565b600d805460018181019092557fd7b6990105719101dabeb77144f2a3385c8033acd3af97e9423a695e81ad1eb50180546001600160a01b039096166001600160a01b0319909616861790556000858152600f602052604081206003810180549382019690965560028101949094559092556001600160a81b031960ff91909116600160a81b0263ffffffff60a81b1990921691909117600160b81b1716909117600160a01b179055565b5080612c7f81613af4565b915050612b0b565b506001805461ff00191661010060ff84160217905560025550565b600e5460009015612cb557506001919050565b60005b600e54811015612d1557826001600160a01b0316600e8281548110612cdf57612cdf613ade565b6000918252602090912001546001600160a01b03161415612d035750600192915050565b80612d0d81613af4565b915050612cb8565b50600092915050565b336000908152600f6020526040902060030154600160b81b900460ff16612d7d5760405162461bcd60e51b8152602060048201526013602482015272155cd95c881b9bdd081c9959da5cdd195c9959606a1b6044820152606401610900565b60015460ff16600090815260146020908152604080832033845290915290205415612dea5760405162461bcd60e51b815260206004820152601760248201527f53636f726520616c7265616479207375626d69747465640000000000000000006044820152606401610900565b6001805460ff9081166000908152601460209081526040808320338452825280832086905584549093168252601590529081208054909190612e2d908490613ac6565b909155505060405181815233907f20e6c7c82a3c0a8203efca055fc9a664ca649345957ddc3ba34b2912e9ed83739060200160405180910390a250565b336000908152600f6020526040902060030154600160b81b900460ff16612ea35760405162461bcd60e51b815260040161090090613a93565b33600090815260136020908152604080832060015460ff16845290915290205415612ef65760405162461bcd60e51b815260206004820152600360248201526205341560ec1b6044820152606401610900565b33600090815260126020908152604080832060015460ff168452909152902055565b60608060606000805b600d548110156130a3576000600d8281548110612f4057612f40613ade565b600091825260208083209091015460015460ff1683526018825260408084206001600160a01b039092168085529190925290822054909250905b8181101561308d5760015460ff1660009081526018602090815260408083206001600160a01b03871684529091528120805483908110612fbc57612fbc613ade565b9060005260206000209060030201905060005b8154811015613078578a6001600160a01b0316826000018281548110612ff757612ff7613ade565b6000918252602090912001546001600160a01b03161415613066576000600f6000600d898154811061302b5761302b613ade565b60009182526020808320909101546001600160a01b0316835282019290925260400190206002015412613066578661306281613af4565b9750505b8061307081613af4565b915050612fcf565b5050808061308590613af4565b915050612f7a565b505050808061309b90613af4565b915050612f21565b508067ffffffffffffffff8111156130bd576130bd613cf7565b6040519080825280602002602001820160405280156130e6578160200160208202803683370190505b5093508067ffffffffffffffff81111561310257613102613cf7565b60405190808252806020026020018201604052801561312b578160200160208202803683370190505b5092508067ffffffffffffffff81111561314757613147613cf7565b604051908082528060200260200182016040528015613170578160200160208202803683370190505b5091506000805b600d548110156133b7576000600f6000600d848154811061319a5761319a613ade565b60009182526020808320909101546001600160a01b039081168452838201949094526040928301822060015460ff1683526018825283832060038201549095168352939052908120549192505b818110156133a15760015460ff16600090815260186020908152604080832060038701546001600160a01b03168452909152812080548390811061322d5761322d613ade565b9060005260206000209060030201905060005b815481101561338c578b6001600160a01b031682600001828154811061326857613268613ade565b6000918252602090912001546001600160a01b0316141561337a57600085600201541261337a5760038501548b516001600160a01b03909116908c90899081106132b4576132b4613ade565b60200260200101906001600160a01b031690816001600160a01b0316815250508160010181815481106132e9576132e9613ade565b90600052602060002090602091828204019190069054906101000a900460ff168a888151811061331b5761331b613ade565b602002602001019060ff16908160ff168152505081600201818154811061334457613344613ade565b906000526020600020015489888151811061336157613361613ade565b60209081029190910101528661337681613af4565b9750505b8061338481613af4565b915050613240565b5050808061339990613af4565b9150506131e7565b50505080806133af90613af4565b915050613177565b5050509193909250565b60008082126133ce575090565b600160ff1b8214156133f2576133ec6001600160ff1b036001613ac6565b92915050565b6133ec82613bef565b600080821361340b5760006133ec565b5090565b6001600160a01b0381166000908152600f6020526040812060038101805460ff60b81b1916600160b81b179055346001918201556002805491929091613456908490613ac6565b9091555050600d8054600181019091557fd7b6990105719101dabeb77144f2a3385c8033acd3af97e9423a695e81ad1eb50180546001600160a01b0383166001600160a01b031990911681179091556000908152600f602052604090819020600301805460ff60a01b1916600160a01b17905560025490517fabe5b1202d1f4ed2c1baccf335320ceae3abd90670864b741e80a2ef5671d882916135009184913491479190613baa565b60405180910390a150565b50805460008255906000526020600020908101906121849190613666565b82805482825590600052602060002090810192821561357e579160200282015b8281111561357e57825182546001600160a01b0319166001600160a01b03909116178255602090920191600190910190613549565b5061340b929150613666565b82805482825590600052602060002090601f0160209004810192821561357e5791602002820160005b838211156135f157835183826101000a81548160ff021916908360ff16021790555092602001926001016020816000010492830192600103026135b3565b801561361e5782816101000a81549060ff02191690556001016020816000010492830192600103026135f1565b505061340b929150613666565b82805482825590600052602060002090810192821561357e579160200282015b8281111561357e57825182559160200191906001019061364b565b5b8082111561340b5760008155600101613667565b80356001600160a01b038116811461369257600080fd5b919050565b803560ff8116811461369257600080fd5b600080604083850312156136bb57600080fd5b6136c48361367b565b91506136d260208401613697565b90509250929050565b6000602082840312156136ed57600080fd5b5035919050565b6000806040838503121561370757600080fd5b6137108361367b565b946020939093013593505050565b60006020828403121561373057600080fd5b6137398261367b565b9392505050565b6000806040838503121561375357600080fd5b61375c8361367b565b91506136d26020840161367b565b60006020828403121561377c57600080fd5b61373982613697565b6000806040838503121561379857600080fd5b50508035926020909101359150565b600080604083850312156137ba57600080fd5b61375c83613697565b600081518084526020808501945080840160005b838110156137f657815160ff16875295820195908201906001016137d7565b509495945050505050565b600081518084526020808501945080840160005b838110156137f657815187529582019590820190600101613815565b60408152600061384460408301856137c3565b82810360208401526138568185613801565b95945050505050565b60008083601f84011261387157600080fd5b50813567ffffffffffffffff81111561388957600080fd5b6020830191508360208285010111156138a157600080fd5b9250929050565b60008083601f8401126138ba57600080fd5b50813567ffffffffffffffff8111156138d257600080fd5b6020830191508360208260051b85010111156138a157600080fd5b60008060008060008060008060a0898b03121561390957600080fd5b883567ffffffffffffffff8082111561392157600080fd5b61392d8c838d0161385f565b909a50985060208b013591508082111561394657600080fd5b6139528c838d016138a8565b909850965060408b013591508082111561396b57600080fd5b506139788b828c016138a8565b909550935061398b905060608a01613697565b9150608089013590509295985092959890939650565b600080602083850312156139b457600080fd5b823567ffffffffffffffff8111156139cb57600080fd5b6139d78582860161385f565b90969095509350505050565b6000602082840312156139f557600080fd5b813567ffffffffffffffff811115613a0c57600080fd5b820160a0818503121561373957600080fd5b606080825284519082018190526000906020906080840190828801845b82811015613a605781516001600160a01b031684529284019290840190600101613a3b565b50505083810382850152613a7481876137c3565b9150508281036040840152613a898185613801565b9695505050505050565b60208082526003908201526229a72960e91b604082015260600190565b634e487b7160e01b600052601160045260246000fd5b60008219821115613ad957613ad9613ab0565b500190565b634e487b7160e01b600052603260045260246000fd5b6000600019821415613b0857613b08613ab0565b5060010190565b600082821015613b2157613b21613ab0565b500390565b600060ff821660ff841680821015613b4057613b40613ab0565b90039392505050565b600082613b6657634e487b7160e01b600052601260045260246000fd5b500490565b60008083128015600160ff1b850184121615613b8957613b89613ab0565b6001600160ff1b0384018313811615613ba457613ba4613ab0565b50500390565b6001600160a01b0394909416845260208401929092526040830152606082015260800190565b6000816000190483118215151615613bea57613bea613ab0565b500290565b6000600160ff1b821415613c0557613c05613ab0565b5060000390565b600080821280156001600160ff1b0384900385131615613c2e57613c2e613ab0565b600160ff1b8390038412811615613c4757613c47613ab0565b50500190565b600060ff821660ff84168060ff03821115613c6a57613c6a613ab0565b019392505050565b60006001600160ff1b0381841382841380821686840486111615613c9857613c98613ab0565b600160ff1b6000871282811687830589121615613cb757613cb7613ab0565b60008712925087820587128484161615613cd357613cd3613ab0565b87850587128184161615613ce957613ce9613ab0565b505050929093029392505050565b634e487b7160e01b600052604160045260246000fd5b600060ff821660ff811415613d2457613d24613ab0565b60010192915050565b6000808335601e19843603018112613d4457600080fd5b83018035915067ffffffffffffffff821115613d5f57600080fd5b6020019150600581901b36038213156138a157600080fdfea2646970667358221220569699cb247ddadf22ada1644193ed31b125a84a1f6df56ea9a1c772f5c71c2864736f6c63430008090033","opcodes":"PUSH1 0x80 PUSH1 0x40 MSTORE PUSH1 0x1 DUP1 SLOAD PUSH1 0xFF NOT AND SWAP1 SSTORE CALLVALUE DUP1 ISZERO PUSH3 0x1B JUMPI PUSH1 0x0 DUP1 REVERT JUMPDEST POP PUSH1 0x40 MLOAD PUSH3 0x4024 CODESIZE SUB DUP1 PUSH3 0x4024 DUP4 CODECOPY DUP2 ADD PUSH1 0x40 DUP2 SWAP1 MSTORE PUSH3 0x3E SWAP2 PUSH3 0x192 JUMP JUMPDEST TIMESTAMP PUSH1 0x4 DUP2 SWAP1 SSTORE PUSH1 0xA SSTORE PUSH1 0x0 DUP9 SWAP1 SSTORE PUSH1 0x5 DUP8 SWAP1 SSTORE PUSH1 0x6 DUP7 SWAP1 SSTORE PUSH1 0x7 DUP6 SWAP1 SSTORE PUSH1 0x1 DUP1 SLOAD PUSH4 0xFFFF0000 NOT AND PUSH4 0x1000000 PUSH1 0xFF DUP8 DUP2 AND SWAP2 SWAP1 SWAP2 MUL PUSH3 0xFF0000 NOT AND SWAP2 SWAP1 SWAP2 OR PUSH3 0x10000 DUP7 DUP4 AND MUL OR PUSH1 0xFF PUSH1 0x20 SHL NOT AND PUSH5 0x100000000 DUP6 DUP4 AND MUL OR SWAP1 SWAP2 SSTORE DUP9 SWAP1 DUP9 SWAP1 DUP9 SWAP1 DUP9 SWAP1 DUP9 SWAP1 DUP9 SWAP1 DUP9 SWAP1 DUP9 SWAP1 PUSH1 0x64 SWAP1 PUSH3 0xBD SWAP1 DUP4 AND DUP10 PUSH3 0x216 JUMP JUMPDEST PUSH3 0xC9 SWAP2 SWAP1 PUSH3 0x244 JUMP JUMPDEST PUSH1 0xC SSTORE PUSH1 0x1 SLOAD PUSH1 0x7 SLOAD PUSH3 0xE8 SWAP2 PUSH4 0x1000000 SWAP1 DIV PUSH1 0xFF AND SWAP1 PUSH3 0x244 JUMP JUMPDEST PUSH1 0x8 SSTORE PUSH1 0x7 SLOAD PUSH1 0x9 DUP2 SWAP1 SSTORE PUSH1 0x4 SLOAD PUSH1 0x5 SLOAD PUSH1 0x6 SLOAD PUSH1 0x1 SLOAD PUSH1 0xC SLOAD PUSH1 0x40 DUP1 MLOAD SWAP6 DUP7 MSTORE PUSH1 0x20 DUP7 ADD SWAP5 SWAP1 SWAP5 MSTORE SWAP3 DUP5 ADD SWAP2 SWAP1 SWAP2 MSTORE PUSH1 0x60 DUP4 ADD SWAP4 SWAP1 SWAP4 MSTORE PUSH4 0x1000000 SWAP1 SWAP3 DIV PUSH1 0xFF AND PUSH1 0x80 DUP3 ADD MSTORE PUSH1 0xA0 DUP2 ADD SWAP2 SWAP1 SWAP2 MSTORE PUSH32 0xD910741DA174A91F8B84705AFEAF69767BD61D4AC64620028ADE113E57693251 SWAP1 PUSH1 0xC0 ADD PUSH1 0x40 MLOAD DUP1 SWAP2 SUB SWAP1 LOG1 POP POP POP POP POP POP POP POP POP POP POP POP POP POP POP POP PUSH3 0x267 JUMP JUMPDEST DUP1 MLOAD PUSH1 0xFF DUP2 AND DUP2 EQ PUSH3 0x18D JUMPI PUSH1 0x0 DUP1 REVERT JUMPDEST SWAP2 SWAP1 POP JUMP JUMPDEST PUSH1 0x0 DUP1 PUSH1 0x0 DUP1 PUSH1 0x0 DUP1 PUSH1 0x0 DUP1 PUSH2 0x100 DUP10 DUP12 SUB SLT ISZERO PUSH3 0x1B0 JUMPI PUSH1 0x0 DUP1 REVERT JUMPDEST DUP9 MLOAD SWAP8 POP PUSH1 0x20 DUP10 ADD MLOAD SWAP7 POP PUSH1 0x40 DUP10 ADD MLOAD SWAP6 POP PUSH1 0x60 DUP10 ADD MLOAD SWAP5 POP PUSH3 0x1D7 PUSH1 0x80 DUP11 ADD PUSH3 0x17B JUMP JUMPDEST SWAP4 POP PUSH3 0x1E7 PUSH1 0xA0 DUP11 ADD PUSH3 0x17B JUMP JUMPDEST SWAP3 POP PUSH3 0x1F7 PUSH1 0xC0 DUP11 ADD PUSH3 0x17B JUMP JUMPDEST SWAP2 POP PUSH3 0x207 PUSH1 0xE0 DUP11 ADD PUSH3 0x17B JUMP JUMPDEST SWAP1 POP SWAP3 SWAP6 SWAP9 POP SWAP3 SWAP6 SWAP9 SWAP1 SWAP4 SWAP7 POP JUMP JUMPDEST PUSH1 0x0 DUP2 PUSH1 0x0 NOT DIV DUP4 GT DUP3 ISZERO ISZERO AND ISZERO PUSH3 0x23F JUMPI PUSH4 0x4E487B71 PUSH1 0xE0 SHL PUSH1 0x0 MSTORE PUSH1 0x11 PUSH1 0x4 MSTORE PUSH1 0x24 PUSH1 0x0 REVERT JUMPDEST POP MUL SWAP1 JUMP JUMPDEST PUSH1 0x0 DUP3 PUSH3 0x262 JUMPI PUSH4 0x4E487B71 PUSH1 0xE0 SHL PUSH1 0x0 MSTORE PUSH1 0x12 PUSH1 0x4 MSTORE PUSH1 0x24 PUSH1 0x0 REVERT JUMPDEST POP DIV SWAP1 JUMP JUMPDEST PUSH2 0x3DAD DUP1 PUSH3 0x277 PUSH1 0x0 CODECOPY PUSH1 0x0 RETURN INVALID PUSH1 0x80 PUSH1 0x40 MSTORE PUSH1 0x4 CALLDATASIZE LT PUSH2 0x25B JUMPI PUSH1 0x0 CALLDATALOAD PUSH1 0xE0 SHR DUP1 PUSH4 0x667BA0F6 GT PUSH2 0x144 JUMPI DUP1 PUSH4 0xCC500EC9 GT PUSH2 0xB6 JUMPI DUP1 PUSH4 0xF283865F GT PUSH2 0x7A JUMPI DUP1 PUSH4 0xF283865F EQ PUSH2 0x7EA JUMPI DUP1 PUSH4 0xF5B27228 EQ PUSH2 0x80A JUMPI DUP1 PUSH4 0xF6020F01 EQ PUSH2 0x82A JUMPI DUP1 PUSH4 0xFA569FA2 EQ PUSH2 0x859 JUMPI DUP1 PUSH4 0xFCBACE5D EQ PUSH2 0x891 JUMPI DUP1 PUSH4 0xFD5201BE EQ PUSH2 0x8B1 JUMPI PUSH1 0x0 DUP1 REVERT JUMPDEST DUP1 PUSH4 0xCC500EC9 EQ PUSH2 0x761 JUMPI DUP1 PUSH4 0xD6AAD1B9 EQ PUSH2 0x780 JUMPI DUP1 PUSH4 0xDCC1484A EQ PUSH2 0x795 JUMPI DUP1 PUSH4 0xE98B25F9 EQ PUSH2 0x7AA JUMPI DUP1 PUSH4 0xF0C36955 EQ PUSH2 0x7CA JUMPI PUSH1 0x0 DUP1 REVERT JUMPDEST DUP1 PUSH4 0x904A9D17 GT PUSH2 0x108 JUMPI DUP1 PUSH4 0x904A9D17 EQ PUSH2 0x5EF JUMPI DUP1 PUSH4 0x9699FEE6 EQ PUSH2 0x605 JUMPI DUP1 PUSH4 0xA41DACD6 EQ PUSH2 0x625 JUMPI DUP1 PUSH4 0xA87430BA EQ PUSH2 0x63B JUMPI DUP1 PUSH4 0xB986695B EQ PUSH2 0x710 JUMPI DUP1 PUSH4 0xCA6E0385 EQ PUSH2 0x726 JUMPI PUSH1 0x0 DUP1 REVERT JUMPDEST DUP1 PUSH4 0x667BA0F6 EQ PUSH2 0x523 JUMPI DUP1 PUSH4 0x701341ED EQ PUSH2 0x55B JUMPI DUP1 PUSH4 0x750142E6 EQ PUSH2 0x57E JUMPI DUP1 PUSH4 0x8B2F56FB EQ PUSH2 0x594 JUMPI DUP1 PUSH4 0x8FE557A1 EQ PUSH2 0x5CF JUMPI PUSH1 0x0 DUP1 REVERT JUMPDEST DUP1 PUSH4 0x3AA8F2ED GT PUSH2 0x1DD JUMPI DUP1 PUSH4 0x45E4C379 GT PUSH2 0x1A1 JUMPI DUP1 PUSH4 0x45E4C379 EQ PUSH2 0x427 JUMPI DUP1 PUSH4 0x4D4D2B1C EQ PUSH2 0x45F JUMPI DUP1 PUSH4 0x4E49AD78 EQ PUSH2 0x4AA JUMPI DUP1 PUSH4 0x508BE15E EQ PUSH2 0x4C0 JUMPI DUP1 PUSH4 0x59AC0C46 EQ PUSH2 0x4D6 JUMPI DUP1 PUSH4 0x64A3E221 EQ PUSH2 0x503 JUMPI PUSH1 0x0 DUP1 REVERT JUMPDEST DUP1 PUSH4 0x3AA8F2ED EQ PUSH2 0x3A7 JUMPI DUP1 PUSH4 0x3EEE0426 EQ PUSH2 0x3C7 JUMPI DUP1 PUSH4 0x3F4F2D62 EQ PUSH2 0x3DD JUMPI DUP1 PUSH4 0x40365852 EQ PUSH2 0x3FE JUMPI DUP1 PUSH4 0x4420E486 EQ PUSH2 0x414 JUMPI PUSH1 0x0 DUP1 REVERT JUMPDEST DUP1 PUSH4 0x186BEAE3 GT PUSH2 0x224 JUMPI DUP1 PUSH4 0x186BEAE3 EQ PUSH2 0x319 JUMPI DUP1 PUSH4 0x1AA3A008 EQ PUSH2 0x33B JUMPI DUP1 PUSH4 0x1B2CCC09 EQ PUSH2 0x343 JUMPI DUP1 PUSH4 0x33F93BCD EQ PUSH2 0x359 JUMPI DUP1 PUSH4 0x35C1D349 EQ PUSH2 0x36F JUMPI PUSH1 0x0 DUP1 REVERT JUMPDEST DUP1 PUSH3 0x5C43A5 EQ PUSH2 0x260 JUMPI DUP1 PUSH4 0x899604C EQ PUSH2 0x289 JUMPI DUP1 PUSH4 0x95083AF EQ PUSH2 0x2A0 JUMPI DUP1 PUSH4 0x11DA60B4 EQ PUSH2 0x2D8 JUMPI DUP1 PUSH4 0x146CA531 EQ PUSH2 0x2ED JUMPI JUMPDEST PUSH1 0x0 DUP1 REVERT JUMPDEST CALLVALUE DUP1 ISZERO PUSH2 0x26C JUMPI PUSH1 0x0 DUP1 REVERT JUMPDEST POP PUSH2 0x276 PUSH1 0xC SLOAD DUP2 JUMP JUMPDEST PUSH1 0x40 MLOAD SWAP1 DUP2 MSTORE PUSH1 0x20 ADD JUMPDEST PUSH1 0x40 MLOAD DUP1 SWAP2 SUB SWAP1 RETURN JUMPDEST CALLVALUE DUP1 ISZERO PUSH2 0x295 JUMPI PUSH1 0x0 DUP1 REVERT JUMPDEST POP PUSH2 0x29E PUSH2 0x8C7 JUMP JUMPDEST STOP JUMPDEST CALLVALUE DUP1 ISZERO PUSH2 0x2AC JUMPI PUSH1 0x0 DUP1 REVERT JUMPDEST POP PUSH2 0x276 PUSH2 0x2BB CALLDATASIZE PUSH1 0x4 PUSH2 0x36A8 JUMP JUMPDEST PUSH1 0x12 PUSH1 0x20 SWAP1 DUP2 MSTORE PUSH1 0x0 SWAP3 DUP4 MSTORE PUSH1 0x40 DUP1 DUP5 KECCAK256 SWAP1 SWAP2 MSTORE SWAP1 DUP3 MSTORE SWAP1 KECCAK256 SLOAD DUP2 JUMP JUMPDEST CALLVALUE DUP1 ISZERO PUSH2 0x2E4 JUMPI PUSH1 0x0 DUP1 REVERT JUMPDEST POP PUSH2 0x29E PUSH2 0xADB JUMP JUMPDEST CALLVALUE DUP1 ISZERO PUSH2 0x2F9 JUMPI PUSH1 0x0 DUP1 REVERT JUMPDEST POP PUSH1 0x1 SLOAD PUSH2 0x307 SWAP1 PUSH1 0xFF AND DUP2 JUMP JUMPDEST PUSH1 0x40 MLOAD PUSH1 0xFF SWAP1 SWAP2 AND DUP2 MSTORE PUSH1 0x20 ADD PUSH2 0x280 JUMP JUMPDEST CALLVALUE DUP1 ISZERO PUSH2 0x325 JUMPI PUSH1 0x0 DUP1 REVERT JUMPDEST POP PUSH1 0x1 SLOAD PUSH2 0x307 SWAP1 PUSH5 0x100000000 SWAP1 DIV PUSH1 0xFF AND DUP2 JUMP JUMPDEST PUSH2 0x29E PUSH2 0x1CAB JUMP JUMPDEST CALLVALUE DUP1 ISZERO PUSH2 0x34F JUMPI PUSH1 0x0 DUP1 REVERT JUMPDEST POP PUSH2 0x276 PUSH1 0x0 SLOAD DUP2 JUMP JUMPDEST CALLVALUE DUP1 ISZERO PUSH2 0x365 JUMPI PUSH1 0x0 DUP1 REVERT JUMPDEST POP PUSH2 0x276 PUSH1 0x8 SLOAD DUP2 JUMP JUMPDEST CALLVALUE DUP1 ISZERO PUSH2 0x37B JUMPI PUSH1 0x0 DUP1 REVERT JUMPDEST POP PUSH2 0x38F PUSH2 0x38A CALLDATASIZE PUSH1 0x4 PUSH2 0x36DB JUMP JUMPDEST PUSH2 0x1D4C JUMP JUMPDEST PUSH1 0x40 MLOAD PUSH1 0x1 PUSH1 0x1 PUSH1 0xA0 SHL SUB SWAP1 SWAP2 AND DUP2 MSTORE PUSH1 0x20 ADD PUSH2 0x280 JUMP JUMPDEST CALLVALUE DUP1 ISZERO PUSH2 0x3B3 JUMPI PUSH1 0x0 DUP1 REVERT JUMPDEST POP PUSH2 0x29E PUSH2 0x3C2 CALLDATASIZE PUSH1 0x4 PUSH2 0x36F4 JUMP JUMPDEST PUSH2 0x1D76 JUMP JUMPDEST CALLVALUE DUP1 ISZERO PUSH2 0x3D3 JUMPI PUSH1 0x0 DUP1 REVERT JUMPDEST POP PUSH2 0x276 PUSH1 0x9 SLOAD DUP2 JUMP JUMPDEST CALLVALUE DUP1 ISZERO PUSH2 0x3E9 JUMPI PUSH1 0x0 DUP1 REVERT JUMPDEST POP PUSH1 0x1 SLOAD PUSH2 0x307 SWAP1 PUSH4 0x1000000 SWAP1 DIV PUSH1 0xFF AND DUP2 JUMP JUMPDEST CALLVALUE DUP1 ISZERO PUSH2 0x40A JUMPI PUSH1 0x0 DUP1 REVERT JUMPDEST POP PUSH2 0x276 PUSH1 0xA SLOAD DUP2 JUMP JUMPDEST PUSH2 0x29E PUSH2 0x422 CALLDATASIZE PUSH1 0x4 PUSH2 0x371E JUMP JUMPDEST PUSH2 0x20E5 JUMP JUMPDEST CALLVALUE DUP1 ISZERO PUSH2 0x433 JUMPI PUSH1 0x0 DUP1 REVERT JUMPDEST POP PUSH2 0x276 PUSH2 0x442 CALLDATASIZE PUSH1 0x4 PUSH2 0x36A8 JUMP JUMPDEST PUSH1 0x13 PUSH1 0x20 SWAP1 DUP2 MSTORE PUSH1 0x0 SWAP3 DUP4 MSTORE PUSH1 0x40 DUP1 DUP5 KECCAK256 SWAP1 SWAP2 MSTORE SWAP1 DUP3 MSTORE SWAP1 KECCAK256 SLOAD DUP2 JUMP JUMPDEST CALLVALUE DUP1 ISZERO PUSH2 0x46B JUMPI PUSH1 0x0 DUP1 REVERT JUMPDEST POP PUSH2 0x49A PUSH2 0x47A CALLDATASIZE PUSH1 0x4 PUSH2 0x3740 JUMP JUMPDEST PUSH1 0x10 PUSH1 0x20 SWAP1 DUP2 MSTORE PUSH1 0x0 SWAP3 DUP4 MSTORE PUSH1 0x40 DUP1 DUP5 KECCAK256 SWAP1 SWAP2 MSTORE SWAP1 DUP3 MSTORE SWAP1 KECCAK256 SLOAD PUSH1 0xFF AND DUP2 JUMP JUMPDEST PUSH1 0x40 MLOAD SWAP1 ISZERO ISZERO DUP2 MSTORE PUSH1 0x20 ADD PUSH2 0x280 JUMP JUMPDEST CALLVALUE DUP1 ISZERO PUSH2 0x4B6 JUMPI PUSH1 0x0 DUP1 REVERT JUMPDEST POP PUSH2 0x276 PUSH1 0x2 SLOAD DUP2 JUMP JUMPDEST CALLVALUE DUP1 ISZERO PUSH2 0x4CC JUMPI PUSH1 0x0 DUP1 REVERT JUMPDEST POP PUSH2 0x276 PUSH1 0x5 SLOAD DUP2 JUMP JUMPDEST CALLVALUE DUP1 ISZERO PUSH2 0x4E2 JUMPI PUSH1 0x0 DUP1 REVERT JUMPDEST POP PUSH2 0x276 PUSH2 0x4F1 CALLDATASIZE PUSH1 0x4 PUSH2 0x376A JUMP JUMPDEST PUSH1 0x15 PUSH1 0x20 MSTORE PUSH1 0x0 SWAP1 DUP2 MSTORE PUSH1 0x40 SWAP1 KECCAK256 SLOAD DUP2 JUMP JUMPDEST CALLVALUE DUP1 ISZERO PUSH2 0x50F JUMPI PUSH1 0x0 DUP1 REVERT JUMPDEST POP PUSH2 0x29E PUSH2 0x51E CALLDATASIZE PUSH1 0x4 PUSH2 0x3785 JUMP JUMPDEST PUSH2 0x2187 JUMP JUMPDEST CALLVALUE DUP1 ISZERO PUSH2 0x52F JUMPI PUSH1 0x0 DUP1 REVERT JUMPDEST POP PUSH2 0x276 PUSH2 0x53E CALLDATASIZE PUSH1 0x4 PUSH2 0x37A7 JUMP JUMPDEST PUSH1 0x17 PUSH1 0x20 SWAP1 DUP2 MSTORE PUSH1 0x0 SWAP3 DUP4 MSTORE PUSH1 0x40 DUP1 DUP5 KECCAK256 SWAP1 SWAP2 MSTORE SWAP1 DUP3 MSTORE SWAP1 KECCAK256 SLOAD DUP2 JUMP JUMPDEST CALLVALUE DUP1 ISZERO PUSH2 0x567 JUMPI PUSH1 0x0 DUP1 REVERT JUMPDEST POP PUSH2 0x570 PUSH2 0x22E4 JUMP JUMPDEST PUSH1 0x40 MLOAD PUSH2 0x280 SWAP3 SWAP2 SWAP1 PUSH2 0x3831 JUMP JUMPDEST CALLVALUE DUP1 ISZERO PUSH2 0x58A JUMPI PUSH1 0x0 DUP1 REVERT JUMPDEST POP PUSH2 0x276 PUSH1 0x7 SLOAD DUP2 JUMP JUMPDEST CALLVALUE DUP1 ISZERO PUSH2 0x5A0 JUMPI PUSH1 0x0 DUP1 REVERT JUMPDEST POP PUSH2 0x307 PUSH2 0x5AF CALLDATASIZE PUSH1 0x4 PUSH2 0x37A7 JUMP JUMPDEST PUSH1 0x16 PUSH1 0x20 SWAP1 DUP2 MSTORE PUSH1 0x0 SWAP3 DUP4 MSTORE PUSH1 0x40 DUP1 DUP5 KECCAK256 SWAP1 SWAP2 MSTORE SWAP1 DUP3 MSTORE SWAP1 KECCAK256 SLOAD PUSH1 0xFF AND DUP2 JUMP JUMPDEST CALLVALUE DUP1 ISZERO PUSH2 0x5DB JUMPI PUSH1 0x0 DUP1 REVERT JUMPDEST POP PUSH2 0x29E PUSH2 0x5EA CALLDATASIZE PUSH1 0x4 PUSH2 0x38ED JUMP JUMPDEST PUSH2 0x2559 JUMP JUMPDEST CALLVALUE DUP1 ISZERO PUSH2 0x5FB JUMPI PUSH1 0x0 DUP1 REVERT JUMPDEST POP PUSH2 0x276 PUSH1 0x6 SLOAD DUP2 JUMP JUMPDEST CALLVALUE DUP1 ISZERO PUSH2 0x611 JUMPI PUSH1 0x0 DUP1 REVERT JUMPDEST POP PUSH2 0x29E PUSH2 0x620 CALLDATASIZE PUSH1 0x4 PUSH2 0x39A1 JUMP JUMPDEST PUSH2 0x289E JUMP JUMPDEST CALLVALUE DUP1 ISZERO PUSH2 0x631 JUMPI PUSH1 0x0 DUP1 REVERT JUMPDEST POP PUSH2 0x276 PUSH1 0xB SLOAD DUP2 JUMP JUMPDEST CALLVALUE DUP1 ISZERO PUSH2 0x647 JUMPI PUSH1 0x0 DUP1 REVERT JUMPDEST POP PUSH2 0x6BB PUSH2 0x656 CALLDATASIZE PUSH1 0x4 PUSH2 0x371E JUMP JUMPDEST PUSH1 0xF PUSH1 0x20 MSTORE PUSH1 0x0 SWAP1 DUP2 MSTORE PUSH1 0x40 SWAP1 KECCAK256 DUP1 SLOAD PUSH1 0x1 DUP3 ADD SLOAD PUSH1 0x2 DUP4 ADD SLOAD PUSH1 0x3 SWAP1 SWAP4 ADD SLOAD SWAP2 SWAP3 SWAP1 SWAP2 PUSH1 0x1 PUSH1 0x1 PUSH1 0xA0 SHL SUB DUP2 AND SWAP1 PUSH1 0xFF PUSH1 0x1 PUSH1 0xA0 SHL DUP3 DIV DUP2 AND SWAP2 PUSH1 0x1 PUSH1 0xA8 SHL DUP2 DIV DUP3 AND SWAP2 PUSH1 0x1 PUSH1 0xB0 SHL DUP3 DIV DUP2 AND SWAP2 PUSH1 0x1 PUSH1 0xB8 SHL DUP2 DIV DUP3 AND SWAP2 PUSH1 0x1 PUSH1 0xC0 SHL SWAP1 SWAP2 DIV AND DUP10 JUMP JUMPDEST PUSH1 0x40 DUP1 MLOAD SWAP10 DUP11 MSTORE PUSH1 0x20 DUP11 ADD SWAP9 SWAP1 SWAP9 MSTORE SWAP7 DUP9 ADD SWAP6 SWAP1 SWAP6 MSTORE PUSH1 0x1 PUSH1 0x1 PUSH1 0xA0 SHL SUB SWAP1 SWAP4 AND PUSH1 0x60 DUP8 ADD MSTORE PUSH1 0xFF SWAP2 DUP3 AND PUSH1 0x80 DUP8 ADD MSTORE AND PUSH1 0xA0 DUP6 ADD MSTORE ISZERO ISZERO PUSH1 0xC0 DUP5 ADD MSTORE ISZERO ISZERO PUSH1 0xE0 DUP4 ADD MSTORE ISZERO ISZERO PUSH2 0x100 DUP3 ADD MSTORE PUSH2 0x120 ADD PUSH2 0x280 JUMP JUMPDEST CALLVALUE DUP1 ISZERO PUSH2 0x71C JUMPI PUSH1 0x0 DUP1 REVERT JUMPDEST POP PUSH2 0x276 PUSH1 0x3 SLOAD DUP2 JUMP JUMPDEST CALLVALUE DUP1 ISZERO PUSH2 0x732 JUMPI PUSH1 0x0 DUP1 REVERT JUMPDEST POP PUSH2 0x49A PUSH2 0x741 CALLDATASIZE PUSH1 0x4 PUSH2 0x3740 JUMP JUMPDEST PUSH1 0x11 PUSH1 0x20 SWAP1 DUP2 MSTORE PUSH1 0x0 SWAP3 DUP4 MSTORE PUSH1 0x40 DUP1 DUP5 KECCAK256 SWAP1 SWAP2 MSTORE SWAP1 DUP3 MSTORE SWAP1 KECCAK256 SLOAD PUSH1 0xFF AND DUP2 JUMP JUMPDEST CALLVALUE DUP1 ISZERO PUSH2 0x76D JUMPI PUSH1 0x0 DUP1 REVERT JUMPDEST POP PUSH1 0x1 SLOAD PUSH2 0x307 SWAP1 PUSH2 0x100 SWAP1 DIV PUSH1 0xFF AND DUP2 JUMP JUMPDEST CALLVALUE DUP1 ISZERO PUSH2 0x78C JUMPI PUSH1 0x0 DUP1 REVERT JUMPDEST POP PUSH2 0x49A PUSH2 0x2968 JUMP JUMPDEST CALLVALUE DUP1 ISZERO PUSH2 0x7A1 JUMPI PUSH1 0x0 DUP1 REVERT JUMPDEST POP PUSH2 0x49A PUSH2 0x2A0B JUMP JUMPDEST CALLVALUE DUP1 ISZERO PUSH2 0x7B6 JUMPI PUSH1 0x0 DUP1 REVERT JUMPDEST POP PUSH2 0x29E PUSH2 0x7C5 CALLDATASIZE PUSH1 0x4 PUSH2 0x39E3 JUMP JUMPDEST PUSH2 0x2AC8 JUMP JUMPDEST CALLVALUE DUP1 ISZERO PUSH2 0x7D6 JUMPI PUSH1 0x0 DUP1 REVERT JUMPDEST POP PUSH2 0x49A PUSH2 0x7E5 CALLDATASIZE PUSH1 0x4 PUSH2 0x371E JUMP JUMPDEST PUSH2 0x2CA2 JUMP JUMPDEST CALLVALUE DUP1 ISZERO PUSH2 0x7F6 JUMPI PUSH1 0x0 DUP1 REVERT JUMPDEST POP PUSH2 0x29E PUSH2 0x805 CALLDATASIZE PUSH1 0x4 PUSH2 0x36DB JUMP JUMPDEST PUSH2 0x2D1E JUMP JUMPDEST CALLVALUE DUP1 ISZERO PUSH2 0x816 JUMPI PUSH1 0x0 DUP1 REVERT JUMPDEST POP PUSH2 0x29E PUSH2 0x825 CALLDATASIZE PUSH1 0x4 PUSH2 0x36DB JUMP JUMPDEST PUSH2 0x2E6A JUMP JUMPDEST CALLVALUE DUP1 ISZERO PUSH2 0x836 JUMPI PUSH1 0x0 DUP1 REVERT JUMPDEST POP PUSH2 0x84A PUSH2 0x845 CALLDATASIZE PUSH1 0x4 PUSH2 0x371E JUMP JUMPDEST PUSH2 0x2F18 JUMP JUMPDEST PUSH1 0x40 MLOAD PUSH2 0x280 SWAP4 SWAP3 SWAP2 SWAP1 PUSH2 0x3A1E JUMP JUMPDEST CALLVALUE DUP1 ISZERO PUSH2 0x865 JUMPI PUSH1 0x0 DUP1 REVERT JUMPDEST POP PUSH2 0x276 PUSH2 0x874 CALLDATASIZE PUSH1 0x4 PUSH2 0x37A7 JUMP JUMPDEST PUSH1 0x14 PUSH1 0x20 SWAP1 DUP2 MSTORE PUSH1 0x0 SWAP3 DUP4 MSTORE PUSH1 0x40 DUP1 DUP5 KECCAK256 SWAP1 SWAP2 MSTORE SWAP1 DUP3 MSTORE SWAP1 KECCAK256 SLOAD DUP2 JUMP JUMPDEST CALLVALUE DUP1 ISZERO PUSH2 0x89D JUMPI PUSH1 0x0 DUP1 REVERT JUMPDEST POP PUSH1 0x1 SLOAD PUSH2 0x307 SWAP1 PUSH3 0x10000 SWAP1 DIV PUSH1 0xFF AND DUP2 JUMP JUMPDEST CALLVALUE DUP1 ISZERO PUSH2 0x8BD JUMPI PUSH1 0x0 DUP1 REVERT JUMPDEST POP PUSH2 0x276 PUSH1 0x4 SLOAD DUP2 JUMP JUMPDEST CALLER PUSH1 0x0 SWAP1 DUP2 MSTORE PUSH1 0xF PUSH1 0x20 MSTORE PUSH1 0x40 SWAP1 KECCAK256 PUSH1 0x3 ADD SLOAD PUSH1 0x1 PUSH1 0xB8 SHL SWAP1 DIV PUSH1 0xFF AND PUSH2 0x909 JUMPI PUSH1 0x40 MLOAD PUSH3 0x461BCD PUSH1 0xE5 SHL DUP2 MSTORE PUSH1 0x4 ADD PUSH2 0x900 SWAP1 PUSH2 0x3A93 JUMP JUMPDEST PUSH1 0x40 MLOAD DUP1 SWAP2 SUB SWAP1 REVERT JUMPDEST PUSH1 0x2 SLOAD PUSH1 0x3 SLOAD EQ ISZERO DUP1 ISZERO PUSH2 0x92C JUMPI POP TIMESTAMP PUSH3 0x15180 PUSH1 0xA SLOAD PUSH2 0x92A SWAP2 SWAP1 PUSH2 0x3AC6 JUMP JUMPDEST GT JUMPDEST PUSH2 0x95D JUMPI PUSH1 0x40 MLOAD PUSH3 0x461BCD PUSH1 0xE5 SHL DUP2 MSTORE PUSH1 0x20 PUSH1 0x4 DUP3 ADD MSTORE PUSH1 0x2 PUSH1 0x24 DUP3 ADD MSTORE PUSH2 0x4E41 PUSH1 0xF0 SHL PUSH1 0x44 DUP3 ADD MSTORE PUSH1 0x64 ADD PUSH2 0x900 JUMP JUMPDEST CALLER PUSH1 0x0 SWAP1 DUP2 MSTORE PUSH1 0x13 PUSH1 0x20 SWAP1 DUP2 MSTORE PUSH1 0x40 DUP1 DUP4 KECCAK256 PUSH1 0x1 SLOAD PUSH1 0xFF AND DUP5 MSTORE SWAP1 SWAP2 MSTORE SWAP1 KECCAK256 SLOAD ISZERO PUSH2 0x9B0 JUMPI PUSH1 0x40 MLOAD PUSH3 0x461BCD PUSH1 0xE5 SHL DUP2 MSTORE PUSH1 0x20 PUSH1 0x4 DUP3 ADD MSTORE PUSH1 0x3 PUSH1 0x24 DUP3 ADD MSTORE PUSH3 0x574645 PUSH1 0xE8 SHL PUSH1 0x44 DUP3 ADD MSTORE PUSH1 0x64 ADD PUSH2 0x900 JUMP JUMPDEST CALLER PUSH1 0x0 SWAP1 DUP2 MSTORE PUSH1 0xF PUSH1 0x20 MSTORE PUSH1 0x40 SWAP1 KECCAK256 PUSH1 0x1 ADD SLOAD PUSH2 0x9F5 JUMPI PUSH1 0x40 MLOAD PUSH3 0x461BCD PUSH1 0xE5 SHL DUP2 MSTORE PUSH1 0x20 PUSH1 0x4 DUP3 ADD MSTORE PUSH1 0x3 PUSH1 0x24 DUP3 ADD MSTORE PUSH3 0x2722A3 PUSH1 0xE9 SHL PUSH1 0x44 DUP3 ADD MSTORE PUSH1 0x64 ADD PUSH2 0x900 JUMP JUMPDEST CALLER PUSH1 0x0 SWAP1 DUP2 MSTORE PUSH1 0xF PUSH1 0x20 MSTORE PUSH1 0x40 DUP2 KECCAK256 PUSH1 0x1 ADD DUP1 SLOAD SWAP1 DUP3 SWAP1 SSTORE SWAP1 JUMPDEST PUSH1 0xD SLOAD DUP2 LT ISZERO PUSH2 0xA90 JUMPI CALLER PUSH1 0x1 PUSH1 0x1 PUSH1 0xA0 SHL SUB AND PUSH1 0xD DUP3 DUP2 SLOAD DUP2 LT PUSH2 0xA36 JUMPI PUSH2 0xA36 PUSH2 0x3ADE JUMP JUMPDEST PUSH1 0x0 SWAP2 DUP3 MSTORE PUSH1 0x20 SWAP1 SWAP2 KECCAK256 ADD SLOAD PUSH1 0x1 PUSH1 0x1 PUSH1 0xA0 SHL SUB AND EQ ISZERO PUSH2 0xA7E JUMPI PUSH1 0xD DUP2 DUP2 SLOAD DUP2 LT PUSH2 0xA64 JUMPI PUSH2 0xA64 PUSH2 0x3ADE JUMP JUMPDEST PUSH1 0x0 SWAP2 DUP3 MSTORE PUSH1 0x20 SWAP1 SWAP2 KECCAK256 ADD DUP1 SLOAD PUSH1 0x1 PUSH1 0x1 PUSH1 0xA0 SHL SUB NOT AND SWAP1 SSTORE JUMPDEST DUP1 PUSH2 0xA88 DUP2 PUSH2 0x3AF4 JUMP JUMPDEST SWAP2 POP POP PUSH2 0xA0F JUMP JUMPDEST POP CALLER PUSH1 0x0 DUP2 DUP2 MSTORE PUSH1 0xF PUSH1 0x20 MSTORE PUSH1 0x40 DUP1 DUP3 KECCAK256 PUSH1 0x3 ADD DUP1 SLOAD PUSH1 0xFF PUSH1 0xB8 SHL NOT AND SWAP1 SSTORE MLOAD DUP4 ISZERO PUSH2 0x8FC MUL SWAP2 DUP5 SWAP2 SWAP1 DUP2 DUP2 DUP2 DUP6 DUP9 DUP9 CALL SWAP4 POP POP POP POP ISZERO DUP1 ISZERO PUSH2 0xAD7 JUMPI RETURNDATASIZE PUSH1 0x0 DUP1 RETURNDATACOPY RETURNDATASIZE PUSH1 0x0 REVERT JUMPDEST POP POP JUMP JUMPDEST PUSH1 0x0 DUP1 PUSH2 0xAE9 PUSH1 0xE DUP3 PUSH2 0x350B JUMP JUMPDEST PUSH1 0x0 JUMPDEST PUSH1 0xD SLOAD DUP2 LT ISZERO PUSH2 0xB88 JUMPI PUSH1 0x0 PUSH1 0xF PUSH1 0x0 PUSH1 0xD DUP5 DUP2 SLOAD DUP2 LT PUSH2 0xB0F JUMPI PUSH2 0xB0F PUSH2 0x3ADE JUMP JUMPDEST PUSH1 0x0 SWAP2 DUP3 MSTORE PUSH1 0x20 DUP1 DUP4 KECCAK256 SWAP1 SWAP2 ADD SLOAD PUSH1 0x1 PUSH1 0x1 PUSH1 0xA0 SHL SUB AND DUP4 MSTORE DUP3 ADD SWAP3 SWAP1 SWAP3 MSTORE PUSH1 0x40 ADD SWAP1 KECCAK256 PUSH1 0x3 DUP2 ADD SLOAD SWAP1 SWAP2 POP PUSH1 0xFF PUSH1 0x1 PUSH1 0xA0 SHL SWAP1 SWAP2 DIV AND PUSH1 0x1 EQ ISZERO PUSH2 0xB75 JUMPI PUSH1 0xC SLOAD DUP2 PUSH1 0x1 ADD SLOAD PUSH2 0xB60 SWAP2 SWAP1 PUSH2 0x3B0F JUMP JUMPDEST PUSH1 0x1 DUP3 ADD SSTORE PUSH1 0xC SLOAD PUSH2 0xB72 SWAP1 DUP5 PUSH2 0x3AC6 JUMP JUMPDEST SWAP3 POP JUMPDEST POP DUP1 PUSH2 0xB80 DUP2 PUSH2 0x3AF4 JUMP JUMPDEST SWAP2 POP POP PUSH2 0xAEC JUMP JUMPDEST POP PUSH1 0x0 JUMPDEST PUSH1 0xD SLOAD DUP2 LT ISZERO PUSH2 0xF0D JUMPI PUSH1 0x0 PUSH1 0xF PUSH1 0x0 PUSH1 0xD DUP5 DUP2 SLOAD DUP2 LT PUSH2 0xBAF JUMPI PUSH2 0xBAF PUSH2 0x3ADE JUMP JUMPDEST PUSH1 0x0 SWAP2 DUP3 MSTORE PUSH1 0x20 DUP1 DUP4 KECCAK256 SWAP1 SWAP2 ADD SLOAD PUSH1 0x1 PUSH1 0x1 PUSH1 0xA0 SHL SUB AND DUP4 MSTORE DUP3 ADD SWAP3 SWAP1 SWAP3 MSTORE PUSH1 0x40 ADD SWAP1 KECCAK256 PUSH1 0x3 DUP2 ADD SLOAD SWAP1 SWAP2 POP PUSH1 0xFF PUSH1 0x1 PUSH1 0xB8 SHL SWAP1 SWAP2 DIV AND ISZERO PUSH2 0xEFA JUMPI PUSH1 0x0 DUP2 PUSH1 0x2 ADD SLOAD SLT ISZERO PUSH2 0xEE4 JUMPI PUSH1 0x3 DUP2 ADD SLOAD PUSH1 0x1 DUP1 SLOAD PUSH1 0xFF PUSH1 0x1 PUSH1 0xA8 SHL SWAP1 SWAP4 DIV DUP4 AND SWAP3 DUP3 SWAP2 PUSH2 0xC21 SWAP2 DUP6 SWAP2 PUSH2 0x100 SWAP1 DIV AND PUSH2 0x3B26 JUMP JUMPDEST SWAP3 POP PUSH2 0x100 EXP DUP2 SLOAD DUP2 PUSH1 0xFF MUL NOT AND SWAP1 DUP4 PUSH1 0xFF AND MUL OR SWAP1 SSTORE POP PUSH1 0x0 PUSH1 0x1 PUSH1 0x2 SWAP1 SLOAD SWAP1 PUSH2 0x100 EXP SWAP1 DIV PUSH1 0xFF AND PUSH1 0xFF AND DUP3 PUSH1 0x1 ADD SLOAD PUSH2 0xC5D SWAP2 SWAP1 PUSH2 0x3B49 JUMP JUMPDEST PUSH1 0x1 SLOAD PUSH1 0x5 SLOAD SWAP2 SWAP3 POP PUSH2 0xC7A SWAP2 PUSH3 0x10000 SWAP1 SWAP2 DIV PUSH1 0xFF AND SWAP1 PUSH2 0x3B49 JUMP JUMPDEST DUP3 PUSH1 0x1 ADD SLOAD GT ISZERO PUSH2 0xD9C JUMPI PUSH1 0x3 DUP3 ADD DUP1 SLOAD PUSH1 0xFF PUSH1 0xB0 SHL NOT DUP2 AND PUSH1 0x1 PUSH1 0xB0 SHL OR DUP3 SSTORE PUSH1 0xE DUP1 SLOAD PUSH1 0x1 DUP2 DUP2 ADD DUP4 SSTORE PUSH1 0x0 SWAP3 SWAP1 SWAP3 MSTORE PUSH32 0xBB7B4A454DC3493923482F07822329ED19E8244EFF582CC204F8554C3620C3FD ADD DUP1 SLOAD PUSH1 0x1 PUSH1 0x1 PUSH1 0xA0 SHL SUB NOT AND PUSH1 0x1 PUSH1 0x1 PUSH1 0xA0 SHL SUB SWAP1 SWAP4 AND SWAP3 SWAP1 SWAP3 OR SWAP1 SWAP2 SSTORE DUP2 SLOAD PUSH1 0xFF PUSH1 0xC0 SHL NOT AND SWAP1 SWAP2 SSTORE DUP3 ADD SLOAD PUSH2 0xD06 SWAP1 DUP3 SWAP1 PUSH2 0x3B0F JUMP JUMPDEST PUSH1 0x1 DUP4 ADD SSTORE PUSH1 0x2 DUP3 ADD SLOAD PUSH2 0xD1B SWAP1 DUP3 SWAP1 PUSH2 0x3B6B JUMP JUMPDEST PUSH1 0x2 DUP4 ADD SSTORE PUSH2 0xD2A DUP2 DUP7 PUSH2 0x3AC6 JUMP JUMPDEST SWAP5 POP PUSH32 0x641368B934D33E657FE49C6AF1C0E5B618D4DC123F53FC3F8D5F15FEE5F4FB86 PUSH1 0xD DUP5 DUP2 SLOAD DUP2 LT PUSH2 0xD60 JUMPI PUSH2 0xD60 PUSH2 0x3ADE JUMP JUMPDEST PUSH1 0x0 SWAP2 DUP3 MSTORE PUSH1 0x20 SWAP1 SWAP2 KECCAK256 ADD SLOAD PUSH1 0x2 DUP5 ADD SLOAD PUSH1 0x1 DUP6 ADD SLOAD PUSH1 0x40 MLOAD PUSH2 0xD8F SWAP4 PUSH1 0x1 PUSH1 0x1 PUSH1 0xA0 SHL SUB AND SWAP3 SWAP2 DUP7 SWAP2 PUSH2 0x3BAA JUMP JUMPDEST PUSH1 0x40 MLOAD DUP1 SWAP2 SUB SWAP1 LOG1 PUSH2 0xEDE JUMP JUMPDEST PUSH1 0x3 DUP3 ADD DUP1 SLOAD PUSH2 0xFFFF PUSH1 0xB0 SHL NOT AND PUSH1 0x1 PUSH1 0xB0 SHL OR SWAP1 SSTORE PUSH1 0xD DUP1 SLOAD PUSH1 0xE SWAP2 SWAP1 DUP6 SWAP1 DUP2 LT PUSH2 0xDCA JUMPI PUSH2 0xDCA PUSH2 0x3ADE JUMP JUMPDEST PUSH1 0x0 SWAP2 DUP3 MSTORE PUSH1 0x20 DUP1 DUP4 KECCAK256 SWAP1 SWAP2 ADD SLOAD DUP4 SLOAD PUSH1 0x1 DUP2 DUP2 ADD DUP7 SSTORE SWAP5 DUP5 MSTORE SWAP2 SWAP1 SWAP3 KECCAK256 ADD DUP1 SLOAD PUSH1 0x1 PUSH1 0x1 PUSH1 0xA0 SHL SUB NOT AND PUSH1 0x1 PUSH1 0x1 PUSH1 0xA0 SHL SUB SWAP1 SWAP3 AND SWAP2 SWAP1 SWAP2 OR SWAP1 SSTORE PUSH1 0x3 DUP4 ADD DUP1 SLOAD PUSH1 0xFF PUSH1 0xC0 SHL NOT AND SWAP1 SSTORE DUP3 ADD SLOAD PUSH2 0xE22 SWAP1 DUP7 PUSH2 0x3AC6 JUMP JUMPDEST SWAP5 POP PUSH32 0x6A461179A109AC5A4F65774B04343A475DD7D089FFA5A31552A4D71E0A1E7B4F PUSH1 0xD DUP5 DUP2 SLOAD DUP2 LT PUSH2 0xE58 JUMPI PUSH2 0xE58 PUSH2 0x3ADE JUMP JUMPDEST PUSH1 0x0 SWAP2 DUP3 MSTORE PUSH1 0x20 DUP3 KECCAK256 ADD SLOAD PUSH1 0x2 DUP6 ADD SLOAD PUSH1 0x1 DUP7 ADD SLOAD PUSH1 0x40 MLOAD PUSH2 0xE86 SWAP5 PUSH1 0x1 PUSH1 0x1 PUSH1 0xA0 SHL SUB SWAP1 SWAP5 AND SWAP4 SWAP1 PUSH2 0x3BAA JUMP JUMPDEST PUSH1 0x40 MLOAD DUP1 SWAP2 SUB SWAP1 LOG1 PUSH1 0x0 DUP3 PUSH1 0x1 ADD DUP2 SWAP1 SSTORE POP PUSH1 0x1 PUSH1 0x2 PUSH1 0x0 DUP3 DUP3 SLOAD PUSH2 0xEAB SWAP2 SWAP1 PUSH2 0x3B0F JUMP JUMPDEST SWAP1 SWAP2 SSTORE POP POP PUSH1 0xD DUP1 SLOAD DUP5 SWAP1 DUP2 LT PUSH2 0xEC4 JUMPI PUSH2 0xEC4 PUSH2 0x3ADE JUMP JUMPDEST PUSH1 0x0 SWAP2 DUP3 MSTORE PUSH1 0x20 SWAP1 SWAP2 KECCAK256 ADD DUP1 SLOAD PUSH1 0x1 PUSH1 0x1 PUSH1 0xA0 SHL SUB NOT AND SWAP1 SSTORE JUMPDEST POP PUSH2 0xEFA JUMP JUMPDEST PUSH1 0x3 DUP2 ADD DUP1 SLOAD PUSH1 0xFF PUSH1 0xC0 SHL NOT AND PUSH1 0x1 PUSH1 0xC0 SHL OR SWAP1 SSTORE JUMPDEST POP DUP1 PUSH2 0xF05 DUP2 PUSH2 0x3AF4 JUMP JUMPDEST SWAP2 POP POP PUSH2 0xB8C JUMP JUMPDEST POP PUSH1 0x0 JUMPDEST PUSH1 0xD SLOAD DUP2 LT ISZERO PUSH2 0x116F JUMPI PUSH1 0x0 PUSH1 0xF PUSH1 0x0 PUSH1 0xD DUP5 DUP2 SLOAD DUP2 LT PUSH2 0xF34 JUMPI PUSH2 0xF34 PUSH2 0x3ADE JUMP JUMPDEST PUSH1 0x0 SWAP2 DUP3 MSTORE PUSH1 0x20 DUP1 DUP4 KECCAK256 SWAP1 SWAP2 ADD SLOAD PUSH1 0x1 PUSH1 0x1 PUSH1 0xA0 SHL SUB AND DUP4 MSTORE DUP3 ADD SWAP3 SWAP1 SWAP3 MSTORE PUSH1 0x40 ADD SWAP1 KECCAK256 PUSH1 0x3 DUP2 ADD SLOAD SWAP1 SWAP2 POP PUSH1 0xFF PUSH1 0x1 PUSH1 0xB8 SHL SWAP1 SWAP2 DIV AND ISZERO PUSH2 0x115C JUMPI PUSH1 0x0 JUMPDEST PUSH1 0xE SLOAD DUP2 LT ISZERO PUSH2 0x115A JUMPI PUSH1 0x11 PUSH1 0x0 PUSH1 0xD DUP6 DUP2 SLOAD DUP2 LT PUSH2 0xF94 JUMPI PUSH2 0xF94 PUSH2 0x3ADE JUMP JUMPDEST PUSH1 0x0 SWAP2 DUP3 MSTORE PUSH1 0x20 DUP1 DUP4 KECCAK256 SWAP1 SWAP2 ADD SLOAD PUSH1 0x1 PUSH1 0x1 PUSH1 0xA0 SHL SUB AND DUP4 MSTORE DUP3 ADD SWAP3 SWAP1 SWAP3 MSTORE PUSH1 0x40 ADD DUP2 KECCAK256 PUSH1 0xE DUP1 SLOAD SWAP2 SWAP3 SWAP2 DUP5 SWAP1 DUP2 LT PUSH2 0xFCF JUMPI PUSH2 0xFCF PUSH2 0x3ADE JUMP JUMPDEST PUSH1 0x0 SWAP2 DUP3 MSTORE PUSH1 0x20 DUP1 DUP4 KECCAK256 SWAP1 SWAP2 ADD SLOAD PUSH1 0x1 PUSH1 0x1 PUSH1 0xA0 SHL SUB AND DUP4 MSTORE DUP3 ADD SWAP3 SWAP1 SWAP3 MSTORE PUSH1 0x40 ADD SWAP1 KECCAK256 SLOAD PUSH1 0xFF AND ISZERO PUSH2 0x1148 JUMPI PUSH1 0x0 PUSH1 0x11 PUSH1 0x0 PUSH1 0xD DUP7 DUP2 SLOAD DUP2 LT PUSH2 0x1015 JUMPI PUSH2 0x1015 PUSH2 0x3ADE JUMP JUMPDEST PUSH1 0x0 SWAP2 DUP3 MSTORE PUSH1 0x20 DUP1 DUP4 KECCAK256 SWAP1 SWAP2 ADD SLOAD PUSH1 0x1 PUSH1 0x1 PUSH1 0xA0 SHL SUB AND DUP4 MSTORE DUP3 ADD SWAP3 SWAP1 SWAP3 MSTORE PUSH1 0x40 ADD DUP2 KECCAK256 PUSH1 0xE DUP1 SLOAD SWAP2 SWAP3 SWAP2 DUP6 SWAP1 DUP2 LT PUSH2 0x1050 JUMPI PUSH2 0x1050 PUSH2 0x3ADE JUMP JUMPDEST PUSH1 0x0 SWAP2 DUP3 MSTORE PUSH1 0x20 DUP1 DUP4 KECCAK256 SWAP2 SWAP1 SWAP2 ADD SLOAD PUSH1 0x1 PUSH1 0x1 PUSH1 0xA0 SHL SUB AND DUP4 MSTORE DUP3 ADD SWAP3 SWAP1 SWAP3 MSTORE PUSH1 0x40 ADD SWAP1 KECCAK256 DUP1 SLOAD PUSH1 0xFF NOT AND SWAP2 ISZERO ISZERO SWAP2 SWAP1 SWAP2 OR SWAP1 SSTORE PUSH1 0x3 DUP3 ADD SLOAD PUSH1 0x1 DUP1 SLOAD PUSH1 0xFF PUSH1 0x1 PUSH1 0xA8 SHL SWAP1 SWAP4 DIV DUP4 AND SWAP3 DUP3 SWAP2 PUSH2 0x10AD SWAP2 DUP6 SWAP2 PUSH2 0x100 SWAP1 DIV AND PUSH2 0x3B26 JUMP JUMPDEST DUP3 SLOAD PUSH1 0xFF SWAP2 DUP3 AND PUSH2 0x100 SWAP4 SWAP1 SWAP4 EXP SWAP3 DUP4 MUL SWAP2 SWAP1 SWAP3 MUL NOT SWAP1 SWAP2 AND OR SWAP1 SSTORE POP PUSH1 0x3 DUP3 ADD DUP1 SLOAD PUSH1 0xFF PUSH1 0xC0 SHL NOT AND SWAP1 SSTORE PUSH1 0xD DUP1 SLOAD PUSH32 0x1774DD77FAAF323CD25B2F963FF975744949B339A6D103B4E3959263F6C2F977 SWAP2 SWAP1 DUP6 SWAP1 DUP2 LT PUSH2 0x1110 JUMPI PUSH2 0x1110 PUSH2 0x3ADE JUMP JUMPDEST PUSH1 0x0 SWAP2 DUP3 MSTORE PUSH1 0x20 DUP3 KECCAK256 ADD SLOAD PUSH1 0x2 DUP6 ADD SLOAD PUSH1 0x1 DUP7 ADD SLOAD PUSH1 0x40 MLOAD PUSH2 0x113F SWAP5 PUSH1 0x1 PUSH1 0x1 PUSH1 0xA0 SHL SUB SWAP1 SWAP5 AND SWAP4 SWAP2 SWAP1 PUSH2 0x3BAA JUMP JUMPDEST PUSH1 0x40 MLOAD DUP1 SWAP2 SUB SWAP1 LOG1 JUMPDEST DUP1 PUSH2 0x1152 DUP2 PUSH2 0x3AF4 JUMP JUMPDEST SWAP2 POP POP PUSH2 0xF73 JUMP JUMPDEST POP JUMPDEST POP DUP1 PUSH2 0x1167 DUP2 PUSH2 0x3AF4 JUMP JUMPDEST SWAP2 POP POP PUSH2 0xF11 JUMP JUMPDEST POP PUSH1 0x0 JUMPDEST PUSH1 0xD SLOAD DUP2 LT ISZERO PUSH2 0x125B JUMPI PUSH1 0x0 PUSH1 0xF PUSH1 0x0 PUSH1 0xD DUP5 DUP2 SLOAD DUP2 LT PUSH2 0x1196 JUMPI PUSH2 0x1196 PUSH2 0x3ADE JUMP JUMPDEST PUSH1 0x0 SWAP2 DUP3 MSTORE PUSH1 0x20 DUP1 DUP4 KECCAK256 SWAP1 SWAP2 ADD SLOAD PUSH1 0x1 PUSH1 0x1 PUSH1 0xA0 SHL SUB AND DUP4 MSTORE DUP3 ADD SWAP3 SWAP1 SWAP3 MSTORE PUSH1 0x40 ADD SWAP1 KECCAK256 PUSH1 0x3 DUP2 ADD SLOAD SWAP1 SWAP2 POP PUSH1 0xFF PUSH1 0x1 PUSH1 0xB8 SHL SWAP1 SWAP2 DIV AND ISZERO PUSH2 0x1248 JUMPI PUSH1 0x3 DUP2 ADD SLOAD PUSH1 0x1 PUSH1 0xA0 SHL SWAP1 DIV PUSH1 0xFF AND PUSH1 0x1 EQ ISZERO PUSH2 0x1248 JUMPI PUSH1 0x3 DUP2 ADD SLOAD PUSH1 0x1 PUSH1 0xC0 SHL SWAP1 DIV PUSH1 0xFF AND ISZERO PUSH2 0x1228 JUMPI PUSH1 0xC SLOAD DUP2 PUSH1 0x1 ADD SLOAD PUSH2 0x120F SWAP2 SWAP1 PUSH2 0x3AC6 JUMP JUMPDEST PUSH1 0x1 DUP3 ADD SSTORE PUSH1 0xC SLOAD PUSH2 0x1221 SWAP1 DUP5 PUSH2 0x3B0F JUMP JUMPDEST SWAP3 POP PUSH2 0x1248 JUMP JUMPDEST PUSH1 0xC SLOAD PUSH2 0x1235 SWAP1 DUP6 PUSH2 0x3AC6 JUMP JUMPDEST SWAP4 POP PUSH1 0xC SLOAD DUP4 PUSH2 0x1245 SWAP2 SWAP1 PUSH2 0x3B0F JUMP JUMPDEST SWAP3 POP JUMPDEST POP DUP1 PUSH2 0x1253 DUP2 PUSH2 0x3AF4 JUMP JUMPDEST SWAP2 POP POP PUSH2 0x1173 JUMP JUMPDEST POP PUSH1 0x1 SLOAD PUSH1 0x0 SWAP1 DUP2 SWAP1 PUSH2 0x100 SWAP1 DIV PUSH1 0xFF AND ISZERO DUP1 ISZERO SWAP1 PUSH2 0x127E JUMPI POP PUSH1 0x8 SLOAD PUSH1 0x9 SLOAD LT ISZERO JUMPDEST ISZERO PUSH2 0x1AB7 JUMPI PUSH1 0x8 SLOAD PUSH1 0x9 PUSH1 0x0 DUP3 DUP3 SLOAD PUSH2 0x1297 SWAP2 SWAP1 PUSH2 0x3B0F JUMP JUMPDEST SWAP1 SWAP2 SSTORE POP POP PUSH1 0x8 SLOAD DUP5 ISZERO PUSH2 0x12B2 JUMPI PUSH2 0x12AF DUP6 DUP3 PUSH2 0x3AC6 JUMP JUMPDEST SWAP1 POP JUMPDEST PUSH1 0x0 JUMPDEST PUSH1 0xD SLOAD DUP2 LT ISZERO PUSH2 0x1412 JUMPI PUSH1 0x0 PUSH1 0xF PUSH1 0x0 PUSH1 0xD DUP5 DUP2 SLOAD DUP2 LT PUSH2 0x12D8 JUMPI PUSH2 0x12D8 PUSH2 0x3ADE JUMP JUMPDEST PUSH1 0x0 SWAP2 DUP3 MSTORE PUSH1 0x20 DUP1 DUP4 KECCAK256 SWAP1 SWAP2 ADD SLOAD PUSH1 0x1 PUSH1 0x1 PUSH1 0xA0 SHL SUB AND DUP4 MSTORE DUP3 ADD SWAP3 SWAP1 SWAP3 MSTORE PUSH1 0x40 ADD SWAP1 KECCAK256 PUSH1 0x3 DUP2 ADD SLOAD SWAP1 SWAP2 POP PUSH1 0xFF PUSH1 0x1 PUSH1 0xB8 SHL SWAP1 SWAP2 DIV AND DUP1 ISZERO PUSH2 0x1326 JUMPI POP PUSH1 0x3 DUP2 ADD SLOAD PUSH1 0x1 PUSH1 0xC0 SHL SWAP1 DIV PUSH1 0xFF AND JUMPDEST DUP1 ISZERO PUSH2 0x133E JUMPI POP PUSH1 0x3 DUP2 ADD SLOAD PUSH1 0x1 PUSH1 0xB0 SHL SWAP1 DIV PUSH1 0xFF AND ISZERO JUMPDEST ISZERO PUSH2 0x13FF JUMPI PUSH1 0x1 SLOAD PUSH1 0xFF AND PUSH1 0x0 SWAP1 DUP2 MSTORE PUSH1 0x14 PUSH1 0x20 SWAP1 DUP2 MSTORE PUSH1 0x40 DUP1 DUP4 KECCAK256 PUSH1 0x3 DUP6 ADD SLOAD PUSH1 0x1 PUSH1 0x1 PUSH1 0xA0 SHL SUB AND DUP5 MSTORE SWAP1 SWAP2 MSTORE DUP2 KECCAK256 SLOAD PUSH2 0x1379 SWAP1 PUSH2 0x33C1 JUMP JUMPDEST PUSH1 0x3 DUP4 ADD SLOAD PUSH2 0x1392 SWAP2 SWAP1 PUSH1 0x1 PUSH1 0xA8 SHL SWAP1 DIV PUSH1 0xFF AND PUSH2 0x3BD0 JUMP JUMPDEST PUSH1 0x1 SLOAD PUSH1 0xFF AND PUSH1 0x0 SWAP1 DUP2 MSTORE PUSH1 0x14 PUSH1 0x20 SWAP1 DUP2 MSTORE PUSH1 0x40 DUP1 DUP4 KECCAK256 PUSH1 0x3 DUP8 ADD SLOAD PUSH1 0x1 PUSH1 0x1 PUSH1 0xA0 SHL SUB AND DUP5 MSTORE SWAP1 SWAP2 MSTORE DUP2 KECCAK256 SLOAD SWAP2 SWAP3 POP SGT PUSH2 0x13D5 JUMPI PUSH2 0x13D0 DUP2 PUSH2 0x3BEF JUMP JUMPDEST PUSH2 0x13D7 JUMP JUMPDEST DUP1 JUMPDEST DUP3 PUSH1 0x0 ADD PUSH1 0x0 DUP3 DUP3 SLOAD PUSH2 0x13EA SWAP2 SWAP1 PUSH2 0x3C0C JUMP JUMPDEST SWAP1 SWAP2 SSTORE POP POP DUP2 SLOAD PUSH2 0x13FB SWAP1 DUP8 PUSH2 0x3C0C JUMP JUMPDEST SWAP6 POP POP JUMPDEST POP DUP1 PUSH2 0x140A DUP2 PUSH2 0x3AF4 JUMP JUMPDEST SWAP2 POP POP PUSH2 0x12B5 JUMP JUMPDEST POP PUSH1 0x0 JUMPDEST PUSH1 0xD SLOAD DUP2 LT ISZERO PUSH2 0x1674 JUMPI PUSH1 0x0 PUSH1 0xF PUSH1 0x0 PUSH1 0xD DUP5 DUP2 SLOAD DUP2 LT PUSH2 0x1439 JUMPI PUSH2 0x1439 PUSH2 0x3ADE JUMP JUMPDEST PUSH1 0x0 SWAP2 DUP3 MSTORE PUSH1 0x20 DUP1 DUP4 KECCAK256 SWAP1 SWAP2 ADD SLOAD PUSH1 0x1 PUSH1 0x1 PUSH1 0xA0 SHL SUB AND DUP4 MSTORE DUP3 ADD SWAP3 SWAP1 SWAP3 MSTORE PUSH1 0x40 ADD SWAP1 KECCAK256 PUSH1 0x3 DUP2 ADD SLOAD SWAP1 SWAP2 POP PUSH1 0xFF PUSH1 0x1 PUSH1 0xB8 SHL SWAP1 SWAP2 DIV AND DUP1 ISZERO PUSH2 0x1487 JUMPI POP PUSH1 0x3 DUP2 ADD SLOAD PUSH1 0x1 PUSH1 0xC0 SHL SWAP1 DIV PUSH1 0xFF AND JUMPDEST DUP1 ISZERO PUSH2 0x149F JUMPI POP PUSH1 0x3 DUP2 ADD SLOAD PUSH1 0x1 PUSH1 0xB0 SHL SWAP1 DIV PUSH1 0xFF AND ISZERO JUMPDEST ISZERO PUSH2 0x1661 JUMPI PUSH1 0x0 DUP6 SGT ISZERO PUSH2 0x14B3 JUMPI DUP5 PUSH2 0x14B6 JUMP JUMPDEST PUSH1 0x1 JUMPDEST SWAP4 POP PUSH1 0x0 DUP5 PUSH2 0x14C8 DUP4 PUSH1 0x0 ADD SLOAD PUSH2 0x33FB JUMP JUMPDEST PUSH2 0x14D2 SWAP1 DUP7 PUSH2 0x3BD0 JUMP JUMPDEST PUSH2 0x14DC SWAP2 SWAP1 PUSH2 0x3B49 JUMP JUMPDEST PUSH1 0x1 SLOAD PUSH1 0xFF AND PUSH1 0x0 SWAP1 DUP2 MSTORE PUSH1 0x14 PUSH1 0x20 SWAP1 DUP2 MSTORE PUSH1 0x40 DUP1 DUP4 KECCAK256 PUSH1 0x3 DUP8 ADD SLOAD PUSH1 0x1 PUSH1 0x1 PUSH1 0xA0 SHL SUB AND DUP5 MSTORE SWAP1 SWAP2 MSTORE DUP2 KECCAK256 SLOAD SWAP2 SWAP3 POP SGT DUP1 ISZERO PUSH2 0x1534 JUMPI POP PUSH1 0x1 SLOAD PUSH2 0x152C SWAP1 PUSH5 0x100000000 SWAP1 DIV PUSH1 0xFF AND DUP3 PUSH2 0x3BD0 JUMP JUMPDEST DUP3 PUSH1 0x1 ADD SLOAD GT ISZERO JUMPDEST ISZERO PUSH2 0x165F JUMPI PUSH1 0x1 DUP3 ADD SLOAD PUSH2 0x1548 SWAP1 DUP6 PUSH2 0x3AC6 JUMP JUMPDEST SWAP4 POP PUSH32 0x6A461179A109AC5A4F65774B04343A475DD7D089FFA5A31552A4D71E0A1E7B4F PUSH1 0xD DUP5 DUP2 SLOAD DUP2 LT PUSH2 0x157E JUMPI PUSH2 0x157E PUSH2 0x3ADE JUMP JUMPDEST PUSH1 0x0 SWAP2 DUP3 MSTORE PUSH1 0x20 DUP3 KECCAK256 ADD SLOAD PUSH1 0x2 DUP6 ADD SLOAD PUSH1 0x1 DUP7 ADD SLOAD PUSH1 0x40 MLOAD PUSH2 0x15AC SWAP5 PUSH1 0x1 PUSH1 0x1 PUSH1 0xA0 SHL SUB SWAP1 SWAP5 AND SWAP4 SWAP1 PUSH2 0x3BAA JUMP JUMPDEST PUSH1 0x40 MLOAD DUP1 SWAP2 SUB SWAP1 LOG1 PUSH1 0x1 SLOAD PUSH1 0xFF AND PUSH1 0x0 SWAP1 DUP2 MSTORE PUSH1 0x14 PUSH1 0x20 SWAP1 DUP2 MSTORE PUSH1 0x40 DUP1 DUP4 KECCAK256 PUSH1 0x3 DUP7 ADD SLOAD PUSH1 0x1 PUSH1 0x1 PUSH1 0xA0 SHL SUB AND DUP5 MSTORE SWAP1 SWAP2 MSTORE SWAP1 KECCAK256 SLOAD PUSH2 0x15EA SWAP1 PUSH2 0x33C1 JUMP JUMPDEST PUSH1 0x3 DUP4 ADD SLOAD PUSH2 0x1603 SWAP2 SWAP1 PUSH1 0x1 PUSH1 0xA8 SHL SWAP1 DIV PUSH1 0xFF AND PUSH2 0x3BD0 JUMP JUMPDEST PUSH2 0x160D SWAP1 DUP8 PUSH2 0x3C0C JUMP JUMPDEST SWAP6 POP PUSH1 0x0 DUP3 PUSH1 0x1 ADD DUP2 SWAP1 SSTORE POP PUSH1 0x1 PUSH1 0x2 PUSH1 0x0 DUP3 DUP3 SLOAD PUSH2 0x162C SWAP2 SWAP1 PUSH2 0x3B0F JUMP JUMPDEST SWAP1 SWAP2 SSTORE POP POP PUSH1 0xD DUP1 SLOAD DUP5 SWAP1 DUP2 LT PUSH2 0x1645 JUMPI PUSH2 0x1645 PUSH2 0x3ADE JUMP JUMPDEST PUSH1 0x0 SWAP2 DUP3 MSTORE PUSH1 0x20 SWAP1 SWAP2 KECCAK256 ADD DUP1 SLOAD PUSH1 0x1 PUSH1 0x1 PUSH1 0xA0 SHL SUB NOT AND SWAP1 SSTORE JUMPDEST POP JUMPDEST POP DUP1 PUSH2 0x166C DUP2 PUSH2 0x3AF4 JUMP JUMPDEST SWAP2 POP POP PUSH2 0x1416 JUMP JUMPDEST POP PUSH1 0x0 DUP4 SGT ISZERO PUSH2 0x1684 JUMPI DUP3 PUSH2 0x1687 JUMP JUMPDEST PUSH1 0x1 JUMPDEST SWAP2 POP PUSH1 0x0 DUP1 PUSH1 0x0 JUMPDEST PUSH1 0xD SLOAD DUP2 LT ISZERO PUSH2 0x1827 JUMPI PUSH1 0x0 PUSH1 0xF PUSH1 0x0 PUSH1 0xD DUP5 DUP2 SLOAD DUP2 LT PUSH2 0x16B2 JUMPI PUSH2 0x16B2 PUSH2 0x3ADE JUMP JUMPDEST PUSH1 0x0 SWAP2 DUP3 MSTORE PUSH1 0x20 DUP1 DUP4 KECCAK256 SWAP1 SWAP2 ADD SLOAD PUSH1 0x1 PUSH1 0x1 PUSH1 0xA0 SHL SUB AND DUP4 MSTORE DUP3 ADD SWAP3 SWAP1 SWAP3 MSTORE PUSH1 0x40 ADD SWAP1 KECCAK256 PUSH1 0x3 DUP2 ADD SLOAD SWAP1 SWAP2 POP PUSH1 0xFF PUSH1 0x1 PUSH1 0xB8 SHL SWAP1 SWAP2 DIV AND DUP1 ISZERO PUSH2 0x1700 JUMPI POP PUSH1 0x3 DUP2 ADD SLOAD PUSH1 0x1 PUSH1 0xC0 SHL SWAP1 DIV PUSH1 0xFF AND JUMPDEST DUP1 ISZERO PUSH2 0x1718 JUMPI POP PUSH1 0x3 DUP2 ADD SLOAD PUSH1 0x1 PUSH1 0xB0 SHL SWAP1 DIV PUSH1 0xFF AND ISZERO JUMPDEST DUP1 ISZERO PUSH2 0x174E JUMPI POP PUSH1 0x1 SLOAD PUSH1 0xFF AND PUSH1 0x0 SWAP1 DUP2 MSTORE PUSH1 0x14 PUSH1 0x20 SWAP1 DUP2 MSTORE PUSH1 0x40 DUP1 DUP4 KECCAK256 PUSH1 0x3 DUP6 ADD SLOAD PUSH1 0x1 PUSH1 0x1 PUSH1 0xA0 SHL SUB AND DUP5 MSTORE SWAP1 SWAP2 MSTORE DUP2 KECCAK256 SLOAD SLT JUMPDEST ISZERO PUSH2 0x1814 JUMPI PUSH1 0x0 DUP7 PUSH2 0x1763 DUP4 PUSH1 0x0 ADD SLOAD PUSH2 0x33FB JUMP JUMPDEST PUSH2 0x176D SWAP1 DUP9 PUSH2 0x3BD0 JUMP JUMPDEST PUSH2 0x1777 SWAP2 SWAP1 PUSH2 0x3B49 JUMP JUMPDEST PUSH1 0x1 SLOAD SWAP1 SWAP2 POP PUSH1 0x0 SWAP1 PUSH2 0x1795 SWAP1 PUSH5 0x100000000 SWAP1 DIV PUSH1 0xFF AND DUP4 PUSH2 0x3BD0 JUMP JUMPDEST SWAP1 POP DUP1 DUP4 PUSH1 0x1 ADD PUSH1 0x0 DUP3 DUP3 SLOAD PUSH2 0x17AB SWAP2 SWAP1 PUSH2 0x3B0F JUMP JUMPDEST SWAP1 SWAP2 SSTORE POP PUSH2 0x17BB SWAP1 POP DUP2 DUP8 PUSH2 0x3AC6 JUMP JUMPDEST PUSH1 0x3 DUP5 ADD SLOAD PUSH1 0x2 DUP6 ADD SLOAD PUSH1 0x1 DUP7 ADD SLOAD PUSH1 0x40 MLOAD SWAP4 SWAP10 POP PUSH32 0xF002DA1CC235DD7B3CD93CB91C128FE6E777FB632383DA5FF2603123883748B1 SWAP4 PUSH2 0x1809 SWAP4 PUSH1 0x1 PUSH1 0x1 PUSH1 0xA0 SHL SUB AND SWAP3 SWAP2 PUSH1 0x0 SWAP2 PUSH2 0x3BAA JUMP JUMPDEST PUSH1 0x40 MLOAD DUP1 SWAP2 SUB SWAP1 LOG1 POP POP JUMPDEST POP DUP1 PUSH2 0x181F DUP2 PUSH2 0x3AF4 JUMP JUMPDEST SWAP2 POP POP PUSH2 0x168F JUMP JUMPDEST POP PUSH2 0x1832 DUP3 DUP5 PUSH2 0x3AC6 JUMP JUMPDEST SWAP3 POP PUSH1 0x0 JUMPDEST PUSH1 0xD SLOAD DUP2 LT ISZERO PUSH2 0x191D JUMPI PUSH1 0x0 PUSH1 0xF PUSH1 0x0 PUSH1 0xD DUP5 DUP2 SLOAD DUP2 LT PUSH2 0x185A JUMPI PUSH2 0x185A PUSH2 0x3ADE JUMP JUMPDEST PUSH1 0x0 SWAP2 DUP3 MSTORE PUSH1 0x20 DUP1 DUP4 KECCAK256 SWAP1 SWAP2 ADD SLOAD PUSH1 0x1 PUSH1 0x1 PUSH1 0xA0 SHL SUB AND DUP4 MSTORE DUP3 ADD SWAP3 SWAP1 SWAP3 MSTORE PUSH1 0x40 ADD SWAP1 KECCAK256 PUSH1 0x3 DUP2 ADD SLOAD SWAP1 SWAP2 POP PUSH1 0xFF PUSH1 0x1 PUSH1 0xB8 SHL SWAP1 SWAP2 DIV AND DUP1 ISZERO PUSH2 0x18A8 JUMPI POP PUSH1 0x3 DUP2 ADD SLOAD PUSH1 0x1 PUSH1 0xC0 SHL SWAP1 DIV PUSH1 0xFF AND JUMPDEST DUP1 ISZERO PUSH2 0x18C0 JUMPI POP PUSH1 0x3 DUP2 ADD SLOAD PUSH1 0x1 PUSH1 0xB0 SHL SWAP1 DIV PUSH1 0xFF AND ISZERO JUMPDEST DUP1 ISZERO PUSH2 0x18F6 JUMPI POP PUSH1 0x1 SLOAD PUSH1 0xFF AND PUSH1 0x0 SWAP1 DUP2 MSTORE PUSH1 0x14 PUSH1 0x20 SWAP1 DUP2 MSTORE PUSH1 0x40 DUP1 DUP4 KECCAK256 PUSH1 0x3 DUP6 ADD SLOAD PUSH1 0x1 PUSH1 0x1 PUSH1 0xA0 SHL SUB AND DUP5 MSTORE SWAP1 SWAP2 MSTORE DUP2 KECCAK256 SLOAD SGT JUMPDEST ISZERO PUSH2 0x190A JUMPI DUP1 SLOAD PUSH2 0x1907 SWAP1 DUP5 PUSH2 0x3AC6 JUMP JUMPDEST SWAP3 POP JUMPDEST POP DUP1 PUSH2 0x1915 DUP2 PUSH2 0x3AF4 JUMP JUMPDEST SWAP2 POP POP PUSH2 0x1837 JUMP JUMPDEST POP DUP1 ISZERO PUSH2 0x192A JUMPI DUP1 PUSH2 0x192D JUMP JUMPDEST PUSH1 0x1 JUMPDEST SWAP1 POP PUSH1 0x0 JUMPDEST PUSH1 0xD SLOAD DUP2 LT ISZERO PUSH2 0x1AB2 JUMPI PUSH1 0x0 PUSH1 0xF PUSH1 0x0 PUSH1 0xD DUP5 DUP2 SLOAD DUP2 LT PUSH2 0x1955 JUMPI PUSH2 0x1955 PUSH2 0x3ADE JUMP JUMPDEST PUSH1 0x0 SWAP2 DUP3 MSTORE PUSH1 0x20 DUP1 DUP4 KECCAK256 SWAP1 SWAP2 ADD SLOAD PUSH1 0x1 PUSH1 0x1 PUSH1 0xA0 SHL SUB AND DUP4 MSTORE DUP3 ADD SWAP3 SWAP1 SWAP3 MSTORE PUSH1 0x40 ADD SWAP1 KECCAK256 PUSH1 0x3 DUP2 ADD SLOAD SWAP1 SWAP2 POP PUSH1 0xFF PUSH1 0x1 PUSH1 0xB8 SHL SWAP1 SWAP2 DIV AND DUP1 ISZERO PUSH2 0x19A3 JUMPI POP PUSH1 0x3 DUP2 ADD SLOAD PUSH1 0x1 PUSH1 0xC0 SHL SWAP1 DIV PUSH1 0xFF AND JUMPDEST DUP1 ISZERO PUSH2 0x19BB JUMPI POP PUSH1 0x3 DUP2 ADD SLOAD PUSH1 0x1 PUSH1 0xB0 SHL SWAP1 DIV PUSH1 0xFF AND ISZERO JUMPDEST DUP1 ISZERO PUSH2 0x19F1 JUMPI POP PUSH1 0x1 SLOAD PUSH1 0xFF AND PUSH1 0x0 SWAP1 DUP2 MSTORE PUSH1 0x14 PUSH1 0x20 SWAP1 DUP2 MSTORE PUSH1 0x40 DUP1 DUP4 KECCAK256 PUSH1 0x3 DUP6 ADD SLOAD PUSH1 0x1 PUSH1 0x1 PUSH1 0xA0 SHL SUB AND DUP5 MSTORE SWAP1 SWAP2 MSTORE DUP2 KECCAK256 SLOAD SGT JUMPDEST ISZERO PUSH2 0x1A8D JUMPI PUSH1 0x0 DUP4 PUSH2 0x1A06 DUP4 PUSH1 0x0 ADD SLOAD PUSH2 0x33FB JUMP JUMPDEST PUSH2 0x1A10 SWAP1 DUP9 PUSH2 0x3BD0 JUMP JUMPDEST PUSH2 0x1A1A SWAP2 SWAP1 PUSH2 0x3B49 JUMP JUMPDEST SWAP1 POP DUP1 DUP3 PUSH1 0x1 ADD PUSH1 0x0 DUP3 DUP3 SLOAD PUSH2 0x1A30 SWAP2 SWAP1 PUSH2 0x3AC6 JUMP JUMPDEST SWAP1 SWAP2 SSTORE POP POP PUSH1 0x3 DUP3 ADD SLOAD PUSH1 0x2 DUP4 ADD SLOAD PUSH1 0x1 DUP5 ADD SLOAD PUSH1 0x40 MLOAD PUSH32 0xF002DA1CC235DD7B3CD93CB91C128FE6E777FB632383DA5FF2603123883748B1 SWAP4 PUSH2 0x1A83 SWAP4 PUSH1 0x1 PUSH1 0x1 PUSH1 0xA0 SHL SUB SWAP1 SWAP2 AND SWAP3 SWAP1 SWAP2 DUP7 SWAP2 SWAP1 PUSH2 0x3BAA JUMP JUMPDEST PUSH1 0x40 MLOAD DUP1 SWAP2 SUB SWAP1 LOG1 POP JUMPDEST PUSH1 0x3 DUP2 ADD DUP1 SLOAD PUSH1 0xFF PUSH1 0xC0 SHL NOT AND SWAP1 SSTORE PUSH1 0x0 SWAP1 SSTORE DUP1 PUSH2 0x1AAA DUP2 PUSH2 0x3AF4 JUMP JUMPDEST SWAP2 POP POP PUSH2 0x1932 JUMP JUMPDEST POP POP POP POP JUMPDEST PUSH1 0x1 SLOAD PUSH1 0x40 DUP1 MLOAD PUSH1 0xFF DUP1 DUP5 AND DUP3 MSTORE PUSH2 0x100 SWAP1 SWAP4 DIV SWAP1 SWAP3 AND PUSH1 0x20 DUP4 ADD MSTORE DUP2 ADD DUP3 SWAP1 MSTORE PUSH1 0x60 DUP2 ADD DUP6 SWAP1 MSTORE PUSH32 0xFB9071657A7D7C77D4413E1C8487BB219C39DE920F3297977DD60BF0E00D33D SWAP1 PUSH1 0x80 ADD PUSH1 0x40 MLOAD DUP1 SWAP2 SUB SWAP1 LOG1 PUSH1 0x0 JUMPDEST PUSH1 0xD SLOAD DUP2 LT ISZERO PUSH2 0x1C60 JUMPI PUSH1 0x0 PUSH1 0xF PUSH1 0x0 PUSH1 0xD DUP5 DUP2 SLOAD DUP2 LT PUSH2 0x1B32 JUMPI PUSH2 0x1B32 PUSH2 0x3ADE JUMP JUMPDEST PUSH1 0x0 SWAP2 DUP3 MSTORE PUSH1 0x20 DUP1 DUP4 KECCAK256 SWAP1 SWAP2 ADD SLOAD PUSH1 0x1 PUSH1 0x1 PUSH1 0xA0 SHL SUB AND DUP4 MSTORE DUP3 ADD SWAP3 SWAP1 SWAP3 MSTORE PUSH1 0x40 ADD SWAP1 KECCAK256 PUSH1 0x3 DUP2 ADD SLOAD SWAP1 SWAP2 POP PUSH1 0xFF PUSH1 0x1 PUSH1 0xB8 SHL SWAP1 SWAP2 DIV AND ISZERO PUSH2 0x1C4D JUMPI PUSH1 0x3 DUP2 ADD DUP1 SLOAD PUSH1 0xFF PUSH1 0xA8 SHL NOT AND DUP1 DUP3 SSTORE PUSH1 0x0 PUSH1 0x2 DUP5 ADD SSTORE PUSH1 0x1 SWAP2 SWAP1 PUSH1 0x14 SWAP1 PUSH2 0x1BA1 SWAP1 DUP5 SWAP1 PUSH1 0x1 PUSH1 0xA0 SHL SWAP1 DIV PUSH1 0xFF AND PUSH2 0x3C4D JUMP JUMPDEST DUP3 SLOAD PUSH1 0xFF SWAP2 DUP3 AND PUSH2 0x100 SWAP4 SWAP1 SWAP4 EXP SWAP3 DUP4 MUL SWAP2 SWAP1 SWAP3 MUL NOT SWAP1 SWAP2 AND OR SWAP1 SSTORE POP PUSH1 0x3 DUP2 ADD DUP1 SLOAD PUSH1 0xFF PUSH1 0xB0 SHL NOT AND SWAP1 SSTORE PUSH1 0x0 JUMPDEST PUSH1 0xD SLOAD DUP2 LT ISZERO PUSH2 0x1C4B JUMPI PUSH1 0x3 DUP3 ADD SLOAD PUSH1 0x1 PUSH1 0x1 PUSH1 0xA0 SHL SUB AND PUSH1 0x0 SWAP1 DUP2 MSTORE PUSH1 0x10 PUSH1 0x20 MSTORE PUSH1 0x40 DUP2 KECCAK256 PUSH1 0xD DUP1 SLOAD SWAP2 SWAP3 SWAP2 DUP5 SWAP1 DUP2 LT PUSH2 0x1C0D JUMPI PUSH2 0x1C0D PUSH2 0x3ADE JUMP JUMPDEST PUSH1 0x0 SWAP2 DUP3 MSTORE PUSH1 0x20 DUP1 DUP4 KECCAK256 SWAP1 SWAP2 ADD SLOAD PUSH1 0x1 PUSH1 0x1 PUSH1 0xA0 SHL SUB AND DUP4 MSTORE DUP3 ADD SWAP3 SWAP1 SWAP3 MSTORE PUSH1 0x40 ADD SWAP1 KECCAK256 DUP1 SLOAD PUSH1 0xFF NOT AND SWAP1 SSTORE DUP1 PUSH2 0x1C43 DUP2 PUSH2 0x3AF4 JUMP JUMPDEST SWAP2 POP POP PUSH2 0x1BD0 JUMP JUMPDEST POP JUMPDEST POP DUP1 PUSH2 0x1C58 DUP2 PUSH2 0x3AF4 JUMP JUMPDEST SWAP2 POP POP PUSH2 0x1B0F JUMP JUMPDEST POP PUSH1 0x1 DUP1 SLOAD DUP2 SWAP1 PUSH1 0x0 SWAP1 PUSH2 0x1C78 SWAP1 DUP4 SWAP1 PUSH1 0xFF AND PUSH2 0x3C4D JUMP JUMPDEST DUP3 SLOAD PUSH1 0xFF SWAP2 DUP3 AND PUSH2 0x100 SWAP4 SWAP1 SWAP4 EXP SWAP3 DUP4 MUL SWAP2 SWAP1 SWAP3 MUL NOT SWAP1 SWAP2 AND OR SWAP1 SSTORE POP POP PUSH1 0x1 DUP1 SLOAD PUSH2 0xFF00 NOT AND SWAP1 SSTORE POP POP PUSH1 0x0 PUSH1 0x3 SSTORE POP JUMP JUMPDEST CALLER PUSH1 0x0 SWAP1 DUP2 MSTORE PUSH1 0xF PUSH1 0x20 MSTORE PUSH1 0x40 SWAP1 KECCAK256 PUSH1 0x3 ADD SLOAD PUSH1 0x1 PUSH1 0xB8 SHL SWAP1 DIV PUSH1 0xFF AND ISZERO PUSH2 0x1CFB JUMPI PUSH1 0x40 MLOAD PUSH3 0x461BCD PUSH1 0xE5 SHL DUP2 MSTORE PUSH1 0x20 PUSH1 0x4 DUP3 ADD MSTORE PUSH1 0x3 PUSH1 0x24 DUP3 ADD MSTORE PUSH3 0x29A0A9 PUSH1 0xE9 SHL PUSH1 0x44 DUP3 ADD MSTORE PUSH1 0x64 ADD PUSH2 0x900 JUMP JUMPDEST PUSH1 0x5 SLOAD CALLVALUE LT ISZERO DUP1 ISZERO PUSH2 0x1D0F JUMPI POP PUSH1 0x6 SLOAD CALLVALUE GT ISZERO JUMPDEST PUSH2 0x1D41 JUMPI PUSH1 0x40 MLOAD PUSH3 0x461BCD PUSH1 0xE5 SHL DUP2 MSTORE PUSH1 0x20 PUSH1 0x4 DUP3 ADD MSTORE PUSH1 0x3 PUSH1 0x24 DUP3 ADD MSTORE PUSH3 0x272BA9 PUSH1 0xE9 SHL PUSH1 0x44 DUP3 ADD MSTORE PUSH1 0x64 ADD PUSH2 0x900 JUMP JUMPDEST PUSH2 0x1D4A CALLER PUSH2 0x340F JUMP JUMPDEST JUMP JUMPDEST PUSH1 0xD DUP2 DUP2 SLOAD DUP2 LT PUSH2 0x1D5C JUMPI PUSH1 0x0 DUP1 REVERT JUMPDEST PUSH1 0x0 SWAP2 DUP3 MSTORE PUSH1 0x20 SWAP1 SWAP2 KECCAK256 ADD SLOAD PUSH1 0x1 PUSH1 0x1 PUSH1 0xA0 SHL SUB AND SWAP1 POP DUP2 JUMP JUMPDEST CALLER PUSH1 0x0 SWAP1 DUP2 MSTORE PUSH1 0xF PUSH1 0x20 MSTORE PUSH1 0x40 SWAP1 KECCAK256 PUSH1 0x3 ADD SLOAD PUSH1 0x1 PUSH1 0xB8 SHL SWAP1 DIV PUSH1 0xFF AND PUSH2 0x1DAF JUMPI PUSH1 0x40 MLOAD PUSH3 0x461BCD PUSH1 0xE5 SHL DUP2 MSTORE PUSH1 0x4 ADD PUSH2 0x900 SWAP1 PUSH2 0x3A93 JUMP JUMPDEST DUP2 PUSH1 0x1 PUSH1 0x1 PUSH1 0xA0 SHL SUB DUP2 AND CALLER EQ ISZERO PUSH2 0x1DEF JUMPI PUSH1 0x40 MLOAD PUSH3 0x461BCD PUSH1 0xE5 SHL DUP2 MSTORE PUSH1 0x20 PUSH1 0x4 DUP3 ADD MSTORE PUSH1 0x3 PUSH1 0x24 DUP3 ADD MSTORE PUSH3 0x14D155 PUSH1 0xEA SHL PUSH1 0x44 DUP3 ADD MSTORE PUSH1 0x64 ADD PUSH2 0x900 JUMP JUMPDEST CALLER PUSH1 0x0 SWAP1 DUP2 MSTORE PUSH1 0x10 PUSH1 0x20 SWAP1 DUP2 MSTORE PUSH1 0x40 DUP1 DUP4 KECCAK256 PUSH1 0x1 PUSH1 0x1 PUSH1 0xA0 SHL SUB DUP6 AND DUP5 MSTORE SWAP1 SWAP2 MSTORE SWAP1 KECCAK256 SLOAD PUSH1 0xFF AND ISZERO PUSH2 0x1E49 JUMPI PUSH1 0x40 MLOAD PUSH3 0x461BCD PUSH1 0xE5 SHL DUP2 MSTORE PUSH1 0x20 PUSH1 0x4 DUP3 ADD MSTORE PUSH1 0x3 PUSH1 0x24 DUP3 ADD MSTORE PUSH3 0x564143 PUSH1 0xE8 SHL PUSH1 0x44 DUP3 ADD MSTORE PUSH1 0x64 ADD PUSH2 0x900 JUMP JUMPDEST PUSH1 0x2 SLOAD PUSH1 0x3 SLOAD EQ DUP1 PUSH2 0x1E6A JUMPI POP TIMESTAMP PUSH3 0x15180 PUSH1 0xA SLOAD PUSH2 0x1E68 SWAP2 SWAP1 PUSH2 0x3AC6 JUMP JUMPDEST LT JUMPDEST PUSH2 0x1E9C JUMPI PUSH1 0x40 MLOAD PUSH3 0x461BCD PUSH1 0xE5 SHL DUP2 MSTORE PUSH1 0x20 PUSH1 0x4 DUP3 ADD MSTORE PUSH1 0x3 PUSH1 0x24 DUP3 ADD MSTORE PUSH3 0x465243 PUSH1 0xE8 SHL PUSH1 0x44 DUP3 ADD MSTORE PUSH1 0x64 ADD PUSH2 0x900 JUMP JUMPDEST CALLER PUSH1 0x0 DUP2 DUP2 MSTORE PUSH1 0x10 PUSH1 0x20 SWAP1 DUP2 MSTORE PUSH1 0x40 DUP1 DUP4 KECCAK256 PUSH1 0x1 PUSH1 0x1 PUSH1 0xA0 SHL SUB DUP9 AND DUP5 MSTORE DUP3 MSTORE DUP1 DUP4 KECCAK256 DUP1 SLOAD PUSH1 0xFF NOT AND PUSH1 0x1 SWAP1 DUP2 OR SWAP1 SWAP2 SSTORE SWAP4 DUP4 MSTORE PUSH1 0xF SWAP1 SWAP2 MSTORE SWAP1 KECCAK256 PUSH1 0x3 ADD DUP1 SLOAD PUSH1 0x15 SWAP1 PUSH2 0x1EF4 SWAP1 DUP5 SWAP1 PUSH1 0x1 PUSH1 0xA8 SHL SWAP1 DIV PUSH1 0xFF AND PUSH2 0x3C4D JUMP JUMPDEST SWAP3 POP PUSH2 0x100 EXP DUP2 SLOAD DUP2 PUSH1 0xFF MUL NOT AND SWAP1 DUP4 PUSH1 0xFF AND MUL OR SWAP1 SSTORE POP PUSH1 0x1 DUP1 PUSH1 0x1 DUP3 DUP3 DUP3 SWAP1 SLOAD SWAP1 PUSH2 0x100 EXP SWAP1 DIV PUSH1 0xFF AND PUSH2 0x1F2A SWAP2 SWAP1 PUSH2 0x3C4D JUMP JUMPDEST SWAP3 POP PUSH2 0x100 EXP DUP2 SLOAD DUP2 PUSH1 0xFF MUL NOT AND SWAP1 DUP4 PUSH1 0xFF AND MUL OR SWAP1 SSTORE POP DUP2 PUSH1 0x1 EQ ISZERO PUSH2 0x1FC3 JUMPI CALLER PUSH1 0x0 DUP2 DUP2 MSTORE PUSH1 0x11 PUSH1 0x20 SWAP1 DUP2 MSTORE PUSH1 0x40 DUP1 DUP4 KECCAK256 PUSH1 0x1 PUSH1 0x1 PUSH1 0xA0 SHL SUB DUP9 AND DUP5 MSTORE DUP3 MSTORE DUP1 DUP4 KECCAK256 DUP1 SLOAD PUSH1 0xFF NOT AND PUSH1 0x1 SWAP1 DUP2 OR SWAP1 SWAP2 SSTORE SWAP4 DUP4 MSTORE PUSH1 0xF SWAP1 SWAP2 MSTORE SWAP1 KECCAK256 DUP2 ADD SLOAD PUSH2 0x1F92 SWAP2 PUSH2 0x3C72 JUMP JUMPDEST PUSH1 0x1 PUSH1 0x1 PUSH1 0xA0 SHL SUB DUP5 AND PUSH1 0x0 SWAP1 DUP2 MSTORE PUSH1 0xF PUSH1 0x20 MSTORE PUSH1 0x40 DUP2 KECCAK256 PUSH1 0x2 ADD DUP1 SLOAD SWAP1 SWAP2 SWAP1 PUSH2 0x1FBD SWAP1 DUP5 SWAP1 PUSH2 0x3C0C JUMP JUMPDEST SWAP1 SWAP2 SSTORE POP POP JUMPDEST DUP2 PUSH1 0x0 NOT EQ ISZERO PUSH2 0x2040 JUMPI CALLER PUSH1 0x0 DUP2 DUP2 MSTORE PUSH1 0x11 PUSH1 0x20 SWAP1 DUP2 MSTORE PUSH1 0x40 DUP1 DUP4 KECCAK256 PUSH1 0x1 PUSH1 0x1 PUSH1 0xA0 SHL SUB DUP9 AND DUP5 MSTORE DUP3 MSTORE DUP1 DUP4 KECCAK256 DUP1 SLOAD PUSH1 0xFF NOT AND SWAP1 SSTORE SWAP3 DUP3 MSTORE PUSH1 0xF SWAP1 MSTORE KECCAK256 PUSH1 0x1 SWAP1 DUP2 ADD SLOAD PUSH2 0x200F SWAP2 PUSH2 0x3C72 JUMP JUMPDEST PUSH1 0x1 PUSH1 0x1 PUSH1 0xA0 SHL SUB DUP5 AND PUSH1 0x0 SWAP1 DUP2 MSTORE PUSH1 0xF PUSH1 0x20 MSTORE PUSH1 0x40 DUP2 KECCAK256 PUSH1 0x2 ADD DUP1 SLOAD SWAP1 SWAP2 SWAP1 PUSH2 0x203A SWAP1 DUP5 SWAP1 PUSH2 0x3B6B JUMP JUMPDEST SWAP1 SWAP2 SSTORE POP POP JUMPDEST DUP2 PUSH2 0x2071 JUMPI CALLER PUSH1 0x0 SWAP1 DUP2 MSTORE PUSH1 0x11 PUSH1 0x20 SWAP1 DUP2 MSTORE PUSH1 0x40 DUP1 DUP4 KECCAK256 PUSH1 0x1 PUSH1 0x1 PUSH1 0xA0 SHL SUB DUP8 AND DUP5 MSTORE SWAP1 SWAP2 MSTORE SWAP1 KECCAK256 DUP1 SLOAD PUSH1 0xFF NOT AND SWAP1 SSTORE JUMPDEST CALLER PUSH1 0x0 DUP2 DUP2 MSTORE PUSH1 0xF PUSH1 0x20 SWAP1 DUP2 MSTORE PUSH1 0x40 DUP1 DUP4 KECCAK256 PUSH1 0x1 ADD SLOAD PUSH1 0x1 PUSH1 0x1 PUSH1 0xA0 SHL SUB DUP9 AND DUP1 DUP6 MSTORE SWAP4 DUP3 SWAP1 KECCAK256 PUSH1 0x2 ADD SLOAD DUP3 MLOAD SWAP5 DUP6 MSTORE SWAP3 DUP5 ADD SWAP5 SWAP1 SWAP5 MSTORE DUP3 DUP2 ADD SWAP4 SWAP1 SWAP4 MSTORE PUSH1 0x60 DUP3 ADD MSTORE SWAP1 MLOAD PUSH32 0xD69FE95841F16237D39B30BBB2ED7633B307FB0ADDC4BB890B6A3A77E04F5F7F SWAP2 DUP2 SWAP1 SUB PUSH1 0x80 ADD SWAP1 LOG1 POP POP POP JUMP JUMPDEST CALLER PUSH1 0x0 SWAP1 DUP2 MSTORE PUSH1 0xF PUSH1 0x20 MSTORE PUSH1 0x40 SWAP1 KECCAK256 PUSH1 0x3 ADD SLOAD PUSH1 0x1 PUSH1 0xB8 SHL SWAP1 DIV PUSH1 0xFF AND ISZERO PUSH2 0x2135 JUMPI PUSH1 0x40 MLOAD PUSH3 0x461BCD PUSH1 0xE5 SHL DUP2 MSTORE PUSH1 0x20 PUSH1 0x4 DUP3 ADD MSTORE PUSH1 0x3 PUSH1 0x24 DUP3 ADD MSTORE PUSH3 0x29A0A9 PUSH1 0xE9 SHL PUSH1 0x44 DUP3 ADD MSTORE PUSH1 0x64 ADD PUSH2 0x900 JUMP JUMPDEST PUSH1 0x5 SLOAD CALLVALUE LT ISZERO DUP1 ISZERO PUSH2 0x2149 JUMPI POP PUSH1 0x6 SLOAD CALLVALUE GT ISZERO JUMPDEST PUSH2 0x217B JUMPI PUSH1 0x40 MLOAD PUSH3 0x461BCD PUSH1 0xE5 SHL DUP2 MSTORE PUSH1 0x20 PUSH1 0x4 DUP3 ADD MSTORE PUSH1 0x3 PUSH1 0x24 DUP3 ADD MSTORE PUSH3 0x272BA9 PUSH1 0xE9 SHL PUSH1 0x44 DUP3 ADD MSTORE PUSH1 0x64 ADD PUSH2 0x900 JUMP JUMPDEST PUSH2 0x2184 DUP2 PUSH2 0x340F JUMP JUMPDEST POP JUMP JUMPDEST CALLER PUSH1 0x0 SWAP1 DUP2 MSTORE PUSH1 0xF PUSH1 0x20 MSTORE PUSH1 0x40 SWAP1 KECCAK256 PUSH1 0x3 ADD SLOAD PUSH1 0x1 PUSH1 0xB8 SHL SWAP1 DIV PUSH1 0xFF AND PUSH2 0x21C0 JUMPI PUSH1 0x40 MLOAD PUSH3 0x461BCD PUSH1 0xE5 SHL DUP2 MSTORE PUSH1 0x4 ADD PUSH2 0x900 SWAP1 PUSH2 0x3A93 JUMP JUMPDEST CALLER PUSH1 0x0 SWAP1 DUP2 MSTORE PUSH1 0x13 PUSH1 0x20 SWAP1 DUP2 MSTORE PUSH1 0x40 DUP1 DUP4 KECCAK256 PUSH1 0x1 SLOAD PUSH1 0xFF AND DUP5 MSTORE SWAP1 SWAP2 MSTORE SWAP1 KECCAK256 SLOAD ISZERO PUSH2 0x2213 JUMPI PUSH1 0x40 MLOAD PUSH3 0x461BCD PUSH1 0xE5 SHL DUP2 MSTORE PUSH1 0x20 PUSH1 0x4 DUP3 ADD MSTORE PUSH1 0x3 PUSH1 0x24 DUP3 ADD MSTORE PUSH3 0x53415 PUSH1 0xEC SHL PUSH1 0x44 DUP3 ADD MSTORE PUSH1 0x64 ADD PUSH2 0x900 JUMP JUMPDEST PUSH1 0x40 DUP1 MLOAD PUSH1 0x20 DUP2 ADD DUP5 SWAP1 MSTORE SWAP1 DUP2 ADD DUP3 SWAP1 MSTORE CALLER PUSH1 0x60 SWAP1 DUP2 SHL PUSH12 0xFFFFFFFFFFFFFFFFFFFFFFFF NOT AND SWAP1 DUP3 ADD MSTORE PUSH1 0x74 ADD PUSH1 0x40 DUP1 MLOAD PUSH1 0x1F NOT DUP2 DUP5 SUB ADD DUP2 MSTORE SWAP2 DUP2 MSTORE DUP2 MLOAD PUSH1 0x20 SWAP3 DUP4 ADD KECCAK256 CALLER PUSH1 0x0 SWAP1 DUP2 MSTORE PUSH1 0x12 DUP5 MSTORE DUP3 DUP2 KECCAK256 PUSH1 0x1 SLOAD PUSH1 0xFF AND DUP3 MSTORE SWAP1 SWAP4 MSTORE SWAP2 KECCAK256 SLOAD EQ PUSH2 0x22A6 JUMPI PUSH1 0x40 MLOAD PUSH3 0x461BCD PUSH1 0xE5 SHL DUP2 MSTORE PUSH1 0x20 PUSH1 0x4 DUP3 ADD MSTORE PUSH1 0x3 PUSH1 0x24 DUP3 ADD MSTORE PUSH3 0x4E4B53 PUSH1 0xE8 SHL PUSH1 0x44 DUP3 ADD MSTORE PUSH1 0x64 ADD PUSH2 0x900 JUMP JUMPDEST CALLER PUSH1 0x0 SWAP1 DUP2 MSTORE PUSH1 0x13 PUSH1 0x20 SWAP1 DUP2 MSTORE PUSH1 0x40 DUP1 DUP4 KECCAK256 PUSH1 0x1 DUP1 SLOAD PUSH1 0xFF AND DUP6 MSTORE SWAP3 MSTORE DUP3 KECCAK256 DUP5 SWAP1 SSTORE PUSH1 0x3 DUP1 SLOAD SWAP2 SWAP3 SWAP1 SWAP2 PUSH2 0x22DB SWAP1 DUP5 SWAP1 PUSH2 0x3AC6 JUMP JUMPDEST SWAP1 SWAP2 SSTORE POP POP POP POP JUMP JUMPDEST PUSH1 0x60 DUP1 PUSH1 0x0 DUP1 JUMPDEST PUSH1 0xD SLOAD DUP2 LT ISZERO PUSH2 0x235B JUMPI PUSH1 0x0 PUSH1 0xF PUSH1 0x0 PUSH1 0xD DUP5 DUP2 SLOAD DUP2 LT PUSH2 0x230E JUMPI PUSH2 0x230E PUSH2 0x3ADE JUMP JUMPDEST PUSH1 0x0 SWAP2 DUP3 MSTORE PUSH1 0x20 DUP1 DUP4 KECCAK256 SWAP1 SWAP2 ADD SLOAD PUSH1 0x1 PUSH1 0x1 PUSH1 0xA0 SHL SUB AND DUP4 MSTORE DUP3 ADD SWAP3 SWAP1 SWAP3 MSTORE PUSH1 0x40 ADD SWAP1 KECCAK256 PUSH1 0x2 ADD SLOAD SLT PUSH2 0x2349 JUMPI PUSH2 0x2346 PUSH1 0x1 DUP4 PUSH2 0x3C4D JUMP JUMPDEST SWAP2 POP JUMPDEST DUP1 PUSH2 0x2353 DUP2 PUSH2 0x3AF4 JUMP JUMPDEST SWAP2 POP POP PUSH2 0x22EB JUMP JUMPDEST POP DUP1 PUSH1 0xFF AND PUSH8 0xFFFFFFFFFFFFFFFF DUP2 GT ISZERO PUSH2 0x2378 JUMPI PUSH2 0x2378 PUSH2 0x3CF7 JUMP JUMPDEST PUSH1 0x40 MLOAD SWAP1 DUP1 DUP3 MSTORE DUP1 PUSH1 0x20 MUL PUSH1 0x20 ADD DUP3 ADD PUSH1 0x40 MSTORE DUP1 ISZERO PUSH2 0x23A1 JUMPI DUP2 PUSH1 0x20 ADD PUSH1 0x20 DUP3 MUL DUP1 CALLDATASIZE DUP4 CALLDATACOPY ADD SWAP1 POP JUMPDEST POP SWAP3 POP DUP1 PUSH1 0xFF AND PUSH8 0xFFFFFFFFFFFFFFFF DUP2 GT ISZERO PUSH2 0x23C0 JUMPI PUSH2 0x23C0 PUSH2 0x3CF7 JUMP JUMPDEST PUSH1 0x40 MLOAD SWAP1 DUP1 DUP3 MSTORE DUP1 PUSH1 0x20 MUL PUSH1 0x20 ADD DUP3 ADD PUSH1 0x40 MSTORE DUP1 ISZERO PUSH2 0x23E9 JUMPI DUP2 PUSH1 0x20 ADD PUSH1 0x20 DUP3 MUL DUP1 CALLDATASIZE DUP4 CALLDATACOPY ADD SWAP1 POP JUMPDEST POP SWAP2 POP PUSH1 0x0 DUP1 JUMPDEST PUSH1 0xD SLOAD DUP2 LT ISZERO PUSH2 0x2552 JUMPI PUSH1 0x0 PUSH1 0xF PUSH1 0x0 PUSH1 0xD DUP5 DUP2 SLOAD DUP2 LT PUSH2 0x2413 JUMPI PUSH2 0x2413 PUSH2 0x3ADE JUMP JUMPDEST PUSH1 0x0 SWAP2 DUP3 MSTORE PUSH1 0x20 DUP1 DUP4 KECCAK256 SWAP1 SWAP2 ADD SLOAD PUSH1 0x1 PUSH1 0x1 PUSH1 0xA0 SHL SUB AND DUP4 MSTORE DUP3 ADD SWAP3 SWAP1 SWAP3 MSTORE PUSH1 0x40 ADD SWAP1 KECCAK256 PUSH1 0x2 ADD SLOAD SLT PUSH2 0x2540 JUMPI PUSH1 0x1 SLOAD PUSH1 0xFF AND PUSH1 0x0 SWAP1 DUP2 MSTORE PUSH1 0x16 PUSH1 0x20 MSTORE PUSH1 0x40 DUP2 KECCAK256 PUSH1 0xD DUP1 SLOAD SWAP2 SWAP3 SWAP2 DUP5 SWAP1 DUP2 LT PUSH2 0x246B JUMPI PUSH2 0x246B PUSH2 0x3ADE JUMP JUMPDEST PUSH1 0x0 SWAP2 DUP3 MSTORE PUSH1 0x20 DUP1 DUP4 KECCAK256 SWAP1 SWAP2 ADD SLOAD PUSH1 0x1 PUSH1 0x1 PUSH1 0xA0 SHL SUB AND DUP4 MSTORE DUP3 ADD SWAP3 SWAP1 SWAP3 MSTORE PUSH1 0x40 ADD SWAP1 KECCAK256 SLOAD DUP6 MLOAD PUSH1 0xFF SWAP2 DUP3 AND SWAP2 DUP8 SWAP2 SWAP1 DUP6 AND SWAP1 DUP2 LT PUSH2 0x24AC JUMPI PUSH2 0x24AC PUSH2 0x3ADE JUMP JUMPDEST PUSH1 0xFF SWAP3 DUP4 AND PUSH1 0x20 SWAP2 DUP3 MUL SWAP3 SWAP1 SWAP3 ADD DUP2 ADD SWAP2 SWAP1 SWAP2 MSTORE PUSH1 0x1 SLOAD SWAP1 SWAP2 AND PUSH1 0x0 SWAP1 DUP2 MSTORE PUSH1 0x17 SWAP1 SWAP2 MSTORE PUSH1 0x40 DUP2 KECCAK256 PUSH1 0xD DUP1 SLOAD SWAP2 SWAP3 SWAP2 DUP5 SWAP1 DUP2 LT PUSH2 0x24EB JUMPI PUSH2 0x24EB PUSH2 0x3ADE JUMP JUMPDEST PUSH1 0x0 SWAP2 DUP3 MSTORE PUSH1 0x20 DUP1 DUP4 KECCAK256 SWAP1 SWAP2 ADD SLOAD PUSH1 0x1 PUSH1 0x1 PUSH1 0xA0 SHL SUB AND DUP4 MSTORE DUP3 ADD SWAP3 SWAP1 SWAP3 MSTORE PUSH1 0x40 ADD SWAP1 KECCAK256 SLOAD DUP5 MLOAD DUP6 SWAP1 PUSH1 0xFF DUP6 AND SWAP1 DUP2 LT PUSH2 0x2527 JUMPI PUSH2 0x2527 PUSH2 0x3ADE JUMP JUMPDEST PUSH1 0x20 SWAP1 DUP2 MUL SWAP2 SWAP1 SWAP2 ADD ADD MSTORE DUP2 PUSH2 0x253C DUP2 PUSH2 0x3D0D JUMP JUMPDEST SWAP3 POP POP JUMPDEST DUP1 PUSH2 0x254A DUP2 PUSH2 0x3AF4 JUMP JUMPDEST SWAP2 POP POP PUSH2 0x23F0 JUMP JUMPDEST POP POP POP SWAP1 SWAP2 JUMP JUMPDEST PUSH1 0x60 DUP1 PUSH1 0x0 DUP1 DUP12 PUSH1 0x34 DUP13 DIV PUSH1 0x40 MLOAD SWAP6 POP PUSH1 0x20 DUP2 MUL PUSH1 0x20 ADD DUP7 ADD PUSH1 0x40 MSTORE DUP1 DUP7 MSTORE PUSH1 0x0 JUMPDEST DUP2 DUP2 LT ISZERO PUSH2 0x25A3 JUMPI DUP3 CALLDATALOAD PUSH1 0x60 SHR PUSH1 0x20 DUP3 DUP2 MUL DUP10 ADD ADD DUP2 SWAP1 MSTORE SWAP5 POP PUSH1 0x14 SWAP1 SWAP3 ADD SWAP2 PUSH1 0x1 ADD PUSH2 0x257B JUMP JUMPDEST POP PUSH1 0x40 MLOAD SWAP5 POP PUSH1 0x20 DUP2 MUL PUSH1 0x20 ADD DUP6 ADD PUSH1 0x40 MSTORE DUP1 DUP6 MSTORE PUSH1 0x0 SWAP4 POP JUMPDEST DUP1 DUP5 LT ISZERO PUSH2 0x25E5 JUMPI DUP2 CALLDATALOAD SWAP3 POP DUP3 PUSH1 0x20 DUP6 MUL PUSH1 0x20 DUP8 ADD ADD MSTORE PUSH1 0x20 DUP3 ADD SWAP2 POP PUSH1 0x1 DUP5 ADD SWAP4 POP PUSH2 0x25BD JUMP JUMPDEST POP POP DUP4 MLOAD DUP10 EQ SWAP2 POP PUSH2 0x263B SWAP1 POP JUMPI PUSH1 0x40 MLOAD PUSH3 0x461BCD PUSH1 0xE5 SHL DUP2 MSTORE PUSH1 0x20 PUSH1 0x4 DUP3 ADD DUP2 SWAP1 MSTORE PUSH1 0x24 DUP3 ADD MSTORE PUSH32 0x494E56414C49445F4C454E475448204F46204143435552414359204152524159 PUSH1 0x44 DUP3 ADD MSTORE PUSH1 0x64 ADD PUSH2 0x900 JUMP JUMPDEST DUP2 MLOAD DUP6 EQ PUSH2 0x268B JUMPI PUSH1 0x40 MLOAD PUSH3 0x461BCD PUSH1 0xE5 SHL DUP2 MSTORE PUSH1 0x20 PUSH1 0x4 DUP3 ADD MSTORE PUSH1 0x1C PUSH1 0x24 DUP3 ADD MSTORE PUSH32 0x494E56414C49445F4C454E475448204F46204C4F535320415252415900000000 PUSH1 0x44 DUP3 ADD MSTORE PUSH1 0x64 ADD PUSH2 0x900 JUMP JUMPDEST PUSH1 0x1 SLOAD PUSH1 0xFF AND PUSH1 0x0 SWAP1 DUP2 MSTORE PUSH1 0x18 PUSH1 0x20 SWAP1 DUP2 MSTORE PUSH1 0x40 DUP1 DUP4 KECCAK256 CALLER DUP5 MSTORE DUP3 MSTORE SWAP2 DUP3 SWAP1 KECCAK256 DUP3 MLOAD PUSH1 0x60 DUP2 ADD DUP5 MSTORE DUP6 DUP2 MSTORE DUP4 MLOAD DUP12 DUP5 MUL DUP2 DUP2 ADD DUP6 ADD SWAP1 SWAP6 MSTORE DUP12 DUP2 MSTORE SWAP2 SWAP4 SWAP1 SWAP3 DUP4 DUP2 ADD SWAP3 SWAP2 DUP14 SWAP2 DUP14 SWAP2 DUP3 SWAP2 DUP6 ADD SWAP1 DUP5 SWAP1 DUP1 DUP3 DUP5 CALLDATACOPY PUSH1 0x0 SWAP3 ADD SWAP2 SWAP1 SWAP2 MSTORE POP POP POP SWAP1 DUP3 MSTORE POP PUSH1 0x40 DUP1 MLOAD PUSH1 0x20 DUP11 DUP2 MUL DUP3 DUP2 ADD DUP3 ADD SWAP1 SWAP4 MSTORE DUP11 DUP3 MSTORE SWAP3 DUP4 ADD SWAP3 SWAP1 SWAP2 DUP12 SWAP2 DUP12 SWAP2 DUP3 SWAP2 DUP6 ADD SWAP1 DUP5 SWAP1 DUP1 DUP3 DUP5 CALLDATACOPY PUSH1 0x0 SWAP3 ADD DUP3 SWAP1 MSTORE POP SWAP4 SWAP1 SWAP5 MSTORE POP POP DUP4 SLOAD PUSH1 0x1 DUP2 ADD DUP6 SSTORE SWAP4 DUP2 MSTORE PUSH1 0x20 SWAP1 DUP2 SWAP1 KECCAK256 DUP4 MLOAD DUP1 MLOAD SWAP5 SWAP6 PUSH1 0x3 MUL SWAP1 SWAP2 ADD SWAP4 PUSH2 0x2753 SWAP4 POP DUP5 SWAP3 SWAP2 SWAP1 SWAP2 ADD SWAP1 PUSH2 0x3529 JUMP JUMPDEST POP PUSH1 0x20 DUP3 DUP2 ADD MLOAD DUP1 MLOAD PUSH2 0x276C SWAP3 PUSH1 0x1 DUP6 ADD SWAP3 ADD SWAP1 PUSH2 0x358A JUMP JUMPDEST POP PUSH1 0x40 DUP3 ADD MLOAD DUP1 MLOAD PUSH2 0x2788 SWAP2 PUSH1 0x2 DUP5 ADD SWAP2 PUSH1 0x20 SWAP1 SWAP2 ADD SWAP1 PUSH2 0x362B JUMP JUMPDEST POP POP POP PUSH1 0x64 PUSH1 0xFF DUP6 AND GT ISZERO PUSH2 0x27EF JUMPI PUSH1 0x40 MLOAD PUSH3 0x461BCD PUSH1 0xE5 SHL DUP2 MSTORE PUSH1 0x20 PUSH1 0x4 DUP3 ADD MSTORE PUSH1 0x27 PUSH1 0x24 DUP3 ADD MSTORE PUSH32 0x50524556494F5553204143435552414359204E4F54204245545745454E203020 PUSH1 0x44 DUP3 ADD MSTORE PUSH7 0x414E442031303 PUSH1 0xCC SHL PUSH1 0x64 DUP3 ADD MSTORE PUSH1 0x84 ADD PUSH2 0x900 JUMP JUMPDEST PUSH1 0x1 DUP1 SLOAD PUSH1 0xFF SWAP1 DUP2 AND PUSH1 0x0 SWAP1 DUP2 MSTORE PUSH1 0x16 PUSH1 0x20 SWAP1 DUP2 MSTORE PUSH1 0x40 DUP1 DUP4 KECCAK256 CALLER DUP1 DUP6 MSTORE SWAP1 DUP4 MSTORE DUP2 DUP5 KECCAK256 DUP1 SLOAD PUSH1 0xFF NOT AND DUP12 DUP8 AND OR SWAP1 SSTORE SWAP5 SLOAD SWAP1 SWAP4 AND DUP3 MSTORE PUSH1 0x17 DUP2 MSTORE DUP3 DUP3 KECCAK256 SWAP4 DUP3 MSTORE SWAP3 SWAP1 SWAP3 MSTORE DUP2 KECCAK256 DUP5 SWAP1 SSTORE JUMPDEST DUP3 MLOAD DUP2 LT ISZERO PUSH2 0x2891 JUMPI PUSH2 0x287F DUP4 DUP3 DUP2 MLOAD DUP2 LT PUSH2 0x2858 JUMPI PUSH2 0x2858 PUSH2 0x3ADE JUMP JUMPDEST PUSH1 0x20 MUL PUSH1 0x20 ADD ADD MLOAD DUP4 DUP4 DUP2 MLOAD DUP2 LT PUSH2 0x2872 JUMPI PUSH2 0x2872 PUSH2 0x3ADE JUMP JUMPDEST PUSH1 0x20 MUL PUSH1 0x20 ADD ADD MLOAD PUSH2 0x1D76 JUMP JUMPDEST DUP1 PUSH2 0x2889 DUP2 PUSH2 0x3AF4 JUMP JUMPDEST SWAP2 POP POP PUSH2 0x283A JUMP JUMPDEST POP POP POP POP POP POP POP POP POP POP POP JUMP JUMPDEST PUSH1 0x60 DUP1 PUSH1 0x0 DUP1 DUP6 PUSH1 0x34 DUP7 DIV PUSH1 0x40 MLOAD SWAP6 POP PUSH1 0x20 DUP2 MUL PUSH1 0x20 ADD DUP7 ADD PUSH1 0x40 MSTORE DUP1 DUP7 MSTORE PUSH1 0x0 JUMPDEST DUP2 DUP2 LT ISZERO PUSH2 0x28E8 JUMPI DUP3 CALLDATALOAD PUSH1 0x60 SHR PUSH1 0x20 DUP3 DUP2 MUL DUP10 ADD ADD DUP2 SWAP1 MSTORE SWAP5 POP PUSH1 0x14 SWAP1 SWAP3 ADD SWAP2 PUSH1 0x1 ADD PUSH2 0x28C0 JUMP JUMPDEST POP PUSH1 0x40 MLOAD SWAP5 POP PUSH1 0x20 DUP2 MUL PUSH1 0x20 ADD DUP6 ADD PUSH1 0x40 MSTORE DUP1 DUP6 MSTORE PUSH1 0x0 SWAP4 POP JUMPDEST DUP1 DUP5 LT ISZERO PUSH2 0x292A JUMPI DUP2 CALLDATALOAD SWAP3 POP DUP3 PUSH1 0x20 DUP6 MUL PUSH1 0x20 DUP8 ADD ADD MSTORE PUSH1 0x20 DUP3 ADD SWAP2 POP PUSH1 0x1 DUP5 ADD SWAP4 POP PUSH2 0x2902 JUMP JUMPDEST POP POP POP POP PUSH1 0x0 JUMPDEST DUP3 MLOAD DUP2 LT ISZERO PUSH2 0x2961 JUMPI PUSH2 0x294F DUP4 DUP3 DUP2 MLOAD DUP2 LT PUSH2 0x2858 JUMPI PUSH2 0x2858 PUSH2 0x3ADE JUMP JUMPDEST DUP1 PUSH2 0x2959 DUP2 PUSH2 0x3AF4 JUMP JUMPDEST SWAP2 POP POP PUSH2 0x2931 JUMP JUMPDEST POP POP POP POP POP JUMP JUMPDEST PUSH1 0x0 DUP1 DUP1 JUMPDEST PUSH1 0xD SLOAD DUP2 LT ISZERO PUSH2 0x29DE JUMPI PUSH1 0x0 PUSH1 0xF PUSH1 0x0 PUSH1 0xD DUP5 DUP2 SLOAD DUP2 LT PUSH2 0x2990 JUMPI PUSH2 0x2990 PUSH2 0x3ADE JUMP JUMPDEST PUSH1 0x0 SWAP2 DUP3 MSTORE PUSH1 0x20 DUP1 DUP4 KECCAK256 SWAP1 SWAP2 ADD SLOAD PUSH1 0x1 PUSH1 0x1 PUSH1 0xA0 SHL SUB AND DUP4 MSTORE DUP3 ADD SWAP3 SWAP1 SWAP3 MSTORE PUSH1 0x40 ADD SWAP1 KECCAK256 PUSH1 0x2 ADD SLOAD SLT ISZERO PUSH2 0x29CC JUMPI DUP2 PUSH2 0x29C8 DUP2 PUSH2 0x3AF4 JUMP JUMPDEST SWAP3 POP POP JUMPDEST DUP1 PUSH2 0x29D6 DUP2 PUSH2 0x3AF4 JUMP JUMPDEST SWAP2 POP POP PUSH2 0x296D JUMP JUMPDEST POP PUSH1 0x1 SLOAD PUSH1 0xFF AND PUSH1 0x0 SWAP1 DUP2 MSTORE PUSH1 0x15 PUSH1 0x20 MSTORE PUSH1 0x40 SWAP1 KECCAK256 SLOAD DUP2 GT ISZERO PUSH2 0x2A03 JUMPI PUSH1 0x0 SWAP2 POP POP SWAP1 JUMP JUMPDEST PUSH1 0x1 SWAP2 POP POP SWAP1 JUMP JUMPDEST PUSH1 0x0 PUSH1 0x2 SLOAD PUSH1 0x0 EQ ISZERO PUSH2 0x2A1E JUMPI POP PUSH1 0x0 SWAP1 JUMP JUMPDEST PUSH1 0x0 JUMPDEST PUSH1 0xD SLOAD DUP2 LT ISZERO PUSH2 0x2AC0 JUMPI PUSH1 0x0 PUSH1 0xF PUSH1 0x0 PUSH1 0xD DUP5 DUP2 SLOAD DUP2 LT PUSH2 0x2A44 JUMPI PUSH2 0x2A44 PUSH2 0x3ADE JUMP JUMPDEST PUSH1 0x0 SWAP2 DUP3 MSTORE PUSH1 0x20 DUP1 DUP4 KECCAK256 SWAP1 SWAP2 ADD SLOAD PUSH1 0x1 PUSH1 0x1 PUSH1 0xA0 SHL SUB AND DUP4 MSTORE DUP3 ADD SWAP3 SWAP1 SWAP3 MSTORE PUSH1 0x40 ADD SWAP1 KECCAK256 PUSH1 0x3 DUP2 ADD SLOAD SWAP1 SWAP2 POP PUSH1 0xFF PUSH1 0x1 PUSH1 0xB8 SHL SWAP1 SWAP2 DIV AND ISZERO PUSH2 0x2AAD JUMPI PUSH1 0x1 PUSH1 0x2 SLOAD PUSH2 0x2A8F SWAP2 SWAP1 PUSH2 0x3B0F JUMP JUMPDEST PUSH1 0x3 DUP3 ADD SLOAD PUSH1 0x1 PUSH1 0xA8 SHL SWAP1 DIV PUSH1 0xFF AND LT ISZERO PUSH2 0x2AAD JUMPI PUSH1 0x0 SWAP3 POP POP POP SWAP1 JUMP JUMPDEST POP DUP1 PUSH2 0x2AB8 DUP2 PUSH2 0x3AF4 JUMP JUMPDEST SWAP2 POP POP PUSH2 0x2A21 JUMP JUMPDEST POP PUSH1 0x1 SWAP1 POP SWAP1 JUMP JUMPDEST PUSH2 0x2AD4 PUSH1 0xD PUSH1 0x0 PUSH2 0x350B JUMP JUMPDEST PUSH2 0x2AE4 PUSH1 0xA0 DUP3 ADD PUSH1 0x80 DUP4 ADD PUSH2 0x376A JUMP JUMPDEST PUSH1 0x1 DUP1 SLOAD PUSH1 0xFF NOT AND PUSH1 0xFF SWAP3 SWAP1 SWAP3 AND SWAP2 SWAP1 SWAP2 OR SWAP1 SSTORE PUSH1 0x0 PUSH2 0x2B04 DUP3 DUP1 PUSH2 0x3D2D JUMP JUMPDEST SWAP1 POP SWAP1 POP PUSH1 0x0 JUMPDEST DUP2 DUP2 LT ISZERO PUSH2 0x2C87 JUMPI PUSH1 0x0 PUSH2 0x2B1F DUP5 DUP1 PUSH2 0x3D2D JUMP JUMPDEST DUP4 DUP2 DUP2 LT PUSH2 0x2B2F JUMPI PUSH2 0x2B2F PUSH2 0x3ADE JUMP JUMPDEST SWAP1 POP PUSH1 0x20 MUL ADD PUSH1 0x20 DUP2 ADD SWAP1 PUSH2 0x2B44 SWAP2 SWAP1 PUSH2 0x371E JUMP JUMPDEST SWAP1 POP PUSH2 0x2C74 DUP2 PUSH2 0x2B57 PUSH1 0x20 DUP8 ADD DUP8 PUSH2 0x3D2D JUMP JUMPDEST DUP6 DUP2 DUP2 LT PUSH2 0x2B67 JUMPI PUSH2 0x2B67 PUSH2 0x3ADE JUMP JUMPDEST SWAP1 POP PUSH1 0x20 MUL ADD CALLDATALOAD DUP7 DUP1 PUSH1 0x40 ADD SWAP1 PUSH2 0x2B7E SWAP2 SWAP1 PUSH2 0x3D2D JUMP JUMPDEST DUP7 DUP2 DUP2 LT PUSH2 0x2B8E JUMPI PUSH2 0x2B8E PUSH2 0x3ADE JUMP JUMPDEST SWAP1 POP PUSH1 0x20 MUL ADD CALLDATALOAD DUP8 DUP1 PUSH1 0x60 ADD SWAP1 PUSH2 0x2BA5 SWAP2 SWAP1 PUSH2 0x3D2D JUMP JUMPDEST DUP8 DUP2 DUP2 LT PUSH2 0x2BB5 JUMPI PUSH2 0x2BB5 PUSH2 0x3ADE JUMP JUMPDEST SWAP1 POP PUSH1 0x20 MUL ADD PUSH1 0x20 DUP2 ADD SWAP1 PUSH2 0x2BCA SWAP2 SWAP1 PUSH2 0x376A JUMP JUMPDEST PUSH1 0xD DUP1 SLOAD PUSH1 0x1 DUP2 DUP2 ADD SWAP1 SWAP3 SSTORE PUSH32 0xD7B6990105719101DABEB77144F2A3385C8033ACD3AF97E9423A695E81AD1EB5 ADD DUP1 SLOAD PUSH1 0x1 PUSH1 0x1 PUSH1 0xA0 SHL SUB SWAP1 SWAP7 AND PUSH1 0x1 PUSH1 0x1 PUSH1 0xA0 SHL SUB NOT SWAP1 SWAP7 AND DUP7 OR SWAP1 SSTORE PUSH1 0x0 DUP6 DUP2 MSTORE PUSH1 0xF PUSH1 0x20 MSTORE PUSH1 0x40 DUP2 KECCAK256 PUSH1 0x3 DUP2 ADD DUP1 SLOAD SWAP4 DUP3 ADD SWAP7 SWAP1 SWAP7 SSTORE PUSH1 0x2 DUP2 ADD SWAP5 SWAP1 SWAP5 SSTORE SWAP1 SWAP3 SSTORE PUSH1 0x1 PUSH1 0x1 PUSH1 0xA8 SHL SUB NOT PUSH1 0xFF SWAP2 SWAP1 SWAP2 AND PUSH1 0x1 PUSH1 0xA8 SHL MUL PUSH4 0xFFFFFFFF PUSH1 0xA8 SHL NOT SWAP1 SWAP3 AND SWAP2 SWAP1 SWAP2 OR PUSH1 0x1 PUSH1 0xB8 SHL OR AND SWAP1 SWAP2 OR PUSH1 0x1 PUSH1 0xA0 SHL OR SWAP1 SSTORE JUMP JUMPDEST POP DUP1 PUSH2 0x2C7F DUP2 PUSH2 0x3AF4 JUMP JUMPDEST SWAP2 POP POP PUSH2 0x2B0B JUMP JUMPDEST POP PUSH1 0x1 DUP1 SLOAD PUSH2 0xFF00 NOT AND PUSH2 0x100 PUSH1 0xFF DUP5 AND MUL OR SWAP1 SSTORE PUSH1 0x2 SSTORE POP JUMP JUMPDEST PUSH1 0xE SLOAD PUSH1 0x0 SWAP1 ISZERO PUSH2 0x2CB5 JUMPI POP PUSH1 0x1 SWAP2 SWAP1 POP JUMP JUMPDEST PUSH1 0x0 JUMPDEST PUSH1 0xE SLOAD DUP2 LT ISZERO PUSH2 0x2D15 JUMPI DUP3 PUSH1 0x1 PUSH1 0x1 PUSH1 0xA0 SHL SUB AND PUSH1 0xE DUP3 DUP2 SLOAD DUP2 LT PUSH2 0x2CDF JUMPI PUSH2 0x2CDF PUSH2 0x3ADE JUMP JUMPDEST PUSH1 0x0 SWAP2 DUP3 MSTORE PUSH1 0x20 SWAP1 SWAP2 KECCAK256 ADD SLOAD PUSH1 0x1 PUSH1 0x1 PUSH1 0xA0 SHL SUB AND EQ ISZERO PUSH2 0x2D03 JUMPI POP PUSH1 0x1 SWAP3 SWAP2 POP POP JUMP JUMPDEST DUP1 PUSH2 0x2D0D DUP2 PUSH2 0x3AF4 JUMP JUMPDEST SWAP2 POP POP PUSH2 0x2CB8 JUMP JUMPDEST POP PUSH1 0x0 SWAP3 SWAP2 POP POP JUMP JUMPDEST CALLER PUSH1 0x0 SWAP1 DUP2 MSTORE PUSH1 0xF PUSH1 0x20 MSTORE PUSH1 0x40 SWAP1 KECCAK256 PUSH1 0x3 ADD SLOAD PUSH1 0x1 PUSH1 0xB8 SHL SWAP1 DIV PUSH1 0xFF AND PUSH2 0x2D7D JUMPI PUSH1 0x40 MLOAD PUSH3 0x461BCD PUSH1 0xE5 SHL DUP2 MSTORE PUSH1 0x20 PUSH1 0x4 DUP3 ADD MSTORE PUSH1 0x13 PUSH1 0x24 DUP3 ADD MSTORE PUSH19 0x155CD95C881B9BDD081C9959DA5CDD195C9959 PUSH1 0x6A SHL PUSH1 0x44 DUP3 ADD MSTORE PUSH1 0x64 ADD PUSH2 0x900 JUMP JUMPDEST PUSH1 0x1 SLOAD PUSH1 0xFF AND PUSH1 0x0 SWAP1 DUP2 MSTORE PUSH1 0x14 PUSH1 0x20 SWAP1 DUP2 MSTORE PUSH1 0x40 DUP1 DUP4 KECCAK256 CALLER DUP5 MSTORE SWAP1 SWAP2 MSTORE SWAP1 KECCAK256 SLOAD ISZERO PUSH2 0x2DEA JUMPI PUSH1 0x40 MLOAD PUSH3 0x461BCD PUSH1 0xE5 SHL DUP2 MSTORE PUSH1 0x20 PUSH1 0x4 DUP3 ADD MSTORE PUSH1 0x17 PUSH1 0x24 DUP3 ADD MSTORE PUSH32 0x53636F726520616C7265616479207375626D6974746564000000000000000000 PUSH1 0x44 DUP3 ADD MSTORE PUSH1 0x64 ADD PUSH2 0x900 JUMP JUMPDEST PUSH1 0x1 DUP1 SLOAD PUSH1 0xFF SWAP1 DUP2 AND PUSH1 0x0 SWAP1 DUP2 MSTORE PUSH1 0x14 PUSH1 0x20 SWAP1 DUP2 MSTORE PUSH1 0x40 DUP1 DUP4 KECCAK256 CALLER DUP5 MSTORE DUP3 MSTORE DUP1 DUP4 KECCAK256 DUP7 SWAP1 SSTORE DUP5 SLOAD SWAP1 SWAP4 AND DUP3 MSTORE PUSH1 0x15 SWAP1 MSTORE SWAP1 DUP2 KECCAK256 DUP1 SLOAD SWAP1 SWAP2 SWAP1 PUSH2 0x2E2D SWAP1 DUP5 SWAP1 PUSH2 0x3AC6 JUMP JUMPDEST SWAP1 SWAP2 SSTORE POP POP PUSH1 0x40 MLOAD DUP2 DUP2 MSTORE CALLER SWAP1 PUSH32 0x20E6C7C82A3C0A8203EFCA055FC9A664CA649345957DDC3BA34B2912E9ED8373 SWAP1 PUSH1 0x20 ADD PUSH1 0x40 MLOAD DUP1 SWAP2 SUB SWAP1 LOG2 POP JUMP JUMPDEST CALLER PUSH1 0x0 SWAP1 DUP2 MSTORE PUSH1 0xF PUSH1 0x20 MSTORE PUSH1 0x40 SWAP1 KECCAK256 PUSH1 0x3 ADD SLOAD PUSH1 0x1 PUSH1 0xB8 SHL SWAP1 DIV PUSH1 0xFF AND PUSH2 0x2EA3 JUMPI PUSH1 0x40 MLOAD PUSH3 0x461BCD PUSH1 0xE5 SHL DUP2 MSTORE PUSH1 0x4 ADD PUSH2 0x900 SWAP1 PUSH2 0x3A93 JUMP JUMPDEST CALLER PUSH1 0x0 SWAP1 DUP2 MSTORE PUSH1 0x13 PUSH1 0x20 SWAP1 DUP2 MSTORE PUSH1 0x40 DUP1 DUP4 KECCAK256 PUSH1 0x1 SLOAD PUSH1 0xFF AND DUP5 MSTORE SWAP1 SWAP2 MSTORE SWAP1 KECCAK256 SLOAD ISZERO PUSH2 0x2EF6 JUMPI PUSH1 0x40 MLOAD PUSH3 0x461BCD PUSH1 0xE5 SHL DUP2 MSTORE PUSH1 0x20 PUSH1 0x4 DUP3 ADD MSTORE PUSH1 0x3 PUSH1 0x24 DUP3 ADD MSTORE PUSH3 0x53415 PUSH1 0xEC SHL PUSH1 0x44 DUP3 ADD MSTORE PUSH1 0x64 ADD PUSH2 0x900 JUMP JUMPDEST CALLER PUSH1 0x0 SWAP1 DUP2 MSTORE PUSH1 0x12 PUSH1 0x20 SWAP1 DUP2 MSTORE PUSH1 0x40 DUP1 DUP4 KECCAK256 PUSH1 0x1 SLOAD PUSH1 0xFF AND DUP5 MSTORE SWAP1 SWAP2 MSTORE SWAP1 KECCAK256 SSTORE JUMP JUMPDEST PUSH1 0x60 DUP1 PUSH1 0x60 PUSH1 0x0 DUP1 JUMPDEST PUSH1 0xD SLOAD DUP2 LT ISZERO PUSH2 0x30A3 JUMPI PUSH1 0x0 PUSH1 0xD DUP3 DUP2 SLOAD DUP2 LT PUSH2 0x2F40 JUMPI PUSH2 0x2F40 PUSH2 0x3ADE JUMP JUMPDEST PUSH1 0x0 SWAP2 DUP3 MSTORE PUSH1 0x20 DUP1 DUP4 KECCAK256 SWAP1 SWAP2 ADD SLOAD PUSH1 0x1 SLOAD PUSH1 0xFF AND DUP4 MSTORE PUSH1 0x18 DUP3 MSTORE PUSH1 0x40 DUP1 DUP5 KECCAK256 PUSH1 0x1 PUSH1 0x1 PUSH1 0xA0 SHL SUB SWAP1 SWAP3 AND DUP1 DUP6 MSTORE SWAP2 SWAP1 SWAP3 MSTORE SWAP1 DUP3 KECCAK256 SLOAD SWAP1 SWAP3 POP SWAP1 JUMPDEST DUP2 DUP2 LT ISZERO PUSH2 0x308D JUMPI PUSH1 0x1 SLOAD PUSH1 0xFF AND PUSH1 0x0 SWAP1 DUP2 MSTORE PUSH1 0x18 PUSH1 0x20 SWAP1 DUP2 MSTORE PUSH1 0x40 DUP1 DUP4 KECCAK256 PUSH1 0x1 PUSH1 0x1 PUSH1 0xA0 SHL SUB DUP8 AND DUP5 MSTORE SWAP1 SWAP2 MSTORE DUP2 KECCAK256 DUP1 SLOAD DUP4 SWAP1 DUP2 LT PUSH2 0x2FBC JUMPI PUSH2 0x2FBC PUSH2 0x3ADE JUMP JUMPDEST SWAP1 PUSH1 0x0 MSTORE PUSH1 0x20 PUSH1 0x0 KECCAK256 SWAP1 PUSH1 0x3 MUL ADD SWAP1 POP PUSH1 0x0 JUMPDEST DUP2 SLOAD DUP2 LT ISZERO PUSH2 0x3078 JUMPI DUP11 PUSH1 0x1 PUSH1 0x1 PUSH1 0xA0 SHL SUB AND DUP3 PUSH1 0x0 ADD DUP3 DUP2 SLOAD DUP2 LT PUSH2 0x2FF7 JUMPI PUSH2 0x2FF7 PUSH2 0x3ADE JUMP JUMPDEST PUSH1 0x0 SWAP2 DUP3 MSTORE PUSH1 0x20 SWAP1 SWAP2 KECCAK256 ADD SLOAD PUSH1 0x1 PUSH1 0x1 PUSH1 0xA0 SHL SUB AND EQ ISZERO PUSH2 0x3066 JUMPI PUSH1 0x0 PUSH1 0xF PUSH1 0x0 PUSH1 0xD DUP10 DUP2 SLOAD DUP2 LT PUSH2 0x302B JUMPI PUSH2 0x302B PUSH2 0x3ADE JUMP JUMPDEST PUSH1 0x0 SWAP2 DUP3 MSTORE PUSH1 0x20 DUP1 DUP4 KECCAK256 SWAP1 SWAP2 ADD SLOAD PUSH1 0x1 PUSH1 0x1 PUSH1 0xA0 SHL SUB AND DUP4 MSTORE DUP3 ADD SWAP3 SWAP1 SWAP3 MSTORE PUSH1 0x40 ADD SWAP1 KECCAK256 PUSH1 0x2 ADD SLOAD SLT PUSH2 0x3066 JUMPI DUP7 PUSH2 0x3062 DUP2 PUSH2 0x3AF4 JUMP JUMPDEST SWAP8 POP POP JUMPDEST DUP1 PUSH2 0x3070 DUP2 PUSH2 0x3AF4 JUMP JUMPDEST SWAP2 POP POP PUSH2 0x2FCF JUMP JUMPDEST POP POP DUP1 DUP1 PUSH2 0x3085 SWAP1 PUSH2 0x3AF4 JUMP JUMPDEST SWAP2 POP POP PUSH2 0x2F7A JUMP JUMPDEST POP POP POP DUP1 DUP1 PUSH2 0x309B SWAP1 PUSH2 0x3AF4 JUMP JUMPDEST SWAP2 POP POP PUSH2 0x2F21 JUMP JUMPDEST POP DUP1 PUSH8 0xFFFFFFFFFFFFFFFF DUP2 GT ISZERO PUSH2 0x30BD JUMPI PUSH2 0x30BD PUSH2 0x3CF7 JUMP JUMPDEST PUSH1 0x40 MLOAD SWAP1 DUP1 DUP3 MSTORE DUP1 PUSH1 0x20 MUL PUSH1 0x20 ADD DUP3 ADD PUSH1 0x40 MSTORE DUP1 ISZERO PUSH2 0x30E6 JUMPI DUP2 PUSH1 0x20 ADD PUSH1 0x20 DUP3 MUL DUP1 CALLDATASIZE DUP4 CALLDATACOPY ADD SWAP1 POP JUMPDEST POP SWAP4 POP DUP1 PUSH8 0xFFFFFFFFFFFFFFFF DUP2 GT ISZERO PUSH2 0x3102 JUMPI PUSH2 0x3102 PUSH2 0x3CF7 JUMP JUMPDEST PUSH1 0x40 MLOAD SWAP1 DUP1 DUP3 MSTORE DUP1 PUSH1 0x20 MUL PUSH1 0x20 ADD DUP3 ADD PUSH1 0x40 MSTORE DUP1 ISZERO PUSH2 0x312B JUMPI DUP2 PUSH1 0x20 ADD PUSH1 0x20 DUP3 MUL DUP1 CALLDATASIZE DUP4 CALLDATACOPY ADD SWAP1 POP JUMPDEST POP SWAP3 POP DUP1 PUSH8 0xFFFFFFFFFFFFFFFF DUP2 GT ISZERO PUSH2 0x3147 JUMPI PUSH2 0x3147 PUSH2 0x3CF7 JUMP JUMPDEST PUSH1 0x40 MLOAD SWAP1 DUP1 DUP3 MSTORE DUP1 PUSH1 0x20 MUL PUSH1 0x20 ADD DUP3 ADD PUSH1 0x40 MSTORE DUP1 ISZERO PUSH2 0x3170 JUMPI DUP2 PUSH1 0x20 ADD PUSH1 0x20 DUP3 MUL DUP1 CALLDATASIZE DUP4 CALLDATACOPY ADD SWAP1 POP JUMPDEST POP SWAP2 POP PUSH1 0x0 DUP1 JUMPDEST PUSH1 0xD SLOAD DUP2 LT ISZERO PUSH2 0x33B7 JUMPI PUSH1 0x0 PUSH1 0xF PUSH1 0x0 PUSH1 0xD DUP5 DUP2 SLOAD DUP2 LT PUSH2 0x319A JUMPI PUSH2 0x319A PUSH2 0x3ADE JUMP JUMPDEST PUSH1 0x0 SWAP2 DUP3 MSTORE PUSH1 0x20 DUP1 DUP4 KECCAK256 SWAP1 SWAP2 ADD SLOAD PUSH1 0x1 PUSH1 0x1 PUSH1 0xA0 SHL SUB SWAP1 DUP2 AND DUP5 MSTORE DUP4 DUP3 ADD SWAP5 SWAP1 SWAP5 MSTORE PUSH1 0x40 SWAP3 DUP4 ADD DUP3 KECCAK256 PUSH1 0x1 SLOAD PUSH1 0xFF AND DUP4 MSTORE PUSH1 0x18 DUP3 MSTORE DUP4 DUP4 KECCAK256 PUSH1 0x3 DUP3 ADD SLOAD SWAP1 SWAP6 AND DUP4 MSTORE SWAP4 SWAP1 MSTORE SWAP1 DUP2 KECCAK256 SLOAD SWAP2 SWAP3 POP JUMPDEST DUP2 DUP2 LT ISZERO PUSH2 0x33A1 JUMPI PUSH1 0x1 SLOAD PUSH1 0xFF AND PUSH1 0x0 SWAP1 DUP2 MSTORE PUSH1 0x18 PUSH1 0x20 SWAP1 DUP2 MSTORE PUSH1 0x40 DUP1 DUP4 KECCAK256 PUSH1 0x3 DUP8 ADD SLOAD PUSH1 0x1 PUSH1 0x1 PUSH1 0xA0 SHL SUB AND DUP5 MSTORE SWAP1 SWAP2 MSTORE DUP2 KECCAK256 DUP1 SLOAD DUP4 SWAP1 DUP2 LT PUSH2 0x322D JUMPI PUSH2 0x322D PUSH2 0x3ADE JUMP JUMPDEST SWAP1 PUSH1 0x0 MSTORE PUSH1 0x20 PUSH1 0x0 KECCAK256 SWAP1 PUSH1 0x3 MUL ADD SWAP1 POP PUSH1 0x0 JUMPDEST DUP2 SLOAD DUP2 LT ISZERO PUSH2 0x338C JUMPI DUP12 PUSH1 0x1 PUSH1 0x1 PUSH1 0xA0 SHL SUB AND DUP3 PUSH1 0x0 ADD DUP3 DUP2 SLOAD DUP2 LT PUSH2 0x3268 JUMPI PUSH2 0x3268 PUSH2 0x3ADE JUMP JUMPDEST PUSH1 0x0 SWAP2 DUP3 MSTORE PUSH1 0x20 SWAP1 SWAP2 KECCAK256 ADD SLOAD PUSH1 0x1 PUSH1 0x1 PUSH1 0xA0 SHL SUB AND EQ ISZERO PUSH2 0x337A JUMPI PUSH1 0x0 DUP6 PUSH1 0x2 ADD SLOAD SLT PUSH2 0x337A JUMPI PUSH1 0x3 DUP6 ADD SLOAD DUP12 MLOAD PUSH1 0x1 PUSH1 0x1 PUSH1 0xA0 SHL SUB SWAP1 SWAP2 AND SWAP1 DUP13 SWAP1 DUP10 SWAP1 DUP2 LT PUSH2 0x32B4 JUMPI PUSH2 0x32B4 PUSH2 0x3ADE JUMP JUMPDEST PUSH1 0x20 MUL PUSH1 0x20 ADD ADD SWAP1 PUSH1 0x1 PUSH1 0x1 PUSH1 0xA0 SHL SUB AND SWAP1 DUP2 PUSH1 0x1 PUSH1 0x1 PUSH1 0xA0 SHL SUB AND DUP2 MSTORE POP POP DUP2 PUSH1 0x1 ADD DUP2 DUP2 SLOAD DUP2 LT PUSH2 0x32E9 JUMPI PUSH2 0x32E9 PUSH2 0x3ADE JUMP JUMPDEST SWAP1 PUSH1 0x0 MSTORE PUSH1 0x20 PUSH1 0x0 KECCAK256 SWAP1 PUSH1 0x20 SWAP2 DUP3 DUP3 DIV ADD SWAP2 SWAP1 MOD SWAP1 SLOAD SWAP1 PUSH2 0x100 EXP SWAP1 DIV PUSH1 0xFF AND DUP11 DUP9 DUP2 MLOAD DUP2 LT PUSH2 0x331B JUMPI PUSH2 0x331B PUSH2 0x3ADE JUMP JUMPDEST PUSH1 0x20 MUL PUSH1 0x20 ADD ADD SWAP1 PUSH1 0xFF AND SWAP1 DUP2 PUSH1 0xFF AND DUP2 MSTORE POP POP DUP2 PUSH1 0x2 ADD DUP2 DUP2 SLOAD DUP2 LT PUSH2 0x3344 JUMPI PUSH2 0x3344 PUSH2 0x3ADE JUMP JUMPDEST SWAP1 PUSH1 0x0 MSTORE PUSH1 0x20 PUSH1 0x0 KECCAK256 ADD SLOAD DUP10 DUP9 DUP2 MLOAD DUP2 LT PUSH2 0x3361 JUMPI PUSH2 0x3361 PUSH2 0x3ADE JUMP JUMPDEST PUSH1 0x20 SWAP1 DUP2 MUL SWAP2 SWAP1 SWAP2 ADD ADD MSTORE DUP7 PUSH2 0x3376 DUP2 PUSH2 0x3AF4 JUMP JUMPDEST SWAP8 POP POP JUMPDEST DUP1 PUSH2 0x3384 DUP2 PUSH2 0x3AF4 JUMP JUMPDEST SWAP2 POP POP PUSH2 0x3240 JUMP JUMPDEST POP POP DUP1 DUP1 PUSH2 0x3399 SWAP1 PUSH2 0x3AF4 JUMP JUMPDEST SWAP2 POP POP PUSH2 0x31E7 JUMP JUMPDEST POP POP POP DUP1 DUP1 PUSH2 0x33AF SWAP1 PUSH2 0x3AF4 JUMP JUMPDEST SWAP2 POP POP PUSH2 0x3177 JUMP JUMPDEST POP POP POP SWAP2 SWAP4 SWAP1 SWAP3 POP JUMP JUMPDEST PUSH1 0x0 DUP1 DUP3 SLT PUSH2 0x33CE JUMPI POP SWAP1 JUMP JUMPDEST PUSH1 0x1 PUSH1 0xFF SHL DUP3 EQ ISZERO PUSH2 0x33F2 JUMPI PUSH2 0x33EC PUSH1 0x1 PUSH1 0x1 PUSH1 0xFF SHL SUB PUSH1 0x1 PUSH2 0x3AC6 JUMP JUMPDEST SWAP3 SWAP2 POP POP JUMP JUMPDEST PUSH2 0x33EC DUP3 PUSH2 0x3BEF JUMP JUMPDEST PUSH1 0x0 DUP1 DUP3 SGT PUSH2 0x340B JUMPI PUSH1 0x0 PUSH2 0x33EC JUMP JUMPDEST POP SWAP1 JUMP JUMPDEST PUSH1 0x1 PUSH1 0x1 PUSH1 0xA0 SHL SUB DUP2 AND PUSH1 0x0 SWAP1 DUP2 MSTORE PUSH1 0xF PUSH1 0x20 MSTORE PUSH1 0x40 DUP2 KECCAK256 PUSH1 0x3 DUP2 ADD DUP1 SLOAD PUSH1 0xFF PUSH1 0xB8 SHL NOT AND PUSH1 0x1 PUSH1 0xB8 SHL OR SWAP1 SSTORE CALLVALUE PUSH1 0x1 SWAP2 DUP3 ADD SSTORE PUSH1 0x2 DUP1 SLOAD SWAP2 SWAP3 SWAP1 SWAP2 PUSH2 0x3456 SWAP1 DUP5 SWAP1 PUSH2 0x3AC6 JUMP JUMPDEST SWAP1 SWAP2 SSTORE POP POP PUSH1 0xD DUP1 SLOAD PUSH1 0x1 DUP2 ADD SWAP1 SWAP2 SSTORE PUSH32 0xD7B6990105719101DABEB77144F2A3385C8033ACD3AF97E9423A695E81AD1EB5 ADD DUP1 SLOAD PUSH1 0x1 PUSH1 0x1 PUSH1 0xA0 SHL SUB DUP4 AND PUSH1 0x1 PUSH1 0x1 PUSH1 0xA0 SHL SUB NOT SWAP1 SWAP2 AND DUP2 OR SWAP1 SWAP2 SSTORE PUSH1 0x0 SWAP1 DUP2 MSTORE PUSH1 0xF PUSH1 0x20 MSTORE PUSH1 0x40 SWAP1 DUP2 SWAP1 KECCAK256 PUSH1 0x3 ADD DUP1 SLOAD PUSH1 0xFF PUSH1 0xA0 SHL NOT AND PUSH1 0x1 PUSH1 0xA0 SHL OR SWAP1 SSTORE PUSH1 0x2 SLOAD SWAP1 MLOAD PUSH32 0xABE5B1202D1F4ED2C1BACCF335320CEAE3ABD90670864B741E80A2EF5671D882 SWAP2 PUSH2 0x3500 SWAP2 DUP5 SWAP2 CALLVALUE SWAP2 SELFBALANCE SWAP2 SWAP1 PUSH2 0x3BAA JUMP JUMPDEST PUSH1 0x40 MLOAD DUP1 SWAP2 SUB SWAP1 LOG1 POP JUMP JUMPDEST POP DUP1 SLOAD PUSH1 0x0 DUP3 SSTORE SWAP1 PUSH1 0x0 MSTORE PUSH1 0x20 PUSH1 0x0 KECCAK256 SWAP1 DUP2 ADD SWAP1 PUSH2 0x2184 SWAP2 SWAP1 PUSH2 0x3666 JUMP JUMPDEST DUP3 DUP1 SLOAD DUP3 DUP3 SSTORE SWAP1 PUSH1 0x0 MSTORE PUSH1 0x20 PUSH1 0x0 KECCAK256 SWAP1 DUP2 ADD SWAP3 DUP3 ISZERO PUSH2 0x357E JUMPI SWAP2 PUSH1 0x20 MUL DUP3 ADD JUMPDEST DUP3 DUP2 GT ISZERO PUSH2 0x357E JUMPI DUP3 MLOAD DUP3 SLOAD PUSH1 0x1 PUSH1 0x1 PUSH1 0xA0 SHL SUB NOT AND PUSH1 0x1 PUSH1 0x1 PUSH1 0xA0 SHL SUB SWAP1 SWAP2 AND OR DUP3 SSTORE PUSH1 0x20 SWAP1 SWAP3 ADD SWAP2 PUSH1 0x1 SWAP1 SWAP2 ADD SWAP1 PUSH2 0x3549 JUMP JUMPDEST POP PUSH2 0x340B SWAP3 SWAP2 POP PUSH2 0x3666 JUMP JUMPDEST DUP3 DUP1 SLOAD DUP3 DUP3 SSTORE SWAP1 PUSH1 0x0 MSTORE PUSH1 0x20 PUSH1 0x0 KECCAK256 SWAP1 PUSH1 0x1F ADD PUSH1 0x20 SWAP1 DIV DUP2 ADD SWAP3 DUP3 ISZERO PUSH2 0x357E JUMPI SWAP2 PUSH1 0x20 MUL DUP3 ADD PUSH1 0x0 JUMPDEST DUP4 DUP3 GT ISZERO PUSH2 0x35F1 JUMPI DUP4 MLOAD DUP4 DUP3 PUSH2 0x100 EXP DUP2 SLOAD DUP2 PUSH1 0xFF MUL NOT AND SWAP1 DUP4 PUSH1 0xFF AND MUL OR SWAP1 SSTORE POP SWAP3 PUSH1 0x20 ADD SWAP3 PUSH1 0x1 ADD PUSH1 0x20 DUP2 PUSH1 0x0 ADD DIV SWAP3 DUP4 ADD SWAP3 PUSH1 0x1 SUB MUL PUSH2 0x35B3 JUMP JUMPDEST DUP1 ISZERO PUSH2 0x361E JUMPI DUP3 DUP2 PUSH2 0x100 EXP DUP2 SLOAD SWAP1 PUSH1 0xFF MUL NOT AND SWAP1 SSTORE PUSH1 0x1 ADD PUSH1 0x20 DUP2 PUSH1 0x0 ADD DIV SWAP3 DUP4 ADD SWAP3 PUSH1 0x1 SUB MUL PUSH2 0x35F1 JUMP JUMPDEST POP POP PUSH2 0x340B SWAP3 SWAP2 POP PUSH2 0x3666 JUMP JUMPDEST DUP3 DUP1 SLOAD DUP3 DUP3 SSTORE SWAP1 PUSH1 0x0 MSTORE PUSH1 0x20 PUSH1 0x0 KECCAK256 SWAP1 DUP2 ADD SWAP3 DUP3 ISZERO PUSH2 0x357E JUMPI SWAP2 PUSH1 0x20 MUL DUP3 ADD JUMPDEST DUP3 DUP2 GT ISZERO PUSH2 0x357E JUMPI DUP3 MLOAD DUP3 SSTORE SWAP2 PUSH1 0x20 ADD SWAP2 SWAP1 PUSH1 0x1 ADD SWAP1 PUSH2 0x364B JUMP JUMPDEST JUMPDEST DUP1 DUP3 GT ISZERO PUSH2 0x340B JUMPI PUSH1 0x0 DUP2 SSTORE PUSH1 0x1 ADD PUSH2 0x3667 JUMP JUMPDEST DUP1 CALLDATALOAD PUSH1 0x1 PUSH1 0x1 PUSH1 0xA0 SHL SUB DUP2 AND DUP2 EQ PUSH2 0x3692 JUMPI PUSH1 0x0 DUP1 REVERT JUMPDEST SWAP2 SWAP1 POP JUMP JUMPDEST DUP1 CALLDATALOAD PUSH1 0xFF DUP2 AND DUP2 EQ PUSH2 0x3692 JUMPI PUSH1 0x0 DUP1 REVERT JUMPDEST PUSH1 0x0 DUP1 PUSH1 0x40 DUP4 DUP6 SUB SLT ISZERO PUSH2 0x36BB JUMPI PUSH1 0x0 DUP1 REVERT JUMPDEST PUSH2 0x36C4 DUP4 PUSH2 0x367B JUMP JUMPDEST SWAP2 POP PUSH2 0x36D2 PUSH1 0x20 DUP5 ADD PUSH2 0x3697 JUMP JUMPDEST SWAP1 POP SWAP3 POP SWAP3 SWAP1 POP JUMP JUMPDEST PUSH1 0x0 PUSH1 0x20 DUP3 DUP5 SUB SLT ISZERO PUSH2 0x36ED JUMPI PUSH1 0x0 DUP1 REVERT JUMPDEST POP CALLDATALOAD SWAP2 SWAP1 POP JUMP JUMPDEST PUSH1 0x0 DUP1 PUSH1 0x40 DUP4 DUP6 SUB SLT ISZERO PUSH2 0x3707 JUMPI PUSH1 0x0 DUP1 REVERT JUMPDEST PUSH2 0x3710 DUP4 PUSH2 0x367B JUMP JUMPDEST SWAP5 PUSH1 0x20 SWAP4 SWAP1 SWAP4 ADD CALLDATALOAD SWAP4 POP POP POP JUMP JUMPDEST PUSH1 0x0 PUSH1 0x20 DUP3 DUP5 SUB SLT ISZERO PUSH2 0x3730 JUMPI PUSH1 0x0 DUP1 REVERT JUMPDEST PUSH2 0x3739 DUP3 PUSH2 0x367B JUMP JUMPDEST SWAP4 SWAP3 POP POP POP JUMP JUMPDEST PUSH1 0x0 DUP1 PUSH1 0x40 DUP4 DUP6 SUB SLT ISZERO PUSH2 0x3753 JUMPI PUSH1 0x0 DUP1 REVERT JUMPDEST PUSH2 0x375C DUP4 PUSH2 0x367B JUMP JUMPDEST SWAP2 POP PUSH2 0x36D2 PUSH1 0x20 DUP5 ADD PUSH2 0x367B JUMP JUMPDEST PUSH1 0x0 PUSH1 0x20 DUP3 DUP5 SUB SLT ISZERO PUSH2 0x377C JUMPI PUSH1 0x0 DUP1 REVERT JUMPDEST PUSH2 0x3739 DUP3 PUSH2 0x3697 JUMP JUMPDEST PUSH1 0x0 DUP1 PUSH1 0x40 DUP4 DUP6 SUB SLT ISZERO PUSH2 0x3798 JUMPI PUSH1 0x0 DUP1 REVERT JUMPDEST POP POP DUP1 CALLDATALOAD SWAP3 PUSH1 0x20 SWAP1 SWAP2 ADD CALLDATALOAD SWAP2 POP JUMP JUMPDEST PUSH1 0x0 DUP1 PUSH1 0x40 DUP4 DUP6 SUB SLT ISZERO PUSH2 0x37BA JUMPI PUSH1 0x0 DUP1 REVERT JUMPDEST PUSH2 0x375C DUP4 PUSH2 0x3697 JUMP JUMPDEST PUSH1 0x0 DUP2 MLOAD DUP1 DUP5 MSTORE PUSH1 0x20 DUP1 DUP6 ADD SWAP5 POP DUP1 DUP5 ADD PUSH1 0x0 JUMPDEST DUP4 DUP2 LT ISZERO PUSH2 0x37F6 JUMPI DUP2 MLOAD PUSH1 0xFF AND DUP8 MSTORE SWAP6 DUP3 ADD SWAP6 SWAP1 DUP3 ADD SWAP1 PUSH1 0x1 ADD PUSH2 0x37D7 JUMP JUMPDEST POP SWAP5 SWAP6 SWAP5 POP POP POP POP POP JUMP JUMPDEST PUSH1 0x0 DUP2 MLOAD DUP1 DUP5 MSTORE PUSH1 0x20 DUP1 DUP6 ADD SWAP5 POP DUP1 DUP5 ADD PUSH1 0x0 JUMPDEST DUP4 DUP2 LT ISZERO PUSH2 0x37F6 JUMPI DUP2 MLOAD DUP8 MSTORE SWAP6 DUP3 ADD SWAP6 SWAP1 DUP3 ADD SWAP1 PUSH1 0x1 ADD PUSH2 0x3815 JUMP JUMPDEST PUSH1 0x40 DUP2 MSTORE PUSH1 0x0 PUSH2 0x3844 PUSH1 0x40 DUP4 ADD DUP6 PUSH2 0x37C3 JUMP JUMPDEST DUP3 DUP2 SUB PUSH1 0x20 DUP5 ADD MSTORE PUSH2 0x3856 DUP2 DUP6 PUSH2 0x3801 JUMP JUMPDEST SWAP6 SWAP5 POP POP POP POP POP JUMP JUMPDEST PUSH1 0x0 DUP1 DUP4 PUSH1 0x1F DUP5 ADD SLT PUSH2 0x3871 JUMPI PUSH1 0x0 DUP1 REVERT JUMPDEST POP DUP2 CALLDATALOAD PUSH8 0xFFFFFFFFFFFFFFFF DUP2 GT ISZERO PUSH2 0x3889 JUMPI PUSH1 0x0 DUP1 REVERT JUMPDEST PUSH1 0x20 DUP4 ADD SWAP2 POP DUP4 PUSH1 0x20 DUP3 DUP6 ADD ADD GT ISZERO PUSH2 0x38A1 JUMPI PUSH1 0x0 DUP1 REVERT JUMPDEST SWAP3 POP SWAP3 SWAP1 POP JUMP JUMPDEST PUSH1 0x0 DUP1 DUP4 PUSH1 0x1F DUP5 ADD SLT PUSH2 0x38BA JUMPI PUSH1 0x0 DUP1 REVERT JUMPDEST POP DUP2 CALLDATALOAD PUSH8 0xFFFFFFFFFFFFFFFF DUP2 GT ISZERO PUSH2 0x38D2 JUMPI PUSH1 0x0 DUP1 REVERT JUMPDEST PUSH1 0x20 DUP4 ADD SWAP2 POP DUP4 PUSH1 0x20 DUP3 PUSH1 0x5 SHL DUP6 ADD ADD GT ISZERO PUSH2 0x38A1 JUMPI PUSH1 0x0 DUP1 REVERT JUMPDEST PUSH1 0x0 DUP1 PUSH1 0x0 DUP1 PUSH1 0x0 DUP1 PUSH1 0x0 DUP1 PUSH1 0xA0 DUP10 DUP12 SUB SLT ISZERO PUSH2 0x3909 JUMPI PUSH1 0x0 DUP1 REVERT JUMPDEST DUP9 CALLDATALOAD PUSH8 0xFFFFFFFFFFFFFFFF DUP1 DUP3 GT ISZERO PUSH2 0x3921 JUMPI PUSH1 0x0 DUP1 REVERT JUMPDEST PUSH2 0x392D DUP13 DUP4 DUP14 ADD PUSH2 0x385F JUMP JUMPDEST SWAP1 SWAP11 POP SWAP9 POP PUSH1 0x20 DUP12 ADD CALLDATALOAD SWAP2 POP DUP1 DUP3 GT ISZERO PUSH2 0x3946 JUMPI PUSH1 0x0 DUP1 REVERT JUMPDEST PUSH2 0x3952 DUP13 DUP4 DUP14 ADD PUSH2 0x38A8 JUMP JUMPDEST SWAP1 SWAP9 POP SWAP7 POP PUSH1 0x40 DUP12 ADD CALLDATALOAD SWAP2 POP DUP1 DUP3 GT ISZERO PUSH2 0x396B JUMPI PUSH1 0x0 DUP1 REVERT JUMPDEST POP PUSH2 0x3978 DUP12 DUP3 DUP13 ADD PUSH2 0x38A8 JUMP JUMPDEST SWAP1 SWAP6 POP SWAP4 POP PUSH2 0x398B SWAP1 POP PUSH1 0x60 DUP11 ADD PUSH2 0x3697 JUMP JUMPDEST SWAP2 POP PUSH1 0x80 DUP10 ADD CALLDATALOAD SWAP1 POP SWAP3 SWAP6 SWAP9 POP SWAP3 SWAP6 SWAP9 SWAP1 SWAP4 SWAP7 POP JUMP JUMPDEST PUSH1 0x0 DUP1 PUSH1 0x20 DUP4 DUP6 SUB SLT ISZERO PUSH2 0x39B4 JUMPI PUSH1 0x0 DUP1 REVERT JUMPDEST DUP3 CALLDATALOAD PUSH8 0xFFFFFFFFFFFFFFFF DUP2 GT ISZERO PUSH2 0x39CB JUMPI PUSH1 0x0 DUP1 REVERT JUMPDEST PUSH2 0x39D7 DUP6 DUP3 DUP7 ADD PUSH2 0x385F JUMP JUMPDEST SWAP1 SWAP7 SWAP1 SWAP6 POP SWAP4 POP POP POP POP JUMP JUMPDEST PUSH1 0x0 PUSH1 0x20 DUP3 DUP5 SUB SLT ISZERO PUSH2 0x39F5 JUMPI PUSH1 0x0 DUP1 REVERT JUMPDEST DUP2 CALLDATALOAD PUSH8 0xFFFFFFFFFFFFFFFF DUP2 GT ISZERO PUSH2 0x3A0C JUMPI PUSH1 0x0 DUP1 REVERT JUMPDEST DUP3 ADD PUSH1 0xA0 DUP2 DUP6 SUB SLT ISZERO PUSH2 0x3739 JUMPI PUSH1 0x0 DUP1 REVERT JUMPDEST PUSH1 0x60 DUP1 DUP3 MSTORE DUP5 MLOAD SWAP1 DUP3 ADD DUP2 SWAP1 MSTORE PUSH1 0x0 SWAP1 PUSH1 0x20 SWAP1 PUSH1 0x80 DUP5 ADD SWAP1 DUP3 DUP9 ADD DUP5 JUMPDEST DUP3 DUP2 LT ISZERO PUSH2 0x3A60 JUMPI DUP2 MLOAD PUSH1 0x1 PUSH1 0x1 PUSH1 0xA0 SHL SUB AND DUP5 MSTORE SWAP3 DUP5 ADD SWAP3 SWAP1 DUP5 ADD SWAP1 PUSH1 0x1 ADD PUSH2 0x3A3B JUMP JUMPDEST POP POP POP DUP4 DUP2 SUB DUP3 DUP6 ADD MSTORE PUSH2 0x3A74 DUP2 DUP8 PUSH2 0x37C3 JUMP JUMPDEST SWAP2 POP POP DUP3 DUP2 SUB PUSH1 0x40 DUP5 ADD MSTORE PUSH2 0x3A89 DUP2 DUP6 PUSH2 0x3801 JUMP JUMPDEST SWAP7 SWAP6 POP POP POP POP POP POP JUMP JUMPDEST PUSH1 0x20 DUP1 DUP3 MSTORE PUSH1 0x3 SWAP1 DUP3 ADD MSTORE PUSH3 0x29A729 PUSH1 0xE9 SHL PUSH1 0x40 DUP3 ADD MSTORE PUSH1 0x60 ADD SWAP1 JUMP JUMPDEST PUSH4 0x4E487B71 PUSH1 0xE0 SHL PUSH1 0x0 MSTORE PUSH1 0x11 PUSH1 0x4 MSTORE PUSH1 0x24 PUSH1 0x0 REVERT JUMPDEST PUSH1 0x0 DUP3 NOT DUP3 GT ISZERO PUSH2 0x3AD9 JUMPI PUSH2 0x3AD9 PUSH2 0x3AB0 JUMP JUMPDEST POP ADD SWAP1 JUMP JUMPDEST PUSH4 0x4E487B71 PUSH1 0xE0 SHL PUSH1 0x0 MSTORE PUSH1 0x32 PUSH1 0x4 MSTORE PUSH1 0x24 PUSH1 0x0 REVERT JUMPDEST PUSH1 0x0 PUSH1 0x0 NOT DUP3 EQ ISZERO PUSH2 0x3B08 JUMPI PUSH2 0x3B08 PUSH2 0x3AB0 JUMP JUMPDEST POP PUSH1 0x1 ADD SWAP1 JUMP JUMPDEST PUSH1 0x0 DUP3 DUP3 LT ISZERO PUSH2 0x3B21 JUMPI PUSH2 0x3B21 PUSH2 0x3AB0 JUMP JUMPDEST POP SUB SWAP1 JUMP JUMPDEST PUSH1 0x0 PUSH1 0xFF DUP3 AND PUSH1 0xFF DUP5 AND DUP1 DUP3 LT ISZERO PUSH2 0x3B40 JUMPI PUSH2 0x3B40 PUSH2 0x3AB0 JUMP JUMPDEST SWAP1 SUB SWAP4 SWAP3 POP POP POP JUMP JUMPDEST PUSH1 0x0 DUP3 PUSH2 0x3B66 JUMPI PUSH4 0x4E487B71 PUSH1 0xE0 SHL PUSH1 0x0 MSTORE PUSH1 0x12 PUSH1 0x4 MSTORE PUSH1 0x24 PUSH1 0x0 REVERT JUMPDEST POP DIV SWAP1 JUMP JUMPDEST PUSH1 0x0 DUP1 DUP4 SLT DUP1 ISZERO PUSH1 0x1 PUSH1 0xFF SHL DUP6 ADD DUP5 SLT AND ISZERO PUSH2 0x3B89 JUMPI PUSH2 0x3B89 PUSH2 0x3AB0 JUMP JUMPDEST PUSH1 0x1 PUSH1 0x1 PUSH1 0xFF SHL SUB DUP5 ADD DUP4 SGT DUP2 AND ISZERO PUSH2 0x3BA4 JUMPI PUSH2 0x3BA4 PUSH2 0x3AB0 JUMP JUMPDEST POP POP SUB SWAP1 JUMP JUMPDEST PUSH1 0x1 PUSH1 0x1 PUSH1 0xA0 SHL SUB SWAP5 SWAP1 SWAP5 AND DUP5 MSTORE PUSH1 0x20 DUP5 ADD SWAP3 SWAP1 SWAP3 MSTORE PUSH1 0x40 DUP4 ADD MSTORE PUSH1 0x60 DUP3 ADD MSTORE PUSH1 0x80 ADD SWAP1 JUMP JUMPDEST PUSH1 0x0 DUP2 PUSH1 0x0 NOT DIV DUP4 GT DUP3 ISZERO ISZERO AND ISZERO PUSH2 0x3BEA JUMPI PUSH2 0x3BEA PUSH2 0x3AB0 JUMP JUMPDEST POP MUL SWAP1 JUMP JUMPDEST PUSH1 0x0 PUSH1 0x1 PUSH1 0xFF SHL DUP3 EQ ISZERO PUSH2 0x3C05 JUMPI PUSH2 0x3C05 PUSH2 0x3AB0 JUMP JUMPDEST POP PUSH1 0x0 SUB SWAP1 JUMP JUMPDEST PUSH1 0x0 DUP1 DUP3 SLT DUP1 ISZERO PUSH1 0x1 PUSH1 0x1 PUSH1 0xFF SHL SUB DUP5 SWAP1 SUB DUP6 SGT AND ISZERO PUSH2 0x3C2E JUMPI PUSH2 0x3C2E PUSH2 0x3AB0 JUMP JUMPDEST PUSH1 0x1 PUSH1 0xFF SHL DUP4 SWAP1 SUB DUP5 SLT DUP2 AND ISZERO PUSH2 0x3C47 JUMPI PUSH2 0x3C47 PUSH2 0x3AB0 JUMP JUMPDEST POP POP ADD SWAP1 JUMP JUMPDEST PUSH1 0x0 PUSH1 0xFF DUP3 AND PUSH1 0xFF DUP5 AND DUP1 PUSH1 0xFF SUB DUP3 GT ISZERO PUSH2 0x3C6A JUMPI PUSH2 0x3C6A PUSH2 0x3AB0 JUMP JUMPDEST ADD SWAP4 SWAP3 POP POP POP JUMP JUMPDEST PUSH1 0x0 PUSH1 0x1 PUSH1 0x1 PUSH1 0xFF SHL SUB DUP2 DUP5 SGT DUP3 DUP5 SGT DUP1 DUP3 AND DUP7 DUP5 DIV DUP7 GT AND ISZERO PUSH2 0x3C98 JUMPI PUSH2 0x3C98 PUSH2 0x3AB0 JUMP JUMPDEST PUSH1 0x1 PUSH1 0xFF SHL PUSH1 0x0 DUP8 SLT DUP3 DUP2 AND DUP8 DUP4 SDIV DUP10 SLT AND ISZERO PUSH2 0x3CB7 JUMPI PUSH2 0x3CB7 PUSH2 0x3AB0 JUMP JUMPDEST PUSH1 0x0 DUP8 SLT SWAP3 POP DUP8 DUP3 SDIV DUP8 SLT DUP5 DUP5 AND AND ISZERO PUSH2 0x3CD3 JUMPI PUSH2 0x3CD3 PUSH2 0x3AB0 JUMP JUMPDEST DUP8 DUP6 SDIV DUP8 SLT DUP2 DUP5 AND AND ISZERO PUSH2 0x3CE9 JUMPI PUSH2 0x3CE9 PUSH2 0x3AB0 JUMP JUMPDEST POP POP POP SWAP3 SWAP1 SWAP4 MUL SWAP4 SWAP3 POP POP POP JUMP JUMPDEST PUSH4 0x4E487B71 PUSH1 0xE0 SHL PUSH1 0x0 MSTORE PUSH1 0x41 PUSH1 0x4 MSTORE PUSH1 0x24 PUSH1 0x0 REVERT JUMPDEST PUSH1 0x0 PUSH1 0xFF DUP3 AND PUSH1 0xFF DUP2 EQ ISZERO PUSH2 0x3D24 JUMPI PUSH2 0x3D24 PUSH2 0x3AB0 JUMP JUMPDEST PUSH1 0x1 ADD SWAP3 SWAP2 POP POP JUMP JUMPDEST PUSH1 0x0 DUP1 DUP4 CALLDATALOAD PUSH1 0x1E NOT DUP5 CALLDATASIZE SUB ADD DUP2 SLT PUSH2 0x3D44 JUMPI PUSH1 0x0 DUP1 REVERT JUMPDEST DUP4 ADD DUP1 CALLDATALOAD SWAP2 POP PUSH8 0xFFFFFFFFFFFFFFFF DUP3 GT ISZERO PUSH2 0x3D5F JUMPI PUSH1 0x0 DUP1 REVERT JUMPDEST PUSH1 0x20 ADD SWAP2 POP PUSH1 0x5 DUP2 SWAP1 SHL CALLDATASIZE SUB DUP3 SGT ISZERO PUSH2 0x38A1 JUMPI PUSH1 0x0 DUP1 REVERT INVALID LOG2 PUSH5 0x6970667358 0x22 SLT KECCAK256 JUMP SWAP7 SWAP10 0xCB 0x24 PUSH30 0xDADF22ADA1644193ED31B125A84A1F6DF56EA9A1C772F5C71C2864736F6C PUSH4 0x43000809 STOP CALLER "},"methodIdentifiers":{"__isPunished(address)":"f0c36955","__testInitSettleState((address[],uint256[],int256[],uint8[],uint8))":"e98b25f9","contributionScore(uint8,address)":"fa569fa2","contributionStart()":"a41dacd6","exitModel()":"0899604c","feedback(address,int256)":"3aa8f2ed","freeriderPenalty()":"005c43a5","getAllAccuraciesAbout(address)":"f6020f01","getAllPreviousAccuraciesAndLosses()":"701341ed","hasVoted(address,address)":"4d4d2b1c","initTS()":"fd5201be","isContributionRoundDone()":"d6aad1b9","isFeedBackRoundDone()":"dcc1484a","max_collateral()":"904a9d17","min_collateral()":"508be15e","min_rounds()":"3f4f2d62","modelHash()":"1b2ccc09","nrOfContributionScores(uint8)":"59ac0c46","nrOfParticipants()":"4e49ad78","nrOfProvidedHashedWeights()":"b986695b","participants(uint256)":"35c1d349","prev_accs(uint8,address)":"8b2f56fb","prev_losses(uint8,address)":"667ba0f6","provideHashedWeights(bytes32,uint256)":"64a3e221","punishfactor()":"fcbace5d","punishfactorContrib()":"186beae3","register()":"1aa3a008","register(address)":"4420e486","registerSlot(bytes32)":"f5b27228","rewardLeft()":"3eee0426","rewardPerRound()":"33f93bcd","round()":"146ca531","roundStart()":"40365852","secretOf(address,uint8)":"095083af","settle()":"11da60b4","submitContributionScore(int256)":"f283865f","submitFeedbackBytes(bytes)":"9699fee6","submitFeedbackBytesAndAccuracies(bytes,uint8[],uint256[],uint8,uint256)":"8fe557a1","totalReward()":"750142e6","users(address)":"a87430ba","votedPositiveFor(address,address)":"ca6e0385","votesPerRound()":"cc500ec9","weightsOf(address,uint8)":"45e4c379"}}}}}