{"project/contracts/test/OpenFLModelHarness.sol":{"OpenFLModelHarness":{"abi":[{"inputs":[{"internalType":"bytes32","name":"_modelHash","type":"bytes32"},{"internalType":"uint256","name":"_min_collateral","type":"uint256"},{"internalType":"uint256","name":"_max_collateral","type":"uint256"},{"internalType":"uint256","name":"_reward","type":"uint256"},{"internalType":"uint8","name":"_min_rounds","type":"uint8"},{"internalType":"uint8","name":"_punishfactor","type":"uint8"},{"internalType":"uint8","name":"_punishfactorContrib","type":"uint8"},{"internalType":"uint8","name":"_freeriderPenalty","type":"uint8"}],"stateMutability":"nonpayable","type":"constructor"},{"anonymous":false,"inputs":[{"indexed":true,"internalType":"address","name":"user","type":"address"},{"indexed":false,"internalType":"int256","name":"contributionScore","type":"int256"}],"name":"ContributionScoreSubmitted","type":"event"},{"anonymous":false,"inputs":[{"indexed":false,"internalType":"address","name":"addr","type":"address"},{"indexed":false,"internalType":"int256","name":"weightedContribScore","type":"int256"},{"indexed":false,"internalType":"uint256","name":"globalReputationScore","type":"uint256"},{"indexed":false,"internalType":"int256","name":"roundReputation","type":"int256"},{"indexed":false,"internalType":"uint8","name":"nrOfRoundsParticipated","type":"uint8"},{"indexed":false,"internalType":"uint8","name":"nrOfVotesFromUser","type":"uint8"},{"indexed":false,"internalType":"bool","name":"isPunished","type":"bool"},{"indexed":false,"internalType":"bool","name":"isRegistered","type":"bool"},{"indexed":false,"internalType":"bool","name":"whitelistedForRewards","type":"bool"},{"indexed":false,"internalType":"bool","name":"isDisqualified","type":"bool"}],"name":"DebugUser","type":"event"},{"anonymous":false,"inputs":[{"indexed":false,"internalType":"address","name":"victim","type":"address"},{"indexed":false,"internalType":"int256","name":"roundScore","type":"int256"},{"indexed":false,"internalType":"uint256","name":"loss","type":"uint256"},{"indexed":false,"internalType":"uint256","name":"newReputation","type":"uint256"}],"name":"Disqualification","type":"event"},{"anonymous":false,"inputs":[{"indexed":false,"internalType":"uint8","name":"round","type":"uint8"},{"indexed":false,"internalType":"uint8","name":"validVotes","type":"uint8"},{"indexed":false,"internalType":"uint256","name":"sumOfWeightedContribScore","type":"uint256"},{"indexed":false,"internalType":"uint256","name":"totalPunishment","type":"uint256"}],"name":"EndRound","type":"event"},{"anonymous":false,"inputs":[{"indexed":false,"internalType":"uint256","name":"initTS","type":"uint256"},{"indexed":false,"internalType":"uint256","name":"max_collateral","type":"uint256"},{"indexed":false,"internalType":"uint256","name":"min_collateral","type":"uint256"},{"indexed":false,"internalType":"uint256","name":"total_reward","type":"uint256"},{"indexed":false,"internalType":"uint8","name":"min_rounds","type":"uint8"},{"indexed":false,"internalType":"uint256","name":"freerider_fee","type":"uint256"}],"name":"FederatedLerningModelDeployed","type":"event"},{"anonymous":false,"inputs":[{"indexed":false,"internalType":"address","name":"target","type":"address"},{"indexed":false,"internalType":"address","name":"user","type":"address"},{"indexed":false,"internalType":"uint256","name":"globalReputation","type":"uint256"},{"indexed":false,"internalType":"int256","name":"newroundReputation","type":"int256"}],"name":"Feedback","type":"event"},{"anonymous":false,"inputs":[{"indexed":false,"internalType":"address","name":"victim","type":"address"},{"indexed":false,"internalType":"int256","name":"roundScore","type":"int256"},{"indexed":false,"internalType":"uint256","name":"loss","type":"uint256"},{"indexed":false,"internalType":"uint256","name":"newReputation","type":"uint256"}],"name":"PassivPunishment","type":"event"},{"anonymous":false,"inputs":[{"indexed":false,"internalType":"address","name":"victim","type":"address"},{"indexed":false,"internalType":"int256","name":"roundScore","type":"int256"},{"indexed":false,"internalType":"uint256","name":"loss","type":"uint256"},{"indexed":false,"internalType":"uint256","name":"newReputation","type":"uint256"}],"name":"Punishment","type":"event"},{"anonymous":false,"inputs":[{"indexed":false,"internalType":"address","name":"user","type":"address"},{"indexed":false,"internalType":"uint256","name":"reputationValue","type":"uint256"},{"indexed":false,"internalType":"uint256","name":"totalCollateral","type":"uint256"},{"indexed":false,"internalType":"uint256","name":"numberOfContributers","type":"uint256"}],"name":"Registered","type":"event"},{"anonymous":false,"inputs":[{"indexed":false,"internalType":"address","name":"user","type":"address"},{"indexed":false,"internalType":"int256","name":"roundScore","type":"int256"},{"indexed":false,"internalType":"uint256","name":"win","type":"uint256"},{"indexed":false,"internalType":"uint256","name":"newReputation","type":"uint256"}],"name":"Reward","type":"event"},{"inputs":[{"internalType":"address","name":"userAddr","type":"address"}],"name":"__isPunished","outputs":[{"internalType":"bool","name":"","type":"bool"}],"stateMutability":"view","type":"function"},{"inputs":[{"components":[{"internalType":"address[]","name":"participants","type":"address[]"},{"internalType":"uint256[]","name":"reputations","type":"uint256[]"},{"internalType":"int256[]","name":"roundReps","type":"int256[]"},{"internalType":"uint8[]","name":"nrOfVotesOfUser","type":"uint8[]"},{"internalType":"uint8","name":"round","type":"uint8"}],"internalType":"struct OpenFLModelHarness.InitParams","name":"p","type":"tuple"}],"name":"__testInitSettleState","outputs":[],"stateMutability":"nonpayable","type":"function"},{"inputs":[{"internalType":"address","name":"userAddr","type":"address"}],"name":"_getUserGRSAtAddress","outputs":[{"internalType":"uint256","name":"","type":"uint256"}],"stateMutability":"view","type":"function"},{"inputs":[{"internalType":"address","name":"userAddr","type":"address"},{"internalType":"uint256","name":"value","type":"uint256"}],"name":"_setUserGRSAtAddress","outputs":[],"stateMutability":"nonpayable","type":"function"},{"inputs":[{"internalType":"address","name":"userAddr","type":"address"},{"internalType":"uint256","name":"value","type":"uint256"}],"name":"_setUserGRSAtAddressStorage","outputs":[],"stateMutability":"nonpayable","type":"function"},{"inputs":[{"internalType":"uint8","name":"","type":"uint8"},{"internalType":"address","name":"","type":"address"}],"name":"contributionScore","outputs":[{"internalType":"int256","name":"","type":"int256"}],"stateMutability":"view","type":"function"},{"inputs":[],"name":"contributionStart","outputs":[{"internalType":"uint256","name":"","type":"uint256"}],"stateMutability":"view","type":"function"},{"inputs":[],"name":"exitModel","outputs":[],"stateMutability":"nonpayable","type":"function"},{"inputs":[{"internalType":"address","name":"target","type":"address"},{"internalType":"int256","name":"score","type":"int256"}],"name":"feedback","outputs":[],"stateMutability":"nonpayable","type":"function"},{"inputs":[],"name":"freeriderPenalty","outputs":[{"internalType":"uint256","name":"","type":"uint256"}],"stateMutability":"view","type":"function"},{"inputs":[{"internalType":"address","name":"target","type":"address"}],"name":"getAllAccuraciesAbout","outputs":[{"internalType":"address[]","name":"voters","type":"address[]"},{"internalType":"uint8[]","name":"accuracies","type":"uint8[]"},{"internalType":"uint256[]","name":"losses","type":"uint256[]"}],"stateMutability":"view","type":"function"},{"inputs":[],"name":"getAllPreviousAccuraciesAndLosses","outputs":[{"internalType":"uint8[]","name":"previous_accuracies","type":"uint8[]"},{"internalType":"uint256[]","name":"previous_losses","type":"uint256[]"}],"stateMutability":"view","type":"function"},{"inputs":[{"internalType":"address","name":"u","type":"address"}],"name":"getUser","outputs":[{"internalType":"address","name":"","type":"address"},{"internalType":"int256","name":"","type":"int256"},{"internalType":"uint256","name":"","type":"uint256"},{"internalType":"int256","name":"","type":"int256"},{"internalType":"uint8","name":"","type":"uint8"},{"internalType":"uint8","name":"","type":"uint8"},{"internalType":"bool","name":"","type":"bool"},{"internalType":"bool","name":"","type":"bool"},{"internalType":"bool","name":"","type":"bool"},{"internalType":"bool","name":"","type":"bool"}],"stateMutability":"view","type":"function"},{"inputs":[{"internalType":"address","name":"","type":"address"},{"internalType":"address","name":"","type":"address"}],"name":"hasVoted","outputs":[{"internalType":"bool","name":"","type":"bool"}],"stateMutability":"view","type":"function"},{"inputs":[],"name":"initTS","outputs":[{"internalType":"uint256","name":"","type":"uint256"}],"stateMutability":"view","type":"function"},{"inputs":[],"name":"isContributionRoundDone","outputs":[{"internalType":"bool","name":"roundClosed","type":"bool"}],"stateMutability":"view","type":"function"},{"inputs":[],"name":"isFeedBackRoundDone","outputs":[{"internalType":"bool","name":"roundClosed","type":"bool"}],"stateMutability":"view","type":"function"},{"inputs":[],"name":"max_collateral","outputs":[{"internalType":"uint256","name":"","type":"uint256"}],"stateMutability":"view","type":"function"},{"inputs":[],"name":"min_collateral","outputs":[{"internalType":"uint256","name":"","type":"uint256"}],"stateMutability":"view","type":"function"},{"inputs":[],"name":"min_rounds","outputs":[{"internalType":"uint8","name":"","type":"uint8"}],"stateMutability":"view","type":"function"},{"inputs":[],"name":"modelHash","outputs":[{"internalType":"bytes32","name":"","type":"bytes32"}],"stateMutability":"view","type":"function"},{"inputs":[{"internalType":"uint8","name":"","type":"uint8"}],"name":"nrOfContributionScores","outputs":[{"internalType":"uint256","name":"","type":"uint256"}],"stateMutability":"view","type":"function"},{"inputs":[],"name":"nrOfParticipants","outputs":[{"internalType":"uint256","name":"","type":"uint256"}],"stateMutability":"view","type":"function"},{"inputs":[],"name":"nrOfProvidedHashedWeights","outputs":[{"internalType":"uint256","name":"","type":"uint256"}],"stateMutability":"view","type":"function"},{"inputs":[{"internalType":"uint256","name":"","type":"uint256"}],"name":"participants","outputs":[{"internalType":"address","name":"","type":"address"}],"stateMutability":"view","type":"function"},{"inputs":[{"internalType":"uint8","name":"","type":"uint8"},{"internalType":"address","name":"","type":"address"}],"name":"prev_accs","outputs":[{"internalType":"uint8","name":"","type":"uint8"}],"stateMutability":"view","type":"function"},{"inputs":[{"internalType":"uint8","name":"","type":"uint8"},{"internalType":"address","name":"","type":"address"}],"name":"prev_losses","outputs":[{"internalType":"uint256","name":"","type":"uint256"}],"stateMutability":"view","type":"function"},{"inputs":[{"internalType":"bytes32","name":"hashedWeights","type":"bytes32"},{"internalType":"uint256","name":"salt","type":"uint256"}],"name":"provideHashedWeights","outputs":[],"stateMutability":"nonpayable","type":"function"},{"inputs":[],"name":"punishfactor","outputs":[{"internalType":"uint8","name":"","type":"uint8"}],"stateMutability":"view","type":"function"},{"inputs":[],"name":"punishfactorContrib","outputs":[{"internalType":"uint8","name":"","type":"uint8"}],"stateMutability":"view","type":"function"},{"inputs":[],"name":"register","outputs":[],"stateMutability":"payable","type":"function"},{"inputs":[{"internalType":"address","name":"initiator","type":"address"}],"name":"register","outputs":[],"stateMutability":"payable","type":"function"},{"inputs":[{"internalType":"bytes32","name":"_secret","type":"bytes32"}],"name":"registerSlot","outputs":[],"stateMutability":"nonpayable","type":"function"},{"inputs":[],"name":"rewardLeft","outputs":[{"internalType":"uint256","name":"","type":"uint256"}],"stateMutability":"view","type":"function"},{"inputs":[],"name":"rewardPerRound","outputs":[{"internalType":"uint256","name":"","type":"uint256"}],"stateMutability":"view","type":"function"},{"inputs":[],"name":"round","outputs":[{"internalType":"uint8","name":"","type":"uint8"}],"stateMutability":"view","type":"function"},{"inputs":[],"name":"roundStart","outputs":[{"internalType":"uint256","name":"","type":"uint256"}],"stateMutability":"view","type":"function"},{"inputs":[{"internalType":"address","name":"","type":"address"},{"internalType":"uint8","name":"","type":"uint8"}],"name":"secretOf","outputs":[{"internalType":"bytes32","name":"","type":"bytes32"}],"stateMutability":"view","type":"function"},{"inputs":[],"name":"settle","outputs":[],"stateMutability":"nonpayable","type":"function"},{"inputs":[{"internalType":"int256","name":"score","type":"int256"}],"name":"submitContributionScore","outputs":[],"stateMutability":"nonpayable","type":"function"},{"inputs":[{"internalType":"bytes","name":"raw","type":"bytes"}],"name":"submitFeedbackBytes","outputs":[],"stateMutability":"nonpayable","type":"function"},{"inputs":[{"internalType":"bytes","name":"raw","type":"bytes"},{"internalType":"uint8[]","name":"accuracies","type":"uint8[]"},{"internalType":"uint256[]","name":"losses","type":"uint256[]"},{"internalType":"uint8","name":"prev_acc","type":"uint8"},{"internalType":"uint256","name":"prev_loss","type":"uint256"}],"name":"submitFeedbackBytesAndAccuracies","outputs":[],"stateMutability":"nonpayable","type":"function"},{"inputs":[],"name":"testing","outputs":[{"internalType":"bool","name":"","type":"bool"}],"stateMutability":"view","type":"function"},{"inputs":[],"name":"totalReward","outputs":[{"internalType":"uint256","name":"","type":"uint256"}],"stateMutability":"view","type":"function"},{"inputs":[{"internalType":"address","name":"","type":"address"}],"name":"users","outputs":[{"internalType":"int256","name":"weightedContribScore","type":"int256"},{"internalType":"uint256","name":"globalReputationScore","type":"uint256"},{"internalType":"int256","name":"roundReputation","type":"int256"},{"internalType":"address","name":"addr","type":"address"},{"internalType":"uint8","name":"nrOfRoundsParticipated","type":"uint8"},{"internalType":"uint8","name":"nrOfVotesFromUser","type":"uint8"},{"internalType":"bool","name":"isPunished","type":"bool"},{"internalType":"bool","name":"isRegistered","type":"bool"},{"internalType":"bool","name":"whitelistedForRewards","type":"bool"},{"internalType":"bool","name":"isDisqualified","type":"bool"}],"stateMutability":"view","type":"function"},{"inputs":[{"internalType":"address","name":"","type":"address"},{"internalType":"address","name":"","type":"address"}],"name":"votedPositiveFor","outputs":[{"internalType":"bool","name":"","type":"bool"}],"stateMutability":"view","type":"function"},{"inputs":[],"name":"votesPerRound","outputs":[{"internalType":"uint8","name":"","type":"uint8"}],"stateMutability":"view","type":"function"},{"inputs":[{"internalType":"address","name":"","type":"address"},{"internalType":"uint8","name":"","type":"uint8"}],"name":"weightsOf","outputs":[{"internalType":"bytes32","name":"","type":"bytes32"}],"stateMutability":"view","type":"function"}],"evm":{"bytecode":{"linkReferences":{},"object":"60806040526001805460ff19908116909155600f805490911690553480156200002757600080fd5b5060405162004162380380620041628339810160408190526200004a91620001ac565b426004819055600a5560008890556005879055600686905560078590556001805463ffff00001916630100000060ff8781169190910262ff000019169190911762010000868316021760ff60201b1916640100000000858316021790915588908890889088908890889088908890606490620000c99083168962000230565b620000d591906200025e565b600c55600154600754620000f4916301000000900460ff16906200025e565b6008556007546009819055600454600554600654600154600c54604080519586526020860194909452928401919091526060830193909352630100000090920460ff16608082015260a08101919091527fd910741da174a91f8b84705afeaf69767bd61d4ac64620028ade113e576932519060c00160405180910390a15050600f805460ff1916600117905550620002819c50505050505050505050505050565b805160ff81168114620001a757600080fd5b919050565b600080600080600080600080610100898b031215620001ca57600080fd5b88519750602089015196506040890151955060608901519450620001f160808a0162000195565b93506200020160a08a0162000195565b92506200021160c08a0162000195565b91506200022160e08a0162000195565b90509295985092959890939650565b60008160001904831182151516156200025957634e487b7160e01b600052601160045260246000fd5b500290565b6000826200027c57634e487b7160e01b600052601260045260246000fd5b500490565b613ed180620002916000396000f3fe6080604052600436106102925760003560e01c80636f77926b1161015a578063ca6e0385116100c1578063f283865f1161007a578063f283865f146109ae578063f5b27228146109ce578063f6020f01146109ee578063fa569fa214610a1d578063fcbace5d14610a55578063fd5201be14610a7557600080fd5b8063ca6e0385146108ea578063cc500ec914610925578063d6aad1b914610944578063dcc1484a14610959578063e98b25f91461096e578063f0c369551461098e57600080fd5b80638fe557a1116101135780638fe557a114610781578063904a9d17146107a15780639699fee6146107b7578063a41dacd6146107d7578063a87430ba146107ed578063b986695b146108d457600080fd5b80636f77926b146105cc578063701341ed146106ba578063750142e6146106dd5780638b2f56fb146106f35780638c8e9d641461072e5780638d03b1021461076757600080fd5b80633aa8f2ed116101fe5780634d4d2b1c116101b75780634d4d2b1c146104d05780634e49ad781461051b578063508be15e1461053157806359ac0c461461054757806364a3e22114610574578063667ba0f61461059457600080fd5b80633aa8f2ed146104185780633eee0426146104385780633f4f2d621461044e578063403658521461046f5780634420e4861461048557806345e4c3791461049857600080fd5b8063186beae311610250578063186beae31461038a5780631aa3a008146103ac5780631b2ccc09146103b45780633347de66146102d757806333f93bcd146103ca57806335c1d349146103e057600080fd5b80625c43a5146102975780630899604c146102c057806308fba75c146102d7578063095083af1461031157806311da60b414610349578063146ca5311461035e575b600080fd5b3480156102a357600080fd5b506102ad600c5481565b6040519081526020015b60405180910390f35b3480156102cc57600080fd5b506102d5610a8b565b005b3480156102e357600080fd5b506102d56102f23660046137bb565b6001600160a01b03909116600090815260106020526040902060010155565b34801561031d57600080fd5b506102ad61032c3660046137f6565b601360209081526000928352604080842090915290825290205481565b34801561035557600080fd5b506102d5610c9f565b34801561036a57600080fd5b506001546103789060ff1681565b60405160ff90911681526020016102b7565b34801561039657600080fd5b5060015461037890640100000000900460ff1681565b6102d5611d9e565b3480156103c057600080fd5b506102ad60005481565b3480156103d657600080fd5b506102ad60085481565b3480156103ec57600080fd5b506104006103fb366004613829565b611e3f565b6040516001600160a01b0390911681526020016102b7565b34801561042457600080fd5b506102d56104333660046137bb565b611e69565b34801561044457600080fd5b506102ad60095481565b34801561045a57600080fd5b50600154610378906301000000900460ff1681565b34801561047b57600080fd5b506102ad600a5481565b6102d5610493366004613842565b6121d8565b3480156104a457600080fd5b506102ad6104b33660046137f6565b601460209081526000928352604080842090915290825290205481565b3480156104dc57600080fd5b5061050b6104eb366004613864565b601160209081526000928352604080842090915290825290205460ff1681565b60405190151581526020016102b7565b34801561052757600080fd5b506102ad60025481565b34801561053d57600080fd5b506102ad60055481565b34801561055357600080fd5b506102ad61056236600461388e565b60166020526000908152604090205481565b34801561058057600080fd5b506102d561058f3660046138a9565b61227a565b3480156105a057600080fd5b506102ad6105af3660046138cb565b601860209081526000928352604080842090915290825290205481565b3480156105d857600080fd5b5061065a6105e7366004613842565b6001600160a01b0390811660009081526010602052604090206003810154815460018301546002909301549382169490939160ff600160a01b8204811692600160a81b8304821692600160b01b8104831692600160b81b8204811692600160c01b8304821692600160c81b900490911690565b604080516001600160a01b03909b168b5260208b019990995297890196909652606088019490945260ff9283166080880152911660a0860152151560c0850152151560e084015215156101008301521515610120820152610140016102b7565b3480156106c657600080fd5b506106cf6123d7565b6040516102b7929190613955565b3480156106e957600080fd5b506102ad60075481565b3480156106ff57600080fd5b5061037861070e3660046138cb565b601760209081526000928352604080842090915290825290205460ff1681565b34801561073a57600080fd5b506102ad610749366004613842565b6001600160a01b031660009081526010602052604090206001015490565b34801561077357600080fd5b50600f5461050b9060ff1681565b34801561078d57600080fd5b506102d561079c366004613a11565b61264c565b3480156107ad57600080fd5b506102ad60065481565b3480156107c357600080fd5b506102d56107d2366004613ac5565b61299b565b3480156107e357600080fd5b506102ad600b5481565b3480156107f957600080fd5b50610876610808366004613842565b6010602052600090815260409020805460018201546002830154600390930154919290916001600160a01b0381169060ff600160a01b8204811691600160a81b8104821691600160b01b8204811691600160b81b8104821691600160c01b8204811691600160c81b9004168a565b604080519a8b5260208b0199909952978901969096526001600160a01b03909416606088015260ff9283166080880152911660a0860152151560c0850152151560e084015215156101008301521515610120820152610140016102b7565b3480156108e057600080fd5b506102ad60035481565b3480156108f657600080fd5b5061050b610905366004613864565b601260209081526000928352604080842090915290825290205460ff1681565b34801561093157600080fd5b5060015461037890610100900460ff1681565b34801561095057600080fd5b5061050b612a6f565b34801561096557600080fd5b5061050b612b12565b34801561097a57600080fd5b506102d5610989366004613b07565b612c11565b34801561099a57600080fd5b5061050b6109a9366004613842565b612deb565b3480156109ba57600080fd5b506102d56109c9366004613829565b612e67565b3480156109da57600080fd5b506102d56109e9366004613829565b612fb3565b3480156109fa57600080fd5b50610a0e610a09366004613842565b613061565b6040516102b793929190613b42565b348015610a2957600080fd5b506102ad610a383660046138cb565b601560209081526000928352604080842090915290825290205481565b348015610a6157600080fd5b506001546103789062010000900460ff1681565b348015610a8157600080fd5b506102ad60045481565b33600090815260106020526040902060030154600160b81b900460ff16610acd5760405162461bcd60e51b8152600401610ac490613bb7565b60405180910390fd5b60025460035414158015610af057504262015180600a54610aee9190613bea565b115b610b215760405162461bcd60e51b81526020600482015260026024820152614e4160f01b6044820152606401610ac4565b33600090815260146020908152604080832060015460ff16845290915290205415610b745760405162461bcd60e51b815260206004820152600360248201526257464560e81b6044820152606401610ac4565b33600090815260106020526040902060010154610bb95760405162461bcd60e51b81526020600482015260036024820152622722a360e91b6044820152606401610ac4565b336000908152601060205260408120600101805490829055905b600d54811015610c5457336001600160a01b0316600d8281548110610bfa57610bfa613c02565b6000918252602090912001546001600160a01b03161415610c4257600d8181548110610c2857610c28613c02565b600091825260209091200180546001600160a01b03191690555b80610c4c81613c18565b915050610bd3565b5033600081815260106020526040808220600301805460ff60b81b191690555183156108fc0291849190818181858888f19350505050158015610c9b573d6000803e3d6000fd5b5050565b600080610cad600e8261362f565b60005b600d54811015610d4c57600060106000600d8481548110610cd357610cd3613c02565b60009182526020808320909101546001600160a01b031683528201929092526040019020600381015490915060ff600160a01b9091041660011415610d3957600c548160010154610d249190613c33565b6001820155600c54610d369084613bea565b92505b5080610d4481613c18565b915050610cb0565b5060005b600d5481101561108757600060106000600d8481548110610d7357610d73613c02565b60009182526020808320909101546001600160a01b031683528201929092526040019020600381015490915060ff600160b81b90910416156110745760008160020154121561105e5760038101546001805460ff600160a81b9093048316928291610de5918591610100900416613c4a565b92506101000a81548160ff021916908360ff1602179055506000600160029054906101000a900460ff1660ff168260010154610e219190613c6d565b600154600554919250610e3e916201000090910460ff1690613c6d565b82600101541115610f485760038201805460ff60b01b198116600160b01b178255600e8054600181810183556000929092527fbb7b4a454dc3493923482f07822329ed19e8244eff582cc204f8554c3620c3fd0180546001600160a01b0319166001600160a01b0390931692909217909155815460ff60c01b1916909155820154610eca908290613c33565b60018301556002820154610edf908290613c8f565b6002830155610eee8186613bea565b6003830154600284015460018501546040519398507f641368b934d33e657fe49c6af1c0e5b618d4dc123f53fc3f8d5f15fee5f4fb8693610f3b936001600160a01b031692918691613cce565b60405180910390a1611058565b60038201805461ffff60b01b198116600160b01b178255600e8054600181810183556000929092527fbb7b4a454dc3493923482f07822329ed19e8244eff582cc204f8554c3620c3fd0180546001600160a01b0319166001600160a01b0390931692909217909155815460ff60c01b1916909155820154610fc99086613bea565b6003830154600284015460018501546040519398507f6a461179a109ac5a4f65774b04343a475dd7d089ffa5a31552a4d71e0a1e7b4f93611018936001600160a01b0316929190600090613cce565b60405180910390a16000826001018190555060016002600082825461103d9190613c33565b909155505060038201805460ff60c81b1916600160c81b1790555b50611074565b60038101805460ff60c01b1916600160c01b1790555b508061107f81613c18565b915050610d50565b5060005b600d5481101561128f57600060106000600d84815481106110ae576110ae613c02565b60009182526020808320909101546001600160a01b031683528201929092526040019020600381015490915060ff600160b81b909104161561127c5760005b600e5481101561127a5760038201546001600160a01b03166000908152601260205260408120600e80549192918490811061112a5761112a613c02565b60009182526020808320909101546001600160a01b0316835282019290925260400190205460ff16156112685760038201546001600160a01b03166000908152601260205260408120600e80548391908590811061118a5761118a613c02565b6000918252602080832091909101546001600160a01b031683528201929092526040019020805460ff191691151591909117905560038201546001805460ff600160a81b90930483169282916111e7918591610100900416613c4a565b825460ff9182166101009390930a92830291909202199091161790555060038201805460ff60c01b198116909155600283015460018401546040517f1774dd77faaf323cd25b2f963ff975744949b339a6d103b4e3959263f6c2f9779361125f936001600160a01b0390911692909160009190613cce565b60405180910390a15b8061127281613c18565b9150506110ed565b505b508061128781613c18565b91505061108b565b5060005b600d5481101561137b57600060106000600d84815481106112b6576112b6613c02565b60009182526020808320909101546001600160a01b031683528201929092526040019020600381015490915060ff600160b81b9091041615611368576003810154600160a01b900460ff1660011415611368576003810154600160c01b900460ff161561134857600c54816001015461132f9190613bea565b6001820155600c546113419084613c33565b9250611368565b600c546113559085613bea565b9350600c54836113659190613c33565b92505b508061137381613c18565b915050611293565b506001546000908190610100900460ff161580159061139e575060085460095410155b15611baa57600854600960008282546113b79190613c33565b909155505060085484156113d2576113cf8582613bea565b90505b60005b600d5481101561153257600060106000600d84815481106113f8576113f8613c02565b60009182526020808320909101546001600160a01b031683528201929092526040019020600381015490915060ff600160b81b90910416801561144657506003810154600160c01b900460ff165b801561145e57506003810154600160b01b900460ff16155b1561151f5760015460ff16600090815260156020908152604080832060038501546001600160a01b03168452909152812054611499906134e5565b60038301546114b29190600160a81b900460ff16613cf4565b60015460ff16600090815260156020908152604080832060038701546001600160a01b03168452909152812054919250136114f5576114f081613d13565b6114f7565b805b82600001600082825461150a9190613d30565b9091555050815461151b9087613d30565b9550505b508061152a81613c18565b9150506113d5565b5060005b600d5481101561176757600060106000600d848154811061155957611559613c02565b60009182526020808320909101546001600160a01b031683528201929092526040019020600381015490915060ff600160b81b9091041680156115a757506003810154600160c01b900460ff165b80156115bf57506003810154600160b01b900460ff16155b156117545760008513156115d357846115d6565b60015b93506000846115e8836000015461351f565b6115f29086613cf4565b6115fc9190613c6d565b60015460ff16600090815260156020908152604080832060038701546001600160a01b03168452909152812054919250138015611654575060015461164c90640100000000900460ff1682613cf4565b826001015411155b156117525760018201546116689085613bea565b6003830154600284015460018501546040519397507f6a461179a109ac5a4f65774b04343a475dd7d089ffa5a31552a4d71e0a1e7b4f936116b7936001600160a01b0316929190600090613cce565b60405180910390a160015460ff16600090815260156020908152604080832060038601546001600160a01b031684529091529020546116f5906134e5565b600383015461170e9190600160a81b900460ff16613cf4565b6117189087613d30565b9550600082600101819055506001600260008282546117379190613c33565b909155505060038201805460ff60c81b1916600160c81b1790555b505b508061175f81613c18565b915050611536565b506000831315611777578261177a565b60015b915060008060005b600d5481101561191a57600060106000600d84815481106117a5576117a5613c02565b60009182526020808320909101546001600160a01b031683528201929092526040019020600381015490915060ff600160b81b9091041680156117f357506003810154600160c01b900460ff165b801561180b57506003810154600160b01b900460ff16155b8015611841575060015460ff16600090815260156020908152604080832060038501546001600160a01b03168452909152812054125b1561190757600086611856836000015461351f565b6118609088613cf4565b61186a9190613c6d565b60015490915060009061188890640100000000900460ff1683613cf4565b90508083600101600082825461189e9190613c33565b909155506118ae90508187613bea565b6003840154600285015460018601546040519399507ff002da1cc235dd7b3cd93cb91c128fe6e777fb632383da5ff2603123883748b1936118fc936001600160a01b03169291600091613cce565b60405180910390a150505b508061191281613c18565b915050611782565b506119258284613bea565b925060005b600d54811015611a1057600060106000600d848154811061194d5761194d613c02565b60009182526020808320909101546001600160a01b031683528201929092526040019020600381015490915060ff600160b81b90910416801561199b57506003810154600160c01b900460ff165b80156119b357506003810154600160b01b900460ff16155b80156119e9575060015460ff16600090815260156020908152604080832060038501546001600160a01b03168452909152812054135b156119fd5780546119fa9084613bea565b92505b5080611a0881613c18565b91505061192a565b508015611a1d5780611a20565b60015b905060005b600d54811015611ba557600060106000600d8481548110611a4857611a48613c02565b60009182526020808320909101546001600160a01b031683528201929092526040019020600381015490915060ff600160b81b909104168015611a9657506003810154600160c01b900460ff165b8015611aae57506003810154600160b01b900460ff16155b8015611ae4575060015460ff16600090815260156020908152604080832060038501546001600160a01b03168452909152812054135b15611b8057600083611af9836000015461351f565b611b039088613cf4565b611b0d9190613c6d565b905080826001016000828254611b239190613bea565b90915550506003820154600283015460018401546040517ff002da1cc235dd7b3cd93cb91c128fe6e777fb632383da5ff2603123883748b193611b76936001600160a01b03909116929091869190613cce565b60405180910390a1505b60038101805460ff60c01b191690556000905580611b9d81613c18565b915050611a25565b505050505b6001546040805160ff808416825261010090930490921660208301528101829052606081018590527f0fb9071657a7d7c77d4413e1c8487bb219c39de920f3297977dd60bf0e00d33d9060800160405180910390a160005b600d54811015611d5357600060106000600d8481548110611c2557611c25613c02565b60009182526020808320909101546001600160a01b031683528201929092526040019020600381015490915060ff600160b81b9091041615611d405760038101805460ff60a81b19168082556000600284015560019190601490611c94908490600160a01b900460ff16613d71565b825460ff9182166101009390930a92830291909202199091161790555060038101805460ff60b01b1916905560005b600d54811015611d3e5760038201546001600160a01b03166000908152601160205260408120600d805491929184908110611d0057611d00613c02565b60009182526020808320909101546001600160a01b031683528201929092526040019020805460ff1916905580611d3681613c18565b915050611cc3565b505b5080611d4b81613c18565b915050611c02565b50600180548190600090611d6b90839060ff16613d71565b825460ff9182166101009390930a928302919092021990911617905550506001805461ff00191690555050600060035550565b33600090815260106020526040902060030154600160b81b900460ff1615611dee5760405162461bcd60e51b815260206004820152600360248201526229a0a960e91b6044820152606401610ac4565b6005543410158015611e0257506006543411155b611e345760405162461bcd60e51b8152602060048201526003602482015262272ba960e91b6044820152606401610ac4565b611e3d33613533565b565b600d8181548110611e4f57600080fd5b6000918252602090912001546001600160a01b0316905081565b33600090815260106020526040902060030154600160b81b900460ff16611ea25760405162461bcd60e51b8152600401610ac490613bb7565b816001600160a01b038116331415611ee25760405162461bcd60e51b815260206004820152600360248201526214d15560ea1b6044820152606401610ac4565b3360009081526011602090815260408083206001600160a01b038516845290915290205460ff1615611f3c5760405162461bcd60e51b815260206004820152600360248201526256414360e81b6044820152606401610ac4565b6002546003541480611f5d57504262015180600a54611f5b9190613bea565b105b611f8f5760405162461bcd60e51b815260206004820152600360248201526246524360e81b6044820152606401610ac4565b3360008181526011602090815260408083206001600160a01b03881684528252808320805460ff19166001908117909155938352601090915290206003018054601590611fe7908490600160a81b900460ff16613d71565b92506101000a81548160ff021916908360ff16021790555060018060018282829054906101000a900460ff1661201d9190613d71565b92506101000a81548160ff021916908360ff16021790555081600114156120b6573360008181526012602090815260408083206001600160a01b03881684528252808320805460ff191660019081179091559383526010909152902081015461208591613d96565b6001600160a01b038416600090815260106020526040812060020180549091906120b0908490613d30565b90915550505b816000191415612133573360008181526012602090815260408083206001600160a01b03881684528252808320805460ff19169055928252601090522060019081015461210291613d96565b6001600160a01b0384166000908152601060205260408120600201805490919061212d908490613c8f565b90915550505b81612164573360009081526012602090815260408083206001600160a01b03871684529091529020805460ff191690555b336000818152601060209081526040808320600101546001600160a01b038816808552938290206002015482519485529284019490945282810193909352606082015290517fd69fe95841f16237d39b30bbb2ed7633b307fb0addc4bb890b6a3a77e04f5f7f9181900360800190a1505050565b33600090815260106020526040902060030154600160b81b900460ff16156122285760405162461bcd60e51b815260206004820152600360248201526229a0a960e91b6044820152606401610ac4565b600554341015801561223c57506006543411155b61226e5760405162461bcd60e51b8152602060048201526003602482015262272ba960e91b6044820152606401610ac4565b61227781613533565b50565b33600090815260106020526040902060030154600160b81b900460ff166122b35760405162461bcd60e51b8152600401610ac490613bb7565b33600090815260146020908152604080832060015460ff168452909152902054156123065760405162461bcd60e51b815260206004820152600360248201526205341560ec1b6044820152606401610ac4565b604080516020810184905290810182905233606090811b6bffffffffffffffffffffffff19169082015260740160408051601f1981840301815291815281516020928301203360009081526013845282812060015460ff168252909352912054146123995760405162461bcd60e51b81526020600482015260036024820152624e4b5360e81b6044820152606401610ac4565b3360009081526014602090815260408083206001805460ff1685529252822084905560038054919290916123ce908490613bea565b90915550505050565b6060806000805b600d5481101561244e57600060106000600d848154811061240157612401613c02565b60009182526020808320909101546001600160a01b031683528201929092526040019020600201541261243c57612439600183613d71565b91505b8061244681613c18565b9150506123de565b508060ff1667ffffffffffffffff81111561246b5761246b613e1b565b604051908082528060200260200182016040528015612494578160200160208202803683370190505b5092508060ff1667ffffffffffffffff8111156124b3576124b3613e1b565b6040519080825280602002602001820160405280156124dc578160200160208202803683370190505b5091506000805b600d5481101561264557600060106000600d848154811061250657612506613c02565b60009182526020808320909101546001600160a01b03168352820192909252604001902060020154126126335760015460ff166000908152601760205260408120600d80549192918490811061255e5761255e613c02565b60009182526020808320909101546001600160a01b03168352820192909252604001902054855160ff91821691879190851690811061259f5761259f613c02565b60ff9283166020918202929092018101919091526001549091166000908152601890915260408120600d8054919291849081106125de576125de613c02565b60009182526020808320909101546001600160a01b031683528201929092526040019020548451859060ff851690811061261a5761261a613c02565b60209081029190910101528161262f81613e31565b9250505b8061263d81613c18565b9150506124e3565b5050509091565b6060806000808b60348c04604051955060208102602001860160405280865260005b8181101561269657823560601c6020828102890101819052945060149092019160010161266e565b506040519450602081026020018501604052808552600093505b808410156126d8578135925082602085026020870101526020820191506001840193506126b0565b505083518914915061272e90505760405162461bcd60e51b815260206004820181905260248201527f494e56414c49445f4c454e475448204f462041434355524143592041525241596044820152606401610ac4565b8151851461277e5760405162461bcd60e51b815260206004820152601c60248201527f494e56414c49445f4c454e475448204f46204c4f5353204152524159000000006044820152606401610ac4565b60015460ff166000908152601960209081526040808320338452825291829020825160608101845285815283518b840281810185019095528b81529193909283810192918d918d9182918501908490808284376000920191909152505050908252506040805160208a810282810182019093528a82529283019290918b918b918291850190849080828437600092018290525093909452505083546001810185559381526020908190208351805194956003029091019361284693508492919091019061364d565b50602082810151805161285f92600185019201906136ae565b506040820151805161287b91600284019160209091019061374f565b505050606460ff851611156128e25760405162461bcd60e51b815260206004820152602760248201527f50524556494f5553204143435552414359204e4f54204245545745454e2030206044820152660414e44203130360cc1b6064820152608401610ac4565b6001805460ff908116600090815260176020908152604080832033808552908352818420805460ff19168b871617905594549093168252601881528282209382529290925281208490555b825181101561298e57600f5460ff1661297c5761297c83828151811061295557612955613c02565b602002602001015183838151811061296f5761296f613c02565b6020026020010151611e69565b8061298681613c18565b91505061292d565b5050505050505050505050565b6060806000808560348604604051955060208102602001860160405280865260005b818110156129e557823560601c602082810289010181905294506014909201916001016129bd565b506040519450602081026020018501604052808552600093505b80841015612a27578135925082602085026020870101526020820191506001840193506129ff565b5050505060005b8251811015612a6857600f5460ff16612a5657612a5683828151811061295557612955613c02565b80612a6081613c18565b915050612a2e565b5050505050565b600080805b600d54811015612ae557600060106000600d8481548110612a9757612a97613c02565b60009182526020808320909101546001600160a01b031683528201929092526040019020600201541215612ad35781612acf81613c18565b9250505b80612add81613c18565b915050612a74565b5060015460ff16600090815260166020526040902054811115612b0a57600091505090565b600191505090565b600060025460001415612b255750600090565b600d54600190612b359080613cf4565b612b3f9190613c33565b600154610100900460ff1611919050565b600d54811015612c0857600060106000600d8481548110612b7357612b73613c02565b60009182526020808320909101546001600160a01b031683528201929092526040019020600381015490915060ff600160b81b909104168015612bc257506003810154600160c81b900460ff16155b15612bf5576001600254612bd69190613c33565b6003820154600160a81b900460ff161015612bf5576000935050505090565b5080612c0081613c18565b915050612b50565b50600191505090565b612c1d600d600061362f565b612c2d60a082016080830161388e565b6001805460ff191660ff929092169190911790556000612c4d8280613e51565b9050905060005b81811015612dd0576000612c688480613e51565b83818110612c7857612c78613c02565b9050602002016020810190612c8d9190613842565b9050612dbd81612ca06020870187613e51565b85818110612cb057612cb0613c02565b90506020020135868060400190612cc79190613e51565b86818110612cd757612cd7613c02565b90506020020135878060600190612cee9190613e51565b87818110612cfe57612cfe613c02565b9050602002016020810190612d13919061388e565b600d805460018181019092557fd7b6990105719101dabeb77144f2a3385c8033acd3af97e9423a695e81ad1eb50180546001600160a01b039096166001600160a01b03199096168617905560008581526010602052604081206003810180549382019690965560028101949094559092556001600160a81b031960ff91909116600160a81b0263ffffffff60a81b1990921691909117600160b81b1716909117600160a01b179055565b5080612dc881613c18565b915050612c54565b506001805461ff00191661010060ff84160217905560025550565b600e5460009015612dfe57506001919050565b60005b600e54811015612e5e57826001600160a01b0316600e8281548110612e2857612e28613c02565b6000918252602090912001546001600160a01b03161415612e4c5750600192915050565b80612e5681613c18565b915050612e01565b50600092915050565b33600090815260106020526040902060030154600160b81b900460ff16612ec65760405162461bcd60e51b8152602060048201526013602482015272155cd95c881b9bdd081c9959da5cdd195c9959606a1b6044820152606401610ac4565b60015460ff16600090815260156020908152604080832033845290915290205415612f335760405162461bcd60e51b815260206004820152601760248201527f53636f726520616c7265616479207375626d69747465640000000000000000006044820152606401610ac4565b6001805460ff9081166000908152601560209081526040808320338452825280832086905584549093168252601690529081208054909190612f76908490613bea565b909155505060405181815233907f20e6c7c82a3c0a8203efca055fc9a664ca649345957ddc3ba34b2912e9ed83739060200160405180910390a250565b33600090815260106020526040902060030154600160b81b900460ff16612fec5760405162461bcd60e51b8152600401610ac490613bb7565b33600090815260146020908152604080832060015460ff1684529091529020541561303f5760405162461bcd60e51b815260206004820152600360248201526205341560ec1b6044820152606401610ac4565b33600090815260136020908152604080832060015460ff168452909152902055565b60608060606000805b600d548110156131c7576000600d828154811061308957613089613c02565b600091825260208083209091015460015460ff1683526019825260408084206001600160a01b039092168085529190925290822054909250905b818110156131b15760015460ff1660009081526019602090815260408083206001600160a01b0387168452909152812080548390811061310557613105613c02565b9060005260206000209060030201905060005b815481101561319c578a6001600160a01b031682600001828154811061314057613140613c02565b6000918252602090912001546001600160a01b0316141561318a576001600160a01b0385166000908152601060205260408120600201541261318a578661318681613c18565b9750505b8061319481613c18565b915050613118565b505080806131a990613c18565b9150506130c3565b50505080806131bf90613c18565b91505061306a565b508067ffffffffffffffff8111156131e1576131e1613e1b565b60405190808252806020026020018201604052801561320a578160200160208202803683370190505b5093508067ffffffffffffffff81111561322657613226613e1b565b60405190808252806020026020018201604052801561324f578160200160208202803683370190505b5092508067ffffffffffffffff81111561326b5761326b613e1b565b604051908082528060200260200182016040528015613294578160200160208202803683370190505b5091506000805b600d548110156134db57600060106000600d84815481106132be576132be613c02565b60009182526020808320909101546001600160a01b039081168452838201949094526040928301822060015460ff1683526019825283832060038201549095168352939052908120549192505b818110156134c55760015460ff16600090815260196020908152604080832060038701546001600160a01b03168452909152812080548390811061335157613351613c02565b9060005260206000209060030201905060005b81548110156134b0578b6001600160a01b031682600001828154811061338c5761338c613c02565b6000918252602090912001546001600160a01b0316141561349e57600085600201541261349e5760038501548b516001600160a01b03909116908c90899081106133d8576133d8613c02565b60200260200101906001600160a01b031690816001600160a01b03168152505081600101818154811061340d5761340d613c02565b90600052602060002090602091828204019190069054906101000a900460ff168a888151811061343f5761343f613c02565b602002602001019060ff16908160ff168152505081600201818154811061346857613468613c02565b906000526020600020015489888151811061348557613485613c02565b60209081029190910101528661349a81613c18565b9750505b806134a881613c18565b915050613364565b505080806134bd90613c18565b91505061330b565b50505080806134d390613c18565b91505061329b565b5050509193909250565b60008082126134f2575090565b600160ff1b821415613516576135106001600160ff1b036001613bea565b92915050565b61351082613d13565b600080821361352f576000613510565b5090565b6001600160a01b03811660008181526010602052604081206003810180543460018085019190915565ff00000000ff60a01b19600163ff00000160a01b0319909216909517600160b81b1716600160a01b17905560028054919392909161359b908490613bea565b9091555050600d80546001810182556000919091527fd7b6990105719101dabeb77144f2a3385c8033acd3af97e9423a695e81ad1eb50180546001600160a01b0319166001600160a01b0384161790556002546040517fabe5b1202d1f4ed2c1baccf335320ceae3abd90670864b741e80a2ef5671d882916136239185913491479190613cce565b60405180910390a15050565b5080546000825590600052602060002090810190612277919061378a565b8280548282559060005260206000209081019282156136a2579160200282015b828111156136a257825182546001600160a01b0319166001600160a01b0390911617825560209092019160019091019061366d565b5061352f92915061378a565b82805482825590600052602060002090601f016020900481019282156136a25791602002820160005b8382111561371557835183826101000a81548160ff021916908360ff16021790555092602001926001016020816000010492830192600103026136d7565b80156137425782816101000a81549060ff0219169055600101602081600001049283019260010302613715565b505061352f92915061378a565b8280548282559060005260206000209081019282156136a2579160200282015b828111156136a257825182559160200191906001019061376f565b5b8082111561352f576000815560010161378b565b80356001600160a01b03811681146137b657600080fd5b919050565b600080604083850312156137ce57600080fd5b6137d78361379f565b946020939093013593505050565b803560ff811681146137b657600080fd5b6000806040838503121561380957600080fd5b6138128361379f565b9150613820602084016137e5565b90509250929050565b60006020828403121561383b57600080fd5b5035919050565b60006020828403121561385457600080fd5b61385d8261379f565b9392505050565b6000806040838503121561387757600080fd5b6138808361379f565b91506138206020840161379f565b6000602082840312156138a057600080fd5b61385d826137e5565b600080604083850312156138bc57600080fd5b50508035926020909101359150565b600080604083850312156138de57600080fd5b613880836137e5565b600081518084526020808501945080840160005b8381101561391a57815160ff16875295820195908201906001016138fb565b509495945050505050565b600081518084526020808501945080840160005b8381101561391a57815187529582019590820190600101613939565b60408152600061396860408301856138e7565b828103602084015261397a8185613925565b95945050505050565b60008083601f84011261399557600080fd5b50813567ffffffffffffffff8111156139ad57600080fd5b6020830191508360208285010111156139c557600080fd5b9250929050565b60008083601f8401126139de57600080fd5b50813567ffffffffffffffff8111156139f657600080fd5b6020830191508360208260051b85010111156139c557600080fd5b60008060008060008060008060a0898b031215613a2d57600080fd5b883567ffffffffffffffff80821115613a4557600080fd5b613a518c838d01613983565b909a50985060208b0135915080821115613a6a57600080fd5b613a768c838d016139cc565b909850965060408b0135915080821115613a8f57600080fd5b50613a9c8b828c016139cc565b9095509350613aaf905060608a016137e5565b9150608089013590509295985092959890939650565b60008060208385031215613ad857600080fd5b823567ffffffffffffffff811115613aef57600080fd5b613afb85828601613983565b90969095509350505050565b600060208284031215613b1957600080fd5b813567ffffffffffffffff811115613b3057600080fd5b820160a0818503121561385d57600080fd5b606080825284519082018190526000906020906080840190828801845b82811015613b845781516001600160a01b031684529284019290840190600101613b5f565b50505083810382850152613b9881876138e7565b9150508281036040840152613bad8185613925565b9695505050505050565b60208082526003908201526229a72960e91b604082015260600190565b634e487b7160e01b600052601160045260246000fd5b60008219821115613bfd57613bfd613bd4565b500190565b634e487b7160e01b600052603260045260246000fd5b6000600019821415613c2c57613c2c613bd4565b5060010190565b600082821015613c4557613c45613bd4565b500390565b600060ff821660ff841680821015613c6457613c64613bd4565b90039392505050565b600082613c8a57634e487b7160e01b600052601260045260246000fd5b500490565b60008083128015600160ff1b850184121615613cad57613cad613bd4565b6001600160ff1b0384018313811615613cc857613cc8613bd4565b50500390565b6001600160a01b0394909416845260208401929092526040830152606082015260800190565b6000816000190483118215151615613d0e57613d0e613bd4565b500290565b6000600160ff1b821415613d2957613d29613bd4565b5060000390565b600080821280156001600160ff1b0384900385131615613d5257613d52613bd4565b600160ff1b8390038412811615613d6b57613d6b613bd4565b50500190565b600060ff821660ff84168060ff03821115613d8e57613d8e613bd4565b019392505050565b60006001600160ff1b0381841382841380821686840486111615613dbc57613dbc613bd4565b600160ff1b6000871282811687830589121615613ddb57613ddb613bd4565b60008712925087820587128484161615613df757613df7613bd4565b87850587128184161615613e0d57613e0d613bd4565b505050929093029392505050565b634e487b7160e01b600052604160045260246000fd5b600060ff821660ff811415613e4857613e48613bd4565b60010192915050565b6000808335601e19843603018112613e6857600080fd5b83018035915067ffffffffffffffff821115613e8357600080fd5b6020019150600581901b36038213156139c557600080fdfea26469706673582212202e160de5d55d97a380e62916bf1ca90408d5a8c97249c56b2231e5768fc4d84d64736f6c63430008090033","opcodes":"PUSH1 0x80 PUSH1 0x40 MSTORE PUSH1 0x1 DUP1 SLOAD PUSH1 0xFF NOT SWAP1 DUP2 AND SWAP1 SWAP2 SSTORE PUSH1 0xF DUP1 SLOAD SWAP1 SWAP2 AND SWAP1 SSTORE CALLVALUE DUP1 ISZERO PUSH3 0x27 JUMPI PUSH1 0x0 DUP1 REVERT JUMPDEST POP PUSH1 0x40 MLOAD PUSH3 0x4162 CODESIZE SUB DUP1 PUSH3 0x4162 DUP4 CODECOPY DUP2 ADD PUSH1 0x40 DUP2 SWAP1 MSTORE PUSH3 0x4A SWAP2 PUSH3 0x1AC JUMP JUMPDEST TIMESTAMP PUSH1 0x4 DUP2 SWAP1 SSTORE PUSH1 0xA SSTORE PUSH1 0x0 DUP9 SWAP1 SSTORE PUSH1 0x5 DUP8 SWAP1 SSTORE PUSH1 0x6 DUP7 SWAP1 SSTORE PUSH1 0x7 DUP6 SWAP1 SSTORE PUSH1 0x1 DUP1 SLOAD PUSH4 0xFFFF0000 NOT AND PUSH4 0x1000000 PUSH1 0xFF DUP8 DUP2 AND SWAP2 SWAP1 SWAP2 MUL PUSH3 0xFF0000 NOT AND SWAP2 SWAP1 SWAP2 OR PUSH3 0x10000 DUP7 DUP4 AND MUL OR PUSH1 0xFF PUSH1 0x20 SHL NOT AND PUSH5 0x100000000 DUP6 DUP4 AND MUL OR SWAP1 SWAP2 SSTORE DUP9 SWAP1 DUP9 SWAP1 DUP9 SWAP1 DUP9 SWAP1 DUP9 SWAP1 DUP9 SWAP1 DUP9 SWAP1 DUP9 SWAP1 PUSH1 0x64 SWAP1 PUSH3 0xC9 SWAP1 DUP4 AND DUP10 PUSH3 0x230 JUMP JUMPDEST PUSH3 0xD5 SWAP2 SWAP1 PUSH3 0x25E JUMP JUMPDEST PUSH1 0xC SSTORE PUSH1 0x1 SLOAD PUSH1 0x7 SLOAD PUSH3 0xF4 SWAP2 PUSH4 0x1000000 SWAP1 DIV PUSH1 0xFF AND SWAP1 PUSH3 0x25E JUMP JUMPDEST PUSH1 0x8 SSTORE PUSH1 0x7 SLOAD PUSH1 0x9 DUP2 SWAP1 SSTORE PUSH1 0x4 SLOAD PUSH1 0x5 SLOAD PUSH1 0x6 SLOAD PUSH1 0x1 SLOAD PUSH1 0xC SLOAD PUSH1 0x40 DUP1 MLOAD SWAP6 DUP7 MSTORE PUSH1 0x20 DUP7 ADD SWAP5 SWAP1 SWAP5 MSTORE SWAP3 DUP5 ADD SWAP2 SWAP1 SWAP2 MSTORE PUSH1 0x60 DUP4 ADD SWAP4 SWAP1 SWAP4 MSTORE PUSH4 0x1000000 SWAP1 SWAP3 DIV PUSH1 0xFF AND PUSH1 0x80 DUP3 ADD MSTORE PUSH1 0xA0 DUP2 ADD SWAP2 SWAP1 SWAP2 MSTORE PUSH32 0xD910741DA174A91F8B84705AFEAF69767BD61D4AC64620028ADE113E57693251 SWAP1 PUSH1 0xC0 ADD PUSH1 0x40 MLOAD DUP1 SWAP2 SUB SWAP1 LOG1 POP POP PUSH1 0xF DUP1 SLOAD PUSH1 0xFF NOT AND PUSH1 0x1 OR SWAP1 SSTORE POP PUSH3 0x281 SWAP13 POP POP POP POP POP POP POP POP POP POP POP POP POP JUMP JUMPDEST DUP1 MLOAD PUSH1 0xFF DUP2 AND DUP2 EQ PUSH3 0x1A7 JUMPI PUSH1 0x0 DUP1 REVERT JUMPDEST SWAP2 SWAP1 POP JUMP JUMPDEST PUSH1 0x0 DUP1 PUSH1 0x0 DUP1 PUSH1 0x0 DUP1 PUSH1 0x0 DUP1 PUSH2 0x100 DUP10 DUP12 SUB SLT ISZERO PUSH3 0x1CA JUMPI PUSH1 0x0 DUP1 REVERT JUMPDEST DUP9 MLOAD SWAP8 POP PUSH1 0x20 DUP10 ADD MLOAD SWAP7 POP PUSH1 0x40 DUP10 ADD MLOAD SWAP6 POP PUSH1 0x60 DUP10 ADD MLOAD SWAP5 POP PUSH3 0x1F1 PUSH1 0x80 DUP11 ADD PUSH3 0x195 JUMP JUMPDEST SWAP4 POP PUSH3 0x201 PUSH1 0xA0 DUP11 ADD PUSH3 0x195 JUMP JUMPDEST SWAP3 POP PUSH3 0x211 PUSH1 0xC0 DUP11 ADD PUSH3 0x195 JUMP JUMPDEST SWAP2 POP PUSH3 0x221 PUSH1 0xE0 DUP11 ADD PUSH3 0x195 JUMP JUMPDEST SWAP1 POP SWAP3 SWAP6 SWAP9 POP SWAP3 SWAP6 SWAP9 SWAP1 SWAP4 SWAP7 POP JUMP JUMPDEST PUSH1 0x0 DUP2 PUSH1 0x0 NOT DIV DUP4 GT DUP3 ISZERO ISZERO AND ISZERO PUSH3 0x259 JUMPI PUSH4 0x4E487B71 PUSH1 0xE0 SHL PUSH1 0x0 MSTORE PUSH1 0x11 PUSH1 0x4 MSTORE PUSH1 0x24 PUSH1 0x0 REVERT JUMPDEST POP MUL SWAP1 JUMP JUMPDEST PUSH1 0x0 DUP3 PUSH3 0x27C JUMPI PUSH4 0x4E487B71 PUSH1 0xE0 SHL PUSH1 0x0 MSTORE PUSH1 0x12 PUSH1 0x4 MSTORE PUSH1 0x24 PUSH1 0x0 REVERT JUMPDEST POP DIV SWAP1 JUMP JUMPDEST PUSH2 0x3ED1 DUP1 PUSH3 0x291 PUSH1 0x0 CODECOPY PUSH1 0x0 RETURN INVALID PUSH1 0x80 PUSH1 0x40 MSTORE PUSH1 0x4 CALLDATASIZE LT PUSH2 0x292 JUMPI PUSH1 0x0 CALLDATALOAD PUSH1 0xE0 SHR DUP1 PUSH4 0x6F77926B GT PUSH2 0x15A JUMPI DUP1 PUSH4 0xCA6E0385 GT PUSH2 0xC1 JUMPI DUP1 PUSH4 0xF283865F GT PUSH2 0x7A JUMPI DUP1 PUSH4 0xF283865F EQ PUSH2 0x9AE JUMPI DUP1 PUSH4 0xF5B27228 EQ PUSH2 0x9CE JUMPI DUP1 PUSH4 0xF6020F01 EQ PUSH2 0x9EE JUMPI DUP1 PUSH4 0xFA569FA2 EQ PUSH2 0xA1D JUMPI DUP1 PUSH4 0xFCBACE5D EQ PUSH2 0xA55 JUMPI DUP1 PUSH4 0xFD5201BE EQ PUSH2 0xA75 JUMPI PUSH1 0x0 DUP1 REVERT JUMPDEST DUP1 PUSH4 0xCA6E0385 EQ PUSH2 0x8EA JUMPI DUP1 PUSH4 0xCC500EC9 EQ PUSH2 0x925 JUMPI DUP1 PUSH4 0xD6AAD1B9 EQ PUSH2 0x944 JUMPI DUP1 PUSH4 0xDCC1484A EQ PUSH2 0x959 JUMPI DUP1 PUSH4 0xE98B25F9 EQ PUSH2 0x96E JUMPI DUP1 PUSH4 0xF0C36955 EQ PUSH2 0x98E JUMPI PUSH1 0x0 DUP1 REVERT JUMPDEST DUP1 PUSH4 0x8FE557A1 GT PUSH2 0x113 JUMPI DUP1 PUSH4 0x8FE557A1 EQ PUSH2 0x781 JUMPI DUP1 PUSH4 0x904A9D17 EQ PUSH2 0x7A1 JUMPI DUP1 PUSH4 0x9699FEE6 EQ PUSH2 0x7B7 JUMPI DUP1 PUSH4 0xA41DACD6 EQ PUSH2 0x7D7 JUMPI DUP1 PUSH4 0xA87430BA EQ PUSH2 0x7ED JUMPI DUP1 PUSH4 0xB986695B EQ PUSH2 0x8D4 JUMPI PUSH1 0x0 DUP1 REVERT JUMPDEST DUP1 PUSH4 0x6F77926B EQ PUSH2 0x5CC JUMPI DUP1 PUSH4 0x701341ED EQ PUSH2 0x6BA JUMPI DUP1 PUSH4 0x750142E6 EQ PUSH2 0x6DD JUMPI DUP1 PUSH4 0x8B2F56FB EQ PUSH2 0x6F3 JUMPI DUP1 PUSH4 0x8C8E9D64 EQ PUSH2 0x72E JUMPI DUP1 PUSH4 0x8D03B102 EQ PUSH2 0x767 JUMPI PUSH1 0x0 DUP1 REVERT JUMPDEST DUP1 PUSH4 0x3AA8F2ED GT PUSH2 0x1FE JUMPI DUP1 PUSH4 0x4D4D2B1C GT PUSH2 0x1B7 JUMPI DUP1 PUSH4 0x4D4D2B1C EQ PUSH2 0x4D0 JUMPI DUP1 PUSH4 0x4E49AD78 EQ PUSH2 0x51B JUMPI DUP1 PUSH4 0x508BE15E EQ PUSH2 0x531 JUMPI DUP1 PUSH4 0x59AC0C46 EQ PUSH2 0x547 JUMPI DUP1 PUSH4 0x64A3E221 EQ PUSH2 0x574 JUMPI DUP1 PUSH4 0x667BA0F6 EQ PUSH2 0x594 JUMPI PUSH1 0x0 DUP1 REVERT JUMPDEST DUP1 PUSH4 0x3AA8F2ED EQ PUSH2 0x418 JUMPI DUP1 PUSH4 0x3EEE0426 EQ PUSH2 0x438 JUMPI DUP1 PUSH4 0x3F4F2D62 EQ PUSH2 0x44E JUMPI DUP1 PUSH4 0x40365852 EQ PUSH2 0x46F JUMPI DUP1 PUSH4 0x4420E486 EQ PUSH2 0x485 JUMPI DUP1 PUSH4 0x45E4C379 EQ PUSH2 0x498 JUMPI PUSH1 0x0 DUP1 REVERT JUMPDEST DUP1 PUSH4 0x186BEAE3 GT PUSH2 0x250 JUMPI DUP1 PUSH4 0x186BEAE3 EQ PUSH2 0x38A JUMPI DUP1 PUSH4 0x1AA3A008 EQ PUSH2 0x3AC JUMPI DUP1 PUSH4 0x1B2CCC09 EQ PUSH2 0x3B4 JUMPI DUP1 PUSH4 0x3347DE66 EQ PUSH2 0x2D7 JUMPI DUP1 PUSH4 0x33F93BCD EQ PUSH2 0x3CA JUMPI DUP1 PUSH4 0x35C1D349 EQ PUSH2 0x3E0 JUMPI PUSH1 0x0 DUP1 REVERT JUMPDEST DUP1 PUSH3 0x5C43A5 EQ PUSH2 0x297 JUMPI DUP1 PUSH4 0x899604C EQ PUSH2 0x2C0 JUMPI DUP1 PUSH4 0x8FBA75C EQ PUSH2 0x2D7 JUMPI DUP1 PUSH4 0x95083AF EQ PUSH2 0x311 JUMPI DUP1 PUSH4 0x11DA60B4 EQ PUSH2 0x349 JUMPI DUP1 PUSH4 0x146CA531 EQ PUSH2 0x35E JUMPI JUMPDEST PUSH1 0x0 DUP1 REVERT JUMPDEST CALLVALUE DUP1 ISZERO PUSH2 0x2A3 JUMPI PUSH1 0x0 DUP1 REVERT JUMPDEST POP PUSH2 0x2AD PUSH1 0xC SLOAD DUP2 JUMP JUMPDEST PUSH1 0x40 MLOAD SWAP1 DUP2 MSTORE PUSH1 0x20 ADD JUMPDEST PUSH1 0x40 MLOAD DUP1 SWAP2 SUB SWAP1 RETURN JUMPDEST CALLVALUE DUP1 ISZERO PUSH2 0x2CC JUMPI PUSH1 0x0 DUP1 REVERT JUMPDEST POP PUSH2 0x2D5 PUSH2 0xA8B JUMP JUMPDEST STOP JUMPDEST CALLVALUE DUP1 ISZERO PUSH2 0x2E3 JUMPI PUSH1 0x0 DUP1 REVERT JUMPDEST POP PUSH2 0x2D5 PUSH2 0x2F2 CALLDATASIZE PUSH1 0x4 PUSH2 0x37BB JUMP JUMPDEST PUSH1 0x1 PUSH1 0x1 PUSH1 0xA0 SHL SUB SWAP1 SWAP2 AND PUSH1 0x0 SWAP1 DUP2 MSTORE PUSH1 0x10 PUSH1 0x20 MSTORE PUSH1 0x40 SWAP1 KECCAK256 PUSH1 0x1 ADD SSTORE JUMP JUMPDEST CALLVALUE DUP1 ISZERO PUSH2 0x31D JUMPI PUSH1 0x0 DUP1 REVERT JUMPDEST POP PUSH2 0x2AD PUSH2 0x32C CALLDATASIZE PUSH1 0x4 PUSH2 0x37F6 JUMP JUMPDEST PUSH1 0x13 PUSH1 0x20 SWAP1 DUP2 MSTORE PUSH1 0x0 SWAP3 DUP4 MSTORE PUSH1 0x40 DUP1 DUP5 KECCAK256 SWAP1 SWAP2 MSTORE SWAP1 DUP3 MSTORE SWAP1 KECCAK256 SLOAD DUP2 JUMP JUMPDEST CALLVALUE DUP1 ISZERO PUSH2 0x355 JUMPI PUSH1 0x0 DUP1 REVERT JUMPDEST POP PUSH2 0x2D5 PUSH2 0xC9F JUMP JUMPDEST CALLVALUE DUP1 ISZERO PUSH2 0x36A JUMPI PUSH1 0x0 DUP1 REVERT JUMPDEST POP PUSH1 0x1 SLOAD PUSH2 0x378 SWAP1 PUSH1 0xFF AND DUP2 JUMP JUMPDEST PUSH1 0x40 MLOAD PUSH1 0xFF SWAP1 SWAP2 AND DUP2 MSTORE PUSH1 0x20 ADD PUSH2 0x2B7 JUMP JUMPDEST CALLVALUE DUP1 ISZERO PUSH2 0x396 JUMPI PUSH1 0x0 DUP1 REVERT JUMPDEST POP PUSH1 0x1 SLOAD PUSH2 0x378 SWAP1 PUSH5 0x100000000 SWAP1 DIV PUSH1 0xFF AND DUP2 JUMP JUMPDEST PUSH2 0x2D5 PUSH2 0x1D9E JUMP JUMPDEST CALLVALUE DUP1 ISZERO PUSH2 0x3C0 JUMPI PUSH1 0x0 DUP1 REVERT JUMPDEST POP PUSH2 0x2AD PUSH1 0x0 SLOAD DUP2 JUMP JUMPDEST CALLVALUE DUP1 ISZERO PUSH2 0x3D6 JUMPI PUSH1 0x0 DUP1 REVERT JUMPDEST POP PUSH2 0x2AD PUSH1 0x8 SLOAD DUP2 JUMP JUMPDEST CALLVALUE DUP1 ISZERO PUSH2 0x3EC JUMPI PUSH1 0x0 DUP1 REVERT JUMPDEST POP PUSH2 0x400 PUSH2 0x3FB CALLDATASIZE PUSH1 0x4 PUSH2 0x3829 JUMP JUMPDEST PUSH2 0x1E3F JUMP JUMPDEST PUSH1 0x40 MLOAD PUSH1 0x1 PUSH1 0x1 PUSH1 0xA0 SHL SUB SWAP1 SWAP2 AND DUP2 MSTORE PUSH1 0x20 ADD PUSH2 0x2B7 JUMP JUMPDEST CALLVALUE DUP1 ISZERO PUSH2 0x424 JUMPI PUSH1 0x0 DUP1 REVERT JUMPDEST POP PUSH2 0x2D5 PUSH2 0x433 CALLDATASIZE PUSH1 0x4 PUSH2 0x37BB JUMP JUMPDEST PUSH2 0x1E69 JUMP JUMPDEST CALLVALUE DUP1 ISZERO PUSH2 0x444 JUMPI PUSH1 0x0 DUP1 REVERT JUMPDEST POP PUSH2 0x2AD PUSH1 0x9 SLOAD DUP2 JUMP JUMPDEST CALLVALUE DUP1 ISZERO PUSH2 0x45A JUMPI PUSH1 0x0 DUP1 REVERT JUMPDEST POP PUSH1 0x1 SLOAD PUSH2 0x378 SWAP1 PUSH4 0x1000000 SWAP1 DIV PUSH1 0xFF AND DUP2 JUMP JUMPDEST CALLVALUE DUP1 ISZERO PUSH2 0x47B JUMPI PUSH1 0x0 DUP1 REVERT JUMPDEST POP PUSH2 0x2AD PUSH1 0xA SLOAD DUP2 JUMP JUMPDEST PUSH2 0x2D5 PUSH2 0x493 CALLDATASIZE PUSH1 0x4 PUSH2 0x3842 JUMP JUMPDEST PUSH2 0x21D8 JUMP JUMPDEST CALLVALUE DUP1 ISZERO PUSH2 0x4A4 JUMPI PUSH1 0x0 DUP1 REVERT JUMPDEST POP PUSH2 0x2AD PUSH2 0x4B3 CALLDATASIZE PUSH1 0x4 PUSH2 0x37F6 JUMP JUMPDEST PUSH1 0x14 PUSH1 0x20 SWAP1 DUP2 MSTORE PUSH1 0x0 SWAP3 DUP4 MSTORE PUSH1 0x40 DUP1 DUP5 KECCAK256 SWAP1 SWAP2 MSTORE SWAP1 DUP3 MSTORE SWAP1 KECCAK256 SLOAD DUP2 JUMP JUMPDEST CALLVALUE DUP1 ISZERO PUSH2 0x4DC JUMPI PUSH1 0x0 DUP1 REVERT JUMPDEST POP PUSH2 0x50B PUSH2 0x4EB CALLDATASIZE PUSH1 0x4 PUSH2 0x3864 JUMP JUMPDEST PUSH1 0x11 PUSH1 0x20 SWAP1 DUP2 MSTORE PUSH1 0x0 SWAP3 DUP4 MSTORE PUSH1 0x40 DUP1 DUP5 KECCAK256 SWAP1 SWAP2 MSTORE SWAP1 DUP3 MSTORE SWAP1 KECCAK256 SLOAD PUSH1 0xFF AND DUP2 JUMP JUMPDEST PUSH1 0x40 MLOAD SWAP1 ISZERO ISZERO DUP2 MSTORE PUSH1 0x20 ADD PUSH2 0x2B7 JUMP JUMPDEST CALLVALUE DUP1 ISZERO PUSH2 0x527 JUMPI PUSH1 0x0 DUP1 REVERT JUMPDEST POP PUSH2 0x2AD PUSH1 0x2 SLOAD DUP2 JUMP JUMPDEST CALLVALUE DUP1 ISZERO PUSH2 0x53D JUMPI PUSH1 0x0 DUP1 REVERT JUMPDEST POP PUSH2 0x2AD PUSH1 0x5 SLOAD DUP2 JUMP JUMPDEST CALLVALUE DUP1 ISZERO PUSH2 0x553 JUMPI PUSH1 0x0 DUP1 REVERT JUMPDEST POP PUSH2 0x2AD PUSH2 0x562 CALLDATASIZE PUSH1 0x4 PUSH2 0x388E JUMP JUMPDEST PUSH1 0x16 PUSH1 0x20 MSTORE PUSH1 0x0 SWAP1 DUP2 MSTORE PUSH1 0x40 SWAP1 KECCAK256 SLOAD DUP2 JUMP JUMPDEST CALLVALUE DUP1 ISZERO PUSH2 0x580 JUMPI PUSH1 0x0 DUP1 REVERT JUMPDEST POP PUSH2 0x2D5 PUSH2 0x58F CALLDATASIZE PUSH1 0x4 PUSH2 0x38A9 JUMP JUMPDEST PUSH2 0x227A JUMP JUMPDEST CALLVALUE DUP1 ISZERO PUSH2 0x5A0 JUMPI PUSH1 0x0 DUP1 REVERT JUMPDEST POP PUSH2 0x2AD PUSH2 0x5AF CALLDATASIZE PUSH1 0x4 PUSH2 0x38CB JUMP JUMPDEST PUSH1 0x18 PUSH1 0x20 SWAP1 DUP2 MSTORE PUSH1 0x0 SWAP3 DUP4 MSTORE PUSH1 0x40 DUP1 DUP5 KECCAK256 SWAP1 SWAP2 MSTORE SWAP1 DUP3 MSTORE SWAP1 KECCAK256 SLOAD DUP2 JUMP JUMPDEST CALLVALUE DUP1 ISZERO PUSH2 0x5D8 JUMPI PUSH1 0x0 DUP1 REVERT JUMPDEST POP PUSH2 0x65A PUSH2 0x5E7 CALLDATASIZE PUSH1 0x4 PUSH2 0x3842 JUMP JUMPDEST PUSH1 0x1 PUSH1 0x1 PUSH1 0xA0 SHL SUB SWAP1 DUP2 AND PUSH1 0x0 SWAP1 DUP2 MSTORE PUSH1 0x10 PUSH1 0x20 MSTORE PUSH1 0x40 SWAP1 KECCAK256 PUSH1 0x3 DUP2 ADD SLOAD DUP2 SLOAD PUSH1 0x1 DUP4 ADD SLOAD PUSH1 0x2 SWAP1 SWAP4 ADD SLOAD SWAP4 DUP3 AND SWAP5 SWAP1 SWAP4 SWAP2 PUSH1 0xFF PUSH1 0x1 PUSH1 0xA0 SHL DUP3 DIV DUP2 AND SWAP3 PUSH1 0x1 PUSH1 0xA8 SHL DUP4 DIV DUP3 AND SWAP3 PUSH1 0x1 PUSH1 0xB0 SHL DUP2 DIV DUP4 AND SWAP3 PUSH1 0x1 PUSH1 0xB8 SHL DUP3 DIV DUP2 AND SWAP3 PUSH1 0x1 PUSH1 0xC0 SHL DUP4 DIV DUP3 AND SWAP3 PUSH1 0x1 PUSH1 0xC8 SHL SWAP1 DIV SWAP1 SWAP2 AND SWAP1 JUMP JUMPDEST PUSH1 0x40 DUP1 MLOAD PUSH1 0x1 PUSH1 0x1 PUSH1 0xA0 SHL SUB SWAP1 SWAP12 AND DUP12 MSTORE PUSH1 0x20 DUP12 ADD SWAP10 SWAP1 SWAP10 MSTORE SWAP8 DUP10 ADD SWAP7 SWAP1 SWAP7 MSTORE PUSH1 0x60 DUP9 ADD SWAP5 SWAP1 SWAP5 MSTORE PUSH1 0xFF SWAP3 DUP4 AND PUSH1 0x80 DUP9 ADD MSTORE SWAP2 AND PUSH1 0xA0 DUP7 ADD MSTORE ISZERO ISZERO PUSH1 0xC0 DUP6 ADD MSTORE ISZERO ISZERO PUSH1 0xE0 DUP5 ADD MSTORE ISZERO ISZERO PUSH2 0x100 DUP4 ADD MSTORE ISZERO ISZERO PUSH2 0x120 DUP3 ADD MSTORE PUSH2 0x140 ADD PUSH2 0x2B7 JUMP JUMPDEST CALLVALUE DUP1 ISZERO PUSH2 0x6C6 JUMPI PUSH1 0x0 DUP1 REVERT JUMPDEST POP PUSH2 0x6CF PUSH2 0x23D7 JUMP JUMPDEST PUSH1 0x40 MLOAD PUSH2 0x2B7 SWAP3 SWAP2 SWAP1 PUSH2 0x3955 JUMP JUMPDEST CALLVALUE DUP1 ISZERO PUSH2 0x6E9 JUMPI PUSH1 0x0 DUP1 REVERT JUMPDEST POP PUSH2 0x2AD PUSH1 0x7 SLOAD DUP2 JUMP JUMPDEST CALLVALUE DUP1 ISZERO PUSH2 0x6FF JUMPI PUSH1 0x0 DUP1 REVERT JUMPDEST POP PUSH2 0x378 PUSH2 0x70E CALLDATASIZE PUSH1 0x4 PUSH2 0x38CB JUMP JUMPDEST PUSH1 0x17 PUSH1 0x20 SWAP1 DUP2 MSTORE PUSH1 0x0 SWAP3 DUP4 MSTORE PUSH1 0x40 DUP1 DUP5 KECCAK256 SWAP1 SWAP2 MSTORE SWAP1 DUP3 MSTORE SWAP1 KECCAK256 SLOAD PUSH1 0xFF AND DUP2 JUMP JUMPDEST CALLVALUE DUP1 ISZERO PUSH2 0x73A JUMPI PUSH1 0x0 DUP1 REVERT JUMPDEST POP PUSH2 0x2AD PUSH2 0x749 CALLDATASIZE PUSH1 0x4 PUSH2 0x3842 JUMP JUMPDEST PUSH1 0x1 PUSH1 0x1 PUSH1 0xA0 SHL SUB AND PUSH1 0x0 SWAP1 DUP2 MSTORE PUSH1 0x10 PUSH1 0x20 MSTORE PUSH1 0x40 SWAP1 KECCAK256 PUSH1 0x1 ADD SLOAD SWAP1 JUMP JUMPDEST CALLVALUE DUP1 ISZERO PUSH2 0x773 JUMPI PUSH1 0x0 DUP1 REVERT JUMPDEST POP PUSH1 0xF SLOAD PUSH2 0x50B SWAP1 PUSH1 0xFF AND DUP2 JUMP JUMPDEST CALLVALUE DUP1 ISZERO PUSH2 0x78D JUMPI PUSH1 0x0 DUP1 REVERT JUMPDEST POP PUSH2 0x2D5 PUSH2 0x79C CALLDATASIZE PUSH1 0x4 PUSH2 0x3A11 JUMP JUMPDEST PUSH2 0x264C JUMP JUMPDEST CALLVALUE DUP1 ISZERO PUSH2 0x7AD JUMPI PUSH1 0x0 DUP1 REVERT JUMPDEST POP PUSH2 0x2AD PUSH1 0x6 SLOAD DUP2 JUMP JUMPDEST CALLVALUE DUP1 ISZERO PUSH2 0x7C3 JUMPI PUSH1 0x0 DUP1 REVERT JUMPDEST POP PUSH2 0x2D5 PUSH2 0x7D2 CALLDATASIZE PUSH1 0x4 PUSH2 0x3AC5 JUMP JUMPDEST PUSH2 0x299B JUMP JUMPDEST CALLVALUE DUP1 ISZERO PUSH2 0x7E3 JUMPI PUSH1 0x0 DUP1 REVERT JUMPDEST POP PUSH2 0x2AD PUSH1 0xB SLOAD DUP2 JUMP JUMPDEST CALLVALUE DUP1 ISZERO PUSH2 0x7F9 JUMPI PUSH1 0x0 DUP1 REVERT JUMPDEST POP PUSH2 0x876 PUSH2 0x808 CALLDATASIZE PUSH1 0x4 PUSH2 0x3842 JUMP JUMPDEST PUSH1 0x10 PUSH1 0x20 MSTORE PUSH1 0x0 SWAP1 DUP2 MSTORE PUSH1 0x40 SWAP1 KECCAK256 DUP1 SLOAD PUSH1 0x1 DUP3 ADD SLOAD PUSH1 0x2 DUP4 ADD SLOAD PUSH1 0x3 SWAP1 SWAP4 ADD SLOAD SWAP2 SWAP3 SWAP1 SWAP2 PUSH1 0x1 PUSH1 0x1 PUSH1 0xA0 SHL SUB DUP2 AND SWAP1 PUSH1 0xFF PUSH1 0x1 PUSH1 0xA0 SHL DUP3 DIV DUP2 AND SWAP2 PUSH1 0x1 PUSH1 0xA8 SHL DUP2 DIV DUP3 AND SWAP2 PUSH1 0x1 PUSH1 0xB0 SHL DUP3 DIV DUP2 AND SWAP2 PUSH1 0x1 PUSH1 0xB8 SHL DUP2 DIV DUP3 AND SWAP2 PUSH1 0x1 PUSH1 0xC0 SHL DUP3 DIV DUP2 AND SWAP2 PUSH1 0x1 PUSH1 0xC8 SHL SWAP1 DIV AND DUP11 JUMP JUMPDEST PUSH1 0x40 DUP1 MLOAD SWAP11 DUP12 MSTORE PUSH1 0x20 DUP12 ADD SWAP10 SWAP1 SWAP10 MSTORE SWAP8 DUP10 ADD SWAP7 SWAP1 SWAP7 MSTORE PUSH1 0x1 PUSH1 0x1 PUSH1 0xA0 SHL SUB SWAP1 SWAP5 AND PUSH1 0x60 DUP9 ADD MSTORE PUSH1 0xFF SWAP3 DUP4 AND PUSH1 0x80 DUP9 ADD MSTORE SWAP2 AND PUSH1 0xA0 DUP7 ADD MSTORE ISZERO ISZERO PUSH1 0xC0 DUP6 ADD MSTORE ISZERO ISZERO PUSH1 0xE0 DUP5 ADD MSTORE ISZERO ISZERO PUSH2 0x100 DUP4 ADD MSTORE ISZERO ISZERO PUSH2 0x120 DUP3 ADD MSTORE PUSH2 0x140 ADD PUSH2 0x2B7 JUMP JUMPDEST CALLVALUE DUP1 ISZERO PUSH2 0x8E0 JUMPI PUSH1 0x0 DUP1 REVERT JUMPDEST POP PUSH2 0x2AD PUSH1 0x3 SLOAD DUP2 JUMP JUMPDEST CALLVALUE DUP1 ISZERO PUSH2 0x8F6 JUMPI PUSH1 0x0 DUP1 REVERT JUMPDEST POP PUSH2 0x50B PUSH2 0x905 CALLDATASIZE PUSH1 0x4 PUSH2 0x3864 JUMP JUMPDEST PUSH1 0x12 PUSH1 0x20 SWAP1 DUP2 MSTORE PUSH1 0x0 SWAP3 DUP4 MSTORE PUSH1 0x40 DUP1 DUP5 KECCAK256 SWAP1 SWAP2 MSTORE SWAP1 DUP3 MSTORE SWAP1 KECCAK256 SLOAD PUSH1 0xFF AND DUP2 JUMP JUMPDEST CALLVALUE DUP1 ISZERO PUSH2 0x931 JUMPI PUSH1 0x0 DUP1 REVERT JUMPDEST POP PUSH1 0x1 SLOAD PUSH2 0x378 SWAP1 PUSH2 0x100 SWAP1 DIV PUSH1 0xFF AND DUP2 JUMP JUMPDEST CALLVALUE DUP1 ISZERO PUSH2 0x950 JUMPI PUSH1 0x0 DUP1 REVERT JUMPDEST POP PUSH2 0x50B PUSH2 0x2A6F JUMP JUMPDEST CALLVALUE DUP1 ISZERO PUSH2 0x965 JUMPI PUSH1 0x0 DUP1 REVERT JUMPDEST POP PUSH2 0x50B PUSH2 0x2B12 JUMP JUMPDEST CALLVALUE DUP1 ISZERO PUSH2 0x97A JUMPI PUSH1 0x0 DUP1 REVERT JUMPDEST POP PUSH2 0x2D5 PUSH2 0x989 CALLDATASIZE PUSH1 0x4 PUSH2 0x3B07 JUMP JUMPDEST PUSH2 0x2C11 JUMP JUMPDEST CALLVALUE DUP1 ISZERO PUSH2 0x99A JUMPI PUSH1 0x0 DUP1 REVERT JUMPDEST POP PUSH2 0x50B PUSH2 0x9A9 CALLDATASIZE PUSH1 0x4 PUSH2 0x3842 JUMP JUMPDEST PUSH2 0x2DEB JUMP JUMPDEST CALLVALUE DUP1 ISZERO PUSH2 0x9BA JUMPI PUSH1 0x0 DUP1 REVERT JUMPDEST POP PUSH2 0x2D5 PUSH2 0x9C9 CALLDATASIZE PUSH1 0x4 PUSH2 0x3829 JUMP JUMPDEST PUSH2 0x2E67 JUMP JUMPDEST CALLVALUE DUP1 ISZERO PUSH2 0x9DA JUMPI PUSH1 0x0 DUP1 REVERT JUMPDEST POP PUSH2 0x2D5 PUSH2 0x9E9 CALLDATASIZE PUSH1 0x4 PUSH2 0x3829 JUMP JUMPDEST PUSH2 0x2FB3 JUMP JUMPDEST CALLVALUE DUP1 ISZERO PUSH2 0x9FA JUMPI PUSH1 0x0 DUP1 REVERT JUMPDEST POP PUSH2 0xA0E PUSH2 0xA09 CALLDATASIZE PUSH1 0x4 PUSH2 0x3842 JUMP JUMPDEST PUSH2 0x3061 JUMP JUMPDEST PUSH1 0x40 MLOAD PUSH2 0x2B7 SWAP4 SWAP3 SWAP2 SWAP1 PUSH2 0x3B42 JUMP JUMPDEST CALLVALUE DUP1 ISZERO PUSH2 0xA29 JUMPI PUSH1 0x0 DUP1 REVERT JUMPDEST POP PUSH2 0x2AD PUSH2 0xA38 CALLDATASIZE PUSH1 0x4 PUSH2 0x38CB JUMP JUMPDEST PUSH1 0x15 PUSH1 0x20 SWAP1 DUP2 MSTORE PUSH1 0x0 SWAP3 DUP4 MSTORE PUSH1 0x40 DUP1 DUP5 KECCAK256 SWAP1 SWAP2 MSTORE SWAP1 DUP3 MSTORE SWAP1 KECCAK256 SLOAD DUP2 JUMP JUMPDEST CALLVALUE DUP1 ISZERO PUSH2 0xA61 JUMPI PUSH1 0x0 DUP1 REVERT JUMPDEST POP PUSH1 0x1 SLOAD PUSH2 0x378 SWAP1 PUSH3 0x10000 SWAP1 DIV PUSH1 0xFF AND DUP2 JUMP JUMPDEST CALLVALUE DUP1 ISZERO PUSH2 0xA81 JUMPI PUSH1 0x0 DUP1 REVERT JUMPDEST POP PUSH2 0x2AD PUSH1 0x4 SLOAD DUP2 JUMP JUMPDEST CALLER PUSH1 0x0 SWAP1 DUP2 MSTORE PUSH1 0x10 PUSH1 0x20 MSTORE PUSH1 0x40 SWAP1 KECCAK256 PUSH1 0x3 ADD SLOAD PUSH1 0x1 PUSH1 0xB8 SHL SWAP1 DIV PUSH1 0xFF AND PUSH2 0xACD JUMPI PUSH1 0x40 MLOAD PUSH3 0x461BCD PUSH1 0xE5 SHL DUP2 MSTORE PUSH1 0x4 ADD PUSH2 0xAC4 SWAP1 PUSH2 0x3BB7 JUMP JUMPDEST PUSH1 0x40 MLOAD DUP1 SWAP2 SUB SWAP1 REVERT JUMPDEST PUSH1 0x2 SLOAD PUSH1 0x3 SLOAD EQ ISZERO DUP1 ISZERO PUSH2 0xAF0 JUMPI POP TIMESTAMP PUSH3 0x15180 PUSH1 0xA SLOAD PUSH2 0xAEE SWAP2 SWAP1 PUSH2 0x3BEA JUMP JUMPDEST GT JUMPDEST PUSH2 0xB21 JUMPI PUSH1 0x40 MLOAD PUSH3 0x461BCD PUSH1 0xE5 SHL DUP2 MSTORE PUSH1 0x20 PUSH1 0x4 DUP3 ADD MSTORE PUSH1 0x2 PUSH1 0x24 DUP3 ADD MSTORE PUSH2 0x4E41 PUSH1 0xF0 SHL PUSH1 0x44 DUP3 ADD MSTORE PUSH1 0x64 ADD PUSH2 0xAC4 JUMP JUMPDEST CALLER PUSH1 0x0 SWAP1 DUP2 MSTORE PUSH1 0x14 PUSH1 0x20 SWAP1 DUP2 MSTORE PUSH1 0x40 DUP1 DUP4 KECCAK256 PUSH1 0x1 SLOAD PUSH1 0xFF AND DUP5 MSTORE SWAP1 SWAP2 MSTORE SWAP1 KECCAK256 SLOAD ISZERO PUSH2 0xB74 JUMPI PUSH1 0x40 MLOAD PUSH3 0x461BCD PUSH1 0xE5 SHL DUP2 MSTORE PUSH1 0x20 PUSH1 0x4 DUP3 ADD MSTORE PUSH1 0x3 PUSH1 0x24 DUP3 ADD MSTORE PUSH3 0x574645 PUSH1 0xE8 SHL PUSH1 0x44 DUP3 ADD MSTORE PUSH1 0x64 ADD PUSH2 0xAC4 JUMP JUMPDEST CALLER PUSH1 0x0 SWAP1 DUP2 MSTORE PUSH1 0x10 PUSH1 0x20 MSTORE PUSH1 0x40 SWAP1 KECCAK256 PUSH1 0x1 ADD SLOAD PUSH2 0xBB9 JUMPI PUSH1 0x40 MLOAD PUSH3 0x461BCD PUSH1 0xE5 SHL DUP2 MSTORE PUSH1 0x20 PUSH1 0x4 DUP3 ADD MSTORE PUSH1 0x3 PUSH1 0x24 DUP3 ADD MSTORE PUSH3 0x2722A3 PUSH1 0xE9 SHL PUSH1 0x44 DUP3 ADD MSTORE PUSH1 0x64 ADD PUSH2 0xAC4 JUMP JUMPDEST CALLER PUSH1 0x0 SWAP1 DUP2 MSTORE PUSH1 0x10 PUSH1 0x20 MSTORE PUSH1 0x40 DUP2 KECCAK256 PUSH1 0x1 ADD DUP1 SLOAD SWAP1 DUP3 SWAP1 SSTORE SWAP1 JUMPDEST PUSH1 0xD SLOAD DUP2 LT ISZERO PUSH2 0xC54 JUMPI CALLER PUSH1 0x1 PUSH1 0x1 PUSH1 0xA0 SHL SUB AND PUSH1 0xD DUP3 DUP2 SLOAD DUP2 LT PUSH2 0xBFA JUMPI PUSH2 0xBFA PUSH2 0x3C02 JUMP JUMPDEST PUSH1 0x0 SWAP2 DUP3 MSTORE PUSH1 0x20 SWAP1 SWAP2 KECCAK256 ADD SLOAD PUSH1 0x1 PUSH1 0x1 PUSH1 0xA0 SHL SUB AND EQ ISZERO PUSH2 0xC42 JUMPI PUSH1 0xD DUP2 DUP2 SLOAD DUP2 LT PUSH2 0xC28 JUMPI PUSH2 0xC28 PUSH2 0x3C02 JUMP JUMPDEST PUSH1 0x0 SWAP2 DUP3 MSTORE PUSH1 0x20 SWAP1 SWAP2 KECCAK256 ADD DUP1 SLOAD PUSH1 0x1 PUSH1 0x1 PUSH1 0xA0 SHL SUB NOT AND SWAP1 SSTORE JUMPDEST DUP1 PUSH2 0xC4C DUP2 PUSH2 0x3C18 JUMP JUMPDEST SWAP2 POP POP PUSH2 0xBD3 JUMP JUMPDEST POP CALLER PUSH1 0x0 DUP2 DUP2 MSTORE PUSH1 0x10 PUSH1 0x20 MSTORE PUSH1 0x40 DUP1 DUP3 KECCAK256 PUSH1 0x3 ADD DUP1 SLOAD PUSH1 0xFF PUSH1 0xB8 SHL NOT AND SWAP1 SSTORE MLOAD DUP4 ISZERO PUSH2 0x8FC MUL SWAP2 DUP5 SWAP2 SWAP1 DUP2 DUP2 DUP2 DUP6 DUP9 DUP9 CALL SWAP4 POP POP POP POP ISZERO DUP1 ISZERO PUSH2 0xC9B JUMPI RETURNDATASIZE PUSH1 0x0 DUP1 RETURNDATACOPY RETURNDATASIZE PUSH1 0x0 REVERT JUMPDEST POP POP JUMP JUMPDEST PUSH1 0x0 DUP1 PUSH2 0xCAD PUSH1 0xE DUP3 PUSH2 0x362F JUMP JUMPDEST PUSH1 0x0 JUMPDEST PUSH1 0xD SLOAD DUP2 LT ISZERO PUSH2 0xD4C JUMPI PUSH1 0x0 PUSH1 0x10 PUSH1 0x0 PUSH1 0xD DUP5 DUP2 SLOAD DUP2 LT PUSH2 0xCD3 JUMPI PUSH2 0xCD3 PUSH2 0x3C02 JUMP JUMPDEST PUSH1 0x0 SWAP2 DUP3 MSTORE PUSH1 0x20 DUP1 DUP4 KECCAK256 SWAP1 SWAP2 ADD SLOAD PUSH1 0x1 PUSH1 0x1 PUSH1 0xA0 SHL SUB AND DUP4 MSTORE DUP3 ADD SWAP3 SWAP1 SWAP3 MSTORE PUSH1 0x40 ADD SWAP1 KECCAK256 PUSH1 0x3 DUP2 ADD SLOAD SWAP1 SWAP2 POP PUSH1 0xFF PUSH1 0x1 PUSH1 0xA0 SHL SWAP1 SWAP2 DIV AND PUSH1 0x1 EQ ISZERO PUSH2 0xD39 JUMPI PUSH1 0xC SLOAD DUP2 PUSH1 0x1 ADD SLOAD PUSH2 0xD24 SWAP2 SWAP1 PUSH2 0x3C33 JUMP JUMPDEST PUSH1 0x1 DUP3 ADD SSTORE PUSH1 0xC SLOAD PUSH2 0xD36 SWAP1 DUP5 PUSH2 0x3BEA JUMP JUMPDEST SWAP3 POP JUMPDEST POP DUP1 PUSH2 0xD44 DUP2 PUSH2 0x3C18 JUMP JUMPDEST SWAP2 POP POP PUSH2 0xCB0 JUMP JUMPDEST POP PUSH1 0x0 JUMPDEST PUSH1 0xD SLOAD DUP2 LT ISZERO PUSH2 0x1087 JUMPI PUSH1 0x0 PUSH1 0x10 PUSH1 0x0 PUSH1 0xD DUP5 DUP2 SLOAD DUP2 LT PUSH2 0xD73 JUMPI PUSH2 0xD73 PUSH2 0x3C02 JUMP JUMPDEST PUSH1 0x0 SWAP2 DUP3 MSTORE PUSH1 0x20 DUP1 DUP4 KECCAK256 SWAP1 SWAP2 ADD SLOAD PUSH1 0x1 PUSH1 0x1 PUSH1 0xA0 SHL SUB AND DUP4 MSTORE DUP3 ADD SWAP3 SWAP1 SWAP3 MSTORE PUSH1 0x40 ADD SWAP1 KECCAK256 PUSH1 0x3 DUP2 ADD SLOAD SWAP1 SWAP2 POP PUSH1 0xFF PUSH1 0x1 PUSH1 0xB8 SHL SWAP1 SWAP2 DIV AND ISZERO PUSH2 0x1074 JUMPI PUSH1 0x0 DUP2 PUSH1 0x2 ADD SLOAD SLT ISZERO PUSH2 0x105E JUMPI PUSH1 0x3 DUP2 ADD SLOAD PUSH1 0x1 DUP1 SLOAD PUSH1 0xFF PUSH1 0x1 PUSH1 0xA8 SHL SWAP1 SWAP4 DIV DUP4 AND SWAP3 DUP3 SWAP2 PUSH2 0xDE5 SWAP2 DUP6 SWAP2 PUSH2 0x100 SWAP1 DIV AND PUSH2 0x3C4A JUMP JUMPDEST SWAP3 POP PUSH2 0x100 EXP DUP2 SLOAD DUP2 PUSH1 0xFF MUL NOT AND SWAP1 DUP4 PUSH1 0xFF AND MUL OR SWAP1 SSTORE POP PUSH1 0x0 PUSH1 0x1 PUSH1 0x2 SWAP1 SLOAD SWAP1 PUSH2 0x100 EXP SWAP1 DIV PUSH1 0xFF AND PUSH1 0xFF AND DUP3 PUSH1 0x1 ADD SLOAD PUSH2 0xE21 SWAP2 SWAP1 PUSH2 0x3C6D JUMP JUMPDEST PUSH1 0x1 SLOAD PUSH1 0x5 SLOAD SWAP2 SWAP3 POP PUSH2 0xE3E SWAP2 PUSH3 0x10000 SWAP1 SWAP2 DIV PUSH1 0xFF AND SWAP1 PUSH2 0x3C6D JUMP JUMPDEST DUP3 PUSH1 0x1 ADD SLOAD GT ISZERO PUSH2 0xF48 JUMPI PUSH1 0x3 DUP3 ADD DUP1 SLOAD PUSH1 0xFF PUSH1 0xB0 SHL NOT DUP2 AND PUSH1 0x1 PUSH1 0xB0 SHL OR DUP3 SSTORE PUSH1 0xE DUP1 SLOAD PUSH1 0x1 DUP2 DUP2 ADD DUP4 SSTORE PUSH1 0x0 SWAP3 SWAP1 SWAP3 MSTORE PUSH32 0xBB7B4A454DC3493923482F07822329ED19E8244EFF582CC204F8554C3620C3FD ADD DUP1 SLOAD PUSH1 0x1 PUSH1 0x1 PUSH1 0xA0 SHL SUB NOT AND PUSH1 0x1 PUSH1 0x1 PUSH1 0xA0 SHL SUB SWAP1 SWAP4 AND SWAP3 SWAP1 SWAP3 OR SWAP1 SWAP2 SSTORE DUP2 SLOAD PUSH1 0xFF PUSH1 0xC0 SHL NOT AND SWAP1 SWAP2 SSTORE DUP3 ADD SLOAD PUSH2 0xECA SWAP1 DUP3 SWAP1 PUSH2 0x3C33 JUMP JUMPDEST PUSH1 0x1 DUP4 ADD SSTORE PUSH1 0x2 DUP3 ADD SLOAD PUSH2 0xEDF SWAP1 DUP3 SWAP1 PUSH2 0x3C8F JUMP JUMPDEST PUSH1 0x2 DUP4 ADD SSTORE PUSH2 0xEEE DUP2 DUP7 PUSH2 0x3BEA JUMP JUMPDEST PUSH1 0x3 DUP4 ADD SLOAD PUSH1 0x2 DUP5 ADD SLOAD PUSH1 0x1 DUP6 ADD SLOAD PUSH1 0x40 MLOAD SWAP4 SWAP9 POP PUSH32 0x641368B934D33E657FE49C6AF1C0E5B618D4DC123F53FC3F8D5F15FEE5F4FB86 SWAP4 PUSH2 0xF3B SWAP4 PUSH1 0x1 PUSH1 0x1 PUSH1 0xA0 SHL SUB AND SWAP3 SWAP2 DUP7 SWAP2 PUSH2 0x3CCE JUMP JUMPDEST PUSH1 0x40 MLOAD DUP1 SWAP2 SUB SWAP1 LOG1 PUSH2 0x1058 JUMP JUMPDEST PUSH1 0x3 DUP3 ADD DUP1 SLOAD PUSH2 0xFFFF PUSH1 0xB0 SHL NOT DUP2 AND PUSH1 0x1 PUSH1 0xB0 SHL OR DUP3 SSTORE PUSH1 0xE DUP1 SLOAD PUSH1 0x1 DUP2 DUP2 ADD DUP4 SSTORE PUSH1 0x0 SWAP3 SWAP1 SWAP3 MSTORE PUSH32 0xBB7B4A454DC3493923482F07822329ED19E8244EFF582CC204F8554C3620C3FD ADD DUP1 SLOAD PUSH1 0x1 PUSH1 0x1 PUSH1 0xA0 SHL SUB NOT AND PUSH1 0x1 PUSH1 0x1 PUSH1 0xA0 SHL SUB SWAP1 SWAP4 AND SWAP3 SWAP1 SWAP3 OR SWAP1 SWAP2 SSTORE DUP2 SLOAD PUSH1 0xFF PUSH1 0xC0 SHL NOT AND SWAP1 SWAP2 SSTORE DUP3 ADD SLOAD PUSH2 0xFC9 SWAP1 DUP7 PUSH2 0x3BEA JUMP JUMPDEST PUSH1 0x3 DUP4 ADD SLOAD PUSH1 0x2 DUP5 ADD SLOAD PUSH1 0x1 DUP6 ADD SLOAD PUSH1 0x40 MLOAD SWAP4 SWAP9 POP PUSH32 0x6A461179A109AC5A4F65774B04343A475DD7D089FFA5A31552A4D71E0A1E7B4F SWAP4 PUSH2 0x1018 SWAP4 PUSH1 0x1 PUSH1 0x1 PUSH1 0xA0 SHL SUB AND SWAP3 SWAP2 SWAP1 PUSH1 0x0 SWAP1 PUSH2 0x3CCE JUMP JUMPDEST PUSH1 0x40 MLOAD DUP1 SWAP2 SUB SWAP1 LOG1 PUSH1 0x0 DUP3 PUSH1 0x1 ADD DUP2 SWAP1 SSTORE POP PUSH1 0x1 PUSH1 0x2 PUSH1 0x0 DUP3 DUP3 SLOAD PUSH2 0x103D SWAP2 SWAP1 PUSH2 0x3C33 JUMP JUMPDEST SWAP1 SWAP2 SSTORE POP POP PUSH1 0x3 DUP3 ADD DUP1 SLOAD PUSH1 0xFF PUSH1 0xC8 SHL NOT AND PUSH1 0x1 PUSH1 0xC8 SHL OR SWAP1 SSTORE JUMPDEST POP PUSH2 0x1074 JUMP JUMPDEST PUSH1 0x3 DUP2 ADD DUP1 SLOAD PUSH1 0xFF PUSH1 0xC0 SHL NOT AND PUSH1 0x1 PUSH1 0xC0 SHL OR SWAP1 SSTORE JUMPDEST POP DUP1 PUSH2 0x107F DUP2 PUSH2 0x3C18 JUMP JUMPDEST SWAP2 POP POP PUSH2 0xD50 JUMP JUMPDEST POP PUSH1 0x0 JUMPDEST PUSH1 0xD SLOAD DUP2 LT ISZERO PUSH2 0x128F JUMPI PUSH1 0x0 PUSH1 0x10 PUSH1 0x0 PUSH1 0xD DUP5 DUP2 SLOAD DUP2 LT PUSH2 0x10AE JUMPI PUSH2 0x10AE PUSH2 0x3C02 JUMP JUMPDEST PUSH1 0x0 SWAP2 DUP3 MSTORE PUSH1 0x20 DUP1 DUP4 KECCAK256 SWAP1 SWAP2 ADD SLOAD PUSH1 0x1 PUSH1 0x1 PUSH1 0xA0 SHL SUB AND DUP4 MSTORE DUP3 ADD SWAP3 SWAP1 SWAP3 MSTORE PUSH1 0x40 ADD SWAP1 KECCAK256 PUSH1 0x3 DUP2 ADD SLOAD SWAP1 SWAP2 POP PUSH1 0xFF PUSH1 0x1 PUSH1 0xB8 SHL SWAP1 SWAP2 DIV AND ISZERO PUSH2 0x127C JUMPI PUSH1 0x0 JUMPDEST PUSH1 0xE SLOAD DUP2 LT ISZERO PUSH2 0x127A JUMPI PUSH1 0x3 DUP3 ADD SLOAD PUSH1 0x1 PUSH1 0x1 PUSH1 0xA0 SHL SUB AND PUSH1 0x0 SWAP1 DUP2 MSTORE PUSH1 0x12 PUSH1 0x20 MSTORE PUSH1 0x40 DUP2 KECCAK256 PUSH1 0xE DUP1 SLOAD SWAP2 SWAP3 SWAP2 DUP5 SWAP1 DUP2 LT PUSH2 0x112A JUMPI PUSH2 0x112A PUSH2 0x3C02 JUMP JUMPDEST PUSH1 0x0 SWAP2 DUP3 MSTORE PUSH1 0x20 DUP1 DUP4 KECCAK256 SWAP1 SWAP2 ADD SLOAD PUSH1 0x1 PUSH1 0x1 PUSH1 0xA0 SHL SUB AND DUP4 MSTORE DUP3 ADD SWAP3 SWAP1 SWAP3 MSTORE PUSH1 0x40 ADD SWAP1 KECCAK256 SLOAD PUSH1 0xFF AND ISZERO PUSH2 0x1268 JUMPI PUSH1 0x3 DUP3 ADD SLOAD PUSH1 0x1 PUSH1 0x1 PUSH1 0xA0 SHL SUB AND PUSH1 0x0 SWAP1 DUP2 MSTORE PUSH1 0x12 PUSH1 0x20 MSTORE PUSH1 0x40 DUP2 KECCAK256 PUSH1 0xE DUP1 SLOAD DUP4 SWAP2 SWAP1 DUP6 SWAP1 DUP2 LT PUSH2 0x118A JUMPI PUSH2 0x118A PUSH2 0x3C02 JUMP JUMPDEST PUSH1 0x0 SWAP2 DUP3 MSTORE PUSH1 0x20 DUP1 DUP4 KECCAK256 SWAP2 SWAP1 SWAP2 ADD SLOAD PUSH1 0x1 PUSH1 0x1 PUSH1 0xA0 SHL SUB AND DUP4 MSTORE DUP3 ADD SWAP3 SWAP1 SWAP3 MSTORE PUSH1 0x40 ADD SWAP1 KECCAK256 DUP1 SLOAD PUSH1 0xFF NOT AND SWAP2 ISZERO ISZERO SWAP2 SWAP1 SWAP2 OR SWAP1 SSTORE PUSH1 0x3 DUP3 ADD SLOAD PUSH1 0x1 DUP1 SLOAD PUSH1 0xFF PUSH1 0x1 PUSH1 0xA8 SHL SWAP1 SWAP4 DIV DUP4 AND SWAP3 DUP3 SWAP2 PUSH2 0x11E7 SWAP2 DUP6 SWAP2 PUSH2 0x100 SWAP1 DIV AND PUSH2 0x3C4A JUMP JUMPDEST DUP3 SLOAD PUSH1 0xFF SWAP2 DUP3 AND PUSH2 0x100 SWAP4 SWAP1 SWAP4 EXP SWAP3 DUP4 MUL SWAP2 SWAP1 SWAP3 MUL NOT SWAP1 SWAP2 AND OR SWAP1 SSTORE POP PUSH1 0x3 DUP3 ADD DUP1 SLOAD PUSH1 0xFF PUSH1 0xC0 SHL NOT DUP2 AND SWAP1 SWAP2 SSTORE PUSH1 0x2 DUP4 ADD SLOAD PUSH1 0x1 DUP5 ADD SLOAD PUSH1 0x40 MLOAD PUSH32 0x1774DD77FAAF323CD25B2F963FF975744949B339A6D103B4E3959263F6C2F977 SWAP4 PUSH2 0x125F SWAP4 PUSH1 0x1 PUSH1 0x1 PUSH1 0xA0 SHL SUB SWAP1 SWAP2 AND SWAP3 SWAP1 SWAP2 PUSH1 0x0 SWAP2 SWAP1 PUSH2 0x3CCE JUMP JUMPDEST PUSH1 0x40 MLOAD DUP1 SWAP2 SUB SWAP1 LOG1 JUMPDEST DUP1 PUSH2 0x1272 DUP2 PUSH2 0x3C18 JUMP JUMPDEST SWAP2 POP POP PUSH2 0x10ED JUMP JUMPDEST POP JUMPDEST POP DUP1 PUSH2 0x1287 DUP2 PUSH2 0x3C18 JUMP JUMPDEST SWAP2 POP POP PUSH2 0x108B JUMP JUMPDEST POP PUSH1 0x0 JUMPDEST PUSH1 0xD SLOAD DUP2 LT ISZERO PUSH2 0x137B JUMPI PUSH1 0x0 PUSH1 0x10 PUSH1 0x0 PUSH1 0xD DUP5 DUP2 SLOAD DUP2 LT PUSH2 0x12B6 JUMPI PUSH2 0x12B6 PUSH2 0x3C02 JUMP JUMPDEST PUSH1 0x0 SWAP2 DUP3 MSTORE PUSH1 0x20 DUP1 DUP4 KECCAK256 SWAP1 SWAP2 ADD SLOAD PUSH1 0x1 PUSH1 0x1 PUSH1 0xA0 SHL SUB AND DUP4 MSTORE DUP3 ADD SWAP3 SWAP1 SWAP3 MSTORE PUSH1 0x40 ADD SWAP1 KECCAK256 PUSH1 0x3 DUP2 ADD SLOAD SWAP1 SWAP2 POP PUSH1 0xFF PUSH1 0x1 PUSH1 0xB8 SHL SWAP1 SWAP2 DIV AND ISZERO PUSH2 0x1368 JUMPI PUSH1 0x3 DUP2 ADD SLOAD PUSH1 0x1 PUSH1 0xA0 SHL SWAP1 DIV PUSH1 0xFF AND PUSH1 0x1 EQ ISZERO PUSH2 0x1368 JUMPI PUSH1 0x3 DUP2 ADD SLOAD PUSH1 0x1 PUSH1 0xC0 SHL SWAP1 DIV PUSH1 0xFF AND ISZERO PUSH2 0x1348 JUMPI PUSH1 0xC SLOAD DUP2 PUSH1 0x1 ADD SLOAD PUSH2 0x132F SWAP2 SWAP1 PUSH2 0x3BEA JUMP JUMPDEST PUSH1 0x1 DUP3 ADD SSTORE PUSH1 0xC SLOAD PUSH2 0x1341 SWAP1 DUP5 PUSH2 0x3C33 JUMP JUMPDEST SWAP3 POP PUSH2 0x1368 JUMP JUMPDEST PUSH1 0xC SLOAD PUSH2 0x1355 SWAP1 DUP6 PUSH2 0x3BEA JUMP JUMPDEST SWAP4 POP PUSH1 0xC SLOAD DUP4 PUSH2 0x1365 SWAP2 SWAP1 PUSH2 0x3C33 JUMP JUMPDEST SWAP3 POP JUMPDEST POP DUP1 PUSH2 0x1373 DUP2 PUSH2 0x3C18 JUMP JUMPDEST SWAP2 POP POP PUSH2 0x1293 JUMP JUMPDEST POP PUSH1 0x1 SLOAD PUSH1 0x0 SWAP1 DUP2 SWAP1 PUSH2 0x100 SWAP1 DIV PUSH1 0xFF AND ISZERO DUP1 ISZERO SWAP1 PUSH2 0x139E JUMPI POP PUSH1 0x8 SLOAD PUSH1 0x9 SLOAD LT ISZERO JUMPDEST ISZERO PUSH2 0x1BAA JUMPI PUSH1 0x8 SLOAD PUSH1 0x9 PUSH1 0x0 DUP3 DUP3 SLOAD PUSH2 0x13B7 SWAP2 SWAP1 PUSH2 0x3C33 JUMP JUMPDEST SWAP1 SWAP2 SSTORE POP POP PUSH1 0x8 SLOAD DUP5 ISZERO PUSH2 0x13D2 JUMPI PUSH2 0x13CF DUP6 DUP3 PUSH2 0x3BEA JUMP JUMPDEST SWAP1 POP JUMPDEST PUSH1 0x0 JUMPDEST PUSH1 0xD SLOAD DUP2 LT ISZERO PUSH2 0x1532 JUMPI PUSH1 0x0 PUSH1 0x10 PUSH1 0x0 PUSH1 0xD DUP5 DUP2 SLOAD DUP2 LT PUSH2 0x13F8 JUMPI PUSH2 0x13F8 PUSH2 0x3C02 JUMP JUMPDEST PUSH1 0x0 SWAP2 DUP3 MSTORE PUSH1 0x20 DUP1 DUP4 KECCAK256 SWAP1 SWAP2 ADD SLOAD PUSH1 0x1 PUSH1 0x1 PUSH1 0xA0 SHL SUB AND DUP4 MSTORE DUP3 ADD SWAP3 SWAP1 SWAP3 MSTORE PUSH1 0x40 ADD SWAP1 KECCAK256 PUSH1 0x3 DUP2 ADD SLOAD SWAP1 SWAP2 POP PUSH1 0xFF PUSH1 0x1 PUSH1 0xB8 SHL SWAP1 SWAP2 DIV AND DUP1 ISZERO PUSH2 0x1446 JUMPI POP PUSH1 0x3 DUP2 ADD SLOAD PUSH1 0x1 PUSH1 0xC0 SHL SWAP1 DIV PUSH1 0xFF AND JUMPDEST DUP1 ISZERO PUSH2 0x145E JUMPI POP PUSH1 0x3 DUP2 ADD SLOAD PUSH1 0x1 PUSH1 0xB0 SHL SWAP1 DIV PUSH1 0xFF AND ISZERO JUMPDEST ISZERO PUSH2 0x151F JUMPI PUSH1 0x1 SLOAD PUSH1 0xFF AND PUSH1 0x0 SWAP1 DUP2 MSTORE PUSH1 0x15 PUSH1 0x20 SWAP1 DUP2 MSTORE PUSH1 0x40 DUP1 DUP4 KECCAK256 PUSH1 0x3 DUP6 ADD SLOAD PUSH1 0x1 PUSH1 0x1 PUSH1 0xA0 SHL SUB AND DUP5 MSTORE SWAP1 SWAP2 MSTORE DUP2 KECCAK256 SLOAD PUSH2 0x1499 SWAP1 PUSH2 0x34E5 JUMP JUMPDEST PUSH1 0x3 DUP4 ADD SLOAD PUSH2 0x14B2 SWAP2 SWAP1 PUSH1 0x1 PUSH1 0xA8 SHL SWAP1 DIV PUSH1 0xFF AND PUSH2 0x3CF4 JUMP JUMPDEST PUSH1 0x1 SLOAD PUSH1 0xFF AND PUSH1 0x0 SWAP1 DUP2 MSTORE PUSH1 0x15 PUSH1 0x20 SWAP1 DUP2 MSTORE PUSH1 0x40 DUP1 DUP4 KECCAK256 PUSH1 0x3 DUP8 ADD SLOAD PUSH1 0x1 PUSH1 0x1 PUSH1 0xA0 SHL SUB AND DUP5 MSTORE SWAP1 SWAP2 MSTORE DUP2 KECCAK256 SLOAD SWAP2 SWAP3 POP SGT PUSH2 0x14F5 JUMPI PUSH2 0x14F0 DUP2 PUSH2 0x3D13 JUMP JUMPDEST PUSH2 0x14F7 JUMP JUMPDEST DUP1 JUMPDEST DUP3 PUSH1 0x0 ADD PUSH1 0x0 DUP3 DUP3 SLOAD PUSH2 0x150A SWAP2 SWAP1 PUSH2 0x3D30 JUMP JUMPDEST SWAP1 SWAP2 SSTORE POP POP DUP2 SLOAD PUSH2 0x151B SWAP1 DUP8 PUSH2 0x3D30 JUMP JUMPDEST SWAP6 POP POP JUMPDEST POP DUP1 PUSH2 0x152A DUP2 PUSH2 0x3C18 JUMP JUMPDEST SWAP2 POP POP PUSH2 0x13D5 JUMP JUMPDEST POP PUSH1 0x0 JUMPDEST PUSH1 0xD SLOAD DUP2 LT ISZERO PUSH2 0x1767 JUMPI PUSH1 0x0 PUSH1 0x10 PUSH1 0x0 PUSH1 0xD DUP5 DUP2 SLOAD DUP2 LT PUSH2 0x1559 JUMPI PUSH2 0x1559 PUSH2 0x3C02 JUMP JUMPDEST PUSH1 0x0 SWAP2 DUP3 MSTORE PUSH1 0x20 DUP1 DUP4 KECCAK256 SWAP1 SWAP2 ADD SLOAD PUSH1 0x1 PUSH1 0x1 PUSH1 0xA0 SHL SUB AND DUP4 MSTORE DUP3 ADD SWAP3 SWAP1 SWAP3 MSTORE PUSH1 0x40 ADD SWAP1 KECCAK256 PUSH1 0x3 DUP2 ADD SLOAD SWAP1 SWAP2 POP PUSH1 0xFF PUSH1 0x1 PUSH1 0xB8 SHL SWAP1 SWAP2 DIV AND DUP1 ISZERO PUSH2 0x15A7 JUMPI POP PUSH1 0x3 DUP2 ADD SLOAD PUSH1 0x1 PUSH1 0xC0 SHL SWAP1 DIV PUSH1 0xFF AND JUMPDEST DUP1 ISZERO PUSH2 0x15BF JUMPI POP PUSH1 0x3 DUP2 ADD SLOAD PUSH1 0x1 PUSH1 0xB0 SHL SWAP1 DIV PUSH1 0xFF AND ISZERO JUMPDEST ISZERO PUSH2 0x1754 JUMPI PUSH1 0x0 DUP6 SGT ISZERO PUSH2 0x15D3 JUMPI DUP5 PUSH2 0x15D6 JUMP JUMPDEST PUSH1 0x1 JUMPDEST SWAP4 POP PUSH1 0x0 DUP5 PUSH2 0x15E8 DUP4 PUSH1 0x0 ADD SLOAD PUSH2 0x351F JUMP JUMPDEST PUSH2 0x15F2 SWAP1 DUP7 PUSH2 0x3CF4 JUMP JUMPDEST PUSH2 0x15FC SWAP2 SWAP1 PUSH2 0x3C6D JUMP JUMPDEST PUSH1 0x1 SLOAD PUSH1 0xFF AND PUSH1 0x0 SWAP1 DUP2 MSTORE PUSH1 0x15 PUSH1 0x20 SWAP1 DUP2 MSTORE PUSH1 0x40 DUP1 DUP4 KECCAK256 PUSH1 0x3 DUP8 ADD SLOAD PUSH1 0x1 PUSH1 0x1 PUSH1 0xA0 SHL SUB AND DUP5 MSTORE SWAP1 SWAP2 MSTORE DUP2 KECCAK256 SLOAD SWAP2 SWAP3 POP SGT DUP1 ISZERO PUSH2 0x1654 JUMPI POP PUSH1 0x1 SLOAD PUSH2 0x164C SWAP1 PUSH5 0x100000000 SWAP1 DIV PUSH1 0xFF AND DUP3 PUSH2 0x3CF4 JUMP JUMPDEST DUP3 PUSH1 0x1 ADD SLOAD GT ISZERO JUMPDEST ISZERO PUSH2 0x1752 JUMPI PUSH1 0x1 DUP3 ADD SLOAD PUSH2 0x1668 SWAP1 DUP6 PUSH2 0x3BEA JUMP JUMPDEST PUSH1 0x3 DUP4 ADD SLOAD PUSH1 0x2 DUP5 ADD SLOAD PUSH1 0x1 DUP6 ADD SLOAD PUSH1 0x40 MLOAD SWAP4 SWAP8 POP PUSH32 0x6A461179A109AC5A4F65774B04343A475DD7D089FFA5A31552A4D71E0A1E7B4F SWAP4 PUSH2 0x16B7 SWAP4 PUSH1 0x1 PUSH1 0x1 PUSH1 0xA0 SHL SUB AND SWAP3 SWAP2 SWAP1 PUSH1 0x0 SWAP1 PUSH2 0x3CCE JUMP JUMPDEST PUSH1 0x40 MLOAD DUP1 SWAP2 SUB SWAP1 LOG1 PUSH1 0x1 SLOAD PUSH1 0xFF AND PUSH1 0x0 SWAP1 DUP2 MSTORE PUSH1 0x15 PUSH1 0x20 SWAP1 DUP2 MSTORE PUSH1 0x40 DUP1 DUP4 KECCAK256 PUSH1 0x3 DUP7 ADD SLOAD PUSH1 0x1 PUSH1 0x1 PUSH1 0xA0 SHL SUB AND DUP5 MSTORE SWAP1 SWAP2 MSTORE SWAP1 KECCAK256 SLOAD PUSH2 0x16F5 SWAP1 PUSH2 0x34E5 JUMP JUMPDEST PUSH1 0x3 DUP4 ADD SLOAD PUSH2 0x170E SWAP2 SWAP1 PUSH1 0x1 PUSH1 0xA8 SHL SWAP1 DIV PUSH1 0xFF AND PUSH2 0x3CF4 JUMP JUMPDEST PUSH2 0x1718 SWAP1 DUP8 PUSH2 0x3D30 JUMP JUMPDEST SWAP6 POP PUSH1 0x0 DUP3 PUSH1 0x1 ADD DUP2 SWAP1 SSTORE POP PUSH1 0x1 PUSH1 0x2 PUSH1 0x0 DUP3 DUP3 SLOAD PUSH2 0x1737 SWAP2 SWAP1 PUSH2 0x3C33 JUMP JUMPDEST SWAP1 SWAP2 SSTORE POP POP PUSH1 0x3 DUP3 ADD DUP1 SLOAD PUSH1 0xFF PUSH1 0xC8 SHL NOT AND PUSH1 0x1 PUSH1 0xC8 SHL OR SWAP1 SSTORE JUMPDEST POP JUMPDEST POP DUP1 PUSH2 0x175F DUP2 PUSH2 0x3C18 JUMP JUMPDEST SWAP2 POP POP PUSH2 0x1536 JUMP JUMPDEST POP PUSH1 0x0 DUP4 SGT ISZERO PUSH2 0x1777 JUMPI DUP3 PUSH2 0x177A JUMP JUMPDEST PUSH1 0x1 JUMPDEST SWAP2 POP PUSH1 0x0 DUP1 PUSH1 0x0 JUMPDEST PUSH1 0xD SLOAD DUP2 LT ISZERO PUSH2 0x191A JUMPI PUSH1 0x0 PUSH1 0x10 PUSH1 0x0 PUSH1 0xD DUP5 DUP2 SLOAD DUP2 LT PUSH2 0x17A5 JUMPI PUSH2 0x17A5 PUSH2 0x3C02 JUMP JUMPDEST PUSH1 0x0 SWAP2 DUP3 MSTORE PUSH1 0x20 DUP1 DUP4 KECCAK256 SWAP1 SWAP2 ADD SLOAD PUSH1 0x1 PUSH1 0x1 PUSH1 0xA0 SHL SUB AND DUP4 MSTORE DUP3 ADD SWAP3 SWAP1 SWAP3 MSTORE PUSH1 0x40 ADD SWAP1 KECCAK256 PUSH1 0x3 DUP2 ADD SLOAD SWAP1 SWAP2 POP PUSH1 0xFF PUSH1 0x1 PUSH1 0xB8 SHL SWAP1 SWAP2 DIV AND DUP1 ISZERO PUSH2 0x17F3 JUMPI POP PUSH1 0x3 DUP2 ADD SLOAD PUSH1 0x1 PUSH1 0xC0 SHL SWAP1 DIV PUSH1 0xFF AND JUMPDEST DUP1 ISZERO PUSH2 0x180B JUMPI POP PUSH1 0x3 DUP2 ADD SLOAD PUSH1 0x1 PUSH1 0xB0 SHL SWAP1 DIV PUSH1 0xFF AND ISZERO JUMPDEST DUP1 ISZERO PUSH2 0x1841 JUMPI POP PUSH1 0x1 SLOAD PUSH1 0xFF AND PUSH1 0x0 SWAP1 DUP2 MSTORE PUSH1 0x15 PUSH1 0x20 SWAP1 DUP2 MSTORE PUSH1 0x40 DUP1 DUP4 KECCAK256 PUSH1 0x3 DUP6 ADD SLOAD PUSH1 0x1 PUSH1 0x1 PUSH1 0xA0 SHL SUB AND DUP5 MSTORE SWAP1 SWAP2 MSTORE DUP2 KECCAK256 SLOAD SLT JUMPDEST ISZERO PUSH2 0x1907 JUMPI PUSH1 0x0 DUP7 PUSH2 0x1856 DUP4 PUSH1 0x0 ADD SLOAD PUSH2 0x351F JUMP JUMPDEST PUSH2 0x1860 SWAP1 DUP9 PUSH2 0x3CF4 JUMP JUMPDEST PUSH2 0x186A SWAP2 SWAP1 PUSH2 0x3C6D JUMP JUMPDEST PUSH1 0x1 SLOAD SWAP1 SWAP2 POP PUSH1 0x0 SWAP1 PUSH2 0x1888 SWAP1 PUSH5 0x100000000 SWAP1 DIV PUSH1 0xFF AND DUP4 PUSH2 0x3CF4 JUMP JUMPDEST SWAP1 POP DUP1 DUP4 PUSH1 0x1 ADD PUSH1 0x0 DUP3 DUP3 SLOAD PUSH2 0x189E SWAP2 SWAP1 PUSH2 0x3C33 JUMP JUMPDEST SWAP1 SWAP2 SSTORE POP PUSH2 0x18AE SWAP1 POP DUP2 DUP8 PUSH2 0x3BEA JUMP JUMPDEST PUSH1 0x3 DUP5 ADD SLOAD PUSH1 0x2 DUP6 ADD SLOAD PUSH1 0x1 DUP7 ADD SLOAD PUSH1 0x40 MLOAD SWAP4 SWAP10 POP PUSH32 0xF002DA1CC235DD7B3CD93CB91C128FE6E777FB632383DA5FF2603123883748B1 SWAP4 PUSH2 0x18FC SWAP4 PUSH1 0x1 PUSH1 0x1 PUSH1 0xA0 SHL SUB AND SWAP3 SWAP2 PUSH1 0x0 SWAP2 PUSH2 0x3CCE JUMP JUMPDEST PUSH1 0x40 MLOAD DUP1 SWAP2 SUB SWAP1 LOG1 POP POP JUMPDEST POP DUP1 PUSH2 0x1912 DUP2 PUSH2 0x3C18 JUMP JUMPDEST SWAP2 POP POP PUSH2 0x1782 JUMP JUMPDEST POP PUSH2 0x1925 DUP3 DUP5 PUSH2 0x3BEA JUMP JUMPDEST SWAP3 POP PUSH1 0x0 JUMPDEST PUSH1 0xD SLOAD DUP2 LT ISZERO PUSH2 0x1A10 JUMPI PUSH1 0x0 PUSH1 0x10 PUSH1 0x0 PUSH1 0xD DUP5 DUP2 SLOAD DUP2 LT PUSH2 0x194D JUMPI PUSH2 0x194D PUSH2 0x3C02 JUMP JUMPDEST PUSH1 0x0 SWAP2 DUP3 MSTORE PUSH1 0x20 DUP1 DUP4 KECCAK256 SWAP1 SWAP2 ADD SLOAD PUSH1 0x1 PUSH1 0x1 PUSH1 0xA0 SHL SUB AND DUP4 MSTORE DUP3 ADD SWAP3 SWAP1 SWAP3 MSTORE PUSH1 0x40 ADD SWAP1 KECCAK256 PUSH1 0x3 DUP2 ADD SLOAD SWAP1 SWAP2 POP PUSH1 0xFF PUSH1 0x1 PUSH1 0xB8 SHL SWAP1 SWAP2 DIV AND DUP1 ISZERO PUSH2 0x199B JUMPI POP PUSH1 0x3 DUP2 ADD SLOAD PUSH1 0x1 PUSH1 0xC0 SHL SWAP1 DIV PUSH1 0xFF AND JUMPDEST DUP1 ISZERO PUSH2 0x19B3 JUMPI POP PUSH1 0x3 DUP2 ADD SLOAD PUSH1 0x1 PUSH1 0xB0 SHL SWAP1 DIV PUSH1 0xFF AND ISZERO JUMPDEST DUP1 ISZERO PUSH2 0x19E9 JUMPI POP PUSH1 0x1 SLOAD PUSH1 0xFF AND PUSH1 0x0 SWAP1 DUP2 MSTORE PUSH1 0x15 PUSH1 0x20 SWAP1 DUP2 MSTORE PUSH1 0x40 DUP1 DUP4 KECCAK256 PUSH1 0x3 DUP6 ADD SLOAD PUSH1 0x1 PUSH1 0x1 PUSH1 0xA0 SHL SUB AND DUP5 MSTORE SWAP1 SWAP2 MSTORE DUP2 KECCAK256 SLOAD SGT JUMPDEST ISZERO PUSH2 0x19FD JUMPI DUP1 SLOAD PUSH2 0x19FA SWAP1 DUP5 PUSH2 0x3BEA JUMP JUMPDEST SWAP3 POP JUMPDEST POP DUP1 PUSH2 0x1A08 DUP2 PUSH2 0x3C18 JUMP JUMPDEST SWAP2 POP POP PUSH2 0x192A JUMP JUMPDEST POP DUP1 ISZERO PUSH2 0x1A1D JUMPI DUP1 PUSH2 0x1A20 JUMP JUMPDEST PUSH1 0x1 JUMPDEST SWAP1 POP PUSH1 0x0 JUMPDEST PUSH1 0xD SLOAD DUP2 LT ISZERO PUSH2 0x1BA5 JUMPI PUSH1 0x0 PUSH1 0x10 PUSH1 0x0 PUSH1 0xD DUP5 DUP2 SLOAD DUP2 LT PUSH2 0x1A48 JUMPI PUSH2 0x1A48 PUSH2 0x3C02 JUMP JUMPDEST PUSH1 0x0 SWAP2 DUP3 MSTORE PUSH1 0x20 DUP1 DUP4 KECCAK256 SWAP1 SWAP2 ADD SLOAD PUSH1 0x1 PUSH1 0x1 PUSH1 0xA0 SHL SUB AND DUP4 MSTORE DUP3 ADD SWAP3 SWAP1 SWAP3 MSTORE PUSH1 0x40 ADD SWAP1 KECCAK256 PUSH1 0x3 DUP2 ADD SLOAD SWAP1 SWAP2 POP PUSH1 0xFF PUSH1 0x1 PUSH1 0xB8 SHL SWAP1 SWAP2 DIV AND DUP1 ISZERO PUSH2 0x1A96 JUMPI POP PUSH1 0x3 DUP2 ADD SLOAD PUSH1 0x1 PUSH1 0xC0 SHL SWAP1 DIV PUSH1 0xFF AND JUMPDEST DUP1 ISZERO PUSH2 0x1AAE JUMPI POP PUSH1 0x3 DUP2 ADD SLOAD PUSH1 0x1 PUSH1 0xB0 SHL SWAP1 DIV PUSH1 0xFF AND ISZERO JUMPDEST DUP1 ISZERO PUSH2 0x1AE4 JUMPI POP PUSH1 0x1 SLOAD PUSH1 0xFF AND PUSH1 0x0 SWAP1 DUP2 MSTORE PUSH1 0x15 PUSH1 0x20 SWAP1 DUP2 MSTORE PUSH1 0x40 DUP1 DUP4 KECCAK256 PUSH1 0x3 DUP6 ADD SLOAD PUSH1 0x1 PUSH1 0x1 PUSH1 0xA0 SHL SUB AND DUP5 MSTORE SWAP1 SWAP2 MSTORE DUP2 KECCAK256 SLOAD SGT JUMPDEST ISZERO PUSH2 0x1B80 JUMPI PUSH1 0x0 DUP4 PUSH2 0x1AF9 DUP4 PUSH1 0x0 ADD SLOAD PUSH2 0x351F JUMP JUMPDEST PUSH2 0x1B03 SWAP1 DUP9 PUSH2 0x3CF4 JUMP JUMPDEST PUSH2 0x1B0D SWAP2 SWAP1 PUSH2 0x3C6D JUMP JUMPDEST SWAP1 POP DUP1 DUP3 PUSH1 0x1 ADD PUSH1 0x0 DUP3 DUP3 SLOAD PUSH2 0x1B23 SWAP2 SWAP1 PUSH2 0x3BEA JUMP JUMPDEST SWAP1 SWAP2 SSTORE POP POP PUSH1 0x3 DUP3 ADD SLOAD PUSH1 0x2 DUP4 ADD SLOAD PUSH1 0x1 DUP5 ADD SLOAD PUSH1 0x40 MLOAD PUSH32 0xF002DA1CC235DD7B3CD93CB91C128FE6E777FB632383DA5FF2603123883748B1 SWAP4 PUSH2 0x1B76 SWAP4 PUSH1 0x1 PUSH1 0x1 PUSH1 0xA0 SHL SUB SWAP1 SWAP2 AND SWAP3 SWAP1 SWAP2 DUP7 SWAP2 SWAP1 PUSH2 0x3CCE JUMP JUMPDEST PUSH1 0x40 MLOAD DUP1 SWAP2 SUB SWAP1 LOG1 POP JUMPDEST PUSH1 0x3 DUP2 ADD DUP1 SLOAD PUSH1 0xFF PUSH1 0xC0 SHL NOT AND SWAP1 SSTORE PUSH1 0x0 SWAP1 SSTORE DUP1 PUSH2 0x1B9D DUP2 PUSH2 0x3C18 JUMP JUMPDEST SWAP2 POP POP PUSH2 0x1A25 JUMP JUMPDEST POP POP POP POP JUMPDEST PUSH1 0x1 SLOAD PUSH1 0x40 DUP1 MLOAD PUSH1 0xFF DUP1 DUP5 AND DUP3 MSTORE PUSH2 0x100 SWAP1 SWAP4 DIV SWAP1 SWAP3 AND PUSH1 0x20 DUP4 ADD MSTORE DUP2 ADD DUP3 SWAP1 MSTORE PUSH1 0x60 DUP2 ADD DUP6 SWAP1 MSTORE PUSH32 0xFB9071657A7D7C77D4413E1C8487BB219C39DE920F3297977DD60BF0E00D33D SWAP1 PUSH1 0x80 ADD PUSH1 0x40 MLOAD DUP1 SWAP2 SUB SWAP1 LOG1 PUSH1 0x0 JUMPDEST PUSH1 0xD SLOAD DUP2 LT ISZERO PUSH2 0x1D53 JUMPI PUSH1 0x0 PUSH1 0x10 PUSH1 0x0 PUSH1 0xD DUP5 DUP2 SLOAD DUP2 LT PUSH2 0x1C25 JUMPI PUSH2 0x1C25 PUSH2 0x3C02 JUMP JUMPDEST PUSH1 0x0 SWAP2 DUP3 MSTORE PUSH1 0x20 DUP1 DUP4 KECCAK256 SWAP1 SWAP2 ADD SLOAD PUSH1 0x1 PUSH1 0x1 PUSH1 0xA0 SHL SUB AND DUP4 MSTORE DUP3 ADD SWAP3 SWAP1 SWAP3 MSTORE PUSH1 0x40 ADD SWAP1 KECCAK256 PUSH1 0x3 DUP2 ADD SLOAD SWAP1 SWAP2 POP PUSH1 0xFF PUSH1 0x1 PUSH1 0xB8 SHL SWAP1 SWAP2 DIV AND ISZERO PUSH2 0x1D40 JUMPI PUSH1 0x3 DUP2 ADD DUP1 SLOAD PUSH1 0xFF PUSH1 0xA8 SHL NOT AND DUP1 DUP3 SSTORE PUSH1 0x0 PUSH1 0x2 DUP5 ADD SSTORE PUSH1 0x1 SWAP2 SWAP1 PUSH1 0x14 SWAP1 PUSH2 0x1C94 SWAP1 DUP5 SWAP1 PUSH1 0x1 PUSH1 0xA0 SHL SWAP1 DIV PUSH1 0xFF AND PUSH2 0x3D71 JUMP JUMPDEST DUP3 SLOAD PUSH1 0xFF SWAP2 DUP3 AND PUSH2 0x100 SWAP4 SWAP1 SWAP4 EXP SWAP3 DUP4 MUL SWAP2 SWAP1 SWAP3 MUL NOT SWAP1 SWAP2 AND OR SWAP1 SSTORE POP PUSH1 0x3 DUP2 ADD DUP1 SLOAD PUSH1 0xFF PUSH1 0xB0 SHL NOT AND SWAP1 SSTORE PUSH1 0x0 JUMPDEST PUSH1 0xD SLOAD DUP2 LT ISZERO PUSH2 0x1D3E JUMPI PUSH1 0x3 DUP3 ADD SLOAD PUSH1 0x1 PUSH1 0x1 PUSH1 0xA0 SHL SUB AND PUSH1 0x0 SWAP1 DUP2 MSTORE PUSH1 0x11 PUSH1 0x20 MSTORE PUSH1 0x40 DUP2 KECCAK256 PUSH1 0xD DUP1 SLOAD SWAP2 SWAP3 SWAP2 DUP5 SWAP1 DUP2 LT PUSH2 0x1D00 JUMPI PUSH2 0x1D00 PUSH2 0x3C02 JUMP JUMPDEST PUSH1 0x0 SWAP2 DUP3 MSTORE PUSH1 0x20 DUP1 DUP4 KECCAK256 SWAP1 SWAP2 ADD SLOAD PUSH1 0x1 PUSH1 0x1 PUSH1 0xA0 SHL SUB AND DUP4 MSTORE DUP3 ADD SWAP3 SWAP1 SWAP3 MSTORE PUSH1 0x40 ADD SWAP1 KECCAK256 DUP1 SLOAD PUSH1 0xFF NOT AND SWAP1 SSTORE DUP1 PUSH2 0x1D36 DUP2 PUSH2 0x3C18 JUMP JUMPDEST SWAP2 POP POP PUSH2 0x1CC3 JUMP JUMPDEST POP JUMPDEST POP DUP1 PUSH2 0x1D4B DUP2 PUSH2 0x3C18 JUMP JUMPDEST SWAP2 POP POP PUSH2 0x1C02 JUMP JUMPDEST POP PUSH1 0x1 DUP1 SLOAD DUP2 SWAP1 PUSH1 0x0 SWAP1 PUSH2 0x1D6B SWAP1 DUP4 SWAP1 PUSH1 0xFF AND PUSH2 0x3D71 JUMP JUMPDEST DUP3 SLOAD PUSH1 0xFF SWAP2 DUP3 AND PUSH2 0x100 SWAP4 SWAP1 SWAP4 EXP SWAP3 DUP4 MUL SWAP2 SWAP1 SWAP3 MUL NOT SWAP1 SWAP2 AND OR SWAP1 SSTORE POP POP PUSH1 0x1 DUP1 SLOAD PUSH2 0xFF00 NOT AND SWAP1 SSTORE POP POP PUSH1 0x0 PUSH1 0x3 SSTORE POP JUMP JUMPDEST CALLER PUSH1 0x0 SWAP1 DUP2 MSTORE PUSH1 0x10 PUSH1 0x20 MSTORE PUSH1 0x40 SWAP1 KECCAK256 PUSH1 0x3 ADD SLOAD PUSH1 0x1 PUSH1 0xB8 SHL SWAP1 DIV PUSH1 0xFF AND ISZERO PUSH2 0x1DEE JUMPI PUSH1 0x40 MLOAD PUSH3 0x461BCD PUSH1 0xE5 SHL DUP2 MSTORE PUSH1 0x20 PUSH1 0x4 DUP3 ADD MSTORE PUSH1 0x3 PUSH1 0x24 DUP3 ADD MSTORE PUSH3 0x29A0A9 PUSH1 0xE9 SHL PUSH1 0x44 DUP3 ADD MSTORE PUSH1 0x64 ADD PUSH2 0xAC4 JUMP JUMPDEST PUSH1 0x5 SLOAD CALLVALUE LT ISZERO DUP1 ISZERO PUSH2 0x1E02 JUMPI POP PUSH1 0x6 SLOAD CALLVALUE GT ISZERO JUMPDEST PUSH2 0x1E34 JUMPI PUSH1 0x40 MLOAD PUSH3 0x461BCD PUSH1 0xE5 SHL DUP2 MSTORE PUSH1 0x20 PUSH1 0x4 DUP3 ADD MSTORE PUSH1 0x3 PUSH1 0x24 DUP3 ADD MSTORE PUSH3 0x272BA9 PUSH1 0xE9 SHL PUSH1 0x44 DUP3 ADD MSTORE PUSH1 0x64 ADD PUSH2 0xAC4 JUMP JUMPDEST PUSH2 0x1E3D CALLER PUSH2 0x3533 JUMP JUMPDEST JUMP JUMPDEST PUSH1 0xD DUP2 DUP2 SLOAD DUP2 LT PUSH2 0x1E4F JUMPI PUSH1 0x0 DUP1 REVERT JUMPDEST PUSH1 0x0 SWAP2 DUP3 MSTORE PUSH1 0x20 SWAP1 SWAP2 KECCAK256 ADD SLOAD PUSH1 0x1 PUSH1 0x1 PUSH1 0xA0 SHL SUB AND SWAP1 POP DUP2 JUMP JUMPDEST CALLER PUSH1 0x0 SWAP1 DUP2 MSTORE PUSH1 0x10 PUSH1 0x20 MSTORE PUSH1 0x40 SWAP1 KECCAK256 PUSH1 0x3 ADD SLOAD PUSH1 0x1 PUSH1 0xB8 SHL SWAP1 DIV PUSH1 0xFF AND PUSH2 0x1EA2 JUMPI PUSH1 0x40 MLOAD PUSH3 0x461BCD PUSH1 0xE5 SHL DUP2 MSTORE PUSH1 0x4 ADD PUSH2 0xAC4 SWAP1 PUSH2 0x3BB7 JUMP JUMPDEST DUP2 PUSH1 0x1 PUSH1 0x1 PUSH1 0xA0 SHL SUB DUP2 AND CALLER EQ ISZERO PUSH2 0x1EE2 JUMPI PUSH1 0x40 MLOAD PUSH3 0x461BCD PUSH1 0xE5 SHL DUP2 MSTORE PUSH1 0x20 PUSH1 0x4 DUP3 ADD MSTORE PUSH1 0x3 PUSH1 0x24 DUP3 ADD MSTORE PUSH3 0x14D155 PUSH1 0xEA SHL PUSH1 0x44 DUP3 ADD MSTORE PUSH1 0x64 ADD PUSH2 0xAC4 JUMP JUMPDEST CALLER PUSH1 0x0 SWAP1 DUP2 MSTORE PUSH1 0x11 PUSH1 0x20 SWAP1 DUP2 MSTORE PUSH1 0x40 DUP1 DUP4 KECCAK256 PUSH1 0x1 PUSH1 0x1 PUSH1 0xA0 SHL SUB DUP6 AND DUP5 MSTORE SWAP1 SWAP2 MSTORE SWAP1 KECCAK256 SLOAD PUSH1 0xFF AND ISZERO PUSH2 0x1F3C JUMPI PUSH1 0x40 MLOAD PUSH3 0x461BCD PUSH1 0xE5 SHL DUP2 MSTORE PUSH1 0x20 PUSH1 0x4 DUP3 ADD MSTORE PUSH1 0x3 PUSH1 0x24 DUP3 ADD MSTORE PUSH3 0x564143 PUSH1 0xE8 SHL PUSH1 0x44 DUP3 ADD MSTORE PUSH1 0x64 ADD PUSH2 0xAC4 JUMP JUMPDEST PUSH1 0x2 SLOAD PUSH1 0x3 SLOAD EQ DUP1 PUSH2 0x1F5D JUMPI POP TIMESTAMP PUSH3 0x15180 PUSH1 0xA SLOAD PUSH2 0x1F5B SWAP2 SWAP1 PUSH2 0x3BEA JUMP JUMPDEST LT JUMPDEST PUSH2 0x1F8F JUMPI PUSH1 0x40 MLOAD PUSH3 0x461BCD PUSH1 0xE5 SHL DUP2 MSTORE PUSH1 0x20 PUSH1 0x4 DUP3 ADD MSTORE PUSH1 0x3 PUSH1 0x24 DUP3 ADD MSTORE PUSH3 0x465243 PUSH1 0xE8 SHL PUSH1 0x44 DUP3 ADD MSTORE PUSH1 0x64 ADD PUSH2 0xAC4 JUMP JUMPDEST CALLER PUSH1 0x0 DUP2 DUP2 MSTORE PUSH1 0x11 PUSH1 0x20 SWAP1 DUP2 MSTORE PUSH1 0x40 DUP1 DUP4 KECCAK256 PUSH1 0x1 PUSH1 0x1 PUSH1 0xA0 SHL SUB DUP9 AND DUP5 MSTORE DUP3 MSTORE DUP1 DUP4 KECCAK256 DUP1 SLOAD PUSH1 0xFF NOT AND PUSH1 0x1 SWAP1 DUP2 OR SWAP1 SWAP2 SSTORE SWAP4 DUP4 MSTORE PUSH1 0x10 SWAP1 SWAP2 MSTORE SWAP1 KECCAK256 PUSH1 0x3 ADD DUP1 SLOAD PUSH1 0x15 SWAP1 PUSH2 0x1FE7 SWAP1 DUP5 SWAP1 PUSH1 0x1 PUSH1 0xA8 SHL SWAP1 DIV PUSH1 0xFF AND PUSH2 0x3D71 JUMP JUMPDEST SWAP3 POP PUSH2 0x100 EXP DUP2 SLOAD DUP2 PUSH1 0xFF MUL NOT AND SWAP1 DUP4 PUSH1 0xFF AND MUL OR SWAP1 SSTORE POP PUSH1 0x1 DUP1 PUSH1 0x1 DUP3 DUP3 DUP3 SWAP1 SLOAD SWAP1 PUSH2 0x100 EXP SWAP1 DIV PUSH1 0xFF AND PUSH2 0x201D SWAP2 SWAP1 PUSH2 0x3D71 JUMP JUMPDEST SWAP3 POP PUSH2 0x100 EXP DUP2 SLOAD DUP2 PUSH1 0xFF MUL NOT AND SWAP1 DUP4 PUSH1 0xFF AND MUL OR SWAP1 SSTORE POP DUP2 PUSH1 0x1 EQ ISZERO PUSH2 0x20B6 JUMPI CALLER PUSH1 0x0 DUP2 DUP2 MSTORE PUSH1 0x12 PUSH1 0x20 SWAP1 DUP2 MSTORE PUSH1 0x40 DUP1 DUP4 KECCAK256 PUSH1 0x1 PUSH1 0x1 PUSH1 0xA0 SHL SUB DUP9 AND DUP5 MSTORE DUP3 MSTORE DUP1 DUP4 KECCAK256 DUP1 SLOAD PUSH1 0xFF NOT AND PUSH1 0x1 SWAP1 DUP2 OR SWAP1 SWAP2 SSTORE SWAP4 DUP4 MSTORE PUSH1 0x10 SWAP1 SWAP2 MSTORE SWAP1 KECCAK256 DUP2 ADD SLOAD PUSH2 0x2085 SWAP2 PUSH2 0x3D96 JUMP JUMPDEST PUSH1 0x1 PUSH1 0x1 PUSH1 0xA0 SHL SUB DUP5 AND PUSH1 0x0 SWAP1 DUP2 MSTORE PUSH1 0x10 PUSH1 0x20 MSTORE PUSH1 0x40 DUP2 KECCAK256 PUSH1 0x2 ADD DUP1 SLOAD SWAP1 SWAP2 SWAP1 PUSH2 0x20B0 SWAP1 DUP5 SWAP1 PUSH2 0x3D30 JUMP JUMPDEST SWAP1 SWAP2 SSTORE POP POP JUMPDEST DUP2 PUSH1 0x0 NOT EQ ISZERO PUSH2 0x2133 JUMPI CALLER PUSH1 0x0 DUP2 DUP2 MSTORE PUSH1 0x12 PUSH1 0x20 SWAP1 DUP2 MSTORE PUSH1 0x40 DUP1 DUP4 KECCAK256 PUSH1 0x1 PUSH1 0x1 PUSH1 0xA0 SHL SUB DUP9 AND DUP5 MSTORE DUP3 MSTORE DUP1 DUP4 KECCAK256 DUP1 SLOAD PUSH1 0xFF NOT AND SWAP1 SSTORE SWAP3 DUP3 MSTORE PUSH1 0x10 SWAP1 MSTORE KECCAK256 PUSH1 0x1 SWAP1 DUP2 ADD SLOAD PUSH2 0x2102 SWAP2 PUSH2 0x3D96 JUMP JUMPDEST PUSH1 0x1 PUSH1 0x1 PUSH1 0xA0 SHL SUB DUP5 AND PUSH1 0x0 SWAP1 DUP2 MSTORE PUSH1 0x10 PUSH1 0x20 MSTORE PUSH1 0x40 DUP2 KECCAK256 PUSH1 0x2 ADD DUP1 SLOAD SWAP1 SWAP2 SWAP1 PUSH2 0x212D SWAP1 DUP5 SWAP1 PUSH2 0x3C8F JUMP JUMPDEST SWAP1 SWAP2 SSTORE POP POP JUMPDEST DUP2 PUSH2 0x2164 JUMPI CALLER PUSH1 0x0 SWAP1 DUP2 MSTORE PUSH1 0x12 PUSH1 0x20 SWAP1 DUP2 MSTORE PUSH1 0x40 DUP1 DUP4 KECCAK256 PUSH1 0x1 PUSH1 0x1 PUSH1 0xA0 SHL SUB DUP8 AND DUP5 MSTORE SWAP1 SWAP2 MSTORE SWAP1 KECCAK256 DUP1 SLOAD PUSH1 0xFF NOT AND SWAP1 SSTORE JUMPDEST CALLER PUSH1 0x0 DUP2 DUP2 MSTORE PUSH1 0x10 PUSH1 0x20 SWAP1 DUP2 MSTORE PUSH1 0x40 DUP1 DUP4 KECCAK256 PUSH1 0x1 ADD SLOAD PUSH1 0x1 PUSH1 0x1 PUSH1 0xA0 SHL SUB DUP9 AND DUP1 DUP6 MSTORE SWAP4 DUP3 SWAP1 KECCAK256 PUSH1 0x2 ADD SLOAD DUP3 MLOAD SWAP5 DUP6 MSTORE SWAP3 DUP5 ADD SWAP5 SWAP1 SWAP5 MSTORE DUP3 DUP2 ADD SWAP4 SWAP1 SWAP4 MSTORE PUSH1 0x60 DUP3 ADD MSTORE SWAP1 MLOAD PUSH32 0xD69FE95841F16237D39B30BBB2ED7633B307FB0ADDC4BB890B6A3A77E04F5F7F SWAP2 DUP2 SWAP1 SUB PUSH1 0x80 ADD SWAP1 LOG1 POP POP POP JUMP JUMPDEST CALLER PUSH1 0x0 SWAP1 DUP2 MSTORE PUSH1 0x10 PUSH1 0x20 MSTORE PUSH1 0x40 SWAP1 KECCAK256 PUSH1 0x3 ADD SLOAD PUSH1 0x1 PUSH1 0xB8 SHL SWAP1 DIV PUSH1 0xFF AND ISZERO PUSH2 0x2228 JUMPI PUSH1 0x40 MLOAD PUSH3 0x461BCD PUSH1 0xE5 SHL DUP2 MSTORE PUSH1 0x20 PUSH1 0x4 DUP3 ADD MSTORE PUSH1 0x3 PUSH1 0x24 DUP3 ADD MSTORE PUSH3 0x29A0A9 PUSH1 0xE9 SHL PUSH1 0x44 DUP3 ADD MSTORE PUSH1 0x64 ADD PUSH2 0xAC4 JUMP JUMPDEST PUSH1 0x5 SLOAD CALLVALUE LT ISZERO DUP1 ISZERO PUSH2 0x223C JUMPI POP PUSH1 0x6 SLOAD CALLVALUE GT ISZERO JUMPDEST PUSH2 0x226E JUMPI PUSH1 0x40 MLOAD PUSH3 0x461BCD PUSH1 0xE5 SHL DUP2 MSTORE PUSH1 0x20 PUSH1 0x4 DUP3 ADD MSTORE PUSH1 0x3 PUSH1 0x24 DUP3 ADD MSTORE PUSH3 0x272BA9 PUSH1 0xE9 SHL PUSH1 0x44 DUP3 ADD MSTORE PUSH1 0x64 ADD PUSH2 0xAC4 JUMP JUMPDEST PUSH2 0x2277 DUP2 PUSH2 0x3533 JUMP JUMPDEST POP JUMP JUMPDEST CALLER PUSH1 0x0 SWAP1 DUP2 MSTORE PUSH1 0x10 PUSH1 0x20 MSTORE PUSH1 0x40 SWAP1 KECCAK256 PUSH1 0x3 ADD SLOAD PUSH1 0x1 PUSH1 0xB8 SHL SWAP1 DIV PUSH1 0xFF AND PUSH2 0x22B3 JUMPI PUSH1 0x40 MLOAD PUSH3 0x461BCD PUSH1 0xE5 SHL DUP2 MSTORE PUSH1 0x4 ADD PUSH2 0xAC4 SWAP1 PUSH2 0x3BB7 JUMP JUMPDEST CALLER PUSH1 0x0 SWAP1 DUP2 MSTORE PUSH1 0x14 PUSH1 0x20 SWAP1 DUP2 MSTORE PUSH1 0x40 DUP1 DUP4 KECCAK256 PUSH1 0x1 SLOAD PUSH1 0xFF AND DUP5 MSTORE SWAP1 SWAP2 MSTORE SWAP1 KECCAK256 SLOAD ISZERO PUSH2 0x2306 JUMPI PUSH1 0x40 MLOAD PUSH3 0x461BCD PUSH1 0xE5 SHL DUP2 MSTORE PUSH1 0x20 PUSH1 0x4 DUP3 ADD MSTORE PUSH1 0x3 PUSH1 0x24 DUP3 ADD MSTORE PUSH3 0x53415 PUSH1 0xEC SHL PUSH1 0x44 DUP3 ADD MSTORE PUSH1 0x64 ADD PUSH2 0xAC4 JUMP JUMPDEST PUSH1 0x40 DUP1 MLOAD PUSH1 0x20 DUP2 ADD DUP5 SWAP1 MSTORE SWAP1 DUP2 ADD DUP3 SWAP1 MSTORE CALLER PUSH1 0x60 SWAP1 DUP2 SHL PUSH12 0xFFFFFFFFFFFFFFFFFFFFFFFF NOT AND SWAP1 DUP3 ADD MSTORE PUSH1 0x74 ADD PUSH1 0x40 DUP1 MLOAD PUSH1 0x1F NOT DUP2 DUP5 SUB ADD DUP2 MSTORE SWAP2 DUP2 MSTORE DUP2 MLOAD PUSH1 0x20 SWAP3 DUP4 ADD KECCAK256 CALLER PUSH1 0x0 SWAP1 DUP2 MSTORE PUSH1 0x13 DUP5 MSTORE DUP3 DUP2 KECCAK256 PUSH1 0x1 SLOAD PUSH1 0xFF AND DUP3 MSTORE SWAP1 SWAP4 MSTORE SWAP2 KECCAK256 SLOAD EQ PUSH2 0x2399 JUMPI PUSH1 0x40 MLOAD PUSH3 0x461BCD PUSH1 0xE5 SHL DUP2 MSTORE PUSH1 0x20 PUSH1 0x4 DUP3 ADD MSTORE PUSH1 0x3 PUSH1 0x24 DUP3 ADD MSTORE PUSH3 0x4E4B53 PUSH1 0xE8 SHL PUSH1 0x44 DUP3 ADD MSTORE PUSH1 0x64 ADD PUSH2 0xAC4 JUMP JUMPDEST CALLER PUSH1 0x0 SWAP1 DUP2 MSTORE PUSH1 0x14 PUSH1 0x20 SWAP1 DUP2 MSTORE PUSH1 0x40 DUP1 DUP4 KECCAK256 PUSH1 0x1 DUP1 SLOAD PUSH1 0xFF AND DUP6 MSTORE SWAP3 MSTORE DUP3 KECCAK256 DUP5 SWAP1 SSTORE PUSH1 0x3 DUP1 SLOAD SWAP2 SWAP3 SWAP1 SWAP2 PUSH2 0x23CE SWAP1 DUP5 SWAP1 PUSH2 0x3BEA JUMP JUMPDEST SWAP1 SWAP2 SSTORE POP POP POP POP JUMP JUMPDEST PUSH1 0x60 DUP1 PUSH1 0x0 DUP1 JUMPDEST PUSH1 0xD SLOAD DUP2 LT ISZERO PUSH2 0x244E JUMPI PUSH1 0x0 PUSH1 0x10 PUSH1 0x0 PUSH1 0xD DUP5 DUP2 SLOAD DUP2 LT PUSH2 0x2401 JUMPI PUSH2 0x2401 PUSH2 0x3C02 JUMP JUMPDEST PUSH1 0x0 SWAP2 DUP3 MSTORE PUSH1 0x20 DUP1 DUP4 KECCAK256 SWAP1 SWAP2 ADD SLOAD PUSH1 0x1 PUSH1 0x1 PUSH1 0xA0 SHL SUB AND DUP4 MSTORE DUP3 ADD SWAP3 SWAP1 SWAP3 MSTORE PUSH1 0x40 ADD SWAP1 KECCAK256 PUSH1 0x2 ADD SLOAD SLT PUSH2 0x243C JUMPI PUSH2 0x2439 PUSH1 0x1 DUP4 PUSH2 0x3D71 JUMP JUMPDEST SWAP2 POP JUMPDEST DUP1 PUSH2 0x2446 DUP2 PUSH2 0x3C18 JUMP JUMPDEST SWAP2 POP POP PUSH2 0x23DE JUMP JUMPDEST POP DUP1 PUSH1 0xFF AND PUSH8 0xFFFFFFFFFFFFFFFF DUP2 GT ISZERO PUSH2 0x246B JUMPI PUSH2 0x246B PUSH2 0x3E1B JUMP JUMPDEST PUSH1 0x40 MLOAD SWAP1 DUP1 DUP3 MSTORE DUP1 PUSH1 0x20 MUL PUSH1 0x20 ADD DUP3 ADD PUSH1 0x40 MSTORE DUP1 ISZERO PUSH2 0x2494 JUMPI DUP2 PUSH1 0x20 ADD PUSH1 0x20 DUP3 MUL DUP1 CALLDATASIZE DUP4 CALLDATACOPY ADD SWAP1 POP JUMPDEST POP SWAP3 POP DUP1 PUSH1 0xFF AND PUSH8 0xFFFFFFFFFFFFFFFF DUP2 GT ISZERO PUSH2 0x24B3 JUMPI PUSH2 0x24B3 PUSH2 0x3E1B JUMP JUMPDEST PUSH1 0x40 MLOAD SWAP1 DUP1 DUP3 MSTORE DUP1 PUSH1 0x20 MUL PUSH1 0x20 ADD DUP3 ADD PUSH1 0x40 MSTORE DUP1 ISZERO PUSH2 0x24DC JUMPI DUP2 PUSH1 0x20 ADD PUSH1 0x20 DUP3 MUL DUP1 CALLDATASIZE DUP4 CALLDATACOPY ADD SWAP1 POP JUMPDEST POP SWAP2 POP PUSH1 0x0 DUP1 JUMPDEST PUSH1 0xD SLOAD DUP2 LT ISZERO PUSH2 0x2645 JUMPI PUSH1 0x0 PUSH1 0x10 PUSH1 0x0 PUSH1 0xD DUP5 DUP2 SLOAD DUP2 LT PUSH2 0x2506 JUMPI PUSH2 0x2506 PUSH2 0x3C02 JUMP JUMPDEST PUSH1 0x0 SWAP2 DUP3 MSTORE PUSH1 0x20 DUP1 DUP4 KECCAK256 SWAP1 SWAP2 ADD SLOAD PUSH1 0x1 PUSH1 0x1 PUSH1 0xA0 SHL SUB AND DUP4 MSTORE DUP3 ADD SWAP3 SWAP1 SWAP3 MSTORE PUSH1 0x40 ADD SWAP1 KECCAK256 PUSH1 0x2 ADD SLOAD SLT PUSH2 0x2633 JUMPI PUSH1 0x1 SLOAD PUSH1 0xFF AND PUSH1 0x0 SWAP1 DUP2 MSTORE PUSH1 0x17 PUSH1 0x20 MSTORE PUSH1 0x40 DUP2 KECCAK256 PUSH1 0xD DUP1 SLOAD SWAP2 SWAP3 SWAP2 DUP5 SWAP1 DUP2 LT PUSH2 0x255E JUMPI PUSH2 0x255E PUSH2 0x3C02 JUMP JUMPDEST PUSH1 0x0 SWAP2 DUP3 MSTORE PUSH1 0x20 DUP1 DUP4 KECCAK256 SWAP1 SWAP2 ADD SLOAD PUSH1 0x1 PUSH1 0x1 PUSH1 0xA0 SHL SUB AND DUP4 MSTORE DUP3 ADD SWAP3 SWAP1 SWAP3 MSTORE PUSH1 0x40 ADD SWAP1 KECCAK256 SLOAD DUP6 MLOAD PUSH1 0xFF SWAP2 DUP3 AND SWAP2 DUP8 SWAP2 SWAP1 DUP6 AND SWAP1 DUP2 LT PUSH2 0x259F JUMPI PUSH2 0x259F PUSH2 0x3C02 JUMP JUMPDEST PUSH1 0xFF SWAP3 DUP4 AND PUSH1 0x20 SWAP2 DUP3 MUL SWAP3 SWAP1 SWAP3 ADD DUP2 ADD SWAP2 SWAP1 SWAP2 MSTORE PUSH1 0x1 SLOAD SWAP1 SWAP2 AND PUSH1 0x0 SWAP1 DUP2 MSTORE PUSH1 0x18 SWAP1 SWAP2 MSTORE PUSH1 0x40 DUP2 KECCAK256 PUSH1 0xD DUP1 SLOAD SWAP2 SWAP3 SWAP2 DUP5 SWAP1 DUP2 LT PUSH2 0x25DE JUMPI PUSH2 0x25DE PUSH2 0x3C02 JUMP JUMPDEST PUSH1 0x0 SWAP2 DUP3 MSTORE PUSH1 0x20 DUP1 DUP4 KECCAK256 SWAP1 SWAP2 ADD SLOAD PUSH1 0x1 PUSH1 0x1 PUSH1 0xA0 SHL SUB AND DUP4 MSTORE DUP3 ADD SWAP3 SWAP1 SWAP3 MSTORE PUSH1 0x40 ADD SWAP1 KECCAK256 SLOAD DUP5 MLOAD DUP6 SWAP1 PUSH1 0xFF DUP6 AND SWAP1 DUP2 LT PUSH2 0x261A JUMPI PUSH2 0x261A PUSH2 0x3C02 JUMP JUMPDEST PUSH1 0x20 SWAP1 DUP2 MUL SWAP2 SWAP1 SWAP2 ADD ADD MSTORE DUP2 PUSH2 0x262F DUP2 PUSH2 0x3E31 JUMP JUMPDEST SWAP3 POP POP JUMPDEST DUP1 PUSH2 0x263D DUP2 PUSH2 0x3C18 JUMP JUMPDEST SWAP2 POP POP PUSH2 0x24E3 JUMP JUMPDEST POP POP POP SWAP1 SWAP2 JUMP JUMPDEST PUSH1 0x60 DUP1 PUSH1 0x0 DUP1 DUP12 PUSH1 0x34 DUP13 DIV PUSH1 0x40 MLOAD SWAP6 POP PUSH1 0x20 DUP2 MUL PUSH1 0x20 ADD DUP7 ADD PUSH1 0x40 MSTORE DUP1 DUP7 MSTORE PUSH1 0x0 JUMPDEST DUP2 DUP2 LT ISZERO PUSH2 0x2696 JUMPI DUP3 CALLDATALOAD PUSH1 0x60 SHR PUSH1 0x20 DUP3 DUP2 MUL DUP10 ADD ADD DUP2 SWAP1 MSTORE SWAP5 POP PUSH1 0x14 SWAP1 SWAP3 ADD SWAP2 PUSH1 0x1 ADD PUSH2 0x266E JUMP JUMPDEST POP PUSH1 0x40 MLOAD SWAP5 POP PUSH1 0x20 DUP2 MUL PUSH1 0x20 ADD DUP6 ADD PUSH1 0x40 MSTORE DUP1 DUP6 MSTORE PUSH1 0x0 SWAP4 POP JUMPDEST DUP1 DUP5 LT ISZERO PUSH2 0x26D8 JUMPI DUP2 CALLDATALOAD SWAP3 POP DUP3 PUSH1 0x20 DUP6 MUL PUSH1 0x20 DUP8 ADD ADD MSTORE PUSH1 0x20 DUP3 ADD SWAP2 POP PUSH1 0x1 DUP5 ADD SWAP4 POP PUSH2 0x26B0 JUMP JUMPDEST POP POP DUP4 MLOAD DUP10 EQ SWAP2 POP PUSH2 0x272E SWAP1 POP JUMPI PUSH1 0x40 MLOAD PUSH3 0x461BCD PUSH1 0xE5 SHL DUP2 MSTORE PUSH1 0x20 PUSH1 0x4 DUP3 ADD DUP2 SWAP1 MSTORE PUSH1 0x24 DUP3 ADD MSTORE PUSH32 0x494E56414C49445F4C454E475448204F46204143435552414359204152524159 PUSH1 0x44 DUP3 ADD MSTORE PUSH1 0x64 ADD PUSH2 0xAC4 JUMP JUMPDEST DUP2 MLOAD DUP6 EQ PUSH2 0x277E JUMPI PUSH1 0x40 MLOAD PUSH3 0x461BCD PUSH1 0xE5 SHL DUP2 MSTORE PUSH1 0x20 PUSH1 0x4 DUP3 ADD MSTORE PUSH1 0x1C PUSH1 0x24 DUP3 ADD MSTORE PUSH32 0x494E56414C49445F4C454E475448204F46204C4F535320415252415900000000 PUSH1 0x44 DUP3 ADD MSTORE PUSH1 0x64 ADD PUSH2 0xAC4 JUMP JUMPDEST PUSH1 0x1 SLOAD PUSH1 0xFF AND PUSH1 0x0 SWAP1 DUP2 MSTORE PUSH1 0x19 PUSH1 0x20 SWAP1 DUP2 MSTORE PUSH1 0x40 DUP1 DUP4 KECCAK256 CALLER DUP5 MSTORE DUP3 MSTORE SWAP2 DUP3 SWAP1 KECCAK256 DUP3 MLOAD PUSH1 0x60 DUP2 ADD DUP5 MSTORE DUP6 DUP2 MSTORE DUP4 MLOAD DUP12 DUP5 MUL DUP2 DUP2 ADD DUP6 ADD SWAP1 SWAP6 MSTORE DUP12 DUP2 MSTORE SWAP2 SWAP4 SWAP1 SWAP3 DUP4 DUP2 ADD SWAP3 SWAP2 DUP14 SWAP2 DUP14 SWAP2 DUP3 SWAP2 DUP6 ADD SWAP1 DUP5 SWAP1 DUP1 DUP3 DUP5 CALLDATACOPY PUSH1 0x0 SWAP3 ADD SWAP2 SWAP1 SWAP2 MSTORE POP POP POP SWAP1 DUP3 MSTORE POP PUSH1 0x40 DUP1 MLOAD PUSH1 0x20 DUP11 DUP2 MUL DUP3 DUP2 ADD DUP3 ADD SWAP1 SWAP4 MSTORE DUP11 DUP3 MSTORE SWAP3 DUP4 ADD SWAP3 SWAP1 SWAP2 DUP12 SWAP2 DUP12 SWAP2 DUP3 SWAP2 DUP6 ADD SWAP1 DUP5 SWAP1 DUP1 DUP3 DUP5 CALLDATACOPY PUSH1 0x0 SWAP3 ADD DUP3 SWAP1 MSTORE POP SWAP4 SWAP1 SWAP5 MSTORE POP POP DUP4 SLOAD PUSH1 0x1 DUP2 ADD DUP6 SSTORE SWAP4 DUP2 MSTORE PUSH1 0x20 SWAP1 DUP2 SWAP1 KECCAK256 DUP4 MLOAD DUP1 MLOAD SWAP5 SWAP6 PUSH1 0x3 MUL SWAP1 SWAP2 ADD SWAP4 PUSH2 0x2846 SWAP4 POP DUP5 SWAP3 SWAP2 SWAP1 SWAP2 ADD SWAP1 PUSH2 0x364D JUMP JUMPDEST POP PUSH1 0x20 DUP3 DUP2 ADD MLOAD DUP1 MLOAD PUSH2 0x285F SWAP3 PUSH1 0x1 DUP6 ADD SWAP3 ADD SWAP1 PUSH2 0x36AE JUMP JUMPDEST POP PUSH1 0x40 DUP3 ADD MLOAD DUP1 MLOAD PUSH2 0x287B SWAP2 PUSH1 0x2 DUP5 ADD SWAP2 PUSH1 0x20 SWAP1 SWAP2 ADD SWAP1 PUSH2 0x374F JUMP JUMPDEST POP POP POP PUSH1 0x64 PUSH1 0xFF DUP6 AND GT ISZERO PUSH2 0x28E2 JUMPI PUSH1 0x40 MLOAD PUSH3 0x461BCD PUSH1 0xE5 SHL DUP2 MSTORE PUSH1 0x20 PUSH1 0x4 DUP3 ADD MSTORE PUSH1 0x27 PUSH1 0x24 DUP3 ADD MSTORE PUSH32 0x50524556494F5553204143435552414359204E4F54204245545745454E203020 PUSH1 0x44 DUP3 ADD MSTORE PUSH7 0x414E442031303 PUSH1 0xCC SHL PUSH1 0x64 DUP3 ADD MSTORE PUSH1 0x84 ADD PUSH2 0xAC4 JUMP JUMPDEST PUSH1 0x1 DUP1 SLOAD PUSH1 0xFF SWAP1 DUP2 AND PUSH1 0x0 SWAP1 DUP2 MSTORE PUSH1 0x17 PUSH1 0x20 SWAP1 DUP2 MSTORE PUSH1 0x40 DUP1 DUP4 KECCAK256 CALLER DUP1 DUP6 MSTORE SWAP1 DUP4 MSTORE DUP2 DUP5 KECCAK256 DUP1 SLOAD PUSH1 0xFF NOT AND DUP12 DUP8 AND OR SWAP1 SSTORE SWAP5 SLOAD SWAP1 SWAP4 AND DUP3 MSTORE PUSH1 0x18 DUP2 MSTORE DUP3 DUP3 KECCAK256 SWAP4 DUP3 MSTORE SWAP3 SWAP1 SWAP3 MSTORE DUP2 KECCAK256 DUP5 SWAP1 SSTORE JUMPDEST DUP3 MLOAD DUP2 LT ISZERO PUSH2 0x298E JUMPI PUSH1 0xF SLOAD PUSH1 0xFF AND PUSH2 0x297C JUMPI PUSH2 0x297C DUP4 DUP3 DUP2 MLOAD DUP2 LT PUSH2 0x2955 JUMPI PUSH2 0x2955 PUSH2 0x3C02 JUMP JUMPDEST PUSH1 0x20 MUL PUSH1 0x20 ADD ADD MLOAD DUP4 DUP4 DUP2 MLOAD DUP2 LT PUSH2 0x296F JUMPI PUSH2 0x296F PUSH2 0x3C02 JUMP JUMPDEST PUSH1 0x20 MUL PUSH1 0x20 ADD ADD MLOAD PUSH2 0x1E69 JUMP JUMPDEST DUP1 PUSH2 0x2986 DUP2 PUSH2 0x3C18 JUMP JUMPDEST SWAP2 POP POP PUSH2 0x292D JUMP JUMPDEST POP POP POP POP POP POP POP POP POP POP POP JUMP JUMPDEST PUSH1 0x60 DUP1 PUSH1 0x0 DUP1 DUP6 PUSH1 0x34 DUP7 DIV PUSH1 0x40 MLOAD SWAP6 POP PUSH1 0x20 DUP2 MUL PUSH1 0x20 ADD DUP7 ADD PUSH1 0x40 MSTORE DUP1 DUP7 MSTORE PUSH1 0x0 JUMPDEST DUP2 DUP2 LT ISZERO PUSH2 0x29E5 JUMPI DUP3 CALLDATALOAD PUSH1 0x60 SHR PUSH1 0x20 DUP3 DUP2 MUL DUP10 ADD ADD DUP2 SWAP1 MSTORE SWAP5 POP PUSH1 0x14 SWAP1 SWAP3 ADD SWAP2 PUSH1 0x1 ADD PUSH2 0x29BD JUMP JUMPDEST POP PUSH1 0x40 MLOAD SWAP5 POP PUSH1 0x20 DUP2 MUL PUSH1 0x20 ADD DUP6 ADD PUSH1 0x40 MSTORE DUP1 DUP6 MSTORE PUSH1 0x0 SWAP4 POP JUMPDEST DUP1 DUP5 LT ISZERO PUSH2 0x2A27 JUMPI DUP2 CALLDATALOAD SWAP3 POP DUP3 PUSH1 0x20 DUP6 MUL PUSH1 0x20 DUP8 ADD ADD MSTORE PUSH1 0x20 DUP3 ADD SWAP2 POP PUSH1 0x1 DUP5 ADD SWAP4 POP PUSH2 0x29FF JUMP JUMPDEST POP POP POP POP PUSH1 0x0 JUMPDEST DUP3 MLOAD DUP2 LT ISZERO PUSH2 0x2A68 JUMPI PUSH1 0xF SLOAD PUSH1 0xFF AND PUSH2 0x2A56 JUMPI PUSH2 0x2A56 DUP4 DUP3 DUP2 MLOAD DUP2 LT PUSH2 0x2955 JUMPI PUSH2 0x2955 PUSH2 0x3C02 JUMP JUMPDEST DUP1 PUSH2 0x2A60 DUP2 PUSH2 0x3C18 JUMP JUMPDEST SWAP2 POP POP PUSH2 0x2A2E JUMP JUMPDEST POP POP POP POP POP JUMP JUMPDEST PUSH1 0x0 DUP1 DUP1 JUMPDEST PUSH1 0xD SLOAD DUP2 LT ISZERO PUSH2 0x2AE5 JUMPI PUSH1 0x0 PUSH1 0x10 PUSH1 0x0 PUSH1 0xD DUP5 DUP2 SLOAD DUP2 LT PUSH2 0x2A97 JUMPI PUSH2 0x2A97 PUSH2 0x3C02 JUMP JUMPDEST PUSH1 0x0 SWAP2 DUP3 MSTORE PUSH1 0x20 DUP1 DUP4 KECCAK256 SWAP1 SWAP2 ADD SLOAD PUSH1 0x1 PUSH1 0x1 PUSH1 0xA0 SHL SUB AND DUP4 MSTORE DUP3 ADD SWAP3 SWAP1 SWAP3 MSTORE PUSH1 0x40 ADD SWAP1 KECCAK256 PUSH1 0x2 ADD SLOAD SLT ISZERO PUSH2 0x2AD3 JUMPI DUP2 PUSH2 0x2ACF DUP2 PUSH2 0x3C18 JUMP JUMPDEST SWAP3 POP POP JUMPDEST DUP1 PUSH2 0x2ADD DUP2 PUSH2 0x3C18 JUMP JUMPDEST SWAP2 POP POP PUSH2 0x2A74 JUMP JUMPDEST POP PUSH1 0x1 SLOAD PUSH1 0xFF AND PUSH1 0x0 SWAP1 DUP2 MSTORE PUSH1 0x16 PUSH1 0x20 MSTORE PUSH1 0x40 SWAP1 KECCAK256 SLOAD DUP2 GT ISZERO PUSH2 0x2B0A JUMPI PUSH1 0x0 SWAP2 POP POP SWAP1 JUMP JUMPDEST PUSH1 0x1 SWAP2 POP POP SWAP1 JUMP JUMPDEST PUSH1 0x0 PUSH1 0x2 SLOAD PUSH1 0x0 EQ ISZERO PUSH2 0x2B25 JUMPI POP PUSH1 0x0 SWAP1 JUMP JUMPDEST PUSH1 0xD SLOAD PUSH1 0x1 SWAP1 PUSH2 0x2B35 SWAP1 DUP1 PUSH2 0x3CF4 JUMP JUMPDEST PUSH2 0x2B3F SWAP2 SWAP1 PUSH2 0x3C33 JUMP JUMPDEST PUSH1 0x1 SLOAD PUSH2 0x100 SWAP1 DIV PUSH1 0xFF AND GT SWAP2 SWAP1 POP JUMP JUMPDEST PUSH1 0xD SLOAD DUP2 LT ISZERO PUSH2 0x2C08 JUMPI PUSH1 0x0 PUSH1 0x10 PUSH1 0x0 PUSH1 0xD DUP5 DUP2 SLOAD DUP2 LT PUSH2 0x2B73 JUMPI PUSH2 0x2B73 PUSH2 0x3C02 JUMP JUMPDEST PUSH1 0x0 SWAP2 DUP3 MSTORE PUSH1 0x20 DUP1 DUP4 KECCAK256 SWAP1 SWAP2 ADD SLOAD PUSH1 0x1 PUSH1 0x1 PUSH1 0xA0 SHL SUB AND DUP4 MSTORE DUP3 ADD SWAP3 SWAP1 SWAP3 MSTORE PUSH1 0x40 ADD SWAP1 KECCAK256 PUSH1 0x3 DUP2 ADD SLOAD SWAP1 SWAP2 POP PUSH1 0xFF PUSH1 0x1 PUSH1 0xB8 SHL SWAP1 SWAP2 DIV AND DUP1 ISZERO PUSH2 0x2BC2 JUMPI POP PUSH1 0x3 DUP2 ADD SLOAD PUSH1 0x1 PUSH1 0xC8 SHL SWAP1 DIV PUSH1 0xFF AND ISZERO JUMPDEST ISZERO PUSH2 0x2BF5 JUMPI PUSH1 0x1 PUSH1 0x2 SLOAD PUSH2 0x2BD6 SWAP2 SWAP1 PUSH2 0x3C33 JUMP JUMPDEST PUSH1 0x3 DUP3 ADD SLOAD PUSH1 0x1 PUSH1 0xA8 SHL SWAP1 DIV PUSH1 0xFF AND LT ISZERO PUSH2 0x2BF5 JUMPI PUSH1 0x0 SWAP4 POP POP POP POP SWAP1 JUMP JUMPDEST POP DUP1 PUSH2 0x2C00 DUP2 PUSH2 0x3C18 JUMP JUMPDEST SWAP2 POP POP PUSH2 0x2B50 JUMP JUMPDEST POP PUSH1 0x1 SWAP2 POP POP SWAP1 JUMP JUMPDEST PUSH2 0x2C1D PUSH1 0xD PUSH1 0x0 PUSH2 0x362F JUMP JUMPDEST PUSH2 0x2C2D PUSH1 0xA0 DUP3 ADD PUSH1 0x80 DUP4 ADD PUSH2 0x388E JUMP JUMPDEST PUSH1 0x1 DUP1 SLOAD PUSH1 0xFF NOT AND PUSH1 0xFF SWAP3 SWAP1 SWAP3 AND SWAP2 SWAP1 SWAP2 OR SWAP1 SSTORE PUSH1 0x0 PUSH2 0x2C4D DUP3 DUP1 PUSH2 0x3E51 JUMP JUMPDEST SWAP1 POP SWAP1 POP PUSH1 0x0 JUMPDEST DUP2 DUP2 LT ISZERO PUSH2 0x2DD0 JUMPI PUSH1 0x0 PUSH2 0x2C68 DUP5 DUP1 PUSH2 0x3E51 JUMP JUMPDEST DUP4 DUP2 DUP2 LT PUSH2 0x2C78 JUMPI PUSH2 0x2C78 PUSH2 0x3C02 JUMP JUMPDEST SWAP1 POP PUSH1 0x20 MUL ADD PUSH1 0x20 DUP2 ADD SWAP1 PUSH2 0x2C8D SWAP2 SWAP1 PUSH2 0x3842 JUMP JUMPDEST SWAP1 POP PUSH2 0x2DBD DUP2 PUSH2 0x2CA0 PUSH1 0x20 DUP8 ADD DUP8 PUSH2 0x3E51 JUMP JUMPDEST DUP6 DUP2 DUP2 LT PUSH2 0x2CB0 JUMPI PUSH2 0x2CB0 PUSH2 0x3C02 JUMP JUMPDEST SWAP1 POP PUSH1 0x20 MUL ADD CALLDATALOAD DUP7 DUP1 PUSH1 0x40 ADD SWAP1 PUSH2 0x2CC7 SWAP2 SWAP1 PUSH2 0x3E51 JUMP JUMPDEST DUP7 DUP2 DUP2 LT PUSH2 0x2CD7 JUMPI PUSH2 0x2CD7 PUSH2 0x3C02 JUMP JUMPDEST SWAP1 POP PUSH1 0x20 MUL ADD CALLDATALOAD DUP8 DUP1 PUSH1 0x60 ADD SWAP1 PUSH2 0x2CEE SWAP2 SWAP1 PUSH2 0x3E51 JUMP JUMPDEST DUP8 DUP2 DUP2 LT PUSH2 0x2CFE JUMPI PUSH2 0x2CFE PUSH2 0x3C02 JUMP JUMPDEST SWAP1 POP PUSH1 0x20 MUL ADD PUSH1 0x20 DUP2 ADD SWAP1 PUSH2 0x2D13 SWAP2 SWAP1 PUSH2 0x388E JUMP JUMPDEST PUSH1 0xD DUP1 SLOAD PUSH1 0x1 DUP2 DUP2 ADD SWAP1 SWAP3 SSTORE PUSH32 0xD7B6990105719101DABEB77144F2A3385C8033ACD3AF97E9423A695E81AD1EB5 ADD DUP1 SLOAD PUSH1 0x1 PUSH1 0x1 PUSH1 0xA0 SHL SUB SWAP1 SWAP7 AND PUSH1 0x1 PUSH1 0x1 PUSH1 0xA0 SHL SUB NOT SWAP1 SWAP7 AND DUP7 OR SWAP1 SSTORE PUSH1 0x0 DUP6 DUP2 MSTORE PUSH1 0x10 PUSH1 0x20 MSTORE PUSH1 0x40 DUP2 KECCAK256 PUSH1 0x3 DUP2 ADD DUP1 SLOAD SWAP4 DUP3 ADD SWAP7 SWAP1 SWAP7 SSTORE PUSH1 0x2 DUP2 ADD SWAP5 SWAP1 SWAP5 SSTORE SWAP1 SWAP3 SSTORE PUSH1 0x1 PUSH1 0x1 PUSH1 0xA8 SHL SUB NOT PUSH1 0xFF SWAP2 SWAP1 SWAP2 AND PUSH1 0x1 PUSH1 0xA8 SHL MUL PUSH4 0xFFFFFFFF PUSH1 0xA8 SHL NOT SWAP1 SWAP3 AND SWAP2 SWAP1 SWAP2 OR PUSH1 0x1 PUSH1 0xB8 SHL OR AND SWAP1 SWAP2 OR PUSH1 0x1 PUSH1 0xA0 SHL OR SWAP1 SSTORE JUMP JUMPDEST POP DUP1 PUSH2 0x2DC8 DUP2 PUSH2 0x3C18 JUMP JUMPDEST SWAP2 POP POP PUSH2 0x2C54 JUMP JUMPDEST POP PUSH1 0x1 DUP1 SLOAD PUSH2 0xFF00 NOT AND PUSH2 0x100 PUSH1 0xFF DUP5 AND MUL OR SWAP1 SSTORE PUSH1 0x2 SSTORE POP JUMP JUMPDEST PUSH1 0xE SLOAD PUSH1 0x0 SWAP1 ISZERO PUSH2 0x2DFE JUMPI POP PUSH1 0x1 SWAP2 SWAP1 POP JUMP JUMPDEST PUSH1 0x0 JUMPDEST PUSH1 0xE SLOAD DUP2 LT ISZERO PUSH2 0x2E5E JUMPI DUP3 PUSH1 0x1 PUSH1 0x1 PUSH1 0xA0 SHL SUB AND PUSH1 0xE DUP3 DUP2 SLOAD DUP2 LT PUSH2 0x2E28 JUMPI PUSH2 0x2E28 PUSH2 0x3C02 JUMP JUMPDEST PUSH1 0x0 SWAP2 DUP3 MSTORE PUSH1 0x20 SWAP1 SWAP2 KECCAK256 ADD SLOAD PUSH1 0x1 PUSH1 0x1 PUSH1 0xA0 SHL SUB AND EQ ISZERO PUSH2 0x2E4C JUMPI POP PUSH1 0x1 SWAP3 SWAP2 POP POP JUMP JUMPDEST DUP1 PUSH2 0x2E56 DUP2 PUSH2 0x3C18 JUMP JUMPDEST SWAP2 POP POP PUSH2 0x2E01 JUMP JUMPDEST POP PUSH1 0x0 SWAP3 SWAP2 POP POP JUMP JUMPDEST CALLER PUSH1 0x0 SWAP1 DUP2 MSTORE PUSH1 0x10 PUSH1 0x20 MSTORE PUSH1 0x40 SWAP1 KECCAK256 PUSH1 0x3 ADD SLOAD PUSH1 0x1 PUSH1 0xB8 SHL SWAP1 DIV PUSH1 0xFF AND PUSH2 0x2EC6 JUMPI PUSH1 0x40 MLOAD PUSH3 0x461BCD PUSH1 0xE5 SHL DUP2 MSTORE PUSH1 0x20 PUSH1 0x4 DUP3 ADD MSTORE PUSH1 0x13 PUSH1 0x24 DUP3 ADD MSTORE PUSH19 0x155CD95C881B9BDD081C9959DA5CDD195C9959 PUSH1 0x6A SHL PUSH1 0x44 DUP3 ADD MSTORE PUSH1 0x64 ADD PUSH2 0xAC4 JUMP JUMPDEST PUSH1 0x1 SLOAD PUSH1 0xFF AND PUSH1 0x0 SWAP1 DUP2 MSTORE PUSH1 0x15 PUSH1 0x20 SWAP1 DUP2 MSTORE PUSH1 0x40 DUP1 DUP4 KECCAK256 CALLER DUP5 MSTORE SWAP1 SWAP2 MSTORE SWAP1 KECCAK256 SLOAD ISZERO PUSH2 0x2F33 JUMPI PUSH1 0x40 MLOAD PUSH3 0x461BCD PUSH1 0xE5 SHL DUP2 MSTORE PUSH1 0x20 PUSH1 0x4 DUP3 ADD MSTORE PUSH1 0x17 PUSH1 0x24 DUP3 ADD MSTORE PUSH32 0x53636F726520616C7265616479207375626D6974746564000000000000000000 PUSH1 0x44 DUP3 ADD MSTORE PUSH1 0x64 ADD PUSH2 0xAC4 JUMP JUMPDEST PUSH1 0x1 DUP1 SLOAD PUSH1 0xFF SWAP1 DUP2 AND PUSH1 0x0 SWAP1 DUP2 MSTORE PUSH1 0x15 PUSH1 0x20 SWAP1 DUP2 MSTORE PUSH1 0x40 DUP1 DUP4 KECCAK256 CALLER DUP5 MSTORE DUP3 MSTORE DUP1 DUP4 KECCAK256 DUP7 SWAP1 SSTORE DUP5 SLOAD SWAP1 SWAP4 AND DUP3 MSTORE PUSH1 0x16 SWAP1 MSTORE SWAP1 DUP2 KECCAK256 DUP1 SLOAD SWAP1 SWAP2 SWAP1 PUSH2 0x2F76 SWAP1 DUP5 SWAP1 PUSH2 0x3BEA JUMP JUMPDEST SWAP1 SWAP2 SSTORE POP POP PUSH1 0x40 MLOAD DUP2 DUP2 MSTORE CALLER SWAP1 PUSH32 0x20E6C7C82A3C0A8203EFCA055FC9A664CA649345957DDC3BA34B2912E9ED8373 SWAP1 PUSH1 0x20 ADD PUSH1 0x40 MLOAD DUP1 SWAP2 SUB SWAP1 LOG2 POP JUMP JUMPDEST CALLER PUSH1 0x0 SWAP1 DUP2 MSTORE PUSH1 0x10 PUSH1 0x20 MSTORE PUSH1 0x40 SWAP1 KECCAK256 PUSH1 0x3 ADD SLOAD PUSH1 0x1 PUSH1 0xB8 SHL SWAP1 DIV PUSH1 0xFF AND PUSH2 0x2FEC JUMPI PUSH1 0x40 MLOAD PUSH3 0x461BCD PUSH1 0xE5 SHL DUP2 MSTORE PUSH1 0x4 ADD PUSH2 0xAC4 SWAP1 PUSH2 0x3BB7 JUMP JUMPDEST CALLER PUSH1 0x0 SWAP1 DUP2 MSTORE PUSH1 0x14 PUSH1 0x20 SWAP1 DUP2 MSTORE PUSH1 0x40 DUP1 DUP4 KECCAK256 PUSH1 0x1 SLOAD PUSH1 0xFF AND DUP5 MSTORE SWAP1 SWAP2 MSTORE SWAP1 KECCAK256 SLOAD ISZERO PUSH2 0x303F JUMPI PUSH1 0x40 MLOAD PUSH3 0x461BCD PUSH1 0xE5 SHL DUP2 MSTORE PUSH1 0x20 PUSH1 0x4 DUP3 ADD MSTORE PUSH1 0x3 PUSH1 0x24 DUP3 ADD MSTORE PUSH3 0x53415 PUSH1 0xEC SHL PUSH1 0x44 DUP3 ADD MSTORE PUSH1 0x64 ADD PUSH2 0xAC4 JUMP JUMPDEST CALLER PUSH1 0x0 SWAP1 DUP2 MSTORE PUSH1 0x13 PUSH1 0x20 SWAP1 DUP2 MSTORE PUSH1 0x40 DUP1 DUP4 KECCAK256 PUSH1 0x1 SLOAD PUSH1 0xFF AND DUP5 MSTORE SWAP1 SWAP2 MSTORE SWAP1 KECCAK256 SSTORE JUMP JUMPDEST PUSH1 0x60 DUP1 PUSH1 0x60 PUSH1 0x0 DUP1 JUMPDEST PUSH1 0xD SLOAD DUP2 LT ISZERO PUSH2 0x31C7 JUMPI PUSH1 0x0 PUSH1 0xD DUP3 DUP2 SLOAD DUP2 LT PUSH2 0x3089 JUMPI PUSH2 0x3089 PUSH2 0x3C02 JUMP JUMPDEST PUSH1 0x0 SWAP2 DUP3 MSTORE PUSH1 0x20 DUP1 DUP4 KECCAK256 SWAP1 SWAP2 ADD SLOAD PUSH1 0x1 SLOAD PUSH1 0xFF AND DUP4 MSTORE PUSH1 0x19 DUP3 MSTORE PUSH1 0x40 DUP1 DUP5 KECCAK256 PUSH1 0x1 PUSH1 0x1 PUSH1 0xA0 SHL SUB SWAP1 SWAP3 AND DUP1 DUP6 MSTORE SWAP2 SWAP1 SWAP3 MSTORE SWAP1 DUP3 KECCAK256 SLOAD SWAP1 SWAP3 POP SWAP1 JUMPDEST DUP2 DUP2 LT ISZERO PUSH2 0x31B1 JUMPI PUSH1 0x1 SLOAD PUSH1 0xFF AND PUSH1 0x0 SWAP1 DUP2 MSTORE PUSH1 0x19 PUSH1 0x20 SWAP1 DUP2 MSTORE PUSH1 0x40 DUP1 DUP4 KECCAK256 PUSH1 0x1 PUSH1 0x1 PUSH1 0xA0 SHL SUB DUP8 AND DUP5 MSTORE SWAP1 SWAP2 MSTORE DUP2 KECCAK256 DUP1 SLOAD DUP4 SWAP1 DUP2 LT PUSH2 0x3105 JUMPI PUSH2 0x3105 PUSH2 0x3C02 JUMP JUMPDEST SWAP1 PUSH1 0x0 MSTORE PUSH1 0x20 PUSH1 0x0 KECCAK256 SWAP1 PUSH1 0x3 MUL ADD SWAP1 POP PUSH1 0x0 JUMPDEST DUP2 SLOAD DUP2 LT ISZERO PUSH2 0x319C JUMPI DUP11 PUSH1 0x1 PUSH1 0x1 PUSH1 0xA0 SHL SUB AND DUP3 PUSH1 0x0 ADD DUP3 DUP2 SLOAD DUP2 LT PUSH2 0x3140 JUMPI PUSH2 0x3140 PUSH2 0x3C02 JUMP JUMPDEST PUSH1 0x0 SWAP2 DUP3 MSTORE PUSH1 0x20 SWAP1 SWAP2 KECCAK256 ADD SLOAD PUSH1 0x1 PUSH1 0x1 PUSH1 0xA0 SHL SUB AND EQ ISZERO PUSH2 0x318A JUMPI PUSH1 0x1 PUSH1 0x1 PUSH1 0xA0 SHL SUB DUP6 AND PUSH1 0x0 SWAP1 DUP2 MSTORE PUSH1 0x10 PUSH1 0x20 MSTORE PUSH1 0x40 DUP2 KECCAK256 PUSH1 0x2 ADD SLOAD SLT PUSH2 0x318A JUMPI DUP7 PUSH2 0x3186 DUP2 PUSH2 0x3C18 JUMP JUMPDEST SWAP8 POP POP JUMPDEST DUP1 PUSH2 0x3194 DUP2 PUSH2 0x3C18 JUMP JUMPDEST SWAP2 POP POP PUSH2 0x3118 JUMP JUMPDEST POP POP DUP1 DUP1 PUSH2 0x31A9 SWAP1 PUSH2 0x3C18 JUMP JUMPDEST SWAP2 POP POP PUSH2 0x30C3 JUMP JUMPDEST POP POP POP DUP1 DUP1 PUSH2 0x31BF SWAP1 PUSH2 0x3C18 JUMP JUMPDEST SWAP2 POP POP PUSH2 0x306A JUMP JUMPDEST POP DUP1 PUSH8 0xFFFFFFFFFFFFFFFF DUP2 GT ISZERO PUSH2 0x31E1 JUMPI PUSH2 0x31E1 PUSH2 0x3E1B JUMP JUMPDEST PUSH1 0x40 MLOAD SWAP1 DUP1 DUP3 MSTORE DUP1 PUSH1 0x20 MUL PUSH1 0x20 ADD DUP3 ADD PUSH1 0x40 MSTORE DUP1 ISZERO PUSH2 0x320A JUMPI DUP2 PUSH1 0x20 ADD PUSH1 0x20 DUP3 MUL DUP1 CALLDATASIZE DUP4 CALLDATACOPY ADD SWAP1 POP JUMPDEST POP SWAP4 POP DUP1 PUSH8 0xFFFFFFFFFFFFFFFF DUP2 GT ISZERO PUSH2 0x3226 JUMPI PUSH2 0x3226 PUSH2 0x3E1B JUMP JUMPDEST PUSH1 0x40 MLOAD SWAP1 DUP1 DUP3 MSTORE DUP1 PUSH1 0x20 MUL PUSH1 0x20 ADD DUP3 ADD PUSH1 0x40 MSTORE DUP1 ISZERO PUSH2 0x324F JUMPI DUP2 PUSH1 0x20 ADD PUSH1 0x20 DUP3 MUL DUP1 CALLDATASIZE DUP4 CALLDATACOPY ADD SWAP1 POP JUMPDEST POP SWAP3 POP DUP1 PUSH8 0xFFFFFFFFFFFFFFFF DUP2 GT ISZERO PUSH2 0x326B JUMPI PUSH2 0x326B PUSH2 0x3E1B JUMP JUMPDEST PUSH1 0x40 MLOAD SWAP1 DUP1 DUP3 MSTORE DUP1 PUSH1 0x20 MUL PUSH1 0x20 ADD DUP3 ADD PUSH1 0x40 MSTORE DUP1 ISZERO PUSH2 0x3294 JUMPI DUP2 PUSH1 0x20 ADD PUSH1 0x20 DUP3 MUL DUP1 CALLDATASIZE DUP4 CALLDATACOPY ADD SWAP1 POP JUMPDEST POP SWAP2 POP PUSH1 0x0 DUP1 JUMPDEST PUSH1 0xD SLOAD DUP2 LT ISZERO PUSH2 0x34DB JUMPI PUSH1 0x0 PUSH1 0x10 PUSH1 0x0 PUSH1 0xD DUP5 DUP2 SLOAD DUP2 LT PUSH2 0x32BE JUMPI PUSH2 0x32BE PUSH2 0x3C02 JUMP JUMPDEST PUSH1 0x0 SWAP2 DUP3 MSTORE PUSH1 0x20 DUP1 DUP4 KECCAK256 SWAP1 SWAP2 ADD SLOAD PUSH1 0x1 PUSH1 0x1 PUSH1 0xA0 SHL SUB SWAP1 DUP2 AND DUP5 MSTORE DUP4 DUP3 ADD SWAP5 SWAP1 SWAP5 MSTORE PUSH1 0x40 SWAP3 DUP4 ADD DUP3 KECCAK256 PUSH1 0x1 SLOAD PUSH1 0xFF AND DUP4 MSTORE PUSH1 0x19 DUP3 MSTORE DUP4 DUP4 KECCAK256 PUSH1 0x3 DUP3 ADD SLOAD SWAP1 SWAP6 AND DUP4 MSTORE SWAP4 SWAP1 MSTORE SWAP1 DUP2 KECCAK256 SLOAD SWAP2 SWAP3 POP JUMPDEST DUP2 DUP2 LT ISZERO PUSH2 0x34C5 JUMPI PUSH1 0x1 SLOAD PUSH1 0xFF AND PUSH1 0x0 SWAP1 DUP2 MSTORE PUSH1 0x19 PUSH1 0x20 SWAP1 DUP2 MSTORE PUSH1 0x40 DUP1 DUP4 KECCAK256 PUSH1 0x3 DUP8 ADD SLOAD PUSH1 0x1 PUSH1 0x1 PUSH1 0xA0 SHL SUB AND DUP5 MSTORE SWAP1 SWAP2 MSTORE DUP2 KECCAK256 DUP1 SLOAD DUP4 SWAP1 DUP2 LT PUSH2 0x3351 JUMPI PUSH2 0x3351 PUSH2 0x3C02 JUMP JUMPDEST SWAP1 PUSH1 0x0 MSTORE PUSH1 0x20 PUSH1 0x0 KECCAK256 SWAP1 PUSH1 0x3 MUL ADD SWAP1 POP PUSH1 0x0 JUMPDEST DUP2 SLOAD DUP2 LT ISZERO PUSH2 0x34B0 JUMPI DUP12 PUSH1 0x1 PUSH1 0x1 PUSH1 0xA0 SHL SUB AND DUP3 PUSH1 0x0 ADD DUP3 DUP2 SLOAD DUP2 LT PUSH2 0x338C JUMPI PUSH2 0x338C PUSH2 0x3C02 JUMP JUMPDEST PUSH1 0x0 SWAP2 DUP3 MSTORE PUSH1 0x20 SWAP1 SWAP2 KECCAK256 ADD SLOAD PUSH1 0x1 PUSH1 0x1 PUSH1 0xA0 SHL SUB AND EQ ISZERO PUSH2 0x349E JUMPI PUSH1 0x0 DUP6 PUSH1 0x2 ADD SLOAD SLT PUSH2 0x349E JUMPI PUSH1 0x3 DUP6 ADD SLOAD DUP12 MLOAD PUSH1 0x1 PUSH1 0x1 PUSH1 0xA0 SHL SUB SWAP1 SWAP2 AND SWAP1 DUP13 SWAP1 DUP10 SWAP1 DUP2 LT PUSH2 0x33D8 JUMPI PUSH2 0x33D8 PUSH2 0x3C02 JUMP JUMPDEST PUSH1 0x20 MUL PUSH1 0x20 ADD ADD SWAP1 PUSH1 0x1 PUSH1 0x1 PUSH1 0xA0 SHL SUB AND SWAP1 DUP2 PUSH1 0x1 PUSH1 0x1 PUSH1 0xA0 SHL SUB AND DUP2 MSTORE POP POP DUP2 PUSH1 0x1 ADD DUP2 DUP2 SLOAD DUP2 LT PUSH2 0x340D JUMPI PUSH2 0x340D PUSH2 0x3C02 JUMP JUMPDEST SWAP1 PUSH1 0x0 MSTORE PUSH1 0x20 PUSH1 0x0 KECCAK256 SWAP1 PUSH1 0x20 SWAP2 DUP3 DUP3 DIV ADD SWAP2 SWAP1 MOD SWAP1 SLOAD SWAP1 PUSH2 0x100 EXP SWAP1 DIV PUSH1 0xFF AND DUP11 DUP9 DUP2 MLOAD DUP2 LT PUSH2 0x343F JUMPI PUSH2 0x343F PUSH2 0x3C02 JUMP JUMPDEST PUSH1 0x20 MUL PUSH1 0x20 ADD ADD SWAP1 PUSH1 0xFF AND SWAP1 DUP2 PUSH1 0xFF AND DUP2 MSTORE POP POP DUP2 PUSH1 0x2 ADD DUP2 DUP2 SLOAD DUP2 LT PUSH2 0x3468 JUMPI PUSH2 0x3468 PUSH2 0x3C02 JUMP JUMPDEST SWAP1 PUSH1 0x0 MSTORE PUSH1 0x20 PUSH1 0x0 KECCAK256 ADD SLOAD DUP10 DUP9 DUP2 MLOAD DUP2 LT PUSH2 0x3485 JUMPI PUSH2 0x3485 PUSH2 0x3C02 JUMP JUMPDEST PUSH1 0x20 SWAP1 DUP2 MUL SWAP2 SWAP1 SWAP2 ADD ADD MSTORE DUP7 PUSH2 0x349A DUP2 PUSH2 0x3C18 JUMP JUMPDEST SWAP8 POP POP JUMPDEST DUP1 PUSH2 0x34A8 DUP2 PUSH2 0x3C18 JUMP JUMPDEST SWAP2 POP POP PUSH2 0x3364 JUMP JUMPDEST POP POP DUP1 DUP1 PUSH2 0x34BD SWAP1 PUSH2 0x3C18 JUMP JUMPDEST SWAP2 POP POP PUSH2 0x330B JUMP JUMPDEST POP POP POP DUP1 DUP1 PUSH2 0x34D3 SWAP1 PUSH2 0x3C18 JUMP JUMPDEST SWAP2 POP POP PUSH2 0x329B JUMP JUMPDEST POP POP POP SWAP2 SWAP4 SWAP1 SWAP3 POP JUMP JUMPDEST PUSH1 0x0 DUP1 DUP3 SLT PUSH2 0x34F2 JUMPI POP SWAP1 JUMP JUMPDEST PUSH1 0x1 PUSH1 0xFF SHL DUP3 EQ ISZERO PUSH2 0x3516 JUMPI PUSH2 0x3510 PUSH1 0x1 PUSH1 0x1 PUSH1 0xFF SHL SUB PUSH1 0x1 PUSH2 0x3BEA JUMP JUMPDEST SWAP3 SWAP2 POP POP JUMP JUMPDEST PUSH2 0x3510 DUP3 PUSH2 0x3D13 JUMP JUMPDEST PUSH1 0x0 DUP1 DUP3 SGT PUSH2 0x352F JUMPI PUSH1 0x0 PUSH2 0x3510 JUMP JUMPDEST POP SWAP1 JUMP JUMPDEST PUSH1 0x1 PUSH1 0x1 PUSH1 0xA0 SHL SUB DUP2 AND PUSH1 0x0 DUP2 DUP2 MSTORE PUSH1 0x10 PUSH1 0x20 MSTORE PUSH1 0x40 DUP2 KECCAK256 PUSH1 0x3 DUP2 ADD DUP1 SLOAD CALLVALUE PUSH1 0x1 DUP1 DUP6 ADD SWAP2 SWAP1 SWAP2 SSTORE PUSH6 0xFF00000000FF PUSH1 0xA0 SHL NOT PUSH1 0x1 PUSH4 0xFF000001 PUSH1 0xA0 SHL SUB NOT SWAP1 SWAP3 AND SWAP1 SWAP6 OR PUSH1 0x1 PUSH1 0xB8 SHL OR AND PUSH1 0x1 PUSH1 0xA0 SHL OR SWAP1 SSTORE PUSH1 0x2 DUP1 SLOAD SWAP2 SWAP4 SWAP3 SWAP1 SWAP2 PUSH2 0x359B SWAP1 DUP5 SWAP1 PUSH2 0x3BEA JUMP JUMPDEST SWAP1 SWAP2 SSTORE POP POP PUSH1 0xD DUP1 SLOAD PUSH1 0x1 DUP2 ADD DUP3 SSTORE PUSH1 0x0 SWAP2 SWAP1 SWAP2 MSTORE PUSH32 0xD7B6990105719101DABEB77144F2A3385C8033ACD3AF97E9423A695E81AD1EB5 ADD DUP1 SLOAD PUSH1 0x1 PUSH1 0x1 PUSH1 0xA0 SHL SUB NOT AND PUSH1 0x1 PUSH1 0x1 PUSH1 0xA0 SHL SUB DUP5 AND OR SWAP1 SSTORE PUSH1 0x2 SLOAD PUSH1 0x40 MLOAD PUSH32 0xABE5B1202D1F4ED2C1BACCF335320CEAE3ABD90670864B741E80A2EF5671D882 SWAP2 PUSH2 0x3623 SWAP2 DUP6 SWAP2 CALLVALUE SWAP2 SELFBALANCE SWAP2 SWAP1 PUSH2 0x3CCE JUMP JUMPDEST PUSH1 0x40 MLOAD DUP1 SWAP2 SUB SWAP1 LOG1 POP POP JUMP JUMPDEST POP DUP1 SLOAD PUSH1 0x0 DUP3 SSTORE SWAP1 PUSH1 0x0 MSTORE PUSH1 0x20 PUSH1 0x0 KECCAK256 SWAP1 DUP2 ADD SWAP1 PUSH2 0x2277 SWAP2 SWAP1 PUSH2 0x378A JUMP JUMPDEST DUP3 DUP1 SLOAD DUP3 DUP3 SSTORE SWAP1 PUSH1 0x0 MSTORE PUSH1 0x20 PUSH1 0x0 KECCAK256 SWAP1 DUP2 ADD SWAP3 DUP3 ISZERO PUSH2 0x36A2 JUMPI SWAP2 PUSH1 0x20 MUL DUP3 ADD JUMPDEST DUP3 DUP2 GT ISZERO PUSH2 0x36A2 JUMPI DUP3 MLOAD DUP3 SLOAD PUSH1 0x1 PUSH1 0x1 PUSH1 0xA0 SHL SUB NOT AND PUSH1 0x1 PUSH1 0x1 PUSH1 0xA0 SHL SUB SWAP1 SWAP2 AND OR DUP3 SSTORE PUSH1 0x20 SWAP1 SWAP3 ADD SWAP2 PUSH1 0x1 SWAP1 SWAP2 ADD SWAP1 PUSH2 0x366D JUMP JUMPDEST POP PUSH2 0x352F SWAP3 SWAP2 POP PUSH2 0x378A JUMP JUMPDEST DUP3 DUP1 SLOAD DUP3 DUP3 SSTORE SWAP1 PUSH1 0x0 MSTORE PUSH1 0x20 PUSH1 0x0 KECCAK256 SWAP1 PUSH1 0x1F ADD PUSH1 0x20 SWAP1 DIV DUP2 ADD SWAP3 DUP3 ISZERO PUSH2 0x36A2 JUMPI SWAP2 PUSH1 0x20 MUL DUP3 ADD PUSH1 0x0 JUMPDEST DUP4 DUP3 GT ISZERO PUSH2 0x3715 JUMPI DUP4 MLOAD DUP4 DUP3 PUSH2 0x100 EXP DUP2 SLOAD DUP2 PUSH1 0xFF MUL NOT AND SWAP1 DUP4 PUSH1 0xFF AND MUL OR SWAP1 SSTORE POP SWAP3 PUSH1 0x20 ADD SWAP3 PUSH1 0x1 ADD PUSH1 0x20 DUP2 PUSH1 0x0 ADD DIV SWAP3 DUP4 ADD SWAP3 PUSH1 0x1 SUB MUL PUSH2 0x36D7 JUMP JUMPDEST DUP1 ISZERO PUSH2 0x3742 JUMPI DUP3 DUP2 PUSH2 0x100 EXP DUP2 SLOAD SWAP1 PUSH1 0xFF MUL NOT AND SWAP1 SSTORE PUSH1 0x1 ADD PUSH1 0x20 DUP2 PUSH1 0x0 ADD DIV SWAP3 DUP4 ADD SWAP3 PUSH1 0x1 SUB MUL PUSH2 0x3715 JUMP JUMPDEST POP POP PUSH2 0x352F SWAP3 SWAP2 POP PUSH2 0x378A JUMP JUMPDEST DUP3 DUP1 SLOAD DUP3 DUP3 SSTORE SWAP1 PUSH1 0x0 MSTORE PUSH1 0x20 PUSH1 0x0 KECCAK256 SWAP1 DUP2 ADD SWAP3 DUP3 ISZERO PUSH2 0x36A2 JUMPI SWAP2 PUSH1 0x20 MUL DUP3 ADD JUMPDEST DUP3 DUP2 GT ISZERO PUSH2 0x36A2 JUMPI DUP3 MLOAD DUP3 SSTORE SWAP2 PUSH1 0x20 ADD SWAP2 SWAP1 PUSH1 0x1 ADD SWAP1 PUSH2 0x376F JUMP JUMPDEST JUMPDEST DUP1 DUP3 GT ISZERO PUSH2 0x352F JUMPI PUSH1 0x0 DUP2 SSTORE PUSH1 0x1 ADD PUSH2 0x378B JUMP JUMPDEST DUP1 CALLDATALOAD PUSH1 0x1 PUSH1 0x1 PUSH1 0xA0 SHL SUB DUP2 AND DUP2 EQ PUSH2 0x37B6 JUMPI PUSH1 0x0 DUP1 REVERT JUMPDEST SWAP2 SWAP1 POP JUMP JUMPDEST PUSH1 0x0 DUP1 PUSH1 0x40 DUP4 DUP6 SUB SLT ISZERO PUSH2 0x37CE JUMPI PUSH1 0x0 DUP1 REVERT JUMPDEST PUSH2 0x37D7 DUP4 PUSH2 0x379F JUMP JUMPDEST SWAP5 PUSH1 0x20 SWAP4 SWAP1 SWAP4 ADD CALLDATALOAD SWAP4 POP POP POP JUMP JUMPDEST DUP1 CALLDATALOAD PUSH1 0xFF DUP2 AND DUP2 EQ PUSH2 0x37B6 JUMPI PUSH1 0x0 DUP1 REVERT JUMPDEST PUSH1 0x0 DUP1 PUSH1 0x40 DUP4 DUP6 SUB SLT ISZERO PUSH2 0x3809 JUMPI PUSH1 0x0 DUP1 REVERT JUMPDEST PUSH2 0x3812 DUP4 PUSH2 0x379F JUMP JUMPDEST SWAP2 POP PUSH2 0x3820 PUSH1 0x20 DUP5 ADD PUSH2 0x37E5 JUMP JUMPDEST SWAP1 POP SWAP3 POP SWAP3 SWAP1 POP JUMP JUMPDEST PUSH1 0x0 PUSH1 0x20 DUP3 DUP5 SUB SLT ISZERO PUSH2 0x383B JUMPI PUSH1 0x0 DUP1 REVERT JUMPDEST POP CALLDATALOAD SWAP2 SWAP1 POP JUMP JUMPDEST PUSH1 0x0 PUSH1 0x20 DUP3 DUP5 SUB SLT ISZERO PUSH2 0x3854 JUMPI PUSH1 0x0 DUP1 REVERT JUMPDEST PUSH2 0x385D DUP3 PUSH2 0x379F JUMP JUMPDEST SWAP4 SWAP3 POP POP POP JUMP JUMPDEST PUSH1 0x0 DUP1 PUSH1 0x40 DUP4 DUP6 SUB SLT ISZERO PUSH2 0x3877 JUMPI PUSH1 0x0 DUP1 REVERT JUMPDEST PUSH2 0x3880 DUP4 PUSH2 0x379F JUMP JUMPDEST SWAP2 POP PUSH2 0x3820 PUSH1 0x20 DUP5 ADD PUSH2 0x379F JUMP JUMPDEST PUSH1 0x0 PUSH1 0x20 DUP3 DUP5 SUB SLT ISZERO PUSH2 0x38A0 JUMPI PUSH1 0x0 DUP1 REVERT JUMPDEST PUSH2 0x385D DUP3 PUSH2 0x37E5 JUMP JUMPDEST PUSH1 0x0 DUP1 PUSH1 0x40 DUP4 DUP6 SUB SLT ISZERO PUSH2 0x38BC JUMPI PUSH1 0x0 DUP1 REVERT JUMPDEST POP POP DUP1 CALLDATALOAD SWAP3 PUSH1 0x20 SWAP1 SWAP2 ADD CALLDATALOAD SWAP2 POP JUMP JUMPDEST PUSH1 0x0 DUP1 PUSH1 0x40 DUP4 DUP6 SUB SLT ISZERO PUSH2 0x38DE JUMPI PUSH1 0x0 DUP1 REVERT JUMPDEST PUSH2 0x3880 DUP4 PUSH2 0x37E5 JUMP JUMPDEST PUSH1 0x0 DUP2 MLOAD DUP1 DUP5 MSTORE PUSH1 0x20 DUP1 DUP6 ADD SWAP5 POP DUP1 DUP5 ADD PUSH1 0x0 JUMPDEST DUP4 DUP2 LT ISZERO PUSH2 0x391A JUMPI DUP2 MLOAD PUSH1 0xFF AND DUP8 MSTORE SWAP6 DUP3 ADD SWAP6 SWAP1 DUP3 ADD SWAP1 PUSH1 0x1 ADD PUSH2 0x38FB JUMP JUMPDEST POP SWAP5 SWAP6 SWAP5 POP POP POP POP POP JUMP JUMPDEST PUSH1 0x0 DUP2 MLOAD DUP1 DUP5 MSTORE PUSH1 0x20 DUP1 DUP6 ADD SWAP5 POP DUP1 DUP5 ADD PUSH1 0x0 JUMPDEST DUP4 DUP2 LT ISZERO PUSH2 0x391A JUMPI DUP2 MLOAD DUP8 MSTORE SWAP6 DUP3 ADD SWAP6 SWAP1 DUP3 ADD SWAP1 PUSH1 0x1 ADD PUSH2 0x3939 JUMP JUMPDEST PUSH1 0x40 DUP2 MSTORE PUSH1 0x0 PUSH2 0x3968 PUSH1 0x40 DUP4 ADD DUP6 PUSH2 0x38E7 JUMP JUMPDEST DUP3 DUP2 SUB PUSH1 0x20 DUP5 ADD MSTORE PUSH2 0x397A DUP2 DUP6 PUSH2 0x3925 JUMP JUMPDEST SWAP6 SWAP5 POP POP POP POP POP JUMP JUMPDEST PUSH1 0x0 DUP1 DUP4 PUSH1 0x1F DUP5 ADD SLT PUSH2 0x3995 JUMPI PUSH1 0x0 DUP1 REVERT JUMPDEST POP DUP2 CALLDATALOAD PUSH8 0xFFFFFFFFFFFFFFFF DUP2 GT ISZERO PUSH2 0x39AD JUMPI PUSH1 0x0 DUP1 REVERT JUMPDEST PUSH1 0x20 DUP4 ADD SWAP2 POP DUP4 PUSH1 0x20 DUP3 DUP6 ADD ADD GT ISZERO PUSH2 0x39C5 JUMPI PUSH1 0x0 DUP1 REVERT JUMPDEST SWAP3 POP SWAP3 SWAP1 POP JUMP JUMPDEST PUSH1 0x0 DUP1 DUP4 PUSH1 0x1F DUP5 ADD SLT PUSH2 0x39DE JUMPI PUSH1 0x0 DUP1 REVERT JUMPDEST POP DUP2 CALLDATALOAD PUSH8 0xFFFFFFFFFFFFFFFF DUP2 GT ISZERO PUSH2 0x39F6 JUMPI PUSH1 0x0 DUP1 REVERT JUMPDEST PUSH1 0x20 DUP4 ADD SWAP2 POP DUP4 PUSH1 0x20 DUP3 PUSH1 0x5 SHL DUP6 ADD ADD GT ISZERO PUSH2 0x39C5 JUMPI PUSH1 0x0 DUP1 REVERT JUMPDEST PUSH1 0x0 DUP1 PUSH1 0x0 DUP1 PUSH1 0x0 DUP1 PUSH1 0x0 DUP1 PUSH1 0xA0 DUP10 DUP12 SUB SLT ISZERO PUSH2 0x3A2D JUMPI PUSH1 0x0 DUP1 REVERT JUMPDEST DUP9 CALLDATALOAD PUSH8 0xFFFFFFFFFFFFFFFF DUP1 DUP3 GT ISZERO PUSH2 0x3A45 JUMPI PUSH1 0x0 DUP1 REVERT JUMPDEST PUSH2 0x3A51 DUP13 DUP4 DUP14 ADD PUSH2 0x3983 JUMP JUMPDEST SWAP1 SWAP11 POP SWAP9 POP PUSH1 0x20 DUP12 ADD CALLDATALOAD SWAP2 POP DUP1 DUP3 GT ISZERO PUSH2 0x3A6A JUMPI PUSH1 0x0 DUP1 REVERT JUMPDEST PUSH2 0x3A76 DUP13 DUP4 DUP14 ADD PUSH2 0x39CC JUMP JUMPDEST SWAP1 SWAP9 POP SWAP7 POP PUSH1 0x40 DUP12 ADD CALLDATALOAD SWAP2 POP DUP1 DUP3 GT ISZERO PUSH2 0x3A8F JUMPI PUSH1 0x0 DUP1 REVERT JUMPDEST POP PUSH2 0x3A9C DUP12 DUP3 DUP13 ADD PUSH2 0x39CC JUMP JUMPDEST SWAP1 SWAP6 POP SWAP4 POP PUSH2 0x3AAF SWAP1 POP PUSH1 0x60 DUP11 ADD PUSH2 0x37E5 JUMP JUMPDEST SWAP2 POP PUSH1 0x80 DUP10 ADD CALLDATALOAD SWAP1 POP SWAP3 SWAP6 SWAP9 POP SWAP3 SWAP6 SWAP9 SWAP1 SWAP4 SWAP7 POP JUMP JUMPDEST PUSH1 0x0 DUP1 PUSH1 0x20 DUP4 DUP6 SUB SLT ISZERO PUSH2 0x3AD8 JUMPI PUSH1 0x0 DUP1 REVERT JUMPDEST DUP3 CALLDATALOAD PUSH8 0xFFFFFFFFFFFFFFFF DUP2 GT ISZERO PUSH2 0x3AEF JUMPI PUSH1 0x0 DUP1 REVERT JUMPDEST PUSH2 0x3AFB DUP6 DUP3 DUP7 ADD PUSH2 0x3983 JUMP JUMPDEST SWAP1 SWAP7 SWAP1 SWAP6 POP SWAP4 POP POP POP POP JUMP JUMPDEST PUSH1 0x0 PUSH1 0x20 DUP3 DUP5 SUB SLT ISZERO PUSH2 0x3B19 JUMPI PUSH1 0x0 DUP1 REVERT JUMPDEST DUP2 CALLDATALOAD PUSH8 0xFFFFFFFFFFFFFFFF DUP2 GT ISZERO PUSH2 0x3B30 JUMPI PUSH1 0x0 DUP1 REVERT JUMPDEST DUP3 ADD PUSH1 0xA0 DUP2 DUP6 SUB SLT ISZERO PUSH2 0x385D JUMPI PUSH1 0x0 DUP1 REVERT JUMPDEST PUSH1 0x60 DUP1 DUP3 MSTORE DUP5 MLOAD SWAP1 DUP3 ADD DUP2 SWAP1 MSTORE PUSH1 0x0 SWAP1 PUSH1 0x20 SWAP1 PUSH1 0x80 DUP5 ADD SWAP1 DUP3 DUP9 ADD DUP5 JUMPDEST DUP3 DUP2 LT ISZERO PUSH2 0x3B84 JUMPI DUP2 MLOAD PUSH1 0x1 PUSH1 0x1 PUSH1 0xA0 SHL SUB AND DUP5 MSTORE SWAP3 DUP5 ADD SWAP3 SWAP1 DUP5 ADD SWAP1 PUSH1 0x1 ADD PUSH2 0x3B5F JUMP JUMPDEST POP POP POP DUP4 DUP2 SUB DUP3 DUP6 ADD MSTORE PUSH2 0x3B98 DUP2 DUP8 PUSH2 0x38E7 JUMP JUMPDEST SWAP2 POP POP DUP3 DUP2 SUB PUSH1 0x40 DUP5 ADD MSTORE PUSH2 0x3BAD DUP2 DUP6 PUSH2 0x3925 JUMP JUMPDEST SWAP7 SWAP6 POP POP POP POP POP POP JUMP JUMPDEST PUSH1 0x20 DUP1 DUP3 MSTORE PUSH1 0x3 SWAP1 DUP3 ADD MSTORE PUSH3 0x29A729 PUSH1 0xE9 SHL PUSH1 0x40 DUP3 ADD MSTORE PUSH1 0x60 ADD SWAP1 JUMP JUMPDEST PUSH4 0x4E487B71 PUSH1 0xE0 SHL PUSH1 0x0 MSTORE PUSH1 0x11 PUSH1 0x4 MSTORE PUSH1 0x24 PUSH1 0x0 REVERT JUMPDEST PUSH1 0x0 DUP3 NOT DUP3 GT ISZERO PUSH2 0x3BFD JUMPI PUSH2 0x3BFD PUSH2 0x3BD4 JUMP JUMPDEST POP ADD SWAP1 JUMP JUMPDEST PUSH4 0x4E487B71 PUSH1 0xE0 SHL PUSH1 0x0 MSTORE PUSH1 0x32 PUSH1 0x4 MSTORE PUSH1 0x24 PUSH1 0x0 REVERT JUMPDEST PUSH1 0x0 PUSH1 0x0 NOT DUP3 EQ ISZERO PUSH2 0x3C2C JUMPI PUSH2 0x3C2C PUSH2 0x3BD4 JUMP JUMPDEST POP PUSH1 0x1 ADD SWAP1 JUMP JUMPDEST PUSH1 0x0 DUP3 DUP3 LT ISZERO PUSH2 0x3C45 JUMPI PUSH2 0x3C45 PUSH2 0x3BD4 JUMP JUMPDEST POP SUB SWAP1 JUMP JUMPDEST PUSH1 0x0 PUSH1 0xFF DUP3 AND PUSH1 0xFF DUP5 AND DUP1 DUP3 LT ISZERO PUSH2 0x3C64 JUMPI PUSH2 0x3C64 PUSH2 0x3BD4 JUMP JUMPDEST SWAP1 SUB SWAP4 SWAP3 POP POP POP JUMP JUMPDEST PUSH1 0x0 DUP3 PUSH2 0x3C8A JUMPI PUSH4 0x4E487B71 PUSH1 0xE0 SHL PUSH1 0x0 MSTORE PUSH1 0x12 PUSH1 0x4 MSTORE PUSH1 0x24 PUSH1 0x0 REVERT JUMPDEST POP DIV SWAP1 JUMP JUMPDEST PUSH1 0x0 DUP1 DUP4 SLT DUP1 ISZERO PUSH1 0x1 PUSH1 0xFF SHL DUP6 ADD DUP5 SLT AND ISZERO PUSH2 0x3CAD JUMPI PUSH2 0x3CAD PUSH2 0x3BD4 JUMP JUMPDEST PUSH1 0x1 PUSH1 0x1 PUSH1 0xFF SHL SUB DUP5 ADD DUP4 SGT DUP2 AND ISZERO PUSH2 0x3CC8 JUMPI PUSH2 0x3CC8 PUSH2 0x3BD4 JUMP JUMPDEST POP POP SUB SWAP1 JUMP JUMPDEST PUSH1 0x1 PUSH1 0x1 PUSH1 0xA0 SHL SUB SWAP5 SWAP1 SWAP5 AND DUP5 MSTORE PUSH1 0x20 DUP5 ADD SWAP3 SWAP1 SWAP3 MSTORE PUSH1 0x40 DUP4 ADD MSTORE PUSH1 0x60 DUP3 ADD MSTORE PUSH1 0x80 ADD SWAP1 JUMP JUMPDEST PUSH1 0x0 DUP2 PUSH1 0x0 NOT DIV DUP4 GT DUP3 ISZERO ISZERO AND ISZERO PUSH2 0x3D0E JUMPI PUSH2 0x3D0E PUSH2 0x3BD4 JUMP JUMPDEST POP MUL SWAP1 JUMP JUMPDEST PUSH1 0x0 PUSH1 0x1 PUSH1 0xFF SHL DUP3 EQ ISZERO PUSH2 0x3D29 JUMPI PUSH2 0x3D29 PUSH2 0x3BD4 JUMP JUMPDEST POP PUSH1 0x0 SUB SWAP1 JUMP JUMPDEST PUSH1 0x0 DUP1 DUP3 SLT DUP1 ISZERO PUSH1 0x1 PUSH1 0x1 PUSH1 0xFF SHL SUB DUP5 SWAP1 SUB DUP6 SGT AND ISZERO PUSH2 0x3D52 JUMPI PUSH2 0x3D52 PUSH2 0x3BD4 JUMP JUMPDEST PUSH1 0x1 PUSH1 0xFF SHL DUP4 SWAP1 SUB DUP5 SLT DUP2 AND ISZERO PUSH2 0x3D6B JUMPI PUSH2 0x3D6B PUSH2 0x3BD4 JUMP JUMPDEST POP POP ADD SWAP1 JUMP JUMPDEST PUSH1 0x0 PUSH1 0xFF DUP3 AND PUSH1 0xFF DUP5 AND DUP1 PUSH1 0xFF SUB DUP3 GT ISZERO PUSH2 0x3D8E JUMPI PUSH2 0x3D8E PUSH2 0x3BD4 JUMP JUMPDEST ADD SWAP4 SWAP3 POP POP POP JUMP JUMPDEST PUSH1 0x0 PUSH1 0x1 PUSH1 0x1 PUSH1 0xFF SHL SUB DUP2 DUP5 SGT DUP3 DUP5 SGT DUP1 DUP3 AND DUP7 DUP5 DIV DUP7 GT AND ISZERO PUSH2 0x3DBC JUMPI PUSH2 0x3DBC PUSH2 0x3BD4 JUMP JUMPDEST PUSH1 0x1 PUSH1 0xFF SHL PUSH1 0x0 DUP8 SLT DUP3 DUP2 AND DUP8 DUP4 SDIV DUP10 SLT AND ISZERO PUSH2 0x3DDB JUMPI PUSH2 0x3DDB PUSH2 0x3BD4 JUMP JUMPDEST PUSH1 0x0 DUP8 SLT SWAP3 POP DUP8 DUP3 SDIV DUP8 SLT DUP5 DUP5 AND AND ISZERO PUSH2 0x3DF7 JUMPI PUSH2 0x3DF7 PUSH2 0x3BD4 JUMP JUMPDEST DUP8 DUP6 SDIV DUP8 SLT DUP2 DUP5 AND AND ISZERO PUSH2 0x3E0D JUMPI PUSH2 0x3E0D PUSH2 0x3BD4 JUMP JUMPDEST POP POP POP SWAP3 SWAP1 SWAP4 MUL SWAP4 SWAP3 POP POP POP JUMP JUMPDEST PUSH4 0x4E487B71 PUSH1 0xE0 SHL PUSH1 0x0 MSTORE PUSH1 0x41 PUSH1 0x4 MSTORE PUSH1 0x24 PUSH1 0x0 REVERT JUMPDEST PUSH1 0x0 PUSH1 0xFF DUP3 AND PUSH1 0xFF DUP2 EQ ISZERO PUSH2 0x3E48 JUMPI PUSH2 0x3E48 PUSH2 0x3BD4 JUMP JUMPDEST PUSH1 0x1 ADD SWAP3 SWAP2 POP POP JUMP JUMPDEST PUSH1 0x0 DUP1 DUP4 CALLDATALOAD PUSH1 0x1E NOT DUP5 CALLDATASIZE SUB ADD DUP2 SLT PUSH2 0x3E68 JUMPI PUSH1 0x0 DUP1 REVERT JUMPDEST DUP4 ADD DUP1 CALLDATALOAD SWAP2 POP PUSH8 0xFFFFFFFFFFFFFFFF DUP3 GT ISZERO PUSH2 0x3E83 JUMPI PUSH1 0x0 DUP1 REVERT JUMPDEST PUSH1 0x20 ADD SWAP2 POP PUSH1 0x5 DUP2 SWAP1 SHL CALLDATASIZE SUB DUP3 SGT ISZERO PUSH2 0x39C5 JUMPI PUSH1 0x0 DUP1 REVERT INVALID LOG2 PUSH5 0x6970667358 0x22 SLT KECCAK256 0x2E AND 0xD 0xE5 0xD5 0x5D SWAP8 LOG3 DUP1 0xE6 0x29 AND 0xBF SHR 0xA9 DIV ADDMOD 0xD5 0xA8 0xC9 PUSH19 0x49C56B2231E5768FC4D84D64736F6C63430008 MULMOD STOP CALLER "},"methodIdentifiers":{"__isPunished(address)":"f0c36955","__testInitSettleState((address[],uint256[],int256[],uint8[],uint8))":"e98b25f9","_getUserGRSAtAddress(address)":"8c8e9d64","_setUserGRSAtAddress(address,uint256)":"08fba75c","_setUserGRSAtAddressStorage(address,uint256)":"3347de66","contributionScore(uint8,address)":"fa569fa2","contributionStart()":"a41dacd6","exitModel()":"0899604c","feedback(address,int256)":"3aa8f2ed","freeriderPenalty()":"005c43a5","getAllAccuraciesAbout(address)":"f6020f01","getAllPreviousAccuraciesAndLosses()":"701341ed","getUser(address)":"6f77926b","hasVoted(address,address)":"4d4d2b1c","initTS()":"fd5201be","isContributionRoundDone()":"d6aad1b9","isFeedBackRoundDone()":"dcc1484a","max_collateral()":"904a9d17","min_collateral()":"508be15e","min_rounds()":"3f4f2d62","modelHash()":"1b2ccc09","nrOfContributionScores(uint8)":"59ac0c46","nrOfParticipants()":"4e49ad78","nrOfProvidedHashedWeights()":"b986695b","participants(uint256)":"35c1d349","prev_accs(uint8,address)":"8b2f56fb","prev_losses(uint8,address)":"667ba0f6","provideHashedWeights(bytes32,uint256)":"64a3e221","punishfactor()":"fcbace5d","punishfactorContrib()":"186beae3","register()":"1aa3a008","register(address)":"4420e486","registerSlot(bytes32)":"f5b27228","rewardLeft()":"3eee0426","rewardPerRound()":"33f93bcd","round()":"146ca531","roundStart()":"40365852","secretOf(address,uint8)":"095083af","settle()":"11da60b4","submitContributionScore(int256)":"f283865f","submitFeedbackBytes(bytes)":"9699fee6","submitFeedbackBytesAndAccuracies(bytes,uint8[],uint256[],uint8,uint256)":"8fe557a1","testing()":"8d03b102","totalReward()":"750142e6","users(address)":"a87430ba","votedPositiveFor(address,address)":"ca6e0385","votesPerRound()":"cc500ec9","weightsOf(address,uint8)":"45e4c379"}}}}}