{"project/contracts/OpenFLManager.sol":{"OpenFLManager":{"abi":[{"inputs":[],"stateMutability":"nonpayable","type":"constructor"},{"inputs":[{"internalType":"address","name":"","type":"address"}],"name":"ModelCountOf","outputs":[{"internalType":"uint256","name":"","type":"uint256"}],"stateMutability":"view","type":"function"},{"inputs":[{"internalType":"address","name":"","type":"address"},{"internalType":"uint256","name":"","type":"uint256"}],"name":"ModelOf","outputs":[{"internalType":"address","name":"","type":"address"}],"stateMutability":"view","type":"function"},{"inputs":[{"internalType":"bytes32","name":"_modelHash","type":"bytes32"},{"internalType":"uint256","name":"_min_collateral","type":"uint256"},{"internalType":"uint256","name":"_max_collateral","type":"uint256"},{"internalType":"uint256","name":"_reward","type":"uint256"},{"internalType":"uint8","name":"_min_rounds","type":"uint8"},{"internalType":"uint8","name":"_punishfactor","type":"uint8"},{"internalType":"uint8","name":"_punishfactorContrib","type":"uint8"},{"internalType":"uint8","name":"_freeriderPenalty","type":"uint8"}],"name":"deployModel","outputs":[],"stateMutability":"payable","type":"function"}],"evm":{"bytecode":{"linkReferences":{},"object":"608060405234801561001057600080fd5b50614159806100206000396000f3fe6080604052600436106100345760003560e01c80633f074102146100395780634a65beb414610079578063af293c841461008e575b600080fd5b34801561004557600080fd5b5061006661005436600461029e565b60016020526000908152604090205481565b6040519081526020015b60405180910390f35b61008c6100873660046102d1565b6100e4565b005b34801561009a57600080fd5b506100cc6100a936600461034c565b60006020818152928152604080822090935290815220546001600160a01b031681565b6040516001600160a01b039091168152602001610070565b336000908152600160208190526040822080549192909161010690849061038c565b909155506101169050878661038c565b34101561014f5760405162461bcd60e51b81526020600482015260036024820152622722ab60e91b604482015260640160405180910390fd5b600085898989898989898960405161016690610275565b97885260208801969096526040870194909452606086019290925260ff908116608086015290811660a085015290811660c08401521660e0820152610100016040518091039082f09050801580156101c2573d6000803e3d6000fd5b5090506001600160a01b038116634420e4866101de88346103a4565b6040516001600160e01b031960e084901b1681523360048201526024016000604051808303818588803b15801561021457600080fd5b505af1158015610228573d6000803e3d6000fd5b50503360009081526020818152604080832060018352818420548452909152902080546001600160a01b0319166001600160a01b0395909516949094179093555050505050505050505050565b613d68806103bc83390190565b80356001600160a01b038116811461029957600080fd5b919050565b6000602082840312156102b057600080fd5b6102b982610282565b9392505050565b803560ff8116811461029957600080fd5b600080600080600080600080610100898b0312156102ee57600080fd5b8835975060208901359650604089013595506060890135945061031360808a016102c0565b935061032160a08a016102c0565b925061032f60c08a016102c0565b915061033d60e08a016102c0565b90509295985092959890939650565b6000806040838503121561035f57600080fd5b61036883610282565b946020939093013593505050565b634e487b7160e01b600052601160045260246000fd5b6000821982111561039f5761039f610376565b500190565b6000828210156103b6576103b6610376565b50039056fe608060408190526001805460ff19908116909155600f8054909116905562003d68388190039081908339810160408190526200003b9162000177565b426004819055600a5560008890556005879055600686905560078590556001805463ffff00001916630100000060ff8781169190910262ff000019169190911762010000868316021760ff60201b19166401000000008583160217909155606490620000aa90831689620001fb565b620000b6919062000229565b600c55600154600754620000d5916301000000900460ff169062000229565b6008556007546009819055600454600554600654600154600c54604080519586526020860194909452928401919091526060830193909352630100000090920460ff16608082015260a08101919091527fd910741da174a91f8b84705afeaf69767bd61d4ac64620028ade113e576932519060c00160405180910390a150505050505050506200024c565b805160ff811681146200017257600080fd5b919050565b600080600080600080600080610100898b0312156200019557600080fd5b88519750602089015196506040890151955060608901519450620001bc60808a0162000160565b9350620001cc60a08a0162000160565b9250620001dc60c08a0162000160565b9150620001ec60e08a0162000160565b90509295985092959890939650565b60008160001904831182151516156200022457634e487b7160e01b600052601160045260246000fd5b500290565b6000826200024757634e487b7160e01b600052601260045260246000fd5b500490565b613b0c806200025c6000396000f3fe60806040526004361061025b5760003560e01c8063667ba0f611610144578063b986695b116100b6578063f283865f1161007a578063f283865f146108c4578063f5b27228146108e4578063f6020f0114610904578063fa569fa214610933578063fcbace5d1461096b578063fd5201be1461098b57600080fd5b8063b986695b1461082a578063ca6e038514610840578063cc500ec91461087b578063d6aad1b91461089a578063dcc1484a146108af57600080fd5b80638d03b102116101085780638d03b102146106bd5780638fe557a1146106d7578063904a9d17146106f75780639699fee61461070d578063a41dacd61461072d578063a87430ba1461074357600080fd5b8063667ba0f6146105235780636f77926b1461055b578063701341ed14610649578063750142e61461066c5780638b2f56fb1461068257600080fd5b80633aa8f2ed116101dd57806345e4c379116101a157806345e4c379146104275780634d4d2b1c1461045f5780634e49ad78146104aa578063508be15e146104c057806359ac0c46146104d657806364a3e2211461050357600080fd5b80633aa8f2ed146103a75780633eee0426146103c75780633f4f2d62146103dd57806340365852146103fe5780634420e4861461041457600080fd5b8063186beae311610224578063186beae3146103195780631aa3a0081461033b5780631b2ccc091461034357806333f93bcd1461035957806335c1d3491461036f57600080fd5b80625c43a5146102605780630899604c14610289578063095083af146102a057806311da60b4146102d8578063146ca531146102ed575b600080fd5b34801561026c57600080fd5b50610276600c5481565b6040519081526020015b60405180910390f35b34801561029557600080fd5b5061029e6109a1565b005b3480156102ac57600080fd5b506102766102bb36600461348c565b601360209081526000928352604080842090915290825290205481565b3480156102e457600080fd5b5061029e610bb5565b3480156102f957600080fd5b506001546103079060ff1681565b60405160ff9091168152602001610280565b34801561032557600080fd5b5060015461030790640100000000900460ff1681565b61029e611cb4565b34801561034f57600080fd5b5061027660005481565b34801561036557600080fd5b5061027660085481565b34801561037b57600080fd5b5061038f61038a3660046134bf565b611d55565b6040516001600160a01b039091168152602001610280565b3480156103b357600080fd5b5061029e6103c23660046134d8565b611d7f565b3480156103d357600080fd5b5061027660095481565b3480156103e957600080fd5b50600154610307906301000000900460ff1681565b34801561040a57600080fd5b50610276600a5481565b61029e610422366004613502565b6120ee565b34801561043357600080fd5b5061027661044236600461348c565b601460209081526000928352604080842090915290825290205481565b34801561046b57600080fd5b5061049a61047a366004613524565b601160209081526000928352604080842090915290825290205460ff1681565b6040519015158152602001610280565b3480156104b657600080fd5b5061027660025481565b3480156104cc57600080fd5b5061027660055481565b3480156104e257600080fd5b506102766104f136600461354e565b60166020526000908152604090205481565b34801561050f57600080fd5b5061029e61051e366004613569565b612190565b34801561052f57600080fd5b5061027661053e36600461358b565b601860209081526000928352604080842090915290825290205481565b34801561056757600080fd5b506105e9610576366004613502565b6001600160a01b0390811660009081526010602052604090206003810154815460018301546002909301549382169490939160ff600160a01b8204811692600160a81b8304821692600160b01b8104831692600160b81b8204811692600160c01b8304821692600160c81b900490911690565b604080516001600160a01b03909b168b5260208b019990995297890196909652606088019490945260ff9283166080880152911660a0860152151560c0850152151560e08401521515610100830152151561012082015261014001610280565b34801561065557600080fd5b5061065e6122ed565b604051610280929190613615565b34801561067857600080fd5b5061027660075481565b34801561068e57600080fd5b5061030761069d36600461358b565b601760209081526000928352604080842090915290825290205460ff1681565b3480156106c957600080fd5b50600f5461049a9060ff1681565b3480156106e357600080fd5b5061029e6106f23660046136d1565b612562565b34801561070357600080fd5b5061027660065481565b34801561071957600080fd5b5061029e610728366004613785565b6128b1565b34801561073957600080fd5b50610276600b5481565b34801561074f57600080fd5b506107cc61075e366004613502565b6010602052600090815260409020805460018201546002830154600390930154919290916001600160a01b0381169060ff600160a01b8204811691600160a81b8104821691600160b01b8204811691600160b81b8104821691600160c01b8204811691600160c81b9004168a565b604080519a8b5260208b0199909952978901969096526001600160a01b03909416606088015260ff9283166080880152911660a0860152151560c0850152151560e08401521515610100830152151561012082015261014001610280565b34801561083657600080fd5b5061027660035481565b34801561084c57600080fd5b5061049a61085b366004613524565b601260209081526000928352604080842090915290825290205460ff1681565b34801561088757600080fd5b5060015461030790610100900460ff1681565b3480156108a657600080fd5b5061049a612985565b3480156108bb57600080fd5b5061049a612a28565b3480156108d057600080fd5b5061029e6108df3660046134bf565b612b27565b3480156108f057600080fd5b5061029e6108ff3660046134bf565b612c73565b34801561091057600080fd5b5061092461091f366004613502565b612d21565b604051610280939291906137c7565b34801561093f57600080fd5b5061027661094e36600461358b565b601560209081526000928352604080842090915290825290205481565b34801561097757600080fd5b506001546103079062010000900460ff1681565b34801561099757600080fd5b5061027660045481565b33600090815260106020526040902060030154600160b81b900460ff166109e35760405162461bcd60e51b81526004016109da9061383c565b60405180910390fd5b60025460035414158015610a0657504262015180600a54610a04919061386f565b115b610a375760405162461bcd60e51b81526020600482015260026024820152614e4160f01b60448201526064016109da565b33600090815260146020908152604080832060015460ff16845290915290205415610a8a5760405162461bcd60e51b815260206004820152600360248201526257464560e81b60448201526064016109da565b33600090815260106020526040902060010154610acf5760405162461bcd60e51b81526020600482015260036024820152622722a360e91b60448201526064016109da565b336000908152601060205260408120600101805490829055905b600d54811015610b6a57336001600160a01b0316600d8281548110610b1057610b10613887565b6000918252602090912001546001600160a01b03161415610b5857600d8181548110610b3e57610b3e613887565b600091825260209091200180546001600160a01b03191690555b80610b628161389d565b915050610ae9565b5033600081815260106020526040808220600301805460ff60b81b191690555183156108fc0291849190818181858888f19350505050158015610bb1573d6000803e3d6000fd5b5050565b600080610bc3600e826132ef565b60005b600d54811015610c6257600060106000600d8481548110610be957610be9613887565b60009182526020808320909101546001600160a01b031683528201929092526040019020600381015490915060ff600160a01b9091041660011415610c4f57600c548160010154610c3a91906138b8565b6001820155600c54610c4c908461386f565b92505b5080610c5a8161389d565b915050610bc6565b5060005b600d54811015610f9d57600060106000600d8481548110610c8957610c89613887565b60009182526020808320909101546001600160a01b031683528201929092526040019020600381015490915060ff600160b81b9091041615610f8a57600081600201541215610f745760038101546001805460ff600160a81b9093048316928291610cfb9185916101009004166138cf565b92506101000a81548160ff021916908360ff1602179055506000600160029054906101000a900460ff1660ff168260010154610d3791906138f2565b600154600554919250610d54916201000090910460ff16906138f2565b82600101541115610e5e5760038201805460ff60b01b198116600160b01b178255600e8054600181810183556000929092527fbb7b4a454dc3493923482f07822329ed19e8244eff582cc204f8554c3620c3fd0180546001600160a01b0319166001600160a01b0390931692909217909155815460ff60c01b1916909155820154610de09082906138b8565b60018301556002820154610df5908290613914565b6002830155610e04818661386f565b6003830154600284015460018501546040519398507f641368b934d33e657fe49c6af1c0e5b618d4dc123f53fc3f8d5f15fee5f4fb8693610e51936001600160a01b031692918691613953565b60405180910390a1610f6e565b60038201805461ffff60b01b198116600160b01b178255600e8054600181810183556000929092527fbb7b4a454dc3493923482f07822329ed19e8244eff582cc204f8554c3620c3fd0180546001600160a01b0319166001600160a01b0390931692909217909155815460ff60c01b1916909155820154610edf908661386f565b6003830154600284015460018501546040519398507f6a461179a109ac5a4f65774b04343a475dd7d089ffa5a31552a4d71e0a1e7b4f93610f2e936001600160a01b0316929190600090613953565b60405180910390a160008260010181905550600160026000828254610f5391906138b8565b909155505060038201805460ff60c81b1916600160c81b1790555b50610f8a565b60038101805460ff60c01b1916600160c01b1790555b5080610f958161389d565b915050610c66565b5060005b600d548110156111a557600060106000600d8481548110610fc457610fc4613887565b60009182526020808320909101546001600160a01b031683528201929092526040019020600381015490915060ff600160b81b90910416156111925760005b600e548110156111905760038201546001600160a01b03166000908152601260205260408120600e80549192918490811061104057611040613887565b60009182526020808320909101546001600160a01b0316835282019290925260400190205460ff161561117e5760038201546001600160a01b03166000908152601260205260408120600e8054839190859081106110a0576110a0613887565b6000918252602080832091909101546001600160a01b031683528201929092526040019020805460ff191691151591909117905560038201546001805460ff600160a81b90930483169282916110fd9185916101009004166138cf565b825460ff9182166101009390930a92830291909202199091161790555060038201805460ff60c01b198116909155600283015460018401546040517f1774dd77faaf323cd25b2f963ff975744949b339a6d103b4e3959263f6c2f97793611175936001600160a01b0390911692909160009190613953565b60405180910390a15b806111888161389d565b915050611003565b505b508061119d8161389d565b915050610fa1565b5060005b600d5481101561129157600060106000600d84815481106111cc576111cc613887565b60009182526020808320909101546001600160a01b031683528201929092526040019020600381015490915060ff600160b81b909104161561127e576003810154600160a01b900460ff166001141561127e576003810154600160c01b900460ff161561125e57600c548160010154611245919061386f565b6001820155600c5461125790846138b8565b925061127e565b600c5461126b908561386f565b9350600c548361127b91906138b8565b92505b50806112898161389d565b9150506111a9565b506001546000908190610100900460ff16158015906112b4575060085460095410155b15611ac057600854600960008282546112cd91906138b8565b909155505060085484156112e8576112e5858261386f565b90505b60005b600d5481101561144857600060106000600d848154811061130e5761130e613887565b60009182526020808320909101546001600160a01b031683528201929092526040019020600381015490915060ff600160b81b90910416801561135c57506003810154600160c01b900460ff165b801561137457506003810154600160b01b900460ff16155b156114355760015460ff16600090815260156020908152604080832060038501546001600160a01b031684529091528120546113af906131a5565b60038301546113c89190600160a81b900460ff16613979565b60015460ff16600090815260156020908152604080832060038701546001600160a01b031684529091528120549192501361140b5761140681613998565b61140d565b805b82600001600082825461142091906139b5565b9091555050815461143190876139b5565b9550505b50806114408161389d565b9150506112eb565b5060005b600d5481101561167d57600060106000600d848154811061146f5761146f613887565b60009182526020808320909101546001600160a01b031683528201929092526040019020600381015490915060ff600160b81b9091041680156114bd57506003810154600160c01b900460ff165b80156114d557506003810154600160b01b900460ff16155b1561166a5760008513156114e957846114ec565b60015b93506000846114fe83600001546131df565b6115089086613979565b61151291906138f2565b60015460ff16600090815260156020908152604080832060038701546001600160a01b0316845290915281205491925013801561156a575060015461156290640100000000900460ff1682613979565b826001015411155b1561166857600182015461157e908561386f565b6003830154600284015460018501546040519397507f6a461179a109ac5a4f65774b04343a475dd7d089ffa5a31552a4d71e0a1e7b4f936115cd936001600160a01b0316929190600090613953565b60405180910390a160015460ff16600090815260156020908152604080832060038601546001600160a01b0316845290915290205461160b906131a5565b60038301546116249190600160a81b900460ff16613979565b61162e90876139b5565b95506000826001018190555060016002600082825461164d91906138b8565b909155505060038201805460ff60c81b1916600160c81b1790555b505b50806116758161389d565b91505061144c565b50600083131561168d5782611690565b60015b915060008060005b600d5481101561183057600060106000600d84815481106116bb576116bb613887565b60009182526020808320909101546001600160a01b031683528201929092526040019020600381015490915060ff600160b81b90910416801561170957506003810154600160c01b900460ff165b801561172157506003810154600160b01b900460ff16155b8015611757575060015460ff16600090815260156020908152604080832060038501546001600160a01b03168452909152812054125b1561181d5760008661176c83600001546131df565b6117769088613979565b61178091906138f2565b60015490915060009061179e90640100000000900460ff1683613979565b9050808360010160008282546117b491906138b8565b909155506117c49050818761386f565b6003840154600285015460018601546040519399507ff002da1cc235dd7b3cd93cb91c128fe6e777fb632383da5ff2603123883748b193611812936001600160a01b03169291600091613953565b60405180910390a150505b50806118288161389d565b915050611698565b5061183b828461386f565b925060005b600d5481101561192657600060106000600d848154811061186357611863613887565b60009182526020808320909101546001600160a01b031683528201929092526040019020600381015490915060ff600160b81b9091041680156118b157506003810154600160c01b900460ff165b80156118c957506003810154600160b01b900460ff16155b80156118ff575060015460ff16600090815260156020908152604080832060038501546001600160a01b03168452909152812054135b15611913578054611910908461386f565b92505b508061191e8161389d565b915050611840565b5080156119335780611936565b60015b905060005b600d54811015611abb57600060106000600d848154811061195e5761195e613887565b60009182526020808320909101546001600160a01b031683528201929092526040019020600381015490915060ff600160b81b9091041680156119ac57506003810154600160c01b900460ff165b80156119c457506003810154600160b01b900460ff16155b80156119fa575060015460ff16600090815260156020908152604080832060038501546001600160a01b03168452909152812054135b15611a9657600083611a0f83600001546131df565b611a199088613979565b611a2391906138f2565b905080826001016000828254611a39919061386f565b90915550506003820154600283015460018401546040517ff002da1cc235dd7b3cd93cb91c128fe6e777fb632383da5ff2603123883748b193611a8c936001600160a01b03909116929091869190613953565b60405180910390a1505b60038101805460ff60c01b191690556000905580611ab38161389d565b91505061193b565b505050505b6001546040805160ff808416825261010090930490921660208301528101829052606081018590527f0fb9071657a7d7c77d4413e1c8487bb219c39de920f3297977dd60bf0e00d33d9060800160405180910390a160005b600d54811015611c6957600060106000600d8481548110611b3b57611b3b613887565b60009182526020808320909101546001600160a01b031683528201929092526040019020600381015490915060ff600160b81b9091041615611c565760038101805460ff60a81b19168082556000600284015560019190601490611baa908490600160a01b900460ff166139f6565b825460ff9182166101009390930a92830291909202199091161790555060038101805460ff60b01b1916905560005b600d54811015611c545760038201546001600160a01b03166000908152601160205260408120600d805491929184908110611c1657611c16613887565b60009182526020808320909101546001600160a01b031683528201929092526040019020805460ff1916905580611c4c8161389d565b915050611bd9565b505b5080611c618161389d565b915050611b18565b50600180548190600090611c8190839060ff166139f6565b825460ff9182166101009390930a928302919092021990911617905550506001805461ff00191690555050600060035550565b33600090815260106020526040902060030154600160b81b900460ff1615611d045760405162461bcd60e51b815260206004820152600360248201526229a0a960e91b60448201526064016109da565b6005543410158015611d1857506006543411155b611d4a5760405162461bcd60e51b8152602060048201526003602482015262272ba960e91b60448201526064016109da565b611d53336131f3565b565b600d8181548110611d6557600080fd5b6000918252602090912001546001600160a01b0316905081565b33600090815260106020526040902060030154600160b81b900460ff16611db85760405162461bcd60e51b81526004016109da9061383c565b816001600160a01b038116331415611df85760405162461bcd60e51b815260206004820152600360248201526214d15560ea1b60448201526064016109da565b3360009081526011602090815260408083206001600160a01b038516845290915290205460ff1615611e525760405162461bcd60e51b815260206004820152600360248201526256414360e81b60448201526064016109da565b6002546003541480611e7357504262015180600a54611e71919061386f565b105b611ea55760405162461bcd60e51b815260206004820152600360248201526246524360e81b60448201526064016109da565b3360008181526011602090815260408083206001600160a01b03881684528252808320805460ff19166001908117909155938352601090915290206003018054601590611efd908490600160a81b900460ff166139f6565b92506101000a81548160ff021916908360ff16021790555060018060018282829054906101000a900460ff16611f3391906139f6565b92506101000a81548160ff021916908360ff1602179055508160011415611fcc573360008181526012602090815260408083206001600160a01b03881684528252808320805460ff1916600190811790915593835260109091529020810154611f9b91613a1b565b6001600160a01b03841660009081526010602052604081206002018054909190611fc69084906139b5565b90915550505b816000191415612049573360008181526012602090815260408083206001600160a01b03881684528252808320805460ff19169055928252601090522060019081015461201891613a1b565b6001600160a01b03841660009081526010602052604081206002018054909190612043908490613914565b90915550505b8161207a573360009081526012602090815260408083206001600160a01b03871684529091529020805460ff191690555b336000818152601060209081526040808320600101546001600160a01b038816808552938290206002015482519485529284019490945282810193909352606082015290517fd69fe95841f16237d39b30bbb2ed7633b307fb0addc4bb890b6a3a77e04f5f7f9181900360800190a1505050565b33600090815260106020526040902060030154600160b81b900460ff161561213e5760405162461bcd60e51b815260206004820152600360248201526229a0a960e91b60448201526064016109da565b600554341015801561215257506006543411155b6121845760405162461bcd60e51b8152602060048201526003602482015262272ba960e91b60448201526064016109da565b61218d816131f3565b50565b33600090815260106020526040902060030154600160b81b900460ff166121c95760405162461bcd60e51b81526004016109da9061383c565b33600090815260146020908152604080832060015460ff1684529091529020541561221c5760405162461bcd60e51b815260206004820152600360248201526205341560ec1b60448201526064016109da565b604080516020810184905290810182905233606090811b6bffffffffffffffffffffffff19169082015260740160408051601f1981840301815291815281516020928301203360009081526013845282812060015460ff168252909352912054146122af5760405162461bcd60e51b81526020600482015260036024820152624e4b5360e81b60448201526064016109da565b3360009081526014602090815260408083206001805460ff1685529252822084905560038054919290916122e490849061386f565b90915550505050565b6060806000805b600d5481101561236457600060106000600d848154811061231757612317613887565b60009182526020808320909101546001600160a01b03168352820192909252604001902060020154126123525761234f6001836139f6565b91505b8061235c8161389d565b9150506122f4565b508060ff1667ffffffffffffffff81111561238157612381613aa0565b6040519080825280602002602001820160405280156123aa578160200160208202803683370190505b5092508060ff1667ffffffffffffffff8111156123c9576123c9613aa0565b6040519080825280602002602001820160405280156123f2578160200160208202803683370190505b5091506000805b600d5481101561255b57600060106000600d848154811061241c5761241c613887565b60009182526020808320909101546001600160a01b03168352820192909252604001902060020154126125495760015460ff166000908152601760205260408120600d80549192918490811061247457612474613887565b60009182526020808320909101546001600160a01b03168352820192909252604001902054855160ff9182169187919085169081106124b5576124b5613887565b60ff9283166020918202929092018101919091526001549091166000908152601890915260408120600d8054919291849081106124f4576124f4613887565b60009182526020808320909101546001600160a01b031683528201929092526040019020548451859060ff851690811061253057612530613887565b60209081029190910101528161254581613ab6565b9250505b806125538161389d565b9150506123f9565b5050509091565b6060806000808b60348c04604051955060208102602001860160405280865260005b818110156125ac57823560601c60208281028901018190529450601490920191600101612584565b506040519450602081026020018501604052808552600093505b808410156125ee578135925082602085026020870101526020820191506001840193506125c6565b505083518914915061264490505760405162461bcd60e51b815260206004820181905260248201527f494e56414c49445f4c454e475448204f4620414343555241435920415252415960448201526064016109da565b815185146126945760405162461bcd60e51b815260206004820152601c60248201527f494e56414c49445f4c454e475448204f46204c4f53532041525241590000000060448201526064016109da565b60015460ff166000908152601960209081526040808320338452825291829020825160608101845285815283518b840281810185019095528b81529193909283810192918d918d9182918501908490808284376000920191909152505050908252506040805160208a810282810182019093528a82529283019290918b918b918291850190849080828437600092018290525093909452505083546001810185559381526020908190208351805194956003029091019361275c93508492919091019061330d565b506020828101518051612775926001850192019061336e565b506040820151805161279191600284019160209091019061340f565b505050606460ff851611156127f85760405162461bcd60e51b815260206004820152602760248201527f50524556494f5553204143435552414359204e4f54204245545745454e2030206044820152660414e44203130360cc1b60648201526084016109da565b6001805460ff908116600090815260176020908152604080832033808552908352818420805460ff19168b871617905594549093168252601881528282209382529290925281208490555b82518110156128a457600f5460ff166128925761289283828151811061286b5761286b613887565b602002602001015183838151811061288557612885613887565b6020026020010151611d7f565b8061289c8161389d565b915050612843565b5050505050505050505050565b6060806000808560348604604051955060208102602001860160405280865260005b818110156128fb57823560601c602082810289010181905294506014909201916001016128d3565b506040519450602081026020018501604052808552600093505b8084101561293d57813592508260208502602087010152602082019150600184019350612915565b5050505060005b825181101561297e57600f5460ff1661296c5761296c83828151811061286b5761286b613887565b806129768161389d565b915050612944565b5050505050565b600080805b600d548110156129fb57600060106000600d84815481106129ad576129ad613887565b60009182526020808320909101546001600160a01b0316835282019290925260400190206002015412156129e957816129e58161389d565b9250505b806129f38161389d565b91505061298a565b5060015460ff16600090815260166020526040902054811115612a2057600091505090565b600191505090565b600060025460001415612a3b5750600090565b600d54600190612a4b9080613979565b612a5591906138b8565b600154610100900460ff1611919050565b600d54811015612b1e57600060106000600d8481548110612a8957612a89613887565b60009182526020808320909101546001600160a01b031683528201929092526040019020600381015490915060ff600160b81b909104168015612ad857506003810154600160c81b900460ff16155b15612b0b576001600254612aec91906138b8565b6003820154600160a81b900460ff161015612b0b576000935050505090565b5080612b168161389d565b915050612a66565b50600191505090565b33600090815260106020526040902060030154600160b81b900460ff16612b865760405162461bcd60e51b8152602060048201526013602482015272155cd95c881b9bdd081c9959da5cdd195c9959606a1b60448201526064016109da565b60015460ff16600090815260156020908152604080832033845290915290205415612bf35760405162461bcd60e51b815260206004820152601760248201527f53636f726520616c7265616479207375626d697474656400000000000000000060448201526064016109da565b6001805460ff9081166000908152601560209081526040808320338452825280832086905584549093168252601690529081208054909190612c3690849061386f565b909155505060405181815233907f20e6c7c82a3c0a8203efca055fc9a664ca649345957ddc3ba34b2912e9ed83739060200160405180910390a250565b33600090815260106020526040902060030154600160b81b900460ff16612cac5760405162461bcd60e51b81526004016109da9061383c565b33600090815260146020908152604080832060015460ff16845290915290205415612cff5760405162461bcd60e51b815260206004820152600360248201526205341560ec1b60448201526064016109da565b33600090815260136020908152604080832060015460ff168452909152902055565b60608060606000805b600d54811015612e87576000600d8281548110612d4957612d49613887565b600091825260208083209091015460015460ff1683526019825260408084206001600160a01b039092168085529190925290822054909250905b81811015612e715760015460ff1660009081526019602090815260408083206001600160a01b03871684529091528120805483908110612dc557612dc5613887565b9060005260206000209060030201905060005b8154811015612e5c578a6001600160a01b0316826000018281548110612e0057612e00613887565b6000918252602090912001546001600160a01b03161415612e4a576001600160a01b03851660009081526010602052604081206002015412612e4a5786612e468161389d565b9750505b80612e548161389d565b915050612dd8565b50508080612e699061389d565b915050612d83565b5050508080612e7f9061389d565b915050612d2a565b508067ffffffffffffffff811115612ea157612ea1613aa0565b604051908082528060200260200182016040528015612eca578160200160208202803683370190505b5093508067ffffffffffffffff811115612ee657612ee6613aa0565b604051908082528060200260200182016040528015612f0f578160200160208202803683370190505b5092508067ffffffffffffffff811115612f2b57612f2b613aa0565b604051908082528060200260200182016040528015612f54578160200160208202803683370190505b5091506000805b600d5481101561319b57600060106000600d8481548110612f7e57612f7e613887565b60009182526020808320909101546001600160a01b039081168452838201949094526040928301822060015460ff1683526019825283832060038201549095168352939052908120549192505b818110156131855760015460ff16600090815260196020908152604080832060038701546001600160a01b03168452909152812080548390811061301157613011613887565b9060005260206000209060030201905060005b8154811015613170578b6001600160a01b031682600001828154811061304c5761304c613887565b6000918252602090912001546001600160a01b0316141561315e57600085600201541261315e5760038501548b516001600160a01b03909116908c908990811061309857613098613887565b60200260200101906001600160a01b031690816001600160a01b0316815250508160010181815481106130cd576130cd613887565b90600052602060002090602091828204019190069054906101000a900460ff168a88815181106130ff576130ff613887565b602002602001019060ff16908160ff168152505081600201818154811061312857613128613887565b906000526020600020015489888151811061314557613145613887565b60209081029190910101528661315a8161389d565b9750505b806131688161389d565b915050613024565b5050808061317d9061389d565b915050612fcb565b50505080806131939061389d565b915050612f5b565b5050509193909250565b60008082126131b2575090565b600160ff1b8214156131d6576131d06001600160ff1b03600161386f565b92915050565b6131d082613998565b60008082136131ef5760006131d0565b5090565b6001600160a01b03811660008181526010602052604081206003810180543460018085019190915565ff00000000ff60a01b19600163ff00000160a01b0319909216909517600160b81b1716600160a01b17905560028054919392909161325b90849061386f565b9091555050600d80546001810182556000919091527fd7b6990105719101dabeb77144f2a3385c8033acd3af97e9423a695e81ad1eb50180546001600160a01b0319166001600160a01b0384161790556002546040517fabe5b1202d1f4ed2c1baccf335320ceae3abd90670864b741e80a2ef5671d882916132e39185913491479190613953565b60405180910390a15050565b508054600082559060005260206000209081019061218d919061344a565b828054828255906000526020600020908101928215613362579160200282015b8281111561336257825182546001600160a01b0319166001600160a01b0390911617825560209092019160019091019061332d565b506131ef92915061344a565b82805482825590600052602060002090601f016020900481019282156133625791602002820160005b838211156133d557835183826101000a81548160ff021916908360ff1602179055509260200192600101602081600001049283019260010302613397565b80156134025782816101000a81549060ff02191690556001016020816000010492830192600103026133d5565b50506131ef92915061344a565b828054828255906000526020600020908101928215613362579160200282015b8281111561336257825182559160200191906001019061342f565b5b808211156131ef576000815560010161344b565b80356001600160a01b038116811461347657600080fd5b919050565b803560ff8116811461347657600080fd5b6000806040838503121561349f57600080fd5b6134a88361345f565b91506134b66020840161347b565b90509250929050565b6000602082840312156134d157600080fd5b5035919050565b600080604083850312156134eb57600080fd5b6134f48361345f565b946020939093013593505050565b60006020828403121561351457600080fd5b61351d8261345f565b9392505050565b6000806040838503121561353757600080fd5b6135408361345f565b91506134b66020840161345f565b60006020828403121561356057600080fd5b61351d8261347b565b6000806040838503121561357c57600080fd5b50508035926020909101359150565b6000806040838503121561359e57600080fd5b6135408361347b565b600081518084526020808501945080840160005b838110156135da57815160ff16875295820195908201906001016135bb565b509495945050505050565b600081518084526020808501945080840160005b838110156135da578151875295820195908201906001016135f9565b60408152600061362860408301856135a7565b828103602084015261363a81856135e5565b95945050505050565b60008083601f84011261365557600080fd5b50813567ffffffffffffffff81111561366d57600080fd5b60208301915083602082850101111561368557600080fd5b9250929050565b60008083601f84011261369e57600080fd5b50813567ffffffffffffffff8111156136b657600080fd5b6020830191508360208260051b850101111561368557600080fd5b60008060008060008060008060a0898b0312156136ed57600080fd5b883567ffffffffffffffff8082111561370557600080fd5b6137118c838d01613643565b909a50985060208b013591508082111561372a57600080fd5b6137368c838d0161368c565b909850965060408b013591508082111561374f57600080fd5b5061375c8b828c0161368c565b909550935061376f905060608a0161347b565b9150608089013590509295985092959890939650565b6000806020838503121561379857600080fd5b823567ffffffffffffffff8111156137af57600080fd5b6137bb85828601613643565b90969095509350505050565b606080825284519082018190526000906020906080840190828801845b828110156138095781516001600160a01b0316845292840192908401906001016137e4565b5050508381038285015261381d81876135a7565b915050828103604084015261383281856135e5565b9695505050505050565b60208082526003908201526229a72960e91b604082015260600190565b634e487b7160e01b600052601160045260246000fd5b6000821982111561388257613882613859565b500190565b634e487b7160e01b600052603260045260246000fd5b60006000198214156138b1576138b1613859565b5060010190565b6000828210156138ca576138ca613859565b500390565b600060ff821660ff8416808210156138e9576138e9613859565b90039392505050565b60008261390f57634e487b7160e01b600052601260045260246000fd5b500490565b60008083128015600160ff1b85018412161561393257613932613859565b6001600160ff1b038401831381161561394d5761394d613859565b50500390565b6001600160a01b0394909416845260208401929092526040830152606082015260800190565b600081600019048311821515161561399357613993613859565b500290565b6000600160ff1b8214156139ae576139ae613859565b5060000390565b600080821280156001600160ff1b03849003851316156139d7576139d7613859565b600160ff1b83900384128116156139f0576139f0613859565b50500190565b600060ff821660ff84168060ff03821115613a1357613a13613859565b019392505050565b60006001600160ff1b0381841382841380821686840486111615613a4157613a41613859565b600160ff1b6000871282811687830589121615613a6057613a60613859565b60008712925087820587128484161615613a7c57613a7c613859565b87850587128184161615613a9257613a92613859565b505050929093029392505050565b634e487b7160e01b600052604160045260246000fd5b600060ff821660ff811415613acd57613acd613859565b6001019291505056fea264697066735822122090af797148b9c9b1118130e750fb80ecc688cffcf71f04716ea089b4968ec33b64736f6c63430008090033a2646970667358221220359eb541dd49099608748ca57c8c4b0f34969ceac7767c9332d9d5490879a72664736f6c63430008090033","opcodes":"PUSH1 0x80 PUSH1 0x40 MSTORE CALLVALUE DUP1 ISZERO PUSH2 0x10 JUMPI PUSH1 0x0 DUP1 REVERT JUMPDEST POP PUSH2 0x4159 DUP1 PUSH2 0x20 PUSH1 0x0 CODECOPY PUSH1 0x0 RETURN INVALID PUSH1 0x80 PUSH1 0x40 MSTORE PUSH1 0x4 CALLDATASIZE LT PUSH2 0x34 JUMPI PUSH1 0x0 CALLDATALOAD PUSH1 0xE0 SHR DUP1 PUSH4 0x3F074102 EQ PUSH2 0x39 JUMPI DUP1 PUSH4 0x4A65BEB4 EQ PUSH2 0x79 JUMPI DUP1 PUSH4 0xAF293C84 EQ PUSH2 0x8E JUMPI JUMPDEST PUSH1 0x0 DUP1 REVERT JUMPDEST CALLVALUE DUP1 ISZERO PUSH2 0x45 JUMPI PUSH1 0x0 DUP1 REVERT JUMPDEST POP PUSH2 0x66 PUSH2 0x54 CALLDATASIZE PUSH1 0x4 PUSH2 0x29E JUMP JUMPDEST PUSH1 0x1 PUSH1 0x20 MSTORE PUSH1 0x0 SWAP1 DUP2 MSTORE PUSH1 0x40 SWAP1 KECCAK256 SLOAD DUP2 JUMP JUMPDEST PUSH1 0x40 MLOAD SWAP1 DUP2 MSTORE PUSH1 0x20 ADD JUMPDEST PUSH1 0x40 MLOAD DUP1 SWAP2 SUB SWAP1 RETURN JUMPDEST PUSH2 0x8C PUSH2 0x87 CALLDATASIZE PUSH1 0x4 PUSH2 0x2D1 JUMP JUMPDEST PUSH2 0xE4 JUMP JUMPDEST STOP JUMPDEST CALLVALUE DUP1 ISZERO PUSH2 0x9A JUMPI PUSH1 0x0 DUP1 REVERT JUMPDEST POP PUSH2 0xCC PUSH2 0xA9 CALLDATASIZE PUSH1 0x4 PUSH2 0x34C JUMP JUMPDEST PUSH1 0x0 PUSH1 0x20 DUP2 DUP2 MSTORE SWAP3 DUP2 MSTORE PUSH1 0x40 DUP1 DUP3 KECCAK256 SWAP1 SWAP4 MSTORE SWAP1 DUP2 MSTORE KECCAK256 SLOAD PUSH1 0x1 PUSH1 0x1 PUSH1 0xA0 SHL SUB AND DUP2 JUMP JUMPDEST PUSH1 0x40 MLOAD PUSH1 0x1 PUSH1 0x1 PUSH1 0xA0 SHL SUB SWAP1 SWAP2 AND DUP2 MSTORE PUSH1 0x20 ADD PUSH2 0x70 JUMP JUMPDEST CALLER PUSH1 0x0 SWAP1 DUP2 MSTORE PUSH1 0x1 PUSH1 0x20 DUP2 SWAP1 MSTORE PUSH1 0x40 DUP3 KECCAK256 DUP1 SLOAD SWAP2 SWAP3 SWAP1 SWAP2 PUSH2 0x106 SWAP1 DUP5 SWAP1 PUSH2 0x38C JUMP JUMPDEST SWAP1 SWAP2 SSTORE POP PUSH2 0x116 SWAP1 POP DUP8 DUP7 PUSH2 0x38C JUMP JUMPDEST CALLVALUE LT ISZERO PUSH2 0x14F JUMPI PUSH1 0x40 MLOAD PUSH3 0x461BCD PUSH1 0xE5 SHL DUP2 MSTORE PUSH1 0x20 PUSH1 0x4 DUP3 ADD MSTORE PUSH1 0x3 PUSH1 0x24 DUP3 ADD MSTORE PUSH3 0x2722AB PUSH1 0xE9 SHL PUSH1 0x44 DUP3 ADD MSTORE PUSH1 0x64 ADD PUSH1 0x40 MLOAD DUP1 SWAP2 SUB SWAP1 REVERT JUMPDEST PUSH1 0x0 DUP6 DUP10 DUP10 DUP10 DUP10 DUP10 DUP10 DUP10 DUP10 PUSH1 0x40 MLOAD PUSH2 0x166 SWAP1 PUSH2 0x275 JUMP JUMPDEST SWAP8 DUP9 MSTORE PUSH1 0x20 DUP9 ADD SWAP7 SWAP1 SWAP7 MSTORE PUSH1 0x40 DUP8 ADD SWAP5 SWAP1 SWAP5 MSTORE PUSH1 0x60 DUP7 ADD SWAP3 SWAP1 SWAP3 MSTORE PUSH1 0xFF SWAP1 DUP2 AND PUSH1 0x80 DUP7 ADD MSTORE SWAP1 DUP2 AND PUSH1 0xA0 DUP6 ADD MSTORE SWAP1 DUP2 AND PUSH1 0xC0 DUP5 ADD MSTORE AND PUSH1 0xE0 DUP3 ADD MSTORE PUSH2 0x100 ADD PUSH1 0x40 MLOAD DUP1 SWAP2 SUB SWAP1 DUP3 CREATE SWAP1 POP DUP1 ISZERO DUP1 ISZERO PUSH2 0x1C2 JUMPI RETURNDATASIZE PUSH1 0x0 DUP1 RETURNDATACOPY RETURNDATASIZE PUSH1 0x0 REVERT JUMPDEST POP SWAP1 POP PUSH1 0x1 PUSH1 0x1 PUSH1 0xA0 SHL SUB DUP2 AND PUSH4 0x4420E486 PUSH2 0x1DE DUP9 CALLVALUE PUSH2 0x3A4 JUMP JUMPDEST PUSH1 0x40 MLOAD PUSH1 0x1 PUSH1 0x1 PUSH1 0xE0 SHL SUB NOT PUSH1 0xE0 DUP5 SWAP1 SHL AND DUP2 MSTORE CALLER PUSH1 0x4 DUP3 ADD MSTORE PUSH1 0x24 ADD PUSH1 0x0 PUSH1 0x40 MLOAD DUP1 DUP4 SUB DUP2 DUP6 DUP9 DUP1 EXTCODESIZE ISZERO DUP1 ISZERO PUSH2 0x214 JUMPI PUSH1 0x0 DUP1 REVERT JUMPDEST POP GAS CALL ISZERO DUP1 ISZERO PUSH2 0x228 JUMPI RETURNDATASIZE PUSH1 0x0 DUP1 RETURNDATACOPY RETURNDATASIZE PUSH1 0x0 REVERT JUMPDEST POP POP CALLER PUSH1 0x0 SWAP1 DUP2 MSTORE PUSH1 0x20 DUP2 DUP2 MSTORE PUSH1 0x40 DUP1 DUP4 KECCAK256 PUSH1 0x1 DUP4 MSTORE DUP2 DUP5 KECCAK256 SLOAD DUP5 MSTORE SWAP1 SWAP2 MSTORE SWAP1 KECCAK256 DUP1 SLOAD PUSH1 0x1 PUSH1 0x1 PUSH1 0xA0 SHL SUB NOT AND PUSH1 0x1 PUSH1 0x1 PUSH1 0xA0 SHL SUB SWAP6 SWAP1 SWAP6 AND SWAP5 SWAP1 SWAP5 OR SWAP1 SWAP4 SSTORE POP POP POP POP POP POP POP POP POP POP POP JUMP JUMPDEST PUSH2 0x3D68 DUP1 PUSH2 0x3BC DUP4 CODECOPY ADD SWAP1 JUMP JUMPDEST DUP1 CALLDATALOAD PUSH1 0x1 PUSH1 0x1 PUSH1 0xA0 SHL SUB DUP2 AND DUP2 EQ PUSH2 0x299 JUMPI PUSH1 0x0 DUP1 REVERT JUMPDEST SWAP2 SWAP1 POP JUMP JUMPDEST PUSH1 0x0 PUSH1 0x20 DUP3 DUP5 SUB SLT ISZERO PUSH2 0x2B0 JUMPI PUSH1 0x0 DUP1 REVERT JUMPDEST PUSH2 0x2B9 DUP3 PUSH2 0x282 JUMP JUMPDEST SWAP4 SWAP3 POP POP POP JUMP JUMPDEST DUP1 CALLDATALOAD PUSH1 0xFF DUP2 AND DUP2 EQ PUSH2 0x299 JUMPI PUSH1 0x0 DUP1 REVERT JUMPDEST PUSH1 0x0 DUP1 PUSH1 0x0 DUP1 PUSH1 0x0 DUP1 PUSH1 0x0 DUP1 PUSH2 0x100 DUP10 DUP12 SUB SLT ISZERO PUSH2 0x2EE JUMPI PUSH1 0x0 DUP1 REVERT JUMPDEST DUP9 CALLDATALOAD SWAP8 POP PUSH1 0x20 DUP10 ADD CALLDATALOAD SWAP7 POP PUSH1 0x40 DUP10 ADD CALLDATALOAD SWAP6 POP PUSH1 0x60 DUP10 ADD CALLDATALOAD SWAP5 POP PUSH2 0x313 PUSH1 0x80 DUP11 ADD PUSH2 0x2C0 JUMP JUMPDEST SWAP4 POP PUSH2 0x321 PUSH1 0xA0 DUP11 ADD PUSH2 0x2C0 JUMP JUMPDEST SWAP3 POP PUSH2 0x32F PUSH1 0xC0 DUP11 ADD PUSH2 0x2C0 JUMP JUMPDEST SWAP2 POP PUSH2 0x33D PUSH1 0xE0 DUP11 ADD PUSH2 0x2C0 JUMP JUMPDEST SWAP1 POP SWAP3 SWAP6 SWAP9 POP SWAP3 SWAP6 SWAP9 SWAP1 SWAP4 SWAP7 POP JUMP JUMPDEST PUSH1 0x0 DUP1 PUSH1 0x40 DUP4 DUP6 SUB SLT ISZERO PUSH2 0x35F JUMPI PUSH1 0x0 DUP1 REVERT JUMPDEST PUSH2 0x368 DUP4 PUSH2 0x282 JUMP JUMPDEST SWAP5 PUSH1 0x20 SWAP4 SWAP1 SWAP4 ADD CALLDATALOAD SWAP4 POP POP POP JUMP JUMPDEST PUSH4 0x4E487B71 PUSH1 0xE0 SHL PUSH1 0x0 MSTORE PUSH1 0x11 PUSH1 0x4 MSTORE PUSH1 0x24 PUSH1 0x0 REVERT JUMPDEST PUSH1 0x0 DUP3 NOT DUP3 GT ISZERO PUSH2 0x39F JUMPI PUSH2 0x39F PUSH2 0x376 JUMP JUMPDEST POP ADD SWAP1 JUMP JUMPDEST PUSH1 0x0 DUP3 DUP3 LT ISZERO PUSH2 0x3B6 JUMPI PUSH2 0x3B6 PUSH2 0x376 JUMP JUMPDEST POP SUB SWAP1 JUMP INVALID PUSH1 0x80 PUSH1 0x40 DUP2 SWAP1 MSTORE PUSH1 0x1 DUP1 SLOAD PUSH1 0xFF NOT SWAP1 DUP2 AND SWAP1 SWAP2 SSTORE PUSH1 0xF DUP1 SLOAD SWAP1 SWAP2 AND SWAP1 SSTORE PUSH3 0x3D68 CODESIZE DUP2 SWAP1 SUB SWAP1 DUP2 SWAP1 DUP4 CODECOPY DUP2 ADD PUSH1 0x40 DUP2 SWAP1 MSTORE PUSH3 0x3B SWAP2 PUSH3 0x177 JUMP JUMPDEST TIMESTAMP PUSH1 0x4 DUP2 SWAP1 SSTORE PUSH1 0xA SSTORE PUSH1 0x0 DUP9 SWAP1 SSTORE PUSH1 0x5 DUP8 SWAP1 SSTORE PUSH1 0x6 DUP7 SWAP1 SSTORE PUSH1 0x7 DUP6 SWAP1 SSTORE PUSH1 0x1 DUP1 SLOAD PUSH4 0xFFFF0000 NOT AND PUSH4 0x1000000 PUSH1 0xFF DUP8 DUP2 AND SWAP2 SWAP1 SWAP2 MUL PUSH3 0xFF0000 NOT AND SWAP2 SWAP1 SWAP2 OR PUSH3 0x10000 DUP7 DUP4 AND MUL OR PUSH1 0xFF PUSH1 0x20 SHL NOT AND PUSH5 0x100000000 DUP6 DUP4 AND MUL OR SWAP1 SWAP2 SSTORE PUSH1 0x64 SWAP1 PUSH3 0xAA SWAP1 DUP4 AND DUP10 PUSH3 0x1FB JUMP JUMPDEST PUSH3 0xB6 SWAP2 SWAP1 PUSH3 0x229 JUMP JUMPDEST PUSH1 0xC SSTORE PUSH1 0x1 SLOAD PUSH1 0x7 SLOAD PUSH3 0xD5 SWAP2 PUSH4 0x1000000 SWAP1 DIV PUSH1 0xFF AND SWAP1 PUSH3 0x229 JUMP JUMPDEST PUSH1 0x8 SSTORE PUSH1 0x7 SLOAD PUSH1 0x9 DUP2 SWAP1 SSTORE PUSH1 0x4 SLOAD PUSH1 0x5 SLOAD PUSH1 0x6 SLOAD PUSH1 0x1 SLOAD PUSH1 0xC SLOAD PUSH1 0x40 DUP1 MLOAD SWAP6 DUP7 MSTORE PUSH1 0x20 DUP7 ADD SWAP5 SWAP1 SWAP5 MSTORE SWAP3 DUP5 ADD SWAP2 SWAP1 SWAP2 MSTORE PUSH1 0x60 DUP4 ADD SWAP4 SWAP1 SWAP4 MSTORE PUSH4 0x1000000 SWAP1 SWAP3 DIV PUSH1 0xFF AND PUSH1 0x80 DUP3 ADD MSTORE PUSH1 0xA0 DUP2 ADD SWAP2 SWAP1 SWAP2 MSTORE PUSH32 0xD910741DA174A91F8B84705AFEAF69767BD61D4AC64620028ADE113E57693251 SWAP1 PUSH1 0xC0 ADD PUSH1 0x40 MLOAD DUP1 SWAP2 SUB SWAP1 LOG1 POP POP POP POP POP POP POP POP PUSH3 0x24C JUMP JUMPDEST DUP1 MLOAD PUSH1 0xFF DUP2 AND DUP2 EQ PUSH3 0x172 JUMPI PUSH1 0x0 DUP1 REVERT JUMPDEST SWAP2 SWAP1 POP JUMP JUMPDEST PUSH1 0x0 DUP1 PUSH1 0x0 DUP1 PUSH1 0x0 DUP1 PUSH1 0x0 DUP1 PUSH2 0x100 DUP10 DUP12 SUB SLT ISZERO PUSH3 0x195 JUMPI PUSH1 0x0 DUP1 REVERT JUMPDEST DUP9 MLOAD SWAP8 POP PUSH1 0x20 DUP10 ADD MLOAD SWAP7 POP PUSH1 0x40 DUP10 ADD MLOAD SWAP6 POP PUSH1 0x60 DUP10 ADD MLOAD SWAP5 POP PUSH3 0x1BC PUSH1 0x80 DUP11 ADD PUSH3 0x160 JUMP JUMPDEST SWAP4 POP PUSH3 0x1CC PUSH1 0xA0 DUP11 ADD PUSH3 0x160 JUMP JUMPDEST SWAP3 POP PUSH3 0x1DC PUSH1 0xC0 DUP11 ADD PUSH3 0x160 JUMP JUMPDEST SWAP2 POP PUSH3 0x1EC PUSH1 0xE0 DUP11 ADD PUSH3 0x160 JUMP JUMPDEST SWAP1 POP SWAP3 SWAP6 SWAP9 POP SWAP3 SWAP6 SWAP9 SWAP1 SWAP4 SWAP7 POP JUMP JUMPDEST PUSH1 0x0 DUP2 PUSH1 0x0 NOT DIV DUP4 GT DUP3 ISZERO ISZERO AND ISZERO PUSH3 0x224 JUMPI PUSH4 0x4E487B71 PUSH1 0xE0 SHL PUSH1 0x0 MSTORE PUSH1 0x11 PUSH1 0x4 MSTORE PUSH1 0x24 PUSH1 0x0 REVERT JUMPDEST POP MUL SWAP1 JUMP JUMPDEST PUSH1 0x0 DUP3 PUSH3 0x247 JUMPI PUSH4 0x4E487B71 PUSH1 0xE0 SHL PUSH1 0x0 MSTORE PUSH1 0x12 PUSH1 0x4 MSTORE PUSH1 0x24 PUSH1 0x0 REVERT JUMPDEST POP DIV SWAP1 JUMP JUMPDEST PUSH2 0x3B0C DUP1 PUSH3 0x25C PUSH1 0x0 CODECOPY PUSH1 0x0 RETURN INVALID PUSH1 0x80 PUSH1 0x40 MSTORE PUSH1 0x4 CALLDATASIZE LT PUSH2 0x25B JUMPI PUSH1 0x0 CALLDATALOAD PUSH1 0xE0 SHR DUP1 PUSH4 0x667BA0F6 GT PUSH2 0x144 JUMPI DUP1 PUSH4 0xB986695B GT PUSH2 0xB6 JUMPI DUP1 PUSH4 0xF283865F GT PUSH2 0x7A JUMPI DUP1 PUSH4 0xF283865F EQ PUSH2 0x8C4 JUMPI DUP1 PUSH4 0xF5B27228 EQ PUSH2 0x8E4 JUMPI DUP1 PUSH4 0xF6020F01 EQ PUSH2 0x904 JUMPI DUP1 PUSH4 0xFA569FA2 EQ PUSH2 0x933 JUMPI DUP1 PUSH4 0xFCBACE5D EQ PUSH2 0x96B JUMPI DUP1 PUSH4 0xFD5201BE EQ PUSH2 0x98B JUMPI PUSH1 0x0 DUP1 REVERT JUMPDEST DUP1 PUSH4 0xB986695B EQ PUSH2 0x82A JUMPI DUP1 PUSH4 0xCA6E0385 EQ PUSH2 0x840 JUMPI DUP1 PUSH4 0xCC500EC9 EQ PUSH2 0x87B JUMPI DUP1 PUSH4 0xD6AAD1B9 EQ PUSH2 0x89A JUMPI DUP1 PUSH4 0xDCC1484A EQ PUSH2 0x8AF JUMPI PUSH1 0x0 DUP1 REVERT JUMPDEST DUP1 PUSH4 0x8D03B102 GT PUSH2 0x108 JUMPI DUP1 PUSH4 0x8D03B102 EQ PUSH2 0x6BD JUMPI DUP1 PUSH4 0x8FE557A1 EQ PUSH2 0x6D7 JUMPI DUP1 PUSH4 0x904A9D17 EQ PUSH2 0x6F7 JUMPI DUP1 PUSH4 0x9699FEE6 EQ PUSH2 0x70D JUMPI DUP1 PUSH4 0xA41DACD6 EQ PUSH2 0x72D JUMPI DUP1 PUSH4 0xA87430BA EQ PUSH2 0x743 JUMPI PUSH1 0x0 DUP1 REVERT JUMPDEST DUP1 PUSH4 0x667BA0F6 EQ PUSH2 0x523 JUMPI DUP1 PUSH4 0x6F77926B EQ PUSH2 0x55B JUMPI DUP1 PUSH4 0x701341ED EQ PUSH2 0x649 JUMPI DUP1 PUSH4 0x750142E6 EQ PUSH2 0x66C JUMPI DUP1 PUSH4 0x8B2F56FB EQ PUSH2 0x682 JUMPI PUSH1 0x0 DUP1 REVERT JUMPDEST DUP1 PUSH4 0x3AA8F2ED GT PUSH2 0x1DD JUMPI DUP1 PUSH4 0x45E4C379 GT PUSH2 0x1A1 JUMPI DUP1 PUSH4 0x45E4C379 EQ PUSH2 0x427 JUMPI DUP1 PUSH4 0x4D4D2B1C EQ PUSH2 0x45F JUMPI DUP1 PUSH4 0x4E49AD78 EQ PUSH2 0x4AA JUMPI DUP1 PUSH4 0x508BE15E EQ PUSH2 0x4C0 JUMPI DUP1 PUSH4 0x59AC0C46 EQ PUSH2 0x4D6 JUMPI DUP1 PUSH4 0x64A3E221 EQ PUSH2 0x503 JUMPI PUSH1 0x0 DUP1 REVERT JUMPDEST DUP1 PUSH4 0x3AA8F2ED EQ PUSH2 0x3A7 JUMPI DUP1 PUSH4 0x3EEE0426 EQ PUSH2 0x3C7 JUMPI DUP1 PUSH4 0x3F4F2D62 EQ PUSH2 0x3DD JUMPI DUP1 PUSH4 0x40365852 EQ PUSH2 0x3FE JUMPI DUP1 PUSH4 0x4420E486 EQ PUSH2 0x414 JUMPI PUSH1 0x0 DUP1 REVERT JUMPDEST DUP1 PUSH4 0x186BEAE3 GT PUSH2 0x224 JUMPI DUP1 PUSH4 0x186BEAE3 EQ PUSH2 0x319 JUMPI DUP1 PUSH4 0x1AA3A008 EQ PUSH2 0x33B JUMPI DUP1 PUSH4 0x1B2CCC09 EQ PUSH2 0x343 JUMPI DUP1 PUSH4 0x33F93BCD EQ PUSH2 0x359 JUMPI DUP1 PUSH4 0x35C1D349 EQ PUSH2 0x36F JUMPI PUSH1 0x0 DUP1 REVERT JUMPDEST DUP1 PUSH3 0x5C43A5 EQ PUSH2 0x260 JUMPI DUP1 PUSH4 0x899604C EQ PUSH2 0x289 JUMPI DUP1 PUSH4 0x95083AF EQ PUSH2 0x2A0 JUMPI DUP1 PUSH4 0x11DA60B4 EQ PUSH2 0x2D8 JUMPI DUP1 PUSH4 0x146CA531 EQ PUSH2 0x2ED JUMPI JUMPDEST PUSH1 0x0 DUP1 REVERT JUMPDEST CALLVALUE DUP1 ISZERO PUSH2 0x26C JUMPI PUSH1 0x0 DUP1 REVERT JUMPDEST POP PUSH2 0x276 PUSH1 0xC SLOAD DUP2 JUMP JUMPDEST PUSH1 0x40 MLOAD SWAP1 DUP2 MSTORE PUSH1 0x20 ADD JUMPDEST PUSH1 0x40 MLOAD DUP1 SWAP2 SUB SWAP1 RETURN JUMPDEST CALLVALUE DUP1 ISZERO PUSH2 0x295 JUMPI PUSH1 0x0 DUP1 REVERT JUMPDEST POP PUSH2 0x29E PUSH2 0x9A1 JUMP JUMPDEST STOP JUMPDEST CALLVALUE DUP1 ISZERO PUSH2 0x2AC JUMPI PUSH1 0x0 DUP1 REVERT JUMPDEST POP PUSH2 0x276 PUSH2 0x2BB CALLDATASIZE PUSH1 0x4 PUSH2 0x348C JUMP JUMPDEST PUSH1 0x13 PUSH1 0x20 SWAP1 DUP2 MSTORE PUSH1 0x0 SWAP3 DUP4 MSTORE PUSH1 0x40 DUP1 DUP5 KECCAK256 SWAP1 SWAP2 MSTORE SWAP1 DUP3 MSTORE SWAP1 KECCAK256 SLOAD DUP2 JUMP JUMPDEST CALLVALUE DUP1 ISZERO PUSH2 0x2E4 JUMPI PUSH1 0x0 DUP1 REVERT JUMPDEST POP PUSH2 0x29E PUSH2 0xBB5 JUMP JUMPDEST CALLVALUE DUP1 ISZERO PUSH2 0x2F9 JUMPI PUSH1 0x0 DUP1 REVERT JUMPDEST POP PUSH1 0x1 SLOAD PUSH2 0x307 SWAP1 PUSH1 0xFF AND DUP2 JUMP JUMPDEST PUSH1 0x40 MLOAD PUSH1 0xFF SWAP1 SWAP2 AND DUP2 MSTORE PUSH1 0x20 ADD PUSH2 0x280 JUMP JUMPDEST CALLVALUE DUP1 ISZERO PUSH2 0x325 JUMPI PUSH1 0x0 DUP1 REVERT JUMPDEST POP PUSH1 0x1 SLOAD PUSH2 0x307 SWAP1 PUSH5 0x100000000 SWAP1 DIV PUSH1 0xFF AND DUP2 JUMP JUMPDEST PUSH2 0x29E PUSH2 0x1CB4 JUMP JUMPDEST CALLVALUE DUP1 ISZERO PUSH2 0x34F JUMPI PUSH1 0x0 DUP1 REVERT JUMPDEST POP PUSH2 0x276 PUSH1 0x0 SLOAD DUP2 JUMP JUMPDEST CALLVALUE DUP1 ISZERO PUSH2 0x365 JUMPI PUSH1 0x0 DUP1 REVERT JUMPDEST POP PUSH2 0x276 PUSH1 0x8 SLOAD DUP2 JUMP JUMPDEST CALLVALUE DUP1 ISZERO PUSH2 0x37B JUMPI PUSH1 0x0 DUP1 REVERT JUMPDEST POP PUSH2 0x38F PUSH2 0x38A CALLDATASIZE PUSH1 0x4 PUSH2 0x34BF JUMP JUMPDEST PUSH2 0x1D55 JUMP JUMPDEST PUSH1 0x40 MLOAD PUSH1 0x1 PUSH1 0x1 PUSH1 0xA0 SHL SUB SWAP1 SWAP2 AND DUP2 MSTORE PUSH1 0x20 ADD PUSH2 0x280 JUMP JUMPDEST CALLVALUE DUP1 ISZERO PUSH2 0x3B3 JUMPI PUSH1 0x0 DUP1 REVERT JUMPDEST POP PUSH2 0x29E PUSH2 0x3C2 CALLDATASIZE PUSH1 0x4 PUSH2 0x34D8 JUMP JUMPDEST PUSH2 0x1D7F JUMP JUMPDEST CALLVALUE DUP1 ISZERO PUSH2 0x3D3 JUMPI PUSH1 0x0 DUP1 REVERT JUMPDEST POP PUSH2 0x276 PUSH1 0x9 SLOAD DUP2 JUMP JUMPDEST CALLVALUE DUP1 ISZERO PUSH2 0x3E9 JUMPI PUSH1 0x0 DUP1 REVERT JUMPDEST POP PUSH1 0x1 SLOAD PUSH2 0x307 SWAP1 PUSH4 0x1000000 SWAP1 DIV PUSH1 0xFF AND DUP2 JUMP JUMPDEST CALLVALUE DUP1 ISZERO PUSH2 0x40A JUMPI PUSH1 0x0 DUP1 REVERT JUMPDEST POP PUSH2 0x276 PUSH1 0xA SLOAD DUP2 JUMP JUMPDEST PUSH2 0x29E PUSH2 0x422 CALLDATASIZE PUSH1 0x4 PUSH2 0x3502 JUMP JUMPDEST PUSH2 0x20EE JUMP JUMPDEST CALLVALUE DUP1 ISZERO PUSH2 0x433 JUMPI PUSH1 0x0 DUP1 REVERT JUMPDEST POP PUSH2 0x276 PUSH2 0x442 CALLDATASIZE PUSH1 0x4 PUSH2 0x348C JUMP JUMPDEST PUSH1 0x14 PUSH1 0x20 SWAP1 DUP2 MSTORE PUSH1 0x0 SWAP3 DUP4 MSTORE PUSH1 0x40 DUP1 DUP5 KECCAK256 SWAP1 SWAP2 MSTORE SWAP1 DUP3 MSTORE SWAP1 KECCAK256 SLOAD DUP2 JUMP JUMPDEST CALLVALUE DUP1 ISZERO PUSH2 0x46B JUMPI PUSH1 0x0 DUP1 REVERT JUMPDEST POP PUSH2 0x49A PUSH2 0x47A CALLDATASIZE PUSH1 0x4 PUSH2 0x3524 JUMP JUMPDEST PUSH1 0x11 PUSH1 0x20 SWAP1 DUP2 MSTORE PUSH1 0x0 SWAP3 DUP4 MSTORE PUSH1 0x40 DUP1 DUP5 KECCAK256 SWAP1 SWAP2 MSTORE SWAP1 DUP3 MSTORE SWAP1 KECCAK256 SLOAD PUSH1 0xFF AND DUP2 JUMP JUMPDEST PUSH1 0x40 MLOAD SWAP1 ISZERO ISZERO DUP2 MSTORE PUSH1 0x20 ADD PUSH2 0x280 JUMP JUMPDEST CALLVALUE DUP1 ISZERO PUSH2 0x4B6 JUMPI PUSH1 0x0 DUP1 REVERT JUMPDEST POP PUSH2 0x276 PUSH1 0x2 SLOAD DUP2 JUMP JUMPDEST CALLVALUE DUP1 ISZERO PUSH2 0x4CC JUMPI PUSH1 0x0 DUP1 REVERT JUMPDEST POP PUSH2 0x276 PUSH1 0x5 SLOAD DUP2 JUMP JUMPDEST CALLVALUE DUP1 ISZERO PUSH2 0x4E2 JUMPI PUSH1 0x0 DUP1 REVERT JUMPDEST POP PUSH2 0x276 PUSH2 0x4F1 CALLDATASIZE PUSH1 0x4 PUSH2 0x354E JUMP JUMPDEST PUSH1 0x16 PUSH1 0x20 MSTORE PUSH1 0x0 SWAP1 DUP2 MSTORE PUSH1 0x40 SWAP1 KECCAK256 SLOAD DUP2 JUMP JUMPDEST CALLVALUE DUP1 ISZERO PUSH2 0x50F JUMPI PUSH1 0x0 DUP1 REVERT JUMPDEST POP PUSH2 0x29E PUSH2 0x51E CALLDATASIZE PUSH1 0x4 PUSH2 0x3569 JUMP JUMPDEST PUSH2 0x2190 JUMP JUMPDEST CALLVALUE DUP1 ISZERO PUSH2 0x52F JUMPI PUSH1 0x0 DUP1 REVERT JUMPDEST POP PUSH2 0x276 PUSH2 0x53E CALLDATASIZE PUSH1 0x4 PUSH2 0x358B JUMP JUMPDEST PUSH1 0x18 PUSH1 0x20 SWAP1 DUP2 MSTORE PUSH1 0x0 SWAP3 DUP4 MSTORE PUSH1 0x40 DUP1 DUP5 KECCAK256 SWAP1 SWAP2 MSTORE SWAP1 DUP3 MSTORE SWAP1 KECCAK256 SLOAD DUP2 JUMP JUMPDEST CALLVALUE DUP1 ISZERO PUSH2 0x567 JUMPI PUSH1 0x0 DUP1 REVERT JUMPDEST POP PUSH2 0x5E9 PUSH2 0x576 CALLDATASIZE PUSH1 0x4 PUSH2 0x3502 JUMP JUMPDEST PUSH1 0x1 PUSH1 0x1 PUSH1 0xA0 SHL SUB SWAP1 DUP2 AND PUSH1 0x0 SWAP1 DUP2 MSTORE PUSH1 0x10 PUSH1 0x20 MSTORE PUSH1 0x40 SWAP1 KECCAK256 PUSH1 0x3 DUP2 ADD SLOAD DUP2 SLOAD PUSH1 0x1 DUP4 ADD SLOAD PUSH1 0x2 SWAP1 SWAP4 ADD SLOAD SWAP4 DUP3 AND SWAP5 SWAP1 SWAP4 SWAP2 PUSH1 0xFF PUSH1 0x1 PUSH1 0xA0 SHL DUP3 DIV DUP2 AND SWAP3 PUSH1 0x1 PUSH1 0xA8 SHL DUP4 DIV DUP3 AND SWAP3 PUSH1 0x1 PUSH1 0xB0 SHL DUP2 DIV DUP4 AND SWAP3 PUSH1 0x1 PUSH1 0xB8 SHL DUP3 DIV DUP2 AND SWAP3 PUSH1 0x1 PUSH1 0xC0 SHL DUP4 DIV DUP3 AND SWAP3 PUSH1 0x1 PUSH1 0xC8 SHL SWAP1 DIV SWAP1 SWAP2 AND SWAP1 JUMP JUMPDEST PUSH1 0x40 DUP1 MLOAD PUSH1 0x1 PUSH1 0x1 PUSH1 0xA0 SHL SUB SWAP1 SWAP12 AND DUP12 MSTORE PUSH1 0x20 DUP12 ADD SWAP10 SWAP1 SWAP10 MSTORE SWAP8 DUP10 ADD SWAP7 SWAP1 SWAP7 MSTORE PUSH1 0x60 DUP9 ADD SWAP5 SWAP1 SWAP5 MSTORE PUSH1 0xFF SWAP3 DUP4 AND PUSH1 0x80 DUP9 ADD MSTORE SWAP2 AND PUSH1 0xA0 DUP7 ADD MSTORE ISZERO ISZERO PUSH1 0xC0 DUP6 ADD MSTORE ISZERO ISZERO PUSH1 0xE0 DUP5 ADD MSTORE ISZERO ISZERO PUSH2 0x100 DUP4 ADD MSTORE ISZERO ISZERO PUSH2 0x120 DUP3 ADD MSTORE PUSH2 0x140 ADD PUSH2 0x280 JUMP JUMPDEST CALLVALUE DUP1 ISZERO PUSH2 0x655 JUMPI PUSH1 0x0 DUP1 REVERT JUMPDEST POP PUSH2 0x65E PUSH2 0x22ED JUMP JUMPDEST PUSH1 0x40 MLOAD PUSH2 0x280 SWAP3 SWAP2 SWAP1 PUSH2 0x3615 JUMP JUMPDEST CALLVALUE DUP1 ISZERO PUSH2 0x678 JUMPI PUSH1 0x0 DUP1 REVERT JUMPDEST POP PUSH2 0x276 PUSH1 0x7 SLOAD DUP2 JUMP JUMPDEST CALLVALUE DUP1 ISZERO PUSH2 0x68E JUMPI PUSH1 0x0 DUP1 REVERT JUMPDEST POP PUSH2 0x307 PUSH2 0x69D CALLDATASIZE PUSH1 0x4 PUSH2 0x358B JUMP JUMPDEST PUSH1 0x17 PUSH1 0x20 SWAP1 DUP2 MSTORE PUSH1 0x0 SWAP3 DUP4 MSTORE PUSH1 0x40 DUP1 DUP5 KECCAK256 SWAP1 SWAP2 MSTORE SWAP1 DUP3 MSTORE SWAP1 KECCAK256 SLOAD PUSH1 0xFF AND DUP2 JUMP JUMPDEST CALLVALUE DUP1 ISZERO PUSH2 0x6C9 JUMPI PUSH1 0x0 DUP1 REVERT JUMPDEST POP PUSH1 0xF SLOAD PUSH2 0x49A SWAP1 PUSH1 0xFF AND DUP2 JUMP JUMPDEST CALLVALUE DUP1 ISZERO PUSH2 0x6E3 JUMPI PUSH1 0x0 DUP1 REVERT JUMPDEST POP PUSH2 0x29E PUSH2 0x6F2 CALLDATASIZE PUSH1 0x4 PUSH2 0x36D1 JUMP JUMPDEST PUSH2 0x2562 JUMP JUMPDEST CALLVALUE DUP1 ISZERO PUSH2 0x703 JUMPI PUSH1 0x0 DUP1 REVERT JUMPDEST POP PUSH2 0x276 PUSH1 0x6 SLOAD DUP2 JUMP JUMPDEST CALLVALUE DUP1 ISZERO PUSH2 0x719 JUMPI PUSH1 0x0 DUP1 REVERT JUMPDEST POP PUSH2 0x29E PUSH2 0x728 CALLDATASIZE PUSH1 0x4 PUSH2 0x3785 JUMP JUMPDEST PUSH2 0x28B1 JUMP JUMPDEST CALLVALUE DUP1 ISZERO PUSH2 0x739 JUMPI PUSH1 0x0 DUP1 REVERT JUMPDEST POP PUSH2 0x276 PUSH1 0xB SLOAD DUP2 JUMP JUMPDEST CALLVALUE DUP1 ISZERO PUSH2 0x74F JUMPI PUSH1 0x0 DUP1 REVERT JUMPDEST POP PUSH2 0x7CC PUSH2 0x75E CALLDATASIZE PUSH1 0x4 PUSH2 0x3502 JUMP JUMPDEST PUSH1 0x10 PUSH1 0x20 MSTORE PUSH1 0x0 SWAP1 DUP2 MSTORE PUSH1 0x40 SWAP1 KECCAK256 DUP1 SLOAD PUSH1 0x1 DUP3 ADD SLOAD PUSH1 0x2 DUP4 ADD SLOAD PUSH1 0x3 SWAP1 SWAP4 ADD SLOAD SWAP2 SWAP3 SWAP1 SWAP2 PUSH1 0x1 PUSH1 0x1 PUSH1 0xA0 SHL SUB DUP2 AND SWAP1 PUSH1 0xFF PUSH1 0x1 PUSH1 0xA0 SHL DUP3 DIV DUP2 AND SWAP2 PUSH1 0x1 PUSH1 0xA8 SHL DUP2 DIV DUP3 AND SWAP2 PUSH1 0x1 PUSH1 0xB0 SHL DUP3 DIV DUP2 AND SWAP2 PUSH1 0x1 PUSH1 0xB8 SHL DUP2 DIV DUP3 AND SWAP2 PUSH1 0x1 PUSH1 0xC0 SHL DUP3 DIV DUP2 AND SWAP2 PUSH1 0x1 PUSH1 0xC8 SHL SWAP1 DIV AND DUP11 JUMP JUMPDEST PUSH1 0x40 DUP1 MLOAD SWAP11 DUP12 MSTORE PUSH1 0x20 DUP12 ADD SWAP10 SWAP1 SWAP10 MSTORE SWAP8 DUP10 ADD SWAP7 SWAP1 SWAP7 MSTORE PUSH1 0x1 PUSH1 0x1 PUSH1 0xA0 SHL SUB SWAP1 SWAP5 AND PUSH1 0x60 DUP9 ADD MSTORE PUSH1 0xFF SWAP3 DUP4 AND PUSH1 0x80 DUP9 ADD MSTORE SWAP2 AND PUSH1 0xA0 DUP7 ADD MSTORE ISZERO ISZERO PUSH1 0xC0 DUP6 ADD MSTORE ISZERO ISZERO PUSH1 0xE0 DUP5 ADD MSTORE ISZERO ISZERO PUSH2 0x100 DUP4 ADD MSTORE ISZERO ISZERO PUSH2 0x120 DUP3 ADD MSTORE PUSH2 0x140 ADD PUSH2 0x280 JUMP JUMPDEST CALLVALUE DUP1 ISZERO PUSH2 0x836 JUMPI PUSH1 0x0 DUP1 REVERT JUMPDEST POP PUSH2 0x276 PUSH1 0x3 SLOAD DUP2 JUMP JUMPDEST CALLVALUE DUP1 ISZERO PUSH2 0x84C JUMPI PUSH1 0x0 DUP1 REVERT JUMPDEST POP PUSH2 0x49A PUSH2 0x85B CALLDATASIZE PUSH1 0x4 PUSH2 0x3524 JUMP JUMPDEST PUSH1 0x12 PUSH1 0x20 SWAP1 DUP2 MSTORE PUSH1 0x0 SWAP3 DUP4 MSTORE PUSH1 0x40 DUP1 DUP5 KECCAK256 SWAP1 SWAP2 MSTORE SWAP1 DUP3 MSTORE SWAP1 KECCAK256 SLOAD PUSH1 0xFF AND DUP2 JUMP JUMPDEST CALLVALUE DUP1 ISZERO PUSH2 0x887 JUMPI PUSH1 0x0 DUP1 REVERT JUMPDEST POP PUSH1 0x1 SLOAD PUSH2 0x307 SWAP1 PUSH2 0x100 SWAP1 DIV PUSH1 0xFF AND DUP2 JUMP JUMPDEST CALLVALUE DUP1 ISZERO PUSH2 0x8A6 JUMPI PUSH1 0x0 DUP1 REVERT JUMPDEST POP PUSH2 0x49A PUSH2 0x2985 JUMP JUMPDEST CALLVALUE DUP1 ISZERO PUSH2 0x8BB JUMPI PUSH1 0x0 DUP1 REVERT JUMPDEST POP PUSH2 0x49A PUSH2 0x2A28 JUMP JUMPDEST CALLVALUE DUP1 ISZERO PUSH2 0x8D0 JUMPI PUSH1 0x0 DUP1 REVERT JUMPDEST POP PUSH2 0x29E PUSH2 0x8DF CALLDATASIZE PUSH1 0x4 PUSH2 0x34BF JUMP JUMPDEST PUSH2 0x2B27 JUMP JUMPDEST CALLVALUE DUP1 ISZERO PUSH2 0x8F0 JUMPI PUSH1 0x0 DUP1 REVERT JUMPDEST POP PUSH2 0x29E PUSH2 0x8FF CALLDATASIZE PUSH1 0x4 PUSH2 0x34BF JUMP JUMPDEST PUSH2 0x2C73 JUMP JUMPDEST CALLVALUE DUP1 ISZERO PUSH2 0x910 JUMPI PUSH1 0x0 DUP1 REVERT JUMPDEST POP PUSH2 0x924 PUSH2 0x91F CALLDATASIZE PUSH1 0x4 PUSH2 0x3502 JUMP JUMPDEST PUSH2 0x2D21 JUMP JUMPDEST PUSH1 0x40 MLOAD PUSH2 0x280 SWAP4 SWAP3 SWAP2 SWAP1 PUSH2 0x37C7 JUMP JUMPDEST CALLVALUE DUP1 ISZERO PUSH2 0x93F JUMPI PUSH1 0x0 DUP1 REVERT JUMPDEST POP PUSH2 0x276 PUSH2 0x94E CALLDATASIZE PUSH1 0x4 PUSH2 0x358B JUMP JUMPDEST PUSH1 0x15 PUSH1 0x20 SWAP1 DUP2 MSTORE PUSH1 0x0 SWAP3 DUP4 MSTORE PUSH1 0x40 DUP1 DUP5 KECCAK256 SWAP1 SWAP2 MSTORE SWAP1 DUP3 MSTORE SWAP1 KECCAK256 SLOAD DUP2 JUMP JUMPDEST CALLVALUE DUP1 ISZERO PUSH2 0x977 JUMPI PUSH1 0x0 DUP1 REVERT JUMPDEST POP PUSH1 0x1 SLOAD PUSH2 0x307 SWAP1 PUSH3 0x10000 SWAP1 DIV PUSH1 0xFF AND DUP2 JUMP JUMPDEST CALLVALUE DUP1 ISZERO PUSH2 0x997 JUMPI PUSH1 0x0 DUP1 REVERT JUMPDEST POP PUSH2 0x276 PUSH1 0x4 SLOAD DUP2 JUMP JUMPDEST CALLER PUSH1 0x0 SWAP1 DUP2 MSTORE PUSH1 0x10 PUSH1 0x20 MSTORE PUSH1 0x40 SWAP1 KECCAK256 PUSH1 0x3 ADD SLOAD PUSH1 0x1 PUSH1 0xB8 SHL SWAP1 DIV PUSH1 0xFF AND PUSH2 0x9E3 JUMPI PUSH1 0x40 MLOAD PUSH3 0x461BCD PUSH1 0xE5 SHL DUP2 MSTORE PUSH1 0x4 ADD PUSH2 0x9DA SWAP1 PUSH2 0x383C JUMP JUMPDEST PUSH1 0x40 MLOAD DUP1 SWAP2 SUB SWAP1 REVERT JUMPDEST PUSH1 0x2 SLOAD PUSH1 0x3 SLOAD EQ ISZERO DUP1 ISZERO PUSH2 0xA06 JUMPI POP TIMESTAMP PUSH3 0x15180 PUSH1 0xA SLOAD PUSH2 0xA04 SWAP2 SWAP1 PUSH2 0x386F JUMP JUMPDEST GT JUMPDEST PUSH2 0xA37 JUMPI PUSH1 0x40 MLOAD PUSH3 0x461BCD PUSH1 0xE5 SHL DUP2 MSTORE PUSH1 0x20 PUSH1 0x4 DUP3 ADD MSTORE PUSH1 0x2 PUSH1 0x24 DUP3 ADD MSTORE PUSH2 0x4E41 PUSH1 0xF0 SHL PUSH1 0x44 DUP3 ADD MSTORE PUSH1 0x64 ADD PUSH2 0x9DA JUMP JUMPDEST CALLER PUSH1 0x0 SWAP1 DUP2 MSTORE PUSH1 0x14 PUSH1 0x20 SWAP1 DUP2 MSTORE PUSH1 0x40 DUP1 DUP4 KECCAK256 PUSH1 0x1 SLOAD PUSH1 0xFF AND DUP5 MSTORE SWAP1 SWAP2 MSTORE SWAP1 KECCAK256 SLOAD ISZERO PUSH2 0xA8A JUMPI PUSH1 0x40 MLOAD PUSH3 0x461BCD PUSH1 0xE5 SHL DUP2 MSTORE PUSH1 0x20 PUSH1 0x4 DUP3 ADD MSTORE PUSH1 0x3 PUSH1 0x24 DUP3 ADD MSTORE PUSH3 0x574645 PUSH1 0xE8 SHL PUSH1 0x44 DUP3 ADD MSTORE PUSH1 0x64 ADD PUSH2 0x9DA JUMP JUMPDEST CALLER PUSH1 0x0 SWAP1 DUP2 MSTORE PUSH1 0x10 PUSH1 0x20 MSTORE PUSH1 0x40 SWAP1 KECCAK256 PUSH1 0x1 ADD SLOAD PUSH2 0xACF JUMPI PUSH1 0x40 MLOAD PUSH3 0x461BCD PUSH1 0xE5 SHL DUP2 MSTORE PUSH1 0x20 PUSH1 0x4 DUP3 ADD MSTORE PUSH1 0x3 PUSH1 0x24 DUP3 ADD MSTORE PUSH3 0x2722A3 PUSH1 0xE9 SHL PUSH1 0x44 DUP3 ADD MSTORE PUSH1 0x64 ADD PUSH2 0x9DA JUMP JUMPDEST CALLER PUSH1 0x0 SWAP1 DUP2 MSTORE PUSH1 0x10 PUSH1 0x20 MSTORE PUSH1 0x40 DUP2 KECCAK256 PUSH1 0x1 ADD DUP1 SLOAD SWAP1 DUP3 SWAP1 SSTORE SWAP1 JUMPDEST PUSH1 0xD SLOAD DUP2 LT ISZERO PUSH2 0xB6A JUMPI CALLER PUSH1 0x1 PUSH1 0x1 PUSH1 0xA0 SHL SUB AND PUSH1 0xD DUP3 DUP2 SLOAD DUP2 LT PUSH2 0xB10 JUMPI PUSH2 0xB10 PUSH2 0x3887 JUMP JUMPDEST PUSH1 0x0 SWAP2 DUP3 MSTORE PUSH1 0x20 SWAP1 SWAP2 KECCAK256 ADD SLOAD PUSH1 0x1 PUSH1 0x1 PUSH1 0xA0 SHL SUB AND EQ ISZERO PUSH2 0xB58 JUMPI PUSH1 0xD DUP2 DUP2 SLOAD DUP2 LT PUSH2 0xB3E JUMPI PUSH2 0xB3E PUSH2 0x3887 JUMP JUMPDEST PUSH1 0x0 SWAP2 DUP3 MSTORE PUSH1 0x20 SWAP1 SWAP2 KECCAK256 ADD DUP1 SLOAD PUSH1 0x1 PUSH1 0x1 PUSH1 0xA0 SHL SUB NOT AND SWAP1 SSTORE JUMPDEST DUP1 PUSH2 0xB62 DUP2 PUSH2 0x389D JUMP JUMPDEST SWAP2 POP POP PUSH2 0xAE9 JUMP JUMPDEST POP CALLER PUSH1 0x0 DUP2 DUP2 MSTORE PUSH1 0x10 PUSH1 0x20 MSTORE PUSH1 0x40 DUP1 DUP3 KECCAK256 PUSH1 0x3 ADD DUP1 SLOAD PUSH1 0xFF PUSH1 0xB8 SHL NOT AND SWAP1 SSTORE MLOAD DUP4 ISZERO PUSH2 0x8FC MUL SWAP2 DUP5 SWAP2 SWAP1 DUP2 DUP2 DUP2 DUP6 DUP9 DUP9 CALL SWAP4 POP POP POP POP ISZERO DUP1 ISZERO PUSH2 0xBB1 JUMPI RETURNDATASIZE PUSH1 0x0 DUP1 RETURNDATACOPY RETURNDATASIZE PUSH1 0x0 REVERT JUMPDEST POP POP JUMP JUMPDEST PUSH1 0x0 DUP1 PUSH2 0xBC3 PUSH1 0xE DUP3 PUSH2 0x32EF JUMP JUMPDEST PUSH1 0x0 JUMPDEST PUSH1 0xD SLOAD DUP2 LT ISZERO PUSH2 0xC62 JUMPI PUSH1 0x0 PUSH1 0x10 PUSH1 0x0 PUSH1 0xD DUP5 DUP2 SLOAD DUP2 LT PUSH2 0xBE9 JUMPI PUSH2 0xBE9 PUSH2 0x3887 JUMP JUMPDEST PUSH1 0x0 SWAP2 DUP3 MSTORE PUSH1 0x20 DUP1 DUP4 KECCAK256 SWAP1 SWAP2 ADD SLOAD PUSH1 0x1 PUSH1 0x1 PUSH1 0xA0 SHL SUB AND DUP4 MSTORE DUP3 ADD SWAP3 SWAP1 SWAP3 MSTORE PUSH1 0x40 ADD SWAP1 KECCAK256 PUSH1 0x3 DUP2 ADD SLOAD SWAP1 SWAP2 POP PUSH1 0xFF PUSH1 0x1 PUSH1 0xA0 SHL SWAP1 SWAP2 DIV AND PUSH1 0x1 EQ ISZERO PUSH2 0xC4F JUMPI PUSH1 0xC SLOAD DUP2 PUSH1 0x1 ADD SLOAD PUSH2 0xC3A SWAP2 SWAP1 PUSH2 0x38B8 JUMP JUMPDEST PUSH1 0x1 DUP3 ADD SSTORE PUSH1 0xC SLOAD PUSH2 0xC4C SWAP1 DUP5 PUSH2 0x386F JUMP JUMPDEST SWAP3 POP JUMPDEST POP DUP1 PUSH2 0xC5A DUP2 PUSH2 0x389D JUMP JUMPDEST SWAP2 POP POP PUSH2 0xBC6 JUMP JUMPDEST POP PUSH1 0x0 JUMPDEST PUSH1 0xD SLOAD DUP2 LT ISZERO PUSH2 0xF9D JUMPI PUSH1 0x0 PUSH1 0x10 PUSH1 0x0 PUSH1 0xD DUP5 DUP2 SLOAD DUP2 LT PUSH2 0xC89 JUMPI PUSH2 0xC89 PUSH2 0x3887 JUMP JUMPDEST PUSH1 0x0 SWAP2 DUP3 MSTORE PUSH1 0x20 DUP1 DUP4 KECCAK256 SWAP1 SWAP2 ADD SLOAD PUSH1 0x1 PUSH1 0x1 PUSH1 0xA0 SHL SUB AND DUP4 MSTORE DUP3 ADD SWAP3 SWAP1 SWAP3 MSTORE PUSH1 0x40 ADD SWAP1 KECCAK256 PUSH1 0x3 DUP2 ADD SLOAD SWAP1 SWAP2 POP PUSH1 0xFF PUSH1 0x1 PUSH1 0xB8 SHL SWAP1 SWAP2 DIV AND ISZERO PUSH2 0xF8A JUMPI PUSH1 0x0 DUP2 PUSH1 0x2 ADD SLOAD SLT ISZERO PUSH2 0xF74 JUMPI PUSH1 0x3 DUP2 ADD SLOAD PUSH1 0x1 DUP1 SLOAD PUSH1 0xFF PUSH1 0x1 PUSH1 0xA8 SHL SWAP1 SWAP4 DIV DUP4 AND SWAP3 DUP3 SWAP2 PUSH2 0xCFB SWAP2 DUP6 SWAP2 PUSH2 0x100 SWAP1 DIV AND PUSH2 0x38CF JUMP JUMPDEST SWAP3 POP PUSH2 0x100 EXP DUP2 SLOAD DUP2 PUSH1 0xFF MUL NOT AND SWAP1 DUP4 PUSH1 0xFF AND MUL OR SWAP1 SSTORE POP PUSH1 0x0 PUSH1 0x1 PUSH1 0x2 SWAP1 SLOAD SWAP1 PUSH2 0x100 EXP SWAP1 DIV PUSH1 0xFF AND PUSH1 0xFF AND DUP3 PUSH1 0x1 ADD SLOAD PUSH2 0xD37 SWAP2 SWAP1 PUSH2 0x38F2 JUMP JUMPDEST PUSH1 0x1 SLOAD PUSH1 0x5 SLOAD SWAP2 SWAP3 POP PUSH2 0xD54 SWAP2 PUSH3 0x10000 SWAP1 SWAP2 DIV PUSH1 0xFF AND SWAP1 PUSH2 0x38F2 JUMP JUMPDEST DUP3 PUSH1 0x1 ADD SLOAD GT ISZERO PUSH2 0xE5E JUMPI PUSH1 0x3 DUP3 ADD DUP1 SLOAD PUSH1 0xFF PUSH1 0xB0 SHL NOT DUP2 AND PUSH1 0x1 PUSH1 0xB0 SHL OR DUP3 SSTORE PUSH1 0xE DUP1 SLOAD PUSH1 0x1 DUP2 DUP2 ADD DUP4 SSTORE PUSH1 0x0 SWAP3 SWAP1 SWAP3 MSTORE PUSH32 0xBB7B4A454DC3493923482F07822329ED19E8244EFF582CC204F8554C3620C3FD ADD DUP1 SLOAD PUSH1 0x1 PUSH1 0x1 PUSH1 0xA0 SHL SUB NOT AND PUSH1 0x1 PUSH1 0x1 PUSH1 0xA0 SHL SUB SWAP1 SWAP4 AND SWAP3 SWAP1 SWAP3 OR SWAP1 SWAP2 SSTORE DUP2 SLOAD PUSH1 0xFF PUSH1 0xC0 SHL NOT AND SWAP1 SWAP2 SSTORE DUP3 ADD SLOAD PUSH2 0xDE0 SWAP1 DUP3 SWAP1 PUSH2 0x38B8 JUMP JUMPDEST PUSH1 0x1 DUP4 ADD SSTORE PUSH1 0x2 DUP3 ADD SLOAD PUSH2 0xDF5 SWAP1 DUP3 SWAP1 PUSH2 0x3914 JUMP JUMPDEST PUSH1 0x2 DUP4 ADD SSTORE PUSH2 0xE04 DUP2 DUP7 PUSH2 0x386F JUMP JUMPDEST PUSH1 0x3 DUP4 ADD SLOAD PUSH1 0x2 DUP5 ADD SLOAD PUSH1 0x1 DUP6 ADD SLOAD PUSH1 0x40 MLOAD SWAP4 SWAP9 POP PUSH32 0x641368B934D33E657FE49C6AF1C0E5B618D4DC123F53FC3F8D5F15FEE5F4FB86 SWAP4 PUSH2 0xE51 SWAP4 PUSH1 0x1 PUSH1 0x1 PUSH1 0xA0 SHL SUB AND SWAP3 SWAP2 DUP7 SWAP2 PUSH2 0x3953 JUMP JUMPDEST PUSH1 0x40 MLOAD DUP1 SWAP2 SUB SWAP1 LOG1 PUSH2 0xF6E JUMP JUMPDEST PUSH1 0x3 DUP3 ADD DUP1 SLOAD PUSH2 0xFFFF PUSH1 0xB0 SHL NOT DUP2 AND PUSH1 0x1 PUSH1 0xB0 SHL OR DUP3 SSTORE PUSH1 0xE DUP1 SLOAD PUSH1 0x1 DUP2 DUP2 ADD DUP4 SSTORE PUSH1 0x0 SWAP3 SWAP1 SWAP3 MSTORE PUSH32 0xBB7B4A454DC3493923482F07822329ED19E8244EFF582CC204F8554C3620C3FD ADD DUP1 SLOAD PUSH1 0x1 PUSH1 0x1 PUSH1 0xA0 SHL SUB NOT AND PUSH1 0x1 PUSH1 0x1 PUSH1 0xA0 SHL SUB SWAP1 SWAP4 AND SWAP3 SWAP1 SWAP3 OR SWAP1 SWAP2 SSTORE DUP2 SLOAD PUSH1 0xFF PUSH1 0xC0 SHL NOT AND SWAP1 SWAP2 SSTORE DUP3 ADD SLOAD PUSH2 0xEDF SWAP1 DUP7 PUSH2 0x386F JUMP JUMPDEST PUSH1 0x3 DUP4 ADD SLOAD PUSH1 0x2 DUP5 ADD SLOAD PUSH1 0x1 DUP6 ADD SLOAD PUSH1 0x40 MLOAD SWAP4 SWAP9 POP PUSH32 0x6A461179A109AC5A4F65774B04343A475DD7D089FFA5A31552A4D71E0A1E7B4F SWAP4 PUSH2 0xF2E SWAP4 PUSH1 0x1 PUSH1 0x1 PUSH1 0xA0 SHL SUB AND SWAP3 SWAP2 SWAP1 PUSH1 0x0 SWAP1 PUSH2 0x3953 JUMP JUMPDEST PUSH1 0x40 MLOAD DUP1 SWAP2 SUB SWAP1 LOG1 PUSH1 0x0 DUP3 PUSH1 0x1 ADD DUP2 SWAP1 SSTORE POP PUSH1 0x1 PUSH1 0x2 PUSH1 0x0 DUP3 DUP3 SLOAD PUSH2 0xF53 SWAP2 SWAP1 PUSH2 0x38B8 JUMP JUMPDEST SWAP1 SWAP2 SSTORE POP POP PUSH1 0x3 DUP3 ADD DUP1 SLOAD PUSH1 0xFF PUSH1 0xC8 SHL NOT AND PUSH1 0x1 PUSH1 0xC8 SHL OR SWAP1 SSTORE JUMPDEST POP PUSH2 0xF8A JUMP JUMPDEST PUSH1 0x3 DUP2 ADD DUP1 SLOAD PUSH1 0xFF PUSH1 0xC0 SHL NOT AND PUSH1 0x1 PUSH1 0xC0 SHL OR SWAP1 SSTORE JUMPDEST POP DUP1 PUSH2 0xF95 DUP2 PUSH2 0x389D JUMP JUMPDEST SWAP2 POP POP PUSH2 0xC66 JUMP JUMPDEST POP PUSH1 0x0 JUMPDEST PUSH1 0xD SLOAD DUP2 LT ISZERO PUSH2 0x11A5 JUMPI PUSH1 0x0 PUSH1 0x10 PUSH1 0x0 PUSH1 0xD DUP5 DUP2 SLOAD DUP2 LT PUSH2 0xFC4 JUMPI PUSH2 0xFC4 PUSH2 0x3887 JUMP JUMPDEST PUSH1 0x0 SWAP2 DUP3 MSTORE PUSH1 0x20 DUP1 DUP4 KECCAK256 SWAP1 SWAP2 ADD SLOAD PUSH1 0x1 PUSH1 0x1 PUSH1 0xA0 SHL SUB AND DUP4 MSTORE DUP3 ADD SWAP3 SWAP1 SWAP3 MSTORE PUSH1 0x40 ADD SWAP1 KECCAK256 PUSH1 0x3 DUP2 ADD SLOAD SWAP1 SWAP2 POP PUSH1 0xFF PUSH1 0x1 PUSH1 0xB8 SHL SWAP1 SWAP2 DIV AND ISZERO PUSH2 0x1192 JUMPI PUSH1 0x0 JUMPDEST PUSH1 0xE SLOAD DUP2 LT ISZERO PUSH2 0x1190 JUMPI PUSH1 0x3 DUP3 ADD SLOAD PUSH1 0x1 PUSH1 0x1 PUSH1 0xA0 SHL SUB AND PUSH1 0x0 SWAP1 DUP2 MSTORE PUSH1 0x12 PUSH1 0x20 MSTORE PUSH1 0x40 DUP2 KECCAK256 PUSH1 0xE DUP1 SLOAD SWAP2 SWAP3 SWAP2 DUP5 SWAP1 DUP2 LT PUSH2 0x1040 JUMPI PUSH2 0x1040 PUSH2 0x3887 JUMP JUMPDEST PUSH1 0x0 SWAP2 DUP3 MSTORE PUSH1 0x20 DUP1 DUP4 KECCAK256 SWAP1 SWAP2 ADD SLOAD PUSH1 0x1 PUSH1 0x1 PUSH1 0xA0 SHL SUB AND DUP4 MSTORE DUP3 ADD SWAP3 SWAP1 SWAP3 MSTORE PUSH1 0x40 ADD SWAP1 KECCAK256 SLOAD PUSH1 0xFF AND ISZERO PUSH2 0x117E JUMPI PUSH1 0x3 DUP3 ADD SLOAD PUSH1 0x1 PUSH1 0x1 PUSH1 0xA0 SHL SUB AND PUSH1 0x0 SWAP1 DUP2 MSTORE PUSH1 0x12 PUSH1 0x20 MSTORE PUSH1 0x40 DUP2 KECCAK256 PUSH1 0xE DUP1 SLOAD DUP4 SWAP2 SWAP1 DUP6 SWAP1 DUP2 LT PUSH2 0x10A0 JUMPI PUSH2 0x10A0 PUSH2 0x3887 JUMP JUMPDEST PUSH1 0x0 SWAP2 DUP3 MSTORE PUSH1 0x20 DUP1 DUP4 KECCAK256 SWAP2 SWAP1 SWAP2 ADD SLOAD PUSH1 0x1 PUSH1 0x1 PUSH1 0xA0 SHL SUB AND DUP4 MSTORE DUP3 ADD SWAP3 SWAP1 SWAP3 MSTORE PUSH1 0x40 ADD SWAP1 KECCAK256 DUP1 SLOAD PUSH1 0xFF NOT AND SWAP2 ISZERO ISZERO SWAP2 SWAP1 SWAP2 OR SWAP1 SSTORE PUSH1 0x3 DUP3 ADD SLOAD PUSH1 0x1 DUP1 SLOAD PUSH1 0xFF PUSH1 0x1 PUSH1 0xA8 SHL SWAP1 SWAP4 DIV DUP4 AND SWAP3 DUP3 SWAP2 PUSH2 0x10FD SWAP2 DUP6 SWAP2 PUSH2 0x100 SWAP1 DIV AND PUSH2 0x38CF JUMP JUMPDEST DUP3 SLOAD PUSH1 0xFF SWAP2 DUP3 AND PUSH2 0x100 SWAP4 SWAP1 SWAP4 EXP SWAP3 DUP4 MUL SWAP2 SWAP1 SWAP3 MUL NOT SWAP1 SWAP2 AND OR SWAP1 SSTORE POP PUSH1 0x3 DUP3 ADD DUP1 SLOAD PUSH1 0xFF PUSH1 0xC0 SHL NOT DUP2 AND SWAP1 SWAP2 SSTORE PUSH1 0x2 DUP4 ADD SLOAD PUSH1 0x1 DUP5 ADD SLOAD PUSH1 0x40 MLOAD PUSH32 0x1774DD77FAAF323CD25B2F963FF975744949B339A6D103B4E3959263F6C2F977 SWAP4 PUSH2 0x1175 SWAP4 PUSH1 0x1 PUSH1 0x1 PUSH1 0xA0 SHL SUB SWAP1 SWAP2 AND SWAP3 SWAP1 SWAP2 PUSH1 0x0 SWAP2 SWAP1 PUSH2 0x3953 JUMP JUMPDEST PUSH1 0x40 MLOAD DUP1 SWAP2 SUB SWAP1 LOG1 JUMPDEST DUP1 PUSH2 0x1188 DUP2 PUSH2 0x389D JUMP JUMPDEST SWAP2 POP POP PUSH2 0x1003 JUMP JUMPDEST POP JUMPDEST POP DUP1 PUSH2 0x119D DUP2 PUSH2 0x389D JUMP JUMPDEST SWAP2 POP POP PUSH2 0xFA1 JUMP JUMPDEST POP PUSH1 0x0 JUMPDEST PUSH1 0xD SLOAD DUP2 LT ISZERO PUSH2 0x1291 JUMPI PUSH1 0x0 PUSH1 0x10 PUSH1 0x0 PUSH1 0xD DUP5 DUP2 SLOAD DUP2 LT PUSH2 0x11CC JUMPI PUSH2 0x11CC PUSH2 0x3887 JUMP JUMPDEST PUSH1 0x0 SWAP2 DUP3 MSTORE PUSH1 0x20 DUP1 DUP4 KECCAK256 SWAP1 SWAP2 ADD SLOAD PUSH1 0x1 PUSH1 0x1 PUSH1 0xA0 SHL SUB AND DUP4 MSTORE DUP3 ADD SWAP3 SWAP1 SWAP3 MSTORE PUSH1 0x40 ADD SWAP1 KECCAK256 PUSH1 0x3 DUP2 ADD SLOAD SWAP1 SWAP2 POP PUSH1 0xFF PUSH1 0x1 PUSH1 0xB8 SHL SWAP1 SWAP2 DIV AND ISZERO PUSH2 0x127E JUMPI PUSH1 0x3 DUP2 ADD SLOAD PUSH1 0x1 PUSH1 0xA0 SHL SWAP1 DIV PUSH1 0xFF AND PUSH1 0x1 EQ ISZERO PUSH2 0x127E JUMPI PUSH1 0x3 DUP2 ADD SLOAD PUSH1 0x1 PUSH1 0xC0 SHL SWAP1 DIV PUSH1 0xFF AND ISZERO PUSH2 0x125E JUMPI PUSH1 0xC SLOAD DUP2 PUSH1 0x1 ADD SLOAD PUSH2 0x1245 SWAP2 SWAP1 PUSH2 0x386F JUMP JUMPDEST PUSH1 0x1 DUP3 ADD SSTORE PUSH1 0xC SLOAD PUSH2 0x1257 SWAP1 DUP5 PUSH2 0x38B8 JUMP JUMPDEST SWAP3 POP PUSH2 0x127E JUMP JUMPDEST PUSH1 0xC SLOAD PUSH2 0x126B SWAP1 DUP6 PUSH2 0x386F JUMP JUMPDEST SWAP4 POP PUSH1 0xC SLOAD DUP4 PUSH2 0x127B SWAP2 SWAP1 PUSH2 0x38B8 JUMP JUMPDEST SWAP3 POP JUMPDEST POP DUP1 PUSH2 0x1289 DUP2 PUSH2 0x389D JUMP JUMPDEST SWAP2 POP POP PUSH2 0x11A9 JUMP JUMPDEST POP PUSH1 0x1 SLOAD PUSH1 0x0 SWAP1 DUP2 SWAP1 PUSH2 0x100 SWAP1 DIV PUSH1 0xFF AND ISZERO DUP1 ISZERO SWAP1 PUSH2 0x12B4 JUMPI POP PUSH1 0x8 SLOAD PUSH1 0x9 SLOAD LT ISZERO JUMPDEST ISZERO PUSH2 0x1AC0 JUMPI PUSH1 0x8 SLOAD PUSH1 0x9 PUSH1 0x0 DUP3 DUP3 SLOAD PUSH2 0x12CD SWAP2 SWAP1 PUSH2 0x38B8 JUMP JUMPDEST SWAP1 SWAP2 SSTORE POP POP PUSH1 0x8 SLOAD DUP5 ISZERO PUSH2 0x12E8 JUMPI PUSH2 0x12E5 DUP6 DUP3 PUSH2 0x386F JUMP JUMPDEST SWAP1 POP JUMPDEST PUSH1 0x0 JUMPDEST PUSH1 0xD SLOAD DUP2 LT ISZERO PUSH2 0x1448 JUMPI PUSH1 0x0 PUSH1 0x10 PUSH1 0x0 PUSH1 0xD DUP5 DUP2 SLOAD DUP2 LT PUSH2 0x130E JUMPI PUSH2 0x130E PUSH2 0x3887 JUMP JUMPDEST PUSH1 0x0 SWAP2 DUP3 MSTORE PUSH1 0x20 DUP1 DUP4 KECCAK256 SWAP1 SWAP2 ADD SLOAD PUSH1 0x1 PUSH1 0x1 PUSH1 0xA0 SHL SUB AND DUP4 MSTORE DUP3 ADD SWAP3 SWAP1 SWAP3 MSTORE PUSH1 0x40 ADD SWAP1 KECCAK256 PUSH1 0x3 DUP2 ADD SLOAD SWAP1 SWAP2 POP PUSH1 0xFF PUSH1 0x1 PUSH1 0xB8 SHL SWAP1 SWAP2 DIV AND DUP1 ISZERO PUSH2 0x135C JUMPI POP PUSH1 0x3 DUP2 ADD SLOAD PUSH1 0x1 PUSH1 0xC0 SHL SWAP1 DIV PUSH1 0xFF AND JUMPDEST DUP1 ISZERO PUSH2 0x1374 JUMPI POP PUSH1 0x3 DUP2 ADD SLOAD PUSH1 0x1 PUSH1 0xB0 SHL SWAP1 DIV PUSH1 0xFF AND ISZERO JUMPDEST ISZERO PUSH2 0x1435 JUMPI PUSH1 0x1 SLOAD PUSH1 0xFF AND PUSH1 0x0 SWAP1 DUP2 MSTORE PUSH1 0x15 PUSH1 0x20 SWAP1 DUP2 MSTORE PUSH1 0x40 DUP1 DUP4 KECCAK256 PUSH1 0x3 DUP6 ADD SLOAD PUSH1 0x1 PUSH1 0x1 PUSH1 0xA0 SHL SUB AND DUP5 MSTORE SWAP1 SWAP2 MSTORE DUP2 KECCAK256 SLOAD PUSH2 0x13AF SWAP1 PUSH2 0x31A5 JUMP JUMPDEST PUSH1 0x3 DUP4 ADD SLOAD PUSH2 0x13C8 SWAP2 SWAP1 PUSH1 0x1 PUSH1 0xA8 SHL SWAP1 DIV PUSH1 0xFF AND PUSH2 0x3979 JUMP JUMPDEST PUSH1 0x1 SLOAD PUSH1 0xFF AND PUSH1 0x0 SWAP1 DUP2 MSTORE PUSH1 0x15 PUSH1 0x20 SWAP1 DUP2 MSTORE PUSH1 0x40 DUP1 DUP4 KECCAK256 PUSH1 0x3 DUP8 ADD SLOAD PUSH1 0x1 PUSH1 0x1 PUSH1 0xA0 SHL SUB AND DUP5 MSTORE SWAP1 SWAP2 MSTORE DUP2 KECCAK256 SLOAD SWAP2 SWAP3 POP SGT PUSH2 0x140B JUMPI PUSH2 0x1406 DUP2 PUSH2 0x3998 JUMP JUMPDEST PUSH2 0x140D JUMP JUMPDEST DUP1 JUMPDEST DUP3 PUSH1 0x0 ADD PUSH1 0x0 DUP3 DUP3 SLOAD PUSH2 0x1420 SWAP2 SWAP1 PUSH2 0x39B5 JUMP JUMPDEST SWAP1 SWAP2 SSTORE POP POP DUP2 SLOAD PUSH2 0x1431 SWAP1 DUP8 PUSH2 0x39B5 JUMP JUMPDEST SWAP6 POP POP JUMPDEST POP DUP1 PUSH2 0x1440 DUP2 PUSH2 0x389D JUMP JUMPDEST SWAP2 POP POP PUSH2 0x12EB JUMP JUMPDEST POP PUSH1 0x0 JUMPDEST PUSH1 0xD SLOAD DUP2 LT ISZERO PUSH2 0x167D JUMPI PUSH1 0x0 PUSH1 0x10 PUSH1 0x0 PUSH1 0xD DUP5 DUP2 SLOAD DUP2 LT PUSH2 0x146F JUMPI PUSH2 0x146F PUSH2 0x3887 JUMP JUMPDEST PUSH1 0x0 SWAP2 DUP3 MSTORE PUSH1 0x20 DUP1 DUP4 KECCAK256 SWAP1 SWAP2 ADD SLOAD PUSH1 0x1 PUSH1 0x1 PUSH1 0xA0 SHL SUB AND DUP4 MSTORE DUP3 ADD SWAP3 SWAP1 SWAP3 MSTORE PUSH1 0x40 ADD SWAP1 KECCAK256 PUSH1 0x3 DUP2 ADD SLOAD SWAP1 SWAP2 POP PUSH1 0xFF PUSH1 0x1 PUSH1 0xB8 SHL SWAP1 SWAP2 DIV AND DUP1 ISZERO PUSH2 0x14BD JUMPI POP PUSH1 0x3 DUP2 ADD SLOAD PUSH1 0x1 PUSH1 0xC0 SHL SWAP1 DIV PUSH1 0xFF AND JUMPDEST DUP1 ISZERO PUSH2 0x14D5 JUMPI POP PUSH1 0x3 DUP2 ADD SLOAD PUSH1 0x1 PUSH1 0xB0 SHL SWAP1 DIV PUSH1 0xFF AND ISZERO JUMPDEST ISZERO PUSH2 0x166A JUMPI PUSH1 0x0 DUP6 SGT ISZERO PUSH2 0x14E9 JUMPI DUP5 PUSH2 0x14EC JUMP JUMPDEST PUSH1 0x1 JUMPDEST SWAP4 POP PUSH1 0x0 DUP5 PUSH2 0x14FE DUP4 PUSH1 0x0 ADD SLOAD PUSH2 0x31DF JUMP JUMPDEST PUSH2 0x1508 SWAP1 DUP7 PUSH2 0x3979 JUMP JUMPDEST PUSH2 0x1512 SWAP2 SWAP1 PUSH2 0x38F2 JUMP JUMPDEST PUSH1 0x1 SLOAD PUSH1 0xFF AND PUSH1 0x0 SWAP1 DUP2 MSTORE PUSH1 0x15 PUSH1 0x20 SWAP1 DUP2 MSTORE PUSH1 0x40 DUP1 DUP4 KECCAK256 PUSH1 0x3 DUP8 ADD SLOAD PUSH1 0x1 PUSH1 0x1 PUSH1 0xA0 SHL SUB AND DUP5 MSTORE SWAP1 SWAP2 MSTORE DUP2 KECCAK256 SLOAD SWAP2 SWAP3 POP SGT DUP1 ISZERO PUSH2 0x156A JUMPI POP PUSH1 0x1 SLOAD PUSH2 0x1562 SWAP1 PUSH5 0x100000000 SWAP1 DIV PUSH1 0xFF AND DUP3 PUSH2 0x3979 JUMP JUMPDEST DUP3 PUSH1 0x1 ADD SLOAD GT ISZERO JUMPDEST ISZERO PUSH2 0x1668 JUMPI PUSH1 0x1 DUP3 ADD SLOAD PUSH2 0x157E SWAP1 DUP6 PUSH2 0x386F JUMP JUMPDEST PUSH1 0x3 DUP4 ADD SLOAD PUSH1 0x2 DUP5 ADD SLOAD PUSH1 0x1 DUP6 ADD SLOAD PUSH1 0x40 MLOAD SWAP4 SWAP8 POP PUSH32 0x6A461179A109AC5A4F65774B04343A475DD7D089FFA5A31552A4D71E0A1E7B4F SWAP4 PUSH2 0x15CD SWAP4 PUSH1 0x1 PUSH1 0x1 PUSH1 0xA0 SHL SUB AND SWAP3 SWAP2 SWAP1 PUSH1 0x0 SWAP1 PUSH2 0x3953 JUMP JUMPDEST PUSH1 0x40 MLOAD DUP1 SWAP2 SUB SWAP1 LOG1 PUSH1 0x1 SLOAD PUSH1 0xFF AND PUSH1 0x0 SWAP1 DUP2 MSTORE PUSH1 0x15 PUSH1 0x20 SWAP1 DUP2 MSTORE PUSH1 0x40 DUP1 DUP4 KECCAK256 PUSH1 0x3 DUP7 ADD SLOAD PUSH1 0x1 PUSH1 0x1 PUSH1 0xA0 SHL SUB AND DUP5 MSTORE SWAP1 SWAP2 MSTORE SWAP1 KECCAK256 SLOAD PUSH2 0x160B SWAP1 PUSH2 0x31A5 JUMP JUMPDEST PUSH1 0x3 DUP4 ADD SLOAD PUSH2 0x1624 SWAP2 SWAP1 PUSH1 0x1 PUSH1 0xA8 SHL SWAP1 DIV PUSH1 0xFF AND PUSH2 0x3979 JUMP JUMPDEST PUSH2 0x162E SWAP1 DUP8 PUSH2 0x39B5 JUMP JUMPDEST SWAP6 POP PUSH1 0x0 DUP3 PUSH1 0x1 ADD DUP2 SWAP1 SSTORE POP PUSH1 0x1 PUSH1 0x2 PUSH1 0x0 DUP3 DUP3 SLOAD PUSH2 0x164D SWAP2 SWAP1 PUSH2 0x38B8 JUMP JUMPDEST SWAP1 SWAP2 SSTORE POP POP PUSH1 0x3 DUP3 ADD DUP1 SLOAD PUSH1 0xFF PUSH1 0xC8 SHL NOT AND PUSH1 0x1 PUSH1 0xC8 SHL OR SWAP1 SSTORE JUMPDEST POP JUMPDEST POP DUP1 PUSH2 0x1675 DUP2 PUSH2 0x389D JUMP JUMPDEST SWAP2 POP POP PUSH2 0x144C JUMP JUMPDEST POP PUSH1 0x0 DUP4 SGT ISZERO PUSH2 0x168D JUMPI DUP3 PUSH2 0x1690 JUMP JUMPDEST PUSH1 0x1 JUMPDEST SWAP2 POP PUSH1 0x0 DUP1 PUSH1 0x0 JUMPDEST PUSH1 0xD SLOAD DUP2 LT ISZERO PUSH2 0x1830 JUMPI PUSH1 0x0 PUSH1 0x10 PUSH1 0x0 PUSH1 0xD DUP5 DUP2 SLOAD DUP2 LT PUSH2 0x16BB JUMPI PUSH2 0x16BB PUSH2 0x3887 JUMP JUMPDEST PUSH1 0x0 SWAP2 DUP3 MSTORE PUSH1 0x20 DUP1 DUP4 KECCAK256 SWAP1 SWAP2 ADD SLOAD PUSH1 0x1 PUSH1 0x1 PUSH1 0xA0 SHL SUB AND DUP4 MSTORE DUP3 ADD SWAP3 SWAP1 SWAP3 MSTORE PUSH1 0x40 ADD SWAP1 KECCAK256 PUSH1 0x3 DUP2 ADD SLOAD SWAP1 SWAP2 POP PUSH1 0xFF PUSH1 0x1 PUSH1 0xB8 SHL SWAP1 SWAP2 DIV AND DUP1 ISZERO PUSH2 0x1709 JUMPI POP PUSH1 0x3 DUP2 ADD SLOAD PUSH1 0x1 PUSH1 0xC0 SHL SWAP1 DIV PUSH1 0xFF AND JUMPDEST DUP1 ISZERO PUSH2 0x1721 JUMPI POP PUSH1 0x3 DUP2 ADD SLOAD PUSH1 0x1 PUSH1 0xB0 SHL SWAP1 DIV PUSH1 0xFF AND ISZERO JUMPDEST DUP1 ISZERO PUSH2 0x1757 JUMPI POP PUSH1 0x1 SLOAD PUSH1 0xFF AND PUSH1 0x0 SWAP1 DUP2 MSTORE PUSH1 0x15 PUSH1 0x20 SWAP1 DUP2 MSTORE PUSH1 0x40 DUP1 DUP4 KECCAK256 PUSH1 0x3 DUP6 ADD SLOAD PUSH1 0x1 PUSH1 0x1 PUSH1 0xA0 SHL SUB AND DUP5 MSTORE SWAP1 SWAP2 MSTORE DUP2 KECCAK256 SLOAD SLT JUMPDEST ISZERO PUSH2 0x181D JUMPI PUSH1 0x0 DUP7 PUSH2 0x176C DUP4 PUSH1 0x0 ADD SLOAD PUSH2 0x31DF JUMP JUMPDEST PUSH2 0x1776 SWAP1 DUP9 PUSH2 0x3979 JUMP JUMPDEST PUSH2 0x1780 SWAP2 SWAP1 PUSH2 0x38F2 JUMP JUMPDEST PUSH1 0x1 SLOAD SWAP1 SWAP2 POP PUSH1 0x0 SWAP1 PUSH2 0x179E SWAP1 PUSH5 0x100000000 SWAP1 DIV PUSH1 0xFF AND DUP4 PUSH2 0x3979 JUMP JUMPDEST SWAP1 POP DUP1 DUP4 PUSH1 0x1 ADD PUSH1 0x0 DUP3 DUP3 SLOAD PUSH2 0x17B4 SWAP2 SWAP1 PUSH2 0x38B8 JUMP JUMPDEST SWAP1 SWAP2 SSTORE POP PUSH2 0x17C4 SWAP1 POP DUP2 DUP8 PUSH2 0x386F JUMP JUMPDEST PUSH1 0x3 DUP5 ADD SLOAD PUSH1 0x2 DUP6 ADD SLOAD PUSH1 0x1 DUP7 ADD SLOAD PUSH1 0x40 MLOAD SWAP4 SWAP10 POP PUSH32 0xF002DA1CC235DD7B3CD93CB91C128FE6E777FB632383DA5FF2603123883748B1 SWAP4 PUSH2 0x1812 SWAP4 PUSH1 0x1 PUSH1 0x1 PUSH1 0xA0 SHL SUB AND SWAP3 SWAP2 PUSH1 0x0 SWAP2 PUSH2 0x3953 JUMP JUMPDEST PUSH1 0x40 MLOAD DUP1 SWAP2 SUB SWAP1 LOG1 POP POP JUMPDEST POP DUP1 PUSH2 0x1828 DUP2 PUSH2 0x389D JUMP JUMPDEST SWAP2 POP POP PUSH2 0x1698 JUMP JUMPDEST POP PUSH2 0x183B DUP3 DUP5 PUSH2 0x386F JUMP JUMPDEST SWAP3 POP PUSH1 0x0 JUMPDEST PUSH1 0xD SLOAD DUP2 LT ISZERO PUSH2 0x1926 JUMPI PUSH1 0x0 PUSH1 0x10 PUSH1 0x0 PUSH1 0xD DUP5 DUP2 SLOAD DUP2 LT PUSH2 0x1863 JUMPI PUSH2 0x1863 PUSH2 0x3887 JUMP JUMPDEST PUSH1 0x0 SWAP2 DUP3 MSTORE PUSH1 0x20 DUP1 DUP4 KECCAK256 SWAP1 SWAP2 ADD SLOAD PUSH1 0x1 PUSH1 0x1 PUSH1 0xA0 SHL SUB AND DUP4 MSTORE DUP3 ADD SWAP3 SWAP1 SWAP3 MSTORE PUSH1 0x40 ADD SWAP1 KECCAK256 PUSH1 0x3 DUP2 ADD SLOAD SWAP1 SWAP2 POP PUSH1 0xFF PUSH1 0x1 PUSH1 0xB8 SHL SWAP1 SWAP2 DIV AND DUP1 ISZERO PUSH2 0x18B1 JUMPI POP PUSH1 0x3 DUP2 ADD SLOAD PUSH1 0x1 PUSH1 0xC0 SHL SWAP1 DIV PUSH1 0xFF AND JUMPDEST DUP1 ISZERO PUSH2 0x18C9 JUMPI POP PUSH1 0x3 DUP2 ADD SLOAD PUSH1 0x1 PUSH1 0xB0 SHL SWAP1 DIV PUSH1 0xFF AND ISZERO JUMPDEST DUP1 ISZERO PUSH2 0x18FF JUMPI POP PUSH1 0x1 SLOAD PUSH1 0xFF AND PUSH1 0x0 SWAP1 DUP2 MSTORE PUSH1 0x15 PUSH1 0x20 SWAP1 DUP2 MSTORE PUSH1 0x40 DUP1 DUP4 KECCAK256 PUSH1 0x3 DUP6 ADD SLOAD PUSH1 0x1 PUSH1 0x1 PUSH1 0xA0 SHL SUB AND DUP5 MSTORE SWAP1 SWAP2 MSTORE DUP2 KECCAK256 SLOAD SGT JUMPDEST ISZERO PUSH2 0x1913 JUMPI DUP1 SLOAD PUSH2 0x1910 SWAP1 DUP5 PUSH2 0x386F JUMP JUMPDEST SWAP3 POP JUMPDEST POP DUP1 PUSH2 0x191E DUP2 PUSH2 0x389D JUMP JUMPDEST SWAP2 POP POP PUSH2 0x1840 JUMP JUMPDEST POP DUP1 ISZERO PUSH2 0x1933 JUMPI DUP1 PUSH2 0x1936 JUMP JUMPDEST PUSH1 0x1 JUMPDEST SWAP1 POP PUSH1 0x0 JUMPDEST PUSH1 0xD SLOAD DUP2 LT ISZERO PUSH2 0x1ABB JUMPI PUSH1 0x0 PUSH1 0x10 PUSH1 0x0 PUSH1 0xD DUP5 DUP2 SLOAD DUP2 LT PUSH2 0x195E JUMPI PUSH2 0x195E PUSH2 0x3887 JUMP JUMPDEST PUSH1 0x0 SWAP2 DUP3 MSTORE PUSH1 0x20 DUP1 DUP4 KECCAK256 SWAP1 SWAP2 ADD SLOAD PUSH1 0x1 PUSH1 0x1 PUSH1 0xA0 SHL SUB AND DUP4 MSTORE DUP3 ADD SWAP3 SWAP1 SWAP3 MSTORE PUSH1 0x40 ADD SWAP1 KECCAK256 PUSH1 0x3 DUP2 ADD SLOAD SWAP1 SWAP2 POP PUSH1 0xFF PUSH1 0x1 PUSH1 0xB8 SHL SWAP1 SWAP2 DIV AND DUP1 ISZERO PUSH2 0x19AC JUMPI POP PUSH1 0x3 DUP2 ADD SLOAD PUSH1 0x1 PUSH1 0xC0 SHL SWAP1 DIV PUSH1 0xFF AND JUMPDEST DUP1 ISZERO PUSH2 0x19C4 JUMPI POP PUSH1 0x3 DUP2 ADD SLOAD PUSH1 0x1 PUSH1 0xB0 SHL SWAP1 DIV PUSH1 0xFF AND ISZERO JUMPDEST DUP1 ISZERO PUSH2 0x19FA JUMPI POP PUSH1 0x1 SLOAD PUSH1 0xFF AND PUSH1 0x0 SWAP1 DUP2 MSTORE PUSH1 0x15 PUSH1 0x20 SWAP1 DUP2 MSTORE PUSH1 0x40 DUP1 DUP4 KECCAK256 PUSH1 0x3 DUP6 ADD SLOAD PUSH1 0x1 PUSH1 0x1 PUSH1 0xA0 SHL SUB AND DUP5 MSTORE SWAP1 SWAP2 MSTORE DUP2 KECCAK256 SLOAD SGT JUMPDEST ISZERO PUSH2 0x1A96 JUMPI PUSH1 0x0 DUP4 PUSH2 0x1A0F DUP4 PUSH1 0x0 ADD SLOAD PUSH2 0x31DF JUMP JUMPDEST PUSH2 0x1A19 SWAP1 DUP9 PUSH2 0x3979 JUMP JUMPDEST PUSH2 0x1A23 SWAP2 SWAP1 PUSH2 0x38F2 JUMP JUMPDEST SWAP1 POP DUP1 DUP3 PUSH1 0x1 ADD PUSH1 0x0 DUP3 DUP3 SLOAD PUSH2 0x1A39 SWAP2 SWAP1 PUSH2 0x386F JUMP JUMPDEST SWAP1 SWAP2 SSTORE POP POP PUSH1 0x3 DUP3 ADD SLOAD PUSH1 0x2 DUP4 ADD SLOAD PUSH1 0x1 DUP5 ADD SLOAD PUSH1 0x40 MLOAD PUSH32 0xF002DA1CC235DD7B3CD93CB91C128FE6E777FB632383DA5FF2603123883748B1 SWAP4 PUSH2 0x1A8C SWAP4 PUSH1 0x1 PUSH1 0x1 PUSH1 0xA0 SHL SUB SWAP1 SWAP2 AND SWAP3 SWAP1 SWAP2 DUP7 SWAP2 SWAP1 PUSH2 0x3953 JUMP JUMPDEST PUSH1 0x40 MLOAD DUP1 SWAP2 SUB SWAP1 LOG1 POP JUMPDEST PUSH1 0x3 DUP2 ADD DUP1 SLOAD PUSH1 0xFF PUSH1 0xC0 SHL NOT AND SWAP1 SSTORE PUSH1 0x0 SWAP1 SSTORE DUP1 PUSH2 0x1AB3 DUP2 PUSH2 0x389D JUMP JUMPDEST SWAP2 POP POP PUSH2 0x193B JUMP JUMPDEST POP POP POP POP JUMPDEST PUSH1 0x1 SLOAD PUSH1 0x40 DUP1 MLOAD PUSH1 0xFF DUP1 DUP5 AND DUP3 MSTORE PUSH2 0x100 SWAP1 SWAP4 DIV SWAP1 SWAP3 AND PUSH1 0x20 DUP4 ADD MSTORE DUP2 ADD DUP3 SWAP1 MSTORE PUSH1 0x60 DUP2 ADD DUP6 SWAP1 MSTORE PUSH32 0xFB9071657A7D7C77D4413E1C8487BB219C39DE920F3297977DD60BF0E00D33D SWAP1 PUSH1 0x80 ADD PUSH1 0x40 MLOAD DUP1 SWAP2 SUB SWAP1 LOG1 PUSH1 0x0 JUMPDEST PUSH1 0xD SLOAD DUP2 LT ISZERO PUSH2 0x1C69 JUMPI PUSH1 0x0 PUSH1 0x10 PUSH1 0x0 PUSH1 0xD DUP5 DUP2 SLOAD DUP2 LT PUSH2 0x1B3B JUMPI PUSH2 0x1B3B PUSH2 0x3887 JUMP JUMPDEST PUSH1 0x0 SWAP2 DUP3 MSTORE PUSH1 0x20 DUP1 DUP4 KECCAK256 SWAP1 SWAP2 ADD SLOAD PUSH1 0x1 PUSH1 0x1 PUSH1 0xA0 SHL SUB AND DUP4 MSTORE DUP3 ADD SWAP3 SWAP1 SWAP3 MSTORE PUSH1 0x40 ADD SWAP1 KECCAK256 PUSH1 0x3 DUP2 ADD SLOAD SWAP1 SWAP2 POP PUSH1 0xFF PUSH1 0x1 PUSH1 0xB8 SHL SWAP1 SWAP2 DIV AND ISZERO PUSH2 0x1C56 JUMPI PUSH1 0x3 DUP2 ADD DUP1 SLOAD PUSH1 0xFF PUSH1 0xA8 SHL NOT AND DUP1 DUP3 SSTORE PUSH1 0x0 PUSH1 0x2 DUP5 ADD SSTORE PUSH1 0x1 SWAP2 SWAP1 PUSH1 0x14 SWAP1 PUSH2 0x1BAA SWAP1 DUP5 SWAP1 PUSH1 0x1 PUSH1 0xA0 SHL SWAP1 DIV PUSH1 0xFF AND PUSH2 0x39F6 JUMP JUMPDEST DUP3 SLOAD PUSH1 0xFF SWAP2 DUP3 AND PUSH2 0x100 SWAP4 SWAP1 SWAP4 EXP SWAP3 DUP4 MUL SWAP2 SWAP1 SWAP3 MUL NOT SWAP1 SWAP2 AND OR SWAP1 SSTORE POP PUSH1 0x3 DUP2 ADD DUP1 SLOAD PUSH1 0xFF PUSH1 0xB0 SHL NOT AND SWAP1 SSTORE PUSH1 0x0 JUMPDEST PUSH1 0xD SLOAD DUP2 LT ISZERO PUSH2 0x1C54 JUMPI PUSH1 0x3 DUP3 ADD SLOAD PUSH1 0x1 PUSH1 0x1 PUSH1 0xA0 SHL SUB AND PUSH1 0x0 SWAP1 DUP2 MSTORE PUSH1 0x11 PUSH1 0x20 MSTORE PUSH1 0x40 DUP2 KECCAK256 PUSH1 0xD DUP1 SLOAD SWAP2 SWAP3 SWAP2 DUP5 SWAP1 DUP2 LT PUSH2 0x1C16 JUMPI PUSH2 0x1C16 PUSH2 0x3887 JUMP JUMPDEST PUSH1 0x0 SWAP2 DUP3 MSTORE PUSH1 0x20 DUP1 DUP4 KECCAK256 SWAP1 SWAP2 ADD SLOAD PUSH1 0x1 PUSH1 0x1 PUSH1 0xA0 SHL SUB AND DUP4 MSTORE DUP3 ADD SWAP3 SWAP1 SWAP3 MSTORE PUSH1 0x40 ADD SWAP1 KECCAK256 DUP1 SLOAD PUSH1 0xFF NOT AND SWAP1 SSTORE DUP1 PUSH2 0x1C4C DUP2 PUSH2 0x389D JUMP JUMPDEST SWAP2 POP POP PUSH2 0x1BD9 JUMP JUMPDEST POP JUMPDEST POP DUP1 PUSH2 0x1C61 DUP2 PUSH2 0x389D JUMP JUMPDEST SWAP2 POP POP PUSH2 0x1B18 JUMP JUMPDEST POP PUSH1 0x1 DUP1 SLOAD DUP2 SWAP1 PUSH1 0x0 SWAP1 PUSH2 0x1C81 SWAP1 DUP4 SWAP1 PUSH1 0xFF AND PUSH2 0x39F6 JUMP JUMPDEST DUP3 SLOAD PUSH1 0xFF SWAP2 DUP3 AND PUSH2 0x100 SWAP4 SWAP1 SWAP4 EXP SWAP3 DUP4 MUL SWAP2 SWAP1 SWAP3 MUL NOT SWAP1 SWAP2 AND OR SWAP1 SSTORE POP POP PUSH1 0x1 DUP1 SLOAD PUSH2 0xFF00 NOT AND SWAP1 SSTORE POP POP PUSH1 0x0 PUSH1 0x3 SSTORE POP JUMP JUMPDEST CALLER PUSH1 0x0 SWAP1 DUP2 MSTORE PUSH1 0x10 PUSH1 0x20 MSTORE PUSH1 0x40 SWAP1 KECCAK256 PUSH1 0x3 ADD SLOAD PUSH1 0x1 PUSH1 0xB8 SHL SWAP1 DIV PUSH1 0xFF AND ISZERO PUSH2 0x1D04 JUMPI PUSH1 0x40 MLOAD PUSH3 0x461BCD PUSH1 0xE5 SHL DUP2 MSTORE PUSH1 0x20 PUSH1 0x4 DUP3 ADD MSTORE PUSH1 0x3 PUSH1 0x24 DUP3 ADD MSTORE PUSH3 0x29A0A9 PUSH1 0xE9 SHL PUSH1 0x44 DUP3 ADD MSTORE PUSH1 0x64 ADD PUSH2 0x9DA JUMP JUMPDEST PUSH1 0x5 SLOAD CALLVALUE LT ISZERO DUP1 ISZERO PUSH2 0x1D18 JUMPI POP PUSH1 0x6 SLOAD CALLVALUE GT ISZERO JUMPDEST PUSH2 0x1D4A JUMPI PUSH1 0x40 MLOAD PUSH3 0x461BCD PUSH1 0xE5 SHL DUP2 MSTORE PUSH1 0x20 PUSH1 0x4 DUP3 ADD MSTORE PUSH1 0x3 PUSH1 0x24 DUP3 ADD MSTORE PUSH3 0x272BA9 PUSH1 0xE9 SHL PUSH1 0x44 DUP3 ADD MSTORE PUSH1 0x64 ADD PUSH2 0x9DA JUMP JUMPDEST PUSH2 0x1D53 CALLER PUSH2 0x31F3 JUMP JUMPDEST JUMP JUMPDEST PUSH1 0xD DUP2 DUP2 SLOAD DUP2 LT PUSH2 0x1D65 JUMPI PUSH1 0x0 DUP1 REVERT JUMPDEST PUSH1 0x0 SWAP2 DUP3 MSTORE PUSH1 0x20 SWAP1 SWAP2 KECCAK256 ADD SLOAD PUSH1 0x1 PUSH1 0x1 PUSH1 0xA0 SHL SUB AND SWAP1 POP DUP2 JUMP JUMPDEST CALLER PUSH1 0x0 SWAP1 DUP2 MSTORE PUSH1 0x10 PUSH1 0x20 MSTORE PUSH1 0x40 SWAP1 KECCAK256 PUSH1 0x3 ADD SLOAD PUSH1 0x1 PUSH1 0xB8 SHL SWAP1 DIV PUSH1 0xFF AND PUSH2 0x1DB8 JUMPI PUSH1 0x40 MLOAD PUSH3 0x461BCD PUSH1 0xE5 SHL DUP2 MSTORE PUSH1 0x4 ADD PUSH2 0x9DA SWAP1 PUSH2 0x383C JUMP JUMPDEST DUP2 PUSH1 0x1 PUSH1 0x1 PUSH1 0xA0 SHL SUB DUP2 AND CALLER EQ ISZERO PUSH2 0x1DF8 JUMPI PUSH1 0x40 MLOAD PUSH3 0x461BCD PUSH1 0xE5 SHL DUP2 MSTORE PUSH1 0x20 PUSH1 0x4 DUP3 ADD MSTORE PUSH1 0x3 PUSH1 0x24 DUP3 ADD MSTORE PUSH3 0x14D155 PUSH1 0xEA SHL PUSH1 0x44 DUP3 ADD MSTORE PUSH1 0x64 ADD PUSH2 0x9DA JUMP JUMPDEST CALLER PUSH1 0x0 SWAP1 DUP2 MSTORE PUSH1 0x11 PUSH1 0x20 SWAP1 DUP2 MSTORE PUSH1 0x40 DUP1 DUP4 KECCAK256 PUSH1 0x1 PUSH1 0x1 PUSH1 0xA0 SHL SUB DUP6 AND DUP5 MSTORE SWAP1 SWAP2 MSTORE SWAP1 KECCAK256 SLOAD PUSH1 0xFF AND ISZERO PUSH2 0x1E52 JUMPI PUSH1 0x40 MLOAD PUSH3 0x461BCD PUSH1 0xE5 SHL DUP2 MSTORE PUSH1 0x20 PUSH1 0x4 DUP3 ADD MSTORE PUSH1 0x3 PUSH1 0x24 DUP3 ADD MSTORE PUSH3 0x564143 PUSH1 0xE8 SHL PUSH1 0x44 DUP3 ADD MSTORE PUSH1 0x64 ADD PUSH2 0x9DA JUMP JUMPDEST PUSH1 0x2 SLOAD PUSH1 0x3 SLOAD EQ DUP1 PUSH2 0x1E73 JUMPI POP TIMESTAMP PUSH3 0x15180 PUSH1 0xA SLOAD PUSH2 0x1E71 SWAP2 SWAP1 PUSH2 0x386F JUMP JUMPDEST LT JUMPDEST PUSH2 0x1EA5 JUMPI PUSH1 0x40 MLOAD PUSH3 0x461BCD PUSH1 0xE5 SHL DUP2 MSTORE PUSH1 0x20 PUSH1 0x4 DUP3 ADD MSTORE PUSH1 0x3 PUSH1 0x24 DUP3 ADD MSTORE PUSH3 0x465243 PUSH1 0xE8 SHL PUSH1 0x44 DUP3 ADD MSTORE PUSH1 0x64 ADD PUSH2 0x9DA JUMP JUMPDEST CALLER PUSH1 0x0 DUP2 DUP2 MSTORE PUSH1 0x11 PUSH1 0x20 SWAP1 DUP2 MSTORE PUSH1 0x40 DUP1 DUP4 KECCAK256 PUSH1 0x1 PUSH1 0x1 PUSH1 0xA0 SHL SUB DUP9 AND DUP5 MSTORE DUP3 MSTORE DUP1 DUP4 KECCAK256 DUP1 SLOAD PUSH1 0xFF NOT AND PUSH1 0x1 SWAP1 DUP2 OR SWAP1 SWAP2 SSTORE SWAP4 DUP4 MSTORE PUSH1 0x10 SWAP1 SWAP2 MSTORE SWAP1 KECCAK256 PUSH1 0x3 ADD DUP1 SLOAD PUSH1 0x15 SWAP1 PUSH2 0x1EFD SWAP1 DUP5 SWAP1 PUSH1 0x1 PUSH1 0xA8 SHL SWAP1 DIV PUSH1 0xFF AND PUSH2 0x39F6 JUMP JUMPDEST SWAP3 POP PUSH2 0x100 EXP DUP2 SLOAD DUP2 PUSH1 0xFF MUL NOT AND SWAP1 DUP4 PUSH1 0xFF AND MUL OR SWAP1 SSTORE POP PUSH1 0x1 DUP1 PUSH1 0x1 DUP3 DUP3 DUP3 SWAP1 SLOAD SWAP1 PUSH2 0x100 EXP SWAP1 DIV PUSH1 0xFF AND PUSH2 0x1F33 SWAP2 SWAP1 PUSH2 0x39F6 JUMP JUMPDEST SWAP3 POP PUSH2 0x100 EXP DUP2 SLOAD DUP2 PUSH1 0xFF MUL NOT AND SWAP1 DUP4 PUSH1 0xFF AND MUL OR SWAP1 SSTORE POP DUP2 PUSH1 0x1 EQ ISZERO PUSH2 0x1FCC JUMPI CALLER PUSH1 0x0 DUP2 DUP2 MSTORE PUSH1 0x12 PUSH1 0x20 SWAP1 DUP2 MSTORE PUSH1 0x40 DUP1 DUP4 KECCAK256 PUSH1 0x1 PUSH1 0x1 PUSH1 0xA0 SHL SUB DUP9 AND DUP5 MSTORE DUP3 MSTORE DUP1 DUP4 KECCAK256 DUP1 SLOAD PUSH1 0xFF NOT AND PUSH1 0x1 SWAP1 DUP2 OR SWAP1 SWAP2 SSTORE SWAP4 DUP4 MSTORE PUSH1 0x10 SWAP1 SWAP2 MSTORE SWAP1 KECCAK256 DUP2 ADD SLOAD PUSH2 0x1F9B SWAP2 PUSH2 0x3A1B JUMP JUMPDEST PUSH1 0x1 PUSH1 0x1 PUSH1 0xA0 SHL SUB DUP5 AND PUSH1 0x0 SWAP1 DUP2 MSTORE PUSH1 0x10 PUSH1 0x20 MSTORE PUSH1 0x40 DUP2 KECCAK256 PUSH1 0x2 ADD DUP1 SLOAD SWAP1 SWAP2 SWAP1 PUSH2 0x1FC6 SWAP1 DUP5 SWAP1 PUSH2 0x39B5 JUMP JUMPDEST SWAP1 SWAP2 SSTORE POP POP JUMPDEST DUP2 PUSH1 0x0 NOT EQ ISZERO PUSH2 0x2049 JUMPI CALLER PUSH1 0x0 DUP2 DUP2 MSTORE PUSH1 0x12 PUSH1 0x20 SWAP1 DUP2 MSTORE PUSH1 0x40 DUP1 DUP4 KECCAK256 PUSH1 0x1 PUSH1 0x1 PUSH1 0xA0 SHL SUB DUP9 AND DUP5 MSTORE DUP3 MSTORE DUP1 DUP4 KECCAK256 DUP1 SLOAD PUSH1 0xFF NOT AND SWAP1 SSTORE SWAP3 DUP3 MSTORE PUSH1 0x10 SWAP1 MSTORE KECCAK256 PUSH1 0x1 SWAP1 DUP2 ADD SLOAD PUSH2 0x2018 SWAP2 PUSH2 0x3A1B JUMP JUMPDEST PUSH1 0x1 PUSH1 0x1 PUSH1 0xA0 SHL SUB DUP5 AND PUSH1 0x0 SWAP1 DUP2 MSTORE PUSH1 0x10 PUSH1 0x20 MSTORE PUSH1 0x40 DUP2 KECCAK256 PUSH1 0x2 ADD DUP1 SLOAD SWAP1 SWAP2 SWAP1 PUSH2 0x2043 SWAP1 DUP5 SWAP1 PUSH2 0x3914 JUMP JUMPDEST SWAP1 SWAP2 SSTORE POP POP JUMPDEST DUP2 PUSH2 0x207A JUMPI CALLER PUSH1 0x0 SWAP1 DUP2 MSTORE PUSH1 0x12 PUSH1 0x20 SWAP1 DUP2 MSTORE PUSH1 0x40 DUP1 DUP4 KECCAK256 PUSH1 0x1 PUSH1 0x1 PUSH1 0xA0 SHL SUB DUP8 AND DUP5 MSTORE SWAP1 SWAP2 MSTORE SWAP1 KECCAK256 DUP1 SLOAD PUSH1 0xFF NOT AND SWAP1 SSTORE JUMPDEST CALLER PUSH1 0x0 DUP2 DUP2 MSTORE PUSH1 0x10 PUSH1 0x20 SWAP1 DUP2 MSTORE PUSH1 0x40 DUP1 DUP4 KECCAK256 PUSH1 0x1 ADD SLOAD PUSH1 0x1 PUSH1 0x1 PUSH1 0xA0 SHL SUB DUP9 AND DUP1 DUP6 MSTORE SWAP4 DUP3 SWAP1 KECCAK256 PUSH1 0x2 ADD SLOAD DUP3 MLOAD SWAP5 DUP6 MSTORE SWAP3 DUP5 ADD SWAP5 SWAP1 SWAP5 MSTORE DUP3 DUP2 ADD SWAP4 SWAP1 SWAP4 MSTORE PUSH1 0x60 DUP3 ADD MSTORE SWAP1 MLOAD PUSH32 0xD69FE95841F16237D39B30BBB2ED7633B307FB0ADDC4BB890B6A3A77E04F5F7F SWAP2 DUP2 SWAP1 SUB PUSH1 0x80 ADD SWAP1 LOG1 POP POP POP JUMP JUMPDEST CALLER PUSH1 0x0 SWAP1 DUP2 MSTORE PUSH1 0x10 PUSH1 0x20 MSTORE PUSH1 0x40 SWAP1 KECCAK256 PUSH1 0x3 ADD SLOAD PUSH1 0x1 PUSH1 0xB8 SHL SWAP1 DIV PUSH1 0xFF AND ISZERO PUSH2 0x213E JUMPI PUSH1 0x40 MLOAD PUSH3 0x461BCD PUSH1 0xE5 SHL DUP2 MSTORE PUSH1 0x20 PUSH1 0x4 DUP3 ADD MSTORE PUSH1 0x3 PUSH1 0x24 DUP3 ADD MSTORE PUSH3 0x29A0A9 PUSH1 0xE9 SHL PUSH1 0x44 DUP3 ADD MSTORE PUSH1 0x64 ADD PUSH2 0x9DA JUMP JUMPDEST PUSH1 0x5 SLOAD CALLVALUE LT ISZERO DUP1 ISZERO PUSH2 0x2152 JUMPI POP PUSH1 0x6 SLOAD CALLVALUE GT ISZERO JUMPDEST PUSH2 0x2184 JUMPI PUSH1 0x40 MLOAD PUSH3 0x461BCD PUSH1 0xE5 SHL DUP2 MSTORE PUSH1 0x20 PUSH1 0x4 DUP3 ADD MSTORE PUSH1 0x3 PUSH1 0x24 DUP3 ADD MSTORE PUSH3 0x272BA9 PUSH1 0xE9 SHL PUSH1 0x44 DUP3 ADD MSTORE PUSH1 0x64 ADD PUSH2 0x9DA JUMP JUMPDEST PUSH2 0x218D DUP2 PUSH2 0x31F3 JUMP JUMPDEST POP JUMP JUMPDEST CALLER PUSH1 0x0 SWAP1 DUP2 MSTORE PUSH1 0x10 PUSH1 0x20 MSTORE PUSH1 0x40 SWAP1 KECCAK256 PUSH1 0x3 ADD SLOAD PUSH1 0x1 PUSH1 0xB8 SHL SWAP1 DIV PUSH1 0xFF AND PUSH2 0x21C9 JUMPI PUSH1 0x40 MLOAD PUSH3 0x461BCD PUSH1 0xE5 SHL DUP2 MSTORE PUSH1 0x4 ADD PUSH2 0x9DA SWAP1 PUSH2 0x383C JUMP JUMPDEST CALLER PUSH1 0x0 SWAP1 DUP2 MSTORE PUSH1 0x14 PUSH1 0x20 SWAP1 DUP2 MSTORE PUSH1 0x40 DUP1 DUP4 KECCAK256 PUSH1 0x1 SLOAD PUSH1 0xFF AND DUP5 MSTORE SWAP1 SWAP2 MSTORE SWAP1 KECCAK256 SLOAD ISZERO PUSH2 0x221C JUMPI PUSH1 0x40 MLOAD PUSH3 0x461BCD PUSH1 0xE5 SHL DUP2 MSTORE PUSH1 0x20 PUSH1 0x4 DUP3 ADD MSTORE PUSH1 0x3 PUSH1 0x24 DUP3 ADD MSTORE PUSH3 0x53415 PUSH1 0xEC SHL PUSH1 0x44 DUP3 ADD MSTORE PUSH1 0x64 ADD PUSH2 0x9DA JUMP JUMPDEST PUSH1 0x40 DUP1 MLOAD PUSH1 0x20 DUP2 ADD DUP5 SWAP1 MSTORE SWAP1 DUP2 ADD DUP3 SWAP1 MSTORE CALLER PUSH1 0x60 SWAP1 DUP2 SHL PUSH12 0xFFFFFFFFFFFFFFFFFFFFFFFF NOT AND SWAP1 DUP3 ADD MSTORE PUSH1 0x74 ADD PUSH1 0x40 DUP1 MLOAD PUSH1 0x1F NOT DUP2 DUP5 SUB ADD DUP2 MSTORE SWAP2 DUP2 MSTORE DUP2 MLOAD PUSH1 0x20 SWAP3 DUP4 ADD KECCAK256 CALLER PUSH1 0x0 SWAP1 DUP2 MSTORE PUSH1 0x13 DUP5 MSTORE DUP3 DUP2 KECCAK256 PUSH1 0x1 SLOAD PUSH1 0xFF AND DUP3 MSTORE SWAP1 SWAP4 MSTORE SWAP2 KECCAK256 SLOAD EQ PUSH2 0x22AF JUMPI PUSH1 0x40 MLOAD PUSH3 0x461BCD PUSH1 0xE5 SHL DUP2 MSTORE PUSH1 0x20 PUSH1 0x4 DUP3 ADD MSTORE PUSH1 0x3 PUSH1 0x24 DUP3 ADD MSTORE PUSH3 0x4E4B53 PUSH1 0xE8 SHL PUSH1 0x44 DUP3 ADD MSTORE PUSH1 0x64 ADD PUSH2 0x9DA JUMP JUMPDEST CALLER PUSH1 0x0 SWAP1 DUP2 MSTORE PUSH1 0x14 PUSH1 0x20 SWAP1 DUP2 MSTORE PUSH1 0x40 DUP1 DUP4 KECCAK256 PUSH1 0x1 DUP1 SLOAD PUSH1 0xFF AND DUP6 MSTORE SWAP3 MSTORE DUP3 KECCAK256 DUP5 SWAP1 SSTORE PUSH1 0x3 DUP1 SLOAD SWAP2 SWAP3 SWAP1 SWAP2 PUSH2 0x22E4 SWAP1 DUP5 SWAP1 PUSH2 0x386F JUMP JUMPDEST SWAP1 SWAP2 SSTORE POP POP POP POP JUMP JUMPDEST PUSH1 0x60 DUP1 PUSH1 0x0 DUP1 JUMPDEST PUSH1 0xD SLOAD DUP2 LT ISZERO PUSH2 0x2364 JUMPI PUSH1 0x0 PUSH1 0x10 PUSH1 0x0 PUSH1 0xD DUP5 DUP2 SLOAD DUP2 LT PUSH2 0x2317 JUMPI PUSH2 0x2317 PUSH2 0x3887 JUMP JUMPDEST PUSH1 0x0 SWAP2 DUP3 MSTORE PUSH1 0x20 DUP1 DUP4 KECCAK256 SWAP1 SWAP2 ADD SLOAD PUSH1 0x1 PUSH1 0x1 PUSH1 0xA0 SHL SUB AND DUP4 MSTORE DUP3 ADD SWAP3 SWAP1 SWAP3 MSTORE PUSH1 0x40 ADD SWAP1 KECCAK256 PUSH1 0x2 ADD SLOAD SLT PUSH2 0x2352 JUMPI PUSH2 0x234F PUSH1 0x1 DUP4 PUSH2 0x39F6 JUMP JUMPDEST SWAP2 POP JUMPDEST DUP1 PUSH2 0x235C DUP2 PUSH2 0x389D JUMP JUMPDEST SWAP2 POP POP PUSH2 0x22F4 JUMP JUMPDEST POP DUP1 PUSH1 0xFF AND PUSH8 0xFFFFFFFFFFFFFFFF DUP2 GT ISZERO PUSH2 0x2381 JUMPI PUSH2 0x2381 PUSH2 0x3AA0 JUMP JUMPDEST PUSH1 0x40 MLOAD SWAP1 DUP1 DUP3 MSTORE DUP1 PUSH1 0x20 MUL PUSH1 0x20 ADD DUP3 ADD PUSH1 0x40 MSTORE DUP1 ISZERO PUSH2 0x23AA JUMPI DUP2 PUSH1 0x20 ADD PUSH1 0x20 DUP3 MUL DUP1 CALLDATASIZE DUP4 CALLDATACOPY ADD SWAP1 POP JUMPDEST POP SWAP3 POP DUP1 PUSH1 0xFF AND PUSH8 0xFFFFFFFFFFFFFFFF DUP2 GT ISZERO PUSH2 0x23C9 JUMPI PUSH2 0x23C9 PUSH2 0x3AA0 JUMP JUMPDEST PUSH1 0x40 MLOAD SWAP1 DUP1 DUP3 MSTORE DUP1 PUSH1 0x20 MUL PUSH1 0x20 ADD DUP3 ADD PUSH1 0x40 MSTORE DUP1 ISZERO PUSH2 0x23F2 JUMPI DUP2 PUSH1 0x20 ADD PUSH1 0x20 DUP3 MUL DUP1 CALLDATASIZE DUP4 CALLDATACOPY ADD SWAP1 POP JUMPDEST POP SWAP2 POP PUSH1 0x0 DUP1 JUMPDEST PUSH1 0xD SLOAD DUP2 LT ISZERO PUSH2 0x255B JUMPI PUSH1 0x0 PUSH1 0x10 PUSH1 0x0 PUSH1 0xD DUP5 DUP2 SLOAD DUP2 LT PUSH2 0x241C JUMPI PUSH2 0x241C PUSH2 0x3887 JUMP JUMPDEST PUSH1 0x0 SWAP2 DUP3 MSTORE PUSH1 0x20 DUP1 DUP4 KECCAK256 SWAP1 SWAP2 ADD SLOAD PUSH1 0x1 PUSH1 0x1 PUSH1 0xA0 SHL SUB AND DUP4 MSTORE DUP3 ADD SWAP3 SWAP1 SWAP3 MSTORE PUSH1 0x40 ADD SWAP1 KECCAK256 PUSH1 0x2 ADD SLOAD SLT PUSH2 0x2549 JUMPI PUSH1 0x1 SLOAD PUSH1 0xFF AND PUSH1 0x0 SWAP1 DUP2 MSTORE PUSH1 0x17 PUSH1 0x20 MSTORE PUSH1 0x40 DUP2 KECCAK256 PUSH1 0xD DUP1 SLOAD SWAP2 SWAP3 SWAP2 DUP5 SWAP1 DUP2 LT PUSH2 0x2474 JUMPI PUSH2 0x2474 PUSH2 0x3887 JUMP JUMPDEST PUSH1 0x0 SWAP2 DUP3 MSTORE PUSH1 0x20 DUP1 DUP4 KECCAK256 SWAP1 SWAP2 ADD SLOAD PUSH1 0x1 PUSH1 0x1 PUSH1 0xA0 SHL SUB AND DUP4 MSTORE DUP3 ADD SWAP3 SWAP1 SWAP3 MSTORE PUSH1 0x40 ADD SWAP1 KECCAK256 SLOAD DUP6 MLOAD PUSH1 0xFF SWAP2 DUP3 AND SWAP2 DUP8 SWAP2 SWAP1 DUP6 AND SWAP1 DUP2 LT PUSH2 0x24B5 JUMPI PUSH2 0x24B5 PUSH2 0x3887 JUMP JUMPDEST PUSH1 0xFF SWAP3 DUP4 AND PUSH1 0x20 SWAP2 DUP3 MUL SWAP3 SWAP1 SWAP3 ADD DUP2 ADD SWAP2 SWAP1 SWAP2 MSTORE PUSH1 0x1 SLOAD SWAP1 SWAP2 AND PUSH1 0x0 SWAP1 DUP2 MSTORE PUSH1 0x18 SWAP1 SWAP2 MSTORE PUSH1 0x40 DUP2 KECCAK256 PUSH1 0xD DUP1 SLOAD SWAP2 SWAP3 SWAP2 DUP5 SWAP1 DUP2 LT PUSH2 0x24F4 JUMPI PUSH2 0x24F4 PUSH2 0x3887 JUMP JUMPDEST PUSH1 0x0 SWAP2 DUP3 MSTORE PUSH1 0x20 DUP1 DUP4 KECCAK256 SWAP1 SWAP2 ADD SLOAD PUSH1 0x1 PUSH1 0x1 PUSH1 0xA0 SHL SUB AND DUP4 MSTORE DUP3 ADD SWAP3 SWAP1 SWAP3 MSTORE PUSH1 0x40 ADD SWAP1 KECCAK256 SLOAD DUP5 MLOAD DUP6 SWAP1 PUSH1 0xFF DUP6 AND SWAP1 DUP2 LT PUSH2 0x2530 JUMPI PUSH2 0x2530 PUSH2 0x3887 JUMP JUMPDEST PUSH1 0x20 SWAP1 DUP2 MUL SWAP2 SWAP1 SWAP2 ADD ADD MSTORE DUP2 PUSH2 0x2545 DUP2 PUSH2 0x3AB6 JUMP JUMPDEST SWAP3 POP POP JUMPDEST DUP1 PUSH2 0x2553 DUP2 PUSH2 0x389D JUMP JUMPDEST SWAP2 POP POP PUSH2 0x23F9 JUMP JUMPDEST POP POP POP SWAP1 SWAP2 JUMP JUMPDEST PUSH1 0x60 DUP1 PUSH1 0x0 DUP1 DUP12 PUSH1 0x34 DUP13 DIV PUSH1 0x40 MLOAD SWAP6 POP PUSH1 0x20 DUP2 MUL PUSH1 0x20 ADD DUP7 ADD PUSH1 0x40 MSTORE DUP1 DUP7 MSTORE PUSH1 0x0 JUMPDEST DUP2 DUP2 LT ISZERO PUSH2 0x25AC JUMPI DUP3 CALLDATALOAD PUSH1 0x60 SHR PUSH1 0x20 DUP3 DUP2 MUL DUP10 ADD ADD DUP2 SWAP1 MSTORE SWAP5 POP PUSH1 0x14 SWAP1 SWAP3 ADD SWAP2 PUSH1 0x1 ADD PUSH2 0x2584 JUMP JUMPDEST POP PUSH1 0x40 MLOAD SWAP5 POP PUSH1 0x20 DUP2 MUL PUSH1 0x20 ADD DUP6 ADD PUSH1 0x40 MSTORE DUP1 DUP6 MSTORE PUSH1 0x0 SWAP4 POP JUMPDEST DUP1 DUP5 LT ISZERO PUSH2 0x25EE JUMPI DUP2 CALLDATALOAD SWAP3 POP DUP3 PUSH1 0x20 DUP6 MUL PUSH1 0x20 DUP8 ADD ADD MSTORE PUSH1 0x20 DUP3 ADD SWAP2 POP PUSH1 0x1 DUP5 ADD SWAP4 POP PUSH2 0x25C6 JUMP JUMPDEST POP POP DUP4 MLOAD DUP10 EQ SWAP2 POP PUSH2 0x2644 SWAP1 POP JUMPI PUSH1 0x40 MLOAD PUSH3 0x461BCD PUSH1 0xE5 SHL DUP2 MSTORE PUSH1 0x20 PUSH1 0x4 DUP3 ADD DUP2 SWAP1 MSTORE PUSH1 0x24 DUP3 ADD MSTORE PUSH32 0x494E56414C49445F4C454E475448204F46204143435552414359204152524159 PUSH1 0x44 DUP3 ADD MSTORE PUSH1 0x64 ADD PUSH2 0x9DA JUMP JUMPDEST DUP2 MLOAD DUP6 EQ PUSH2 0x2694 JUMPI PUSH1 0x40 MLOAD PUSH3 0x461BCD PUSH1 0xE5 SHL DUP2 MSTORE PUSH1 0x20 PUSH1 0x4 DUP3 ADD MSTORE PUSH1 0x1C PUSH1 0x24 DUP3 ADD MSTORE PUSH32 0x494E56414C49445F4C454E475448204F46204C4F535320415252415900000000 PUSH1 0x44 DUP3 ADD MSTORE PUSH1 0x64 ADD PUSH2 0x9DA JUMP JUMPDEST PUSH1 0x1 SLOAD PUSH1 0xFF AND PUSH1 0x0 SWAP1 DUP2 MSTORE PUSH1 0x19 PUSH1 0x20 SWAP1 DUP2 MSTORE PUSH1 0x40 DUP1 DUP4 KECCAK256 CALLER DUP5 MSTORE DUP3 MSTORE SWAP2 DUP3 SWAP1 KECCAK256 DUP3 MLOAD PUSH1 0x60 DUP2 ADD DUP5 MSTORE DUP6 DUP2 MSTORE DUP4 MLOAD DUP12 DUP5 MUL DUP2 DUP2 ADD DUP6 ADD SWAP1 SWAP6 MSTORE DUP12 DUP2 MSTORE SWAP2 SWAP4 SWAP1 SWAP3 DUP4 DUP2 ADD SWAP3 SWAP2 DUP14 SWAP2 DUP14 SWAP2 DUP3 SWAP2 DUP6 ADD SWAP1 DUP5 SWAP1 DUP1 DUP3 DUP5 CALLDATACOPY PUSH1 0x0 SWAP3 ADD SWAP2 SWAP1 SWAP2 MSTORE POP POP POP SWAP1 DUP3 MSTORE POP PUSH1 0x40 DUP1 MLOAD PUSH1 0x20 DUP11 DUP2 MUL DUP3 DUP2 ADD DUP3 ADD SWAP1 SWAP4 MSTORE DUP11 DUP3 MSTORE SWAP3 DUP4 ADD SWAP3 SWAP1 SWAP2 DUP12 SWAP2 DUP12 SWAP2 DUP3 SWAP2 DUP6 ADD SWAP1 DUP5 SWAP1 DUP1 DUP3 DUP5 CALLDATACOPY PUSH1 0x0 SWAP3 ADD DUP3 SWAP1 MSTORE POP SWAP4 SWAP1 SWAP5 MSTORE POP POP DUP4 SLOAD PUSH1 0x1 DUP2 ADD DUP6 SSTORE SWAP4 DUP2 MSTORE PUSH1 0x20 SWAP1 DUP2 SWAP1 KECCAK256 DUP4 MLOAD DUP1 MLOAD SWAP5 SWAP6 PUSH1 0x3 MUL SWAP1 SWAP2 ADD SWAP4 PUSH2 0x275C SWAP4 POP DUP5 SWAP3 SWAP2 SWAP1 SWAP2 ADD SWAP1 PUSH2 0x330D JUMP JUMPDEST POP PUSH1 0x20 DUP3 DUP2 ADD MLOAD DUP1 MLOAD PUSH2 0x2775 SWAP3 PUSH1 0x1 DUP6 ADD SWAP3 ADD SWAP1 PUSH2 0x336E JUMP JUMPDEST POP PUSH1 0x40 DUP3 ADD MLOAD DUP1 MLOAD PUSH2 0x2791 SWAP2 PUSH1 0x2 DUP5 ADD SWAP2 PUSH1 0x20 SWAP1 SWAP2 ADD SWAP1 PUSH2 0x340F JUMP JUMPDEST POP POP POP PUSH1 0x64 PUSH1 0xFF DUP6 AND GT ISZERO PUSH2 0x27F8 JUMPI PUSH1 0x40 MLOAD PUSH3 0x461BCD PUSH1 0xE5 SHL DUP2 MSTORE PUSH1 0x20 PUSH1 0x4 DUP3 ADD MSTORE PUSH1 0x27 PUSH1 0x24 DUP3 ADD MSTORE PUSH32 0x50524556494F5553204143435552414359204E4F54204245545745454E203020 PUSH1 0x44 DUP3 ADD MSTORE PUSH7 0x414E442031303 PUSH1 0xCC SHL PUSH1 0x64 DUP3 ADD MSTORE PUSH1 0x84 ADD PUSH2 0x9DA JUMP JUMPDEST PUSH1 0x1 DUP1 SLOAD PUSH1 0xFF SWAP1 DUP2 AND PUSH1 0x0 SWAP1 DUP2 MSTORE PUSH1 0x17 PUSH1 0x20 SWAP1 DUP2 MSTORE PUSH1 0x40 DUP1 DUP4 KECCAK256 CALLER DUP1 DUP6 MSTORE SWAP1 DUP4 MSTORE DUP2 DUP5 KECCAK256 DUP1 SLOAD PUSH1 0xFF NOT AND DUP12 DUP8 AND OR SWAP1 SSTORE SWAP5 SLOAD SWAP1 SWAP4 AND DUP3 MSTORE PUSH1 0x18 DUP2 MSTORE DUP3 DUP3 KECCAK256 SWAP4 DUP3 MSTORE SWAP3 SWAP1 SWAP3 MSTORE DUP2 KECCAK256 DUP5 SWAP1 SSTORE JUMPDEST DUP3 MLOAD DUP2 LT ISZERO PUSH2 0x28A4 JUMPI PUSH1 0xF SLOAD PUSH1 0xFF AND PUSH2 0x2892 JUMPI PUSH2 0x2892 DUP4 DUP3 DUP2 MLOAD DUP2 LT PUSH2 0x286B JUMPI PUSH2 0x286B PUSH2 0x3887 JUMP JUMPDEST PUSH1 0x20 MUL PUSH1 0x20 ADD ADD MLOAD DUP4 DUP4 DUP2 MLOAD DUP2 LT PUSH2 0x2885 JUMPI PUSH2 0x2885 PUSH2 0x3887 JUMP JUMPDEST PUSH1 0x20 MUL PUSH1 0x20 ADD ADD MLOAD PUSH2 0x1D7F JUMP JUMPDEST DUP1 PUSH2 0x289C DUP2 PUSH2 0x389D JUMP JUMPDEST SWAP2 POP POP PUSH2 0x2843 JUMP JUMPDEST POP POP POP POP POP POP POP POP POP POP POP JUMP JUMPDEST PUSH1 0x60 DUP1 PUSH1 0x0 DUP1 DUP6 PUSH1 0x34 DUP7 DIV PUSH1 0x40 MLOAD SWAP6 POP PUSH1 0x20 DUP2 MUL PUSH1 0x20 ADD DUP7 ADD PUSH1 0x40 MSTORE DUP1 DUP7 MSTORE PUSH1 0x0 JUMPDEST DUP2 DUP2 LT ISZERO PUSH2 0x28FB JUMPI DUP3 CALLDATALOAD PUSH1 0x60 SHR PUSH1 0x20 DUP3 DUP2 MUL DUP10 ADD ADD DUP2 SWAP1 MSTORE SWAP5 POP PUSH1 0x14 SWAP1 SWAP3 ADD SWAP2 PUSH1 0x1 ADD PUSH2 0x28D3 JUMP JUMPDEST POP PUSH1 0x40 MLOAD SWAP5 POP PUSH1 0x20 DUP2 MUL PUSH1 0x20 ADD DUP6 ADD PUSH1 0x40 MSTORE DUP1 DUP6 MSTORE PUSH1 0x0 SWAP4 POP JUMPDEST DUP1 DUP5 LT ISZERO PUSH2 0x293D JUMPI DUP2 CALLDATALOAD SWAP3 POP DUP3 PUSH1 0x20 DUP6 MUL PUSH1 0x20 DUP8 ADD ADD MSTORE PUSH1 0x20 DUP3 ADD SWAP2 POP PUSH1 0x1 DUP5 ADD SWAP4 POP PUSH2 0x2915 JUMP JUMPDEST POP POP POP POP PUSH1 0x0 JUMPDEST DUP3 MLOAD DUP2 LT ISZERO PUSH2 0x297E JUMPI PUSH1 0xF SLOAD PUSH1 0xFF AND PUSH2 0x296C JUMPI PUSH2 0x296C DUP4 DUP3 DUP2 MLOAD DUP2 LT PUSH2 0x286B JUMPI PUSH2 0x286B PUSH2 0x3887 JUMP JUMPDEST DUP1 PUSH2 0x2976 DUP2 PUSH2 0x389D JUMP JUMPDEST SWAP2 POP POP PUSH2 0x2944 JUMP JUMPDEST POP POP POP POP POP JUMP JUMPDEST PUSH1 0x0 DUP1 DUP1 JUMPDEST PUSH1 0xD SLOAD DUP2 LT ISZERO PUSH2 0x29FB JUMPI PUSH1 0x0 PUSH1 0x10 PUSH1 0x0 PUSH1 0xD DUP5 DUP2 SLOAD DUP2 LT PUSH2 0x29AD JUMPI PUSH2 0x29AD PUSH2 0x3887 JUMP JUMPDEST PUSH1 0x0 SWAP2 DUP3 MSTORE PUSH1 0x20 DUP1 DUP4 KECCAK256 SWAP1 SWAP2 ADD SLOAD PUSH1 0x1 PUSH1 0x1 PUSH1 0xA0 SHL SUB AND DUP4 MSTORE DUP3 ADD SWAP3 SWAP1 SWAP3 MSTORE PUSH1 0x40 ADD SWAP1 KECCAK256 PUSH1 0x2 ADD SLOAD SLT ISZERO PUSH2 0x29E9 JUMPI DUP2 PUSH2 0x29E5 DUP2 PUSH2 0x389D JUMP JUMPDEST SWAP3 POP POP JUMPDEST DUP1 PUSH2 0x29F3 DUP2 PUSH2 0x389D JUMP JUMPDEST SWAP2 POP POP PUSH2 0x298A JUMP JUMPDEST POP PUSH1 0x1 SLOAD PUSH1 0xFF AND PUSH1 0x0 SWAP1 DUP2 MSTORE PUSH1 0x16 PUSH1 0x20 MSTORE PUSH1 0x40 SWAP1 KECCAK256 SLOAD DUP2 GT ISZERO PUSH2 0x2A20 JUMPI PUSH1 0x0 SWAP2 POP POP SWAP1 JUMP JUMPDEST PUSH1 0x1 SWAP2 POP POP SWAP1 JUMP JUMPDEST PUSH1 0x0 PUSH1 0x2 SLOAD PUSH1 0x0 EQ ISZERO PUSH2 0x2A3B JUMPI POP PUSH1 0x0 SWAP1 JUMP JUMPDEST PUSH1 0xD SLOAD PUSH1 0x1 SWAP1 PUSH2 0x2A4B SWAP1 DUP1 PUSH2 0x3979 JUMP JUMPDEST PUSH2 0x2A55 SWAP2 SWAP1 PUSH2 0x38B8 JUMP JUMPDEST PUSH1 0x1 SLOAD PUSH2 0x100 SWAP1 DIV PUSH1 0xFF AND GT SWAP2 SWAP1 POP JUMP JUMPDEST PUSH1 0xD SLOAD DUP2 LT ISZERO PUSH2 0x2B1E JUMPI PUSH1 0x0 PUSH1 0x10 PUSH1 0x0 PUSH1 0xD DUP5 DUP2 SLOAD DUP2 LT PUSH2 0x2A89 JUMPI PUSH2 0x2A89 PUSH2 0x3887 JUMP JUMPDEST PUSH1 0x0 SWAP2 DUP3 MSTORE PUSH1 0x20 DUP1 DUP4 KECCAK256 SWAP1 SWAP2 ADD SLOAD PUSH1 0x1 PUSH1 0x1 PUSH1 0xA0 SHL SUB AND DUP4 MSTORE DUP3 ADD SWAP3 SWAP1 SWAP3 MSTORE PUSH1 0x40 ADD SWAP1 KECCAK256 PUSH1 0x3 DUP2 ADD SLOAD SWAP1 SWAP2 POP PUSH1 0xFF PUSH1 0x1 PUSH1 0xB8 SHL SWAP1 SWAP2 DIV AND DUP1 ISZERO PUSH2 0x2AD8 JUMPI POP PUSH1 0x3 DUP2 ADD SLOAD PUSH1 0x1 PUSH1 0xC8 SHL SWAP1 DIV PUSH1 0xFF AND ISZERO JUMPDEST ISZERO PUSH2 0x2B0B JUMPI PUSH1 0x1 PUSH1 0x2 SLOAD PUSH2 0x2AEC SWAP2 SWAP1 PUSH2 0x38B8 JUMP JUMPDEST PUSH1 0x3 DUP3 ADD SLOAD PUSH1 0x1 PUSH1 0xA8 SHL SWAP1 DIV PUSH1 0xFF AND LT ISZERO PUSH2 0x2B0B JUMPI PUSH1 0x0 SWAP4 POP POP POP POP SWAP1 JUMP JUMPDEST POP DUP1 PUSH2 0x2B16 DUP2 PUSH2 0x389D JUMP JUMPDEST SWAP2 POP POP PUSH2 0x2A66 JUMP JUMPDEST POP PUSH1 0x1 SWAP2 POP POP SWAP1 JUMP JUMPDEST CALLER PUSH1 0x0 SWAP1 DUP2 MSTORE PUSH1 0x10 PUSH1 0x20 MSTORE PUSH1 0x40 SWAP1 KECCAK256 PUSH1 0x3 ADD SLOAD PUSH1 0x1 PUSH1 0xB8 SHL SWAP1 DIV PUSH1 0xFF AND PUSH2 0x2B86 JUMPI PUSH1 0x40 MLOAD PUSH3 0x461BCD PUSH1 0xE5 SHL DUP2 MSTORE PUSH1 0x20 PUSH1 0x4 DUP3 ADD MSTORE PUSH1 0x13 PUSH1 0x24 DUP3 ADD MSTORE PUSH19 0x155CD95C881B9BDD081C9959DA5CDD195C9959 PUSH1 0x6A SHL PUSH1 0x44 DUP3 ADD MSTORE PUSH1 0x64 ADD PUSH2 0x9DA JUMP JUMPDEST PUSH1 0x1 SLOAD PUSH1 0xFF AND PUSH1 0x0 SWAP1 DUP2 MSTORE PUSH1 0x15 PUSH1 0x20 SWAP1 DUP2 MSTORE PUSH1 0x40 DUP1 DUP4 KECCAK256 CALLER DUP5 MSTORE SWAP1 SWAP2 MSTORE SWAP1 KECCAK256 SLOAD ISZERO PUSH2 0x2BF3 JUMPI PUSH1 0x40 MLOAD PUSH3 0x461BCD PUSH1 0xE5 SHL DUP2 MSTORE PUSH1 0x20 PUSH1 0x4 DUP3 ADD MSTORE PUSH1 0x17 PUSH1 0x24 DUP3 ADD MSTORE PUSH32 0x53636F726520616C7265616479207375626D6974746564000000000000000000 PUSH1 0x44 DUP3 ADD MSTORE PUSH1 0x64 ADD PUSH2 0x9DA JUMP JUMPDEST PUSH1 0x1 DUP1 SLOAD PUSH1 0xFF SWAP1 DUP2 AND PUSH1 0x0 SWAP1 DUP2 MSTORE PUSH1 0x15 PUSH1 0x20 SWAP1 DUP2 MSTORE PUSH1 0x40 DUP1 DUP4 KECCAK256 CALLER DUP5 MSTORE DUP3 MSTORE DUP1 DUP4 KECCAK256 DUP7 SWAP1 SSTORE DUP5 SLOAD SWAP1 SWAP4 AND DUP3 MSTORE PUSH1 0x16 SWAP1 MSTORE SWAP1 DUP2 KECCAK256 DUP1 SLOAD SWAP1 SWAP2 SWAP1 PUSH2 0x2C36 SWAP1 DUP5 SWAP1 PUSH2 0x386F JUMP JUMPDEST SWAP1 SWAP2 SSTORE POP POP PUSH1 0x40 MLOAD DUP2 DUP2 MSTORE CALLER SWAP1 PUSH32 0x20E6C7C82A3C0A8203EFCA055FC9A664CA649345957DDC3BA34B2912E9ED8373 SWAP1 PUSH1 0x20 ADD PUSH1 0x40 MLOAD DUP1 SWAP2 SUB SWAP1 LOG2 POP JUMP JUMPDEST CALLER PUSH1 0x0 SWAP1 DUP2 MSTORE PUSH1 0x10 PUSH1 0x20 MSTORE PUSH1 0x40 SWAP1 KECCAK256 PUSH1 0x3 ADD SLOAD PUSH1 0x1 PUSH1 0xB8 SHL SWAP1 DIV PUSH1 0xFF AND PUSH2 0x2CAC JUMPI PUSH1 0x40 MLOAD PUSH3 0x461BCD PUSH1 0xE5 SHL DUP2 MSTORE PUSH1 0x4 ADD PUSH2 0x9DA SWAP1 PUSH2 0x383C JUMP JUMPDEST CALLER PUSH1 0x0 SWAP1 DUP2 MSTORE PUSH1 0x14 PUSH1 0x20 SWAP1 DUP2 MSTORE PUSH1 0x40 DUP1 DUP4 KECCAK256 PUSH1 0x1 SLOAD PUSH1 0xFF AND DUP5 MSTORE SWAP1 SWAP2 MSTORE SWAP1 KECCAK256 SLOAD ISZERO PUSH2 0x2CFF JUMPI PUSH1 0x40 MLOAD PUSH3 0x461BCD PUSH1 0xE5 SHL DUP2 MSTORE PUSH1 0x20 PUSH1 0x4 DUP3 ADD MSTORE PUSH1 0x3 PUSH1 0x24 DUP3 ADD MSTORE PUSH3 0x53415 PUSH1 0xEC SHL PUSH1 0x44 DUP3 ADD MSTORE PUSH1 0x64 ADD PUSH2 0x9DA JUMP JUMPDEST CALLER PUSH1 0x0 SWAP1 DUP2 MSTORE PUSH1 0x13 PUSH1 0x20 SWAP1 DUP2 MSTORE PUSH1 0x40 DUP1 DUP4 KECCAK256 PUSH1 0x1 SLOAD PUSH1 0xFF AND DUP5 MSTORE SWAP1 SWAP2 MSTORE SWAP1 KECCAK256 SSTORE JUMP JUMPDEST PUSH1 0x60 DUP1 PUSH1 0x60 PUSH1 0x0 DUP1 JUMPDEST PUSH1 0xD SLOAD DUP2 LT ISZERO PUSH2 0x2E87 JUMPI PUSH1 0x0 PUSH1 0xD DUP3 DUP2 SLOAD DUP2 LT PUSH2 0x2D49 JUMPI PUSH2 0x2D49 PUSH2 0x3887 JUMP JUMPDEST PUSH1 0x0 SWAP2 DUP3 MSTORE PUSH1 0x20 DUP1 DUP4 KECCAK256 SWAP1 SWAP2 ADD SLOAD PUSH1 0x1 SLOAD PUSH1 0xFF AND DUP4 MSTORE PUSH1 0x19 DUP3 MSTORE PUSH1 0x40 DUP1 DUP5 KECCAK256 PUSH1 0x1 PUSH1 0x1 PUSH1 0xA0 SHL SUB SWAP1 SWAP3 AND DUP1 DUP6 MSTORE SWAP2 SWAP1 SWAP3 MSTORE SWAP1 DUP3 KECCAK256 SLOAD SWAP1 SWAP3 POP SWAP1 JUMPDEST DUP2 DUP2 LT ISZERO PUSH2 0x2E71 JUMPI PUSH1 0x1 SLOAD PUSH1 0xFF AND PUSH1 0x0 SWAP1 DUP2 MSTORE PUSH1 0x19 PUSH1 0x20 SWAP1 DUP2 MSTORE PUSH1 0x40 DUP1 DUP4 KECCAK256 PUSH1 0x1 PUSH1 0x1 PUSH1 0xA0 SHL SUB DUP8 AND DUP5 MSTORE SWAP1 SWAP2 MSTORE DUP2 KECCAK256 DUP1 SLOAD DUP4 SWAP1 DUP2 LT PUSH2 0x2DC5 JUMPI PUSH2 0x2DC5 PUSH2 0x3887 JUMP JUMPDEST SWAP1 PUSH1 0x0 MSTORE PUSH1 0x20 PUSH1 0x0 KECCAK256 SWAP1 PUSH1 0x3 MUL ADD SWAP1 POP PUSH1 0x0 JUMPDEST DUP2 SLOAD DUP2 LT ISZERO PUSH2 0x2E5C JUMPI DUP11 PUSH1 0x1 PUSH1 0x1 PUSH1 0xA0 SHL SUB AND DUP3 PUSH1 0x0 ADD DUP3 DUP2 SLOAD DUP2 LT PUSH2 0x2E00 JUMPI PUSH2 0x2E00 PUSH2 0x3887 JUMP JUMPDEST PUSH1 0x0 SWAP2 DUP3 MSTORE PUSH1 0x20 SWAP1 SWAP2 KECCAK256 ADD SLOAD PUSH1 0x1 PUSH1 0x1 PUSH1 0xA0 SHL SUB AND EQ ISZERO PUSH2 0x2E4A JUMPI PUSH1 0x1 PUSH1 0x1 PUSH1 0xA0 SHL SUB DUP6 AND PUSH1 0x0 SWAP1 DUP2 MSTORE PUSH1 0x10 PUSH1 0x20 MSTORE PUSH1 0x40 DUP2 KECCAK256 PUSH1 0x2 ADD SLOAD SLT PUSH2 0x2E4A JUMPI DUP7 PUSH2 0x2E46 DUP2 PUSH2 0x389D JUMP JUMPDEST SWAP8 POP POP JUMPDEST DUP1 PUSH2 0x2E54 DUP2 PUSH2 0x389D JUMP JUMPDEST SWAP2 POP POP PUSH2 0x2DD8 JUMP JUMPDEST POP POP DUP1 DUP1 PUSH2 0x2E69 SWAP1 PUSH2 0x389D JUMP JUMPDEST SWAP2 POP POP PUSH2 0x2D83 JUMP JUMPDEST POP POP POP DUP1 DUP1 PUSH2 0x2E7F SWAP1 PUSH2 0x389D JUMP JUMPDEST SWAP2 POP POP PUSH2 0x2D2A JUMP JUMPDEST POP DUP1 PUSH8 0xFFFFFFFFFFFFFFFF DUP2 GT ISZERO PUSH2 0x2EA1 JUMPI PUSH2 0x2EA1 PUSH2 0x3AA0 JUMP JUMPDEST PUSH1 0x40 MLOAD SWAP1 DUP1 DUP3 MSTORE DUP1 PUSH1 0x20 MUL PUSH1 0x20 ADD DUP3 ADD PUSH1 0x40 MSTORE DUP1 ISZERO PUSH2 0x2ECA JUMPI DUP2 PUSH1 0x20 ADD PUSH1 0x20 DUP3 MUL DUP1 CALLDATASIZE DUP4 CALLDATACOPY ADD SWAP1 POP JUMPDEST POP SWAP4 POP DUP1 PUSH8 0xFFFFFFFFFFFFFFFF DUP2 GT ISZERO PUSH2 0x2EE6 JUMPI PUSH2 0x2EE6 PUSH2 0x3AA0 JUMP JUMPDEST PUSH1 0x40 MLOAD SWAP1 DUP1 DUP3 MSTORE DUP1 PUSH1 0x20 MUL PUSH1 0x20 ADD DUP3 ADD PUSH1 0x40 MSTORE DUP1 ISZERO PUSH2 0x2F0F JUMPI DUP2 PUSH1 0x20 ADD PUSH1 0x20 DUP3 MUL DUP1 CALLDATASIZE DUP4 CALLDATACOPY ADD SWAP1 POP JUMPDEST POP SWAP3 POP DUP1 PUSH8 0xFFFFFFFFFFFFFFFF DUP2 GT ISZERO PUSH2 0x2F2B JUMPI PUSH2 0x2F2B PUSH2 0x3AA0 JUMP JUMPDEST PUSH1 0x40 MLOAD SWAP1 DUP1 DUP3 MSTORE DUP1 PUSH1 0x20 MUL PUSH1 0x20 ADD DUP3 ADD PUSH1 0x40 MSTORE DUP1 ISZERO PUSH2 0x2F54 JUMPI DUP2 PUSH1 0x20 ADD PUSH1 0x20 DUP3 MUL DUP1 CALLDATASIZE DUP4 CALLDATACOPY ADD SWAP1 POP JUMPDEST POP SWAP2 POP PUSH1 0x0 DUP1 JUMPDEST PUSH1 0xD SLOAD DUP2 LT ISZERO PUSH2 0x319B JUMPI PUSH1 0x0 PUSH1 0x10 PUSH1 0x0 PUSH1 0xD DUP5 DUP2 SLOAD DUP2 LT PUSH2 0x2F7E JUMPI PUSH2 0x2F7E PUSH2 0x3887 JUMP JUMPDEST PUSH1 0x0 SWAP2 DUP3 MSTORE PUSH1 0x20 DUP1 DUP4 KECCAK256 SWAP1 SWAP2 ADD SLOAD PUSH1 0x1 PUSH1 0x1 PUSH1 0xA0 SHL SUB SWAP1 DUP2 AND DUP5 MSTORE DUP4 DUP3 ADD SWAP5 SWAP1 SWAP5 MSTORE PUSH1 0x40 SWAP3 DUP4 ADD DUP3 KECCAK256 PUSH1 0x1 SLOAD PUSH1 0xFF AND DUP4 MSTORE PUSH1 0x19 DUP3 MSTORE DUP4 DUP4 KECCAK256 PUSH1 0x3 DUP3 ADD SLOAD SWAP1 SWAP6 AND DUP4 MSTORE SWAP4 SWAP1 MSTORE SWAP1 DUP2 KECCAK256 SLOAD SWAP2 SWAP3 POP JUMPDEST DUP2 DUP2 LT ISZERO PUSH2 0x3185 JUMPI PUSH1 0x1 SLOAD PUSH1 0xFF AND PUSH1 0x0 SWAP1 DUP2 MSTORE PUSH1 0x19 PUSH1 0x20 SWAP1 DUP2 MSTORE PUSH1 0x40 DUP1 DUP4 KECCAK256 PUSH1 0x3 DUP8 ADD SLOAD PUSH1 0x1 PUSH1 0x1 PUSH1 0xA0 SHL SUB AND DUP5 MSTORE SWAP1 SWAP2 MSTORE DUP2 KECCAK256 DUP1 SLOAD DUP4 SWAP1 DUP2 LT PUSH2 0x3011 JUMPI PUSH2 0x3011 PUSH2 0x3887 JUMP JUMPDEST SWAP1 PUSH1 0x0 MSTORE PUSH1 0x20 PUSH1 0x0 KECCAK256 SWAP1 PUSH1 0x3 MUL ADD SWAP1 POP PUSH1 0x0 JUMPDEST DUP2 SLOAD DUP2 LT ISZERO PUSH2 0x3170 JUMPI DUP12 PUSH1 0x1 PUSH1 0x1 PUSH1 0xA0 SHL SUB AND DUP3 PUSH1 0x0 ADD DUP3 DUP2 SLOAD DUP2 LT PUSH2 0x304C JUMPI PUSH2 0x304C PUSH2 0x3887 JUMP JUMPDEST PUSH1 0x0 SWAP2 DUP3 MSTORE PUSH1 0x20 SWAP1 SWAP2 KECCAK256 ADD SLOAD PUSH1 0x1 PUSH1 0x1 PUSH1 0xA0 SHL SUB AND EQ ISZERO PUSH2 0x315E JUMPI PUSH1 0x0 DUP6 PUSH1 0x2 ADD SLOAD SLT PUSH2 0x315E JUMPI PUSH1 0x3 DUP6 ADD SLOAD DUP12 MLOAD PUSH1 0x1 PUSH1 0x1 PUSH1 0xA0 SHL SUB SWAP1 SWAP2 AND SWAP1 DUP13 SWAP1 DUP10 SWAP1 DUP2 LT PUSH2 0x3098 JUMPI PUSH2 0x3098 PUSH2 0x3887 JUMP JUMPDEST PUSH1 0x20 MUL PUSH1 0x20 ADD ADD SWAP1 PUSH1 0x1 PUSH1 0x1 PUSH1 0xA0 SHL SUB AND SWAP1 DUP2 PUSH1 0x1 PUSH1 0x1 PUSH1 0xA0 SHL SUB AND DUP2 MSTORE POP POP DUP2 PUSH1 0x1 ADD DUP2 DUP2 SLOAD DUP2 LT PUSH2 0x30CD JUMPI PUSH2 0x30CD PUSH2 0x3887 JUMP JUMPDEST SWAP1 PUSH1 0x0 MSTORE PUSH1 0x20 PUSH1 0x0 KECCAK256 SWAP1 PUSH1 0x20 SWAP2 DUP3 DUP3 DIV ADD SWAP2 SWAP1 MOD SWAP1 SLOAD SWAP1 PUSH2 0x100 EXP SWAP1 DIV PUSH1 0xFF AND DUP11 DUP9 DUP2 MLOAD DUP2 LT PUSH2 0x30FF JUMPI PUSH2 0x30FF PUSH2 0x3887 JUMP JUMPDEST PUSH1 0x20 MUL PUSH1 0x20 ADD ADD SWAP1 PUSH1 0xFF AND SWAP1 DUP2 PUSH1 0xFF AND DUP2 MSTORE POP POP DUP2 PUSH1 0x2 ADD DUP2 DUP2 SLOAD DUP2 LT PUSH2 0x3128 JUMPI PUSH2 0x3128 PUSH2 0x3887 JUMP JUMPDEST SWAP1 PUSH1 0x0 MSTORE PUSH1 0x20 PUSH1 0x0 KECCAK256 ADD SLOAD DUP10 DUP9 DUP2 MLOAD DUP2 LT PUSH2 0x3145 JUMPI PUSH2 0x3145 PUSH2 0x3887 JUMP JUMPDEST PUSH1 0x20 SWAP1 DUP2 MUL SWAP2 SWAP1 SWAP2 ADD ADD MSTORE DUP7 PUSH2 0x315A DUP2 PUSH2 0x389D JUMP JUMPDEST SWAP8 POP POP JUMPDEST DUP1 PUSH2 0x3168 DUP2 PUSH2 0x389D JUMP JUMPDEST SWAP2 POP POP PUSH2 0x3024 JUMP JUMPDEST POP POP DUP1 DUP1 PUSH2 0x317D SWAP1 PUSH2 0x389D JUMP JUMPDEST SWAP2 POP POP PUSH2 0x2FCB JUMP JUMPDEST POP POP POP DUP1 DUP1 PUSH2 0x3193 SWAP1 PUSH2 0x389D JUMP JUMPDEST SWAP2 POP POP PUSH2 0x2F5B JUMP JUMPDEST POP POP POP SWAP2 SWAP4 SWAP1 SWAP3 POP JUMP JUMPDEST PUSH1 0x0 DUP1 DUP3 SLT PUSH2 0x31B2 JUMPI POP SWAP1 JUMP JUMPDEST PUSH1 0x1 PUSH1 0xFF SHL DUP3 EQ ISZERO PUSH2 0x31D6 JUMPI PUSH2 0x31D0 PUSH1 0x1 PUSH1 0x1 PUSH1 0xFF SHL SUB PUSH1 0x1 PUSH2 0x386F JUMP JUMPDEST SWAP3 SWAP2 POP POP JUMP JUMPDEST PUSH2 0x31D0 DUP3 PUSH2 0x3998 JUMP JUMPDEST PUSH1 0x0 DUP1 DUP3 SGT PUSH2 0x31EF JUMPI PUSH1 0x0 PUSH2 0x31D0 JUMP JUMPDEST POP SWAP1 JUMP JUMPDEST PUSH1 0x1 PUSH1 0x1 PUSH1 0xA0 SHL SUB DUP2 AND PUSH1 0x0 DUP2 DUP2 MSTORE PUSH1 0x10 PUSH1 0x20 MSTORE PUSH1 0x40 DUP2 KECCAK256 PUSH1 0x3 DUP2 ADD DUP1 SLOAD CALLVALUE PUSH1 0x1 DUP1 DUP6 ADD SWAP2 SWAP1 SWAP2 SSTORE PUSH6 0xFF00000000FF PUSH1 0xA0 SHL NOT PUSH1 0x1 PUSH4 0xFF000001 PUSH1 0xA0 SHL SUB NOT SWAP1 SWAP3 AND SWAP1 SWAP6 OR PUSH1 0x1 PUSH1 0xB8 SHL OR AND PUSH1 0x1 PUSH1 0xA0 SHL OR SWAP1 SSTORE PUSH1 0x2 DUP1 SLOAD SWAP2 SWAP4 SWAP3 SWAP1 SWAP2 PUSH2 0x325B SWAP1 DUP5 SWAP1 PUSH2 0x386F JUMP JUMPDEST SWAP1 SWAP2 SSTORE POP POP PUSH1 0xD DUP1 SLOAD PUSH1 0x1 DUP2 ADD DUP3 SSTORE PUSH1 0x0 SWAP2 SWAP1 SWAP2 MSTORE PUSH32 0xD7B6990105719101DABEB77144F2A3385C8033ACD3AF97E9423A695E81AD1EB5 ADD DUP1 SLOAD PUSH1 0x1 PUSH1 0x1 PUSH1 0xA0 SHL SUB NOT AND PUSH1 0x1 PUSH1 0x1 PUSH1 0xA0 SHL SUB DUP5 AND OR SWAP1 SSTORE PUSH1 0x2 SLOAD PUSH1 0x40 MLOAD PUSH32 0xABE5B1202D1F4ED2C1BACCF335320CEAE3ABD90670864B741E80A2EF5671D882 SWAP2 PUSH2 0x32E3 SWAP2 DUP6 SWAP2 CALLVALUE SWAP2 SELFBALANCE SWAP2 SWAP1 PUSH2 0x3953 JUMP JUMPDEST PUSH1 0x40 MLOAD DUP1 SWAP2 SUB SWAP1 LOG1 POP POP JUMP JUMPDEST POP DUP1 SLOAD PUSH1 0x0 DUP3 SSTORE SWAP1 PUSH1 0x0 MSTORE PUSH1 0x20 PUSH1 0x0 KECCAK256 SWAP1 DUP2 ADD SWAP1 PUSH2 0x218D SWAP2 SWAP1 PUSH2 0x344A JUMP JUMPDEST DUP3 DUP1 SLOAD DUP3 DUP3 SSTORE SWAP1 PUSH1 0x0 MSTORE PUSH1 0x20 PUSH1 0x0 KECCAK256 SWAP1 DUP2 ADD SWAP3 DUP3 ISZERO PUSH2 0x3362 JUMPI SWAP2 PUSH1 0x20 MUL DUP3 ADD JUMPDEST DUP3 DUP2 GT ISZERO PUSH2 0x3362 JUMPI DUP3 MLOAD DUP3 SLOAD PUSH1 0x1 PUSH1 0x1 PUSH1 0xA0 SHL SUB NOT AND PUSH1 0x1 PUSH1 0x1 PUSH1 0xA0 SHL SUB SWAP1 SWAP2 AND OR DUP3 SSTORE PUSH1 0x20 SWAP1 SWAP3 ADD SWAP2 PUSH1 0x1 SWAP1 SWAP2 ADD SWAP1 PUSH2 0x332D JUMP JUMPDEST POP PUSH2 0x31EF SWAP3 SWAP2 POP PUSH2 0x344A JUMP JUMPDEST DUP3 DUP1 SLOAD DUP3 DUP3 SSTORE SWAP1 PUSH1 0x0 MSTORE PUSH1 0x20 PUSH1 0x0 KECCAK256 SWAP1 PUSH1 0x1F ADD PUSH1 0x20 SWAP1 DIV DUP2 ADD SWAP3 DUP3 ISZERO PUSH2 0x3362 JUMPI SWAP2 PUSH1 0x20 MUL DUP3 ADD PUSH1 0x0 JUMPDEST DUP4 DUP3 GT ISZERO PUSH2 0x33D5 JUMPI DUP4 MLOAD DUP4 DUP3 PUSH2 0x100 EXP DUP2 SLOAD DUP2 PUSH1 0xFF MUL NOT AND SWAP1 DUP4 PUSH1 0xFF AND MUL OR SWAP1 SSTORE POP SWAP3 PUSH1 0x20 ADD SWAP3 PUSH1 0x1 ADD PUSH1 0x20 DUP2 PUSH1 0x0 ADD DIV SWAP3 DUP4 ADD SWAP3 PUSH1 0x1 SUB MUL PUSH2 0x3397 JUMP JUMPDEST DUP1 ISZERO PUSH2 0x3402 JUMPI DUP3 DUP2 PUSH2 0x100 EXP DUP2 SLOAD SWAP1 PUSH1 0xFF MUL NOT AND SWAP1 SSTORE PUSH1 0x1 ADD PUSH1 0x20 DUP2 PUSH1 0x0 ADD DIV SWAP3 DUP4 ADD SWAP3 PUSH1 0x1 SUB MUL PUSH2 0x33D5 JUMP JUMPDEST POP POP PUSH2 0x31EF SWAP3 SWAP2 POP PUSH2 0x344A JUMP JUMPDEST DUP3 DUP1 SLOAD DUP3 DUP3 SSTORE SWAP1 PUSH1 0x0 MSTORE PUSH1 0x20 PUSH1 0x0 KECCAK256 SWAP1 DUP2 ADD SWAP3 DUP3 ISZERO PUSH2 0x3362 JUMPI SWAP2 PUSH1 0x20 MUL DUP3 ADD JUMPDEST DUP3 DUP2 GT ISZERO PUSH2 0x3362 JUMPI DUP3 MLOAD DUP3 SSTORE SWAP2 PUSH1 0x20 ADD SWAP2 SWAP1 PUSH1 0x1 ADD SWAP1 PUSH2 0x342F JUMP JUMPDEST JUMPDEST DUP1 DUP3 GT ISZERO PUSH2 0x31EF JUMPI PUSH1 0x0 DUP2 SSTORE PUSH1 0x1 ADD PUSH2 0x344B JUMP JUMPDEST DUP1 CALLDATALOAD PUSH1 0x1 PUSH1 0x1 PUSH1 0xA0 SHL SUB DUP2 AND DUP2 EQ PUSH2 0x3476 JUMPI PUSH1 0x0 DUP1 REVERT JUMPDEST SWAP2 SWAP1 POP JUMP JUMPDEST DUP1 CALLDATALOAD PUSH1 0xFF DUP2 AND DUP2 EQ PUSH2 0x3476 JUMPI PUSH1 0x0 DUP1 REVERT JUMPDEST PUSH1 0x0 DUP1 PUSH1 0x40 DUP4 DUP6 SUB SLT ISZERO PUSH2 0x349F JUMPI PUSH1 0x0 DUP1 REVERT JUMPDEST PUSH2 0x34A8 DUP4 PUSH2 0x345F JUMP JUMPDEST SWAP2 POP PUSH2 0x34B6 PUSH1 0x20 DUP5 ADD PUSH2 0x347B JUMP JUMPDEST SWAP1 POP SWAP3 POP SWAP3 SWAP1 POP JUMP JUMPDEST PUSH1 0x0 PUSH1 0x20 DUP3 DUP5 SUB SLT ISZERO PUSH2 0x34D1 JUMPI PUSH1 0x0 DUP1 REVERT JUMPDEST POP CALLDATALOAD SWAP2 SWAP1 POP JUMP JUMPDEST PUSH1 0x0 DUP1 PUSH1 0x40 DUP4 DUP6 SUB SLT ISZERO PUSH2 0x34EB JUMPI PUSH1 0x0 DUP1 REVERT JUMPDEST PUSH2 0x34F4 DUP4 PUSH2 0x345F JUMP JUMPDEST SWAP5 PUSH1 0x20 SWAP4 SWAP1 SWAP4 ADD CALLDATALOAD SWAP4 POP POP POP JUMP JUMPDEST PUSH1 0x0 PUSH1 0x20 DUP3 DUP5 SUB SLT ISZERO PUSH2 0x3514 JUMPI PUSH1 0x0 DUP1 REVERT JUMPDEST PUSH2 0x351D DUP3 PUSH2 0x345F JUMP JUMPDEST SWAP4 SWAP3 POP POP POP JUMP JUMPDEST PUSH1 0x0 DUP1 PUSH1 0x40 DUP4 DUP6 SUB SLT ISZERO PUSH2 0x3537 JUMPI PUSH1 0x0 DUP1 REVERT JUMPDEST PUSH2 0x3540 DUP4 PUSH2 0x345F JUMP JUMPDEST SWAP2 POP PUSH2 0x34B6 PUSH1 0x20 DUP5 ADD PUSH2 0x345F JUMP JUMPDEST PUSH1 0x0 PUSH1 0x20 DUP3 DUP5 SUB SLT ISZERO PUSH2 0x3560 JUMPI PUSH1 0x0 DUP1 REVERT JUMPDEST PUSH2 0x351D DUP3 PUSH2 0x347B JUMP JUMPDEST PUSH1 0x0 DUP1 PUSH1 0x40 DUP4 DUP6 SUB SLT ISZERO PUSH2 0x357C JUMPI PUSH1 0x0 DUP1 REVERT JUMPDEST POP POP DUP1 CALLDATALOAD SWAP3 PUSH1 0x20 SWAP1 SWAP2 ADD CALLDATALOAD SWAP2 POP JUMP JUMPDEST PUSH1 0x0 DUP1 PUSH1 0x40 DUP4 DUP6 SUB SLT ISZERO PUSH2 0x359E JUMPI PUSH1 0x0 DUP1 REVERT JUMPDEST PUSH2 0x3540 DUP4 PUSH2 0x347B JUMP JUMPDEST PUSH1 0x0 DUP2 MLOAD DUP1 DUP5 MSTORE PUSH1 0x20 DUP1 DUP6 ADD SWAP5 POP DUP1 DUP5 ADD PUSH1 0x0 JUMPDEST DUP4 DUP2 LT ISZERO PUSH2 0x35DA JUMPI DUP2 MLOAD PUSH1 0xFF AND DUP8 MSTORE SWAP6 DUP3 ADD SWAP6 SWAP1 DUP3 ADD SWAP1 PUSH1 0x1 ADD PUSH2 0x35BB JUMP JUMPDEST POP SWAP5 SWAP6 SWAP5 POP POP POP POP POP JUMP JUMPDEST PUSH1 0x0 DUP2 MLOAD DUP1 DUP5 MSTORE PUSH1 0x20 DUP1 DUP6 ADD SWAP5 POP DUP1 DUP5 ADD PUSH1 0x0 JUMPDEST DUP4 DUP2 LT ISZERO PUSH2 0x35DA JUMPI DUP2 MLOAD DUP8 MSTORE SWAP6 DUP3 ADD SWAP6 SWAP1 DUP3 ADD SWAP1 PUSH1 0x1 ADD PUSH2 0x35F9 JUMP JUMPDEST PUSH1 0x40 DUP2 MSTORE PUSH1 0x0 PUSH2 0x3628 PUSH1 0x40 DUP4 ADD DUP6 PUSH2 0x35A7 JUMP JUMPDEST DUP3 DUP2 SUB PUSH1 0x20 DUP5 ADD MSTORE PUSH2 0x363A DUP2 DUP6 PUSH2 0x35E5 JUMP JUMPDEST SWAP6 SWAP5 POP POP POP POP POP JUMP JUMPDEST PUSH1 0x0 DUP1 DUP4 PUSH1 0x1F DUP5 ADD SLT PUSH2 0x3655 JUMPI PUSH1 0x0 DUP1 REVERT JUMPDEST POP DUP2 CALLDATALOAD PUSH8 0xFFFFFFFFFFFFFFFF DUP2 GT ISZERO PUSH2 0x366D JUMPI PUSH1 0x0 DUP1 REVERT JUMPDEST PUSH1 0x20 DUP4 ADD SWAP2 POP DUP4 PUSH1 0x20 DUP3 DUP6 ADD ADD GT ISZERO PUSH2 0x3685 JUMPI PUSH1 0x0 DUP1 REVERT JUMPDEST SWAP3 POP SWAP3 SWAP1 POP JUMP JUMPDEST PUSH1 0x0 DUP1 DUP4 PUSH1 0x1F DUP5 ADD SLT PUSH2 0x369E JUMPI PUSH1 0x0 DUP1 REVERT JUMPDEST POP DUP2 CALLDATALOAD PUSH8 0xFFFFFFFFFFFFFFFF DUP2 GT ISZERO PUSH2 0x36B6 JUMPI PUSH1 0x0 DUP1 REVERT JUMPDEST PUSH1 0x20 DUP4 ADD SWAP2 POP DUP4 PUSH1 0x20 DUP3 PUSH1 0x5 SHL DUP6 ADD ADD GT ISZERO PUSH2 0x3685 JUMPI PUSH1 0x0 DUP1 REVERT JUMPDEST PUSH1 0x0 DUP1 PUSH1 0x0 DUP1 PUSH1 0x0 DUP1 PUSH1 0x0 DUP1 PUSH1 0xA0 DUP10 DUP12 SUB SLT ISZERO PUSH2 0x36ED JUMPI PUSH1 0x0 DUP1 REVERT JUMPDEST DUP9 CALLDATALOAD PUSH8 0xFFFFFFFFFFFFFFFF DUP1 DUP3 GT ISZERO PUSH2 0x3705 JUMPI PUSH1 0x0 DUP1 REVERT JUMPDEST PUSH2 0x3711 DUP13 DUP4 DUP14 ADD PUSH2 0x3643 JUMP JUMPDEST SWAP1 SWAP11 POP SWAP9 POP PUSH1 0x20 DUP12 ADD CALLDATALOAD SWAP2 POP DUP1 DUP3 GT ISZERO PUSH2 0x372A JUMPI PUSH1 0x0 DUP1 REVERT JUMPDEST PUSH2 0x3736 DUP13 DUP4 DUP14 ADD PUSH2 0x368C JUMP JUMPDEST SWAP1 SWAP9 POP SWAP7 POP PUSH1 0x40 DUP12 ADD CALLDATALOAD SWAP2 POP DUP1 DUP3 GT ISZERO PUSH2 0x374F JUMPI PUSH1 0x0 DUP1 REVERT JUMPDEST POP PUSH2 0x375C DUP12 DUP3 DUP13 ADD PUSH2 0x368C JUMP JUMPDEST SWAP1 SWAP6 POP SWAP4 POP PUSH2 0x376F SWAP1 POP PUSH1 0x60 DUP11 ADD PUSH2 0x347B JUMP JUMPDEST SWAP2 POP PUSH1 0x80 DUP10 ADD CALLDATALOAD SWAP1 POP SWAP3 SWAP6 SWAP9 POP SWAP3 SWAP6 SWAP9 SWAP1 SWAP4 SWAP7 POP JUMP JUMPDEST PUSH1 0x0 DUP1 PUSH1 0x20 DUP4 DUP6 SUB SLT ISZERO PUSH2 0x3798 JUMPI PUSH1 0x0 DUP1 REVERT JUMPDEST DUP3 CALLDATALOAD PUSH8 0xFFFFFFFFFFFFFFFF DUP2 GT ISZERO PUSH2 0x37AF JUMPI PUSH1 0x0 DUP1 REVERT JUMPDEST PUSH2 0x37BB DUP6 DUP3 DUP7 ADD PUSH2 0x3643 JUMP JUMPDEST SWAP1 SWAP7 SWAP1 SWAP6 POP SWAP4 POP POP POP POP JUMP JUMPDEST PUSH1 0x60 DUP1 DUP3 MSTORE DUP5 MLOAD SWAP1 DUP3 ADD DUP2 SWAP1 MSTORE PUSH1 0x0 SWAP1 PUSH1 0x20 SWAP1 PUSH1 0x80 DUP5 ADD SWAP1 DUP3 DUP9 ADD DUP5 JUMPDEST DUP3 DUP2 LT ISZERO PUSH2 0x3809 JUMPI DUP2 MLOAD PUSH1 0x1 PUSH1 0x1 PUSH1 0xA0 SHL SUB AND DUP5 MSTORE SWAP3 DUP5 ADD SWAP3 SWAP1 DUP5 ADD SWAP1 PUSH1 0x1 ADD PUSH2 0x37E4 JUMP JUMPDEST POP POP POP DUP4 DUP2 SUB DUP3 DUP6 ADD MSTORE PUSH2 0x381D DUP2 DUP8 PUSH2 0x35A7 JUMP JUMPDEST SWAP2 POP POP DUP3 DUP2 SUB PUSH1 0x40 DUP5 ADD MSTORE PUSH2 0x3832 DUP2 DUP6 PUSH2 0x35E5 JUMP JUMPDEST SWAP7 SWAP6 POP POP POP POP POP POP JUMP JUMPDEST PUSH1 0x20 DUP1 DUP3 MSTORE PUSH1 0x3 SWAP1 DUP3 ADD MSTORE PUSH3 0x29A729 PUSH1 0xE9 SHL PUSH1 0x40 DUP3 ADD MSTORE PUSH1 0x60 ADD SWAP1 JUMP JUMPDEST PUSH4 0x4E487B71 PUSH1 0xE0 SHL PUSH1 0x0 MSTORE PUSH1 0x11 PUSH1 0x4 MSTORE PUSH1 0x24 PUSH1 0x0 REVERT JUMPDEST PUSH1 0x0 DUP3 NOT DUP3 GT ISZERO PUSH2 0x3882 JUMPI PUSH2 0x3882 PUSH2 0x3859 JUMP JUMPDEST POP ADD SWAP1 JUMP JUMPDEST PUSH4 0x4E487B71 PUSH1 0xE0 SHL PUSH1 0x0 MSTORE PUSH1 0x32 PUSH1 0x4 MSTORE PUSH1 0x24 PUSH1 0x0 REVERT JUMPDEST PUSH1 0x0 PUSH1 0x0 NOT DUP3 EQ ISZERO PUSH2 0x38B1 JUMPI PUSH2 0x38B1 PUSH2 0x3859 JUMP JUMPDEST POP PUSH1 0x1 ADD SWAP1 JUMP JUMPDEST PUSH1 0x0 DUP3 DUP3 LT ISZERO PUSH2 0x38CA JUMPI PUSH2 0x38CA PUSH2 0x3859 JUMP JUMPDEST POP SUB SWAP1 JUMP JUMPDEST PUSH1 0x0 PUSH1 0xFF DUP3 AND PUSH1 0xFF DUP5 AND DUP1 DUP3 LT ISZERO PUSH2 0x38E9 JUMPI PUSH2 0x38E9 PUSH2 0x3859 JUMP JUMPDEST SWAP1 SUB SWAP4 SWAP3 POP POP POP JUMP JUMPDEST PUSH1 0x0 DUP3 PUSH2 0x390F JUMPI PUSH4 0x4E487B71 PUSH1 0xE0 SHL PUSH1 0x0 MSTORE PUSH1 0x12 PUSH1 0x4 MSTORE PUSH1 0x24 PUSH1 0x0 REVERT JUMPDEST POP DIV SWAP1 JUMP JUMPDEST PUSH1 0x0 DUP1 DUP4 SLT DUP1 ISZERO PUSH1 0x1 PUSH1 0xFF SHL DUP6 ADD DUP5 SLT AND ISZERO PUSH2 0x3932 JUMPI PUSH2 0x3932 PUSH2 0x3859 JUMP JUMPDEST PUSH1 0x1 PUSH1 0x1 PUSH1 0xFF SHL SUB DUP5 ADD DUP4 SGT DUP2 AND ISZERO PUSH2 0x394D JUMPI PUSH2 0x394D PUSH2 0x3859 JUMP JUMPDEST POP POP SUB SWAP1 JUMP JUMPDEST PUSH1 0x1 PUSH1 0x1 PUSH1 0xA0 SHL SUB SWAP5 SWAP1 SWAP5 AND DUP5 MSTORE PUSH1 0x20 DUP5 ADD SWAP3 SWAP1 SWAP3 MSTORE PUSH1 0x40 DUP4 ADD MSTORE PUSH1 0x60 DUP3 ADD MSTORE PUSH1 0x80 ADD SWAP1 JUMP JUMPDEST PUSH1 0x0 DUP2 PUSH1 0x0 NOT DIV DUP4 GT DUP3 ISZERO ISZERO AND ISZERO PUSH2 0x3993 JUMPI PUSH2 0x3993 PUSH2 0x3859 JUMP JUMPDEST POP MUL SWAP1 JUMP JUMPDEST PUSH1 0x0 PUSH1 0x1 PUSH1 0xFF SHL DUP3 EQ ISZERO PUSH2 0x39AE JUMPI PUSH2 0x39AE PUSH2 0x3859 JUMP JUMPDEST POP PUSH1 0x0 SUB SWAP1 JUMP JUMPDEST PUSH1 0x0 DUP1 DUP3 SLT DUP1 ISZERO PUSH1 0x1 PUSH1 0x1 PUSH1 0xFF SHL SUB DUP5 SWAP1 SUB DUP6 SGT AND ISZERO PUSH2 0x39D7 JUMPI PUSH2 0x39D7 PUSH2 0x3859 JUMP JUMPDEST PUSH1 0x1 PUSH1 0xFF SHL DUP4 SWAP1 SUB DUP5 SLT DUP2 AND ISZERO PUSH2 0x39F0 JUMPI PUSH2 0x39F0 PUSH2 0x3859 JUMP JUMPDEST POP POP ADD SWAP1 JUMP JUMPDEST PUSH1 0x0 PUSH1 0xFF DUP3 AND PUSH1 0xFF DUP5 AND DUP1 PUSH1 0xFF SUB DUP3 GT ISZERO PUSH2 0x3A13 JUMPI PUSH2 0x3A13 PUSH2 0x3859 JUMP JUMPDEST ADD SWAP4 SWAP3 POP POP POP JUMP JUMPDEST PUSH1 0x0 PUSH1 0x1 PUSH1 0x1 PUSH1 0xFF SHL SUB DUP2 DUP5 SGT DUP3 DUP5 SGT DUP1 DUP3 AND DUP7 DUP5 DIV DUP7 GT AND ISZERO PUSH2 0x3A41 JUMPI PUSH2 0x3A41 PUSH2 0x3859 JUMP JUMPDEST PUSH1 0x1 PUSH1 0xFF SHL PUSH1 0x0 DUP8 SLT DUP3 DUP2 AND DUP8 DUP4 SDIV DUP10 SLT AND ISZERO PUSH2 0x3A60 JUMPI PUSH2 0x3A60 PUSH2 0x3859 JUMP JUMPDEST PUSH1 0x0 DUP8 SLT SWAP3 POP DUP8 DUP3 SDIV DUP8 SLT DUP5 DUP5 AND AND ISZERO PUSH2 0x3A7C JUMPI PUSH2 0x3A7C PUSH2 0x3859 JUMP JUMPDEST DUP8 DUP6 SDIV DUP8 SLT DUP2 DUP5 AND AND ISZERO PUSH2 0x3A92 JUMPI PUSH2 0x3A92 PUSH2 0x3859 JUMP JUMPDEST POP POP POP SWAP3 SWAP1 SWAP4 MUL SWAP4 SWAP3 POP POP POP JUMP JUMPDEST PUSH4 0x4E487B71 PUSH1 0xE0 SHL PUSH1 0x0 MSTORE PUSH1 0x41 PUSH1 0x4 MSTORE PUSH1 0x24 PUSH1 0x0 REVERT JUMPDEST PUSH1 0x0 PUSH1 0xFF DUP3 AND PUSH1 0xFF DUP2 EQ ISZERO PUSH2 0x3ACD JUMPI PUSH2 0x3ACD PUSH2 0x3859 JUMP JUMPDEST PUSH1 0x1 ADD SWAP3 SWAP2 POP POP JUMP INVALID LOG2 PUSH5 0x6970667358 0x22 SLT KECCAK256 SWAP1 0xAF PUSH26 0x7148B9C9B1118130E750FB80ECC688CFFCF71F04716EA089B496 DUP15 0xC3 EXTCODESIZE PUSH5 0x736F6C6343 STOP ADDMOD MULMOD STOP CALLER LOG2 PUSH5 0x6970667358 0x22 SLT KECCAK256 CALLDATALOAD SWAP15 0xB5 COINBASE 0xDD 0x49 MULMOD SWAP7 ADDMOD PUSH21 0x8CA57C8C4B0F34969CEAC7767C9332D9D5490879A7 0x26 PUSH5 0x736F6C6343 STOP ADDMOD MULMOD STOP CALLER "},"methodIdentifiers":{"ModelCountOf(address)":"3f074102","ModelOf(address,uint256)":"af293c84","deployModel(bytes32,uint256,uint256,uint256,uint8,uint8,uint8,uint8)":"4a65beb4"}}}}}