{"project/contracts/OpenFLModel.sol":{"OpenFLModel":{"abi":[{"inputs":[{"internalType":"bytes32","name":"_modelHash","type":"bytes32"},{"internalType":"uint256","name":"_min_collateral","type":"uint256"},{"internalType":"uint256","name":"_max_collateral","type":"uint256"},{"internalType":"uint256","name":"_reward","type":"uint256"},{"internalType":"uint8","name":"_min_rounds","type":"uint8"},{"internalType":"uint8","name":"_punishfactor","type":"uint8"},{"internalType":"uint8","name":"_punishfactorContrib","type":"uint8"},{"internalType":"uint8","name":"_freeriderPenalty","type":"uint8"}],"stateMutability":"payable","type":"constructor"},{"anonymous":false,"inputs":[{"indexed":true,"internalType":"address","name":"user","type":"address"},{"indexed":false,"internalType":"int256","name":"contributionScore","type":"int256"}],"name":"ContributionScoreSubmitted","type":"event"},{"anonymous":false,"inputs":[{"indexed":false,"internalType":"address","name":"victim","type":"address"},{"indexed":false,"internalType":"int256","name":"roundScore","type":"int256"},{"indexed":false,"internalType":"uint256","name":"loss","type":"uint256"},{"indexed":false,"internalType":"uint256","name":"newReputation","type":"uint256"}],"name":"Disqualification","type":"event"},{"anonymous":false,"inputs":[{"indexed":false,"internalType":"uint8","name":"round","type":"uint8"},{"indexed":false,"internalType":"uint8","name":"validVotes","type":"uint8"},{"indexed":false,"internalType":"uint256","name":"sumOfWeights","type":"uint256"},{"indexed":false,"internalType":"uint256","name":"totalPunishment","type":"uint256"}],"name":"EndRound","type":"event"},{"anonymous":false,"inputs":[{"indexed":false,"internalType":"uint256","name":"initTS","type":"uint256"},{"indexed":false,"internalType":"uint256","name":"max_collateral","type":"uint256"},{"indexed":false,"internalType":"uint256","name":"min_collateral","type":"uint256"},{"indexed":false,"internalType":"uint256","name":"total_reward","type":"uint256"},{"indexed":false,"internalType":"uint8","name":"min_rounds","type":"uint8"},{"indexed":false,"internalType":"uint256","name":"freerider_fee","type":"uint256"}],"name":"FederatedLerningModelDeployed","type":"event"},{"anonymous":false,"inputs":[{"indexed":false,"internalType":"address","name":"target","type":"address"},{"indexed":false,"internalType":"address","name":"user","type":"address"},{"indexed":false,"internalType":"uint256","name":"globalReputation","type":"uint256"},{"indexed":false,"internalType":"int256","name":"newRoundReputation","type":"int256"}],"name":"Feedback","type":"event"},{"anonymous":false,"inputs":[{"indexed":false,"internalType":"address","name":"victim","type":"address"},{"indexed":false,"internalType":"int256","name":"roundScore","type":"int256"},{"indexed":false,"internalType":"uint256","name":"loss","type":"uint256"},{"indexed":false,"internalType":"uint256","name":"newReputation","type":"uint256"}],"name":"PassivPunishment","type":"event"},{"anonymous":false,"inputs":[{"indexed":false,"internalType":"address","name":"victim","type":"address"},{"indexed":false,"internalType":"int256","name":"roundScore","type":"int256"},{"indexed":false,"internalType":"uint256","name":"loss","type":"uint256"},{"indexed":false,"internalType":"uint256","name":"newReputation","type":"uint256"}],"name":"Punishment","type":"event"},{"anonymous":false,"inputs":[{"indexed":false,"internalType":"address","name":"user","type":"address"},{"indexed":false,"internalType":"uint256","name":"reputationValue","type":"uint256"},{"indexed":false,"internalType":"uint256","name":"totalCollateral","type":"uint256"},{"indexed":false,"internalType":"uint256","name":"numberOfContributers","type":"uint256"}],"name":"Registered","type":"event"},{"anonymous":false,"inputs":[{"indexed":false,"internalType":"address","name":"user","type":"address"},{"indexed":false,"internalType":"int256","name":"roundScore","type":"int256"},{"indexed":false,"internalType":"uint256","name":"win","type":"uint256"},{"indexed":false,"internalType":"uint256","name":"newReputation","type":"uint256"}],"name":"Reward","type":"event"},{"inputs":[{"internalType":"uint8","name":"","type":"uint8"},{"internalType":"address","name":"","type":"address"}],"name":"contributionScore","outputs":[{"internalType":"int256","name":"","type":"int256"}],"stateMutability":"view","type":"function"},{"inputs":[],"name":"contributionStart","outputs":[{"internalType":"uint256","name":"","type":"uint256"}],"stateMutability":"view","type":"function"},{"inputs":[],"name":"exitModel","outputs":[],"stateMutability":"nonpayable","type":"function"},{"inputs":[{"internalType":"address","name":"target","type":"address"},{"internalType":"int256","name":"score","type":"int256"}],"name":"feedback","outputs":[],"stateMutability":"nonpayable","type":"function"},{"inputs":[],"name":"freeriderPenalty","outputs":[{"internalType":"uint256","name":"","type":"uint256"}],"stateMutability":"view","type":"function"},{"inputs":[{"internalType":"address","name":"target","type":"address"}],"name":"getAllAccuraciesAbout","outputs":[{"internalType":"address[]","name":"voters","type":"address[]"},{"internalType":"uint8[]","name":"accuracies","type":"uint8[]"},{"internalType":"uint256[]","name":"losses","type":"uint256[]"}],"stateMutability":"view","type":"function"},{"inputs":[],"name":"getAllPreviousAccuraciesAndLosses","outputs":[{"internalType":"uint8[]","name":"previous_accuracies","type":"uint8[]"},{"internalType":"uint256[]","name":"previous_losses","type":"uint256[]"}],"stateMutability":"view","type":"function"},{"inputs":[{"internalType":"address","name":"","type":"address"},{"internalType":"address","name":"","type":"address"}],"name":"hasVoted","outputs":[{"internalType":"bool","name":"","type":"bool"}],"stateMutability":"view","type":"function"},{"inputs":[],"name":"initTS","outputs":[{"internalType":"uint256","name":"","type":"uint256"}],"stateMutability":"view","type":"function"},{"inputs":[],"name":"isContributionRoundDone","outputs":[{"internalType":"bool","name":"roundClosed","type":"bool"}],"stateMutability":"view","type":"function"},{"inputs":[],"name":"isFeedBackRoundDone","outputs":[{"internalType":"bool","name":"roundClosed","type":"bool"}],"stateMutability":"view","type":"function"},{"inputs":[],"name":"max_collateral","outputs":[{"internalType":"uint256","name":"","type":"uint256"}],"stateMutability":"view","type":"function"},{"inputs":[],"name":"min_collateral","outputs":[{"internalType":"uint256","name":"","type":"uint256"}],"stateMutability":"view","type":"function"},{"inputs":[],"name":"min_rounds","outputs":[{"internalType":"uint8","name":"","type":"uint8"}],"stateMutability":"view","type":"function"},{"inputs":[],"name":"modelHash","outputs":[{"internalType":"bytes32","name":"","type":"bytes32"}],"stateMutability":"view","type":"function"},{"inputs":[{"internalType":"uint8","name":"","type":"uint8"}],"name":"nrOfContributionScores","outputs":[{"internalType":"uint256","name":"","type":"uint256"}],"stateMutability":"view","type":"function"},{"inputs":[],"name":"nrOfParticipants","outputs":[{"internalType":"uint256","name":"","type":"uint256"}],"stateMutability":"view","type":"function"},{"inputs":[],"name":"nrOfProvidedHashedWeights","outputs":[{"internalType":"uint256","name":"","type":"uint256"}],"stateMutability":"view","type":"function"},{"inputs":[{"internalType":"uint256","name":"","type":"uint256"}],"name":"participants","outputs":[{"internalType":"address","name":"","type":"address"}],"stateMutability":"view","type":"function"},{"inputs":[{"internalType":"uint8","name":"","type":"uint8"},{"internalType":"address","name":"","type":"address"}],"name":"prev_accs","outputs":[{"internalType":"uint8","name":"","type":"uint8"}],"stateMutability":"view","type":"function"},{"inputs":[{"internalType":"uint8","name":"","type":"uint8"},{"internalType":"address","name":"","type":"address"}],"name":"prev_losses","outputs":[{"internalType":"uint256","name":"","type":"uint256"}],"stateMutability":"view","type":"function"},{"inputs":[{"internalType":"bytes32","name":"hashedWeights","type":"bytes32"},{"internalType":"uint256","name":"salt","type":"uint256"}],"name":"provideHashedWeights","outputs":[],"stateMutability":"nonpayable","type":"function"},{"inputs":[],"name":"punishfactor","outputs":[{"internalType":"uint8","name":"","type":"uint8"}],"stateMutability":"view","type":"function"},{"inputs":[],"name":"punishfactorContrib","outputs":[{"internalType":"uint8","name":"","type":"uint8"}],"stateMutability":"view","type":"function"},{"inputs":[],"name":"register","outputs":[],"stateMutability":"payable","type":"function"},{"inputs":[{"internalType":"address","name":"initiator","type":"address"}],"name":"register","outputs":[],"stateMutability":"payable","type":"function"},{"inputs":[{"internalType":"bytes32","name":"_secret","type":"bytes32"}],"name":"registerSlot","outputs":[],"stateMutability":"nonpayable","type":"function"},{"inputs":[],"name":"rewardLeft","outputs":[{"internalType":"uint256","name":"","type":"uint256"}],"stateMutability":"view","type":"function"},{"inputs":[],"name":"rewardPerRound","outputs":[{"internalType":"uint256","name":"","type":"uint256"}],"stateMutability":"view","type":"function"},{"inputs":[],"name":"round","outputs":[{"internalType":"uint8","name":"","type":"uint8"}],"stateMutability":"view","type":"function"},{"inputs":[],"name":"roundStart","outputs":[{"internalType":"uint256","name":"","type":"uint256"}],"stateMutability":"view","type":"function"},{"inputs":[{"internalType":"address","name":"","type":"address"},{"internalType":"uint8","name":"","type":"uint8"}],"name":"secretOf","outputs":[{"internalType":"bytes32","name":"","type":"bytes32"}],"stateMutability":"view","type":"function"},{"inputs":[],"name":"settle","outputs":[],"stateMutability":"nonpayable","type":"function"},{"inputs":[{"internalType":"int256","name":"score","type":"int256"}],"name":"submitContributionScore","outputs":[],"stateMutability":"nonpayable","type":"function"},{"inputs":[{"internalType":"bytes","name":"raw","type":"bytes"}],"name":"submitFeedbackBytes","outputs":[],"stateMutability":"nonpayable","type":"function"},{"inputs":[{"internalType":"bytes","name":"raw","type":"bytes"},{"internalType":"uint8[]","name":"accuracies","type":"uint8[]"},{"internalType":"uint256[]","name":"losses","type":"uint256[]"},{"internalType":"uint8","name":"prev_acc","type":"uint8"},{"internalType":"uint256","name":"prev_loss","type":"uint256"}],"name":"submitFeedbackBytesAndAccuracies","outputs":[],"stateMutability":"nonpayable","type":"function"},{"inputs":[],"name":"totalReward","outputs":[{"internalType":"uint256","name":"","type":"uint256"}],"stateMutability":"view","type":"function"},{"inputs":[{"internalType":"address","name":"","type":"address"}],"name":"users","outputs":[{"internalType":"int256","name":"personalWeight","type":"int256"},{"internalType":"uint256","name":"GlobalReputationOf","type":"uint256"},{"internalType":"int256","name":"RoundReputationOf","type":"int256"},{"internalType":"address","name":"addr","type":"address"},{"internalType":"uint8","name":"roundOfUser","type":"uint8"},{"internalType":"uint8","name":"nrOfVotesOfUser","type":"uint8"},{"internalType":"bool","name":"isPunished","type":"bool"},{"internalType":"bool","name":"isRegistered","type":"bool"},{"internalType":"bool","name":"whitelistedForRewards","type":"bool"}],"stateMutability":"view","type":"function"},{"inputs":[{"internalType":"address","name":"","type":"address"},{"internalType":"address","name":"","type":"address"}],"name":"votedPositiveFor","outputs":[{"internalType":"bool","name":"","type":"bool"}],"stateMutability":"view","type":"function"},{"inputs":[],"name":"votesPerRound","outputs":[{"internalType":"uint8","name":"","type":"uint8"}],"stateMutability":"view","type":"function"},{"inputs":[{"internalType":"address","name":"","type":"address"},{"internalType":"uint8","name":"","type":"uint8"}],"name":"weightsOf","outputs":[{"internalType":"bytes32","name":"","type":"bytes32"}],"stateMutability":"view","type":"function"}],"evm":{"bytecode":{"linkReferences":{},"object":"608060408190526001805460ff1916905562003ccc388190039081908339810160408190526200002f916200016b565b426004819055600a5560008890556005879055600686905560078590556001805463ffff00001916630100000060ff8781169190910262ff000019169190911762010000868316021760ff60201b191664010000000085831602179091556064906200009e90831689620001ef565b620000aa91906200021d565b600c55600154600754620000c9916301000000900460ff16906200021d565b6008556007546009819055600454600554600654600154600c54604080519586526020860194909452928401919091526060830193909352630100000090920460ff16608082015260a08101919091527fd910741da174a91f8b84705afeaf69767bd61d4ac64620028ade113e576932519060c00160405180910390a1505050505050505062000240565b805160ff811681146200016657600080fd5b919050565b600080600080600080600080610100898b0312156200018957600080fd5b88519750602089015196506040890151955060608901519450620001b060808a0162000154565b9350620001c060a08a0162000154565b9250620001d060c08a0162000154565b9150620001e060e08a0162000154565b90509295985092959890939650565b60008160001904831182151516156200021857634e487b7160e01b600052601160045260246000fd5b500290565b6000826200023b57634e487b7160e01b600052601260045260246000fd5b500490565b613a7c80620002506000396000f3fe6080604052600436106102455760003560e01c806364a3e22111610139578063b986695b116100b6578063f283865f1161007a578063f283865f14610794578063f5b27228146107b4578063f6020f01146107d4578063fa569fa214610803578063fcbace5d1461083b578063fd5201be1461085b57600080fd5b8063b986695b146106fa578063ca6e038514610710578063cc500ec91461074b578063d6aad1b91461076a578063dcc1484a1461077f57600080fd5b80638fe557a1116100fd5780638fe557a1146105b9578063904a9d17146105d95780639699fee6146105ef578063a41dacd61461060f578063a87430ba1461062557600080fd5b806364a3e221146104ed578063667ba0f61461050d578063701341ed14610545578063750142e6146105685780638b2f56fb1461057e57600080fd5b80633aa8f2ed116101c757806345e4c3791161018b57806345e4c379146104115780634d4d2b1c146104495780634e49ad7814610494578063508be15e146104aa57806359ac0c46146104c057600080fd5b80633aa8f2ed146103915780633eee0426146103b15780633f4f2d62146103c757806340365852146103e85780634420e486146103fe57600080fd5b8063186beae31161020e578063186beae3146103035780631aa3a008146103255780631b2ccc091461032d57806333f93bcd1461034357806335c1d3491461035957600080fd5b80625c43a51461024a5780630899604c14610273578063095083af1461028a57806311da60b4146102c2578063146ca531146102d7575b600080fd5b34801561025657600080fd5b50610260600c5481565b6040519081526020015b60405180910390f35b34801561027f57600080fd5b50610288610871565b005b34801561029657600080fd5b506102606102a53660046133fc565b601260209081526000928352604080842090915290825290205481565b3480156102ce57600080fd5b50610288610a85565b3480156102e357600080fd5b506001546102f19060ff1681565b60405160ff909116815260200161026a565b34801561030f57600080fd5b506001546102f190640100000000900460ff1681565b610288611c55565b34801561033957600080fd5b5061026060005481565b34801561034f57600080fd5b5061026060085481565b34801561036557600080fd5b5061037961037436600461342f565b611cf6565b6040516001600160a01b03909116815260200161026a565b34801561039d57600080fd5b506102886103ac366004613448565b611d20565b3480156103bd57600080fd5b5061026060095481565b3480156103d357600080fd5b506001546102f1906301000000900460ff1681565b3480156103f457600080fd5b50610260600a5481565b61028861040c366004613472565b61208f565b34801561041d57600080fd5b5061026061042c3660046133fc565b601360209081526000928352604080842090915290825290205481565b34801561045557600080fd5b50610484610464366004613494565b601060209081526000928352604080842090915290825290205460ff1681565b604051901515815260200161026a565b3480156104a057600080fd5b5061026060025481565b3480156104b657600080fd5b5061026060055481565b3480156104cc57600080fd5b506102606104db3660046134be565b60156020526000908152604090205481565b3480156104f957600080fd5b506102886105083660046134d9565b612131565b34801561051957600080fd5b506102606105283660046134fb565b601760209081526000928352604080842090915290825290205481565b34801561055157600080fd5b5061055a61228e565b60405161026a929190613585565b34801561057457600080fd5b5061026060075481565b34801561058a57600080fd5b506102f16105993660046134fb565b601660209081526000928352604080842090915290825290205460ff1681565b3480156105c557600080fd5b506102886105d4366004613641565b612503565b3480156105e557600080fd5b5061026060065481565b3480156105fb57600080fd5b5061028861060a3660046136f5565b612848565b34801561061b57600080fd5b50610260600b5481565b34801561063157600080fd5b506106a5610640366004613472565b600f602052600090815260409020805460018201546002830154600390930154919290916001600160a01b0381169060ff600160a01b8204811691600160a81b8104821691600160b01b8204811691600160b81b8104821691600160c01b9091041689565b60408051998a5260208a0198909852968801959095526001600160a01b03909316606087015260ff91821660808701521660a0850152151560c0840152151560e083015215156101008201526101200161026a565b34801561070657600080fd5b5061026060035481565b34801561071c57600080fd5b5061048461072b366004613494565b601160209081526000928352604080842090915290825290205460ff1681565b34801561075757600080fd5b506001546102f190610100900460ff1681565b34801561077657600080fd5b50610484612912565b34801561078b57600080fd5b506104846129b5565b3480156107a057600080fd5b506102886107af36600461342f565b612a72565b3480156107c057600080fd5b506102886107cf36600461342f565b612bbe565b3480156107e057600080fd5b506107f46107ef366004613472565b612c6c565b60405161026a93929190613737565b34801561080f57600080fd5b5061026061081e3660046134fb565b601460209081526000928352604080842090915290825290205481565b34801561084757600080fd5b506001546102f19062010000900460ff1681565b34801561086757600080fd5b5061026060045481565b336000908152600f6020526040902060030154600160b81b900460ff166108b35760405162461bcd60e51b81526004016108aa906137ac565b60405180910390fd5b600254600354141580156108d657504262015180600a546108d491906137df565b115b6109075760405162461bcd60e51b81526020600482015260026024820152614e4160f01b60448201526064016108aa565b33600090815260136020908152604080832060015460ff1684529091529020541561095a5760405162461bcd60e51b815260206004820152600360248201526257464560e81b60448201526064016108aa565b336000908152600f602052604090206001015461099f5760405162461bcd60e51b81526020600482015260036024820152622722a360e91b60448201526064016108aa565b336000908152600f60205260408120600101805490829055905b600d54811015610a3a57336001600160a01b0316600d82815481106109e0576109e06137f7565b6000918252602090912001546001600160a01b03161415610a2857600d8181548110610a0e57610a0e6137f7565b600091825260209091200180546001600160a01b03191690555b80610a328161380d565b9150506109b9565b50336000818152600f6020526040808220600301805460ff60b81b191690555183156108fc0291849190818181858888f19350505050158015610a81573d6000803e3d6000fd5b5050565b600080610a93600e8261325f565b60005b600d54811015610b32576000600f6000600d8481548110610ab957610ab96137f7565b60009182526020808320909101546001600160a01b031683528201929092526040019020600381015490915060ff600160a01b9091041660011415610b1f57600c548160010154610b0a9190613828565b6001820155600c54610b1c90846137df565b92505b5080610b2a8161380d565b915050610a96565b5060005b600d54811015610eb7576000600f6000600d8481548110610b5957610b596137f7565b60009182526020808320909101546001600160a01b031683528201929092526040019020600381015490915060ff600160b81b9091041615610ea457600081600201541215610e8e5760038101546001805460ff600160a81b9093048316928291610bcb91859161010090041661383f565b92506101000a81548160ff021916908360ff1602179055506000600160029054906101000a900460ff1660ff168260010154610c079190613862565b600154600554919250610c24916201000090910460ff1690613862565b82600101541115610d465760038201805460ff60b01b198116600160b01b178255600e8054600181810183556000929092527fbb7b4a454dc3493923482f07822329ed19e8244eff582cc204f8554c3620c3fd0180546001600160a01b0319166001600160a01b0390931692909217909155815460ff60c01b1916909155820154610cb0908290613828565b60018301556002820154610cc5908290613884565b6002830155610cd481866137df565b94507f641368b934d33e657fe49c6af1c0e5b618d4dc123f53fc3f8d5f15fee5f4fb86600d8481548110610d0a57610d0a6137f7565b60009182526020909120015460028401546001850154604051610d39936001600160a01b0316929186916138c3565b60405180910390a1610e88565b60038201805461ffff60b01b1916600160b01b179055600d8054600e919085908110610d7457610d746137f7565b6000918252602080832090910154835460018181018655948452919092200180546001600160a01b0319166001600160a01b0390921691909117905560038301805460ff60c01b19169055820154610dcc90866137df565b94507f6a461179a109ac5a4f65774b04343a475dd7d089ffa5a31552a4d71e0a1e7b4f600d8481548110610e0257610e026137f7565b600091825260208220015460028501546001860154604051610e30946001600160a01b0390941693906138c3565b60405180910390a160008260010181905550600160026000828254610e559190613828565b9091555050600d805484908110610e6e57610e6e6137f7565b600091825260209091200180546001600160a01b03191690555b50610ea4565b60038101805460ff60c01b1916600160c01b1790555b5080610eaf8161380d565b915050610b36565b5060005b600d54811015611119576000600f6000600d8481548110610ede57610ede6137f7565b60009182526020808320909101546001600160a01b031683528201929092526040019020600381015490915060ff600160b81b90910416156111065760005b600e548110156111045760116000600d8581548110610f3e57610f3e6137f7565b60009182526020808320909101546001600160a01b031683528201929092526040018120600e805491929184908110610f7957610f796137f7565b60009182526020808320909101546001600160a01b0316835282019290925260400190205460ff16156110f257600060116000600d8681548110610fbf57610fbf6137f7565b60009182526020808320909101546001600160a01b031683528201929092526040018120600e805491929185908110610ffa57610ffa6137f7565b6000918252602080832091909101546001600160a01b031683528201929092526040019020805460ff191691151591909117905560038201546001805460ff600160a81b909304831692829161105791859161010090041661383f565b825460ff9182166101009390930a92830291909202199091161790555060038201805460ff60c01b19169055600d80547f1774dd77faaf323cd25b2f963ff975744949b339a6d103b4e3959263f6c2f9779190859081106110ba576110ba6137f7565b6000918252602082200154600285015460018601546040516110e9946001600160a01b039094169391906138c3565b60405180910390a15b806110fc8161380d565b915050610f1d565b505b50806111118161380d565b915050610ebb565b5060005b600d54811015611205576000600f6000600d8481548110611140576111406137f7565b60009182526020808320909101546001600160a01b031683528201929092526040019020600381015490915060ff600160b81b90910416156111f2576003810154600160a01b900460ff16600114156111f2576003810154600160c01b900460ff16156111d257600c5481600101546111b991906137df565b6001820155600c546111cb9084613828565b92506111f2565b600c546111df90856137df565b9350600c54836111ef9190613828565b92505b50806111fd8161380d565b91505061111d565b506001546000908190610100900460ff1615801590611228575060085460095410155b15611a6157600854600960008282546112419190613828565b9091555050600854841561125c5761125985826137df565b90505b60005b600d548110156113bc576000600f6000600d8481548110611282576112826137f7565b60009182526020808320909101546001600160a01b031683528201929092526040019020600381015490915060ff600160b81b9091041680156112d057506003810154600160c01b900460ff165b80156112e857506003810154600160b01b900460ff16155b156113a95760015460ff16600090815260146020908152604080832060038501546001600160a01b0316845290915281205461132390613115565b600383015461133c9190600160a81b900460ff166138e9565b60015460ff16600090815260146020908152604080832060038701546001600160a01b031684529091528120549192501361137f5761137a81613908565b611381565b805b8260000160008282546113949190613925565b909155505081546113a59087613925565b9550505b50806113b48161380d565b91505061125f565b5060005b600d5481101561161e576000600f6000600d84815481106113e3576113e36137f7565b60009182526020808320909101546001600160a01b031683528201929092526040019020600381015490915060ff600160b81b90910416801561143157506003810154600160c01b900460ff165b801561144957506003810154600160b01b900460ff16155b1561160b57600085131561145d5784611460565b60015b9350600084611472836000015461314f565b61147c90866138e9565b6114869190613862565b60015460ff16600090815260146020908152604080832060038701546001600160a01b031684529091528120549192501380156114de57506001546114d690640100000000900460ff16826138e9565b826001015411155b156116095760018201546114f290856137df565b93507f6a461179a109ac5a4f65774b04343a475dd7d089ffa5a31552a4d71e0a1e7b4f600d8481548110611528576115286137f7565b600091825260208220015460028501546001860154604051611556946001600160a01b0390941693906138c3565b60405180910390a160015460ff16600090815260146020908152604080832060038601546001600160a01b0316845290915290205461159490613115565b60038301546115ad9190600160a81b900460ff166138e9565b6115b79087613925565b9550600082600101819055506001600260008282546115d69190613828565b9091555050600d8054849081106115ef576115ef6137f7565b600091825260209091200180546001600160a01b03191690555b505b50806116168161380d565b9150506113c0565b50600083131561162e5782611631565b60015b915060008060005b600d548110156117d1576000600f6000600d848154811061165c5761165c6137f7565b60009182526020808320909101546001600160a01b031683528201929092526040019020600381015490915060ff600160b81b9091041680156116aa57506003810154600160c01b900460ff165b80156116c257506003810154600160b01b900460ff16155b80156116f8575060015460ff16600090815260146020908152604080832060038501546001600160a01b03168452909152812054125b156117be5760008661170d836000015461314f565b61171790886138e9565b6117219190613862565b60015490915060009061173f90640100000000900460ff16836138e9565b9050808360010160008282546117559190613828565b90915550611765905081876137df565b6003840154600285015460018601546040519399507ff002da1cc235dd7b3cd93cb91c128fe6e777fb632383da5ff2603123883748b1936117b3936001600160a01b031692916000916138c3565b60405180910390a150505b50806117c98161380d565b915050611639565b506117dc82846137df565b925060005b600d548110156118c7576000600f6000600d8481548110611804576118046137f7565b60009182526020808320909101546001600160a01b031683528201929092526040019020600381015490915060ff600160b81b90910416801561185257506003810154600160c01b900460ff165b801561186a57506003810154600160b01b900460ff16155b80156118a0575060015460ff16600090815260146020908152604080832060038501546001600160a01b03168452909152812054135b156118b45780546118b190846137df565b92505b50806118bf8161380d565b9150506117e1565b5080156118d457806118d7565b60015b905060005b600d54811015611a5c576000600f6000600d84815481106118ff576118ff6137f7565b60009182526020808320909101546001600160a01b031683528201929092526040019020600381015490915060ff600160b81b90910416801561194d57506003810154600160c01b900460ff165b801561196557506003810154600160b01b900460ff16155b801561199b575060015460ff16600090815260146020908152604080832060038501546001600160a01b03168452909152812054135b15611a37576000836119b0836000015461314f565b6119ba90886138e9565b6119c49190613862565b9050808260010160008282546119da91906137df565b90915550506003820154600283015460018401546040517ff002da1cc235dd7b3cd93cb91c128fe6e777fb632383da5ff2603123883748b193611a2d936001600160a01b039091169290918691906138c3565b60405180910390a1505b60038101805460ff60c01b191690556000905580611a548161380d565b9150506118dc565b505050505b6001546040805160ff808416825261010090930490921660208301528101829052606081018590527f0fb9071657a7d7c77d4413e1c8487bb219c39de920f3297977dd60bf0e00d33d9060800160405180910390a160005b600d54811015611c0a576000600f6000600d8481548110611adc57611adc6137f7565b60009182526020808320909101546001600160a01b031683528201929092526040019020600381015490915060ff600160b81b9091041615611bf75760038101805460ff60a81b19168082556000600284015560019190601490611b4b908490600160a01b900460ff16613966565b825460ff9182166101009390930a92830291909202199091161790555060038101805460ff60b01b1916905560005b600d54811015611bf55760038201546001600160a01b03166000908152601060205260408120600d805491929184908110611bb757611bb76137f7565b60009182526020808320909101546001600160a01b031683528201929092526040019020805460ff1916905580611bed8161380d565b915050611b7a565b505b5080611c028161380d565b915050611ab9565b50600180548190600090611c2290839060ff16613966565b825460ff9182166101009390930a928302919092021990911617905550506001805461ff00191690555050600060035550565b336000908152600f6020526040902060030154600160b81b900460ff1615611ca55760405162461bcd60e51b815260206004820152600360248201526229a0a960e91b60448201526064016108aa565b6005543410158015611cb957506006543411155b611ceb5760405162461bcd60e51b8152602060048201526003602482015262272ba960e91b60448201526064016108aa565b611cf433613163565b565b600d8181548110611d0657600080fd5b6000918252602090912001546001600160a01b0316905081565b336000908152600f6020526040902060030154600160b81b900460ff16611d595760405162461bcd60e51b81526004016108aa906137ac565b816001600160a01b038116331415611d995760405162461bcd60e51b815260206004820152600360248201526214d15560ea1b60448201526064016108aa565b3360009081526010602090815260408083206001600160a01b038516845290915290205460ff1615611df35760405162461bcd60e51b815260206004820152600360248201526256414360e81b60448201526064016108aa565b6002546003541480611e1457504262015180600a54611e1291906137df565b105b611e465760405162461bcd60e51b815260206004820152600360248201526246524360e81b60448201526064016108aa565b3360008181526010602090815260408083206001600160a01b03881684528252808320805460ff19166001908117909155938352600f90915290206003018054601590611e9e908490600160a81b900460ff16613966565b92506101000a81548160ff021916908360ff16021790555060018060018282829054906101000a900460ff16611ed49190613966565b92506101000a81548160ff021916908360ff1602179055508160011415611f6d573360008181526011602090815260408083206001600160a01b03881684528252808320805460ff19166001908117909155938352600f9091529020810154611f3c9161398b565b6001600160a01b0384166000908152600f602052604081206002018054909190611f67908490613925565b90915550505b816000191415611fea573360008181526011602090815260408083206001600160a01b03881684528252808320805460ff19169055928252600f905220600190810154611fb99161398b565b6001600160a01b0384166000908152600f602052604081206002018054909190611fe4908490613884565b90915550505b8161201b573360009081526011602090815260408083206001600160a01b03871684529091529020805460ff191690555b336000818152600f60209081526040808320600101546001600160a01b038816808552938290206002015482519485529284019490945282810193909352606082015290517fd69fe95841f16237d39b30bbb2ed7633b307fb0addc4bb890b6a3a77e04f5f7f9181900360800190a1505050565b336000908152600f6020526040902060030154600160b81b900460ff16156120df5760405162461bcd60e51b815260206004820152600360248201526229a0a960e91b60448201526064016108aa565b60055434101580156120f357506006543411155b6121255760405162461bcd60e51b8152602060048201526003602482015262272ba960e91b60448201526064016108aa565b61212e81613163565b50565b336000908152600f6020526040902060030154600160b81b900460ff1661216a5760405162461bcd60e51b81526004016108aa906137ac565b33600090815260136020908152604080832060015460ff168452909152902054156121bd5760405162461bcd60e51b815260206004820152600360248201526205341560ec1b60448201526064016108aa565b604080516020810184905290810182905233606090811b6bffffffffffffffffffffffff19169082015260740160408051601f1981840301815291815281516020928301203360009081526012845282812060015460ff168252909352912054146122505760405162461bcd60e51b81526020600482015260036024820152624e4b5360e81b60448201526064016108aa565b3360009081526013602090815260408083206001805460ff1685529252822084905560038054919290916122859084906137df565b90915550505050565b6060806000805b600d54811015612305576000600f6000600d84815481106122b8576122b86137f7565b60009182526020808320909101546001600160a01b03168352820192909252604001902060020154126122f3576122f0600183613966565b91505b806122fd8161380d565b915050612295565b508060ff1667ffffffffffffffff81111561232257612322613a10565b60405190808252806020026020018201604052801561234b578160200160208202803683370190505b5092508060ff1667ffffffffffffffff81111561236a5761236a613a10565b604051908082528060200260200182016040528015612393578160200160208202803683370190505b5091506000805b600d548110156124fc576000600f6000600d84815481106123bd576123bd6137f7565b60009182526020808320909101546001600160a01b03168352820192909252604001902060020154126124ea5760015460ff166000908152601660205260408120600d805491929184908110612415576124156137f7565b60009182526020808320909101546001600160a01b03168352820192909252604001902054855160ff918216918791908516908110612456576124566137f7565b60ff9283166020918202929092018101919091526001549091166000908152601790915260408120600d805491929184908110612495576124956137f7565b60009182526020808320909101546001600160a01b031683528201929092526040019020548451859060ff85169081106124d1576124d16137f7565b6020908102919091010152816124e681613a26565b9250505b806124f48161380d565b91505061239a565b5050509091565b6060806000808b60348c04604051955060208102602001860160405280865260005b8181101561254d57823560601c60208281028901018190529450601490920191600101612525565b506040519450602081026020018501604052808552600093505b8084101561258f57813592508260208502602087010152602082019150600184019350612567565b50508351891491506125e590505760405162461bcd60e51b815260206004820181905260248201527f494e56414c49445f4c454e475448204f4620414343555241435920415252415960448201526064016108aa565b815185146126355760405162461bcd60e51b815260206004820152601c60248201527f494e56414c49445f4c454e475448204f46204c4f53532041525241590000000060448201526064016108aa565b60015460ff166000908152601860209081526040808320338452825291829020825160608101845285815283518b840281810185019095528b81529193909283810192918d918d9182918501908490808284376000920191909152505050908252506040805160208a810282810182019093528a82529283019290918b918b91829185019084908082843760009201829052509390945250508354600181018555938152602090819020835180519495600302909101936126fd93508492919091019061327d565b50602082810151805161271692600185019201906132de565b506040820151805161273291600284019160209091019061337f565b505050606460ff851611156127995760405162461bcd60e51b815260206004820152602760248201527f50524556494f5553204143435552414359204e4f54204245545745454e2030206044820152660414e44203130360cc1b60648201526084016108aa565b6001805460ff908116600090815260166020908152604080832033808552908352818420805460ff19168b871617905594549093168252601781528282209382529290925281208490555b825181101561283b57612829838281518110612802576128026137f7565b602002602001015183838151811061281c5761281c6137f7565b6020026020010151611d20565b806128338161380d565b9150506127e4565b5050505050505050505050565b6060806000808560348604604051955060208102602001860160405280865260005b8181101561289257823560601c6020828102890101819052945060149092019160010161286a565b506040519450602081026020018501604052808552600093505b808410156128d4578135925082602085026020870101526020820191506001840193506128ac565b5050505060005b825181101561290b576128f9838281518110612802576128026137f7565b806129038161380d565b9150506128db565b5050505050565b600080805b600d54811015612988576000600f6000600d848154811061293a5761293a6137f7565b60009182526020808320909101546001600160a01b03168352820192909252604001902060020154121561297657816129728161380d565b9250505b806129808161380d565b915050612917565b5060015460ff166000908152601560205260409020548111156129ad57600091505090565b600191505090565b6000600254600014156129c85750600090565b60005b600d54811015612a6a576000600f6000600d84815481106129ee576129ee6137f7565b60009182526020808320909101546001600160a01b031683528201929092526040019020600381015490915060ff600160b81b9091041615612a57576001600254612a399190613828565b6003820154600160a81b900460ff161015612a575760009250505090565b5080612a628161380d565b9150506129cb565b506001905090565b336000908152600f6020526040902060030154600160b81b900460ff16612ad15760405162461bcd60e51b8152602060048201526013602482015272155cd95c881b9bdd081c9959da5cdd195c9959606a1b60448201526064016108aa565b60015460ff16600090815260146020908152604080832033845290915290205415612b3e5760405162461bcd60e51b815260206004820152601760248201527f53636f726520616c7265616479207375626d697474656400000000000000000060448201526064016108aa565b6001805460ff9081166000908152601460209081526040808320338452825280832086905584549093168252601590529081208054909190612b819084906137df565b909155505060405181815233907f20e6c7c82a3c0a8203efca055fc9a664ca649345957ddc3ba34b2912e9ed83739060200160405180910390a250565b336000908152600f6020526040902060030154600160b81b900460ff16612bf75760405162461bcd60e51b81526004016108aa906137ac565b33600090815260136020908152604080832060015460ff16845290915290205415612c4a5760405162461bcd60e51b815260206004820152600360248201526205341560ec1b60448201526064016108aa565b33600090815260126020908152604080832060015460ff168452909152902055565b60608060606000805b600d54811015612df7576000600d8281548110612c9457612c946137f7565b600091825260208083209091015460015460ff1683526018825260408084206001600160a01b039092168085529190925290822054909250905b81811015612de15760015460ff1660009081526018602090815260408083206001600160a01b03871684529091528120805483908110612d1057612d106137f7565b9060005260206000209060030201905060005b8154811015612dcc578a6001600160a01b0316826000018281548110612d4b57612d4b6137f7565b6000918252602090912001546001600160a01b03161415612dba576000600f6000600d8981548110612d7f57612d7f6137f7565b60009182526020808320909101546001600160a01b0316835282019290925260400190206002015412612dba5786612db68161380d565b9750505b80612dc48161380d565b915050612d23565b50508080612dd99061380d565b915050612cce565b5050508080612def9061380d565b915050612c75565b508067ffffffffffffffff811115612e1157612e11613a10565b604051908082528060200260200182016040528015612e3a578160200160208202803683370190505b5093508067ffffffffffffffff811115612e5657612e56613a10565b604051908082528060200260200182016040528015612e7f578160200160208202803683370190505b5092508067ffffffffffffffff811115612e9b57612e9b613a10565b604051908082528060200260200182016040528015612ec4578160200160208202803683370190505b5091506000805b600d5481101561310b576000600f6000600d8481548110612eee57612eee6137f7565b60009182526020808320909101546001600160a01b039081168452838201949094526040928301822060015460ff1683526018825283832060038201549095168352939052908120549192505b818110156130f55760015460ff16600090815260186020908152604080832060038701546001600160a01b031684529091528120805483908110612f8157612f816137f7565b9060005260206000209060030201905060005b81548110156130e0578b6001600160a01b0316826000018281548110612fbc57612fbc6137f7565b6000918252602090912001546001600160a01b031614156130ce5760008560020154126130ce5760038501548b516001600160a01b03909116908c9089908110613008576130086137f7565b60200260200101906001600160a01b031690816001600160a01b03168152505081600101818154811061303d5761303d6137f7565b90600052602060002090602091828204019190069054906101000a900460ff168a888151811061306f5761306f6137f7565b602002602001019060ff16908160ff1681525050816002018181548110613098576130986137f7565b90600052602060002001548988815181106130b5576130b56137f7565b6020908102919091010152866130ca8161380d565b9750505b806130d88161380d565b915050612f94565b505080806130ed9061380d565b915050612f3b565b50505080806131039061380d565b915050612ecb565b5050509193909250565b6000808212613122575090565b600160ff1b821415613146576131406001600160ff1b0360016137df565b92915050565b61314082613908565b600080821361315f576000613140565b5090565b6001600160a01b0381166000908152600f6020526040812060038101805460ff60b81b1916600160b81b1790553460019182015560028054919290916131aa9084906137df565b9091555050600d8054600181019091557fd7b6990105719101dabeb77144f2a3385c8033acd3af97e9423a695e81ad1eb50180546001600160a01b0383166001600160a01b031990911681179091556000908152600f602052604090819020600301805460ff60a01b1916600160a01b17905560025490517fabe5b1202d1f4ed2c1baccf335320ceae3abd90670864b741e80a2ef5671d8829161325491849134914791906138c3565b60405180910390a150565b508054600082559060005260206000209081019061212e91906133ba565b8280548282559060005260206000209081019282156132d2579160200282015b828111156132d257825182546001600160a01b0319166001600160a01b0390911617825560209092019160019091019061329d565b5061315f9291506133ba565b82805482825590600052602060002090601f016020900481019282156132d25791602002820160005b8382111561334557835183826101000a81548160ff021916908360ff1602179055509260200192600101602081600001049283019260010302613307565b80156133725782816101000a81549060ff0219169055600101602081600001049283019260010302613345565b505061315f9291506133ba565b8280548282559060005260206000209081019282156132d2579160200282015b828111156132d257825182559160200191906001019061339f565b5b8082111561315f57600081556001016133bb565b80356001600160a01b03811681146133e657600080fd5b919050565b803560ff811681146133e657600080fd5b6000806040838503121561340f57600080fd5b613418836133cf565b9150613426602084016133eb565b90509250929050565b60006020828403121561344157600080fd5b5035919050565b6000806040838503121561345b57600080fd5b613464836133cf565b946020939093013593505050565b60006020828403121561348457600080fd5b61348d826133cf565b9392505050565b600080604083850312156134a757600080fd5b6134b0836133cf565b9150613426602084016133cf565b6000602082840312156134d057600080fd5b61348d826133eb565b600080604083850312156134ec57600080fd5b50508035926020909101359150565b6000806040838503121561350e57600080fd5b6134b0836133eb565b600081518084526020808501945080840160005b8381101561354a57815160ff168752958201959082019060010161352b565b509495945050505050565b600081518084526020808501945080840160005b8381101561354a57815187529582019590820190600101613569565b6040815260006135986040830185613517565b82810360208401526135aa8185613555565b95945050505050565b60008083601f8401126135c557600080fd5b50813567ffffffffffffffff8111156135dd57600080fd5b6020830191508360208285010111156135f557600080fd5b9250929050565b60008083601f84011261360e57600080fd5b50813567ffffffffffffffff81111561362657600080fd5b6020830191508360208260051b85010111156135f557600080fd5b60008060008060008060008060a0898b03121561365d57600080fd5b883567ffffffffffffffff8082111561367557600080fd5b6136818c838d016135b3565b909a50985060208b013591508082111561369a57600080fd5b6136a68c838d016135fc565b909850965060408b01359150808211156136bf57600080fd5b506136cc8b828c016135fc565b90955093506136df905060608a016133eb565b9150608089013590509295985092959890939650565b6000806020838503121561370857600080fd5b823567ffffffffffffffff81111561371f57600080fd5b61372b858286016135b3565b90969095509350505050565b606080825284519082018190526000906020906080840190828801845b828110156137795781516001600160a01b031684529284019290840190600101613754565b5050508381038285015261378d8187613517565b91505082810360408401526137a28185613555565b9695505050505050565b60208082526003908201526229a72960e91b604082015260600190565b634e487b7160e01b600052601160045260246000fd5b600082198211156137f2576137f26137c9565b500190565b634e487b7160e01b600052603260045260246000fd5b6000600019821415613821576138216137c9565b5060010190565b60008282101561383a5761383a6137c9565b500390565b600060ff821660ff841680821015613859576138596137c9565b90039392505050565b60008261387f57634e487b7160e01b600052601260045260246000fd5b500490565b60008083128015600160ff1b8501841216156138a2576138a26137c9565b6001600160ff1b03840183138116156138bd576138bd6137c9565b50500390565b6001600160a01b0394909416845260208401929092526040830152606082015260800190565b6000816000190483118215151615613903576139036137c9565b500290565b6000600160ff1b82141561391e5761391e6137c9565b5060000390565b600080821280156001600160ff1b0384900385131615613947576139476137c9565b600160ff1b8390038412811615613960576139606137c9565b50500190565b600060ff821660ff84168060ff03821115613983576139836137c9565b019392505050565b60006001600160ff1b03818413828413808216868404861116156139b1576139b16137c9565b600160ff1b60008712828116878305891216156139d0576139d06137c9565b600087129250878205871284841616156139ec576139ec6137c9565b87850587128184161615613a0257613a026137c9565b505050929093029392505050565b634e487b7160e01b600052604160045260246000fd5b600060ff821660ff811415613a3d57613a3d6137c9565b6001019291505056fea264697066735822122028a4271b84f7c39e568f76bb74697b3ba9b170b17359cef1c09a54a1d5bfb6c864736f6c63430008090033","opcodes":"PUSH1 0x80 PUSH1 0x40 DUP2 SWAP1 MSTORE PUSH1 0x1 DUP1 SLOAD PUSH1 0xFF NOT AND SWAP1 SSTORE PUSH3 0x3CCC CODESIZE DUP2 SWAP1 SUB SWAP1 DUP2 SWAP1 DUP4 CODECOPY DUP2 ADD PUSH1 0x40 DUP2 SWAP1 MSTORE PUSH3 0x2F SWAP2 PUSH3 0x16B JUMP JUMPDEST TIMESTAMP PUSH1 0x4 DUP2 SWAP1 SSTORE PUSH1 0xA SSTORE PUSH1 0x0 DUP9 SWAP1 SSTORE PUSH1 0x5 DUP8 SWAP1 SSTORE PUSH1 0x6 DUP7 SWAP1 SSTORE PUSH1 0x7 DUP6 SWAP1 SSTORE PUSH1 0x1 DUP1 SLOAD PUSH4 0xFFFF0000 NOT AND PUSH4 0x1000000 PUSH1 0xFF DUP8 DUP2 AND SWAP2 SWAP1 SWAP2 MUL PUSH3 0xFF0000 NOT AND SWAP2 SWAP1 SWAP2 OR PUSH3 0x10000 DUP7 DUP4 AND MUL OR PUSH1 0xFF PUSH1 0x20 SHL NOT AND PUSH5 0x100000000 DUP6 DUP4 AND MUL OR SWAP1 SWAP2 SSTORE PUSH1 0x64 SWAP1 PUSH3 0x9E SWAP1 DUP4 AND DUP10 PUSH3 0x1EF JUMP JUMPDEST PUSH3 0xAA SWAP2 SWAP1 PUSH3 0x21D JUMP JUMPDEST PUSH1 0xC SSTORE PUSH1 0x1 SLOAD PUSH1 0x7 SLOAD PUSH3 0xC9 SWAP2 PUSH4 0x1000000 SWAP1 DIV PUSH1 0xFF AND SWAP1 PUSH3 0x21D JUMP JUMPDEST PUSH1 0x8 SSTORE PUSH1 0x7 SLOAD PUSH1 0x9 DUP2 SWAP1 SSTORE PUSH1 0x4 SLOAD PUSH1 0x5 SLOAD PUSH1 0x6 SLOAD PUSH1 0x1 SLOAD PUSH1 0xC SLOAD PUSH1 0x40 DUP1 MLOAD SWAP6 DUP7 MSTORE PUSH1 0x20 DUP7 ADD SWAP5 SWAP1 SWAP5 MSTORE SWAP3 DUP5 ADD SWAP2 SWAP1 SWAP2 MSTORE PUSH1 0x60 DUP4 ADD SWAP4 SWAP1 SWAP4 MSTORE PUSH4 0x1000000 SWAP1 SWAP3 DIV PUSH1 0xFF AND PUSH1 0x80 DUP3 ADD MSTORE PUSH1 0xA0 DUP2 ADD SWAP2 SWAP1 SWAP2 MSTORE PUSH32 0xD910741DA174A91F8B84705AFEAF69767BD61D4AC64620028ADE113E57693251 SWAP1 PUSH1 0xC0 ADD PUSH1 0x40 MLOAD DUP1 SWAP2 SUB SWAP1 LOG1 POP POP POP POP POP POP POP POP PUSH3 0x240 JUMP JUMPDEST DUP1 MLOAD PUSH1 0xFF DUP2 AND DUP2 EQ PUSH3 0x166 JUMPI PUSH1 0x0 DUP1 REVERT JUMPDEST SWAP2 SWAP1 POP JUMP JUMPDEST PUSH1 0x0 DUP1 PUSH1 0x0 DUP1 PUSH1 0x0 DUP1 PUSH1 0x0 DUP1 PUSH2 0x100 DUP10 DUP12 SUB SLT ISZERO PUSH3 0x189 JUMPI PUSH1 0x0 DUP1 REVERT JUMPDEST DUP9 MLOAD SWAP8 POP PUSH1 0x20 DUP10 ADD MLOAD SWAP7 POP PUSH1 0x40 DUP10 ADD MLOAD SWAP6 POP PUSH1 0x60 DUP10 ADD MLOAD SWAP5 POP PUSH3 0x1B0 PUSH1 0x80 DUP11 ADD PUSH3 0x154 JUMP JUMPDEST SWAP4 POP PUSH3 0x1C0 PUSH1 0xA0 DUP11 ADD PUSH3 0x154 JUMP JUMPDEST SWAP3 POP PUSH3 0x1D0 PUSH1 0xC0 DUP11 ADD PUSH3 0x154 JUMP JUMPDEST SWAP2 POP PUSH3 0x1E0 PUSH1 0xE0 DUP11 ADD PUSH3 0x154 JUMP JUMPDEST SWAP1 POP SWAP3 SWAP6 SWAP9 POP SWAP3 SWAP6 SWAP9 SWAP1 SWAP4 SWAP7 POP JUMP JUMPDEST PUSH1 0x0 DUP2 PUSH1 0x0 NOT DIV DUP4 GT DUP3 ISZERO ISZERO AND ISZERO PUSH3 0x218 JUMPI PUSH4 0x4E487B71 PUSH1 0xE0 SHL PUSH1 0x0 MSTORE PUSH1 0x11 PUSH1 0x4 MSTORE PUSH1 0x24 PUSH1 0x0 REVERT JUMPDEST POP MUL SWAP1 JUMP JUMPDEST PUSH1 0x0 DUP3 PUSH3 0x23B JUMPI PUSH4 0x4E487B71 PUSH1 0xE0 SHL PUSH1 0x0 MSTORE PUSH1 0x12 PUSH1 0x4 MSTORE PUSH1 0x24 PUSH1 0x0 REVERT JUMPDEST POP DIV SWAP1 JUMP JUMPDEST PUSH2 0x3A7C DUP1 PUSH3 0x250 PUSH1 0x0 CODECOPY PUSH1 0x0 RETURN INVALID PUSH1 0x80 PUSH1 0x40 MSTORE PUSH1 0x4 CALLDATASIZE LT PUSH2 0x245 JUMPI PUSH1 0x0 CALLDATALOAD PUSH1 0xE0 SHR DUP1 PUSH4 0x64A3E221 GT PUSH2 0x139 JUMPI DUP1 PUSH4 0xB986695B GT PUSH2 0xB6 JUMPI DUP1 PUSH4 0xF283865F GT PUSH2 0x7A JUMPI DUP1 PUSH4 0xF283865F EQ PUSH2 0x794 JUMPI DUP1 PUSH4 0xF5B27228 EQ PUSH2 0x7B4 JUMPI DUP1 PUSH4 0xF6020F01 EQ PUSH2 0x7D4 JUMPI DUP1 PUSH4 0xFA569FA2 EQ PUSH2 0x803 JUMPI DUP1 PUSH4 0xFCBACE5D EQ PUSH2 0x83B JUMPI DUP1 PUSH4 0xFD5201BE EQ PUSH2 0x85B JUMPI PUSH1 0x0 DUP1 REVERT JUMPDEST DUP1 PUSH4 0xB986695B EQ PUSH2 0x6FA JUMPI DUP1 PUSH4 0xCA6E0385 EQ PUSH2 0x710 JUMPI DUP1 PUSH4 0xCC500EC9 EQ PUSH2 0x74B JUMPI DUP1 PUSH4 0xD6AAD1B9 EQ PUSH2 0x76A JUMPI DUP1 PUSH4 0xDCC1484A EQ PUSH2 0x77F JUMPI PUSH1 0x0 DUP1 REVERT JUMPDEST DUP1 PUSH4 0x8FE557A1 GT PUSH2 0xFD JUMPI DUP1 PUSH4 0x8FE557A1 EQ PUSH2 0x5B9 JUMPI DUP1 PUSH4 0x904A9D17 EQ PUSH2 0x5D9 JUMPI DUP1 PUSH4 0x9699FEE6 EQ PUSH2 0x5EF JUMPI DUP1 PUSH4 0xA41DACD6 EQ PUSH2 0x60F JUMPI DUP1 PUSH4 0xA87430BA EQ PUSH2 0x625 JUMPI PUSH1 0x0 DUP1 REVERT JUMPDEST DUP1 PUSH4 0x64A3E221 EQ PUSH2 0x4ED JUMPI DUP1 PUSH4 0x667BA0F6 EQ PUSH2 0x50D JUMPI DUP1 PUSH4 0x701341ED EQ PUSH2 0x545 JUMPI DUP1 PUSH4 0x750142E6 EQ PUSH2 0x568 JUMPI DUP1 PUSH4 0x8B2F56FB EQ PUSH2 0x57E JUMPI PUSH1 0x0 DUP1 REVERT JUMPDEST DUP1 PUSH4 0x3AA8F2ED GT PUSH2 0x1C7 JUMPI DUP1 PUSH4 0x45E4C379 GT PUSH2 0x18B JUMPI DUP1 PUSH4 0x45E4C379 EQ PUSH2 0x411 JUMPI DUP1 PUSH4 0x4D4D2B1C EQ PUSH2 0x449 JUMPI DUP1 PUSH4 0x4E49AD78 EQ PUSH2 0x494 JUMPI DUP1 PUSH4 0x508BE15E EQ PUSH2 0x4AA JUMPI DUP1 PUSH4 0x59AC0C46 EQ PUSH2 0x4C0 JUMPI PUSH1 0x0 DUP1 REVERT JUMPDEST DUP1 PUSH4 0x3AA8F2ED EQ PUSH2 0x391 JUMPI DUP1 PUSH4 0x3EEE0426 EQ PUSH2 0x3B1 JUMPI DUP1 PUSH4 0x3F4F2D62 EQ PUSH2 0x3C7 JUMPI DUP1 PUSH4 0x40365852 EQ PUSH2 0x3E8 JUMPI DUP1 PUSH4 0x4420E486 EQ PUSH2 0x3FE JUMPI PUSH1 0x0 DUP1 REVERT JUMPDEST DUP1 PUSH4 0x186BEAE3 GT PUSH2 0x20E JUMPI DUP1 PUSH4 0x186BEAE3 EQ PUSH2 0x303 JUMPI DUP1 PUSH4 0x1AA3A008 EQ PUSH2 0x325 JUMPI DUP1 PUSH4 0x1B2CCC09 EQ PUSH2 0x32D JUMPI DUP1 PUSH4 0x33F93BCD EQ PUSH2 0x343 JUMPI DUP1 PUSH4 0x35C1D349 EQ PUSH2 0x359 JUMPI PUSH1 0x0 DUP1 REVERT JUMPDEST DUP1 PUSH3 0x5C43A5 EQ PUSH2 0x24A JUMPI DUP1 PUSH4 0x899604C EQ PUSH2 0x273 JUMPI DUP1 PUSH4 0x95083AF EQ PUSH2 0x28A JUMPI DUP1 PUSH4 0x11DA60B4 EQ PUSH2 0x2C2 JUMPI DUP1 PUSH4 0x146CA531 EQ PUSH2 0x2D7 JUMPI JUMPDEST PUSH1 0x0 DUP1 REVERT JUMPDEST CALLVALUE DUP1 ISZERO PUSH2 0x256 JUMPI PUSH1 0x0 DUP1 REVERT JUMPDEST POP PUSH2 0x260 PUSH1 0xC SLOAD DUP2 JUMP JUMPDEST PUSH1 0x40 MLOAD SWAP1 DUP2 MSTORE PUSH1 0x20 ADD JUMPDEST PUSH1 0x40 MLOAD DUP1 SWAP2 SUB SWAP1 RETURN JUMPDEST CALLVALUE DUP1 ISZERO PUSH2 0x27F JUMPI PUSH1 0x0 DUP1 REVERT JUMPDEST POP PUSH2 0x288 PUSH2 0x871 JUMP JUMPDEST STOP JUMPDEST CALLVALUE DUP1 ISZERO PUSH2 0x296 JUMPI PUSH1 0x0 DUP1 REVERT JUMPDEST POP PUSH2 0x260 PUSH2 0x2A5 CALLDATASIZE PUSH1 0x4 PUSH2 0x33FC JUMP JUMPDEST PUSH1 0x12 PUSH1 0x20 SWAP1 DUP2 MSTORE PUSH1 0x0 SWAP3 DUP4 MSTORE PUSH1 0x40 DUP1 DUP5 KECCAK256 SWAP1 SWAP2 MSTORE SWAP1 DUP3 MSTORE SWAP1 KECCAK256 SLOAD DUP2 JUMP JUMPDEST CALLVALUE DUP1 ISZERO PUSH2 0x2CE JUMPI PUSH1 0x0 DUP1 REVERT JUMPDEST POP PUSH2 0x288 PUSH2 0xA85 JUMP JUMPDEST CALLVALUE DUP1 ISZERO PUSH2 0x2E3 JUMPI PUSH1 0x0 DUP1 REVERT JUMPDEST POP PUSH1 0x1 SLOAD PUSH2 0x2F1 SWAP1 PUSH1 0xFF AND DUP2 JUMP JUMPDEST PUSH1 0x40 MLOAD PUSH1 0xFF SWAP1 SWAP2 AND DUP2 MSTORE PUSH1 0x20 ADD PUSH2 0x26A JUMP JUMPDEST CALLVALUE DUP1 ISZERO PUSH2 0x30F JUMPI PUSH1 0x0 DUP1 REVERT JUMPDEST POP PUSH1 0x1 SLOAD PUSH2 0x2F1 SWAP1 PUSH5 0x100000000 SWAP1 DIV PUSH1 0xFF AND DUP2 JUMP JUMPDEST PUSH2 0x288 PUSH2 0x1C55 JUMP JUMPDEST CALLVALUE DUP1 ISZERO PUSH2 0x339 JUMPI PUSH1 0x0 DUP1 REVERT JUMPDEST POP PUSH2 0x260 PUSH1 0x0 SLOAD DUP2 JUMP JUMPDEST CALLVALUE DUP1 ISZERO PUSH2 0x34F JUMPI PUSH1 0x0 DUP1 REVERT JUMPDEST POP PUSH2 0x260 PUSH1 0x8 SLOAD DUP2 JUMP JUMPDEST CALLVALUE DUP1 ISZERO PUSH2 0x365 JUMPI PUSH1 0x0 DUP1 REVERT JUMPDEST POP PUSH2 0x379 PUSH2 0x374 CALLDATASIZE PUSH1 0x4 PUSH2 0x342F JUMP JUMPDEST PUSH2 0x1CF6 JUMP JUMPDEST PUSH1 0x40 MLOAD PUSH1 0x1 PUSH1 0x1 PUSH1 0xA0 SHL SUB SWAP1 SWAP2 AND DUP2 MSTORE PUSH1 0x20 ADD PUSH2 0x26A JUMP JUMPDEST CALLVALUE DUP1 ISZERO PUSH2 0x39D JUMPI PUSH1 0x0 DUP1 REVERT JUMPDEST POP PUSH2 0x288 PUSH2 0x3AC CALLDATASIZE PUSH1 0x4 PUSH2 0x3448 JUMP JUMPDEST PUSH2 0x1D20 JUMP JUMPDEST CALLVALUE DUP1 ISZERO PUSH2 0x3BD JUMPI PUSH1 0x0 DUP1 REVERT JUMPDEST POP PUSH2 0x260 PUSH1 0x9 SLOAD DUP2 JUMP JUMPDEST CALLVALUE DUP1 ISZERO PUSH2 0x3D3 JUMPI PUSH1 0x0 DUP1 REVERT JUMPDEST POP PUSH1 0x1 SLOAD PUSH2 0x2F1 SWAP1 PUSH4 0x1000000 SWAP1 DIV PUSH1 0xFF AND DUP2 JUMP JUMPDEST CALLVALUE DUP1 ISZERO PUSH2 0x3F4 JUMPI PUSH1 0x0 DUP1 REVERT JUMPDEST POP PUSH2 0x260 PUSH1 0xA SLOAD DUP2 JUMP JUMPDEST PUSH2 0x288 PUSH2 0x40C CALLDATASIZE PUSH1 0x4 PUSH2 0x3472 JUMP JUMPDEST PUSH2 0x208F JUMP JUMPDEST CALLVALUE DUP1 ISZERO PUSH2 0x41D JUMPI PUSH1 0x0 DUP1 REVERT JUMPDEST POP PUSH2 0x260 PUSH2 0x42C CALLDATASIZE PUSH1 0x4 PUSH2 0x33FC JUMP JUMPDEST PUSH1 0x13 PUSH1 0x20 SWAP1 DUP2 MSTORE PUSH1 0x0 SWAP3 DUP4 MSTORE PUSH1 0x40 DUP1 DUP5 KECCAK256 SWAP1 SWAP2 MSTORE SWAP1 DUP3 MSTORE SWAP1 KECCAK256 SLOAD DUP2 JUMP JUMPDEST CALLVALUE DUP1 ISZERO PUSH2 0x455 JUMPI PUSH1 0x0 DUP1 REVERT JUMPDEST POP PUSH2 0x484 PUSH2 0x464 CALLDATASIZE PUSH1 0x4 PUSH2 0x3494 JUMP JUMPDEST PUSH1 0x10 PUSH1 0x20 SWAP1 DUP2 MSTORE PUSH1 0x0 SWAP3 DUP4 MSTORE PUSH1 0x40 DUP1 DUP5 KECCAK256 SWAP1 SWAP2 MSTORE SWAP1 DUP3 MSTORE SWAP1 KECCAK256 SLOAD PUSH1 0xFF AND DUP2 JUMP JUMPDEST PUSH1 0x40 MLOAD SWAP1 ISZERO ISZERO DUP2 MSTORE PUSH1 0x20 ADD PUSH2 0x26A JUMP JUMPDEST CALLVALUE DUP1 ISZERO PUSH2 0x4A0 JUMPI PUSH1 0x0 DUP1 REVERT JUMPDEST POP PUSH2 0x260 PUSH1 0x2 SLOAD DUP2 JUMP JUMPDEST CALLVALUE DUP1 ISZERO PUSH2 0x4B6 JUMPI PUSH1 0x0 DUP1 REVERT JUMPDEST POP PUSH2 0x260 PUSH1 0x5 SLOAD DUP2 JUMP JUMPDEST CALLVALUE DUP1 ISZERO PUSH2 0x4CC JUMPI PUSH1 0x0 DUP1 REVERT JUMPDEST POP PUSH2 0x260 PUSH2 0x4DB CALLDATASIZE PUSH1 0x4 PUSH2 0x34BE JUMP JUMPDEST PUSH1 0x15 PUSH1 0x20 MSTORE PUSH1 0x0 SWAP1 DUP2 MSTORE PUSH1 0x40 SWAP1 KECCAK256 SLOAD DUP2 JUMP JUMPDEST CALLVALUE DUP1 ISZERO PUSH2 0x4F9 JUMPI PUSH1 0x0 DUP1 REVERT JUMPDEST POP PUSH2 0x288 PUSH2 0x508 CALLDATASIZE PUSH1 0x4 PUSH2 0x34D9 JUMP JUMPDEST PUSH2 0x2131 JUMP JUMPDEST CALLVALUE DUP1 ISZERO PUSH2 0x519 JUMPI PUSH1 0x0 DUP1 REVERT JUMPDEST POP PUSH2 0x260 PUSH2 0x528 CALLDATASIZE PUSH1 0x4 PUSH2 0x34FB JUMP JUMPDEST PUSH1 0x17 PUSH1 0x20 SWAP1 DUP2 MSTORE PUSH1 0x0 SWAP3 DUP4 MSTORE PUSH1 0x40 DUP1 DUP5 KECCAK256 SWAP1 SWAP2 MSTORE SWAP1 DUP3 MSTORE SWAP1 KECCAK256 SLOAD DUP2 JUMP JUMPDEST CALLVALUE DUP1 ISZERO PUSH2 0x551 JUMPI PUSH1 0x0 DUP1 REVERT JUMPDEST POP PUSH2 0x55A PUSH2 0x228E JUMP JUMPDEST PUSH1 0x40 MLOAD PUSH2 0x26A SWAP3 SWAP2 SWAP1 PUSH2 0x3585 JUMP JUMPDEST CALLVALUE DUP1 ISZERO PUSH2 0x574 JUMPI PUSH1 0x0 DUP1 REVERT JUMPDEST POP PUSH2 0x260 PUSH1 0x7 SLOAD DUP2 JUMP JUMPDEST CALLVALUE DUP1 ISZERO PUSH2 0x58A JUMPI PUSH1 0x0 DUP1 REVERT JUMPDEST POP PUSH2 0x2F1 PUSH2 0x599 CALLDATASIZE PUSH1 0x4 PUSH2 0x34FB JUMP JUMPDEST PUSH1 0x16 PUSH1 0x20 SWAP1 DUP2 MSTORE PUSH1 0x0 SWAP3 DUP4 MSTORE PUSH1 0x40 DUP1 DUP5 KECCAK256 SWAP1 SWAP2 MSTORE SWAP1 DUP3 MSTORE SWAP1 KECCAK256 SLOAD PUSH1 0xFF AND DUP2 JUMP JUMPDEST CALLVALUE DUP1 ISZERO PUSH2 0x5C5 JUMPI PUSH1 0x0 DUP1 REVERT JUMPDEST POP PUSH2 0x288 PUSH2 0x5D4 CALLDATASIZE PUSH1 0x4 PUSH2 0x3641 JUMP JUMPDEST PUSH2 0x2503 JUMP JUMPDEST CALLVALUE DUP1 ISZERO PUSH2 0x5E5 JUMPI PUSH1 0x0 DUP1 REVERT JUMPDEST POP PUSH2 0x260 PUSH1 0x6 SLOAD DUP2 JUMP JUMPDEST CALLVALUE DUP1 ISZERO PUSH2 0x5FB JUMPI PUSH1 0x0 DUP1 REVERT JUMPDEST POP PUSH2 0x288 PUSH2 0x60A CALLDATASIZE PUSH1 0x4 PUSH2 0x36F5 JUMP JUMPDEST PUSH2 0x2848 JUMP JUMPDEST CALLVALUE DUP1 ISZERO PUSH2 0x61B JUMPI PUSH1 0x0 DUP1 REVERT JUMPDEST POP PUSH2 0x260 PUSH1 0xB SLOAD DUP2 JUMP JUMPDEST CALLVALUE DUP1 ISZERO PUSH2 0x631 JUMPI PUSH1 0x0 DUP1 REVERT JUMPDEST POP PUSH2 0x6A5 PUSH2 0x640 CALLDATASIZE PUSH1 0x4 PUSH2 0x3472 JUMP JUMPDEST PUSH1 0xF PUSH1 0x20 MSTORE PUSH1 0x0 SWAP1 DUP2 MSTORE PUSH1 0x40 SWAP1 KECCAK256 DUP1 SLOAD PUSH1 0x1 DUP3 ADD SLOAD PUSH1 0x2 DUP4 ADD SLOAD PUSH1 0x3 SWAP1 SWAP4 ADD SLOAD SWAP2 SWAP3 SWAP1 SWAP2 PUSH1 0x1 PUSH1 0x1 PUSH1 0xA0 SHL SUB DUP2 AND SWAP1 PUSH1 0xFF PUSH1 0x1 PUSH1 0xA0 SHL DUP3 DIV DUP2 AND SWAP2 PUSH1 0x1 PUSH1 0xA8 SHL DUP2 DIV DUP3 AND SWAP2 PUSH1 0x1 PUSH1 0xB0 SHL DUP3 DIV DUP2 AND SWAP2 PUSH1 0x1 PUSH1 0xB8 SHL DUP2 DIV DUP3 AND SWAP2 PUSH1 0x1 PUSH1 0xC0 SHL SWAP1 SWAP2 DIV AND DUP10 JUMP JUMPDEST PUSH1 0x40 DUP1 MLOAD SWAP10 DUP11 MSTORE PUSH1 0x20 DUP11 ADD SWAP9 SWAP1 SWAP9 MSTORE SWAP7 DUP9 ADD SWAP6 SWAP1 SWAP6 MSTORE PUSH1 0x1 PUSH1 0x1 PUSH1 0xA0 SHL SUB SWAP1 SWAP4 AND PUSH1 0x60 DUP8 ADD MSTORE PUSH1 0xFF SWAP2 DUP3 AND PUSH1 0x80 DUP8 ADD MSTORE AND PUSH1 0xA0 DUP6 ADD MSTORE ISZERO ISZERO PUSH1 0xC0 DUP5 ADD MSTORE ISZERO ISZERO PUSH1 0xE0 DUP4 ADD MSTORE ISZERO ISZERO PUSH2 0x100 DUP3 ADD MSTORE PUSH2 0x120 ADD PUSH2 0x26A JUMP JUMPDEST CALLVALUE DUP1 ISZERO PUSH2 0x706 JUMPI PUSH1 0x0 DUP1 REVERT JUMPDEST POP PUSH2 0x260 PUSH1 0x3 SLOAD DUP2 JUMP JUMPDEST CALLVALUE DUP1 ISZERO PUSH2 0x71C JUMPI PUSH1 0x0 DUP1 REVERT JUMPDEST POP PUSH2 0x484 PUSH2 0x72B CALLDATASIZE PUSH1 0x4 PUSH2 0x3494 JUMP JUMPDEST PUSH1 0x11 PUSH1 0x20 SWAP1 DUP2 MSTORE PUSH1 0x0 SWAP3 DUP4 MSTORE PUSH1 0x40 DUP1 DUP5 KECCAK256 SWAP1 SWAP2 MSTORE SWAP1 DUP3 MSTORE SWAP1 KECCAK256 SLOAD PUSH1 0xFF AND DUP2 JUMP JUMPDEST CALLVALUE DUP1 ISZERO PUSH2 0x757 JUMPI PUSH1 0x0 DUP1 REVERT JUMPDEST POP PUSH1 0x1 SLOAD PUSH2 0x2F1 SWAP1 PUSH2 0x100 SWAP1 DIV PUSH1 0xFF AND DUP2 JUMP JUMPDEST CALLVALUE DUP1 ISZERO PUSH2 0x776 JUMPI PUSH1 0x0 DUP1 REVERT JUMPDEST POP PUSH2 0x484 PUSH2 0x2912 JUMP JUMPDEST CALLVALUE DUP1 ISZERO PUSH2 0x78B JUMPI PUSH1 0x0 DUP1 REVERT JUMPDEST POP PUSH2 0x484 PUSH2 0x29B5 JUMP JUMPDEST CALLVALUE DUP1 ISZERO PUSH2 0x7A0 JUMPI PUSH1 0x0 DUP1 REVERT JUMPDEST POP PUSH2 0x288 PUSH2 0x7AF CALLDATASIZE PUSH1 0x4 PUSH2 0x342F JUMP JUMPDEST PUSH2 0x2A72 JUMP JUMPDEST CALLVALUE DUP1 ISZERO PUSH2 0x7C0 JUMPI PUSH1 0x0 DUP1 REVERT JUMPDEST POP PUSH2 0x288 PUSH2 0x7CF CALLDATASIZE PUSH1 0x4 PUSH2 0x342F JUMP JUMPDEST PUSH2 0x2BBE JUMP JUMPDEST CALLVALUE DUP1 ISZERO PUSH2 0x7E0 JUMPI PUSH1 0x0 DUP1 REVERT JUMPDEST POP PUSH2 0x7F4 PUSH2 0x7EF CALLDATASIZE PUSH1 0x4 PUSH2 0x3472 JUMP JUMPDEST PUSH2 0x2C6C JUMP JUMPDEST PUSH1 0x40 MLOAD PUSH2 0x26A SWAP4 SWAP3 SWAP2 SWAP1 PUSH2 0x3737 JUMP JUMPDEST CALLVALUE DUP1 ISZERO PUSH2 0x80F JUMPI PUSH1 0x0 DUP1 REVERT JUMPDEST POP PUSH2 0x260 PUSH2 0x81E CALLDATASIZE PUSH1 0x4 PUSH2 0x34FB JUMP JUMPDEST PUSH1 0x14 PUSH1 0x20 SWAP1 DUP2 MSTORE PUSH1 0x0 SWAP3 DUP4 MSTORE PUSH1 0x40 DUP1 DUP5 KECCAK256 SWAP1 SWAP2 MSTORE SWAP1 DUP3 MSTORE SWAP1 KECCAK256 SLOAD DUP2 JUMP JUMPDEST CALLVALUE DUP1 ISZERO PUSH2 0x847 JUMPI PUSH1 0x0 DUP1 REVERT JUMPDEST POP PUSH1 0x1 SLOAD PUSH2 0x2F1 SWAP1 PUSH3 0x10000 SWAP1 DIV PUSH1 0xFF AND DUP2 JUMP JUMPDEST CALLVALUE DUP1 ISZERO PUSH2 0x867 JUMPI PUSH1 0x0 DUP1 REVERT JUMPDEST POP PUSH2 0x260 PUSH1 0x4 SLOAD DUP2 JUMP JUMPDEST CALLER PUSH1 0x0 SWAP1 DUP2 MSTORE PUSH1 0xF PUSH1 0x20 MSTORE PUSH1 0x40 SWAP1 KECCAK256 PUSH1 0x3 ADD SLOAD PUSH1 0x1 PUSH1 0xB8 SHL SWAP1 DIV PUSH1 0xFF AND PUSH2 0x8B3 JUMPI PUSH1 0x40 MLOAD PUSH3 0x461BCD PUSH1 0xE5 SHL DUP2 MSTORE PUSH1 0x4 ADD PUSH2 0x8AA SWAP1 PUSH2 0x37AC JUMP JUMPDEST PUSH1 0x40 MLOAD DUP1 SWAP2 SUB SWAP1 REVERT JUMPDEST PUSH1 0x2 SLOAD PUSH1 0x3 SLOAD EQ ISZERO DUP1 ISZERO PUSH2 0x8D6 JUMPI POP TIMESTAMP PUSH3 0x15180 PUSH1 0xA SLOAD PUSH2 0x8D4 SWAP2 SWAP1 PUSH2 0x37DF JUMP JUMPDEST GT JUMPDEST PUSH2 0x907 JUMPI PUSH1 0x40 MLOAD PUSH3 0x461BCD PUSH1 0xE5 SHL DUP2 MSTORE PUSH1 0x20 PUSH1 0x4 DUP3 ADD MSTORE PUSH1 0x2 PUSH1 0x24 DUP3 ADD MSTORE PUSH2 0x4E41 PUSH1 0xF0 SHL PUSH1 0x44 DUP3 ADD MSTORE PUSH1 0x64 ADD PUSH2 0x8AA JUMP JUMPDEST CALLER PUSH1 0x0 SWAP1 DUP2 MSTORE PUSH1 0x13 PUSH1 0x20 SWAP1 DUP2 MSTORE PUSH1 0x40 DUP1 DUP4 KECCAK256 PUSH1 0x1 SLOAD PUSH1 0xFF AND DUP5 MSTORE SWAP1 SWAP2 MSTORE SWAP1 KECCAK256 SLOAD ISZERO PUSH2 0x95A JUMPI PUSH1 0x40 MLOAD PUSH3 0x461BCD PUSH1 0xE5 SHL DUP2 MSTORE PUSH1 0x20 PUSH1 0x4 DUP3 ADD MSTORE PUSH1 0x3 PUSH1 0x24 DUP3 ADD MSTORE PUSH3 0x574645 PUSH1 0xE8 SHL PUSH1 0x44 DUP3 ADD MSTORE PUSH1 0x64 ADD PUSH2 0x8AA JUMP JUMPDEST CALLER PUSH1 0x0 SWAP1 DUP2 MSTORE PUSH1 0xF PUSH1 0x20 MSTORE PUSH1 0x40 SWAP1 KECCAK256 PUSH1 0x1 ADD SLOAD PUSH2 0x99F JUMPI PUSH1 0x40 MLOAD PUSH3 0x461BCD PUSH1 0xE5 SHL DUP2 MSTORE PUSH1 0x20 PUSH1 0x4 DUP3 ADD MSTORE PUSH1 0x3 PUSH1 0x24 DUP3 ADD MSTORE PUSH3 0x2722A3 PUSH1 0xE9 SHL PUSH1 0x44 DUP3 ADD MSTORE PUSH1 0x64 ADD PUSH2 0x8AA JUMP JUMPDEST CALLER PUSH1 0x0 SWAP1 DUP2 MSTORE PUSH1 0xF PUSH1 0x20 MSTORE PUSH1 0x40 DUP2 KECCAK256 PUSH1 0x1 ADD DUP1 SLOAD SWAP1 DUP3 SWAP1 SSTORE SWAP1 JUMPDEST PUSH1 0xD SLOAD DUP2 LT ISZERO PUSH2 0xA3A JUMPI CALLER PUSH1 0x1 PUSH1 0x1 PUSH1 0xA0 SHL SUB AND PUSH1 0xD DUP3 DUP2 SLOAD DUP2 LT PUSH2 0x9E0 JUMPI PUSH2 0x9E0 PUSH2 0x37F7 JUMP JUMPDEST PUSH1 0x0 SWAP2 DUP3 MSTORE PUSH1 0x20 SWAP1 SWAP2 KECCAK256 ADD SLOAD PUSH1 0x1 PUSH1 0x1 PUSH1 0xA0 SHL SUB AND EQ ISZERO PUSH2 0xA28 JUMPI PUSH1 0xD DUP2 DUP2 SLOAD DUP2 LT PUSH2 0xA0E JUMPI PUSH2 0xA0E PUSH2 0x37F7 JUMP JUMPDEST PUSH1 0x0 SWAP2 DUP3 MSTORE PUSH1 0x20 SWAP1 SWAP2 KECCAK256 ADD DUP1 SLOAD PUSH1 0x1 PUSH1 0x1 PUSH1 0xA0 SHL SUB NOT AND SWAP1 SSTORE JUMPDEST DUP1 PUSH2 0xA32 DUP2 PUSH2 0x380D JUMP JUMPDEST SWAP2 POP POP PUSH2 0x9B9 JUMP JUMPDEST POP CALLER PUSH1 0x0 DUP2 DUP2 MSTORE PUSH1 0xF PUSH1 0x20 MSTORE PUSH1 0x40 DUP1 DUP3 KECCAK256 PUSH1 0x3 ADD DUP1 SLOAD PUSH1 0xFF PUSH1 0xB8 SHL NOT AND SWAP1 SSTORE MLOAD DUP4 ISZERO PUSH2 0x8FC MUL SWAP2 DUP5 SWAP2 SWAP1 DUP2 DUP2 DUP2 DUP6 DUP9 DUP9 CALL SWAP4 POP POP POP POP ISZERO DUP1 ISZERO PUSH2 0xA81 JUMPI RETURNDATASIZE PUSH1 0x0 DUP1 RETURNDATACOPY RETURNDATASIZE PUSH1 0x0 REVERT JUMPDEST POP POP JUMP JUMPDEST PUSH1 0x0 DUP1 PUSH2 0xA93 PUSH1 0xE DUP3 PUSH2 0x325F JUMP JUMPDEST PUSH1 0x0 JUMPDEST PUSH1 0xD SLOAD DUP2 LT ISZERO PUSH2 0xB32 JUMPI PUSH1 0x0 PUSH1 0xF PUSH1 0x0 PUSH1 0xD DUP5 DUP2 SLOAD DUP2 LT PUSH2 0xAB9 JUMPI PUSH2 0xAB9 PUSH2 0x37F7 JUMP JUMPDEST PUSH1 0x0 SWAP2 DUP3 MSTORE PUSH1 0x20 DUP1 DUP4 KECCAK256 SWAP1 SWAP2 ADD SLOAD PUSH1 0x1 PUSH1 0x1 PUSH1 0xA0 SHL SUB AND DUP4 MSTORE DUP3 ADD SWAP3 SWAP1 SWAP3 MSTORE PUSH1 0x40 ADD SWAP1 KECCAK256 PUSH1 0x3 DUP2 ADD SLOAD SWAP1 SWAP2 POP PUSH1 0xFF PUSH1 0x1 PUSH1 0xA0 SHL SWAP1 SWAP2 DIV AND PUSH1 0x1 EQ ISZERO PUSH2 0xB1F JUMPI PUSH1 0xC SLOAD DUP2 PUSH1 0x1 ADD SLOAD PUSH2 0xB0A SWAP2 SWAP1 PUSH2 0x3828 JUMP JUMPDEST PUSH1 0x1 DUP3 ADD SSTORE PUSH1 0xC SLOAD PUSH2 0xB1C SWAP1 DUP5 PUSH2 0x37DF JUMP JUMPDEST SWAP3 POP JUMPDEST POP DUP1 PUSH2 0xB2A DUP2 PUSH2 0x380D JUMP JUMPDEST SWAP2 POP POP PUSH2 0xA96 JUMP JUMPDEST POP PUSH1 0x0 JUMPDEST PUSH1 0xD SLOAD DUP2 LT ISZERO PUSH2 0xEB7 JUMPI PUSH1 0x0 PUSH1 0xF PUSH1 0x0 PUSH1 0xD DUP5 DUP2 SLOAD DUP2 LT PUSH2 0xB59 JUMPI PUSH2 0xB59 PUSH2 0x37F7 JUMP JUMPDEST PUSH1 0x0 SWAP2 DUP3 MSTORE PUSH1 0x20 DUP1 DUP4 KECCAK256 SWAP1 SWAP2 ADD SLOAD PUSH1 0x1 PUSH1 0x1 PUSH1 0xA0 SHL SUB AND DUP4 MSTORE DUP3 ADD SWAP3 SWAP1 SWAP3 MSTORE PUSH1 0x40 ADD SWAP1 KECCAK256 PUSH1 0x3 DUP2 ADD SLOAD SWAP1 SWAP2 POP PUSH1 0xFF PUSH1 0x1 PUSH1 0xB8 SHL SWAP1 SWAP2 DIV AND ISZERO PUSH2 0xEA4 JUMPI PUSH1 0x0 DUP2 PUSH1 0x2 ADD SLOAD SLT ISZERO PUSH2 0xE8E JUMPI PUSH1 0x3 DUP2 ADD SLOAD PUSH1 0x1 DUP1 SLOAD PUSH1 0xFF PUSH1 0x1 PUSH1 0xA8 SHL SWAP1 SWAP4 DIV DUP4 AND SWAP3 DUP3 SWAP2 PUSH2 0xBCB SWAP2 DUP6 SWAP2 PUSH2 0x100 SWAP1 DIV AND PUSH2 0x383F JUMP JUMPDEST SWAP3 POP PUSH2 0x100 EXP DUP2 SLOAD DUP2 PUSH1 0xFF MUL NOT AND SWAP1 DUP4 PUSH1 0xFF AND MUL OR SWAP1 SSTORE POP PUSH1 0x0 PUSH1 0x1 PUSH1 0x2 SWAP1 SLOAD SWAP1 PUSH2 0x100 EXP SWAP1 DIV PUSH1 0xFF AND PUSH1 0xFF AND DUP3 PUSH1 0x1 ADD SLOAD PUSH2 0xC07 SWAP2 SWAP1 PUSH2 0x3862 JUMP JUMPDEST PUSH1 0x1 SLOAD PUSH1 0x5 SLOAD SWAP2 SWAP3 POP PUSH2 0xC24 SWAP2 PUSH3 0x10000 SWAP1 SWAP2 DIV PUSH1 0xFF AND SWAP1 PUSH2 0x3862 JUMP JUMPDEST DUP3 PUSH1 0x1 ADD SLOAD GT ISZERO PUSH2 0xD46 JUMPI PUSH1 0x3 DUP3 ADD DUP1 SLOAD PUSH1 0xFF PUSH1 0xB0 SHL NOT DUP2 AND PUSH1 0x1 PUSH1 0xB0 SHL OR DUP3 SSTORE PUSH1 0xE DUP1 SLOAD PUSH1 0x1 DUP2 DUP2 ADD DUP4 SSTORE PUSH1 0x0 SWAP3 SWAP1 SWAP3 MSTORE PUSH32 0xBB7B4A454DC3493923482F07822329ED19E8244EFF582CC204F8554C3620C3FD ADD DUP1 SLOAD PUSH1 0x1 PUSH1 0x1 PUSH1 0xA0 SHL SUB NOT AND PUSH1 0x1 PUSH1 0x1 PUSH1 0xA0 SHL SUB SWAP1 SWAP4 AND SWAP3 SWAP1 SWAP3 OR SWAP1 SWAP2 SSTORE DUP2 SLOAD PUSH1 0xFF PUSH1 0xC0 SHL NOT AND SWAP1 SWAP2 SSTORE DUP3 ADD SLOAD PUSH2 0xCB0 SWAP1 DUP3 SWAP1 PUSH2 0x3828 JUMP JUMPDEST PUSH1 0x1 DUP4 ADD SSTORE PUSH1 0x2 DUP3 ADD SLOAD PUSH2 0xCC5 SWAP1 DUP3 SWAP1 PUSH2 0x3884 JUMP JUMPDEST PUSH1 0x2 DUP4 ADD SSTORE PUSH2 0xCD4 DUP2 DUP7 PUSH2 0x37DF JUMP JUMPDEST SWAP5 POP PUSH32 0x641368B934D33E657FE49C6AF1C0E5B618D4DC123F53FC3F8D5F15FEE5F4FB86 PUSH1 0xD DUP5 DUP2 SLOAD DUP2 LT PUSH2 0xD0A JUMPI PUSH2 0xD0A PUSH2 0x37F7 JUMP JUMPDEST PUSH1 0x0 SWAP2 DUP3 MSTORE PUSH1 0x20 SWAP1 SWAP2 KECCAK256 ADD SLOAD PUSH1 0x2 DUP5 ADD SLOAD PUSH1 0x1 DUP6 ADD SLOAD PUSH1 0x40 MLOAD PUSH2 0xD39 SWAP4 PUSH1 0x1 PUSH1 0x1 PUSH1 0xA0 SHL SUB AND SWAP3 SWAP2 DUP7 SWAP2 PUSH2 0x38C3 JUMP JUMPDEST PUSH1 0x40 MLOAD DUP1 SWAP2 SUB SWAP1 LOG1 PUSH2 0xE88 JUMP JUMPDEST PUSH1 0x3 DUP3 ADD DUP1 SLOAD PUSH2 0xFFFF PUSH1 0xB0 SHL NOT AND PUSH1 0x1 PUSH1 0xB0 SHL OR SWAP1 SSTORE PUSH1 0xD DUP1 SLOAD PUSH1 0xE SWAP2 SWAP1 DUP6 SWAP1 DUP2 LT PUSH2 0xD74 JUMPI PUSH2 0xD74 PUSH2 0x37F7 JUMP JUMPDEST PUSH1 0x0 SWAP2 DUP3 MSTORE PUSH1 0x20 DUP1 DUP4 KECCAK256 SWAP1 SWAP2 ADD SLOAD DUP4 SLOAD PUSH1 0x1 DUP2 DUP2 ADD DUP7 SSTORE SWAP5 DUP5 MSTORE SWAP2 SWAP1 SWAP3 KECCAK256 ADD DUP1 SLOAD PUSH1 0x1 PUSH1 0x1 PUSH1 0xA0 SHL SUB NOT AND PUSH1 0x1 PUSH1 0x1 PUSH1 0xA0 SHL SUB SWAP1 SWAP3 AND SWAP2 SWAP1 SWAP2 OR SWAP1 SSTORE PUSH1 0x3 DUP4 ADD DUP1 SLOAD PUSH1 0xFF PUSH1 0xC0 SHL NOT AND SWAP1 SSTORE DUP3 ADD SLOAD PUSH2 0xDCC SWAP1 DUP7 PUSH2 0x37DF JUMP JUMPDEST SWAP5 POP PUSH32 0x6A461179A109AC5A4F65774B04343A475DD7D089FFA5A31552A4D71E0A1E7B4F PUSH1 0xD DUP5 DUP2 SLOAD DUP2 LT PUSH2 0xE02 JUMPI PUSH2 0xE02 PUSH2 0x37F7 JUMP JUMPDEST PUSH1 0x0 SWAP2 DUP3 MSTORE PUSH1 0x20 DUP3 KECCAK256 ADD SLOAD PUSH1 0x2 DUP6 ADD SLOAD PUSH1 0x1 DUP7 ADD SLOAD PUSH1 0x40 MLOAD PUSH2 0xE30 SWAP5 PUSH1 0x1 PUSH1 0x1 PUSH1 0xA0 SHL SUB SWAP1 SWAP5 AND SWAP4 SWAP1 PUSH2 0x38C3 JUMP JUMPDEST PUSH1 0x40 MLOAD DUP1 SWAP2 SUB SWAP1 LOG1 PUSH1 0x0 DUP3 PUSH1 0x1 ADD DUP2 SWAP1 SSTORE POP PUSH1 0x1 PUSH1 0x2 PUSH1 0x0 DUP3 DUP3 SLOAD PUSH2 0xE55 SWAP2 SWAP1 PUSH2 0x3828 JUMP JUMPDEST SWAP1 SWAP2 SSTORE POP POP PUSH1 0xD DUP1 SLOAD DUP5 SWAP1 DUP2 LT PUSH2 0xE6E JUMPI PUSH2 0xE6E PUSH2 0x37F7 JUMP JUMPDEST PUSH1 0x0 SWAP2 DUP3 MSTORE PUSH1 0x20 SWAP1 SWAP2 KECCAK256 ADD DUP1 SLOAD PUSH1 0x1 PUSH1 0x1 PUSH1 0xA0 SHL SUB NOT AND SWAP1 SSTORE JUMPDEST POP PUSH2 0xEA4 JUMP JUMPDEST PUSH1 0x3 DUP2 ADD DUP1 SLOAD PUSH1 0xFF PUSH1 0xC0 SHL NOT AND PUSH1 0x1 PUSH1 0xC0 SHL OR SWAP1 SSTORE JUMPDEST POP DUP1 PUSH2 0xEAF DUP2 PUSH2 0x380D JUMP JUMPDEST SWAP2 POP POP PUSH2 0xB36 JUMP JUMPDEST POP PUSH1 0x0 JUMPDEST PUSH1 0xD SLOAD DUP2 LT ISZERO PUSH2 0x1119 JUMPI PUSH1 0x0 PUSH1 0xF PUSH1 0x0 PUSH1 0xD DUP5 DUP2 SLOAD DUP2 LT PUSH2 0xEDE JUMPI PUSH2 0xEDE PUSH2 0x37F7 JUMP JUMPDEST PUSH1 0x0 SWAP2 DUP3 MSTORE PUSH1 0x20 DUP1 DUP4 KECCAK256 SWAP1 SWAP2 ADD SLOAD PUSH1 0x1 PUSH1 0x1 PUSH1 0xA0 SHL SUB AND DUP4 MSTORE DUP3 ADD SWAP3 SWAP1 SWAP3 MSTORE PUSH1 0x40 ADD SWAP1 KECCAK256 PUSH1 0x3 DUP2 ADD SLOAD SWAP1 SWAP2 POP PUSH1 0xFF PUSH1 0x1 PUSH1 0xB8 SHL SWAP1 SWAP2 DIV AND ISZERO PUSH2 0x1106 JUMPI PUSH1 0x0 JUMPDEST PUSH1 0xE SLOAD DUP2 LT ISZERO PUSH2 0x1104 JUMPI PUSH1 0x11 PUSH1 0x0 PUSH1 0xD DUP6 DUP2 SLOAD DUP2 LT PUSH2 0xF3E JUMPI PUSH2 0xF3E PUSH2 0x37F7 JUMP JUMPDEST PUSH1 0x0 SWAP2 DUP3 MSTORE PUSH1 0x20 DUP1 DUP4 KECCAK256 SWAP1 SWAP2 ADD SLOAD PUSH1 0x1 PUSH1 0x1 PUSH1 0xA0 SHL SUB AND DUP4 MSTORE DUP3 ADD SWAP3 SWAP1 SWAP3 MSTORE PUSH1 0x40 ADD DUP2 KECCAK256 PUSH1 0xE DUP1 SLOAD SWAP2 SWAP3 SWAP2 DUP5 SWAP1 DUP2 LT PUSH2 0xF79 JUMPI PUSH2 0xF79 PUSH2 0x37F7 JUMP JUMPDEST PUSH1 0x0 SWAP2 DUP3 MSTORE PUSH1 0x20 DUP1 DUP4 KECCAK256 SWAP1 SWAP2 ADD SLOAD PUSH1 0x1 PUSH1 0x1 PUSH1 0xA0 SHL SUB AND DUP4 MSTORE DUP3 ADD SWAP3 SWAP1 SWAP3 MSTORE PUSH1 0x40 ADD SWAP1 KECCAK256 SLOAD PUSH1 0xFF AND ISZERO PUSH2 0x10F2 JUMPI PUSH1 0x0 PUSH1 0x11 PUSH1 0x0 PUSH1 0xD DUP7 DUP2 SLOAD DUP2 LT PUSH2 0xFBF JUMPI PUSH2 0xFBF PUSH2 0x37F7 JUMP JUMPDEST PUSH1 0x0 SWAP2 DUP3 MSTORE PUSH1 0x20 DUP1 DUP4 KECCAK256 SWAP1 SWAP2 ADD SLOAD PUSH1 0x1 PUSH1 0x1 PUSH1 0xA0 SHL SUB AND DUP4 MSTORE DUP3 ADD SWAP3 SWAP1 SWAP3 MSTORE PUSH1 0x40 ADD DUP2 KECCAK256 PUSH1 0xE DUP1 SLOAD SWAP2 SWAP3 SWAP2 DUP6 SWAP1 DUP2 LT PUSH2 0xFFA JUMPI PUSH2 0xFFA PUSH2 0x37F7 JUMP JUMPDEST PUSH1 0x0 SWAP2 DUP3 MSTORE PUSH1 0x20 DUP1 DUP4 KECCAK256 SWAP2 SWAP1 SWAP2 ADD SLOAD PUSH1 0x1 PUSH1 0x1 PUSH1 0xA0 SHL SUB AND DUP4 MSTORE DUP3 ADD SWAP3 SWAP1 SWAP3 MSTORE PUSH1 0x40 ADD SWAP1 KECCAK256 DUP1 SLOAD PUSH1 0xFF NOT AND SWAP2 ISZERO ISZERO SWAP2 SWAP1 SWAP2 OR SWAP1 SSTORE PUSH1 0x3 DUP3 ADD SLOAD PUSH1 0x1 DUP1 SLOAD PUSH1 0xFF PUSH1 0x1 PUSH1 0xA8 SHL SWAP1 SWAP4 DIV DUP4 AND SWAP3 DUP3 SWAP2 PUSH2 0x1057 SWAP2 DUP6 SWAP2 PUSH2 0x100 SWAP1 DIV AND PUSH2 0x383F JUMP JUMPDEST DUP3 SLOAD PUSH1 0xFF SWAP2 DUP3 AND PUSH2 0x100 SWAP4 SWAP1 SWAP4 EXP SWAP3 DUP4 MUL SWAP2 SWAP1 SWAP3 MUL NOT SWAP1 SWAP2 AND OR SWAP1 SSTORE POP PUSH1 0x3 DUP3 ADD DUP1 SLOAD PUSH1 0xFF PUSH1 0xC0 SHL NOT AND SWAP1 SSTORE PUSH1 0xD DUP1 SLOAD PUSH32 0x1774DD77FAAF323CD25B2F963FF975744949B339A6D103B4E3959263F6C2F977 SWAP2 SWAP1 DUP6 SWAP1 DUP2 LT PUSH2 0x10BA JUMPI PUSH2 0x10BA PUSH2 0x37F7 JUMP JUMPDEST PUSH1 0x0 SWAP2 DUP3 MSTORE PUSH1 0x20 DUP3 KECCAK256 ADD SLOAD PUSH1 0x2 DUP6 ADD SLOAD PUSH1 0x1 DUP7 ADD SLOAD PUSH1 0x40 MLOAD PUSH2 0x10E9 SWAP5 PUSH1 0x1 PUSH1 0x1 PUSH1 0xA0 SHL SUB SWAP1 SWAP5 AND SWAP4 SWAP2 SWAP1 PUSH2 0x38C3 JUMP JUMPDEST PUSH1 0x40 MLOAD DUP1 SWAP2 SUB SWAP1 LOG1 JUMPDEST DUP1 PUSH2 0x10FC DUP2 PUSH2 0x380D JUMP JUMPDEST SWAP2 POP POP PUSH2 0xF1D JUMP JUMPDEST POP JUMPDEST POP DUP1 PUSH2 0x1111 DUP2 PUSH2 0x380D JUMP JUMPDEST SWAP2 POP POP PUSH2 0xEBB JUMP JUMPDEST POP PUSH1 0x0 JUMPDEST PUSH1 0xD SLOAD DUP2 LT ISZERO PUSH2 0x1205 JUMPI PUSH1 0x0 PUSH1 0xF PUSH1 0x0 PUSH1 0xD DUP5 DUP2 SLOAD DUP2 LT PUSH2 0x1140 JUMPI PUSH2 0x1140 PUSH2 0x37F7 JUMP JUMPDEST PUSH1 0x0 SWAP2 DUP3 MSTORE PUSH1 0x20 DUP1 DUP4 KECCAK256 SWAP1 SWAP2 ADD SLOAD PUSH1 0x1 PUSH1 0x1 PUSH1 0xA0 SHL SUB AND DUP4 MSTORE DUP3 ADD SWAP3 SWAP1 SWAP3 MSTORE PUSH1 0x40 ADD SWAP1 KECCAK256 PUSH1 0x3 DUP2 ADD SLOAD SWAP1 SWAP2 POP PUSH1 0xFF PUSH1 0x1 PUSH1 0xB8 SHL SWAP1 SWAP2 DIV AND ISZERO PUSH2 0x11F2 JUMPI PUSH1 0x3 DUP2 ADD SLOAD PUSH1 0x1 PUSH1 0xA0 SHL SWAP1 DIV PUSH1 0xFF AND PUSH1 0x1 EQ ISZERO PUSH2 0x11F2 JUMPI PUSH1 0x3 DUP2 ADD SLOAD PUSH1 0x1 PUSH1 0xC0 SHL SWAP1 DIV PUSH1 0xFF AND ISZERO PUSH2 0x11D2 JUMPI PUSH1 0xC SLOAD DUP2 PUSH1 0x1 ADD SLOAD PUSH2 0x11B9 SWAP2 SWAP1 PUSH2 0x37DF JUMP JUMPDEST PUSH1 0x1 DUP3 ADD SSTORE PUSH1 0xC SLOAD PUSH2 0x11CB SWAP1 DUP5 PUSH2 0x3828 JUMP JUMPDEST SWAP3 POP PUSH2 0x11F2 JUMP JUMPDEST PUSH1 0xC SLOAD PUSH2 0x11DF SWAP1 DUP6 PUSH2 0x37DF JUMP JUMPDEST SWAP4 POP PUSH1 0xC SLOAD DUP4 PUSH2 0x11EF SWAP2 SWAP1 PUSH2 0x3828 JUMP JUMPDEST SWAP3 POP JUMPDEST POP DUP1 PUSH2 0x11FD DUP2 PUSH2 0x380D JUMP JUMPDEST SWAP2 POP POP PUSH2 0x111D JUMP JUMPDEST POP PUSH1 0x1 SLOAD PUSH1 0x0 SWAP1 DUP2 SWAP1 PUSH2 0x100 SWAP1 DIV PUSH1 0xFF AND ISZERO DUP1 ISZERO SWAP1 PUSH2 0x1228 JUMPI POP PUSH1 0x8 SLOAD PUSH1 0x9 SLOAD LT ISZERO JUMPDEST ISZERO PUSH2 0x1A61 JUMPI PUSH1 0x8 SLOAD PUSH1 0x9 PUSH1 0x0 DUP3 DUP3 SLOAD PUSH2 0x1241 SWAP2 SWAP1 PUSH2 0x3828 JUMP JUMPDEST SWAP1 SWAP2 SSTORE POP POP PUSH1 0x8 SLOAD DUP5 ISZERO PUSH2 0x125C JUMPI PUSH2 0x1259 DUP6 DUP3 PUSH2 0x37DF JUMP JUMPDEST SWAP1 POP JUMPDEST PUSH1 0x0 JUMPDEST PUSH1 0xD SLOAD DUP2 LT ISZERO PUSH2 0x13BC JUMPI PUSH1 0x0 PUSH1 0xF PUSH1 0x0 PUSH1 0xD DUP5 DUP2 SLOAD DUP2 LT PUSH2 0x1282 JUMPI PUSH2 0x1282 PUSH2 0x37F7 JUMP JUMPDEST PUSH1 0x0 SWAP2 DUP3 MSTORE PUSH1 0x20 DUP1 DUP4 KECCAK256 SWAP1 SWAP2 ADD SLOAD PUSH1 0x1 PUSH1 0x1 PUSH1 0xA0 SHL SUB AND DUP4 MSTORE DUP3 ADD SWAP3 SWAP1 SWAP3 MSTORE PUSH1 0x40 ADD SWAP1 KECCAK256 PUSH1 0x3 DUP2 ADD SLOAD SWAP1 SWAP2 POP PUSH1 0xFF PUSH1 0x1 PUSH1 0xB8 SHL SWAP1 SWAP2 DIV AND DUP1 ISZERO PUSH2 0x12D0 JUMPI POP PUSH1 0x3 DUP2 ADD SLOAD PUSH1 0x1 PUSH1 0xC0 SHL SWAP1 DIV PUSH1 0xFF AND JUMPDEST DUP1 ISZERO PUSH2 0x12E8 JUMPI POP PUSH1 0x3 DUP2 ADD SLOAD PUSH1 0x1 PUSH1 0xB0 SHL SWAP1 DIV PUSH1 0xFF AND ISZERO JUMPDEST ISZERO PUSH2 0x13A9 JUMPI PUSH1 0x1 SLOAD PUSH1 0xFF AND PUSH1 0x0 SWAP1 DUP2 MSTORE PUSH1 0x14 PUSH1 0x20 SWAP1 DUP2 MSTORE PUSH1 0x40 DUP1 DUP4 KECCAK256 PUSH1 0x3 DUP6 ADD SLOAD PUSH1 0x1 PUSH1 0x1 PUSH1 0xA0 SHL SUB AND DUP5 MSTORE SWAP1 SWAP2 MSTORE DUP2 KECCAK256 SLOAD PUSH2 0x1323 SWAP1 PUSH2 0x3115 JUMP JUMPDEST PUSH1 0x3 DUP4 ADD SLOAD PUSH2 0x133C SWAP2 SWAP1 PUSH1 0x1 PUSH1 0xA8 SHL SWAP1 DIV PUSH1 0xFF AND PUSH2 0x38E9 JUMP JUMPDEST PUSH1 0x1 SLOAD PUSH1 0xFF AND PUSH1 0x0 SWAP1 DUP2 MSTORE PUSH1 0x14 PUSH1 0x20 SWAP1 DUP2 MSTORE PUSH1 0x40 DUP1 DUP4 KECCAK256 PUSH1 0x3 DUP8 ADD SLOAD PUSH1 0x1 PUSH1 0x1 PUSH1 0xA0 SHL SUB AND DUP5 MSTORE SWAP1 SWAP2 MSTORE DUP2 KECCAK256 SLOAD SWAP2 SWAP3 POP SGT PUSH2 0x137F JUMPI PUSH2 0x137A DUP2 PUSH2 0x3908 JUMP JUMPDEST PUSH2 0x1381 JUMP JUMPDEST DUP1 JUMPDEST DUP3 PUSH1 0x0 ADD PUSH1 0x0 DUP3 DUP3 SLOAD PUSH2 0x1394 SWAP2 SWAP1 PUSH2 0x3925 JUMP JUMPDEST SWAP1 SWAP2 SSTORE POP POP DUP2 SLOAD PUSH2 0x13A5 SWAP1 DUP8 PUSH2 0x3925 JUMP JUMPDEST SWAP6 POP POP JUMPDEST POP DUP1 PUSH2 0x13B4 DUP2 PUSH2 0x380D JUMP JUMPDEST SWAP2 POP POP PUSH2 0x125F JUMP JUMPDEST POP PUSH1 0x0 JUMPDEST PUSH1 0xD SLOAD DUP2 LT ISZERO PUSH2 0x161E JUMPI PUSH1 0x0 PUSH1 0xF PUSH1 0x0 PUSH1 0xD DUP5 DUP2 SLOAD DUP2 LT PUSH2 0x13E3 JUMPI PUSH2 0x13E3 PUSH2 0x37F7 JUMP JUMPDEST PUSH1 0x0 SWAP2 DUP3 MSTORE PUSH1 0x20 DUP1 DUP4 KECCAK256 SWAP1 SWAP2 ADD SLOAD PUSH1 0x1 PUSH1 0x1 PUSH1 0xA0 SHL SUB AND DUP4 MSTORE DUP3 ADD SWAP3 SWAP1 SWAP3 MSTORE PUSH1 0x40 ADD SWAP1 KECCAK256 PUSH1 0x3 DUP2 ADD SLOAD SWAP1 SWAP2 POP PUSH1 0xFF PUSH1 0x1 PUSH1 0xB8 SHL SWAP1 SWAP2 DIV AND DUP1 ISZERO PUSH2 0x1431 JUMPI POP PUSH1 0x3 DUP2 ADD SLOAD PUSH1 0x1 PUSH1 0xC0 SHL SWAP1 DIV PUSH1 0xFF AND JUMPDEST DUP1 ISZERO PUSH2 0x1449 JUMPI POP PUSH1 0x3 DUP2 ADD SLOAD PUSH1 0x1 PUSH1 0xB0 SHL SWAP1 DIV PUSH1 0xFF AND ISZERO JUMPDEST ISZERO PUSH2 0x160B JUMPI PUSH1 0x0 DUP6 SGT ISZERO PUSH2 0x145D JUMPI DUP5 PUSH2 0x1460 JUMP JUMPDEST PUSH1 0x1 JUMPDEST SWAP4 POP PUSH1 0x0 DUP5 PUSH2 0x1472 DUP4 PUSH1 0x0 ADD SLOAD PUSH2 0x314F JUMP JUMPDEST PUSH2 0x147C SWAP1 DUP7 PUSH2 0x38E9 JUMP JUMPDEST PUSH2 0x1486 SWAP2 SWAP1 PUSH2 0x3862 JUMP JUMPDEST PUSH1 0x1 SLOAD PUSH1 0xFF AND PUSH1 0x0 SWAP1 DUP2 MSTORE PUSH1 0x14 PUSH1 0x20 SWAP1 DUP2 MSTORE PUSH1 0x40 DUP1 DUP4 KECCAK256 PUSH1 0x3 DUP8 ADD SLOAD PUSH1 0x1 PUSH1 0x1 PUSH1 0xA0 SHL SUB AND DUP5 MSTORE SWAP1 SWAP2 MSTORE DUP2 KECCAK256 SLOAD SWAP2 SWAP3 POP SGT DUP1 ISZERO PUSH2 0x14DE JUMPI POP PUSH1 0x1 SLOAD PUSH2 0x14D6 SWAP1 PUSH5 0x100000000 SWAP1 DIV PUSH1 0xFF AND DUP3 PUSH2 0x38E9 JUMP JUMPDEST DUP3 PUSH1 0x1 ADD SLOAD GT ISZERO JUMPDEST ISZERO PUSH2 0x1609 JUMPI PUSH1 0x1 DUP3 ADD SLOAD PUSH2 0x14F2 SWAP1 DUP6 PUSH2 0x37DF JUMP JUMPDEST SWAP4 POP PUSH32 0x6A461179A109AC5A4F65774B04343A475DD7D089FFA5A31552A4D71E0A1E7B4F PUSH1 0xD DUP5 DUP2 SLOAD DUP2 LT PUSH2 0x1528 JUMPI PUSH2 0x1528 PUSH2 0x37F7 JUMP JUMPDEST PUSH1 0x0 SWAP2 DUP3 MSTORE PUSH1 0x20 DUP3 KECCAK256 ADD SLOAD PUSH1 0x2 DUP6 ADD SLOAD PUSH1 0x1 DUP7 ADD SLOAD PUSH1 0x40 MLOAD PUSH2 0x1556 SWAP5 PUSH1 0x1 PUSH1 0x1 PUSH1 0xA0 SHL SUB SWAP1 SWAP5 AND SWAP4 SWAP1 PUSH2 0x38C3 JUMP JUMPDEST PUSH1 0x40 MLOAD DUP1 SWAP2 SUB SWAP1 LOG1 PUSH1 0x1 SLOAD PUSH1 0xFF AND PUSH1 0x0 SWAP1 DUP2 MSTORE PUSH1 0x14 PUSH1 0x20 SWAP1 DUP2 MSTORE PUSH1 0x40 DUP1 DUP4 KECCAK256 PUSH1 0x3 DUP7 ADD SLOAD PUSH1 0x1 PUSH1 0x1 PUSH1 0xA0 SHL SUB AND DUP5 MSTORE SWAP1 SWAP2 MSTORE SWAP1 KECCAK256 SLOAD PUSH2 0x1594 SWAP1 PUSH2 0x3115 JUMP JUMPDEST PUSH1 0x3 DUP4 ADD SLOAD PUSH2 0x15AD SWAP2 SWAP1 PUSH1 0x1 PUSH1 0xA8 SHL SWAP1 DIV PUSH1 0xFF AND PUSH2 0x38E9 JUMP JUMPDEST PUSH2 0x15B7 SWAP1 DUP8 PUSH2 0x3925 JUMP JUMPDEST SWAP6 POP PUSH1 0x0 DUP3 PUSH1 0x1 ADD DUP2 SWAP1 SSTORE POP PUSH1 0x1 PUSH1 0x2 PUSH1 0x0 DUP3 DUP3 SLOAD PUSH2 0x15D6 SWAP2 SWAP1 PUSH2 0x3828 JUMP JUMPDEST SWAP1 SWAP2 SSTORE POP POP PUSH1 0xD DUP1 SLOAD DUP5 SWAP1 DUP2 LT PUSH2 0x15EF JUMPI PUSH2 0x15EF PUSH2 0x37F7 JUMP JUMPDEST PUSH1 0x0 SWAP2 DUP3 MSTORE PUSH1 0x20 SWAP1 SWAP2 KECCAK256 ADD DUP1 SLOAD PUSH1 0x1 PUSH1 0x1 PUSH1 0xA0 SHL SUB NOT AND SWAP1 SSTORE JUMPDEST POP JUMPDEST POP DUP1 PUSH2 0x1616 DUP2 PUSH2 0x380D JUMP JUMPDEST SWAP2 POP POP PUSH2 0x13C0 JUMP JUMPDEST POP PUSH1 0x0 DUP4 SGT ISZERO PUSH2 0x162E JUMPI DUP3 PUSH2 0x1631 JUMP JUMPDEST PUSH1 0x1 JUMPDEST SWAP2 POP PUSH1 0x0 DUP1 PUSH1 0x0 JUMPDEST PUSH1 0xD SLOAD DUP2 LT ISZERO PUSH2 0x17D1 JUMPI PUSH1 0x0 PUSH1 0xF PUSH1 0x0 PUSH1 0xD DUP5 DUP2 SLOAD DUP2 LT PUSH2 0x165C JUMPI PUSH2 0x165C PUSH2 0x37F7 JUMP JUMPDEST PUSH1 0x0 SWAP2 DUP3 MSTORE PUSH1 0x20 DUP1 DUP4 KECCAK256 SWAP1 SWAP2 ADD SLOAD PUSH1 0x1 PUSH1 0x1 PUSH1 0xA0 SHL SUB AND DUP4 MSTORE DUP3 ADD SWAP3 SWAP1 SWAP3 MSTORE PUSH1 0x40 ADD SWAP1 KECCAK256 PUSH1 0x3 DUP2 ADD SLOAD SWAP1 SWAP2 POP PUSH1 0xFF PUSH1 0x1 PUSH1 0xB8 SHL SWAP1 SWAP2 DIV AND DUP1 ISZERO PUSH2 0x16AA JUMPI POP PUSH1 0x3 DUP2 ADD SLOAD PUSH1 0x1 PUSH1 0xC0 SHL SWAP1 DIV PUSH1 0xFF AND JUMPDEST DUP1 ISZERO PUSH2 0x16C2 JUMPI POP PUSH1 0x3 DUP2 ADD SLOAD PUSH1 0x1 PUSH1 0xB0 SHL SWAP1 DIV PUSH1 0xFF AND ISZERO JUMPDEST DUP1 ISZERO PUSH2 0x16F8 JUMPI POP PUSH1 0x1 SLOAD PUSH1 0xFF AND PUSH1 0x0 SWAP1 DUP2 MSTORE PUSH1 0x14 PUSH1 0x20 SWAP1 DUP2 MSTORE PUSH1 0x40 DUP1 DUP4 KECCAK256 PUSH1 0x3 DUP6 ADD SLOAD PUSH1 0x1 PUSH1 0x1 PUSH1 0xA0 SHL SUB AND DUP5 MSTORE SWAP1 SWAP2 MSTORE DUP2 KECCAK256 SLOAD SLT JUMPDEST ISZERO PUSH2 0x17BE JUMPI PUSH1 0x0 DUP7 PUSH2 0x170D DUP4 PUSH1 0x0 ADD SLOAD PUSH2 0x314F JUMP JUMPDEST PUSH2 0x1717 SWAP1 DUP9 PUSH2 0x38E9 JUMP JUMPDEST PUSH2 0x1721 SWAP2 SWAP1 PUSH2 0x3862 JUMP JUMPDEST PUSH1 0x1 SLOAD SWAP1 SWAP2 POP PUSH1 0x0 SWAP1 PUSH2 0x173F SWAP1 PUSH5 0x100000000 SWAP1 DIV PUSH1 0xFF AND DUP4 PUSH2 0x38E9 JUMP JUMPDEST SWAP1 POP DUP1 DUP4 PUSH1 0x1 ADD PUSH1 0x0 DUP3 DUP3 SLOAD PUSH2 0x1755 SWAP2 SWAP1 PUSH2 0x3828 JUMP JUMPDEST SWAP1 SWAP2 SSTORE POP PUSH2 0x1765 SWAP1 POP DUP2 DUP8 PUSH2 0x37DF JUMP JUMPDEST PUSH1 0x3 DUP5 ADD SLOAD PUSH1 0x2 DUP6 ADD SLOAD PUSH1 0x1 DUP7 ADD SLOAD PUSH1 0x40 MLOAD SWAP4 SWAP10 POP PUSH32 0xF002DA1CC235DD7B3CD93CB91C128FE6E777FB632383DA5FF2603123883748B1 SWAP4 PUSH2 0x17B3 SWAP4 PUSH1 0x1 PUSH1 0x1 PUSH1 0xA0 SHL SUB AND SWAP3 SWAP2 PUSH1 0x0 SWAP2 PUSH2 0x38C3 JUMP JUMPDEST PUSH1 0x40 MLOAD DUP1 SWAP2 SUB SWAP1 LOG1 POP POP JUMPDEST POP DUP1 PUSH2 0x17C9 DUP2 PUSH2 0x380D JUMP JUMPDEST SWAP2 POP POP PUSH2 0x1639 JUMP JUMPDEST POP PUSH2 0x17DC DUP3 DUP5 PUSH2 0x37DF JUMP JUMPDEST SWAP3 POP PUSH1 0x0 JUMPDEST PUSH1 0xD SLOAD DUP2 LT ISZERO PUSH2 0x18C7 JUMPI PUSH1 0x0 PUSH1 0xF PUSH1 0x0 PUSH1 0xD DUP5 DUP2 SLOAD DUP2 LT PUSH2 0x1804 JUMPI PUSH2 0x1804 PUSH2 0x37F7 JUMP JUMPDEST PUSH1 0x0 SWAP2 DUP3 MSTORE PUSH1 0x20 DUP1 DUP4 KECCAK256 SWAP1 SWAP2 ADD SLOAD PUSH1 0x1 PUSH1 0x1 PUSH1 0xA0 SHL SUB AND DUP4 MSTORE DUP3 ADD SWAP3 SWAP1 SWAP3 MSTORE PUSH1 0x40 ADD SWAP1 KECCAK256 PUSH1 0x3 DUP2 ADD SLOAD SWAP1 SWAP2 POP PUSH1 0xFF PUSH1 0x1 PUSH1 0xB8 SHL SWAP1 SWAP2 DIV AND DUP1 ISZERO PUSH2 0x1852 JUMPI POP PUSH1 0x3 DUP2 ADD SLOAD PUSH1 0x1 PUSH1 0xC0 SHL SWAP1 DIV PUSH1 0xFF AND JUMPDEST DUP1 ISZERO PUSH2 0x186A JUMPI POP PUSH1 0x3 DUP2 ADD SLOAD PUSH1 0x1 PUSH1 0xB0 SHL SWAP1 DIV PUSH1 0xFF AND ISZERO JUMPDEST DUP1 ISZERO PUSH2 0x18A0 JUMPI POP PUSH1 0x1 SLOAD PUSH1 0xFF AND PUSH1 0x0 SWAP1 DUP2 MSTORE PUSH1 0x14 PUSH1 0x20 SWAP1 DUP2 MSTORE PUSH1 0x40 DUP1 DUP4 KECCAK256 PUSH1 0x3 DUP6 ADD SLOAD PUSH1 0x1 PUSH1 0x1 PUSH1 0xA0 SHL SUB AND DUP5 MSTORE SWAP1 SWAP2 MSTORE DUP2 KECCAK256 SLOAD SGT JUMPDEST ISZERO PUSH2 0x18B4 JUMPI DUP1 SLOAD PUSH2 0x18B1 SWAP1 DUP5 PUSH2 0x37DF JUMP JUMPDEST SWAP3 POP JUMPDEST POP DUP1 PUSH2 0x18BF DUP2 PUSH2 0x380D JUMP JUMPDEST SWAP2 POP POP PUSH2 0x17E1 JUMP JUMPDEST POP DUP1 ISZERO PUSH2 0x18D4 JUMPI DUP1 PUSH2 0x18D7 JUMP JUMPDEST PUSH1 0x1 JUMPDEST SWAP1 POP PUSH1 0x0 JUMPDEST PUSH1 0xD SLOAD DUP2 LT ISZERO PUSH2 0x1A5C JUMPI PUSH1 0x0 PUSH1 0xF PUSH1 0x0 PUSH1 0xD DUP5 DUP2 SLOAD DUP2 LT PUSH2 0x18FF JUMPI PUSH2 0x18FF PUSH2 0x37F7 JUMP JUMPDEST PUSH1 0x0 SWAP2 DUP3 MSTORE PUSH1 0x20 DUP1 DUP4 KECCAK256 SWAP1 SWAP2 ADD SLOAD PUSH1 0x1 PUSH1 0x1 PUSH1 0xA0 SHL SUB AND DUP4 MSTORE DUP3 ADD SWAP3 SWAP1 SWAP3 MSTORE PUSH1 0x40 ADD SWAP1 KECCAK256 PUSH1 0x3 DUP2 ADD SLOAD SWAP1 SWAP2 POP PUSH1 0xFF PUSH1 0x1 PUSH1 0xB8 SHL SWAP1 SWAP2 DIV AND DUP1 ISZERO PUSH2 0x194D JUMPI POP PUSH1 0x3 DUP2 ADD SLOAD PUSH1 0x1 PUSH1 0xC0 SHL SWAP1 DIV PUSH1 0xFF AND JUMPDEST DUP1 ISZERO PUSH2 0x1965 JUMPI POP PUSH1 0x3 DUP2 ADD SLOAD PUSH1 0x1 PUSH1 0xB0 SHL SWAP1 DIV PUSH1 0xFF AND ISZERO JUMPDEST DUP1 ISZERO PUSH2 0x199B JUMPI POP PUSH1 0x1 SLOAD PUSH1 0xFF AND PUSH1 0x0 SWAP1 DUP2 MSTORE PUSH1 0x14 PUSH1 0x20 SWAP1 DUP2 MSTORE PUSH1 0x40 DUP1 DUP4 KECCAK256 PUSH1 0x3 DUP6 ADD SLOAD PUSH1 0x1 PUSH1 0x1 PUSH1 0xA0 SHL SUB AND DUP5 MSTORE SWAP1 SWAP2 MSTORE DUP2 KECCAK256 SLOAD SGT JUMPDEST ISZERO PUSH2 0x1A37 JUMPI PUSH1 0x0 DUP4 PUSH2 0x19B0 DUP4 PUSH1 0x0 ADD SLOAD PUSH2 0x314F JUMP JUMPDEST PUSH2 0x19BA SWAP1 DUP9 PUSH2 0x38E9 JUMP JUMPDEST PUSH2 0x19C4 SWAP2 SWAP1 PUSH2 0x3862 JUMP JUMPDEST SWAP1 POP DUP1 DUP3 PUSH1 0x1 ADD PUSH1 0x0 DUP3 DUP3 SLOAD PUSH2 0x19DA SWAP2 SWAP1 PUSH2 0x37DF JUMP JUMPDEST SWAP1 SWAP2 SSTORE POP POP PUSH1 0x3 DUP3 ADD SLOAD PUSH1 0x2 DUP4 ADD SLOAD PUSH1 0x1 DUP5 ADD SLOAD PUSH1 0x40 MLOAD PUSH32 0xF002DA1CC235DD7B3CD93CB91C128FE6E777FB632383DA5FF2603123883748B1 SWAP4 PUSH2 0x1A2D SWAP4 PUSH1 0x1 PUSH1 0x1 PUSH1 0xA0 SHL SUB SWAP1 SWAP2 AND SWAP3 SWAP1 SWAP2 DUP7 SWAP2 SWAP1 PUSH2 0x38C3 JUMP JUMPDEST PUSH1 0x40 MLOAD DUP1 SWAP2 SUB SWAP1 LOG1 POP JUMPDEST PUSH1 0x3 DUP2 ADD DUP1 SLOAD PUSH1 0xFF PUSH1 0xC0 SHL NOT AND SWAP1 SSTORE PUSH1 0x0 SWAP1 SSTORE DUP1 PUSH2 0x1A54 DUP2 PUSH2 0x380D JUMP JUMPDEST SWAP2 POP POP PUSH2 0x18DC JUMP JUMPDEST POP POP POP POP JUMPDEST PUSH1 0x1 SLOAD PUSH1 0x40 DUP1 MLOAD PUSH1 0xFF DUP1 DUP5 AND DUP3 MSTORE PUSH2 0x100 SWAP1 SWAP4 DIV SWAP1 SWAP3 AND PUSH1 0x20 DUP4 ADD MSTORE DUP2 ADD DUP3 SWAP1 MSTORE PUSH1 0x60 DUP2 ADD DUP6 SWAP1 MSTORE PUSH32 0xFB9071657A7D7C77D4413E1C8487BB219C39DE920F3297977DD60BF0E00D33D SWAP1 PUSH1 0x80 ADD PUSH1 0x40 MLOAD DUP1 SWAP2 SUB SWAP1 LOG1 PUSH1 0x0 JUMPDEST PUSH1 0xD SLOAD DUP2 LT ISZERO PUSH2 0x1C0A JUMPI PUSH1 0x0 PUSH1 0xF PUSH1 0x0 PUSH1 0xD DUP5 DUP2 SLOAD DUP2 LT PUSH2 0x1ADC JUMPI PUSH2 0x1ADC PUSH2 0x37F7 JUMP JUMPDEST PUSH1 0x0 SWAP2 DUP3 MSTORE PUSH1 0x20 DUP1 DUP4 KECCAK256 SWAP1 SWAP2 ADD SLOAD PUSH1 0x1 PUSH1 0x1 PUSH1 0xA0 SHL SUB AND DUP4 MSTORE DUP3 ADD SWAP3 SWAP1 SWAP3 MSTORE PUSH1 0x40 ADD SWAP1 KECCAK256 PUSH1 0x3 DUP2 ADD SLOAD SWAP1 SWAP2 POP PUSH1 0xFF PUSH1 0x1 PUSH1 0xB8 SHL SWAP1 SWAP2 DIV AND ISZERO PUSH2 0x1BF7 JUMPI PUSH1 0x3 DUP2 ADD DUP1 SLOAD PUSH1 0xFF PUSH1 0xA8 SHL NOT AND DUP1 DUP3 SSTORE PUSH1 0x0 PUSH1 0x2 DUP5 ADD SSTORE PUSH1 0x1 SWAP2 SWAP1 PUSH1 0x14 SWAP1 PUSH2 0x1B4B SWAP1 DUP5 SWAP1 PUSH1 0x1 PUSH1 0xA0 SHL SWAP1 DIV PUSH1 0xFF AND PUSH2 0x3966 JUMP JUMPDEST DUP3 SLOAD PUSH1 0xFF SWAP2 DUP3 AND PUSH2 0x100 SWAP4 SWAP1 SWAP4 EXP SWAP3 DUP4 MUL SWAP2 SWAP1 SWAP3 MUL NOT SWAP1 SWAP2 AND OR SWAP1 SSTORE POP PUSH1 0x3 DUP2 ADD DUP1 SLOAD PUSH1 0xFF PUSH1 0xB0 SHL NOT AND SWAP1 SSTORE PUSH1 0x0 JUMPDEST PUSH1 0xD SLOAD DUP2 LT ISZERO PUSH2 0x1BF5 JUMPI PUSH1 0x3 DUP3 ADD SLOAD PUSH1 0x1 PUSH1 0x1 PUSH1 0xA0 SHL SUB AND PUSH1 0x0 SWAP1 DUP2 MSTORE PUSH1 0x10 PUSH1 0x20 MSTORE PUSH1 0x40 DUP2 KECCAK256 PUSH1 0xD DUP1 SLOAD SWAP2 SWAP3 SWAP2 DUP5 SWAP1 DUP2 LT PUSH2 0x1BB7 JUMPI PUSH2 0x1BB7 PUSH2 0x37F7 JUMP JUMPDEST PUSH1 0x0 SWAP2 DUP3 MSTORE PUSH1 0x20 DUP1 DUP4 KECCAK256 SWAP1 SWAP2 ADD SLOAD PUSH1 0x1 PUSH1 0x1 PUSH1 0xA0 SHL SUB AND DUP4 MSTORE DUP3 ADD SWAP3 SWAP1 SWAP3 MSTORE PUSH1 0x40 ADD SWAP1 KECCAK256 DUP1 SLOAD PUSH1 0xFF NOT AND SWAP1 SSTORE DUP1 PUSH2 0x1BED DUP2 PUSH2 0x380D JUMP JUMPDEST SWAP2 POP POP PUSH2 0x1B7A JUMP JUMPDEST POP JUMPDEST POP DUP1 PUSH2 0x1C02 DUP2 PUSH2 0x380D JUMP JUMPDEST SWAP2 POP POP PUSH2 0x1AB9 JUMP JUMPDEST POP PUSH1 0x1 DUP1 SLOAD DUP2 SWAP1 PUSH1 0x0 SWAP1 PUSH2 0x1C22 SWAP1 DUP4 SWAP1 PUSH1 0xFF AND PUSH2 0x3966 JUMP JUMPDEST DUP3 SLOAD PUSH1 0xFF SWAP2 DUP3 AND PUSH2 0x100 SWAP4 SWAP1 SWAP4 EXP SWAP3 DUP4 MUL SWAP2 SWAP1 SWAP3 MUL NOT SWAP1 SWAP2 AND OR SWAP1 SSTORE POP POP PUSH1 0x1 DUP1 SLOAD PUSH2 0xFF00 NOT AND SWAP1 SSTORE POP POP PUSH1 0x0 PUSH1 0x3 SSTORE POP JUMP JUMPDEST CALLER PUSH1 0x0 SWAP1 DUP2 MSTORE PUSH1 0xF PUSH1 0x20 MSTORE PUSH1 0x40 SWAP1 KECCAK256 PUSH1 0x3 ADD SLOAD PUSH1 0x1 PUSH1 0xB8 SHL SWAP1 DIV PUSH1 0xFF AND ISZERO PUSH2 0x1CA5 JUMPI PUSH1 0x40 MLOAD PUSH3 0x461BCD PUSH1 0xE5 SHL DUP2 MSTORE PUSH1 0x20 PUSH1 0x4 DUP3 ADD MSTORE PUSH1 0x3 PUSH1 0x24 DUP3 ADD MSTORE PUSH3 0x29A0A9 PUSH1 0xE9 SHL PUSH1 0x44 DUP3 ADD MSTORE PUSH1 0x64 ADD PUSH2 0x8AA JUMP JUMPDEST PUSH1 0x5 SLOAD CALLVALUE LT ISZERO DUP1 ISZERO PUSH2 0x1CB9 JUMPI POP PUSH1 0x6 SLOAD CALLVALUE GT ISZERO JUMPDEST PUSH2 0x1CEB JUMPI PUSH1 0x40 MLOAD PUSH3 0x461BCD PUSH1 0xE5 SHL DUP2 MSTORE PUSH1 0x20 PUSH1 0x4 DUP3 ADD MSTORE PUSH1 0x3 PUSH1 0x24 DUP3 ADD MSTORE PUSH3 0x272BA9 PUSH1 0xE9 SHL PUSH1 0x44 DUP3 ADD MSTORE PUSH1 0x64 ADD PUSH2 0x8AA JUMP JUMPDEST PUSH2 0x1CF4 CALLER PUSH2 0x3163 JUMP JUMPDEST JUMP JUMPDEST PUSH1 0xD DUP2 DUP2 SLOAD DUP2 LT PUSH2 0x1D06 JUMPI PUSH1 0x0 DUP1 REVERT JUMPDEST PUSH1 0x0 SWAP2 DUP3 MSTORE PUSH1 0x20 SWAP1 SWAP2 KECCAK256 ADD SLOAD PUSH1 0x1 PUSH1 0x1 PUSH1 0xA0 SHL SUB AND SWAP1 POP DUP2 JUMP JUMPDEST CALLER PUSH1 0x0 SWAP1 DUP2 MSTORE PUSH1 0xF PUSH1 0x20 MSTORE PUSH1 0x40 SWAP1 KECCAK256 PUSH1 0x3 ADD SLOAD PUSH1 0x1 PUSH1 0xB8 SHL SWAP1 DIV PUSH1 0xFF AND PUSH2 0x1D59 JUMPI PUSH1 0x40 MLOAD PUSH3 0x461BCD PUSH1 0xE5 SHL DUP2 MSTORE PUSH1 0x4 ADD PUSH2 0x8AA SWAP1 PUSH2 0x37AC JUMP JUMPDEST DUP2 PUSH1 0x1 PUSH1 0x1 PUSH1 0xA0 SHL SUB DUP2 AND CALLER EQ ISZERO PUSH2 0x1D99 JUMPI PUSH1 0x40 MLOAD PUSH3 0x461BCD PUSH1 0xE5 SHL DUP2 MSTORE PUSH1 0x20 PUSH1 0x4 DUP3 ADD MSTORE PUSH1 0x3 PUSH1 0x24 DUP3 ADD MSTORE PUSH3 0x14D155 PUSH1 0xEA SHL PUSH1 0x44 DUP3 ADD MSTORE PUSH1 0x64 ADD PUSH2 0x8AA JUMP JUMPDEST CALLER PUSH1 0x0 SWAP1 DUP2 MSTORE PUSH1 0x10 PUSH1 0x20 SWAP1 DUP2 MSTORE PUSH1 0x40 DUP1 DUP4 KECCAK256 PUSH1 0x1 PUSH1 0x1 PUSH1 0xA0 SHL SUB DUP6 AND DUP5 MSTORE SWAP1 SWAP2 MSTORE SWAP1 KECCAK256 SLOAD PUSH1 0xFF AND ISZERO PUSH2 0x1DF3 JUMPI PUSH1 0x40 MLOAD PUSH3 0x461BCD PUSH1 0xE5 SHL DUP2 MSTORE PUSH1 0x20 PUSH1 0x4 DUP3 ADD MSTORE PUSH1 0x3 PUSH1 0x24 DUP3 ADD MSTORE PUSH3 0x564143 PUSH1 0xE8 SHL PUSH1 0x44 DUP3 ADD MSTORE PUSH1 0x64 ADD PUSH2 0x8AA JUMP JUMPDEST PUSH1 0x2 SLOAD PUSH1 0x3 SLOAD EQ DUP1 PUSH2 0x1E14 JUMPI POP TIMESTAMP PUSH3 0x15180 PUSH1 0xA SLOAD PUSH2 0x1E12 SWAP2 SWAP1 PUSH2 0x37DF JUMP JUMPDEST LT JUMPDEST PUSH2 0x1E46 JUMPI PUSH1 0x40 MLOAD PUSH3 0x461BCD PUSH1 0xE5 SHL DUP2 MSTORE PUSH1 0x20 PUSH1 0x4 DUP3 ADD MSTORE PUSH1 0x3 PUSH1 0x24 DUP3 ADD MSTORE PUSH3 0x465243 PUSH1 0xE8 SHL PUSH1 0x44 DUP3 ADD MSTORE PUSH1 0x64 ADD PUSH2 0x8AA JUMP JUMPDEST CALLER PUSH1 0x0 DUP2 DUP2 MSTORE PUSH1 0x10 PUSH1 0x20 SWAP1 DUP2 MSTORE PUSH1 0x40 DUP1 DUP4 KECCAK256 PUSH1 0x1 PUSH1 0x1 PUSH1 0xA0 SHL SUB DUP9 AND DUP5 MSTORE DUP3 MSTORE DUP1 DUP4 KECCAK256 DUP1 SLOAD PUSH1 0xFF NOT AND PUSH1 0x1 SWAP1 DUP2 OR SWAP1 SWAP2 SSTORE SWAP4 DUP4 MSTORE PUSH1 0xF SWAP1 SWAP2 MSTORE SWAP1 KECCAK256 PUSH1 0x3 ADD DUP1 SLOAD PUSH1 0x15 SWAP1 PUSH2 0x1E9E SWAP1 DUP5 SWAP1 PUSH1 0x1 PUSH1 0xA8 SHL SWAP1 DIV PUSH1 0xFF AND PUSH2 0x3966 JUMP JUMPDEST SWAP3 POP PUSH2 0x100 EXP DUP2 SLOAD DUP2 PUSH1 0xFF MUL NOT AND SWAP1 DUP4 PUSH1 0xFF AND MUL OR SWAP1 SSTORE POP PUSH1 0x1 DUP1 PUSH1 0x1 DUP3 DUP3 DUP3 SWAP1 SLOAD SWAP1 PUSH2 0x100 EXP SWAP1 DIV PUSH1 0xFF AND PUSH2 0x1ED4 SWAP2 SWAP1 PUSH2 0x3966 JUMP JUMPDEST SWAP3 POP PUSH2 0x100 EXP DUP2 SLOAD DUP2 PUSH1 0xFF MUL NOT AND SWAP1 DUP4 PUSH1 0xFF AND MUL OR SWAP1 SSTORE POP DUP2 PUSH1 0x1 EQ ISZERO PUSH2 0x1F6D JUMPI CALLER PUSH1 0x0 DUP2 DUP2 MSTORE PUSH1 0x11 PUSH1 0x20 SWAP1 DUP2 MSTORE PUSH1 0x40 DUP1 DUP4 KECCAK256 PUSH1 0x1 PUSH1 0x1 PUSH1 0xA0 SHL SUB DUP9 AND DUP5 MSTORE DUP3 MSTORE DUP1 DUP4 KECCAK256 DUP1 SLOAD PUSH1 0xFF NOT AND PUSH1 0x1 SWAP1 DUP2 OR SWAP1 SWAP2 SSTORE SWAP4 DUP4 MSTORE PUSH1 0xF SWAP1 SWAP2 MSTORE SWAP1 KECCAK256 DUP2 ADD SLOAD PUSH2 0x1F3C SWAP2 PUSH2 0x398B JUMP JUMPDEST PUSH1 0x1 PUSH1 0x1 PUSH1 0xA0 SHL SUB DUP5 AND PUSH1 0x0 SWAP1 DUP2 MSTORE PUSH1 0xF PUSH1 0x20 MSTORE PUSH1 0x40 DUP2 KECCAK256 PUSH1 0x2 ADD DUP1 SLOAD SWAP1 SWAP2 SWAP1 PUSH2 0x1F67 SWAP1 DUP5 SWAP1 PUSH2 0x3925 JUMP JUMPDEST SWAP1 SWAP2 SSTORE POP POP JUMPDEST DUP2 PUSH1 0x0 NOT EQ ISZERO PUSH2 0x1FEA JUMPI CALLER PUSH1 0x0 DUP2 DUP2 MSTORE PUSH1 0x11 PUSH1 0x20 SWAP1 DUP2 MSTORE PUSH1 0x40 DUP1 DUP4 KECCAK256 PUSH1 0x1 PUSH1 0x1 PUSH1 0xA0 SHL SUB DUP9 AND DUP5 MSTORE DUP3 MSTORE DUP1 DUP4 KECCAK256 DUP1 SLOAD PUSH1 0xFF NOT AND SWAP1 SSTORE SWAP3 DUP3 MSTORE PUSH1 0xF SWAP1 MSTORE KECCAK256 PUSH1 0x1 SWAP1 DUP2 ADD SLOAD PUSH2 0x1FB9 SWAP2 PUSH2 0x398B JUMP JUMPDEST PUSH1 0x1 PUSH1 0x1 PUSH1 0xA0 SHL SUB DUP5 AND PUSH1 0x0 SWAP1 DUP2 MSTORE PUSH1 0xF PUSH1 0x20 MSTORE PUSH1 0x40 DUP2 KECCAK256 PUSH1 0x2 ADD DUP1 SLOAD SWAP1 SWAP2 SWAP1 PUSH2 0x1FE4 SWAP1 DUP5 SWAP1 PUSH2 0x3884 JUMP JUMPDEST SWAP1 SWAP2 SSTORE POP POP JUMPDEST DUP2 PUSH2 0x201B JUMPI CALLER PUSH1 0x0 SWAP1 DUP2 MSTORE PUSH1 0x11 PUSH1 0x20 SWAP1 DUP2 MSTORE PUSH1 0x40 DUP1 DUP4 KECCAK256 PUSH1 0x1 PUSH1 0x1 PUSH1 0xA0 SHL SUB DUP8 AND DUP5 MSTORE SWAP1 SWAP2 MSTORE SWAP1 KECCAK256 DUP1 SLOAD PUSH1 0xFF NOT AND SWAP1 SSTORE JUMPDEST CALLER PUSH1 0x0 DUP2 DUP2 MSTORE PUSH1 0xF PUSH1 0x20 SWAP1 DUP2 MSTORE PUSH1 0x40 DUP1 DUP4 KECCAK256 PUSH1 0x1 ADD SLOAD PUSH1 0x1 PUSH1 0x1 PUSH1 0xA0 SHL SUB DUP9 AND DUP1 DUP6 MSTORE SWAP4 DUP3 SWAP1 KECCAK256 PUSH1 0x2 ADD SLOAD DUP3 MLOAD SWAP5 DUP6 MSTORE SWAP3 DUP5 ADD SWAP5 SWAP1 SWAP5 MSTORE DUP3 DUP2 ADD SWAP4 SWAP1 SWAP4 MSTORE PUSH1 0x60 DUP3 ADD MSTORE SWAP1 MLOAD PUSH32 0xD69FE95841F16237D39B30BBB2ED7633B307FB0ADDC4BB890B6A3A77E04F5F7F SWAP2 DUP2 SWAP1 SUB PUSH1 0x80 ADD SWAP1 LOG1 POP POP POP JUMP JUMPDEST CALLER PUSH1 0x0 SWAP1 DUP2 MSTORE PUSH1 0xF PUSH1 0x20 MSTORE PUSH1 0x40 SWAP1 KECCAK256 PUSH1 0x3 ADD SLOAD PUSH1 0x1 PUSH1 0xB8 SHL SWAP1 DIV PUSH1 0xFF AND ISZERO PUSH2 0x20DF JUMPI PUSH1 0x40 MLOAD PUSH3 0x461BCD PUSH1 0xE5 SHL DUP2 MSTORE PUSH1 0x20 PUSH1 0x4 DUP3 ADD MSTORE PUSH1 0x3 PUSH1 0x24 DUP3 ADD MSTORE PUSH3 0x29A0A9 PUSH1 0xE9 SHL PUSH1 0x44 DUP3 ADD MSTORE PUSH1 0x64 ADD PUSH2 0x8AA JUMP JUMPDEST PUSH1 0x5 SLOAD CALLVALUE LT ISZERO DUP1 ISZERO PUSH2 0x20F3 JUMPI POP PUSH1 0x6 SLOAD CALLVALUE GT ISZERO JUMPDEST PUSH2 0x2125 JUMPI PUSH1 0x40 MLOAD PUSH3 0x461BCD PUSH1 0xE5 SHL DUP2 MSTORE PUSH1 0x20 PUSH1 0x4 DUP3 ADD MSTORE PUSH1 0x3 PUSH1 0x24 DUP3 ADD MSTORE PUSH3 0x272BA9 PUSH1 0xE9 SHL PUSH1 0x44 DUP3 ADD MSTORE PUSH1 0x64 ADD PUSH2 0x8AA JUMP JUMPDEST PUSH2 0x212E DUP2 PUSH2 0x3163 JUMP JUMPDEST POP JUMP JUMPDEST CALLER PUSH1 0x0 SWAP1 DUP2 MSTORE PUSH1 0xF PUSH1 0x20 MSTORE PUSH1 0x40 SWAP1 KECCAK256 PUSH1 0x3 ADD SLOAD PUSH1 0x1 PUSH1 0xB8 SHL SWAP1 DIV PUSH1 0xFF AND PUSH2 0x216A JUMPI PUSH1 0x40 MLOAD PUSH3 0x461BCD PUSH1 0xE5 SHL DUP2 MSTORE PUSH1 0x4 ADD PUSH2 0x8AA SWAP1 PUSH2 0x37AC JUMP JUMPDEST CALLER PUSH1 0x0 SWAP1 DUP2 MSTORE PUSH1 0x13 PUSH1 0x20 SWAP1 DUP2 MSTORE PUSH1 0x40 DUP1 DUP4 KECCAK256 PUSH1 0x1 SLOAD PUSH1 0xFF AND DUP5 MSTORE SWAP1 SWAP2 MSTORE SWAP1 KECCAK256 SLOAD ISZERO PUSH2 0x21BD JUMPI PUSH1 0x40 MLOAD PUSH3 0x461BCD PUSH1 0xE5 SHL DUP2 MSTORE PUSH1 0x20 PUSH1 0x4 DUP3 ADD MSTORE PUSH1 0x3 PUSH1 0x24 DUP3 ADD MSTORE PUSH3 0x53415 PUSH1 0xEC SHL PUSH1 0x44 DUP3 ADD MSTORE PUSH1 0x64 ADD PUSH2 0x8AA JUMP JUMPDEST PUSH1 0x40 DUP1 MLOAD PUSH1 0x20 DUP2 ADD DUP5 SWAP1 MSTORE SWAP1 DUP2 ADD DUP3 SWAP1 MSTORE CALLER PUSH1 0x60 SWAP1 DUP2 SHL PUSH12 0xFFFFFFFFFFFFFFFFFFFFFFFF NOT AND SWAP1 DUP3 ADD MSTORE PUSH1 0x74 ADD PUSH1 0x40 DUP1 MLOAD PUSH1 0x1F NOT DUP2 DUP5 SUB ADD DUP2 MSTORE SWAP2 DUP2 MSTORE DUP2 MLOAD PUSH1 0x20 SWAP3 DUP4 ADD KECCAK256 CALLER PUSH1 0x0 SWAP1 DUP2 MSTORE PUSH1 0x12 DUP5 MSTORE DUP3 DUP2 KECCAK256 PUSH1 0x1 SLOAD PUSH1 0xFF AND DUP3 MSTORE SWAP1 SWAP4 MSTORE SWAP2 KECCAK256 SLOAD EQ PUSH2 0x2250 JUMPI PUSH1 0x40 MLOAD PUSH3 0x461BCD PUSH1 0xE5 SHL DUP2 MSTORE PUSH1 0x20 PUSH1 0x4 DUP3 ADD MSTORE PUSH1 0x3 PUSH1 0x24 DUP3 ADD MSTORE PUSH3 0x4E4B53 PUSH1 0xE8 SHL PUSH1 0x44 DUP3 ADD MSTORE PUSH1 0x64 ADD PUSH2 0x8AA JUMP JUMPDEST CALLER PUSH1 0x0 SWAP1 DUP2 MSTORE PUSH1 0x13 PUSH1 0x20 SWAP1 DUP2 MSTORE PUSH1 0x40 DUP1 DUP4 KECCAK256 PUSH1 0x1 DUP1 SLOAD PUSH1 0xFF AND DUP6 MSTORE SWAP3 MSTORE DUP3 KECCAK256 DUP5 SWAP1 SSTORE PUSH1 0x3 DUP1 SLOAD SWAP2 SWAP3 SWAP1 SWAP2 PUSH2 0x2285 SWAP1 DUP5 SWAP1 PUSH2 0x37DF JUMP JUMPDEST SWAP1 SWAP2 SSTORE POP POP POP POP JUMP JUMPDEST PUSH1 0x60 DUP1 PUSH1 0x0 DUP1 JUMPDEST PUSH1 0xD SLOAD DUP2 LT ISZERO PUSH2 0x2305 JUMPI PUSH1 0x0 PUSH1 0xF PUSH1 0x0 PUSH1 0xD DUP5 DUP2 SLOAD DUP2 LT PUSH2 0x22B8 JUMPI PUSH2 0x22B8 PUSH2 0x37F7 JUMP JUMPDEST PUSH1 0x0 SWAP2 DUP3 MSTORE PUSH1 0x20 DUP1 DUP4 KECCAK256 SWAP1 SWAP2 ADD SLOAD PUSH1 0x1 PUSH1 0x1 PUSH1 0xA0 SHL SUB AND DUP4 MSTORE DUP3 ADD SWAP3 SWAP1 SWAP3 MSTORE PUSH1 0x40 ADD SWAP1 KECCAK256 PUSH1 0x2 ADD SLOAD SLT PUSH2 0x22F3 JUMPI PUSH2 0x22F0 PUSH1 0x1 DUP4 PUSH2 0x3966 JUMP JUMPDEST SWAP2 POP JUMPDEST DUP1 PUSH2 0x22FD DUP2 PUSH2 0x380D JUMP JUMPDEST SWAP2 POP POP PUSH2 0x2295 JUMP JUMPDEST POP DUP1 PUSH1 0xFF AND PUSH8 0xFFFFFFFFFFFFFFFF DUP2 GT ISZERO PUSH2 0x2322 JUMPI PUSH2 0x2322 PUSH2 0x3A10 JUMP JUMPDEST PUSH1 0x40 MLOAD SWAP1 DUP1 DUP3 MSTORE DUP1 PUSH1 0x20 MUL PUSH1 0x20 ADD DUP3 ADD PUSH1 0x40 MSTORE DUP1 ISZERO PUSH2 0x234B JUMPI DUP2 PUSH1 0x20 ADD PUSH1 0x20 DUP3 MUL DUP1 CALLDATASIZE DUP4 CALLDATACOPY ADD SWAP1 POP JUMPDEST POP SWAP3 POP DUP1 PUSH1 0xFF AND PUSH8 0xFFFFFFFFFFFFFFFF DUP2 GT ISZERO PUSH2 0x236A JUMPI PUSH2 0x236A PUSH2 0x3A10 JUMP JUMPDEST PUSH1 0x40 MLOAD SWAP1 DUP1 DUP3 MSTORE DUP1 PUSH1 0x20 MUL PUSH1 0x20 ADD DUP3 ADD PUSH1 0x40 MSTORE DUP1 ISZERO PUSH2 0x2393 JUMPI DUP2 PUSH1 0x20 ADD PUSH1 0x20 DUP3 MUL DUP1 CALLDATASIZE DUP4 CALLDATACOPY ADD SWAP1 POP JUMPDEST POP SWAP2 POP PUSH1 0x0 DUP1 JUMPDEST PUSH1 0xD SLOAD DUP2 LT ISZERO PUSH2 0x24FC JUMPI PUSH1 0x0 PUSH1 0xF PUSH1 0x0 PUSH1 0xD DUP5 DUP2 SLOAD DUP2 LT PUSH2 0x23BD JUMPI PUSH2 0x23BD PUSH2 0x37F7 JUMP JUMPDEST PUSH1 0x0 SWAP2 DUP3 MSTORE PUSH1 0x20 DUP1 DUP4 KECCAK256 SWAP1 SWAP2 ADD SLOAD PUSH1 0x1 PUSH1 0x1 PUSH1 0xA0 SHL SUB AND DUP4 MSTORE DUP3 ADD SWAP3 SWAP1 SWAP3 MSTORE PUSH1 0x40 ADD SWAP1 KECCAK256 PUSH1 0x2 ADD SLOAD SLT PUSH2 0x24EA JUMPI PUSH1 0x1 SLOAD PUSH1 0xFF AND PUSH1 0x0 SWAP1 DUP2 MSTORE PUSH1 0x16 PUSH1 0x20 MSTORE PUSH1 0x40 DUP2 KECCAK256 PUSH1 0xD DUP1 SLOAD SWAP2 SWAP3 SWAP2 DUP5 SWAP1 DUP2 LT PUSH2 0x2415 JUMPI PUSH2 0x2415 PUSH2 0x37F7 JUMP JUMPDEST PUSH1 0x0 SWAP2 DUP3 MSTORE PUSH1 0x20 DUP1 DUP4 KECCAK256 SWAP1 SWAP2 ADD SLOAD PUSH1 0x1 PUSH1 0x1 PUSH1 0xA0 SHL SUB AND DUP4 MSTORE DUP3 ADD SWAP3 SWAP1 SWAP3 MSTORE PUSH1 0x40 ADD SWAP1 KECCAK256 SLOAD DUP6 MLOAD PUSH1 0xFF SWAP2 DUP3 AND SWAP2 DUP8 SWAP2 SWAP1 DUP6 AND SWAP1 DUP2 LT PUSH2 0x2456 JUMPI PUSH2 0x2456 PUSH2 0x37F7 JUMP JUMPDEST PUSH1 0xFF SWAP3 DUP4 AND PUSH1 0x20 SWAP2 DUP3 MUL SWAP3 SWAP1 SWAP3 ADD DUP2 ADD SWAP2 SWAP1 SWAP2 MSTORE PUSH1 0x1 SLOAD SWAP1 SWAP2 AND PUSH1 0x0 SWAP1 DUP2 MSTORE PUSH1 0x17 SWAP1 SWAP2 MSTORE PUSH1 0x40 DUP2 KECCAK256 PUSH1 0xD DUP1 SLOAD SWAP2 SWAP3 SWAP2 DUP5 SWAP1 DUP2 LT PUSH2 0x2495 JUMPI PUSH2 0x2495 PUSH2 0x37F7 JUMP JUMPDEST PUSH1 0x0 SWAP2 DUP3 MSTORE PUSH1 0x20 DUP1 DUP4 KECCAK256 SWAP1 SWAP2 ADD SLOAD PUSH1 0x1 PUSH1 0x1 PUSH1 0xA0 SHL SUB AND DUP4 MSTORE DUP3 ADD SWAP3 SWAP1 SWAP3 MSTORE PUSH1 0x40 ADD SWAP1 KECCAK256 SLOAD DUP5 MLOAD DUP6 SWAP1 PUSH1 0xFF DUP6 AND SWAP1 DUP2 LT PUSH2 0x24D1 JUMPI PUSH2 0x24D1 PUSH2 0x37F7 JUMP JUMPDEST PUSH1 0x20 SWAP1 DUP2 MUL SWAP2 SWAP1 SWAP2 ADD ADD MSTORE DUP2 PUSH2 0x24E6 DUP2 PUSH2 0x3A26 JUMP JUMPDEST SWAP3 POP POP JUMPDEST DUP1 PUSH2 0x24F4 DUP2 PUSH2 0x380D JUMP JUMPDEST SWAP2 POP POP PUSH2 0x239A JUMP JUMPDEST POP POP POP SWAP1 SWAP2 JUMP JUMPDEST PUSH1 0x60 DUP1 PUSH1 0x0 DUP1 DUP12 PUSH1 0x34 DUP13 DIV PUSH1 0x40 MLOAD SWAP6 POP PUSH1 0x20 DUP2 MUL PUSH1 0x20 ADD DUP7 ADD PUSH1 0x40 MSTORE DUP1 DUP7 MSTORE PUSH1 0x0 JUMPDEST DUP2 DUP2 LT ISZERO PUSH2 0x254D JUMPI DUP3 CALLDATALOAD PUSH1 0x60 SHR PUSH1 0x20 DUP3 DUP2 MUL DUP10 ADD ADD DUP2 SWAP1 MSTORE SWAP5 POP PUSH1 0x14 SWAP1 SWAP3 ADD SWAP2 PUSH1 0x1 ADD PUSH2 0x2525 JUMP JUMPDEST POP PUSH1 0x40 MLOAD SWAP5 POP PUSH1 0x20 DUP2 MUL PUSH1 0x20 ADD DUP6 ADD PUSH1 0x40 MSTORE DUP1 DUP6 MSTORE PUSH1 0x0 SWAP4 POP JUMPDEST DUP1 DUP5 LT ISZERO PUSH2 0x258F JUMPI DUP2 CALLDATALOAD SWAP3 POP DUP3 PUSH1 0x20 DUP6 MUL PUSH1 0x20 DUP8 ADD ADD MSTORE PUSH1 0x20 DUP3 ADD SWAP2 POP PUSH1 0x1 DUP5 ADD SWAP4 POP PUSH2 0x2567 JUMP JUMPDEST POP POP DUP4 MLOAD DUP10 EQ SWAP2 POP PUSH2 0x25E5 SWAP1 POP JUMPI PUSH1 0x40 MLOAD PUSH3 0x461BCD PUSH1 0xE5 SHL DUP2 MSTORE PUSH1 0x20 PUSH1 0x4 DUP3 ADD DUP2 SWAP1 MSTORE PUSH1 0x24 DUP3 ADD MSTORE PUSH32 0x494E56414C49445F4C454E475448204F46204143435552414359204152524159 PUSH1 0x44 DUP3 ADD MSTORE PUSH1 0x64 ADD PUSH2 0x8AA JUMP JUMPDEST DUP2 MLOAD DUP6 EQ PUSH2 0x2635 JUMPI PUSH1 0x40 MLOAD PUSH3 0x461BCD PUSH1 0xE5 SHL DUP2 MSTORE PUSH1 0x20 PUSH1 0x4 DUP3 ADD MSTORE PUSH1 0x1C PUSH1 0x24 DUP3 ADD MSTORE PUSH32 0x494E56414C49445F4C454E475448204F46204C4F535320415252415900000000 PUSH1 0x44 DUP3 ADD MSTORE PUSH1 0x64 ADD PUSH2 0x8AA JUMP JUMPDEST PUSH1 0x1 SLOAD PUSH1 0xFF AND PUSH1 0x0 SWAP1 DUP2 MSTORE PUSH1 0x18 PUSH1 0x20 SWAP1 DUP2 MSTORE PUSH1 0x40 DUP1 DUP4 KECCAK256 CALLER DUP5 MSTORE DUP3 MSTORE SWAP2 DUP3 SWAP1 KECCAK256 DUP3 MLOAD PUSH1 0x60 DUP2 ADD DUP5 MSTORE DUP6 DUP2 MSTORE DUP4 MLOAD DUP12 DUP5 MUL DUP2 DUP2 ADD DUP6 ADD SWAP1 SWAP6 MSTORE DUP12 DUP2 MSTORE SWAP2 SWAP4 SWAP1 SWAP3 DUP4 DUP2 ADD SWAP3 SWAP2 DUP14 SWAP2 DUP14 SWAP2 DUP3 SWAP2 DUP6 ADD SWAP1 DUP5 SWAP1 DUP1 DUP3 DUP5 CALLDATACOPY PUSH1 0x0 SWAP3 ADD SWAP2 SWAP1 SWAP2 MSTORE POP POP POP SWAP1 DUP3 MSTORE POP PUSH1 0x40 DUP1 MLOAD PUSH1 0x20 DUP11 DUP2 MUL DUP3 DUP2 ADD DUP3 ADD SWAP1 SWAP4 MSTORE DUP11 DUP3 MSTORE SWAP3 DUP4 ADD SWAP3 SWAP1 SWAP2 DUP12 SWAP2 DUP12 SWAP2 DUP3 SWAP2 DUP6 ADD SWAP1 DUP5 SWAP1 DUP1 DUP3 DUP5 CALLDATACOPY PUSH1 0x0 SWAP3 ADD DUP3 SWAP1 MSTORE POP SWAP4 SWAP1 SWAP5 MSTORE POP POP DUP4 SLOAD PUSH1 0x1 DUP2 ADD DUP6 SSTORE SWAP4 DUP2 MSTORE PUSH1 0x20 SWAP1 DUP2 SWAP1 KECCAK256 DUP4 MLOAD DUP1 MLOAD SWAP5 SWAP6 PUSH1 0x3 MUL SWAP1 SWAP2 ADD SWAP4 PUSH2 0x26FD SWAP4 POP DUP5 SWAP3 SWAP2 SWAP1 SWAP2 ADD SWAP1 PUSH2 0x327D JUMP JUMPDEST POP PUSH1 0x20 DUP3 DUP2 ADD MLOAD DUP1 MLOAD PUSH2 0x2716 SWAP3 PUSH1 0x1 DUP6 ADD SWAP3 ADD SWAP1 PUSH2 0x32DE JUMP JUMPDEST POP PUSH1 0x40 DUP3 ADD MLOAD DUP1 MLOAD PUSH2 0x2732 SWAP2 PUSH1 0x2 DUP5 ADD SWAP2 PUSH1 0x20 SWAP1 SWAP2 ADD SWAP1 PUSH2 0x337F JUMP JUMPDEST POP POP POP PUSH1 0x64 PUSH1 0xFF DUP6 AND GT ISZERO PUSH2 0x2799 JUMPI PUSH1 0x40 MLOAD PUSH3 0x461BCD PUSH1 0xE5 SHL DUP2 MSTORE PUSH1 0x20 PUSH1 0x4 DUP3 ADD MSTORE PUSH1 0x27 PUSH1 0x24 DUP3 ADD MSTORE PUSH32 0x50524556494F5553204143435552414359204E4F54204245545745454E203020 PUSH1 0x44 DUP3 ADD MSTORE PUSH7 0x414E442031303 PUSH1 0xCC SHL PUSH1 0x64 DUP3 ADD MSTORE PUSH1 0x84 ADD PUSH2 0x8AA JUMP JUMPDEST PUSH1 0x1 DUP1 SLOAD PUSH1 0xFF SWAP1 DUP2 AND PUSH1 0x0 SWAP1 DUP2 MSTORE PUSH1 0x16 PUSH1 0x20 SWAP1 DUP2 MSTORE PUSH1 0x40 DUP1 DUP4 KECCAK256 CALLER DUP1 DUP6 MSTORE SWAP1 DUP4 MSTORE DUP2 DUP5 KECCAK256 DUP1 SLOAD PUSH1 0xFF NOT AND DUP12 DUP8 AND OR SWAP1 SSTORE SWAP5 SLOAD SWAP1 SWAP4 AND DUP3 MSTORE PUSH1 0x17 DUP2 MSTORE DUP3 DUP3 KECCAK256 SWAP4 DUP3 MSTORE SWAP3 SWAP1 SWAP3 MSTORE DUP2 KECCAK256 DUP5 SWAP1 SSTORE JUMPDEST DUP3 MLOAD DUP2 LT ISZERO PUSH2 0x283B JUMPI PUSH2 0x2829 DUP4 DUP3 DUP2 MLOAD DUP2 LT PUSH2 0x2802 JUMPI PUSH2 0x2802 PUSH2 0x37F7 JUMP JUMPDEST PUSH1 0x20 MUL PUSH1 0x20 ADD ADD MLOAD DUP4 DUP4 DUP2 MLOAD DUP2 LT PUSH2 0x281C JUMPI PUSH2 0x281C PUSH2 0x37F7 JUMP JUMPDEST PUSH1 0x20 MUL PUSH1 0x20 ADD ADD MLOAD PUSH2 0x1D20 JUMP JUMPDEST DUP1 PUSH2 0x2833 DUP2 PUSH2 0x380D JUMP JUMPDEST SWAP2 POP POP PUSH2 0x27E4 JUMP JUMPDEST POP POP POP POP POP POP POP POP POP POP POP JUMP JUMPDEST PUSH1 0x60 DUP1 PUSH1 0x0 DUP1 DUP6 PUSH1 0x34 DUP7 DIV PUSH1 0x40 MLOAD SWAP6 POP PUSH1 0x20 DUP2 MUL PUSH1 0x20 ADD DUP7 ADD PUSH1 0x40 MSTORE DUP1 DUP7 MSTORE PUSH1 0x0 JUMPDEST DUP2 DUP2 LT ISZERO PUSH2 0x2892 JUMPI DUP3 CALLDATALOAD PUSH1 0x60 SHR PUSH1 0x20 DUP3 DUP2 MUL DUP10 ADD ADD DUP2 SWAP1 MSTORE SWAP5 POP PUSH1 0x14 SWAP1 SWAP3 ADD SWAP2 PUSH1 0x1 ADD PUSH2 0x286A JUMP JUMPDEST POP PUSH1 0x40 MLOAD SWAP5 POP PUSH1 0x20 DUP2 MUL PUSH1 0x20 ADD DUP6 ADD PUSH1 0x40 MSTORE DUP1 DUP6 MSTORE PUSH1 0x0 SWAP4 POP JUMPDEST DUP1 DUP5 LT ISZERO PUSH2 0x28D4 JUMPI DUP2 CALLDATALOAD SWAP3 POP DUP3 PUSH1 0x20 DUP6 MUL PUSH1 0x20 DUP8 ADD ADD MSTORE PUSH1 0x20 DUP3 ADD SWAP2 POP PUSH1 0x1 DUP5 ADD SWAP4 POP PUSH2 0x28AC JUMP JUMPDEST POP POP POP POP PUSH1 0x0 JUMPDEST DUP3 MLOAD DUP2 LT ISZERO PUSH2 0x290B JUMPI PUSH2 0x28F9 DUP4 DUP3 DUP2 MLOAD DUP2 LT PUSH2 0x2802 JUMPI PUSH2 0x2802 PUSH2 0x37F7 JUMP JUMPDEST DUP1 PUSH2 0x2903 DUP2 PUSH2 0x380D JUMP JUMPDEST SWAP2 POP POP PUSH2 0x28DB JUMP JUMPDEST POP POP POP POP POP JUMP JUMPDEST PUSH1 0x0 DUP1 DUP1 JUMPDEST PUSH1 0xD SLOAD DUP2 LT ISZERO PUSH2 0x2988 JUMPI PUSH1 0x0 PUSH1 0xF PUSH1 0x0 PUSH1 0xD DUP5 DUP2 SLOAD DUP2 LT PUSH2 0x293A JUMPI PUSH2 0x293A PUSH2 0x37F7 JUMP JUMPDEST PUSH1 0x0 SWAP2 DUP3 MSTORE PUSH1 0x20 DUP1 DUP4 KECCAK256 SWAP1 SWAP2 ADD SLOAD PUSH1 0x1 PUSH1 0x1 PUSH1 0xA0 SHL SUB AND DUP4 MSTORE DUP3 ADD SWAP3 SWAP1 SWAP3 MSTORE PUSH1 0x40 ADD SWAP1 KECCAK256 PUSH1 0x2 ADD SLOAD SLT ISZERO PUSH2 0x2976 JUMPI DUP2 PUSH2 0x2972 DUP2 PUSH2 0x380D JUMP JUMPDEST SWAP3 POP POP JUMPDEST DUP1 PUSH2 0x2980 DUP2 PUSH2 0x380D JUMP JUMPDEST SWAP2 POP POP PUSH2 0x2917 JUMP JUMPDEST POP PUSH1 0x1 SLOAD PUSH1 0xFF AND PUSH1 0x0 SWAP1 DUP2 MSTORE PUSH1 0x15 PUSH1 0x20 MSTORE PUSH1 0x40 SWAP1 KECCAK256 SLOAD DUP2 GT ISZERO PUSH2 0x29AD JUMPI PUSH1 0x0 SWAP2 POP POP SWAP1 JUMP JUMPDEST PUSH1 0x1 SWAP2 POP POP SWAP1 JUMP JUMPDEST PUSH1 0x0 PUSH1 0x2 SLOAD PUSH1 0x0 EQ ISZERO PUSH2 0x29C8 JUMPI POP PUSH1 0x0 SWAP1 JUMP JUMPDEST PUSH1 0x0 JUMPDEST PUSH1 0xD SLOAD DUP2 LT ISZERO PUSH2 0x2A6A JUMPI PUSH1 0x0 PUSH1 0xF PUSH1 0x0 PUSH1 0xD DUP5 DUP2 SLOAD DUP2 LT PUSH2 0x29EE JUMPI PUSH2 0x29EE PUSH2 0x37F7 JUMP JUMPDEST PUSH1 0x0 SWAP2 DUP3 MSTORE PUSH1 0x20 DUP1 DUP4 KECCAK256 SWAP1 SWAP2 ADD SLOAD PUSH1 0x1 PUSH1 0x1 PUSH1 0xA0 SHL SUB AND DUP4 MSTORE DUP3 ADD SWAP3 SWAP1 SWAP3 MSTORE PUSH1 0x40 ADD SWAP1 KECCAK256 PUSH1 0x3 DUP2 ADD SLOAD SWAP1 SWAP2 POP PUSH1 0xFF PUSH1 0x1 PUSH1 0xB8 SHL SWAP1 SWAP2 DIV AND ISZERO PUSH2 0x2A57 JUMPI PUSH1 0x1 PUSH1 0x2 SLOAD PUSH2 0x2A39 SWAP2 SWAP1 PUSH2 0x3828 JUMP JUMPDEST PUSH1 0x3 DUP3 ADD SLOAD PUSH1 0x1 PUSH1 0xA8 SHL SWAP1 DIV PUSH1 0xFF AND LT ISZERO PUSH2 0x2A57 JUMPI PUSH1 0x0 SWAP3 POP POP POP SWAP1 JUMP JUMPDEST POP DUP1 PUSH2 0x2A62 DUP2 PUSH2 0x380D JUMP JUMPDEST SWAP2 POP POP PUSH2 0x29CB JUMP JUMPDEST POP PUSH1 0x1 SWAP1 POP SWAP1 JUMP JUMPDEST CALLER PUSH1 0x0 SWAP1 DUP2 MSTORE PUSH1 0xF PUSH1 0x20 MSTORE PUSH1 0x40 SWAP1 KECCAK256 PUSH1 0x3 ADD SLOAD PUSH1 0x1 PUSH1 0xB8 SHL SWAP1 DIV PUSH1 0xFF AND PUSH2 0x2AD1 JUMPI PUSH1 0x40 MLOAD PUSH3 0x461BCD PUSH1 0xE5 SHL DUP2 MSTORE PUSH1 0x20 PUSH1 0x4 DUP3 ADD MSTORE PUSH1 0x13 PUSH1 0x24 DUP3 ADD MSTORE PUSH19 0x155CD95C881B9BDD081C9959DA5CDD195C9959 PUSH1 0x6A SHL PUSH1 0x44 DUP3 ADD MSTORE PUSH1 0x64 ADD PUSH2 0x8AA JUMP JUMPDEST PUSH1 0x1 SLOAD PUSH1 0xFF AND PUSH1 0x0 SWAP1 DUP2 MSTORE PUSH1 0x14 PUSH1 0x20 SWAP1 DUP2 MSTORE PUSH1 0x40 DUP1 DUP4 KECCAK256 CALLER DUP5 MSTORE SWAP1 SWAP2 MSTORE SWAP1 KECCAK256 SLOAD ISZERO PUSH2 0x2B3E JUMPI PUSH1 0x40 MLOAD PUSH3 0x461BCD PUSH1 0xE5 SHL DUP2 MSTORE PUSH1 0x20 PUSH1 0x4 DUP3 ADD MSTORE PUSH1 0x17 PUSH1 0x24 DUP3 ADD MSTORE PUSH32 0x53636F726520616C7265616479207375626D6974746564000000000000000000 PUSH1 0x44 DUP3 ADD MSTORE PUSH1 0x64 ADD PUSH2 0x8AA JUMP JUMPDEST PUSH1 0x1 DUP1 SLOAD PUSH1 0xFF SWAP1 DUP2 AND PUSH1 0x0 SWAP1 DUP2 MSTORE PUSH1 0x14 PUSH1 0x20 SWAP1 DUP2 MSTORE PUSH1 0x40 DUP1 DUP4 KECCAK256 CALLER DUP5 MSTORE DUP3 MSTORE DUP1 DUP4 KECCAK256 DUP7 SWAP1 SSTORE DUP5 SLOAD SWAP1 SWAP4 AND DUP3 MSTORE PUSH1 0x15 SWAP1 MSTORE SWAP1 DUP2 KECCAK256 DUP1 SLOAD SWAP1 SWAP2 SWAP1 PUSH2 0x2B81 SWAP1 DUP5 SWAP1 PUSH2 0x37DF JUMP JUMPDEST SWAP1 SWAP2 SSTORE POP POP PUSH1 0x40 MLOAD DUP2 DUP2 MSTORE CALLER SWAP1 PUSH32 0x20E6C7C82A3C0A8203EFCA055FC9A664CA649345957DDC3BA34B2912E9ED8373 SWAP1 PUSH1 0x20 ADD PUSH1 0x40 MLOAD DUP1 SWAP2 SUB SWAP1 LOG2 POP JUMP JUMPDEST CALLER PUSH1 0x0 SWAP1 DUP2 MSTORE PUSH1 0xF PUSH1 0x20 MSTORE PUSH1 0x40 SWAP1 KECCAK256 PUSH1 0x3 ADD SLOAD PUSH1 0x1 PUSH1 0xB8 SHL SWAP1 DIV PUSH1 0xFF AND PUSH2 0x2BF7 JUMPI PUSH1 0x40 MLOAD PUSH3 0x461BCD PUSH1 0xE5 SHL DUP2 MSTORE PUSH1 0x4 ADD PUSH2 0x8AA SWAP1 PUSH2 0x37AC JUMP JUMPDEST CALLER PUSH1 0x0 SWAP1 DUP2 MSTORE PUSH1 0x13 PUSH1 0x20 SWAP1 DUP2 MSTORE PUSH1 0x40 DUP1 DUP4 KECCAK256 PUSH1 0x1 SLOAD PUSH1 0xFF AND DUP5 MSTORE SWAP1 SWAP2 MSTORE SWAP1 KECCAK256 SLOAD ISZERO PUSH2 0x2C4A JUMPI PUSH1 0x40 MLOAD PUSH3 0x461BCD PUSH1 0xE5 SHL DUP2 MSTORE PUSH1 0x20 PUSH1 0x4 DUP3 ADD MSTORE PUSH1 0x3 PUSH1 0x24 DUP3 ADD MSTORE PUSH3 0x53415 PUSH1 0xEC SHL PUSH1 0x44 DUP3 ADD MSTORE PUSH1 0x64 ADD PUSH2 0x8AA JUMP JUMPDEST CALLER PUSH1 0x0 SWAP1 DUP2 MSTORE PUSH1 0x12 PUSH1 0x20 SWAP1 DUP2 MSTORE PUSH1 0x40 DUP1 DUP4 KECCAK256 PUSH1 0x1 SLOAD PUSH1 0xFF AND DUP5 MSTORE SWAP1 SWAP2 MSTORE SWAP1 KECCAK256 SSTORE JUMP JUMPDEST PUSH1 0x60 DUP1 PUSH1 0x60 PUSH1 0x0 DUP1 JUMPDEST PUSH1 0xD SLOAD DUP2 LT ISZERO PUSH2 0x2DF7 JUMPI PUSH1 0x0 PUSH1 0xD DUP3 DUP2 SLOAD DUP2 LT PUSH2 0x2C94 JUMPI PUSH2 0x2C94 PUSH2 0x37F7 JUMP JUMPDEST PUSH1 0x0 SWAP2 DUP3 MSTORE PUSH1 0x20 DUP1 DUP4 KECCAK256 SWAP1 SWAP2 ADD SLOAD PUSH1 0x1 SLOAD PUSH1 0xFF AND DUP4 MSTORE PUSH1 0x18 DUP3 MSTORE PUSH1 0x40 DUP1 DUP5 KECCAK256 PUSH1 0x1 PUSH1 0x1 PUSH1 0xA0 SHL SUB SWAP1 SWAP3 AND DUP1 DUP6 MSTORE SWAP2 SWAP1 SWAP3 MSTORE SWAP1 DUP3 KECCAK256 SLOAD SWAP1 SWAP3 POP SWAP1 JUMPDEST DUP2 DUP2 LT ISZERO PUSH2 0x2DE1 JUMPI PUSH1 0x1 SLOAD PUSH1 0xFF AND PUSH1 0x0 SWAP1 DUP2 MSTORE PUSH1 0x18 PUSH1 0x20 SWAP1 DUP2 MSTORE PUSH1 0x40 DUP1 DUP4 KECCAK256 PUSH1 0x1 PUSH1 0x1 PUSH1 0xA0 SHL SUB DUP8 AND DUP5 MSTORE SWAP1 SWAP2 MSTORE DUP2 KECCAK256 DUP1 SLOAD DUP4 SWAP1 DUP2 LT PUSH2 0x2D10 JUMPI PUSH2 0x2D10 PUSH2 0x37F7 JUMP JUMPDEST SWAP1 PUSH1 0x0 MSTORE PUSH1 0x20 PUSH1 0x0 KECCAK256 SWAP1 PUSH1 0x3 MUL ADD SWAP1 POP PUSH1 0x0 JUMPDEST DUP2 SLOAD DUP2 LT ISZERO PUSH2 0x2DCC JUMPI DUP11 PUSH1 0x1 PUSH1 0x1 PUSH1 0xA0 SHL SUB AND DUP3 PUSH1 0x0 ADD DUP3 DUP2 SLOAD DUP2 LT PUSH2 0x2D4B JUMPI PUSH2 0x2D4B PUSH2 0x37F7 JUMP JUMPDEST PUSH1 0x0 SWAP2 DUP3 MSTORE PUSH1 0x20 SWAP1 SWAP2 KECCAK256 ADD SLOAD PUSH1 0x1 PUSH1 0x1 PUSH1 0xA0 SHL SUB AND EQ ISZERO PUSH2 0x2DBA JUMPI PUSH1 0x0 PUSH1 0xF PUSH1 0x0 PUSH1 0xD DUP10 DUP2 SLOAD DUP2 LT PUSH2 0x2D7F JUMPI PUSH2 0x2D7F PUSH2 0x37F7 JUMP JUMPDEST PUSH1 0x0 SWAP2 DUP3 MSTORE PUSH1 0x20 DUP1 DUP4 KECCAK256 SWAP1 SWAP2 ADD SLOAD PUSH1 0x1 PUSH1 0x1 PUSH1 0xA0 SHL SUB AND DUP4 MSTORE DUP3 ADD SWAP3 SWAP1 SWAP3 MSTORE PUSH1 0x40 ADD SWAP1 KECCAK256 PUSH1 0x2 ADD SLOAD SLT PUSH2 0x2DBA JUMPI DUP7 PUSH2 0x2DB6 DUP2 PUSH2 0x380D JUMP JUMPDEST SWAP8 POP POP JUMPDEST DUP1 PUSH2 0x2DC4 DUP2 PUSH2 0x380D JUMP JUMPDEST SWAP2 POP POP PUSH2 0x2D23 JUMP JUMPDEST POP POP DUP1 DUP1 PUSH2 0x2DD9 SWAP1 PUSH2 0x380D JUMP JUMPDEST SWAP2 POP POP PUSH2 0x2CCE JUMP JUMPDEST POP POP POP DUP1 DUP1 PUSH2 0x2DEF SWAP1 PUSH2 0x380D JUMP JUMPDEST SWAP2 POP POP PUSH2 0x2C75 JUMP JUMPDEST POP DUP1 PUSH8 0xFFFFFFFFFFFFFFFF DUP2 GT ISZERO PUSH2 0x2E11 JUMPI PUSH2 0x2E11 PUSH2 0x3A10 JUMP JUMPDEST PUSH1 0x40 MLOAD SWAP1 DUP1 DUP3 MSTORE DUP1 PUSH1 0x20 MUL PUSH1 0x20 ADD DUP3 ADD PUSH1 0x40 MSTORE DUP1 ISZERO PUSH2 0x2E3A JUMPI DUP2 PUSH1 0x20 ADD PUSH1 0x20 DUP3 MUL DUP1 CALLDATASIZE DUP4 CALLDATACOPY ADD SWAP1 POP JUMPDEST POP SWAP4 POP DUP1 PUSH8 0xFFFFFFFFFFFFFFFF DUP2 GT ISZERO PUSH2 0x2E56 JUMPI PUSH2 0x2E56 PUSH2 0x3A10 JUMP JUMPDEST PUSH1 0x40 MLOAD SWAP1 DUP1 DUP3 MSTORE DUP1 PUSH1 0x20 MUL PUSH1 0x20 ADD DUP3 ADD PUSH1 0x40 MSTORE DUP1 ISZERO PUSH2 0x2E7F JUMPI DUP2 PUSH1 0x20 ADD PUSH1 0x20 DUP3 MUL DUP1 CALLDATASIZE DUP4 CALLDATACOPY ADD SWAP1 POP JUMPDEST POP SWAP3 POP DUP1 PUSH8 0xFFFFFFFFFFFFFFFF DUP2 GT ISZERO PUSH2 0x2E9B JUMPI PUSH2 0x2E9B PUSH2 0x3A10 JUMP JUMPDEST PUSH1 0x40 MLOAD SWAP1 DUP1 DUP3 MSTORE DUP1 PUSH1 0x20 MUL PUSH1 0x20 ADD DUP3 ADD PUSH1 0x40 MSTORE DUP1 ISZERO PUSH2 0x2EC4 JUMPI DUP2 PUSH1 0x20 ADD PUSH1 0x20 DUP3 MUL DUP1 CALLDATASIZE DUP4 CALLDATACOPY ADD SWAP1 POP JUMPDEST POP SWAP2 POP PUSH1 0x0 DUP1 JUMPDEST PUSH1 0xD SLOAD DUP2 LT ISZERO PUSH2 0x310B JUMPI PUSH1 0x0 PUSH1 0xF PUSH1 0x0 PUSH1 0xD DUP5 DUP2 SLOAD DUP2 LT PUSH2 0x2EEE JUMPI PUSH2 0x2EEE PUSH2 0x37F7 JUMP JUMPDEST PUSH1 0x0 SWAP2 DUP3 MSTORE PUSH1 0x20 DUP1 DUP4 KECCAK256 SWAP1 SWAP2 ADD SLOAD PUSH1 0x1 PUSH1 0x1 PUSH1 0xA0 SHL SUB SWAP1 DUP2 AND DUP5 MSTORE DUP4 DUP3 ADD SWAP5 SWAP1 SWAP5 MSTORE PUSH1 0x40 SWAP3 DUP4 ADD DUP3 KECCAK256 PUSH1 0x1 SLOAD PUSH1 0xFF AND DUP4 MSTORE PUSH1 0x18 DUP3 MSTORE DUP4 DUP4 KECCAK256 PUSH1 0x3 DUP3 ADD SLOAD SWAP1 SWAP6 AND DUP4 MSTORE SWAP4 SWAP1 MSTORE SWAP1 DUP2 KECCAK256 SLOAD SWAP2 SWAP3 POP JUMPDEST DUP2 DUP2 LT ISZERO PUSH2 0x30F5 JUMPI PUSH1 0x1 SLOAD PUSH1 0xFF AND PUSH1 0x0 SWAP1 DUP2 MSTORE PUSH1 0x18 PUSH1 0x20 SWAP1 DUP2 MSTORE PUSH1 0x40 DUP1 DUP4 KECCAK256 PUSH1 0x3 DUP8 ADD SLOAD PUSH1 0x1 PUSH1 0x1 PUSH1 0xA0 SHL SUB AND DUP5 MSTORE SWAP1 SWAP2 MSTORE DUP2 KECCAK256 DUP1 SLOAD DUP4 SWAP1 DUP2 LT PUSH2 0x2F81 JUMPI PUSH2 0x2F81 PUSH2 0x37F7 JUMP JUMPDEST SWAP1 PUSH1 0x0 MSTORE PUSH1 0x20 PUSH1 0x0 KECCAK256 SWAP1 PUSH1 0x3 MUL ADD SWAP1 POP PUSH1 0x0 JUMPDEST DUP2 SLOAD DUP2 LT ISZERO PUSH2 0x30E0 JUMPI DUP12 PUSH1 0x1 PUSH1 0x1 PUSH1 0xA0 SHL SUB AND DUP3 PUSH1 0x0 ADD DUP3 DUP2 SLOAD DUP2 LT PUSH2 0x2FBC JUMPI PUSH2 0x2FBC PUSH2 0x37F7 JUMP JUMPDEST PUSH1 0x0 SWAP2 DUP3 MSTORE PUSH1 0x20 SWAP1 SWAP2 KECCAK256 ADD SLOAD PUSH1 0x1 PUSH1 0x1 PUSH1 0xA0 SHL SUB AND EQ ISZERO PUSH2 0x30CE JUMPI PUSH1 0x0 DUP6 PUSH1 0x2 ADD SLOAD SLT PUSH2 0x30CE JUMPI PUSH1 0x3 DUP6 ADD SLOAD DUP12 MLOAD PUSH1 0x1 PUSH1 0x1 PUSH1 0xA0 SHL SUB SWAP1 SWAP2 AND SWAP1 DUP13 SWAP1 DUP10 SWAP1 DUP2 LT PUSH2 0x3008 JUMPI PUSH2 0x3008 PUSH2 0x37F7 JUMP JUMPDEST PUSH1 0x20 MUL PUSH1 0x20 ADD ADD SWAP1 PUSH1 0x1 PUSH1 0x1 PUSH1 0xA0 SHL SUB AND SWAP1 DUP2 PUSH1 0x1 PUSH1 0x1 PUSH1 0xA0 SHL SUB AND DUP2 MSTORE POP POP DUP2 PUSH1 0x1 ADD DUP2 DUP2 SLOAD DUP2 LT PUSH2 0x303D JUMPI PUSH2 0x303D PUSH2 0x37F7 JUMP JUMPDEST SWAP1 PUSH1 0x0 MSTORE PUSH1 0x20 PUSH1 0x0 KECCAK256 SWAP1 PUSH1 0x20 SWAP2 DUP3 DUP3 DIV ADD SWAP2 SWAP1 MOD SWAP1 SLOAD SWAP1 PUSH2 0x100 EXP SWAP1 DIV PUSH1 0xFF AND DUP11 DUP9 DUP2 MLOAD DUP2 LT PUSH2 0x306F JUMPI PUSH2 0x306F PUSH2 0x37F7 JUMP JUMPDEST PUSH1 0x20 MUL PUSH1 0x20 ADD ADD SWAP1 PUSH1 0xFF AND SWAP1 DUP2 PUSH1 0xFF AND DUP2 MSTORE POP POP DUP2 PUSH1 0x2 ADD DUP2 DUP2 SLOAD DUP2 LT PUSH2 0x3098 JUMPI PUSH2 0x3098 PUSH2 0x37F7 JUMP JUMPDEST SWAP1 PUSH1 0x0 MSTORE PUSH1 0x20 PUSH1 0x0 KECCAK256 ADD SLOAD DUP10 DUP9 DUP2 MLOAD DUP2 LT PUSH2 0x30B5 JUMPI PUSH2 0x30B5 PUSH2 0x37F7 JUMP JUMPDEST PUSH1 0x20 SWAP1 DUP2 MUL SWAP2 SWAP1 SWAP2 ADD ADD MSTORE DUP7 PUSH2 0x30CA DUP2 PUSH2 0x380D JUMP JUMPDEST SWAP8 POP POP JUMPDEST DUP1 PUSH2 0x30D8 DUP2 PUSH2 0x380D JUMP JUMPDEST SWAP2 POP POP PUSH2 0x2F94 JUMP JUMPDEST POP POP DUP1 DUP1 PUSH2 0x30ED SWAP1 PUSH2 0x380D JUMP JUMPDEST SWAP2 POP POP PUSH2 0x2F3B JUMP JUMPDEST POP POP POP DUP1 DUP1 PUSH2 0x3103 SWAP1 PUSH2 0x380D JUMP JUMPDEST SWAP2 POP POP PUSH2 0x2ECB JUMP JUMPDEST POP POP POP SWAP2 SWAP4 SWAP1 SWAP3 POP JUMP JUMPDEST PUSH1 0x0 DUP1 DUP3 SLT PUSH2 0x3122 JUMPI POP SWAP1 JUMP JUMPDEST PUSH1 0x1 PUSH1 0xFF SHL DUP3 EQ ISZERO PUSH2 0x3146 JUMPI PUSH2 0x3140 PUSH1 0x1 PUSH1 0x1 PUSH1 0xFF SHL SUB PUSH1 0x1 PUSH2 0x37DF JUMP JUMPDEST SWAP3 SWAP2 POP POP JUMP JUMPDEST PUSH2 0x3140 DUP3 PUSH2 0x3908 JUMP JUMPDEST PUSH1 0x0 DUP1 DUP3 SGT PUSH2 0x315F JUMPI PUSH1 0x0 PUSH2 0x3140 JUMP JUMPDEST POP SWAP1 JUMP JUMPDEST PUSH1 0x1 PUSH1 0x1 PUSH1 0xA0 SHL SUB DUP2 AND PUSH1 0x0 SWAP1 DUP2 MSTORE PUSH1 0xF PUSH1 0x20 MSTORE PUSH1 0x40 DUP2 KECCAK256 PUSH1 0x3 DUP2 ADD DUP1 SLOAD PUSH1 0xFF PUSH1 0xB8 SHL NOT AND PUSH1 0x1 PUSH1 0xB8 SHL OR SWAP1 SSTORE CALLVALUE PUSH1 0x1 SWAP2 DUP3 ADD SSTORE PUSH1 0x2 DUP1 SLOAD SWAP2 SWAP3 SWAP1 SWAP2 PUSH2 0x31AA SWAP1 DUP5 SWAP1 PUSH2 0x37DF JUMP JUMPDEST SWAP1 SWAP2 SSTORE POP POP PUSH1 0xD DUP1 SLOAD PUSH1 0x1 DUP2 ADD SWAP1 SWAP2 SSTORE PUSH32 0xD7B6990105719101DABEB77144F2A3385C8033ACD3AF97E9423A695E81AD1EB5 ADD DUP1 SLOAD PUSH1 0x1 PUSH1 0x1 PUSH1 0xA0 SHL SUB DUP4 AND PUSH1 0x1 PUSH1 0x1 PUSH1 0xA0 SHL SUB NOT SWAP1 SWAP2 AND DUP2 OR SWAP1 SWAP2 SSTORE PUSH1 0x0 SWAP1 DUP2 MSTORE PUSH1 0xF PUSH1 0x20 MSTORE PUSH1 0x40 SWAP1 DUP2 SWAP1 KECCAK256 PUSH1 0x3 ADD DUP1 SLOAD PUSH1 0xFF PUSH1 0xA0 SHL NOT AND PUSH1 0x1 PUSH1 0xA0 SHL OR SWAP1 SSTORE PUSH1 0x2 SLOAD SWAP1 MLOAD PUSH32 0xABE5B1202D1F4ED2C1BACCF335320CEAE3ABD90670864B741E80A2EF5671D882 SWAP2 PUSH2 0x3254 SWAP2 DUP5 SWAP2 CALLVALUE SWAP2 SELFBALANCE SWAP2 SWAP1 PUSH2 0x38C3 JUMP JUMPDEST PUSH1 0x40 MLOAD DUP1 SWAP2 SUB SWAP1 LOG1 POP JUMP JUMPDEST POP DUP1 SLOAD PUSH1 0x0 DUP3 SSTORE SWAP1 PUSH1 0x0 MSTORE PUSH1 0x20 PUSH1 0x0 KECCAK256 SWAP1 DUP2 ADD SWAP1 PUSH2 0x212E SWAP2 SWAP1 PUSH2 0x33BA JUMP JUMPDEST DUP3 DUP1 SLOAD DUP3 DUP3 SSTORE SWAP1 PUSH1 0x0 MSTORE PUSH1 0x20 PUSH1 0x0 KECCAK256 SWAP1 DUP2 ADD SWAP3 DUP3 ISZERO PUSH2 0x32D2 JUMPI SWAP2 PUSH1 0x20 MUL DUP3 ADD JUMPDEST DUP3 DUP2 GT ISZERO PUSH2 0x32D2 JUMPI DUP3 MLOAD DUP3 SLOAD PUSH1 0x1 PUSH1 0x1 PUSH1 0xA0 SHL SUB NOT AND PUSH1 0x1 PUSH1 0x1 PUSH1 0xA0 SHL SUB SWAP1 SWAP2 AND OR DUP3 SSTORE PUSH1 0x20 SWAP1 SWAP3 ADD SWAP2 PUSH1 0x1 SWAP1 SWAP2 ADD SWAP1 PUSH2 0x329D JUMP JUMPDEST POP PUSH2 0x315F SWAP3 SWAP2 POP PUSH2 0x33BA JUMP JUMPDEST DUP3 DUP1 SLOAD DUP3 DUP3 SSTORE SWAP1 PUSH1 0x0 MSTORE PUSH1 0x20 PUSH1 0x0 KECCAK256 SWAP1 PUSH1 0x1F ADD PUSH1 0x20 SWAP1 DIV DUP2 ADD SWAP3 DUP3 ISZERO PUSH2 0x32D2 JUMPI SWAP2 PUSH1 0x20 MUL DUP3 ADD PUSH1 0x0 JUMPDEST DUP4 DUP3 GT ISZERO PUSH2 0x3345 JUMPI DUP4 MLOAD DUP4 DUP3 PUSH2 0x100 EXP DUP2 SLOAD DUP2 PUSH1 0xFF MUL NOT AND SWAP1 DUP4 PUSH1 0xFF AND MUL OR SWAP1 SSTORE POP SWAP3 PUSH1 0x20 ADD SWAP3 PUSH1 0x1 ADD PUSH1 0x20 DUP2 PUSH1 0x0 ADD DIV SWAP3 DUP4 ADD SWAP3 PUSH1 0x1 SUB MUL PUSH2 0x3307 JUMP JUMPDEST DUP1 ISZERO PUSH2 0x3372 JUMPI DUP3 DUP2 PUSH2 0x100 EXP DUP2 SLOAD SWAP1 PUSH1 0xFF MUL NOT AND SWAP1 SSTORE PUSH1 0x1 ADD PUSH1 0x20 DUP2 PUSH1 0x0 ADD DIV SWAP3 DUP4 ADD SWAP3 PUSH1 0x1 SUB MUL PUSH2 0x3345 JUMP JUMPDEST POP POP PUSH2 0x315F SWAP3 SWAP2 POP PUSH2 0x33BA JUMP JUMPDEST DUP3 DUP1 SLOAD DUP3 DUP3 SSTORE SWAP1 PUSH1 0x0 MSTORE PUSH1 0x20 PUSH1 0x0 KECCAK256 SWAP1 DUP2 ADD SWAP3 DUP3 ISZERO PUSH2 0x32D2 JUMPI SWAP2 PUSH1 0x20 MUL DUP3 ADD JUMPDEST DUP3 DUP2 GT ISZERO PUSH2 0x32D2 JUMPI DUP3 MLOAD DUP3 SSTORE SWAP2 PUSH1 0x20 ADD SWAP2 SWAP1 PUSH1 0x1 ADD SWAP1 PUSH2 0x339F JUMP JUMPDEST JUMPDEST DUP1 DUP3 GT ISZERO PUSH2 0x315F JUMPI PUSH1 0x0 DUP2 SSTORE PUSH1 0x1 ADD PUSH2 0x33BB JUMP JUMPDEST DUP1 CALLDATALOAD PUSH1 0x1 PUSH1 0x1 PUSH1 0xA0 SHL SUB DUP2 AND DUP2 EQ PUSH2 0x33E6 JUMPI PUSH1 0x0 DUP1 REVERT JUMPDEST SWAP2 SWAP1 POP JUMP JUMPDEST DUP1 CALLDATALOAD PUSH1 0xFF DUP2 AND DUP2 EQ PUSH2 0x33E6 JUMPI PUSH1 0x0 DUP1 REVERT JUMPDEST PUSH1 0x0 DUP1 PUSH1 0x40 DUP4 DUP6 SUB SLT ISZERO PUSH2 0x340F JUMPI PUSH1 0x0 DUP1 REVERT JUMPDEST PUSH2 0x3418 DUP4 PUSH2 0x33CF JUMP JUMPDEST SWAP2 POP PUSH2 0x3426 PUSH1 0x20 DUP5 ADD PUSH2 0x33EB JUMP JUMPDEST SWAP1 POP SWAP3 POP SWAP3 SWAP1 POP JUMP JUMPDEST PUSH1 0x0 PUSH1 0x20 DUP3 DUP5 SUB SLT ISZERO PUSH2 0x3441 JUMPI PUSH1 0x0 DUP1 REVERT JUMPDEST POP CALLDATALOAD SWAP2 SWAP1 POP JUMP JUMPDEST PUSH1 0x0 DUP1 PUSH1 0x40 DUP4 DUP6 SUB SLT ISZERO PUSH2 0x345B JUMPI PUSH1 0x0 DUP1 REVERT JUMPDEST PUSH2 0x3464 DUP4 PUSH2 0x33CF JUMP JUMPDEST SWAP5 PUSH1 0x20 SWAP4 SWAP1 SWAP4 ADD CALLDATALOAD SWAP4 POP POP POP JUMP JUMPDEST PUSH1 0x0 PUSH1 0x20 DUP3 DUP5 SUB SLT ISZERO PUSH2 0x3484 JUMPI PUSH1 0x0 DUP1 REVERT JUMPDEST PUSH2 0x348D DUP3 PUSH2 0x33CF JUMP JUMPDEST SWAP4 SWAP3 POP POP POP JUMP JUMPDEST PUSH1 0x0 DUP1 PUSH1 0x40 DUP4 DUP6 SUB SLT ISZERO PUSH2 0x34A7 JUMPI PUSH1 0x0 DUP1 REVERT JUMPDEST PUSH2 0x34B0 DUP4 PUSH2 0x33CF JUMP JUMPDEST SWAP2 POP PUSH2 0x3426 PUSH1 0x20 DUP5 ADD PUSH2 0x33CF JUMP JUMPDEST PUSH1 0x0 PUSH1 0x20 DUP3 DUP5 SUB SLT ISZERO PUSH2 0x34D0 JUMPI PUSH1 0x0 DUP1 REVERT JUMPDEST PUSH2 0x348D DUP3 PUSH2 0x33EB JUMP JUMPDEST PUSH1 0x0 DUP1 PUSH1 0x40 DUP4 DUP6 SUB SLT ISZERO PUSH2 0x34EC JUMPI PUSH1 0x0 DUP1 REVERT JUMPDEST POP POP DUP1 CALLDATALOAD SWAP3 PUSH1 0x20 SWAP1 SWAP2 ADD CALLDATALOAD SWAP2 POP JUMP JUMPDEST PUSH1 0x0 DUP1 PUSH1 0x40 DUP4 DUP6 SUB SLT ISZERO PUSH2 0x350E JUMPI PUSH1 0x0 DUP1 REVERT JUMPDEST PUSH2 0x34B0 DUP4 PUSH2 0x33EB JUMP JUMPDEST PUSH1 0x0 DUP2 MLOAD DUP1 DUP5 MSTORE PUSH1 0x20 DUP1 DUP6 ADD SWAP5 POP DUP1 DUP5 ADD PUSH1 0x0 JUMPDEST DUP4 DUP2 LT ISZERO PUSH2 0x354A JUMPI DUP2 MLOAD PUSH1 0xFF AND DUP8 MSTORE SWAP6 DUP3 ADD SWAP6 SWAP1 DUP3 ADD SWAP1 PUSH1 0x1 ADD PUSH2 0x352B JUMP JUMPDEST POP SWAP5 SWAP6 SWAP5 POP POP POP POP POP JUMP JUMPDEST PUSH1 0x0 DUP2 MLOAD DUP1 DUP5 MSTORE PUSH1 0x20 DUP1 DUP6 ADD SWAP5 POP DUP1 DUP5 ADD PUSH1 0x0 JUMPDEST DUP4 DUP2 LT ISZERO PUSH2 0x354A JUMPI DUP2 MLOAD DUP8 MSTORE SWAP6 DUP3 ADD SWAP6 SWAP1 DUP3 ADD SWAP1 PUSH1 0x1 ADD PUSH2 0x3569 JUMP JUMPDEST PUSH1 0x40 DUP2 MSTORE PUSH1 0x0 PUSH2 0x3598 PUSH1 0x40 DUP4 ADD DUP6 PUSH2 0x3517 JUMP JUMPDEST DUP3 DUP2 SUB PUSH1 0x20 DUP5 ADD MSTORE PUSH2 0x35AA DUP2 DUP6 PUSH2 0x3555 JUMP JUMPDEST SWAP6 SWAP5 POP POP POP POP POP JUMP JUMPDEST PUSH1 0x0 DUP1 DUP4 PUSH1 0x1F DUP5 ADD SLT PUSH2 0x35C5 JUMPI PUSH1 0x0 DUP1 REVERT JUMPDEST POP DUP2 CALLDATALOAD PUSH8 0xFFFFFFFFFFFFFFFF DUP2 GT ISZERO PUSH2 0x35DD JUMPI PUSH1 0x0 DUP1 REVERT JUMPDEST PUSH1 0x20 DUP4 ADD SWAP2 POP DUP4 PUSH1 0x20 DUP3 DUP6 ADD ADD GT ISZERO PUSH2 0x35F5 JUMPI PUSH1 0x0 DUP1 REVERT JUMPDEST SWAP3 POP SWAP3 SWAP1 POP JUMP JUMPDEST PUSH1 0x0 DUP1 DUP4 PUSH1 0x1F DUP5 ADD SLT PUSH2 0x360E JUMPI PUSH1 0x0 DUP1 REVERT JUMPDEST POP DUP2 CALLDATALOAD PUSH8 0xFFFFFFFFFFFFFFFF DUP2 GT ISZERO PUSH2 0x3626 JUMPI PUSH1 0x0 DUP1 REVERT JUMPDEST PUSH1 0x20 DUP4 ADD SWAP2 POP DUP4 PUSH1 0x20 DUP3 PUSH1 0x5 SHL DUP6 ADD ADD GT ISZERO PUSH2 0x35F5 JUMPI PUSH1 0x0 DUP1 REVERT JUMPDEST PUSH1 0x0 DUP1 PUSH1 0x0 DUP1 PUSH1 0x0 DUP1 PUSH1 0x0 DUP1 PUSH1 0xA0 DUP10 DUP12 SUB SLT ISZERO PUSH2 0x365D JUMPI PUSH1 0x0 DUP1 REVERT JUMPDEST DUP9 CALLDATALOAD PUSH8 0xFFFFFFFFFFFFFFFF DUP1 DUP3 GT ISZERO PUSH2 0x3675 JUMPI PUSH1 0x0 DUP1 REVERT JUMPDEST PUSH2 0x3681 DUP13 DUP4 DUP14 ADD PUSH2 0x35B3 JUMP JUMPDEST SWAP1 SWAP11 POP SWAP9 POP PUSH1 0x20 DUP12 ADD CALLDATALOAD SWAP2 POP DUP1 DUP3 GT ISZERO PUSH2 0x369A JUMPI PUSH1 0x0 DUP1 REVERT JUMPDEST PUSH2 0x36A6 DUP13 DUP4 DUP14 ADD PUSH2 0x35FC JUMP JUMPDEST SWAP1 SWAP9 POP SWAP7 POP PUSH1 0x40 DUP12 ADD CALLDATALOAD SWAP2 POP DUP1 DUP3 GT ISZERO PUSH2 0x36BF JUMPI PUSH1 0x0 DUP1 REVERT JUMPDEST POP PUSH2 0x36CC DUP12 DUP3 DUP13 ADD PUSH2 0x35FC JUMP JUMPDEST SWAP1 SWAP6 POP SWAP4 POP PUSH2 0x36DF SWAP1 POP PUSH1 0x60 DUP11 ADD PUSH2 0x33EB JUMP JUMPDEST SWAP2 POP PUSH1 0x80 DUP10 ADD CALLDATALOAD SWAP1 POP SWAP3 SWAP6 SWAP9 POP SWAP3 SWAP6 SWAP9 SWAP1 SWAP4 SWAP7 POP JUMP JUMPDEST PUSH1 0x0 DUP1 PUSH1 0x20 DUP4 DUP6 SUB SLT ISZERO PUSH2 0x3708 JUMPI PUSH1 0x0 DUP1 REVERT JUMPDEST DUP3 CALLDATALOAD PUSH8 0xFFFFFFFFFFFFFFFF DUP2 GT ISZERO PUSH2 0x371F JUMPI PUSH1 0x0 DUP1 REVERT JUMPDEST PUSH2 0x372B DUP6 DUP3 DUP7 ADD PUSH2 0x35B3 JUMP JUMPDEST SWAP1 SWAP7 SWAP1 SWAP6 POP SWAP4 POP POP POP POP JUMP JUMPDEST PUSH1 0x60 DUP1 DUP3 MSTORE DUP5 MLOAD SWAP1 DUP3 ADD DUP2 SWAP1 MSTORE PUSH1 0x0 SWAP1 PUSH1 0x20 SWAP1 PUSH1 0x80 DUP5 ADD SWAP1 DUP3 DUP9 ADD DUP5 JUMPDEST DUP3 DUP2 LT ISZERO PUSH2 0x3779 JUMPI DUP2 MLOAD PUSH1 0x1 PUSH1 0x1 PUSH1 0xA0 SHL SUB AND DUP5 MSTORE SWAP3 DUP5 ADD SWAP3 SWAP1 DUP5 ADD SWAP1 PUSH1 0x1 ADD PUSH2 0x3754 JUMP JUMPDEST POP POP POP DUP4 DUP2 SUB DUP3 DUP6 ADD MSTORE PUSH2 0x378D DUP2 DUP8 PUSH2 0x3517 JUMP JUMPDEST SWAP2 POP POP DUP3 DUP2 SUB PUSH1 0x40 DUP5 ADD MSTORE PUSH2 0x37A2 DUP2 DUP6 PUSH2 0x3555 JUMP JUMPDEST SWAP7 SWAP6 POP POP POP POP POP POP JUMP JUMPDEST PUSH1 0x20 DUP1 DUP3 MSTORE PUSH1 0x3 SWAP1 DUP3 ADD MSTORE PUSH3 0x29A729 PUSH1 0xE9 SHL PUSH1 0x40 DUP3 ADD MSTORE PUSH1 0x60 ADD SWAP1 JUMP JUMPDEST PUSH4 0x4E487B71 PUSH1 0xE0 SHL PUSH1 0x0 MSTORE PUSH1 0x11 PUSH1 0x4 MSTORE PUSH1 0x24 PUSH1 0x0 REVERT JUMPDEST PUSH1 0x0 DUP3 NOT DUP3 GT ISZERO PUSH2 0x37F2 JUMPI PUSH2 0x37F2 PUSH2 0x37C9 JUMP JUMPDEST POP ADD SWAP1 JUMP JUMPDEST PUSH4 0x4E487B71 PUSH1 0xE0 SHL PUSH1 0x0 MSTORE PUSH1 0x32 PUSH1 0x4 MSTORE PUSH1 0x24 PUSH1 0x0 REVERT JUMPDEST PUSH1 0x0 PUSH1 0x0 NOT DUP3 EQ ISZERO PUSH2 0x3821 JUMPI PUSH2 0x3821 PUSH2 0x37C9 JUMP JUMPDEST POP PUSH1 0x1 ADD SWAP1 JUMP JUMPDEST PUSH1 0x0 DUP3 DUP3 LT ISZERO PUSH2 0x383A JUMPI PUSH2 0x383A PUSH2 0x37C9 JUMP JUMPDEST POP SUB SWAP1 JUMP JUMPDEST PUSH1 0x0 PUSH1 0xFF DUP3 AND PUSH1 0xFF DUP5 AND DUP1 DUP3 LT ISZERO PUSH2 0x3859 JUMPI PUSH2 0x3859 PUSH2 0x37C9 JUMP JUMPDEST SWAP1 SUB SWAP4 SWAP3 POP POP POP JUMP JUMPDEST PUSH1 0x0 DUP3 PUSH2 0x387F JUMPI PUSH4 0x4E487B71 PUSH1 0xE0 SHL PUSH1 0x0 MSTORE PUSH1 0x12 PUSH1 0x4 MSTORE PUSH1 0x24 PUSH1 0x0 REVERT JUMPDEST POP DIV SWAP1 JUMP JUMPDEST PUSH1 0x0 DUP1 DUP4 SLT DUP1 ISZERO PUSH1 0x1 PUSH1 0xFF SHL DUP6 ADD DUP5 SLT AND ISZERO PUSH2 0x38A2 JUMPI PUSH2 0x38A2 PUSH2 0x37C9 JUMP JUMPDEST PUSH1 0x1 PUSH1 0x1 PUSH1 0xFF SHL SUB DUP5 ADD DUP4 SGT DUP2 AND ISZERO PUSH2 0x38BD JUMPI PUSH2 0x38BD PUSH2 0x37C9 JUMP JUMPDEST POP POP SUB SWAP1 JUMP JUMPDEST PUSH1 0x1 PUSH1 0x1 PUSH1 0xA0 SHL SUB SWAP5 SWAP1 SWAP5 AND DUP5 MSTORE PUSH1 0x20 DUP5 ADD SWAP3 SWAP1 SWAP3 MSTORE PUSH1 0x40 DUP4 ADD MSTORE PUSH1 0x60 DUP3 ADD MSTORE PUSH1 0x80 ADD SWAP1 JUMP JUMPDEST PUSH1 0x0 DUP2 PUSH1 0x0 NOT DIV DUP4 GT DUP3 ISZERO ISZERO AND ISZERO PUSH2 0x3903 JUMPI PUSH2 0x3903 PUSH2 0x37C9 JUMP JUMPDEST POP MUL SWAP1 JUMP JUMPDEST PUSH1 0x0 PUSH1 0x1 PUSH1 0xFF SHL DUP3 EQ ISZERO PUSH2 0x391E JUMPI PUSH2 0x391E PUSH2 0x37C9 JUMP JUMPDEST POP PUSH1 0x0 SUB SWAP1 JUMP JUMPDEST PUSH1 0x0 DUP1 DUP3 SLT DUP1 ISZERO PUSH1 0x1 PUSH1 0x1 PUSH1 0xFF SHL SUB DUP5 SWAP1 SUB DUP6 SGT AND ISZERO PUSH2 0x3947 JUMPI PUSH2 0x3947 PUSH2 0x37C9 JUMP JUMPDEST PUSH1 0x1 PUSH1 0xFF SHL DUP4 SWAP1 SUB DUP5 SLT DUP2 AND ISZERO PUSH2 0x3960 JUMPI PUSH2 0x3960 PUSH2 0x37C9 JUMP JUMPDEST POP POP ADD SWAP1 JUMP JUMPDEST PUSH1 0x0 PUSH1 0xFF DUP3 AND PUSH1 0xFF DUP5 AND DUP1 PUSH1 0xFF SUB DUP3 GT ISZERO PUSH2 0x3983 JUMPI PUSH2 0x3983 PUSH2 0x37C9 JUMP JUMPDEST ADD SWAP4 SWAP3 POP POP POP JUMP JUMPDEST PUSH1 0x0 PUSH1 0x1 PUSH1 0x1 PUSH1 0xFF SHL SUB DUP2 DUP5 SGT DUP3 DUP5 SGT DUP1 DUP3 AND DUP7 DUP5 DIV DUP7 GT AND ISZERO PUSH2 0x39B1 JUMPI PUSH2 0x39B1 PUSH2 0x37C9 JUMP JUMPDEST PUSH1 0x1 PUSH1 0xFF SHL PUSH1 0x0 DUP8 SLT DUP3 DUP2 AND DUP8 DUP4 SDIV DUP10 SLT AND ISZERO PUSH2 0x39D0 JUMPI PUSH2 0x39D0 PUSH2 0x37C9 JUMP JUMPDEST PUSH1 0x0 DUP8 SLT SWAP3 POP DUP8 DUP3 SDIV DUP8 SLT DUP5 DUP5 AND AND ISZERO PUSH2 0x39EC JUMPI PUSH2 0x39EC PUSH2 0x37C9 JUMP JUMPDEST DUP8 DUP6 SDIV DUP8 SLT DUP2 DUP5 AND AND ISZERO PUSH2 0x3A02 JUMPI PUSH2 0x3A02 PUSH2 0x37C9 JUMP JUMPDEST POP POP POP SWAP3 SWAP1 SWAP4 MUL SWAP4 SWAP3 POP POP POP JUMP JUMPDEST PUSH4 0x4E487B71 PUSH1 0xE0 SHL PUSH1 0x0 MSTORE PUSH1 0x41 PUSH1 0x4 MSTORE PUSH1 0x24 PUSH1 0x0 REVERT JUMPDEST PUSH1 0x0 PUSH1 0xFF DUP3 AND PUSH1 0xFF DUP2 EQ ISZERO PUSH2 0x3A3D JUMPI PUSH2 0x3A3D PUSH2 0x37C9 JUMP JUMPDEST PUSH1 0x1 ADD SWAP3 SWAP2 POP POP JUMP INVALID LOG2 PUSH5 0x6970667358 0x22 SLT KECCAK256 0x28 LOG4 0x27 SHL DUP5 0xF7 0xC3 SWAP15 JUMP DUP16 PUSH23 0xBB74697B3BA9B170B17359CEF1C09A54A1D5BFB6C86473 PUSH16 0x6C634300080900330000000000000000 "},"methodIdentifiers":{"contributionScore(uint8,address)":"fa569fa2","contributionStart()":"a41dacd6","exitModel()":"0899604c","feedback(address,int256)":"3aa8f2ed","freeriderPenalty()":"005c43a5","getAllAccuraciesAbout(address)":"f6020f01","getAllPreviousAccuraciesAndLosses()":"701341ed","hasVoted(address,address)":"4d4d2b1c","initTS()":"fd5201be","isContributionRoundDone()":"d6aad1b9","isFeedBackRoundDone()":"dcc1484a","max_collateral()":"904a9d17","min_collateral()":"508be15e","min_rounds()":"3f4f2d62","modelHash()":"1b2ccc09","nrOfContributionScores(uint8)":"59ac0c46","nrOfParticipants()":"4e49ad78","nrOfProvidedHashedWeights()":"b986695b","participants(uint256)":"35c1d349","prev_accs(uint8,address)":"8b2f56fb","prev_losses(uint8,address)":"667ba0f6","provideHashedWeights(bytes32,uint256)":"64a3e221","punishfactor()":"fcbace5d","punishfactorContrib()":"186beae3","register()":"1aa3a008","register(address)":"4420e486","registerSlot(bytes32)":"f5b27228","rewardLeft()":"3eee0426","rewardPerRound()":"33f93bcd","round()":"146ca531","roundStart()":"40365852","secretOf(address,uint8)":"095083af","settle()":"11da60b4","submitContributionScore(int256)":"f283865f","submitFeedbackBytes(bytes)":"9699fee6","submitFeedbackBytesAndAccuracies(bytes,uint8[],uint256[],uint8,uint256)":"8fe557a1","totalReward()":"750142e6","users(address)":"a87430ba","votedPositiveFor(address,address)":"ca6e0385","votesPerRound()":"cc500ec9","weightsOf(address,uint8)":"45e4c379"}}}}}